{
	"ERC-20/customERC20.sol": {
		"customERC20": {
			"abi": [
				{
					"inputs": [],
					"stateMutability": "nonpayable",
					"type": "constructor"
				},
				{
					"anonymous": false,
					"inputs": [
						{
							"indexed": true,
							"internalType": "address",
							"name": "oener",
							"type": "address"
						},
						{
							"indexed": true,
							"internalType": "address",
							"name": "spender",
							"type": "address"
						},
						{
							"indexed": false,
							"internalType": "uint256",
							"name": "value",
							"type": "uint256"
						}
					],
					"name": "Approval",
					"type": "event"
				},
				{
					"anonymous": false,
					"inputs": [
						{
							"indexed": true,
							"internalType": "address",
							"name": "from",
							"type": "address"
						},
						{
							"indexed": true,
							"internalType": "address",
							"name": "to",
							"type": "address"
						},
						{
							"indexed": false,
							"internalType": "uint256",
							"name": "value",
							"type": "uint256"
						}
					],
					"name": "Transfer",
					"type": "event"
				},
				{
					"inputs": [
						{
							"internalType": "address",
							"name": "from",
							"type": "address"
						},
						{
							"internalType": "address",
							"name": "to",
							"type": "address"
						},
						{
							"internalType": "uint256",
							"name": "amount",
							"type": "uint256"
						}
					],
					"name": "_transfer",
					"outputs": [],
					"stateMutability": "nonpayable",
					"type": "function"
				},
				{
					"inputs": [
						{
							"internalType": "address",
							"name": "owner",
							"type": "address"
						},
						{
							"internalType": "address",
							"name": "spender",
							"type": "address"
						}
					],
					"name": "allowance",
					"outputs": [
						{
							"internalType": "uint256",
							"name": "",
							"type": "uint256"
						}
					],
					"stateMutability": "view",
					"type": "function"
				},
				{
					"inputs": [
						{
							"internalType": "address",
							"name": "spender",
							"type": "address"
						},
						{
							"internalType": "uint256",
							"name": "amount",
							"type": "uint256"
						}
					],
					"name": "approve",
					"outputs": [
						{
							"internalType": "bool",
							"name": "",
							"type": "bool"
						}
					],
					"stateMutability": "nonpayable",
					"type": "function"
				},
				{
					"inputs": [
						{
							"internalType": "address",
							"name": "account",
							"type": "address"
						}
					],
					"name": "balanceOf",
					"outputs": [
						{
							"internalType": "uint256",
							"name": "",
							"type": "uint256"
						}
					],
					"stateMutability": "view",
					"type": "function"
				},
				{
					"inputs": [
						{
							"internalType": "address",
							"name": "spender",
							"type": "address"
						},
						{
							"internalType": "uint256",
							"name": "subtractedValue",
							"type": "uint256"
						}
					],
					"name": "deceaseAllowance",
					"outputs": [
						{
							"internalType": "bool",
							"name": "",
							"type": "bool"
						}
					],
					"stateMutability": "nonpayable",
					"type": "function"
				},
				{
					"inputs": [],
					"name": "decimals",
					"outputs": [
						{
							"internalType": "uint256",
							"name": "",
							"type": "uint256"
						}
					],
					"stateMutability": "view",
					"type": "function"
				},
				{
					"inputs": [
						{
							"internalType": "address",
							"name": "spender",
							"type": "address"
						},
						{
							"internalType": "uint256",
							"name": "addedValue",
							"type": "uint256"
						}
					],
					"name": "increaseAllowance",
					"outputs": [
						{
							"internalType": "bool",
							"name": "",
							"type": "bool"
						}
					],
					"stateMutability": "nonpayable",
					"type": "function"
				},
				{
					"inputs": [],
					"name": "name",
					"outputs": [
						{
							"internalType": "string",
							"name": "",
							"type": "string"
						}
					],
					"stateMutability": "view",
					"type": "function"
				},
				{
					"inputs": [],
					"name": "symbol",
					"outputs": [
						{
							"internalType": "string",
							"name": "",
							"type": "string"
						}
					],
					"stateMutability": "view",
					"type": "function"
				},
				{
					"inputs": [],
					"name": "totalSupply",
					"outputs": [
						{
							"internalType": "uint256",
							"name": "",
							"type": "uint256"
						}
					],
					"stateMutability": "view",
					"type": "function"
				},
				{
					"inputs": [
						{
							"internalType": "address",
							"name": "to",
							"type": "address"
						},
						{
							"internalType": "uint256",
							"name": "amount",
							"type": "uint256"
						}
					],
					"name": "transfer",
					"outputs": [
						{
							"internalType": "bool",
							"name": "",
							"type": "bool"
						}
					],
					"stateMutability": "nonpayable",
					"type": "function"
				},
				{
					"inputs": [
						{
							"internalType": "address",
							"name": "from",
							"type": "address"
						},
						{
							"internalType": "address",
							"name": "to",
							"type": "address"
						},
						{
							"internalType": "uint256",
							"name": "amount",
							"type": "uint256"
						}
					],
					"name": "transferFrom",
					"outputs": [
						{
							"internalType": "bool",
							"name": "",
							"type": "bool"
						}
					],
					"stateMutability": "nonpayable",
					"type": "function"
				}
			],
			"devdoc": {
				"kind": "dev",
				"methods": {},
				"version": 1
			},
			"evm": {
				"assembly": "    /* \"ERC-20/customERC20.sol\":115:196  contract customERC20 is ERC20 {... */\n  mstore(0x40, 0x80)\n    /* \"ERC-20/customERC20.sol\":158:193  constructor() ERC20(\"joan\", \"ja\"){} */\n  callvalue\n  dup1\n  iszero\n  tag_1\n  jumpi\n  0x00\n  dup1\n  revert\ntag_1:\n  pop\n    /* \"ERC-20/token-erc-20.sol\":1088:1211  constructor(string memory name_, string memory symbol_){... */\n  mload(0x40)\n  dup1\n  0x40\n  add\n  0x40\n  mstore\n  dup1\n  0x04\n  dup2\n  mstore\n  0x20\n  add\n  0x6a6f616e00000000000000000000000000000000000000000000000000000000\n  dup2\n  mstore\n  pop\n  mload(0x40)\n  dup1\n  0x40\n  add\n  0x40\n  mstore\n  dup1\n  0x02\n  dup2\n  mstore\n  0x20\n  add\n  0x6a61000000000000000000000000000000000000000000000000000000000000\n  dup2\n  mstore\n  pop\n    /* \"ERC-20/token-erc-20.sol\":1162:1167  name_ */\n  dup2\n    /* \"ERC-20/token-erc-20.sol\":1154:1159  _name */\n  0x03\n    /* \"ERC-20/token-erc-20.sol\":1154:1167  _name = name_ */\n  swap1\n  dup2\n  tag_5\n  swap2\n  swap1\n  tag_6\n  jump\t// in\ntag_5:\n  pop\n    /* \"ERC-20/token-erc-20.sol\":1188:1195  symbol_ */\n  dup1\n    /* \"ERC-20/token-erc-20.sol\":1178:1185  _symbol */\n  0x04\n    /* \"ERC-20/token-erc-20.sol\":1178:1195  _symbol = symbol_ */\n  swap1\n  dup2\n  tag_7\n  swap2\n  swap1\n  tag_6\n  jump\t// in\ntag_7:\n  pop\n    /* \"ERC-20/token-erc-20.sol\":1088:1211  constructor(string memory name_, string memory symbol_){... */\n  pop\n  pop\n    /* \"ERC-20/customERC20.sol\":115:196  contract customERC20 is ERC20 {... */\n  jump(tag_9)\n    /* \"#utility.yul\":7:106   */\ntag_10:\n    /* \"#utility.yul\":59:65   */\n  0x00\n    /* \"#utility.yul\":93:98   */\n  dup2\n    /* \"#utility.yul\":87:99   */\n  mload\n    /* \"#utility.yul\":77:99   */\n  swap1\n  pop\n    /* \"#utility.yul\":7:106   */\n  swap2\n  swap1\n  pop\n  jump\t// out\n    /* \"#utility.yul\":112:292   */\ntag_11:\n    /* \"#utility.yul\":160:237   */\n  0x4e487b7100000000000000000000000000000000000000000000000000000000\n    /* \"#utility.yul\":157:158   */\n  0x00\n    /* \"#utility.yul\":150:238   */\n  mstore\n    /* \"#utility.yul\":257:261   */\n  0x41\n    /* \"#utility.yul\":254:255   */\n  0x04\n    /* \"#utility.yul\":247:262   */\n  mstore\n    /* \"#utility.yul\":281:285   */\n  0x24\n    /* \"#utility.yul\":278:279   */\n  0x00\n    /* \"#utility.yul\":271:286   */\n  revert\n    /* \"#utility.yul\":298:478   */\ntag_12:\n    /* \"#utility.yul\":346:423   */\n  0x4e487b7100000000000000000000000000000000000000000000000000000000\n    /* \"#utility.yul\":343:344   */\n  0x00\n    /* \"#utility.yul\":336:424   */\n  mstore\n    /* \"#utility.yul\":443:447   */\n  0x22\n    /* \"#utility.yul\":440:441   */\n  0x04\n    /* \"#utility.yul\":433:448   */\n  mstore\n    /* \"#utility.yul\":467:471   */\n  0x24\n    /* \"#utility.yul\":464:465   */\n  0x00\n    /* \"#utility.yul\":457:472   */\n  revert\n    /* \"#utility.yul\":484:804   */\ntag_13:\n    /* \"#utility.yul\":528:534   */\n  0x00\n    /* \"#utility.yul\":565:566   */\n  0x02\n    /* \"#utility.yul\":559:563   */\n  dup3\n    /* \"#utility.yul\":555:567   */\n  div\n    /* \"#utility.yul\":545:567   */\n  swap1\n  pop\n    /* \"#utility.yul\":612:613   */\n  0x01\n    /* \"#utility.yul\":606:610   */\n  dup3\n    /* \"#utility.yul\":602:614   */\n  and\n    /* \"#utility.yul\":633:651   */\n  dup1\n    /* \"#utility.yul\":623:704   */\n  tag_35\n  jumpi\n    /* \"#utility.yul\":689:693   */\n  0x7f\n    /* \"#utility.yul\":681:687   */\n  dup3\n    /* \"#utility.yul\":677:694   */\n  and\n    /* \"#utility.yul\":667:694   */\n  swap2\n  pop\n    /* \"#utility.yul\":623:704   */\ntag_35:\n    /* \"#utility.yul\":751:753   */\n  0x20\n    /* \"#utility.yul\":743:749   */\n  dup3\n    /* \"#utility.yul\":740:754   */\n  lt\n    /* \"#utility.yul\":720:738   */\n  dup2\n    /* \"#utility.yul\":717:755   */\n  sub\n    /* \"#utility.yul\":714:798   */\n  tag_36\n  jumpi\n    /* \"#utility.yul\":770:788   */\n  tag_37\n  tag_12\n  jump\t// in\ntag_37:\n    /* \"#utility.yul\":714:798   */\ntag_36:\n    /* \"#utility.yul\":535:804   */\n  pop\n    /* \"#utility.yul\":484:804   */\n  swap2\n  swap1\n  pop\n  jump\t// out\n    /* \"#utility.yul\":810:951   */\ntag_14:\n    /* \"#utility.yul\":859:863   */\n  0x00\n    /* \"#utility.yul\":882:885   */\n  dup2\n    /* \"#utility.yul\":874:885   */\n  swap1\n  pop\n    /* \"#utility.yul\":905:908   */\n  dup2\n    /* \"#utility.yul\":902:903   */\n  0x00\n    /* \"#utility.yul\":895:909   */\n  mstore\n    /* \"#utility.yul\":939:943   */\n  0x20\n    /* \"#utility.yul\":936:937   */\n  0x00\n    /* \"#utility.yul\":926:944   */\n  keccak256\n    /* \"#utility.yul\":918:944   */\n  swap1\n  pop\n    /* \"#utility.yul\":810:951   */\n  swap2\n  swap1\n  pop\n  jump\t// out\n    /* \"#utility.yul\":957:1050   */\ntag_15:\n    /* \"#utility.yul\":994:1000   */\n  0x00\n    /* \"#utility.yul\":1041:1043   */\n  0x20\n    /* \"#utility.yul\":1036:1038   */\n  0x1f\n    /* \"#utility.yul\":1029:1034   */\n  dup4\n    /* \"#utility.yul\":1025:1039   */\n  add\n    /* \"#utility.yul\":1021:1044   */\n  div\n    /* \"#utility.yul\":1011:1044   */\n  swap1\n  pop\n    /* \"#utility.yul\":957:1050   */\n  swap2\n  swap1\n  pop\n  jump\t// out\n    /* \"#utility.yul\":1056:1163   */\ntag_16:\n    /* \"#utility.yul\":1100:1108   */\n  0x00\n    /* \"#utility.yul\":1150:1155   */\n  dup3\n    /* \"#utility.yul\":1144:1148   */\n  dup3\n    /* \"#utility.yul\":1140:1156   */\n  shl\n    /* \"#utility.yul\":1119:1156   */\n  swap1\n  pop\n    /* \"#utility.yul\":1056:1163   */\n  swap3\n  swap2\n  pop\n  pop\n  jump\t// out\n    /* \"#utility.yul\":1169:1562   */\ntag_17:\n    /* \"#utility.yul\":1238:1244   */\n  0x00\n    /* \"#utility.yul\":1288:1289   */\n  0x08\n    /* \"#utility.yul\":1276:1286   */\n  dup4\n    /* \"#utility.yul\":1272:1290   */\n  mul\n    /* \"#utility.yul\":1311:1408   */\n  tag_42\n    /* \"#utility.yul\":1341:1407   */\n  0xffffffffffffffffffffffffffffffffffffffffffffffffffffffffffffffff\n    /* \"#utility.yul\":1330:1339   */\n  dup3\n    /* \"#utility.yul\":1311:1408   */\n  tag_16\n  jump\t// in\ntag_42:\n    /* \"#utility.yul\":1429:1468   */\n  tag_43\n    /* \"#utility.yul\":1459:1467   */\n  dup7\n    /* \"#utility.yul\":1448:1457   */\n  dup4\n    /* \"#utility.yul\":1429:1468   */\n  tag_16\n  jump\t// in\ntag_43:\n    /* \"#utility.yul\":1417:1468   */\n  swap6\n  pop\n    /* \"#utility.yul\":1501:1505   */\n  dup1\n    /* \"#utility.yul\":1497:1506   */\n  not\n    /* \"#utility.yul\":1490:1495   */\n  dup5\n    /* \"#utility.yul\":1486:1507   */\n  and\n    /* \"#utility.yul\":1477:1507   */\n  swap4\n  pop\n    /* \"#utility.yul\":1550:1554   */\n  dup1\n    /* \"#utility.yul\":1540:1548   */\n  dup7\n    /* \"#utility.yul\":1536:1555   */\n  and\n    /* \"#utility.yul\":1529:1534   */\n  dup5\n    /* \"#utility.yul\":1526:1556   */\n  or\n    /* \"#utility.yul\":1516:1556   */\n  swap3\n  pop\n    /* \"#utility.yul\":1245:1562   */\n  pop\n  pop\n    /* \"#utility.yul\":1169:1562   */\n  swap4\n  swap3\n  pop\n  pop\n  pop\n  jump\t// out\n    /* \"#utility.yul\":1568:1645   */\ntag_18:\n    /* \"#utility.yul\":1605:1612   */\n  0x00\n    /* \"#utility.yul\":1634:1639   */\n  dup2\n    /* \"#utility.yul\":1623:1639   */\n  swap1\n  pop\n    /* \"#utility.yul\":1568:1645   */\n  swap2\n  swap1\n  pop\n  jump\t// out\n    /* \"#utility.yul\":1651:1711   */\ntag_19:\n    /* \"#utility.yul\":1679:1682   */\n  0x00\n    /* \"#utility.yul\":1700:1705   */\n  dup2\n    /* \"#utility.yul\":1693:1705   */\n  swap1\n  pop\n    /* \"#utility.yul\":1651:1711   */\n  swap2\n  swap1\n  pop\n  jump\t// out\n    /* \"#utility.yul\":1717:1859   */\ntag_20:\n    /* \"#utility.yul\":1767:1776   */\n  0x00\n    /* \"#utility.yul\":1800:1853   */\n  tag_47\n    /* \"#utility.yul\":1818:1852   */\n  tag_48\n    /* \"#utility.yul\":1827:1851   */\n  tag_49\n    /* \"#utility.yul\":1845:1850   */\n  dup5\n    /* \"#utility.yul\":1827:1851   */\n  tag_18\n  jump\t// in\ntag_49:\n    /* \"#utility.yul\":1818:1852   */\n  tag_19\n  jump\t// in\ntag_48:\n    /* \"#utility.yul\":1800:1853   */\n  tag_18\n  jump\t// in\ntag_47:\n    /* \"#utility.yul\":1787:1853   */\n  swap1\n  pop\n    /* \"#utility.yul\":1717:1859   */\n  swap2\n  swap1\n  pop\n  jump\t// out\n    /* \"#utility.yul\":1865:1940   */\ntag_21:\n    /* \"#utility.yul\":1908:1911   */\n  0x00\n    /* \"#utility.yul\":1929:1934   */\n  dup2\n    /* \"#utility.yul\":1922:1934   */\n  swap1\n  pop\n    /* \"#utility.yul\":1865:1940   */\n  swap2\n  swap1\n  pop\n  jump\t// out\n    /* \"#utility.yul\":1946:2215   */\ntag_22:\n    /* \"#utility.yul\":2056:2095   */\n  tag_52\n    /* \"#utility.yul\":2087:2094   */\n  dup4\n    /* \"#utility.yul\":2056:2095   */\n  tag_20\n  jump\t// in\ntag_52:\n    /* \"#utility.yul\":2117:2208   */\n  tag_53\n    /* \"#utility.yul\":2166:2207   */\n  tag_54\n    /* \"#utility.yul\":2190:2206   */\n  dup3\n    /* \"#utility.yul\":2166:2207   */\n  tag_21\n  jump\t// in\ntag_54:\n    /* \"#utility.yul\":2158:2164   */\n  dup5\n    /* \"#utility.yul\":2151:2155   */\n  dup5\n    /* \"#utility.yul\":2145:2156   */\n  sload\n    /* \"#utility.yul\":2117:2208   */\n  tag_17\n  jump\t// in\ntag_53:\n    /* \"#utility.yul\":2111:2115   */\n  dup3\n    /* \"#utility.yul\":2104:2209   */\n  sstore\n    /* \"#utility.yul\":2022:2215   */\n  pop\n    /* \"#utility.yul\":1946:2215   */\n  pop\n  pop\n  pop\n  jump\t// out\n    /* \"#utility.yul\":2221:2294   */\ntag_23:\n    /* \"#utility.yul\":2266:2269   */\n  0x00\n    /* \"#utility.yul\":2221:2294   */\n  swap1\n  jump\t// out\n    /* \"#utility.yul\":2300:2489   */\ntag_24:\n    /* \"#utility.yul\":2377:2409   */\n  tag_57\n  tag_23\n  jump\t// in\ntag_57:\n    /* \"#utility.yul\":2418:2483   */\n  tag_58\n    /* \"#utility.yul\":2476:2482   */\n  dup2\n    /* \"#utility.yul\":2468:2474   */\n  dup5\n    /* \"#utility.yul\":2462:2466   */\n  dup5\n    /* \"#utility.yul\":2418:2483   */\n  tag_22\n  jump\t// in\ntag_58:\n    /* \"#utility.yul\":2353:2489   */\n  pop\n    /* \"#utility.yul\":2300:2489   */\n  pop\n  pop\n  jump\t// out\n    /* \"#utility.yul\":2495:2681   */\ntag_25:\n    /* \"#utility.yul\":2555:2675   */\ntag_60:\n    /* \"#utility.yul\":2572:2575   */\n  dup2\n    /* \"#utility.yul\":2565:2570   */\n  dup2\n    /* \"#utility.yul\":2562:2576   */\n  lt\n    /* \"#utility.yul\":2555:2675   */\n  iszero\n  tag_62\n  jumpi\n    /* \"#utility.yul\":2626:2665   */\n  tag_63\n    /* \"#utility.yul\":2663:2664   */\n  0x00\n    /* \"#utility.yul\":2656:2661   */\n  dup3\n    /* \"#utility.yul\":2626:2665   */\n  tag_24\n  jump\t// in\ntag_63:\n    /* \"#utility.yul\":2599:2600   */\n  0x01\n    /* \"#utility.yul\":2592:2597   */\n  dup2\n    /* \"#utility.yul\":2588:2601   */\n  add\n    /* \"#utility.yul\":2579:2601   */\n  swap1\n  pop\n    /* \"#utility.yul\":2555:2675   */\n  jump(tag_60)\ntag_62:\n    /* \"#utility.yul\":2495:2681   */\n  pop\n  pop\n  jump\t// out\n    /* \"#utility.yul\":2687:3230   */\ntag_26:\n    /* \"#utility.yul\":2788:2790   */\n  0x1f\n    /* \"#utility.yul\":2783:2786   */\n  dup3\n    /* \"#utility.yul\":2780:2791   */\n  gt\n    /* \"#utility.yul\":2777:3223   */\n  iszero\n  tag_65\n  jumpi\n    /* \"#utility.yul\":2822:2860   */\n  tag_66\n    /* \"#utility.yul\":2854:2859   */\n  dup2\n    /* \"#utility.yul\":2822:2860   */\n  tag_14\n  jump\t// in\ntag_66:\n    /* \"#utility.yul\":2906:2935   */\n  tag_67\n    /* \"#utility.yul\":2924:2934   */\n  dup5\n    /* \"#utility.yul\":2906:2935   */\n  tag_15\n  jump\t// in\ntag_67:\n    /* \"#utility.yul\":2896:2904   */\n  dup2\n    /* \"#utility.yul\":2892:2936   */\n  add\n    /* \"#utility.yul\":3089:3091   */\n  0x20\n    /* \"#utility.yul\":3077:3087   */\n  dup6\n    /* \"#utility.yul\":3074:3092   */\n  lt\n    /* \"#utility.yul\":3071:3120   */\n  iszero\n  tag_68\n  jumpi\n    /* \"#utility.yul\":3110:3118   */\n  dup2\n    /* \"#utility.yul\":3095:3118   */\n  swap1\n  pop\n    /* \"#utility.yul\":3071:3120   */\ntag_68:\n    /* \"#utility.yul\":3133:3213   */\n  tag_69\n    /* \"#utility.yul\":3189:3211   */\n  tag_70\n    /* \"#utility.yul\":3207:3210   */\n  dup6\n    /* \"#utility.yul\":3189:3211   */\n  tag_15\n  jump\t// in\ntag_70:\n    /* \"#utility.yul\":3179:3187   */\n  dup4\n    /* \"#utility.yul\":3175:3212   */\n  add\n    /* \"#utility.yul\":3162:3173   */\n  dup3\n    /* \"#utility.yul\":3133:3213   */\n  tag_25\n  jump\t// in\ntag_69:\n    /* \"#utility.yul\":2792:3223   */\n  pop\n  pop\n    /* \"#utility.yul\":2777:3223   */\ntag_65:\n    /* \"#utility.yul\":2687:3230   */\n  pop\n  pop\n  pop\n  jump\t// out\n    /* \"#utility.yul\":3236:3353   */\ntag_27:\n    /* \"#utility.yul\":3290:3298   */\n  0x00\n    /* \"#utility.yul\":3340:3345   */\n  dup3\n    /* \"#utility.yul\":3334:3338   */\n  dup3\n    /* \"#utility.yul\":3330:3346   */\n  shr\n    /* \"#utility.yul\":3309:3346   */\n  swap1\n  pop\n    /* \"#utility.yul\":3236:3353   */\n  swap3\n  swap2\n  pop\n  pop\n  jump\t// out\n    /* \"#utility.yul\":3359:3528   */\ntag_28:\n    /* \"#utility.yul\":3403:3409   */\n  0x00\n    /* \"#utility.yul\":3436:3487   */\n  tag_73\n    /* \"#utility.yul\":3484:3485   */\n  0x00\n    /* \"#utility.yul\":3480:3486   */\n  not\n    /* \"#utility.yul\":3472:3477   */\n  dup5\n    /* \"#utility.yul\":3469:3470   */\n  0x08\n    /* \"#utility.yul\":3465:3478   */\n  mul\n    /* \"#utility.yul\":3436:3487   */\n  tag_27\n  jump\t// in\ntag_73:\n    /* \"#utility.yul\":3432:3488   */\n  not\n    /* \"#utility.yul\":3517:3521   */\n  dup1\n    /* \"#utility.yul\":3511:3515   */\n  dup4\n    /* \"#utility.yul\":3507:3522   */\n  and\n    /* \"#utility.yul\":3497:3522   */\n  swap2\n  pop\n    /* \"#utility.yul\":3410:3528   */\n  pop\n    /* \"#utility.yul\":3359:3528   */\n  swap3\n  swap2\n  pop\n  pop\n  jump\t// out\n    /* \"#utility.yul\":3533:3828   */\ntag_29:\n    /* \"#utility.yul\":3609:3613   */\n  0x00\n    /* \"#utility.yul\":3755:3784   */\n  tag_75\n    /* \"#utility.yul\":3780:3783   */\n  dup4\n    /* \"#utility.yul\":3774:3778   */\n  dup4\n    /* \"#utility.yul\":3755:3784   */\n  tag_28\n  jump\t// in\ntag_75:\n    /* \"#utility.yul\":3747:3784   */\n  swap2\n  pop\n    /* \"#utility.yul\":3817:3820   */\n  dup3\n    /* \"#utility.yul\":3814:3815   */\n  0x02\n    /* \"#utility.yul\":3810:3821   */\n  mul\n    /* \"#utility.yul\":3804:3808   */\n  dup3\n    /* \"#utility.yul\":3801:3822   */\n  or\n    /* \"#utility.yul\":3793:3822   */\n  swap1\n  pop\n    /* \"#utility.yul\":3533:3828   */\n  swap3\n  swap2\n  pop\n  pop\n  jump\t// out\n    /* \"#utility.yul\":3833:5228   */\ntag_6:\n    /* \"#utility.yul\":3950:3987   */\n  tag_77\n    /* \"#utility.yul\":3983:3986   */\n  dup3\n    /* \"#utility.yul\":3950:3987   */\n  tag_10\n  jump\t// in\ntag_77:\n    /* \"#utility.yul\":4052:4070   */\n  0xffffffffffffffff\n    /* \"#utility.yul\":4044:4050   */\n  dup2\n    /* \"#utility.yul\":4041:4071   */\n  gt\n    /* \"#utility.yul\":4038:4094   */\n  iszero\n  tag_78\n  jumpi\n    /* \"#utility.yul\":4074:4092   */\n  tag_79\n  tag_11\n  jump\t// in\ntag_79:\n    /* \"#utility.yul\":4038:4094   */\ntag_78:\n    /* \"#utility.yul\":4118:4156   */\n  tag_80\n    /* \"#utility.yul\":4150:4154   */\n  dup3\n    /* \"#utility.yul\":4144:4155   */\n  sload\n    /* \"#utility.yul\":4118:4156   */\n  tag_13\n  jump\t// in\ntag_80:\n    /* \"#utility.yul\":4203:4270   */\n  tag_81\n    /* \"#utility.yul\":4263:4269   */\n  dup3\n    /* \"#utility.yul\":4255:4261   */\n  dup3\n    /* \"#utility.yul\":4249:4253   */\n  dup6\n    /* \"#utility.yul\":4203:4270   */\n  tag_26\n  jump\t// in\ntag_81:\n    /* \"#utility.yul\":4297:4298   */\n  0x00\n    /* \"#utility.yul\":4321:4325   */\n  0x20\n    /* \"#utility.yul\":4308:4325   */\n  swap1\n  pop\n    /* \"#utility.yul\":4353:4355   */\n  0x1f\n    /* \"#utility.yul\":4345:4351   */\n  dup4\n    /* \"#utility.yul\":4342:4356   */\n  gt\n    /* \"#utility.yul\":4370:4371   */\n  0x01\n    /* \"#utility.yul\":4365:4983   */\n  dup2\n  eq\n  tag_83\n  jumpi\n    /* \"#utility.yul\":5027:5028   */\n  0x00\n    /* \"#utility.yul\":5044:5050   */\n  dup5\n    /* \"#utility.yul\":5041:5118   */\n  iszero\n  tag_84\n  jumpi\n    /* \"#utility.yul\":5093:5102   */\n  dup3\n    /* \"#utility.yul\":5088:5091   */\n  dup8\n    /* \"#utility.yul\":5084:5103   */\n  add\n    /* \"#utility.yul\":5078:5104   */\n  mload\n    /* \"#utility.yul\":5069:5104   */\n  swap1\n  pop\n    /* \"#utility.yul\":5041:5118   */\ntag_84:\n    /* \"#utility.yul\":5144:5211   */\n  tag_85\n    /* \"#utility.yul\":5204:5210   */\n  dup6\n    /* \"#utility.yul\":5197:5202   */\n  dup3\n    /* \"#utility.yul\":5144:5211   */\n  tag_29\n  jump\t// in\ntag_85:\n    /* \"#utility.yul\":5138:5142   */\n  dup7\n    /* \"#utility.yul\":5131:5212   */\n  sstore\n    /* \"#utility.yul\":5000:5222   */\n  pop\n    /* \"#utility.yul\":4335:5222   */\n  jump(tag_82)\n    /* \"#utility.yul\":4365:4983   */\ntag_83:\n    /* \"#utility.yul\":4417:4421   */\n  0x1f\n    /* \"#utility.yul\":4413:4422   */\n  not\n    /* \"#utility.yul\":4405:4411   */\n  dup5\n    /* \"#utility.yul\":4401:4423   */\n  and\n    /* \"#utility.yul\":4451:4488   */\n  tag_86\n    /* \"#utility.yul\":4483:4487   */\n  dup7\n    /* \"#utility.yul\":4451:4488   */\n  tag_14\n  jump\t// in\ntag_86:\n    /* \"#utility.yul\":4510:4511   */\n  0x00\n    /* \"#utility.yul\":4524:4732   */\ntag_87:\n    /* \"#utility.yul\":4538:4545   */\n  dup3\n    /* \"#utility.yul\":4535:4536   */\n  dup2\n    /* \"#utility.yul\":4532:4546   */\n  lt\n    /* \"#utility.yul\":4524:4732   */\n  iszero\n  tag_89\n  jumpi\n    /* \"#utility.yul\":4617:4626   */\n  dup5\n    /* \"#utility.yul\":4612:4615   */\n  dup10\n    /* \"#utility.yul\":4608:4627   */\n  add\n    /* \"#utility.yul\":4602:4628   */\n  mload\n    /* \"#utility.yul\":4594:4600   */\n  dup3\n    /* \"#utility.yul\":4587:4629   */\n  sstore\n    /* \"#utility.yul\":4668:4669   */\n  0x01\n    /* \"#utility.yul\":4660:4666   */\n  dup3\n    /* \"#utility.yul\":4656:4670   */\n  add\n    /* \"#utility.yul\":4646:4670   */\n  swap2\n  pop\n    /* \"#utility.yul\":4715:4717   */\n  0x20\n    /* \"#utility.yul\":4704:4713   */\n  dup6\n    /* \"#utility.yul\":4700:4718   */\n  add\n    /* \"#utility.yul\":4687:4718   */\n  swap5\n  pop\n    /* \"#utility.yul\":4561:4565   */\n  0x20\n    /* \"#utility.yul\":4558:4559   */\n  dup2\n    /* \"#utility.yul\":4554:4566   */\n  add\n    /* \"#utility.yul\":4549:4566   */\n  swap1\n  pop\n    /* \"#utility.yul\":4524:4732   */\n  jump(tag_87)\ntag_89:\n    /* \"#utility.yul\":4760:4766   */\n  dup7\n    /* \"#utility.yul\":4751:4758   */\n  dup4\n    /* \"#utility.yul\":4748:4767   */\n  lt\n    /* \"#utility.yul\":4745:4924   */\n  iszero\n  tag_90\n  jumpi\n    /* \"#utility.yul\":4818:4827   */\n  dup5\n    /* \"#utility.yul\":4813:4816   */\n  dup10\n    /* \"#utility.yul\":4809:4828   */\n  add\n    /* \"#utility.yul\":4803:4829   */\n  mload\n    /* \"#utility.yul\":4861:4909   */\n  tag_91\n    /* \"#utility.yul\":4903:4907   */\n  0x1f\n    /* \"#utility.yul\":4895:4901   */\n  dup10\n    /* \"#utility.yul\":4891:4908   */\n  and\n    /* \"#utility.yul\":4880:4889   */\n  dup3\n    /* \"#utility.yul\":4861:4909   */\n  tag_28\n  jump\t// in\ntag_91:\n    /* \"#utility.yul\":4853:4859   */\n  dup4\n    /* \"#utility.yul\":4846:4910   */\n  sstore\n    /* \"#utility.yul\":4768:4924   */\n  pop\n    /* \"#utility.yul\":4745:4924   */\ntag_90:\n    /* \"#utility.yul\":4970:4971   */\n  0x01\n    /* \"#utility.yul\":4966:4967   */\n  0x02\n    /* \"#utility.yul\":4958:4964   */\n  dup9\n    /* \"#utility.yul\":4954:4968   */\n  mul\n    /* \"#utility.yul\":4950:4972   */\n  add\n    /* \"#utility.yul\":4944:4948   */\n  dup9\n    /* \"#utility.yul\":4937:4973   */\n  sstore\n    /* \"#utility.yul\":4372:4983   */\n  pop\n  pop\n  pop\n    /* \"#utility.yul\":4335:5222   */\ntag_82:\n  pop\n    /* \"#utility.yul\":3925:5228   */\n  pop\n  pop\n  pop\n    /* \"#utility.yul\":3833:5228   */\n  pop\n  pop\n  jump\t// out\n    /* \"ERC-20/customERC20.sol\":115:196  contract customERC20 is ERC20 {... */\ntag_9:\n  dataSize(sub_0)\n  dup1\n  dataOffset(sub_0)\n  0x00\n  codecopy\n  0x00\n  return\nstop\n\nsub_0: assembly {\n        /* \"ERC-20/customERC20.sol\":115:196  contract customERC20 is ERC20 {... */\n      mstore(0x40, 0x80)\n      callvalue\n      dup1\n      iszero\n      tag_1\n      jumpi\n      0x00\n      dup1\n      revert\n    tag_1:\n      pop\n      jumpi(tag_2, lt(calldatasize, 0x04))\n      shr(0xe0, calldataload(0x00))\n      dup1\n      0x39509351\n      gt\n      tag_15\n      jumpi\n      dup1\n      0x39509351\n      eq\n      tag_9\n      jumpi\n      dup1\n      0x70a08231\n      eq\n      tag_10\n      jumpi\n      dup1\n      0x89bd36f4\n      eq\n      tag_11\n      jumpi\n      dup1\n      0x95d89b41\n      eq\n      tag_12\n      jumpi\n      dup1\n      0xa9059cbb\n      eq\n      tag_13\n      jumpi\n      dup1\n      0xdd62ed3e\n      eq\n      tag_14\n      jumpi\n      jump(tag_2)\n    tag_15:\n      dup1\n      0x06fdde03\n      eq\n      tag_3\n      jumpi\n      dup1\n      0x095ea7b3\n      eq\n      tag_4\n      jumpi\n      dup1\n      0x18160ddd\n      eq\n      tag_5\n      jumpi\n      dup1\n      0x23b872dd\n      eq\n      tag_6\n      jumpi\n      dup1\n      0x30e0789e\n      eq\n      tag_7\n      jumpi\n      dup1\n      0x313ce567\n      eq\n      tag_8\n      jumpi\n    tag_2:\n      0x00\n      dup1\n      revert\n        /* \"ERC-20/token-erc-20.sol\":1219:1309  function name() public view virtual returns (string memory){... */\n    tag_3:\n      tag_16\n      tag_17\n      jump\t// in\n    tag_16:\n      mload(0x40)\n      tag_18\n      swap2\n      swap1\n      tag_19\n      jump\t// in\n    tag_18:\n      mload(0x40)\n      dup1\n      swap2\n      sub\n      swap1\n      return\n        /* \"ERC-20/token-erc-20.sol\":2122:2321  function approve(address spender, uint256 amount ) public virtual override returns (bool){... */\n    tag_4:\n      tag_20\n      0x04\n      dup1\n      calldatasize\n      sub\n      dup2\n      add\n      swap1\n      tag_21\n      swap2\n      swap1\n      tag_22\n      jump\t// in\n    tag_21:\n      tag_23\n      jump\t// in\n    tag_20:\n      mload(0x40)\n      tag_24\n      swap2\n      swap1\n      tag_25\n      jump\t// in\n    tag_24:\n      mload(0x40)\n      dup1\n      swap2\n      sub\n      swap1\n      return\n        /* \"ERC-20/token-erc-20.sol\":1512:1620  function totalSupply() public view virtual override returns (uint256) {... */\n    tag_5:\n      tag_26\n      tag_27\n      jump\t// in\n    tag_26:\n      mload(0x40)\n      tag_28\n      swap2\n      swap1\n      tag_29\n      jump\t// in\n    tag_28:\n      mload(0x40)\n      dup1\n      swap2\n      sub\n      swap1\n      return\n        /* \"ERC-20/token-erc-20.sol\":2329:2622  function transferFrom(... */\n    tag_6:\n      tag_30\n      0x04\n      dup1\n      calldatasize\n      sub\n      dup2\n      add\n      swap1\n      tag_31\n      swap2\n      swap1\n      tag_32\n      jump\t// in\n    tag_31:\n      tag_33\n      jump\t// in\n    tag_30:\n      mload(0x40)\n      tag_34\n      swap2\n      swap1\n      tag_25\n      jump\t// in\n    tag_34:\n      mload(0x40)\n      dup1\n      swap2\n      sub\n      swap1\n      return\n        /* \"ERC-20/token-erc-20.sol\":3319:3976  function _transfer(... */\n    tag_7:\n      tag_35\n      0x04\n      dup1\n      calldatasize\n      sub\n      dup2\n      add\n      swap1\n      tag_36\n      swap2\n      swap1\n      tag_32\n      jump\t// in\n    tag_36:\n      tag_37\n      jump\t// in\n    tag_35:\n      stop\n        /* \"ERC-20/token-erc-20.sol\":1419:1504  function decimals() public view virtual returns (uint256){... */\n    tag_8:\n      tag_38\n      tag_39\n      jump\t// in\n    tag_38:\n      mload(0x40)\n      tag_40\n      swap2\n      swap1\n      tag_29\n      jump\t// in\n    tag_40:\n      mload(0x40)\n      dup1\n      swap2\n      sub\n      swap1\n      return\n        /* \"ERC-20/token-erc-20.sol\":2630:2867  function increaseAllowance(address spender, uint256 addedValue) public virtual returns (bool){... */\n    tag_9:\n      tag_41\n      0x04\n      dup1\n      calldatasize\n      sub\n      dup2\n      add\n      swap1\n      tag_42\n      swap2\n      swap1\n      tag_22\n      jump\t// in\n    tag_42:\n      tag_43\n      jump\t// in\n    tag_41:\n      mload(0x40)\n      tag_44\n      swap2\n      swap1\n      tag_25\n      jump\t// in\n    tag_44:\n      mload(0x40)\n      dup1\n      swap2\n      sub\n      swap1\n      return\n        /* \"ERC-20/token-erc-20.sol\":1629:1755  function balanceOf(address account) public view virtual override returns (uint256) {... */\n    tag_10:\n      tag_45\n      0x04\n      dup1\n      calldatasize\n      sub\n      dup2\n      add\n      swap1\n      tag_46\n      swap2\n      swap1\n      tag_47\n      jump\t// in\n    tag_46:\n      tag_48\n      jump\t// in\n    tag_45:\n      mload(0x40)\n      tag_49\n      swap2\n      swap1\n      tag_29\n      jump\t// in\n    tag_49:\n      mload(0x40)\n      dup1\n      swap2\n      sub\n      swap1\n      return\n        /* \"ERC-20/token-erc-20.sol\":2875:3311  function deceaseAllowance(address spender, uint256 subtractedValue) public virtual returns (bool){... */\n    tag_11:\n      tag_50\n      0x04\n      dup1\n      calldatasize\n      sub\n      dup2\n      add\n      swap1\n      tag_51\n      swap2\n      swap1\n      tag_22\n      jump\t// in\n    tag_51:\n      tag_52\n      jump\t// in\n    tag_50:\n      mload(0x40)\n      tag_53\n      swap2\n      swap1\n      tag_25\n      jump\t// in\n    tag_53:\n      mload(0x40)\n      dup1\n      swap2\n      sub\n      swap1\n      return\n        /* \"ERC-20/token-erc-20.sol\":1317:1411  function symbol() public view virtual returns (string memory){... */\n    tag_12:\n      tag_54\n      tag_55\n      jump\t// in\n    tag_54:\n      mload(0x40)\n      tag_56\n      swap2\n      swap1\n      tag_19\n      jump\t// in\n    tag_56:\n      mload(0x40)\n      dup1\n      swap2\n      sub\n      swap1\n      return\n        /* \"ERC-20/token-erc-20.sol\":1763:1954  function transfer(address to, uint256 amount) public virtual override returns (bool) {... */\n    tag_13:\n      tag_57\n      0x04\n      dup1\n      calldatasize\n      sub\n      dup2\n      add\n      swap1\n      tag_58\n      swap2\n      swap1\n      tag_22\n      jump\t// in\n    tag_58:\n      tag_59\n      jump\t// in\n    tag_57:\n      mload(0x40)\n      tag_60\n      swap2\n      swap1\n      tag_25\n      jump\t// in\n    tag_60:\n      mload(0x40)\n      dup1\n      swap2\n      sub\n      swap1\n      return\n        /* \"ERC-20/token-erc-20.sol\":1962:2114  function allowance(address owner, address spender)  public view virtual override returns (uint256) {... */\n    tag_14:\n      tag_61\n      0x04\n      dup1\n      calldatasize\n      sub\n      dup2\n      add\n      swap1\n      tag_62\n      swap2\n      swap1\n      tag_63\n      jump\t// in\n    tag_62:\n      tag_64\n      jump\t// in\n    tag_61:\n      mload(0x40)\n      tag_65\n      swap2\n      swap1\n      tag_29\n      jump\t// in\n    tag_65:\n      mload(0x40)\n      dup1\n      swap2\n      sub\n      swap1\n      return\n        /* \"ERC-20/token-erc-20.sol\":1219:1309  function name() public view virtual returns (string memory){... */\n    tag_17:\n        /* \"ERC-20/token-erc-20.sol\":1264:1277  string memory */\n      0x60\n        /* \"ERC-20/token-erc-20.sol\":1296:1301  _name */\n      0x03\n        /* \"ERC-20/token-erc-20.sol\":1289:1301  return _name */\n      dup1\n      sload\n      tag_67\n      swap1\n      tag_68\n      jump\t// in\n    tag_67:\n      dup1\n      0x1f\n      add\n      0x20\n      dup1\n      swap2\n      div\n      mul\n      0x20\n      add\n      mload(0x40)\n      swap1\n      dup2\n      add\n      0x40\n      mstore\n      dup1\n      swap3\n      swap2\n      swap1\n      dup2\n      dup2\n      mstore\n      0x20\n      add\n      dup3\n      dup1\n      sload\n      tag_69\n      swap1\n      tag_68\n      jump\t// in\n    tag_69:\n      dup1\n      iszero\n      tag_70\n      jumpi\n      dup1\n      0x1f\n      lt\n      tag_71\n      jumpi\n      0x0100\n      dup1\n      dup4\n      sload\n      div\n      mul\n      dup4\n      mstore\n      swap2\n      0x20\n      add\n      swap2\n      jump(tag_70)\n    tag_71:\n      dup3\n      add\n      swap2\n      swap1\n      0x00\n      mstore\n      keccak256(0x00, 0x20)\n      swap1\n    tag_72:\n      dup2\n      sload\n      dup2\n      mstore\n      swap1\n      0x01\n      add\n      swap1\n      0x20\n      add\n      dup1\n      dup4\n      gt\n      tag_72\n      jumpi\n      dup3\n      swap1\n      sub\n      0x1f\n      and\n      dup3\n      add\n      swap2\n    tag_70:\n      pop\n      pop\n      pop\n      pop\n      pop\n      swap1\n      pop\n        /* \"ERC-20/token-erc-20.sol\":1219:1309  function name() public view virtual returns (string memory){... */\n      swap1\n      jump\t// out\n        /* \"ERC-20/token-erc-20.sol\":2122:2321  function approve(address spender, uint256 amount ) public virtual override returns (bool){... */\n    tag_23:\n        /* \"ERC-20/token-erc-20.sol\":2206:2210  bool */\n      0x00\n        /* \"ERC-20/token-erc-20.sol\":2222:2235  address owner */\n      dup1\n        /* \"ERC-20/token-erc-20.sol\":2238:2248  msg.sender */\n      caller\n        /* \"ERC-20/token-erc-20.sol\":2222:2248  address owner = msg.sender */\n      swap1\n      pop\n        /* \"ERC-20/token-erc-20.sol\":2259:2291  _approve(owner, spender, amount) */\n      tag_74\n        /* \"ERC-20/token-erc-20.sol\":2268:2273  owner */\n      dup2\n        /* \"ERC-20/token-erc-20.sol\":2275:2282  spender */\n      dup6\n        /* \"ERC-20/token-erc-20.sol\":2284:2290  amount */\n      dup6\n        /* \"ERC-20/token-erc-20.sol\":2259:2267  _approve */\n      tag_75\n        /* \"ERC-20/token-erc-20.sol\":2259:2291  _approve(owner, spender, amount) */\n      jump\t// in\n    tag_74:\n        /* \"ERC-20/token-erc-20.sol\":2309:2313  true */\n      0x01\n        /* \"ERC-20/token-erc-20.sol\":2302:2313  return true */\n      swap2\n      pop\n      pop\n        /* \"ERC-20/token-erc-20.sol\":2122:2321  function approve(address spender, uint256 amount ) public virtual override returns (bool){... */\n      swap3\n      swap2\n      pop\n      pop\n      jump\t// out\n        /* \"ERC-20/token-erc-20.sol\":1512:1620  function totalSupply() public view virtual override returns (uint256) {... */\n    tag_27:\n        /* \"ERC-20/token-erc-20.sol\":1573:1580  uint256 */\n      0x00\n        /* \"ERC-20/token-erc-20.sol\":1600:1612  _totalSupply */\n      sload(0x02)\n        /* \"ERC-20/token-erc-20.sol\":1593:1612  return _totalSupply */\n      swap1\n      pop\n        /* \"ERC-20/token-erc-20.sol\":1512:1620  function totalSupply() public view virtual override returns (uint256) {... */\n      swap1\n      jump\t// out\n        /* \"ERC-20/token-erc-20.sol\":2329:2622  function transferFrom(... */\n    tag_33:\n        /* \"ERC-20/token-erc-20.sol\":2460:2464  bool */\n      0x00\n        /* \"ERC-20/token-erc-20.sol\":2477:2492  address spender */\n      dup1\n        /* \"ERC-20/token-erc-20.sol\":2495:2505  msg.sender */\n      caller\n        /* \"ERC-20/token-erc-20.sol\":2477:2505  address spender = msg.sender */\n      swap1\n      pop\n        /* \"ERC-20/token-erc-20.sol\":2516:2554  _spendAllowance(from, spender, amount) */\n      tag_78\n        /* \"ERC-20/token-erc-20.sol\":2532:2536  from */\n      dup6\n        /* \"ERC-20/token-erc-20.sol\":2538:2545  spender */\n      dup3\n        /* \"ERC-20/token-erc-20.sol\":2547:2553  amount */\n      dup6\n        /* \"ERC-20/token-erc-20.sol\":2516:2531  _spendAllowance */\n      tag_79\n        /* \"ERC-20/token-erc-20.sol\":2516:2554  _spendAllowance(from, spender, amount) */\n      jump\t// in\n    tag_78:\n        /* \"ERC-20/token-erc-20.sol\":2565:2592  _transfer(from, to, amount) */\n      tag_80\n        /* \"ERC-20/token-erc-20.sol\":2575:2579  from */\n      dup6\n        /* \"ERC-20/token-erc-20.sol\":2581:2583  to */\n      dup6\n        /* \"ERC-20/token-erc-20.sol\":2585:2591  amount */\n      dup6\n        /* \"ERC-20/token-erc-20.sol\":2565:2574  _transfer */\n      tag_37\n        /* \"ERC-20/token-erc-20.sol\":2565:2592  _transfer(from, to, amount) */\n      jump\t// in\n    tag_80:\n        /* \"ERC-20/token-erc-20.sol\":2610:2614  true */\n      0x01\n        /* \"ERC-20/token-erc-20.sol\":2603:2614  return true */\n      swap2\n      pop\n      pop\n        /* \"ERC-20/token-erc-20.sol\":2329:2622  function transferFrom(... */\n      swap4\n      swap3\n      pop\n      pop\n      pop\n      jump\t// out\n        /* \"ERC-20/token-erc-20.sol\":3319:3976  function _transfer(... */\n    tag_37:\n        /* \"ERC-20/token-erc-20.sol\":3464:3465  0 */\n      0x00\n        /* \"ERC-20/token-erc-20.sol\":3448:3466  from != address(0) */\n      0xffffffffffffffffffffffffffffffffffffffff\n      and\n        /* \"ERC-20/token-erc-20.sol\":3448:3452  from */\n      dup4\n        /* \"ERC-20/token-erc-20.sol\":3448:3466  from != address(0) */\n      0xffffffffffffffffffffffffffffffffffffffff\n      and\n      sub\n        /* \"ERC-20/token-erc-20.sol\":3440:3508  require(from != address(0), \"ERC20: transfer from the zero address\") */\n      tag_82\n      jumpi\n      mload(0x40)\n      0x08c379a000000000000000000000000000000000000000000000000000000000\n      dup2\n      mstore\n      0x04\n      add\n      tag_83\n      swap1\n      tag_84\n      jump\t// in\n    tag_83:\n      mload(0x40)\n      dup1\n      swap2\n      sub\n      swap1\n      revert\n    tag_82:\n        /* \"ERC-20/token-erc-20.sol\":3541:3542  0 */\n      0x00\n        /* \"ERC-20/token-erc-20.sol\":3527:3543  to != address(0) */\n      0xffffffffffffffffffffffffffffffffffffffff\n      and\n        /* \"ERC-20/token-erc-20.sol\":3527:3529  to */\n      dup3\n        /* \"ERC-20/token-erc-20.sol\":3527:3543  to != address(0) */\n      0xffffffffffffffffffffffffffffffffffffffff\n      and\n      sub\n        /* \"ERC-20/token-erc-20.sol\":3519:3583  require(to != address(0), \"ERC20: transfer to the zero address\") */\n      tag_85\n      jumpi\n      mload(0x40)\n      0x08c379a000000000000000000000000000000000000000000000000000000000\n      dup2\n      mstore\n      0x04\n      add\n      tag_86\n      swap1\n      tag_87\n      jump\t// in\n    tag_86:\n      mload(0x40)\n      dup1\n      swap2\n      sub\n      swap1\n      revert\n    tag_85:\n        /* \"ERC-20/token-erc-20.sol\":3594:3632  _befereTokenTransfer(from, to, amount) */\n      tag_88\n        /* \"ERC-20/token-erc-20.sol\":3615:3619  from */\n      dup4\n        /* \"ERC-20/token-erc-20.sol\":3621:3623  to */\n      dup4\n        /* \"ERC-20/token-erc-20.sol\":3625:3631  amount */\n      dup4\n        /* \"ERC-20/token-erc-20.sol\":3594:3614  _befereTokenTransfer */\n      tag_89\n        /* \"ERC-20/token-erc-20.sol\":3594:3632  _befereTokenTransfer(from, to, amount) */\n      jump\t// in\n    tag_88:\n        /* \"ERC-20/token-erc-20.sol\":3643:3662  uint256 fromBalance */\n      0x00\n        /* \"ERC-20/token-erc-20.sol\":3665:3673  _balance */\n      dup1\n        /* \"ERC-20/token-erc-20.sol\":3665:3679  _balance[from] */\n      0x00\n        /* \"ERC-20/token-erc-20.sol\":3674:3678  from */\n      dup6\n        /* \"ERC-20/token-erc-20.sol\":3665:3679  _balance[from] */\n      0xffffffffffffffffffffffffffffffffffffffff\n      and\n      0xffffffffffffffffffffffffffffffffffffffff\n      and\n      dup2\n      mstore\n      0x20\n      add\n      swap1\n      dup2\n      mstore\n      0x20\n      add\n      0x00\n      keccak256\n      sload\n        /* \"ERC-20/token-erc-20.sol\":3643:3679  uint256 fromBalance = _balance[from] */\n      swap1\n      pop\n        /* \"ERC-20/token-erc-20.sol\":3713:3719  amount */\n      dup2\n        /* \"ERC-20/token-erc-20.sol\":3698:3709  fromBalance */\n      dup2\n        /* \"ERC-20/token-erc-20.sol\":3698:3719  fromBalance >= amount */\n      lt\n      iszero\n        /* \"ERC-20/token-erc-20.sol\":3690:3762  require(fromBalance >= amount, \"ERC20: transfer amount exceeds balance\") */\n      tag_90\n      jumpi\n      mload(0x40)\n      0x08c379a000000000000000000000000000000000000000000000000000000000\n      dup2\n      mstore\n      0x04\n      add\n      tag_91\n      swap1\n      tag_92\n      jump\t// in\n    tag_91:\n      mload(0x40)\n      dup1\n      swap2\n      sub\n      swap1\n      revert\n    tag_90:\n        /* \"ERC-20/token-erc-20.sol\":3829:3835  amount */\n      dup2\n        /* \"ERC-20/token-erc-20.sol\":3815:3826  fromBalance */\n      dup2\n        /* \"ERC-20/token-erc-20.sol\":3815:3835  fromBalance - amount */\n      sub\n        /* \"ERC-20/token-erc-20.sol\":3798:3806  _balance */\n      0x00\n        /* \"ERC-20/token-erc-20.sol\":3798:3812  _balance[from] */\n      dup1\n        /* \"ERC-20/token-erc-20.sol\":3807:3811  from */\n      dup7\n        /* \"ERC-20/token-erc-20.sol\":3798:3812  _balance[from] */\n      0xffffffffffffffffffffffffffffffffffffffff\n      and\n      0xffffffffffffffffffffffffffffffffffffffff\n      and\n      dup2\n      mstore\n      0x20\n      add\n      swap1\n      dup2\n      mstore\n      0x20\n      add\n      0x00\n      keccak256\n        /* \"ERC-20/token-erc-20.sol\":3798:3835  _balance[from] = fromBalance - amount */\n      dup2\n      swap1\n      sstore\n      pop\n        /* \"ERC-20/token-erc-20.sol\":3872:3878  amount */\n      dup2\n        /* \"ERC-20/token-erc-20.sol\":3857:3865  _balance */\n      0x00\n        /* \"ERC-20/token-erc-20.sol\":3857:3869  _balance[to] */\n      dup1\n        /* \"ERC-20/token-erc-20.sol\":3866:3868  to */\n      dup6\n        /* \"ERC-20/token-erc-20.sol\":3857:3869  _balance[to] */\n      0xffffffffffffffffffffffffffffffffffffffff\n      and\n      0xffffffffffffffffffffffffffffffffffffffff\n      and\n      dup2\n      mstore\n      0x20\n      add\n      swap1\n      dup2\n      mstore\n      0x20\n      add\n      0x00\n      keccak256\n        /* \"ERC-20/token-erc-20.sol\":3857:3878  _balance[to] = amount */\n      dup2\n      swap1\n      sstore\n      pop\n        /* \"ERC-20/token-erc-20.sol\":3909:3911  to */\n      dup3\n        /* \"ERC-20/token-erc-20.sol\":3894:3920  Transfer(from, to, amount) */\n      0xffffffffffffffffffffffffffffffffffffffff\n      and\n        /* \"ERC-20/token-erc-20.sol\":3903:3907  from */\n      dup5\n        /* \"ERC-20/token-erc-20.sol\":3894:3920  Transfer(from, to, amount) */\n      0xffffffffffffffffffffffffffffffffffffffff\n      and\n      0xddf252ad1be2c89b69c2b068fc378daa952ba7f163c4a11628f55a4df523b3ef\n        /* \"ERC-20/token-erc-20.sol\":3913:3919  amount */\n      dup5\n        /* \"ERC-20/token-erc-20.sol\":3894:3920  Transfer(from, to, amount) */\n      mload(0x40)\n      tag_93\n      swap2\n      swap1\n      tag_29\n      jump\t// in\n    tag_93:\n      mload(0x40)\n      dup1\n      swap2\n      sub\n      swap1\n      log3\n        /* \"ERC-20/token-erc-20.sol\":3931:3968  _afterTokenTransfer(from, to, amount) */\n      tag_94\n        /* \"ERC-20/token-erc-20.sol\":3951:3955  from */\n      dup5\n        /* \"ERC-20/token-erc-20.sol\":3957:3959  to */\n      dup5\n        /* \"ERC-20/token-erc-20.sol\":3961:3967  amount */\n      dup5\n        /* \"ERC-20/token-erc-20.sol\":3931:3950  _afterTokenTransfer */\n      tag_95\n        /* \"ERC-20/token-erc-20.sol\":3931:3968  _afterTokenTransfer(from, to, amount) */\n      jump\t// in\n    tag_94:\n        /* \"ERC-20/token-erc-20.sol\":3429:3976  {... */\n      pop\n        /* \"ERC-20/token-erc-20.sol\":3319:3976  function _transfer(... */\n      pop\n      pop\n      pop\n      jump\t// out\n        /* \"ERC-20/token-erc-20.sol\":1419:1504  function decimals() public view virtual returns (uint256){... */\n    tag_39:\n        /* \"ERC-20/token-erc-20.sol\":1468:1475  uint256 */\n      0x00\n        /* \"ERC-20/token-erc-20.sol\":1494:1496  18 */\n      0x12\n        /* \"ERC-20/token-erc-20.sol\":1487:1496  return 18 */\n      swap1\n      pop\n        /* \"ERC-20/token-erc-20.sol\":1419:1504  function decimals() public view virtual returns (uint256){... */\n      swap1\n      jump\t// out\n        /* \"ERC-20/token-erc-20.sol\":2630:2867  function increaseAllowance(address spender, uint256 addedValue) public virtual returns (bool){... */\n    tag_43:\n        /* \"ERC-20/token-erc-20.sol\":2718:2722  bool */\n      0x00\n        /* \"ERC-20/token-erc-20.sol\":2734:2747  address owner */\n      dup1\n        /* \"ERC-20/token-erc-20.sol\":2750:2760  msg.sender */\n      caller\n        /* \"ERC-20/token-erc-20.sol\":2734:2760  address owner = msg.sender */\n      swap1\n      pop\n        /* \"ERC-20/token-erc-20.sol\":2771:2837  _approve(owner, spender, _allowances[owner][spender] + addedValue) */\n      tag_98\n        /* \"ERC-20/token-erc-20.sol\":2780:2785  owner */\n      dup2\n        /* \"ERC-20/token-erc-20.sol\":2787:2794  spender */\n      dup6\n        /* \"ERC-20/token-erc-20.sol\":2826:2836  addedValue */\n      dup6\n        /* \"ERC-20/token-erc-20.sol\":2796:2807  _allowances */\n      0x01\n        /* \"ERC-20/token-erc-20.sol\":2796:2814  _allowances[owner] */\n      0x00\n        /* \"ERC-20/token-erc-20.sol\":2808:2813  owner */\n      dup7\n        /* \"ERC-20/token-erc-20.sol\":2796:2814  _allowances[owner] */\n      0xffffffffffffffffffffffffffffffffffffffff\n      and\n      0xffffffffffffffffffffffffffffffffffffffff\n      and\n      dup2\n      mstore\n      0x20\n      add\n      swap1\n      dup2\n      mstore\n      0x20\n      add\n      0x00\n      keccak256\n        /* \"ERC-20/token-erc-20.sol\":2796:2823  _allowances[owner][spender] */\n      0x00\n        /* \"ERC-20/token-erc-20.sol\":2815:2822  spender */\n      dup10\n        /* \"ERC-20/token-erc-20.sol\":2796:2823  _allowances[owner][spender] */\n      0xffffffffffffffffffffffffffffffffffffffff\n      and\n      0xffffffffffffffffffffffffffffffffffffffff\n      and\n      dup2\n      mstore\n      0x20\n      add\n      swap1\n      dup2\n      mstore\n      0x20\n      add\n      0x00\n      keccak256\n      sload\n        /* \"ERC-20/token-erc-20.sol\":2796:2836  _allowances[owner][spender] + addedValue */\n      tag_99\n      swap2\n      swap1\n      tag_100\n      jump\t// in\n    tag_99:\n        /* \"ERC-20/token-erc-20.sol\":2771:2779  _approve */\n      tag_75\n        /* \"ERC-20/token-erc-20.sol\":2771:2837  _approve(owner, spender, _allowances[owner][spender] + addedValue) */\n      jump\t// in\n    tag_98:\n        /* \"ERC-20/token-erc-20.sol\":2855:2859  true */\n      0x01\n        /* \"ERC-20/token-erc-20.sol\":2848:2859  return true */\n      swap2\n      pop\n      pop\n        /* \"ERC-20/token-erc-20.sol\":2630:2867  function increaseAllowance(address spender, uint256 addedValue) public virtual returns (bool){... */\n      swap3\n      swap2\n      pop\n      pop\n      jump\t// out\n        /* \"ERC-20/token-erc-20.sol\":1629:1755  function balanceOf(address account) public view virtual override returns (uint256) {... */\n    tag_48:\n        /* \"ERC-20/token-erc-20.sol\":1703:1710  uint256 */\n      0x00\n        /* \"ERC-20/token-erc-20.sol\":1730:1738  _balance */\n      dup1\n        /* \"ERC-20/token-erc-20.sol\":1730:1747  _balance[account] */\n      0x00\n        /* \"ERC-20/token-erc-20.sol\":1739:1746  account */\n      dup4\n        /* \"ERC-20/token-erc-20.sol\":1730:1747  _balance[account] */\n      0xffffffffffffffffffffffffffffffffffffffff\n      and\n      0xffffffffffffffffffffffffffffffffffffffff\n      and\n      dup2\n      mstore\n      0x20\n      add\n      swap1\n      dup2\n      mstore\n      0x20\n      add\n      0x00\n      keccak256\n      sload\n        /* \"ERC-20/token-erc-20.sol\":1723:1747  return _balance[account] */\n      swap1\n      pop\n        /* \"ERC-20/token-erc-20.sol\":1629:1755  function balanceOf(address account) public view virtual override returns (uint256) {... */\n      swap2\n      swap1\n      pop\n      jump\t// out\n        /* \"ERC-20/token-erc-20.sol\":2875:3311  function deceaseAllowance(address spender, uint256 subtractedValue) public virtual returns (bool){... */\n    tag_52:\n        /* \"ERC-20/token-erc-20.sol\":2967:2971  bool */\n      0x00\n        /* \"ERC-20/token-erc-20.sol\":2983:2996  address owner */\n      dup1\n        /* \"ERC-20/token-erc-20.sol\":2999:3009  msg.sender */\n      caller\n        /* \"ERC-20/token-erc-20.sol\":2983:3009  address owner = msg.sender */\n      swap1\n      pop\n        /* \"ERC-20/token-erc-20.sol\":3020:3044  uint256 currentAllowance */\n      0x00\n        /* \"ERC-20/token-erc-20.sol\":3048:3059  _allowances */\n      0x01\n        /* \"ERC-20/token-erc-20.sol\":3048:3066  _allowances[owner] */\n      0x00\n        /* \"ERC-20/token-erc-20.sol\":3060:3065  owner */\n      dup4\n        /* \"ERC-20/token-erc-20.sol\":3048:3066  _allowances[owner] */\n      0xffffffffffffffffffffffffffffffffffffffff\n      and\n      0xffffffffffffffffffffffffffffffffffffffff\n      and\n      dup2\n      mstore\n      0x20\n      add\n      swap1\n      dup2\n      mstore\n      0x20\n      add\n      0x00\n      keccak256\n        /* \"ERC-20/token-erc-20.sol\":3048:3075  _allowances[owner][spender] */\n      0x00\n        /* \"ERC-20/token-erc-20.sol\":3067:3074  spender */\n      dup7\n        /* \"ERC-20/token-erc-20.sol\":3048:3075  _allowances[owner][spender] */\n      0xffffffffffffffffffffffffffffffffffffffff\n      and\n      0xffffffffffffffffffffffffffffffffffffffff\n      and\n      dup2\n      mstore\n      0x20\n      add\n      swap1\n      dup2\n      mstore\n      0x20\n      add\n      0x00\n      keccak256\n      sload\n        /* \"ERC-20/token-erc-20.sol\":3020:3075  uint256 currentAllowance =  _allowances[owner][spender] */\n      swap1\n      pop\n        /* \"ERC-20/token-erc-20.sol\":3114:3129  subtractedValue */\n      dup4\n        /* \"ERC-20/token-erc-20.sol\":3094:3110  currentAllowance */\n      dup2\n        /* \"ERC-20/token-erc-20.sol\":3094:3129  currentAllowance >= subtractedValue */\n      lt\n      iszero\n        /* \"ERC-20/token-erc-20.sol\":3086:3172  require(currentAllowance >= subtractedValue, \"ERC20: decreased allowance  below zero\") */\n      tag_103\n      jumpi\n      mload(0x40)\n      0x08c379a000000000000000000000000000000000000000000000000000000000\n      dup2\n      mstore\n      0x04\n      add\n      tag_104\n      swap1\n      tag_105\n      jump\t// in\n    tag_104:\n      mload(0x40)\n      dup1\n      swap2\n      sub\n      swap1\n      revert\n    tag_103:\n        /* \"ERC-20/token-erc-20.sol\":3208:3268  _approve(owner, spender, currentAllowance - subtractedValue) */\n      tag_106\n        /* \"ERC-20/token-erc-20.sol\":3217:3222  owner */\n      dup3\n        /* \"ERC-20/token-erc-20.sol\":3224:3231  spender */\n      dup7\n        /* \"ERC-20/token-erc-20.sol\":3252:3267  subtractedValue */\n      dup7\n        /* \"ERC-20/token-erc-20.sol\":3233:3249  currentAllowance */\n      dup5\n        /* \"ERC-20/token-erc-20.sol\":3233:3267  currentAllowance - subtractedValue */\n      sub\n        /* \"ERC-20/token-erc-20.sol\":3208:3216  _approve */\n      tag_75\n        /* \"ERC-20/token-erc-20.sol\":3208:3268  _approve(owner, spender, currentAllowance - subtractedValue) */\n      jump\t// in\n    tag_106:\n        /* \"ERC-20/token-erc-20.sol\":3299:3303  true */\n      0x01\n        /* \"ERC-20/token-erc-20.sol\":3292:3303  return true */\n      swap3\n      pop\n      pop\n      pop\n        /* \"ERC-20/token-erc-20.sol\":2875:3311  function deceaseAllowance(address spender, uint256 subtractedValue) public virtual returns (bool){... */\n      swap3\n      swap2\n      pop\n      pop\n      jump\t// out\n        /* \"ERC-20/token-erc-20.sol\":1317:1411  function symbol() public view virtual returns (string memory){... */\n    tag_55:\n        /* \"ERC-20/token-erc-20.sol\":1364:1377  string memory */\n      0x60\n        /* \"ERC-20/token-erc-20.sol\":1396:1403  _symbol */\n      0x04\n        /* \"ERC-20/token-erc-20.sol\":1389:1403  return _symbol */\n      dup1\n      sload\n      tag_108\n      swap1\n      tag_68\n      jump\t// in\n    tag_108:\n      dup1\n      0x1f\n      add\n      0x20\n      dup1\n      swap2\n      div\n      mul\n      0x20\n      add\n      mload(0x40)\n      swap1\n      dup2\n      add\n      0x40\n      mstore\n      dup1\n      swap3\n      swap2\n      swap1\n      dup2\n      dup2\n      mstore\n      0x20\n      add\n      dup3\n      dup1\n      sload\n      tag_109\n      swap1\n      tag_68\n      jump\t// in\n    tag_109:\n      dup1\n      iszero\n      tag_110\n      jumpi\n      dup1\n      0x1f\n      lt\n      tag_111\n      jumpi\n      0x0100\n      dup1\n      dup4\n      sload\n      div\n      mul\n      dup4\n      mstore\n      swap2\n      0x20\n      add\n      swap2\n      jump(tag_110)\n    tag_111:\n      dup3\n      add\n      swap2\n      swap1\n      0x00\n      mstore\n      keccak256(0x00, 0x20)\n      swap1\n    tag_112:\n      dup2\n      sload\n      dup2\n      mstore\n      swap1\n      0x01\n      add\n      swap1\n      0x20\n      add\n      dup1\n      dup4\n      gt\n      tag_112\n      jumpi\n      dup3\n      swap1\n      sub\n      0x1f\n      and\n      dup3\n      add\n      swap2\n    tag_110:\n      pop\n      pop\n      pop\n      pop\n      pop\n      swap1\n      pop\n        /* \"ERC-20/token-erc-20.sol\":1317:1411  function symbol() public view virtual returns (string memory){... */\n      swap1\n      jump\t// out\n        /* \"ERC-20/token-erc-20.sol\":1763:1954  function transfer(address to, uint256 amount) public virtual override returns (bool) {... */\n    tag_59:\n        /* \"ERC-20/token-erc-20.sol\":1842:1846  bool */\n      0x00\n        /* \"ERC-20/token-erc-20.sol\":1859:1872  address owner */\n      dup1\n        /* \"ERC-20/token-erc-20.sol\":1875:1885  msg.sender */\n      caller\n        /* \"ERC-20/token-erc-20.sol\":1859:1885  address owner = msg.sender */\n      swap1\n      pop\n        /* \"ERC-20/token-erc-20.sol\":1896:1924  _transfer(owner, to, amount) */\n      tag_114\n        /* \"ERC-20/token-erc-20.sol\":1906:1911  owner */\n      dup2\n        /* \"ERC-20/token-erc-20.sol\":1913:1915  to */\n      dup6\n        /* \"ERC-20/token-erc-20.sol\":1917:1923  amount */\n      dup6\n        /* \"ERC-20/token-erc-20.sol\":1896:1905  _transfer */\n      tag_37\n        /* \"ERC-20/token-erc-20.sol\":1896:1924  _transfer(owner, to, amount) */\n      jump\t// in\n    tag_114:\n        /* \"ERC-20/token-erc-20.sol\":1942:1946  true */\n      0x01\n        /* \"ERC-20/token-erc-20.sol\":1935:1946  return true */\n      swap2\n      pop\n      pop\n        /* \"ERC-20/token-erc-20.sol\":1763:1954  function transfer(address to, uint256 amount) public virtual override returns (bool) {... */\n      swap3\n      swap2\n      pop\n      pop\n      jump\t// out\n        /* \"ERC-20/token-erc-20.sol\":1962:2114  function allowance(address owner, address spender)  public view virtual override returns (uint256) {... */\n    tag_64:\n        /* \"ERC-20/token-erc-20.sol\":2052:2059  uint256 */\n      0x00\n        /* \"ERC-20/token-erc-20.sol\":2078:2089  _allowances */\n      0x01\n        /* \"ERC-20/token-erc-20.sol\":2078:2096  _allowances[owner] */\n      0x00\n        /* \"ERC-20/token-erc-20.sol\":2090:2095  owner */\n      dup5\n        /* \"ERC-20/token-erc-20.sol\":2078:2096  _allowances[owner] */\n      0xffffffffffffffffffffffffffffffffffffffff\n      and\n      0xffffffffffffffffffffffffffffffffffffffff\n      and\n      dup2\n      mstore\n      0x20\n      add\n      swap1\n      dup2\n      mstore\n      0x20\n      add\n      0x00\n      keccak256\n        /* \"ERC-20/token-erc-20.sol\":2078:2105  _allowances[owner][spender] */\n      0x00\n        /* \"ERC-20/token-erc-20.sol\":2097:2104  spender */\n      dup4\n        /* \"ERC-20/token-erc-20.sol\":2078:2105  _allowances[owner][spender] */\n      0xffffffffffffffffffffffffffffffffffffffff\n      and\n      0xffffffffffffffffffffffffffffffffffffffff\n      and\n      dup2\n      mstore\n      0x20\n      add\n      swap1\n      dup2\n      mstore\n      0x20\n      add\n      0x00\n      keccak256\n      sload\n        /* \"ERC-20/token-erc-20.sol\":2071:2105  return _allowances[owner][spender] */\n      swap1\n      pop\n        /* \"ERC-20/token-erc-20.sol\":1962:2114  function allowance(address owner, address spender)  public view virtual override returns (uint256) {... */\n      swap3\n      swap2\n      pop\n      pop\n      jump\t// out\n        /* \"ERC-20/token-erc-20.sol\":5033:5413  function _approve(... */\n    tag_75:\n        /* \"ERC-20/token-erc-20.sol\":5186:5187  0 */\n      0x00\n        /* \"ERC-20/token-erc-20.sol\":5169:5188  owner != address(0) */\n      0xffffffffffffffffffffffffffffffffffffffff\n      and\n        /* \"ERC-20/token-erc-20.sol\":5169:5174  owner */\n      dup4\n        /* \"ERC-20/token-erc-20.sol\":5169:5188  owner != address(0) */\n      0xffffffffffffffffffffffffffffffffffffffff\n      and\n      sub\n        /* \"ERC-20/token-erc-20.sol\":5161:5229  require(owner != address(0), \"ERC20: approve from the zero address\") */\n      tag_117\n      jumpi\n      mload(0x40)\n      0x08c379a000000000000000000000000000000000000000000000000000000000\n      dup2\n      mstore\n      0x04\n      add\n      tag_118\n      swap1\n      tag_119\n      jump\t// in\n    tag_118:\n      mload(0x40)\n      dup1\n      swap2\n      sub\n      swap1\n      revert\n    tag_117:\n        /* \"ERC-20/token-erc-20.sol\":5267:5268  0 */\n      0x00\n        /* \"ERC-20/token-erc-20.sol\":5248:5269  spender != address(0) */\n      0xffffffffffffffffffffffffffffffffffffffff\n      and\n        /* \"ERC-20/token-erc-20.sol\":5248:5255  spender */\n      dup3\n        /* \"ERC-20/token-erc-20.sol\":5248:5269  spender != address(0) */\n      0xffffffffffffffffffffffffffffffffffffffff\n      and\n      sub\n        /* \"ERC-20/token-erc-20.sol\":5240:5308  require(spender != address(0), \"ERC20: approve to the zero address\") */\n      tag_120\n      jumpi\n      mload(0x40)\n      0x08c379a000000000000000000000000000000000000000000000000000000000\n      dup2\n      mstore\n      0x04\n      add\n      tag_121\n      swap1\n      tag_122\n      jump\t// in\n    tag_121:\n      mload(0x40)\n      dup1\n      swap2\n      sub\n      swap1\n      revert\n    tag_120:\n        /* \"ERC-20/token-erc-20.sol\":5349:5355  amount */\n      dup1\n        /* \"ERC-20/token-erc-20.sol\":5319:5330  _allowances */\n      0x01\n        /* \"ERC-20/token-erc-20.sol\":5319:5337  _allowances[owner] */\n      0x00\n        /* \"ERC-20/token-erc-20.sol\":5331:5336  owner */\n      dup6\n        /* \"ERC-20/token-erc-20.sol\":5319:5337  _allowances[owner] */\n      0xffffffffffffffffffffffffffffffffffffffff\n      and\n      0xffffffffffffffffffffffffffffffffffffffff\n      and\n      dup2\n      mstore\n      0x20\n      add\n      swap1\n      dup2\n      mstore\n      0x20\n      add\n      0x00\n      keccak256\n        /* \"ERC-20/token-erc-20.sol\":5319:5346  _allowances[owner][spender] */\n      0x00\n        /* \"ERC-20/token-erc-20.sol\":5338:5345  spender */\n      dup5\n        /* \"ERC-20/token-erc-20.sol\":5319:5346  _allowances[owner][spender] */\n      0xffffffffffffffffffffffffffffffffffffffff\n      and\n      0xffffffffffffffffffffffffffffffffffffffff\n      and\n      dup2\n      mstore\n      0x20\n      add\n      swap1\n      dup2\n      mstore\n      0x20\n      add\n      0x00\n      keccak256\n        /* \"ERC-20/token-erc-20.sol\":5319:5355  _allowances[owner][spender] = amount */\n      dup2\n      swap1\n      sstore\n      pop\n        /* \"ERC-20/token-erc-20.sol\":5387:5394  spender */\n      dup2\n        /* \"ERC-20/token-erc-20.sol\":5371:5403  Approval(owner, spender, amount) */\n      0xffffffffffffffffffffffffffffffffffffffff\n      and\n        /* \"ERC-20/token-erc-20.sol\":5380:5385  owner */\n      dup4\n        /* \"ERC-20/token-erc-20.sol\":5371:5403  Approval(owner, spender, amount) */\n      0xffffffffffffffffffffffffffffffffffffffff\n      and\n      0x8c5be1e5ebec7d5bd14f71427d1e84f3dd0314c0f7b2291e5b200ac8c7c3b925\n        /* \"ERC-20/token-erc-20.sol\":5396:5402  amount */\n      dup4\n        /* \"ERC-20/token-erc-20.sol\":5371:5403  Approval(owner, spender, amount) */\n      mload(0x40)\n      tag_123\n      swap2\n      swap1\n      tag_29\n      jump\t// in\n    tag_123:\n      mload(0x40)\n      dup1\n      swap2\n      sub\n      swap1\n      log3\n        /* \"ERC-20/token-erc-20.sol\":5033:5413  function _approve(... */\n      pop\n      pop\n      pop\n      jump\t// out\n        /* \"ERC-20/token-erc-20.sol\":5421:5850  function _spendAllowance(... */\n    tag_79:\n        /* \"ERC-20/token-erc-20.sol\":5554:5578  uint256 currentAllowance */\n      0x00\n        /* \"ERC-20/token-erc-20.sol\":5581:5606  allowance(owner, spender) */\n      tag_125\n        /* \"ERC-20/token-erc-20.sol\":5591:5596  owner */\n      dup5\n        /* \"ERC-20/token-erc-20.sol\":5598:5605  spender */\n      dup5\n        /* \"ERC-20/token-erc-20.sol\":5581:5590  allowance */\n      tag_64\n        /* \"ERC-20/token-erc-20.sol\":5581:5606  allowance(owner, spender) */\n      jump\t// in\n    tag_125:\n        /* \"ERC-20/token-erc-20.sol\":5554:5606  uint256 currentAllowance = allowance(owner, spender) */\n      swap1\n      pop\n        /* \"ERC-20/token-erc-20.sol\":5640:5657  type(uint256).max */\n      0xffffffffffffffffffffffffffffffffffffffffffffffffffffffffffffffff\n        /* \"ERC-20/token-erc-20.sol\":5620:5636  currentAllowance */\n      dup2\n        /* \"ERC-20/token-erc-20.sol\":5620:5657  currentAllowance != type(uint256).max */\n      eq\n        /* \"ERC-20/token-erc-20.sol\":5617:5843  if(currentAllowance != type(uint256).max){... */\n      tag_126\n      jumpi\n        /* \"ERC-20/token-erc-20.sol\":5701:5707  amount */\n      dup2\n        /* \"ERC-20/token-erc-20.sol\":5681:5697  currentAllowance */\n      dup2\n        /* \"ERC-20/token-erc-20.sol\":5681:5707  currentAllowance >= amount */\n      lt\n      iszero\n        /* \"ERC-20/token-erc-20.sol\":5673:5740  require(currentAllowance >= amount, \"ERC20: insufficent allowance\") */\n      tag_127\n      jumpi\n      mload(0x40)\n      0x08c379a000000000000000000000000000000000000000000000000000000000\n      dup2\n      mstore\n      0x04\n      add\n      tag_128\n      swap1\n      tag_129\n      jump\t// in\n    tag_128:\n      mload(0x40)\n      dup1\n      swap2\n      sub\n      swap1\n      revert\n    tag_127:\n        /* \"ERC-20/token-erc-20.sol\":5784:5816  _approve(owner, spender, amount) */\n      tag_130\n        /* \"ERC-20/token-erc-20.sol\":5793:5798  owner */\n      dup5\n        /* \"ERC-20/token-erc-20.sol\":5800:5807  spender */\n      dup5\n        /* \"ERC-20/token-erc-20.sol\":5809:5815  amount */\n      dup5\n        /* \"ERC-20/token-erc-20.sol\":5784:5792  _approve */\n      tag_75\n        /* \"ERC-20/token-erc-20.sol\":5784:5816  _approve(owner, spender, amount) */\n      jump\t// in\n    tag_130:\n        /* \"ERC-20/token-erc-20.sol\":5617:5843  if(currentAllowance != type(uint256).max){... */\n    tag_126:\n        /* \"ERC-20/token-erc-20.sol\":5542:5850  {... */\n      pop\n        /* \"ERC-20/token-erc-20.sol\":5421:5850  function _spendAllowance(... */\n      pop\n      pop\n      pop\n      jump\t// out\n        /* \"ERC-20/token-erc-20.sol\":5858:5983  function _befereTokenTransfer(... */\n    tag_89:\n      pop\n      pop\n      pop\n      jump\t// out\n        /* \"ERC-20/token-erc-20.sol\":5991:6115  function _afterTokenTransfer(... */\n    tag_95:\n      pop\n      pop\n      pop\n      jump\t// out\n        /* \"#utility.yul\":7:106   */\n    tag_133:\n        /* \"#utility.yul\":59:65   */\n      0x00\n        /* \"#utility.yul\":93:98   */\n      dup2\n        /* \"#utility.yul\":87:99   */\n      mload\n        /* \"#utility.yul\":77:99   */\n      swap1\n      pop\n        /* \"#utility.yul\":7:106   */\n      swap2\n      swap1\n      pop\n      jump\t// out\n        /* \"#utility.yul\":112:281   */\n    tag_134:\n        /* \"#utility.yul\":196:207   */\n      0x00\n        /* \"#utility.yul\":230:236   */\n      dup3\n        /* \"#utility.yul\":225:228   */\n      dup3\n        /* \"#utility.yul\":218:237   */\n      mstore\n        /* \"#utility.yul\":270:274   */\n      0x20\n        /* \"#utility.yul\":265:268   */\n      dup3\n        /* \"#utility.yul\":261:275   */\n      add\n        /* \"#utility.yul\":246:275   */\n      swap1\n      pop\n        /* \"#utility.yul\":112:281   */\n      swap3\n      swap2\n      pop\n      pop\n      jump\t// out\n        /* \"#utility.yul\":287:594   */\n    tag_135:\n        /* \"#utility.yul\":355:356   */\n      0x00\n        /* \"#utility.yul\":365:478   */\n    tag_171:\n        /* \"#utility.yul\":379:385   */\n      dup4\n        /* \"#utility.yul\":376:377   */\n      dup2\n        /* \"#utility.yul\":373:386   */\n      lt\n        /* \"#utility.yul\":365:478   */\n      iszero\n      tag_173\n      jumpi\n        /* \"#utility.yul\":464:465   */\n      dup1\n        /* \"#utility.yul\":459:462   */\n      dup3\n        /* \"#utility.yul\":455:466   */\n      add\n        /* \"#utility.yul\":449:467   */\n      mload\n        /* \"#utility.yul\":445:446   */\n      dup2\n        /* \"#utility.yul\":440:443   */\n      dup5\n        /* \"#utility.yul\":436:447   */\n      add\n        /* \"#utility.yul\":429:468   */\n      mstore\n        /* \"#utility.yul\":401:403   */\n      0x20\n        /* \"#utility.yul\":398:399   */\n      dup2\n        /* \"#utility.yul\":394:404   */\n      add\n        /* \"#utility.yul\":389:404   */\n      swap1\n      pop\n        /* \"#utility.yul\":365:478   */\n      jump(tag_171)\n    tag_173:\n        /* \"#utility.yul\":496:502   */\n      dup4\n        /* \"#utility.yul\":493:494   */\n      dup2\n        /* \"#utility.yul\":490:503   */\n      gt\n        /* \"#utility.yul\":487:588   */\n      iszero\n      tag_174\n      jumpi\n        /* \"#utility.yul\":576:577   */\n      0x00\n        /* \"#utility.yul\":567:573   */\n      dup5\n        /* \"#utility.yul\":562:565   */\n      dup5\n        /* \"#utility.yul\":558:574   */\n      add\n        /* \"#utility.yul\":551:578   */\n      mstore\n        /* \"#utility.yul\":487:588   */\n    tag_174:\n        /* \"#utility.yul\":336:594   */\n      pop\n        /* \"#utility.yul\":287:594   */\n      pop\n      pop\n      pop\n      jump\t// out\n        /* \"#utility.yul\":600:702   */\n    tag_136:\n        /* \"#utility.yul\":641:647   */\n      0x00\n        /* \"#utility.yul\":692:694   */\n      0x1f\n        /* \"#utility.yul\":688:695   */\n      not\n        /* \"#utility.yul\":683:685   */\n      0x1f\n        /* \"#utility.yul\":676:681   */\n      dup4\n        /* \"#utility.yul\":672:686   */\n      add\n        /* \"#utility.yul\":668:696   */\n      and\n        /* \"#utility.yul\":658:696   */\n      swap1\n      pop\n        /* \"#utility.yul\":600:702   */\n      swap2\n      swap1\n      pop\n      jump\t// out\n        /* \"#utility.yul\":708:1072   */\n    tag_137:\n        /* \"#utility.yul\":796:799   */\n      0x00\n        /* \"#utility.yul\":824:863   */\n      tag_177\n        /* \"#utility.yul\":857:862   */\n      dup3\n        /* \"#utility.yul\":824:863   */\n      tag_133\n      jump\t// in\n    tag_177:\n        /* \"#utility.yul\":879:950   */\n      tag_178\n        /* \"#utility.yul\":943:949   */\n      dup2\n        /* \"#utility.yul\":938:941   */\n      dup6\n        /* \"#utility.yul\":879:950   */\n      tag_134\n      jump\t// in\n    tag_178:\n        /* \"#utility.yul\":872:950   */\n      swap4\n      pop\n        /* \"#utility.yul\":959:1011   */\n      tag_179\n        /* \"#utility.yul\":1004:1010   */\n      dup2\n        /* \"#utility.yul\":999:1002   */\n      dup6\n        /* \"#utility.yul\":992:996   */\n      0x20\n        /* \"#utility.yul\":985:990   */\n      dup7\n        /* \"#utility.yul\":981:997   */\n      add\n        /* \"#utility.yul\":959:1011   */\n      tag_135\n      jump\t// in\n    tag_179:\n        /* \"#utility.yul\":1036:1065   */\n      tag_180\n        /* \"#utility.yul\":1058:1064   */\n      dup2\n        /* \"#utility.yul\":1036:1065   */\n      tag_136\n      jump\t// in\n    tag_180:\n        /* \"#utility.yul\":1031:1034   */\n      dup5\n        /* \"#utility.yul\":1027:1066   */\n      add\n        /* \"#utility.yul\":1020:1066   */\n      swap2\n      pop\n        /* \"#utility.yul\":800:1072   */\n      pop\n        /* \"#utility.yul\":708:1072   */\n      swap3\n      swap2\n      pop\n      pop\n      jump\t// out\n        /* \"#utility.yul\":1078:1391   */\n    tag_19:\n        /* \"#utility.yul\":1191:1195   */\n      0x00\n        /* \"#utility.yul\":1229:1231   */\n      0x20\n        /* \"#utility.yul\":1218:1227   */\n      dup3\n        /* \"#utility.yul\":1214:1232   */\n      add\n        /* \"#utility.yul\":1206:1232   */\n      swap1\n      pop\n        /* \"#utility.yul\":1278:1287   */\n      dup2\n        /* \"#utility.yul\":1272:1276   */\n      dup2\n        /* \"#utility.yul\":1268:1288   */\n      sub\n        /* \"#utility.yul\":1264:1265   */\n      0x00\n        /* \"#utility.yul\":1253:1262   */\n      dup4\n        /* \"#utility.yul\":1249:1266   */\n      add\n        /* \"#utility.yul\":1242:1289   */\n      mstore\n        /* \"#utility.yul\":1306:1384   */\n      tag_182\n        /* \"#utility.yul\":1379:1383   */\n      dup2\n        /* \"#utility.yul\":1370:1376   */\n      dup5\n        /* \"#utility.yul\":1306:1384   */\n      tag_137\n      jump\t// in\n    tag_182:\n        /* \"#utility.yul\":1298:1384   */\n      swap1\n      pop\n        /* \"#utility.yul\":1078:1391   */\n      swap3\n      swap2\n      pop\n      pop\n      jump\t// out\n        /* \"#utility.yul\":1478:1595   */\n    tag_139:\n        /* \"#utility.yul\":1587:1588   */\n      0x00\n        /* \"#utility.yul\":1584:1585   */\n      dup1\n        /* \"#utility.yul\":1577:1589   */\n      revert\n        /* \"#utility.yul\":1724:1850   */\n    tag_141:\n        /* \"#utility.yul\":1761:1768   */\n      0x00\n        /* \"#utility.yul\":1801:1843   */\n      0xffffffffffffffffffffffffffffffffffffffff\n        /* \"#utility.yul\":1794:1799   */\n      dup3\n        /* \"#utility.yul\":1790:1844   */\n      and\n        /* \"#utility.yul\":1779:1844   */\n      swap1\n      pop\n        /* \"#utility.yul\":1724:1850   */\n      swap2\n      swap1\n      pop\n      jump\t// out\n        /* \"#utility.yul\":1856:1952   */\n    tag_142:\n        /* \"#utility.yul\":1893:1900   */\n      0x00\n        /* \"#utility.yul\":1922:1946   */\n      tag_188\n        /* \"#utility.yul\":1940:1945   */\n      dup3\n        /* \"#utility.yul\":1922:1946   */\n      tag_141\n      jump\t// in\n    tag_188:\n        /* \"#utility.yul\":1911:1946   */\n      swap1\n      pop\n        /* \"#utility.yul\":1856:1952   */\n      swap2\n      swap1\n      pop\n      jump\t// out\n        /* \"#utility.yul\":1958:2080   */\n    tag_143:\n        /* \"#utility.yul\":2031:2055   */\n      tag_190\n        /* \"#utility.yul\":2049:2054   */\n      dup2\n        /* \"#utility.yul\":2031:2055   */\n      tag_142\n      jump\t// in\n    tag_190:\n        /* \"#utility.yul\":2024:2029   */\n      dup2\n        /* \"#utility.yul\":2021:2056   */\n      eq\n        /* \"#utility.yul\":2011:2074   */\n      tag_191\n      jumpi\n        /* \"#utility.yul\":2070:2071   */\n      0x00\n        /* \"#utility.yul\":2067:2068   */\n      dup1\n        /* \"#utility.yul\":2060:2072   */\n      revert\n        /* \"#utility.yul\":2011:2074   */\n    tag_191:\n        /* \"#utility.yul\":1958:2080   */\n      pop\n      jump\t// out\n        /* \"#utility.yul\":2086:2225   */\n    tag_144:\n        /* \"#utility.yul\":2132:2137   */\n      0x00\n        /* \"#utility.yul\":2170:2176   */\n      dup2\n        /* \"#utility.yul\":2157:2177   */\n      calldataload\n        /* \"#utility.yul\":2148:2177   */\n      swap1\n      pop\n        /* \"#utility.yul\":2186:2219   */\n      tag_193\n        /* \"#utility.yul\":2213:2218   */\n      dup2\n        /* \"#utility.yul\":2186:2219   */\n      tag_143\n      jump\t// in\n    tag_193:\n        /* \"#utility.yul\":2086:2225   */\n      swap3\n      swap2\n      pop\n      pop\n      jump\t// out\n        /* \"#utility.yul\":2231:2308   */\n    tag_145:\n        /* \"#utility.yul\":2268:2275   */\n      0x00\n        /* \"#utility.yul\":2297:2302   */\n      dup2\n        /* \"#utility.yul\":2286:2302   */\n      swap1\n      pop\n        /* \"#utility.yul\":2231:2308   */\n      swap2\n      swap1\n      pop\n      jump\t// out\n        /* \"#utility.yul\":2314:2436   */\n    tag_146:\n        /* \"#utility.yul\":2387:2411   */\n      tag_196\n        /* \"#utility.yul\":2405:2410   */\n      dup2\n        /* \"#utility.yul\":2387:2411   */\n      tag_145\n      jump\t// in\n    tag_196:\n        /* \"#utility.yul\":2380:2385   */\n      dup2\n        /* \"#utility.yul\":2377:2412   */\n      eq\n        /* \"#utility.yul\":2367:2430   */\n      tag_197\n      jumpi\n        /* \"#utility.yul\":2426:2427   */\n      0x00\n        /* \"#utility.yul\":2423:2424   */\n      dup1\n        /* \"#utility.yul\":2416:2428   */\n      revert\n        /* \"#utility.yul\":2367:2430   */\n    tag_197:\n        /* \"#utility.yul\":2314:2436   */\n      pop\n      jump\t// out\n        /* \"#utility.yul\":2442:2581   */\n    tag_147:\n        /* \"#utility.yul\":2488:2493   */\n      0x00\n        /* \"#utility.yul\":2526:2532   */\n      dup2\n        /* \"#utility.yul\":2513:2533   */\n      calldataload\n        /* \"#utility.yul\":2504:2533   */\n      swap1\n      pop\n        /* \"#utility.yul\":2542:2575   */\n      tag_199\n        /* \"#utility.yul\":2569:2574   */\n      dup2\n        /* \"#utility.yul\":2542:2575   */\n      tag_146\n      jump\t// in\n    tag_199:\n        /* \"#utility.yul\":2442:2581   */\n      swap3\n      swap2\n      pop\n      pop\n      jump\t// out\n        /* \"#utility.yul\":2587:3061   */\n    tag_22:\n        /* \"#utility.yul\":2655:2661   */\n      0x00\n        /* \"#utility.yul\":2663:2669   */\n      dup1\n        /* \"#utility.yul\":2712:2714   */\n      0x40\n        /* \"#utility.yul\":2700:2709   */\n      dup4\n        /* \"#utility.yul\":2691:2698   */\n      dup6\n        /* \"#utility.yul\":2687:2710   */\n      sub\n        /* \"#utility.yul\":2683:2715   */\n      slt\n        /* \"#utility.yul\":2680:2799   */\n      iszero\n      tag_201\n      jumpi\n        /* \"#utility.yul\":2718:2797   */\n      tag_202\n      tag_139\n      jump\t// in\n    tag_202:\n        /* \"#utility.yul\":2680:2799   */\n    tag_201:\n        /* \"#utility.yul\":2838:2839   */\n      0x00\n        /* \"#utility.yul\":2863:2916   */\n      tag_203\n        /* \"#utility.yul\":2908:2915   */\n      dup6\n        /* \"#utility.yul\":2899:2905   */\n      dup3\n        /* \"#utility.yul\":2888:2897   */\n      dup7\n        /* \"#utility.yul\":2884:2906   */\n      add\n        /* \"#utility.yul\":2863:2916   */\n      tag_144\n      jump\t// in\n    tag_203:\n        /* \"#utility.yul\":2853:2916   */\n      swap3\n      pop\n        /* \"#utility.yul\":2809:2926   */\n      pop\n        /* \"#utility.yul\":2965:2967   */\n      0x20\n        /* \"#utility.yul\":2991:3044   */\n      tag_204\n        /* \"#utility.yul\":3036:3043   */\n      dup6\n        /* \"#utility.yul\":3027:3033   */\n      dup3\n        /* \"#utility.yul\":3016:3025   */\n      dup7\n        /* \"#utility.yul\":3012:3034   */\n      add\n        /* \"#utility.yul\":2991:3044   */\n      tag_147\n      jump\t// in\n    tag_204:\n        /* \"#utility.yul\":2981:3044   */\n      swap2\n      pop\n        /* \"#utility.yul\":2936:3054   */\n      pop\n        /* \"#utility.yul\":2587:3061   */\n      swap3\n      pop\n      swap3\n      swap1\n      pop\n      jump\t// out\n        /* \"#utility.yul\":3067:3157   */\n    tag_148:\n        /* \"#utility.yul\":3101:3108   */\n      0x00\n        /* \"#utility.yul\":3144:3149   */\n      dup2\n        /* \"#utility.yul\":3137:3150   */\n      iszero\n        /* \"#utility.yul\":3130:3151   */\n      iszero\n        /* \"#utility.yul\":3119:3151   */\n      swap1\n      pop\n        /* \"#utility.yul\":3067:3157   */\n      swap2\n      swap1\n      pop\n      jump\t// out\n        /* \"#utility.yul\":3163:3272   */\n    tag_149:\n        /* \"#utility.yul\":3244:3265   */\n      tag_207\n        /* \"#utility.yul\":3259:3264   */\n      dup2\n        /* \"#utility.yul\":3244:3265   */\n      tag_148\n      jump\t// in\n    tag_207:\n        /* \"#utility.yul\":3239:3242   */\n      dup3\n        /* \"#utility.yul\":3232:3266   */\n      mstore\n        /* \"#utility.yul\":3163:3272   */\n      pop\n      pop\n      jump\t// out\n        /* \"#utility.yul\":3278:3488   */\n    tag_25:\n        /* \"#utility.yul\":3365:3369   */\n      0x00\n        /* \"#utility.yul\":3403:3405   */\n      0x20\n        /* \"#utility.yul\":3392:3401   */\n      dup3\n        /* \"#utility.yul\":3388:3406   */\n      add\n        /* \"#utility.yul\":3380:3406   */\n      swap1\n      pop\n        /* \"#utility.yul\":3416:3481   */\n      tag_209\n        /* \"#utility.yul\":3478:3479   */\n      0x00\n        /* \"#utility.yul\":3467:3476   */\n      dup4\n        /* \"#utility.yul\":3463:3480   */\n      add\n        /* \"#utility.yul\":3454:3460   */\n      dup5\n        /* \"#utility.yul\":3416:3481   */\n      tag_149\n      jump\t// in\n    tag_209:\n        /* \"#utility.yul\":3278:3488   */\n      swap3\n      swap2\n      pop\n      pop\n      jump\t// out\n        /* \"#utility.yul\":3494:3612   */\n    tag_150:\n        /* \"#utility.yul\":3581:3605   */\n      tag_211\n        /* \"#utility.yul\":3599:3604   */\n      dup2\n        /* \"#utility.yul\":3581:3605   */\n      tag_145\n      jump\t// in\n    tag_211:\n        /* \"#utility.yul\":3576:3579   */\n      dup3\n        /* \"#utility.yul\":3569:3606   */\n      mstore\n        /* \"#utility.yul\":3494:3612   */\n      pop\n      pop\n      jump\t// out\n        /* \"#utility.yul\":3618:3840   */\n    tag_29:\n        /* \"#utility.yul\":3711:3715   */\n      0x00\n        /* \"#utility.yul\":3749:3751   */\n      0x20\n        /* \"#utility.yul\":3738:3747   */\n      dup3\n        /* \"#utility.yul\":3734:3752   */\n      add\n        /* \"#utility.yul\":3726:3752   */\n      swap1\n      pop\n        /* \"#utility.yul\":3762:3833   */\n      tag_213\n        /* \"#utility.yul\":3830:3831   */\n      0x00\n        /* \"#utility.yul\":3819:3828   */\n      dup4\n        /* \"#utility.yul\":3815:3832   */\n      add\n        /* \"#utility.yul\":3806:3812   */\n      dup5\n        /* \"#utility.yul\":3762:3833   */\n      tag_150\n      jump\t// in\n    tag_213:\n        /* \"#utility.yul\":3618:3840   */\n      swap3\n      swap2\n      pop\n      pop\n      jump\t// out\n        /* \"#utility.yul\":3846:4465   */\n    tag_32:\n        /* \"#utility.yul\":3923:3929   */\n      0x00\n        /* \"#utility.yul\":3931:3937   */\n      dup1\n        /* \"#utility.yul\":3939:3945   */\n      0x00\n        /* \"#utility.yul\":3988:3990   */\n      0x60\n        /* \"#utility.yul\":3976:3985   */\n      dup5\n        /* \"#utility.yul\":3967:3974   */\n      dup7\n        /* \"#utility.yul\":3963:3986   */\n      sub\n        /* \"#utility.yul\":3959:3991   */\n      slt\n        /* \"#utility.yul\":3956:4075   */\n      iszero\n      tag_215\n      jumpi\n        /* \"#utility.yul\":3994:4073   */\n      tag_216\n      tag_139\n      jump\t// in\n    tag_216:\n        /* \"#utility.yul\":3956:4075   */\n    tag_215:\n        /* \"#utility.yul\":4114:4115   */\n      0x00\n        /* \"#utility.yul\":4139:4192   */\n      tag_217\n        /* \"#utility.yul\":4184:4191   */\n      dup7\n        /* \"#utility.yul\":4175:4181   */\n      dup3\n        /* \"#utility.yul\":4164:4173   */\n      dup8\n        /* \"#utility.yul\":4160:4182   */\n      add\n        /* \"#utility.yul\":4139:4192   */\n      tag_144\n      jump\t// in\n    tag_217:\n        /* \"#utility.yul\":4129:4192   */\n      swap4\n      pop\n        /* \"#utility.yul\":4085:4202   */\n      pop\n        /* \"#utility.yul\":4241:4243   */\n      0x20\n        /* \"#utility.yul\":4267:4320   */\n      tag_218\n        /* \"#utility.yul\":4312:4319   */\n      dup7\n        /* \"#utility.yul\":4303:4309   */\n      dup3\n        /* \"#utility.yul\":4292:4301   */\n      dup8\n        /* \"#utility.yul\":4288:4310   */\n      add\n        /* \"#utility.yul\":4267:4320   */\n      tag_144\n      jump\t// in\n    tag_218:\n        /* \"#utility.yul\":4257:4320   */\n      swap3\n      pop\n        /* \"#utility.yul\":4212:4330   */\n      pop\n        /* \"#utility.yul\":4369:4371   */\n      0x40\n        /* \"#utility.yul\":4395:4448   */\n      tag_219\n        /* \"#utility.yul\":4440:4447   */\n      dup7\n        /* \"#utility.yul\":4431:4437   */\n      dup3\n        /* \"#utility.yul\":4420:4429   */\n      dup8\n        /* \"#utility.yul\":4416:4438   */\n      add\n        /* \"#utility.yul\":4395:4448   */\n      tag_147\n      jump\t// in\n    tag_219:\n        /* \"#utility.yul\":4385:4448   */\n      swap2\n      pop\n        /* \"#utility.yul\":4340:4458   */\n      pop\n        /* \"#utility.yul\":3846:4465   */\n      swap3\n      pop\n      swap3\n      pop\n      swap3\n      jump\t// out\n        /* \"#utility.yul\":4471:4800   */\n    tag_47:\n        /* \"#utility.yul\":4530:4536   */\n      0x00\n        /* \"#utility.yul\":4579:4581   */\n      0x20\n        /* \"#utility.yul\":4567:4576   */\n      dup3\n        /* \"#utility.yul\":4558:4565   */\n      dup5\n        /* \"#utility.yul\":4554:4577   */\n      sub\n        /* \"#utility.yul\":4550:4582   */\n      slt\n        /* \"#utility.yul\":4547:4666   */\n      iszero\n      tag_221\n      jumpi\n        /* \"#utility.yul\":4585:4664   */\n      tag_222\n      tag_139\n      jump\t// in\n    tag_222:\n        /* \"#utility.yul\":4547:4666   */\n    tag_221:\n        /* \"#utility.yul\":4705:4706   */\n      0x00\n        /* \"#utility.yul\":4730:4783   */\n      tag_223\n        /* \"#utility.yul\":4775:4782   */\n      dup5\n        /* \"#utility.yul\":4766:4772   */\n      dup3\n        /* \"#utility.yul\":4755:4764   */\n      dup6\n        /* \"#utility.yul\":4751:4773   */\n      add\n        /* \"#utility.yul\":4730:4783   */\n      tag_144\n      jump\t// in\n    tag_223:\n        /* \"#utility.yul\":4720:4783   */\n      swap2\n      pop\n        /* \"#utility.yul\":4676:4793   */\n      pop\n        /* \"#utility.yul\":4471:4800   */\n      swap3\n      swap2\n      pop\n      pop\n      jump\t// out\n        /* \"#utility.yul\":4806:5280   */\n    tag_63:\n        /* \"#utility.yul\":4874:4880   */\n      0x00\n        /* \"#utility.yul\":4882:4888   */\n      dup1\n        /* \"#utility.yul\":4931:4933   */\n      0x40\n        /* \"#utility.yul\":4919:4928   */\n      dup4\n        /* \"#utility.yul\":4910:4917   */\n      dup6\n        /* \"#utility.yul\":4906:4929   */\n      sub\n        /* \"#utility.yul\":4902:4934   */\n      slt\n        /* \"#utility.yul\":4899:5018   */\n      iszero\n      tag_225\n      jumpi\n        /* \"#utility.yul\":4937:5016   */\n      tag_226\n      tag_139\n      jump\t// in\n    tag_226:\n        /* \"#utility.yul\":4899:5018   */\n    tag_225:\n        /* \"#utility.yul\":5057:5058   */\n      0x00\n        /* \"#utility.yul\":5082:5135   */\n      tag_227\n        /* \"#utility.yul\":5127:5134   */\n      dup6\n        /* \"#utility.yul\":5118:5124   */\n      dup3\n        /* \"#utility.yul\":5107:5116   */\n      dup7\n        /* \"#utility.yul\":5103:5125   */\n      add\n        /* \"#utility.yul\":5082:5135   */\n      tag_144\n      jump\t// in\n    tag_227:\n        /* \"#utility.yul\":5072:5135   */\n      swap3\n      pop\n        /* \"#utility.yul\":5028:5145   */\n      pop\n        /* \"#utility.yul\":5184:5186   */\n      0x20\n        /* \"#utility.yul\":5210:5263   */\n      tag_228\n        /* \"#utility.yul\":5255:5262   */\n      dup6\n        /* \"#utility.yul\":5246:5252   */\n      dup3\n        /* \"#utility.yul\":5235:5244   */\n      dup7\n        /* \"#utility.yul\":5231:5253   */\n      add\n        /* \"#utility.yul\":5210:5263   */\n      tag_144\n      jump\t// in\n    tag_228:\n        /* \"#utility.yul\":5200:5263   */\n      swap2\n      pop\n        /* \"#utility.yul\":5155:5273   */\n      pop\n        /* \"#utility.yul\":4806:5280   */\n      swap3\n      pop\n      swap3\n      swap1\n      pop\n      jump\t// out\n        /* \"#utility.yul\":5286:5466   */\n    tag_151:\n        /* \"#utility.yul\":5334:5411   */\n      0x4e487b7100000000000000000000000000000000000000000000000000000000\n        /* \"#utility.yul\":5331:5332   */\n      0x00\n        /* \"#utility.yul\":5324:5412   */\n      mstore\n        /* \"#utility.yul\":5431:5435   */\n      0x22\n        /* \"#utility.yul\":5428:5429   */\n      0x04\n        /* \"#utility.yul\":5421:5436   */\n      mstore\n        /* \"#utility.yul\":5455:5459   */\n      0x24\n        /* \"#utility.yul\":5452:5453   */\n      0x00\n        /* \"#utility.yul\":5445:5460   */\n      revert\n        /* \"#utility.yul\":5472:5792   */\n    tag_68:\n        /* \"#utility.yul\":5516:5522   */\n      0x00\n        /* \"#utility.yul\":5553:5554   */\n      0x02\n        /* \"#utility.yul\":5547:5551   */\n      dup3\n        /* \"#utility.yul\":5543:5555   */\n      div\n        /* \"#utility.yul\":5533:5555   */\n      swap1\n      pop\n        /* \"#utility.yul\":5600:5601   */\n      0x01\n        /* \"#utility.yul\":5594:5598   */\n      dup3\n        /* \"#utility.yul\":5590:5602   */\n      and\n        /* \"#utility.yul\":5621:5639   */\n      dup1\n        /* \"#utility.yul\":5611:5692   */\n      tag_231\n      jumpi\n        /* \"#utility.yul\":5677:5681   */\n      0x7f\n        /* \"#utility.yul\":5669:5675   */\n      dup3\n        /* \"#utility.yul\":5665:5682   */\n      and\n        /* \"#utility.yul\":5655:5682   */\n      swap2\n      pop\n        /* \"#utility.yul\":5611:5692   */\n    tag_231:\n        /* \"#utility.yul\":5739:5741   */\n      0x20\n        /* \"#utility.yul\":5731:5737   */\n      dup3\n        /* \"#utility.yul\":5728:5742   */\n      lt\n        /* \"#utility.yul\":5708:5726   */\n      dup2\n        /* \"#utility.yul\":5705:5743   */\n      sub\n        /* \"#utility.yul\":5702:5786   */\n      tag_232\n      jumpi\n        /* \"#utility.yul\":5758:5776   */\n      tag_233\n      tag_151\n      jump\t// in\n    tag_233:\n        /* \"#utility.yul\":5702:5786   */\n    tag_232:\n        /* \"#utility.yul\":5523:5792   */\n      pop\n        /* \"#utility.yul\":5472:5792   */\n      swap2\n      swap1\n      pop\n      jump\t// out\n        /* \"#utility.yul\":5798:6022   */\n    tag_152:\n        /* \"#utility.yul\":5938:5972   */\n      0x45524332303a207472616e736665722066726f6d20746865207a65726f206164\n        /* \"#utility.yul\":5934:5935   */\n      0x00\n        /* \"#utility.yul\":5926:5932   */\n      dup3\n        /* \"#utility.yul\":5922:5936   */\n      add\n        /* \"#utility.yul\":5915:5973   */\n      mstore\n        /* \"#utility.yul\":6007:6014   */\n      0x6472657373000000000000000000000000000000000000000000000000000000\n        /* \"#utility.yul\":6002:6004   */\n      0x20\n        /* \"#utility.yul\":5994:6000   */\n      dup3\n        /* \"#utility.yul\":5990:6005   */\n      add\n        /* \"#utility.yul\":5983:6015   */\n      mstore\n        /* \"#utility.yul\":5798:6022   */\n      pop\n      jump\t// out\n        /* \"#utility.yul\":6028:6394   */\n    tag_153:\n        /* \"#utility.yul\":6170:6173   */\n      0x00\n        /* \"#utility.yul\":6191:6258   */\n      tag_236\n        /* \"#utility.yul\":6255:6257   */\n      0x25\n        /* \"#utility.yul\":6250:6253   */\n      dup4\n        /* \"#utility.yul\":6191:6258   */\n      tag_134\n      jump\t// in\n    tag_236:\n        /* \"#utility.yul\":6184:6258   */\n      swap2\n      pop\n        /* \"#utility.yul\":6267:6360   */\n      tag_237\n        /* \"#utility.yul\":6356:6359   */\n      dup3\n        /* \"#utility.yul\":6267:6360   */\n      tag_152\n      jump\t// in\n    tag_237:\n        /* \"#utility.yul\":6385:6387   */\n      0x40\n        /* \"#utility.yul\":6380:6383   */\n      dup3\n        /* \"#utility.yul\":6376:6388   */\n      add\n        /* \"#utility.yul\":6369:6388   */\n      swap1\n      pop\n        /* \"#utility.yul\":6028:6394   */\n      swap2\n      swap1\n      pop\n      jump\t// out\n        /* \"#utility.yul\":6400:6819   */\n    tag_84:\n        /* \"#utility.yul\":6566:6570   */\n      0x00\n        /* \"#utility.yul\":6604:6606   */\n      0x20\n        /* \"#utility.yul\":6593:6602   */\n      dup3\n        /* \"#utility.yul\":6589:6607   */\n      add\n        /* \"#utility.yul\":6581:6607   */\n      swap1\n      pop\n        /* \"#utility.yul\":6653:6662   */\n      dup2\n        /* \"#utility.yul\":6647:6651   */\n      dup2\n        /* \"#utility.yul\":6643:6663   */\n      sub\n        /* \"#utility.yul\":6639:6640   */\n      0x00\n        /* \"#utility.yul\":6628:6637   */\n      dup4\n        /* \"#utility.yul\":6624:6641   */\n      add\n        /* \"#utility.yul\":6617:6664   */\n      mstore\n        /* \"#utility.yul\":6681:6812   */\n      tag_239\n        /* \"#utility.yul\":6807:6811   */\n      dup2\n        /* \"#utility.yul\":6681:6812   */\n      tag_153\n      jump\t// in\n    tag_239:\n        /* \"#utility.yul\":6673:6812   */\n      swap1\n      pop\n        /* \"#utility.yul\":6400:6819   */\n      swap2\n      swap1\n      pop\n      jump\t// out\n        /* \"#utility.yul\":6825:7047   */\n    tag_154:\n        /* \"#utility.yul\":6965:6999   */\n      0x45524332303a207472616e7366657220746f20746865207a65726f2061646472\n        /* \"#utility.yul\":6961:6962   */\n      0x00\n        /* \"#utility.yul\":6953:6959   */\n      dup3\n        /* \"#utility.yul\":6949:6963   */\n      add\n        /* \"#utility.yul\":6942:7000   */\n      mstore\n        /* \"#utility.yul\":7034:7039   */\n      0x6573730000000000000000000000000000000000000000000000000000000000\n        /* \"#utility.yul\":7029:7031   */\n      0x20\n        /* \"#utility.yul\":7021:7027   */\n      dup3\n        /* \"#utility.yul\":7017:7032   */\n      add\n        /* \"#utility.yul\":7010:7040   */\n      mstore\n        /* \"#utility.yul\":6825:7047   */\n      pop\n      jump\t// out\n        /* \"#utility.yul\":7053:7419   */\n    tag_155:\n        /* \"#utility.yul\":7195:7198   */\n      0x00\n        /* \"#utility.yul\":7216:7283   */\n      tag_242\n        /* \"#utility.yul\":7280:7282   */\n      0x23\n        /* \"#utility.yul\":7275:7278   */\n      dup4\n        /* \"#utility.yul\":7216:7283   */\n      tag_134\n      jump\t// in\n    tag_242:\n        /* \"#utility.yul\":7209:7283   */\n      swap2\n      pop\n        /* \"#utility.yul\":7292:7385   */\n      tag_243\n        /* \"#utility.yul\":7381:7384   */\n      dup3\n        /* \"#utility.yul\":7292:7385   */\n      tag_154\n      jump\t// in\n    tag_243:\n        /* \"#utility.yul\":7410:7412   */\n      0x40\n        /* \"#utility.yul\":7405:7408   */\n      dup3\n        /* \"#utility.yul\":7401:7413   */\n      add\n        /* \"#utility.yul\":7394:7413   */\n      swap1\n      pop\n        /* \"#utility.yul\":7053:7419   */\n      swap2\n      swap1\n      pop\n      jump\t// out\n        /* \"#utility.yul\":7425:7844   */\n    tag_87:\n        /* \"#utility.yul\":7591:7595   */\n      0x00\n        /* \"#utility.yul\":7629:7631   */\n      0x20\n        /* \"#utility.yul\":7618:7627   */\n      dup3\n        /* \"#utility.yul\":7614:7632   */\n      add\n        /* \"#utility.yul\":7606:7632   */\n      swap1\n      pop\n        /* \"#utility.yul\":7678:7687   */\n      dup2\n        /* \"#utility.yul\":7672:7676   */\n      dup2\n        /* \"#utility.yul\":7668:7688   */\n      sub\n        /* \"#utility.yul\":7664:7665   */\n      0x00\n        /* \"#utility.yul\":7653:7662   */\n      dup4\n        /* \"#utility.yul\":7649:7666   */\n      add\n        /* \"#utility.yul\":7642:7689   */\n      mstore\n        /* \"#utility.yul\":7706:7837   */\n      tag_245\n        /* \"#utility.yul\":7832:7836   */\n      dup2\n        /* \"#utility.yul\":7706:7837   */\n      tag_155\n      jump\t// in\n    tag_245:\n        /* \"#utility.yul\":7698:7837   */\n      swap1\n      pop\n        /* \"#utility.yul\":7425:7844   */\n      swap2\n      swap1\n      pop\n      jump\t// out\n        /* \"#utility.yul\":7850:8075   */\n    tag_156:\n        /* \"#utility.yul\":7990:8024   */\n      0x45524332303a207472616e7366657220616d6f756e7420657863656564732062\n        /* \"#utility.yul\":7986:7987   */\n      0x00\n        /* \"#utility.yul\":7978:7984   */\n      dup3\n        /* \"#utility.yul\":7974:7988   */\n      add\n        /* \"#utility.yul\":7967:8025   */\n      mstore\n        /* \"#utility.yul\":8059:8067   */\n      0x616c616e63650000000000000000000000000000000000000000000000000000\n        /* \"#utility.yul\":8054:8056   */\n      0x20\n        /* \"#utility.yul\":8046:8052   */\n      dup3\n        /* \"#utility.yul\":8042:8057   */\n      add\n        /* \"#utility.yul\":8035:8068   */\n      mstore\n        /* \"#utility.yul\":7850:8075   */\n      pop\n      jump\t// out\n        /* \"#utility.yul\":8081:8447   */\n    tag_157:\n        /* \"#utility.yul\":8223:8226   */\n      0x00\n        /* \"#utility.yul\":8244:8311   */\n      tag_248\n        /* \"#utility.yul\":8308:8310   */\n      0x26\n        /* \"#utility.yul\":8303:8306   */\n      dup4\n        /* \"#utility.yul\":8244:8311   */\n      tag_134\n      jump\t// in\n    tag_248:\n        /* \"#utility.yul\":8237:8311   */\n      swap2\n      pop\n        /* \"#utility.yul\":8320:8413   */\n      tag_249\n        /* \"#utility.yul\":8409:8412   */\n      dup3\n        /* \"#utility.yul\":8320:8413   */\n      tag_156\n      jump\t// in\n    tag_249:\n        /* \"#utility.yul\":8438:8440   */\n      0x40\n        /* \"#utility.yul\":8433:8436   */\n      dup3\n        /* \"#utility.yul\":8429:8441   */\n      add\n        /* \"#utility.yul\":8422:8441   */\n      swap1\n      pop\n        /* \"#utility.yul\":8081:8447   */\n      swap2\n      swap1\n      pop\n      jump\t// out\n        /* \"#utility.yul\":8453:8872   */\n    tag_92:\n        /* \"#utility.yul\":8619:8623   */\n      0x00\n        /* \"#utility.yul\":8657:8659   */\n      0x20\n        /* \"#utility.yul\":8646:8655   */\n      dup3\n        /* \"#utility.yul\":8642:8660   */\n      add\n        /* \"#utility.yul\":8634:8660   */\n      swap1\n      pop\n        /* \"#utility.yul\":8706:8715   */\n      dup2\n        /* \"#utility.yul\":8700:8704   */\n      dup2\n        /* \"#utility.yul\":8696:8716   */\n      sub\n        /* \"#utility.yul\":8692:8693   */\n      0x00\n        /* \"#utility.yul\":8681:8690   */\n      dup4\n        /* \"#utility.yul\":8677:8694   */\n      add\n        /* \"#utility.yul\":8670:8717   */\n      mstore\n        /* \"#utility.yul\":8734:8865   */\n      tag_251\n        /* \"#utility.yul\":8860:8864   */\n      dup2\n        /* \"#utility.yul\":8734:8865   */\n      tag_157\n      jump\t// in\n    tag_251:\n        /* \"#utility.yul\":8726:8865   */\n      swap1\n      pop\n        /* \"#utility.yul\":8453:8872   */\n      swap2\n      swap1\n      pop\n      jump\t// out\n        /* \"#utility.yul\":8878:9058   */\n    tag_158:\n        /* \"#utility.yul\":8926:9003   */\n      0x4e487b7100000000000000000000000000000000000000000000000000000000\n        /* \"#utility.yul\":8923:8924   */\n      0x00\n        /* \"#utility.yul\":8916:9004   */\n      mstore\n        /* \"#utility.yul\":9023:9027   */\n      0x11\n        /* \"#utility.yul\":9020:9021   */\n      0x04\n        /* \"#utility.yul\":9013:9028   */\n      mstore\n        /* \"#utility.yul\":9047:9051   */\n      0x24\n        /* \"#utility.yul\":9044:9045   */\n      0x00\n        /* \"#utility.yul\":9037:9052   */\n      revert\n        /* \"#utility.yul\":9064:9369   */\n    tag_100:\n        /* \"#utility.yul\":9104:9107   */\n      0x00\n        /* \"#utility.yul\":9123:9143   */\n      tag_254\n        /* \"#utility.yul\":9141:9142   */\n      dup3\n        /* \"#utility.yul\":9123:9143   */\n      tag_145\n      jump\t// in\n    tag_254:\n        /* \"#utility.yul\":9118:9143   */\n      swap2\n      pop\n        /* \"#utility.yul\":9157:9177   */\n      tag_255\n        /* \"#utility.yul\":9175:9176   */\n      dup4\n        /* \"#utility.yul\":9157:9177   */\n      tag_145\n      jump\t// in\n    tag_255:\n        /* \"#utility.yul\":9152:9177   */\n      swap3\n      pop\n        /* \"#utility.yul\":9311:9312   */\n      dup3\n        /* \"#utility.yul\":9243:9309   */\n      0xffffffffffffffffffffffffffffffffffffffffffffffffffffffffffffffff\n        /* \"#utility.yul\":9239:9313   */\n      sub\n        /* \"#utility.yul\":9236:9237   */\n      dup3\n        /* \"#utility.yul\":9233:9314   */\n      gt\n        /* \"#utility.yul\":9230:9337   */\n      iszero\n      tag_256\n      jumpi\n        /* \"#utility.yul\":9317:9335   */\n      tag_257\n      tag_158\n      jump\t// in\n    tag_257:\n        /* \"#utility.yul\":9230:9337   */\n    tag_256:\n        /* \"#utility.yul\":9361:9362   */\n      dup3\n        /* \"#utility.yul\":9358:9359   */\n      dup3\n        /* \"#utility.yul\":9354:9363   */\n      add\n        /* \"#utility.yul\":9347:9363   */\n      swap1\n      pop\n        /* \"#utility.yul\":9064:9369   */\n      swap3\n      swap2\n      pop\n      pop\n      jump\t// out\n        /* \"#utility.yul\":9375:9600   */\n    tag_159:\n        /* \"#utility.yul\":9515:9549   */\n      0x45524332303a2064656372656173656420616c6c6f77616e6365202062656c6f\n        /* \"#utility.yul\":9511:9512   */\n      0x00\n        /* \"#utility.yul\":9503:9509   */\n      dup3\n        /* \"#utility.yul\":9499:9513   */\n      add\n        /* \"#utility.yul\":9492:9550   */\n      mstore\n        /* \"#utility.yul\":9584:9592   */\n      0x77207a65726f0000000000000000000000000000000000000000000000000000\n        /* \"#utility.yul\":9579:9581   */\n      0x20\n        /* \"#utility.yul\":9571:9577   */\n      dup3\n        /* \"#utility.yul\":9567:9582   */\n      add\n        /* \"#utility.yul\":9560:9593   */\n      mstore\n        /* \"#utility.yul\":9375:9600   */\n      pop\n      jump\t// out\n        /* \"#utility.yul\":9606:9972   */\n    tag_160:\n        /* \"#utility.yul\":9748:9751   */\n      0x00\n        /* \"#utility.yul\":9769:9836   */\n      tag_260\n        /* \"#utility.yul\":9833:9835   */\n      0x26\n        /* \"#utility.yul\":9828:9831   */\n      dup4\n        /* \"#utility.yul\":9769:9836   */\n      tag_134\n      jump\t// in\n    tag_260:\n        /* \"#utility.yul\":9762:9836   */\n      swap2\n      pop\n        /* \"#utility.yul\":9845:9938   */\n      tag_261\n        /* \"#utility.yul\":9934:9937   */\n      dup3\n        /* \"#utility.yul\":9845:9938   */\n      tag_159\n      jump\t// in\n    tag_261:\n        /* \"#utility.yul\":9963:9965   */\n      0x40\n        /* \"#utility.yul\":9958:9961   */\n      dup3\n        /* \"#utility.yul\":9954:9966   */\n      add\n        /* \"#utility.yul\":9947:9966   */\n      swap1\n      pop\n        /* \"#utility.yul\":9606:9972   */\n      swap2\n      swap1\n      pop\n      jump\t// out\n        /* \"#utility.yul\":9978:10397   */\n    tag_105:\n        /* \"#utility.yul\":10144:10148   */\n      0x00\n        /* \"#utility.yul\":10182:10184   */\n      0x20\n        /* \"#utility.yul\":10171:10180   */\n      dup3\n        /* \"#utility.yul\":10167:10185   */\n      add\n        /* \"#utility.yul\":10159:10185   */\n      swap1\n      pop\n        /* \"#utility.yul\":10231:10240   */\n      dup2\n        /* \"#utility.yul\":10225:10229   */\n      dup2\n        /* \"#utility.yul\":10221:10241   */\n      sub\n        /* \"#utility.yul\":10217:10218   */\n      0x00\n        /* \"#utility.yul\":10206:10215   */\n      dup4\n        /* \"#utility.yul\":10202:10219   */\n      add\n        /* \"#utility.yul\":10195:10242   */\n      mstore\n        /* \"#utility.yul\":10259:10390   */\n      tag_263\n        /* \"#utility.yul\":10385:10389   */\n      dup2\n        /* \"#utility.yul\":10259:10390   */\n      tag_160\n      jump\t// in\n    tag_263:\n        /* \"#utility.yul\":10251:10390   */\n      swap1\n      pop\n        /* \"#utility.yul\":9978:10397   */\n      swap2\n      swap1\n      pop\n      jump\t// out\n        /* \"#utility.yul\":10403:10626   */\n    tag_161:\n        /* \"#utility.yul\":10543:10577   */\n      0x45524332303a20617070726f76652066726f6d20746865207a65726f20616464\n        /* \"#utility.yul\":10539:10540   */\n      0x00\n        /* \"#utility.yul\":10531:10537   */\n      dup3\n        /* \"#utility.yul\":10527:10541   */\n      add\n        /* \"#utility.yul\":10520:10578   */\n      mstore\n        /* \"#utility.yul\":10612:10618   */\n      0x7265737300000000000000000000000000000000000000000000000000000000\n        /* \"#utility.yul\":10607:10609   */\n      0x20\n        /* \"#utility.yul\":10599:10605   */\n      dup3\n        /* \"#utility.yul\":10595:10610   */\n      add\n        /* \"#utility.yul\":10588:10619   */\n      mstore\n        /* \"#utility.yul\":10403:10626   */\n      pop\n      jump\t// out\n        /* \"#utility.yul\":10632:10998   */\n    tag_162:\n        /* \"#utility.yul\":10774:10777   */\n      0x00\n        /* \"#utility.yul\":10795:10862   */\n      tag_266\n        /* \"#utility.yul\":10859:10861   */\n      0x24\n        /* \"#utility.yul\":10854:10857   */\n      dup4\n        /* \"#utility.yul\":10795:10862   */\n      tag_134\n      jump\t// in\n    tag_266:\n        /* \"#utility.yul\":10788:10862   */\n      swap2\n      pop\n        /* \"#utility.yul\":10871:10964   */\n      tag_267\n        /* \"#utility.yul\":10960:10963   */\n      dup3\n        /* \"#utility.yul\":10871:10964   */\n      tag_161\n      jump\t// in\n    tag_267:\n        /* \"#utility.yul\":10989:10991   */\n      0x40\n        /* \"#utility.yul\":10984:10987   */\n      dup3\n        /* \"#utility.yul\":10980:10992   */\n      add\n        /* \"#utility.yul\":10973:10992   */\n      swap1\n      pop\n        /* \"#utility.yul\":10632:10998   */\n      swap2\n      swap1\n      pop\n      jump\t// out\n        /* \"#utility.yul\":11004:11423   */\n    tag_119:\n        /* \"#utility.yul\":11170:11174   */\n      0x00\n        /* \"#utility.yul\":11208:11210   */\n      0x20\n        /* \"#utility.yul\":11197:11206   */\n      dup3\n        /* \"#utility.yul\":11193:11211   */\n      add\n        /* \"#utility.yul\":11185:11211   */\n      swap1\n      pop\n        /* \"#utility.yul\":11257:11266   */\n      dup2\n        /* \"#utility.yul\":11251:11255   */\n      dup2\n        /* \"#utility.yul\":11247:11267   */\n      sub\n        /* \"#utility.yul\":11243:11244   */\n      0x00\n        /* \"#utility.yul\":11232:11241   */\n      dup4\n        /* \"#utility.yul\":11228:11245   */\n      add\n        /* \"#utility.yul\":11221:11268   */\n      mstore\n        /* \"#utility.yul\":11285:11416   */\n      tag_269\n        /* \"#utility.yul\":11411:11415   */\n      dup2\n        /* \"#utility.yul\":11285:11416   */\n      tag_162\n      jump\t// in\n    tag_269:\n        /* \"#utility.yul\":11277:11416   */\n      swap1\n      pop\n        /* \"#utility.yul\":11004:11423   */\n      swap2\n      swap1\n      pop\n      jump\t// out\n        /* \"#utility.yul\":11429:11650   */\n    tag_163:\n        /* \"#utility.yul\":11569:11603   */\n      0x45524332303a20617070726f766520746f20746865207a65726f206164647265\n        /* \"#utility.yul\":11565:11566   */\n      0x00\n        /* \"#utility.yul\":11557:11563   */\n      dup3\n        /* \"#utility.yul\":11553:11567   */\n      add\n        /* \"#utility.yul\":11546:11604   */\n      mstore\n        /* \"#utility.yul\":11638:11642   */\n      0x7373000000000000000000000000000000000000000000000000000000000000\n        /* \"#utility.yul\":11633:11635   */\n      0x20\n        /* \"#utility.yul\":11625:11631   */\n      dup3\n        /* \"#utility.yul\":11621:11636   */\n      add\n        /* \"#utility.yul\":11614:11643   */\n      mstore\n        /* \"#utility.yul\":11429:11650   */\n      pop\n      jump\t// out\n        /* \"#utility.yul\":11656:12022   */\n    tag_164:\n        /* \"#utility.yul\":11798:11801   */\n      0x00\n        /* \"#utility.yul\":11819:11886   */\n      tag_272\n        /* \"#utility.yul\":11883:11885   */\n      0x22\n        /* \"#utility.yul\":11878:11881   */\n      dup4\n        /* \"#utility.yul\":11819:11886   */\n      tag_134\n      jump\t// in\n    tag_272:\n        /* \"#utility.yul\":11812:11886   */\n      swap2\n      pop\n        /* \"#utility.yul\":11895:11988   */\n      tag_273\n        /* \"#utility.yul\":11984:11987   */\n      dup3\n        /* \"#utility.yul\":11895:11988   */\n      tag_163\n      jump\t// in\n    tag_273:\n        /* \"#utility.yul\":12013:12015   */\n      0x40\n        /* \"#utility.yul\":12008:12011   */\n      dup3\n        /* \"#utility.yul\":12004:12016   */\n      add\n        /* \"#utility.yul\":11997:12016   */\n      swap1\n      pop\n        /* \"#utility.yul\":11656:12022   */\n      swap2\n      swap1\n      pop\n      jump\t// out\n        /* \"#utility.yul\":12028:12447   */\n    tag_122:\n        /* \"#utility.yul\":12194:12198   */\n      0x00\n        /* \"#utility.yul\":12232:12234   */\n      0x20\n        /* \"#utility.yul\":12221:12230   */\n      dup3\n        /* \"#utility.yul\":12217:12235   */\n      add\n        /* \"#utility.yul\":12209:12235   */\n      swap1\n      pop\n        /* \"#utility.yul\":12281:12290   */\n      dup2\n        /* \"#utility.yul\":12275:12279   */\n      dup2\n        /* \"#utility.yul\":12271:12291   */\n      sub\n        /* \"#utility.yul\":12267:12268   */\n      0x00\n        /* \"#utility.yul\":12256:12265   */\n      dup4\n        /* \"#utility.yul\":12252:12269   */\n      add\n        /* \"#utility.yul\":12245:12292   */\n      mstore\n        /* \"#utility.yul\":12309:12440   */\n      tag_275\n        /* \"#utility.yul\":12435:12439   */\n      dup2\n        /* \"#utility.yul\":12309:12440   */\n      tag_164\n      jump\t// in\n    tag_275:\n        /* \"#utility.yul\":12301:12440   */\n      swap1\n      pop\n        /* \"#utility.yul\":12028:12447   */\n      swap2\n      swap1\n      pop\n      jump\t// out\n        /* \"#utility.yul\":12453:12631   */\n    tag_165:\n        /* \"#utility.yul\":12593:12623   */\n      0x45524332303a20696e737566666963656e7420616c6c6f77616e636500000000\n        /* \"#utility.yul\":12589:12590   */\n      0x00\n        /* \"#utility.yul\":12581:12587   */\n      dup3\n        /* \"#utility.yul\":12577:12591   */\n      add\n        /* \"#utility.yul\":12570:12624   */\n      mstore\n        /* \"#utility.yul\":12453:12631   */\n      pop\n      jump\t// out\n        /* \"#utility.yul\":12637:13003   */\n    tag_166:\n        /* \"#utility.yul\":12779:12782   */\n      0x00\n        /* \"#utility.yul\":12800:12867   */\n      tag_278\n        /* \"#utility.yul\":12864:12866   */\n      0x1c\n        /* \"#utility.yul\":12859:12862   */\n      dup4\n        /* \"#utility.yul\":12800:12867   */\n      tag_134\n      jump\t// in\n    tag_278:\n        /* \"#utility.yul\":12793:12867   */\n      swap2\n      pop\n        /* \"#utility.yul\":12876:12969   */\n      tag_279\n        /* \"#utility.yul\":12965:12968   */\n      dup3\n        /* \"#utility.yul\":12876:12969   */\n      tag_165\n      jump\t// in\n    tag_279:\n        /* \"#utility.yul\":12994:12996   */\n      0x20\n        /* \"#utility.yul\":12989:12992   */\n      dup3\n        /* \"#utility.yul\":12985:12997   */\n      add\n        /* \"#utility.yul\":12978:12997   */\n      swap1\n      pop\n        /* \"#utility.yul\":12637:13003   */\n      swap2\n      swap1\n      pop\n      jump\t// out\n        /* \"#utility.yul\":13009:13428   */\n    tag_129:\n        /* \"#utility.yul\":13175:13179   */\n      0x00\n        /* \"#utility.yul\":13213:13215   */\n      0x20\n        /* \"#utility.yul\":13202:13211   */\n      dup3\n        /* \"#utility.yul\":13198:13216   */\n      add\n        /* \"#utility.yul\":13190:13216   */\n      swap1\n      pop\n        /* \"#utility.yul\":13262:13271   */\n      dup2\n        /* \"#utility.yul\":13256:13260   */\n      dup2\n        /* \"#utility.yul\":13252:13272   */\n      sub\n        /* \"#utility.yul\":13248:13249   */\n      0x00\n        /* \"#utility.yul\":13237:13246   */\n      dup4\n        /* \"#utility.yul\":13233:13250   */\n      add\n        /* \"#utility.yul\":13226:13273   */\n      mstore\n        /* \"#utility.yul\":13290:13421   */\n      tag_281\n        /* \"#utility.yul\":13416:13420   */\n      dup2\n        /* \"#utility.yul\":13290:13421   */\n      tag_166\n      jump\t// in\n    tag_281:\n        /* \"#utility.yul\":13282:13421   */\n      swap1\n      pop\n        /* \"#utility.yul\":13009:13428   */\n      swap2\n      swap1\n      pop\n      jump\t// out\n\n    auxdata: 0xa2646970667358221220ec97cecd942750a318f9be33923f96c9505ae71b793b1cedc47e40cdcd93b65364736f6c634300080f0033\n}\n",
				"bytecode": {
					"linkReferences": {},
					"object": "60806040523480156200001157600080fd5b506040518060400160405280600481526020017f6a6f616e000000000000000000000000000000000000000000000000000000008152506040518060400160405280600281526020017f6a6100000000000000000000000000000000000000000000000000000000000081525081600390816200008f919062000324565b508060049081620000a1919062000324565b5050506200040b565b600081519050919050565b7f4e487b7100000000000000000000000000000000000000000000000000000000600052604160045260246000fd5b7f4e487b7100000000000000000000000000000000000000000000000000000000600052602260045260246000fd5b600060028204905060018216806200012c57607f821691505b602082108103620001425762000141620000e4565b5b50919050565b60008190508160005260206000209050919050565b60006020601f8301049050919050565b600082821b905092915050565b600060088302620001ac7fffffffffffffffffffffffffffffffffffffffffffffffffffffffffffffffff826200016d565b620001b886836200016d565b95508019841693508086168417925050509392505050565b6000819050919050565b6000819050919050565b600062000205620001ff620001f984620001d0565b620001da565b620001d0565b9050919050565b6000819050919050565b6200022183620001e4565b6200023962000230826200020c565b8484546200017a565b825550505050565b600090565b6200025062000241565b6200025d81848462000216565b505050565b5b8181101562000285576200027960008262000246565b60018101905062000263565b5050565b601f821115620002d4576200029e8162000148565b620002a9846200015d565b81016020851015620002b9578190505b620002d1620002c8856200015d565b83018262000262565b50505b505050565b600082821c905092915050565b6000620002f960001984600802620002d9565b1980831691505092915050565b6000620003148383620002e6565b9150826002028217905092915050565b6200032f82620000aa565b67ffffffffffffffff8111156200034b576200034a620000b5565b5b62000357825462000113565b6200036482828562000289565b600060209050601f8311600181146200039c576000841562000387578287015190505b62000393858262000306565b86555062000403565b601f198416620003ac8662000148565b60005b82811015620003d657848901518255600182019150602085019450602081019050620003af565b86831015620003f65784890151620003f2601f891682620002e6565b8355505b6001600288020188555050505b505050505050565b6112fa806200041b6000396000f3fe608060405234801561001057600080fd5b50600436106100b45760003560e01c80633950935111610071578063395093511461018f57806370a08231146101bf57806389bd36f4146101ef57806395d89b411461021f578063a9059cbb1461023d578063dd62ed3e1461026d576100b4565b806306fdde03146100b9578063095ea7b3146100d757806318160ddd1461010757806323b872dd1461012557806330e0789e14610155578063313ce56714610171575b600080fd5b6100c161029d565b6040516100ce9190610bec565b60405180910390f35b6100f160048036038101906100ec9190610ca7565b61032f565b6040516100fe9190610d02565b60405180910390f35b61010f61034b565b60405161011c9190610d2c565b60405180910390f35b61013f600480360381019061013a9190610d47565b610355565b60405161014c9190610d02565b60405180910390f35b61016f600480360381019061016a9190610d47565b61037d565b005b6101796105ea565b6040516101869190610d2c565b60405180910390f35b6101a960048036038101906101a49190610ca7565b6105f3565b6040516101b69190610d02565b60405180910390f35b6101d960048036038101906101d49190610d9a565b610696565b6040516101e69190610d2c565b60405180910390f35b61020960048036038101906102049190610ca7565b6106de565b6040516102169190610d02565b60405180910390f35b6102276107c1565b6040516102349190610bec565b60405180910390f35b61025760048036038101906102529190610ca7565b610853565b6040516102649190610d02565b60405180910390f35b61028760048036038101906102829190610dc7565b61086f565b6040516102949190610d2c565b60405180910390f35b6060600380546102ac90610e36565b80601f01602080910402602001604051908101604052809291908181526020018280546102d890610e36565b80156103255780601f106102fa57610100808354040283529160200191610325565b820191906000526020600020905b81548152906001019060200180831161030857829003601f168201915b5050505050905090565b6000803390506103408185856108f6565b600191505092915050565b6000600254905090565b600080339050610366858285610abf565b61037185858561037d565b60019150509392505050565b600073ffffffffffffffffffffffffffffffffffffffff168373ffffffffffffffffffffffffffffffffffffffff16036103ec576040517f08c379a00000000000000000000000000000000000000000000000000000000081526004016103e390610ed9565b60405180910390fd5b600073ffffffffffffffffffffffffffffffffffffffff168273ffffffffffffffffffffffffffffffffffffffff160361045b576040517f08c379a000000000000000000000000000000000000000000000000000000000815260040161045290610f6b565b60405180910390fd5b610466838383610b49565b60008060008573ffffffffffffffffffffffffffffffffffffffff1673ffffffffffffffffffffffffffffffffffffffff168152602001908152602001600020549050818110156104ec576040517f08c379a00000000000000000000000000000000000000000000000000000000081526004016104e390610ffd565b60405180910390fd5b8181036000808673ffffffffffffffffffffffffffffffffffffffff1673ffffffffffffffffffffffffffffffffffffffff16815260200190815260200160002081905550816000808573ffffffffffffffffffffffffffffffffffffffff1673ffffffffffffffffffffffffffffffffffffffff168152602001908152602001600020819055508273ffffffffffffffffffffffffffffffffffffffff168473ffffffffffffffffffffffffffffffffffffffff167fddf252ad1be2c89b69c2b068fc378daa952ba7f163c4a11628f55a4df523b3ef846040516105d19190610d2c565b60405180910390a36105e4848484610b4e565b50505050565b60006012905090565b60008033905061068b818585600160008673ffffffffffffffffffffffffffffffffffffffff1673ffffffffffffffffffffffffffffffffffffffff16815260200190815260200160002060008973ffffffffffffffffffffffffffffffffffffffff1673ffffffffffffffffffffffffffffffffffffffff16815260200190815260200160002054610686919061104c565b6108f6565b600191505092915050565b60008060008373ffffffffffffffffffffffffffffffffffffffff1673ffffffffffffffffffffffffffffffffffffffff168152602001908152602001600020549050919050565b6000803390506000600160008373ffffffffffffffffffffffffffffffffffffffff1673ffffffffffffffffffffffffffffffffffffffff16815260200190815260200160002060008673ffffffffffffffffffffffffffffffffffffffff1673ffffffffffffffffffffffffffffffffffffffff168152602001908152602001600020549050838110156107a8576040517f08c379a000000000000000000000000000000000000000000000000000000000815260040161079f90611114565b60405180910390fd5b6107b582868684036108f6565b60019250505092915050565b6060600480546107d090610e36565b80601f01602080910402602001604051908101604052809291908181526020018280546107fc90610e36565b80156108495780601f1061081e57610100808354040283529160200191610849565b820191906000526020600020905b81548152906001019060200180831161082c57829003601f168201915b5050505050905090565b60008033905061086481858561037d565b600191505092915050565b6000600160008473ffffffffffffffffffffffffffffffffffffffff1673ffffffffffffffffffffffffffffffffffffffff16815260200190815260200160002060008373ffffffffffffffffffffffffffffffffffffffff1673ffffffffffffffffffffffffffffffffffffffff16815260200190815260200160002054905092915050565b600073ffffffffffffffffffffffffffffffffffffffff168373ffffffffffffffffffffffffffffffffffffffff1603610965576040517f08c379a000000000000000000000000000000000000000000000000000000000815260040161095c906111a6565b60405180910390fd5b600073ffffffffffffffffffffffffffffffffffffffff168273ffffffffffffffffffffffffffffffffffffffff16036109d4576040517f08c379a00000000000000000000000000000000000000000000000000000000081526004016109cb90611238565b60405180910390fd5b80600160008573ffffffffffffffffffffffffffffffffffffffff1673ffffffffffffffffffffffffffffffffffffffff16815260200190815260200160002060008473ffffffffffffffffffffffffffffffffffffffff1673ffffffffffffffffffffffffffffffffffffffff168152602001908152602001600020819055508173ffffffffffffffffffffffffffffffffffffffff168373ffffffffffffffffffffffffffffffffffffffff167f8c5be1e5ebec7d5bd14f71427d1e84f3dd0314c0f7b2291e5b200ac8c7c3b92583604051610ab29190610d2c565b60405180910390a3505050565b6000610acb848461086f565b90507fffffffffffffffffffffffffffffffffffffffffffffffffffffffffffffffff8114610b435781811015610b37576040517f08c379a0000000000000000000000000000000000000000000000000000000008152600401610b2e906112a4565b60405180910390fd5b610b428484846108f6565b5b50505050565b505050565b505050565b600081519050919050565b600082825260208201905092915050565b60005b83811015610b8d578082015181840152602081019050610b72565b83811115610b9c576000848401525b50505050565b6000601f19601f8301169050919050565b6000610bbe82610b53565b610bc88185610b5e565b9350610bd8818560208601610b6f565b610be181610ba2565b840191505092915050565b60006020820190508181036000830152610c068184610bb3565b905092915050565b600080fd5b600073ffffffffffffffffffffffffffffffffffffffff82169050919050565b6000610c3e82610c13565b9050919050565b610c4e81610c33565b8114610c5957600080fd5b50565b600081359050610c6b81610c45565b92915050565b6000819050919050565b610c8481610c71565b8114610c8f57600080fd5b50565b600081359050610ca181610c7b565b92915050565b60008060408385031215610cbe57610cbd610c0e565b5b6000610ccc85828601610c5c565b9250506020610cdd85828601610c92565b9150509250929050565b60008115159050919050565b610cfc81610ce7565b82525050565b6000602082019050610d176000830184610cf3565b92915050565b610d2681610c71565b82525050565b6000602082019050610d416000830184610d1d565b92915050565b600080600060608486031215610d6057610d5f610c0e565b5b6000610d6e86828701610c5c565b9350506020610d7f86828701610c5c565b9250506040610d9086828701610c92565b9150509250925092565b600060208284031215610db057610daf610c0e565b5b6000610dbe84828501610c5c565b91505092915050565b60008060408385031215610dde57610ddd610c0e565b5b6000610dec85828601610c5c565b9250506020610dfd85828601610c5c565b9150509250929050565b7f4e487b7100000000000000000000000000000000000000000000000000000000600052602260045260246000fd5b60006002820490506001821680610e4e57607f821691505b602082108103610e6157610e60610e07565b5b50919050565b7f45524332303a207472616e736665722066726f6d20746865207a65726f20616460008201527f6472657373000000000000000000000000000000000000000000000000000000602082015250565b6000610ec3602583610b5e565b9150610ece82610e67565b604082019050919050565b60006020820190508181036000830152610ef281610eb6565b9050919050565b7f45524332303a207472616e7366657220746f20746865207a65726f206164647260008201527f6573730000000000000000000000000000000000000000000000000000000000602082015250565b6000610f55602383610b5e565b9150610f6082610ef9565b604082019050919050565b60006020820190508181036000830152610f8481610f48565b9050919050565b7f45524332303a207472616e7366657220616d6f756e742065786365656473206260008201527f616c616e63650000000000000000000000000000000000000000000000000000602082015250565b6000610fe7602683610b5e565b9150610ff282610f8b565b604082019050919050565b6000602082019050818103600083015261101681610fda565b9050919050565b7f4e487b7100000000000000000000000000000000000000000000000000000000600052601160045260246000fd5b600061105782610c71565b915061106283610c71565b9250827fffffffffffffffffffffffffffffffffffffffffffffffffffffffffffffffff038211156110975761109661101d565b5b828201905092915050565b7f45524332303a2064656372656173656420616c6c6f77616e6365202062656c6f60008201527f77207a65726f0000000000000000000000000000000000000000000000000000602082015250565b60006110fe602683610b5e565b9150611109826110a2565b604082019050919050565b6000602082019050818103600083015261112d816110f1565b9050919050565b7f45524332303a20617070726f76652066726f6d20746865207a65726f2061646460008201527f7265737300000000000000000000000000000000000000000000000000000000602082015250565b6000611190602483610b5e565b915061119b82611134565b604082019050919050565b600060208201905081810360008301526111bf81611183565b9050919050565b7f45524332303a20617070726f766520746f20746865207a65726f20616464726560008201527f7373000000000000000000000000000000000000000000000000000000000000602082015250565b6000611222602283610b5e565b915061122d826111c6565b604082019050919050565b6000602082019050818103600083015261125181611215565b9050919050565b7f45524332303a20696e737566666963656e7420616c6c6f77616e636500000000600082015250565b600061128e601c83610b5e565b915061129982611258565b602082019050919050565b600060208201905081810360008301526112bd81611281565b905091905056fea2646970667358221220ec97cecd942750a318f9be33923f96c9505ae71b793b1cedc47e40cdcd93b65364736f6c634300080f0033",
					"opcodes": "PUSH1 0x80 PUSH1 0x40 MSTORE CALLVALUE DUP1 ISZERO PUSH3 0x11 JUMPI PUSH1 0x0 DUP1 REVERT JUMPDEST POP PUSH1 0x40 MLOAD DUP1 PUSH1 0x40 ADD PUSH1 0x40 MSTORE DUP1 PUSH1 0x4 DUP2 MSTORE PUSH1 0x20 ADD PUSH32 0x6A6F616E00000000000000000000000000000000000000000000000000000000 DUP2 MSTORE POP PUSH1 0x40 MLOAD DUP1 PUSH1 0x40 ADD PUSH1 0x40 MSTORE DUP1 PUSH1 0x2 DUP2 MSTORE PUSH1 0x20 ADD PUSH32 0x6A61000000000000000000000000000000000000000000000000000000000000 DUP2 MSTORE POP DUP2 PUSH1 0x3 SWAP1 DUP2 PUSH3 0x8F SWAP2 SWAP1 PUSH3 0x324 JUMP JUMPDEST POP DUP1 PUSH1 0x4 SWAP1 DUP2 PUSH3 0xA1 SWAP2 SWAP1 PUSH3 0x324 JUMP JUMPDEST POP POP POP PUSH3 0x40B JUMP JUMPDEST PUSH1 0x0 DUP2 MLOAD SWAP1 POP SWAP2 SWAP1 POP JUMP JUMPDEST PUSH32 0x4E487B7100000000000000000000000000000000000000000000000000000000 PUSH1 0x0 MSTORE PUSH1 0x41 PUSH1 0x4 MSTORE PUSH1 0x24 PUSH1 0x0 REVERT JUMPDEST PUSH32 0x4E487B7100000000000000000000000000000000000000000000000000000000 PUSH1 0x0 MSTORE PUSH1 0x22 PUSH1 0x4 MSTORE PUSH1 0x24 PUSH1 0x0 REVERT JUMPDEST PUSH1 0x0 PUSH1 0x2 DUP3 DIV SWAP1 POP PUSH1 0x1 DUP3 AND DUP1 PUSH3 0x12C JUMPI PUSH1 0x7F DUP3 AND SWAP2 POP JUMPDEST PUSH1 0x20 DUP3 LT DUP2 SUB PUSH3 0x142 JUMPI PUSH3 0x141 PUSH3 0xE4 JUMP JUMPDEST JUMPDEST POP SWAP2 SWAP1 POP JUMP JUMPDEST PUSH1 0x0 DUP2 SWAP1 POP DUP2 PUSH1 0x0 MSTORE PUSH1 0x20 PUSH1 0x0 KECCAK256 SWAP1 POP SWAP2 SWAP1 POP JUMP JUMPDEST PUSH1 0x0 PUSH1 0x20 PUSH1 0x1F DUP4 ADD DIV SWAP1 POP SWAP2 SWAP1 POP JUMP JUMPDEST PUSH1 0x0 DUP3 DUP3 SHL SWAP1 POP SWAP3 SWAP2 POP POP JUMP JUMPDEST PUSH1 0x0 PUSH1 0x8 DUP4 MUL PUSH3 0x1AC PUSH32 0xFFFFFFFFFFFFFFFFFFFFFFFFFFFFFFFFFFFFFFFFFFFFFFFFFFFFFFFFFFFFFFFF DUP3 PUSH3 0x16D JUMP JUMPDEST PUSH3 0x1B8 DUP7 DUP4 PUSH3 0x16D JUMP JUMPDEST SWAP6 POP DUP1 NOT DUP5 AND SWAP4 POP DUP1 DUP7 AND DUP5 OR SWAP3 POP POP POP SWAP4 SWAP3 POP POP POP JUMP JUMPDEST PUSH1 0x0 DUP2 SWAP1 POP SWAP2 SWAP1 POP JUMP JUMPDEST PUSH1 0x0 DUP2 SWAP1 POP SWAP2 SWAP1 POP JUMP JUMPDEST PUSH1 0x0 PUSH3 0x205 PUSH3 0x1FF PUSH3 0x1F9 DUP5 PUSH3 0x1D0 JUMP JUMPDEST PUSH3 0x1DA JUMP JUMPDEST PUSH3 0x1D0 JUMP JUMPDEST SWAP1 POP SWAP2 SWAP1 POP JUMP JUMPDEST PUSH1 0x0 DUP2 SWAP1 POP SWAP2 SWAP1 POP JUMP JUMPDEST PUSH3 0x221 DUP4 PUSH3 0x1E4 JUMP JUMPDEST PUSH3 0x239 PUSH3 0x230 DUP3 PUSH3 0x20C JUMP JUMPDEST DUP5 DUP5 SLOAD PUSH3 0x17A JUMP JUMPDEST DUP3 SSTORE POP POP POP POP JUMP JUMPDEST PUSH1 0x0 SWAP1 JUMP JUMPDEST PUSH3 0x250 PUSH3 0x241 JUMP JUMPDEST PUSH3 0x25D DUP2 DUP5 DUP5 PUSH3 0x216 JUMP JUMPDEST POP POP POP JUMP JUMPDEST JUMPDEST DUP2 DUP2 LT ISZERO PUSH3 0x285 JUMPI PUSH3 0x279 PUSH1 0x0 DUP3 PUSH3 0x246 JUMP JUMPDEST PUSH1 0x1 DUP2 ADD SWAP1 POP PUSH3 0x263 JUMP JUMPDEST POP POP JUMP JUMPDEST PUSH1 0x1F DUP3 GT ISZERO PUSH3 0x2D4 JUMPI PUSH3 0x29E DUP2 PUSH3 0x148 JUMP JUMPDEST PUSH3 0x2A9 DUP5 PUSH3 0x15D JUMP JUMPDEST DUP2 ADD PUSH1 0x20 DUP6 LT ISZERO PUSH3 0x2B9 JUMPI DUP2 SWAP1 POP JUMPDEST PUSH3 0x2D1 PUSH3 0x2C8 DUP6 PUSH3 0x15D JUMP JUMPDEST DUP4 ADD DUP3 PUSH3 0x262 JUMP JUMPDEST POP POP JUMPDEST POP POP POP JUMP JUMPDEST PUSH1 0x0 DUP3 DUP3 SHR SWAP1 POP SWAP3 SWAP2 POP POP JUMP JUMPDEST PUSH1 0x0 PUSH3 0x2F9 PUSH1 0x0 NOT DUP5 PUSH1 0x8 MUL PUSH3 0x2D9 JUMP JUMPDEST NOT DUP1 DUP4 AND SWAP2 POP POP SWAP3 SWAP2 POP POP JUMP JUMPDEST PUSH1 0x0 PUSH3 0x314 DUP4 DUP4 PUSH3 0x2E6 JUMP JUMPDEST SWAP2 POP DUP3 PUSH1 0x2 MUL DUP3 OR SWAP1 POP SWAP3 SWAP2 POP POP JUMP JUMPDEST PUSH3 0x32F DUP3 PUSH3 0xAA JUMP JUMPDEST PUSH8 0xFFFFFFFFFFFFFFFF DUP2 GT ISZERO PUSH3 0x34B JUMPI PUSH3 0x34A PUSH3 0xB5 JUMP JUMPDEST JUMPDEST PUSH3 0x357 DUP3 SLOAD PUSH3 0x113 JUMP JUMPDEST PUSH3 0x364 DUP3 DUP3 DUP6 PUSH3 0x289 JUMP JUMPDEST PUSH1 0x0 PUSH1 0x20 SWAP1 POP PUSH1 0x1F DUP4 GT PUSH1 0x1 DUP2 EQ PUSH3 0x39C JUMPI PUSH1 0x0 DUP5 ISZERO PUSH3 0x387 JUMPI DUP3 DUP8 ADD MLOAD SWAP1 POP JUMPDEST PUSH3 0x393 DUP6 DUP3 PUSH3 0x306 JUMP JUMPDEST DUP7 SSTORE POP PUSH3 0x403 JUMP JUMPDEST PUSH1 0x1F NOT DUP5 AND PUSH3 0x3AC DUP7 PUSH3 0x148 JUMP JUMPDEST PUSH1 0x0 JUMPDEST DUP3 DUP2 LT ISZERO PUSH3 0x3D6 JUMPI DUP5 DUP10 ADD MLOAD DUP3 SSTORE PUSH1 0x1 DUP3 ADD SWAP2 POP PUSH1 0x20 DUP6 ADD SWAP5 POP PUSH1 0x20 DUP2 ADD SWAP1 POP PUSH3 0x3AF JUMP JUMPDEST DUP7 DUP4 LT ISZERO PUSH3 0x3F6 JUMPI DUP5 DUP10 ADD MLOAD PUSH3 0x3F2 PUSH1 0x1F DUP10 AND DUP3 PUSH3 0x2E6 JUMP JUMPDEST DUP4 SSTORE POP JUMPDEST PUSH1 0x1 PUSH1 0x2 DUP9 MUL ADD DUP9 SSTORE POP POP POP JUMPDEST POP POP POP POP POP POP JUMP JUMPDEST PUSH2 0x12FA DUP1 PUSH3 0x41B PUSH1 0x0 CODECOPY PUSH1 0x0 RETURN INVALID PUSH1 0x80 PUSH1 0x40 MSTORE CALLVALUE DUP1 ISZERO PUSH2 0x10 JUMPI PUSH1 0x0 DUP1 REVERT JUMPDEST POP PUSH1 0x4 CALLDATASIZE LT PUSH2 0xB4 JUMPI PUSH1 0x0 CALLDATALOAD PUSH1 0xE0 SHR DUP1 PUSH4 0x39509351 GT PUSH2 0x71 JUMPI DUP1 PUSH4 0x39509351 EQ PUSH2 0x18F JUMPI DUP1 PUSH4 0x70A08231 EQ PUSH2 0x1BF JUMPI DUP1 PUSH4 0x89BD36F4 EQ PUSH2 0x1EF JUMPI DUP1 PUSH4 0x95D89B41 EQ PUSH2 0x21F JUMPI DUP1 PUSH4 0xA9059CBB EQ PUSH2 0x23D JUMPI DUP1 PUSH4 0xDD62ED3E EQ PUSH2 0x26D JUMPI PUSH2 0xB4 JUMP JUMPDEST DUP1 PUSH4 0x6FDDE03 EQ PUSH2 0xB9 JUMPI DUP1 PUSH4 0x95EA7B3 EQ PUSH2 0xD7 JUMPI DUP1 PUSH4 0x18160DDD EQ PUSH2 0x107 JUMPI DUP1 PUSH4 0x23B872DD EQ PUSH2 0x125 JUMPI DUP1 PUSH4 0x30E0789E EQ PUSH2 0x155 JUMPI DUP1 PUSH4 0x313CE567 EQ PUSH2 0x171 JUMPI JUMPDEST PUSH1 0x0 DUP1 REVERT JUMPDEST PUSH2 0xC1 PUSH2 0x29D JUMP JUMPDEST PUSH1 0x40 MLOAD PUSH2 0xCE SWAP2 SWAP1 PUSH2 0xBEC JUMP JUMPDEST PUSH1 0x40 MLOAD DUP1 SWAP2 SUB SWAP1 RETURN JUMPDEST PUSH2 0xF1 PUSH1 0x4 DUP1 CALLDATASIZE SUB DUP2 ADD SWAP1 PUSH2 0xEC SWAP2 SWAP1 PUSH2 0xCA7 JUMP JUMPDEST PUSH2 0x32F JUMP JUMPDEST PUSH1 0x40 MLOAD PUSH2 0xFE SWAP2 SWAP1 PUSH2 0xD02 JUMP JUMPDEST PUSH1 0x40 MLOAD DUP1 SWAP2 SUB SWAP1 RETURN JUMPDEST PUSH2 0x10F PUSH2 0x34B JUMP JUMPDEST PUSH1 0x40 MLOAD PUSH2 0x11C SWAP2 SWAP1 PUSH2 0xD2C JUMP JUMPDEST PUSH1 0x40 MLOAD DUP1 SWAP2 SUB SWAP1 RETURN JUMPDEST PUSH2 0x13F PUSH1 0x4 DUP1 CALLDATASIZE SUB DUP2 ADD SWAP1 PUSH2 0x13A SWAP2 SWAP1 PUSH2 0xD47 JUMP JUMPDEST PUSH2 0x355 JUMP JUMPDEST PUSH1 0x40 MLOAD PUSH2 0x14C SWAP2 SWAP1 PUSH2 0xD02 JUMP JUMPDEST PUSH1 0x40 MLOAD DUP1 SWAP2 SUB SWAP1 RETURN JUMPDEST PUSH2 0x16F PUSH1 0x4 DUP1 CALLDATASIZE SUB DUP2 ADD SWAP1 PUSH2 0x16A SWAP2 SWAP1 PUSH2 0xD47 JUMP JUMPDEST PUSH2 0x37D JUMP JUMPDEST STOP JUMPDEST PUSH2 0x179 PUSH2 0x5EA JUMP JUMPDEST PUSH1 0x40 MLOAD PUSH2 0x186 SWAP2 SWAP1 PUSH2 0xD2C JUMP JUMPDEST PUSH1 0x40 MLOAD DUP1 SWAP2 SUB SWAP1 RETURN JUMPDEST PUSH2 0x1A9 PUSH1 0x4 DUP1 CALLDATASIZE SUB DUP2 ADD SWAP1 PUSH2 0x1A4 SWAP2 SWAP1 PUSH2 0xCA7 JUMP JUMPDEST PUSH2 0x5F3 JUMP JUMPDEST PUSH1 0x40 MLOAD PUSH2 0x1B6 SWAP2 SWAP1 PUSH2 0xD02 JUMP JUMPDEST PUSH1 0x40 MLOAD DUP1 SWAP2 SUB SWAP1 RETURN JUMPDEST PUSH2 0x1D9 PUSH1 0x4 DUP1 CALLDATASIZE SUB DUP2 ADD SWAP1 PUSH2 0x1D4 SWAP2 SWAP1 PUSH2 0xD9A JUMP JUMPDEST PUSH2 0x696 JUMP JUMPDEST PUSH1 0x40 MLOAD PUSH2 0x1E6 SWAP2 SWAP1 PUSH2 0xD2C JUMP JUMPDEST PUSH1 0x40 MLOAD DUP1 SWAP2 SUB SWAP1 RETURN JUMPDEST PUSH2 0x209 PUSH1 0x4 DUP1 CALLDATASIZE SUB DUP2 ADD SWAP1 PUSH2 0x204 SWAP2 SWAP1 PUSH2 0xCA7 JUMP JUMPDEST PUSH2 0x6DE JUMP JUMPDEST PUSH1 0x40 MLOAD PUSH2 0x216 SWAP2 SWAP1 PUSH2 0xD02 JUMP JUMPDEST PUSH1 0x40 MLOAD DUP1 SWAP2 SUB SWAP1 RETURN JUMPDEST PUSH2 0x227 PUSH2 0x7C1 JUMP JUMPDEST PUSH1 0x40 MLOAD PUSH2 0x234 SWAP2 SWAP1 PUSH2 0xBEC JUMP JUMPDEST PUSH1 0x40 MLOAD DUP1 SWAP2 SUB SWAP1 RETURN JUMPDEST PUSH2 0x257 PUSH1 0x4 DUP1 CALLDATASIZE SUB DUP2 ADD SWAP1 PUSH2 0x252 SWAP2 SWAP1 PUSH2 0xCA7 JUMP JUMPDEST PUSH2 0x853 JUMP JUMPDEST PUSH1 0x40 MLOAD PUSH2 0x264 SWAP2 SWAP1 PUSH2 0xD02 JUMP JUMPDEST PUSH1 0x40 MLOAD DUP1 SWAP2 SUB SWAP1 RETURN JUMPDEST PUSH2 0x287 PUSH1 0x4 DUP1 CALLDATASIZE SUB DUP2 ADD SWAP1 PUSH2 0x282 SWAP2 SWAP1 PUSH2 0xDC7 JUMP JUMPDEST PUSH2 0x86F JUMP JUMPDEST PUSH1 0x40 MLOAD PUSH2 0x294 SWAP2 SWAP1 PUSH2 0xD2C JUMP JUMPDEST PUSH1 0x40 MLOAD DUP1 SWAP2 SUB SWAP1 RETURN JUMPDEST PUSH1 0x60 PUSH1 0x3 DUP1 SLOAD PUSH2 0x2AC SWAP1 PUSH2 0xE36 JUMP JUMPDEST DUP1 PUSH1 0x1F ADD PUSH1 0x20 DUP1 SWAP2 DIV MUL PUSH1 0x20 ADD PUSH1 0x40 MLOAD SWAP1 DUP2 ADD PUSH1 0x40 MSTORE DUP1 SWAP3 SWAP2 SWAP1 DUP2 DUP2 MSTORE PUSH1 0x20 ADD DUP3 DUP1 SLOAD PUSH2 0x2D8 SWAP1 PUSH2 0xE36 JUMP JUMPDEST DUP1 ISZERO PUSH2 0x325 JUMPI DUP1 PUSH1 0x1F LT PUSH2 0x2FA JUMPI PUSH2 0x100 DUP1 DUP4 SLOAD DIV MUL DUP4 MSTORE SWAP2 PUSH1 0x20 ADD SWAP2 PUSH2 0x325 JUMP JUMPDEST DUP3 ADD SWAP2 SWAP1 PUSH1 0x0 MSTORE PUSH1 0x20 PUSH1 0x0 KECCAK256 SWAP1 JUMPDEST DUP2 SLOAD DUP2 MSTORE SWAP1 PUSH1 0x1 ADD SWAP1 PUSH1 0x20 ADD DUP1 DUP4 GT PUSH2 0x308 JUMPI DUP3 SWAP1 SUB PUSH1 0x1F AND DUP3 ADD SWAP2 JUMPDEST POP POP POP POP POP SWAP1 POP SWAP1 JUMP JUMPDEST PUSH1 0x0 DUP1 CALLER SWAP1 POP PUSH2 0x340 DUP2 DUP6 DUP6 PUSH2 0x8F6 JUMP JUMPDEST PUSH1 0x1 SWAP2 POP POP SWAP3 SWAP2 POP POP JUMP JUMPDEST PUSH1 0x0 PUSH1 0x2 SLOAD SWAP1 POP SWAP1 JUMP JUMPDEST PUSH1 0x0 DUP1 CALLER SWAP1 POP PUSH2 0x366 DUP6 DUP3 DUP6 PUSH2 0xABF JUMP JUMPDEST PUSH2 0x371 DUP6 DUP6 DUP6 PUSH2 0x37D JUMP JUMPDEST PUSH1 0x1 SWAP2 POP POP SWAP4 SWAP3 POP POP POP JUMP JUMPDEST PUSH1 0x0 PUSH20 0xFFFFFFFFFFFFFFFFFFFFFFFFFFFFFFFFFFFFFFFF AND DUP4 PUSH20 0xFFFFFFFFFFFFFFFFFFFFFFFFFFFFFFFFFFFFFFFF AND SUB PUSH2 0x3EC JUMPI PUSH1 0x40 MLOAD PUSH32 0x8C379A000000000000000000000000000000000000000000000000000000000 DUP2 MSTORE PUSH1 0x4 ADD PUSH2 0x3E3 SWAP1 PUSH2 0xED9 JUMP JUMPDEST PUSH1 0x40 MLOAD DUP1 SWAP2 SUB SWAP1 REVERT JUMPDEST PUSH1 0x0 PUSH20 0xFFFFFFFFFFFFFFFFFFFFFFFFFFFFFFFFFFFFFFFF AND DUP3 PUSH20 0xFFFFFFFFFFFFFFFFFFFFFFFFFFFFFFFFFFFFFFFF AND SUB PUSH2 0x45B JUMPI PUSH1 0x40 MLOAD PUSH32 0x8C379A000000000000000000000000000000000000000000000000000000000 DUP2 MSTORE PUSH1 0x4 ADD PUSH2 0x452 SWAP1 PUSH2 0xF6B JUMP JUMPDEST PUSH1 0x40 MLOAD DUP1 SWAP2 SUB SWAP1 REVERT JUMPDEST PUSH2 0x466 DUP4 DUP4 DUP4 PUSH2 0xB49 JUMP JUMPDEST PUSH1 0x0 DUP1 PUSH1 0x0 DUP6 PUSH20 0xFFFFFFFFFFFFFFFFFFFFFFFFFFFFFFFFFFFFFFFF AND PUSH20 0xFFFFFFFFFFFFFFFFFFFFFFFFFFFFFFFFFFFFFFFF AND DUP2 MSTORE PUSH1 0x20 ADD SWAP1 DUP2 MSTORE PUSH1 0x20 ADD PUSH1 0x0 KECCAK256 SLOAD SWAP1 POP DUP2 DUP2 LT ISZERO PUSH2 0x4EC JUMPI PUSH1 0x40 MLOAD PUSH32 0x8C379A000000000000000000000000000000000000000000000000000000000 DUP2 MSTORE PUSH1 0x4 ADD PUSH2 0x4E3 SWAP1 PUSH2 0xFFD JUMP JUMPDEST PUSH1 0x40 MLOAD DUP1 SWAP2 SUB SWAP1 REVERT JUMPDEST DUP2 DUP2 SUB PUSH1 0x0 DUP1 DUP7 PUSH20 0xFFFFFFFFFFFFFFFFFFFFFFFFFFFFFFFFFFFFFFFF AND PUSH20 0xFFFFFFFFFFFFFFFFFFFFFFFFFFFFFFFFFFFFFFFF AND DUP2 MSTORE PUSH1 0x20 ADD SWAP1 DUP2 MSTORE PUSH1 0x20 ADD PUSH1 0x0 KECCAK256 DUP2 SWAP1 SSTORE POP DUP2 PUSH1 0x0 DUP1 DUP6 PUSH20 0xFFFFFFFFFFFFFFFFFFFFFFFFFFFFFFFFFFFFFFFF AND PUSH20 0xFFFFFFFFFFFFFFFFFFFFFFFFFFFFFFFFFFFFFFFF AND DUP2 MSTORE PUSH1 0x20 ADD SWAP1 DUP2 MSTORE PUSH1 0x20 ADD PUSH1 0x0 KECCAK256 DUP2 SWAP1 SSTORE POP DUP3 PUSH20 0xFFFFFFFFFFFFFFFFFFFFFFFFFFFFFFFFFFFFFFFF AND DUP5 PUSH20 0xFFFFFFFFFFFFFFFFFFFFFFFFFFFFFFFFFFFFFFFF AND PUSH32 0xDDF252AD1BE2C89B69C2B068FC378DAA952BA7F163C4A11628F55A4DF523B3EF DUP5 PUSH1 0x40 MLOAD PUSH2 0x5D1 SWAP2 SWAP1 PUSH2 0xD2C JUMP JUMPDEST PUSH1 0x40 MLOAD DUP1 SWAP2 SUB SWAP1 LOG3 PUSH2 0x5E4 DUP5 DUP5 DUP5 PUSH2 0xB4E JUMP JUMPDEST POP POP POP POP JUMP JUMPDEST PUSH1 0x0 PUSH1 0x12 SWAP1 POP SWAP1 JUMP JUMPDEST PUSH1 0x0 DUP1 CALLER SWAP1 POP PUSH2 0x68B DUP2 DUP6 DUP6 PUSH1 0x1 PUSH1 0x0 DUP7 PUSH20 0xFFFFFFFFFFFFFFFFFFFFFFFFFFFFFFFFFFFFFFFF AND PUSH20 0xFFFFFFFFFFFFFFFFFFFFFFFFFFFFFFFFFFFFFFFF AND DUP2 MSTORE PUSH1 0x20 ADD SWAP1 DUP2 MSTORE PUSH1 0x20 ADD PUSH1 0x0 KECCAK256 PUSH1 0x0 DUP10 PUSH20 0xFFFFFFFFFFFFFFFFFFFFFFFFFFFFFFFFFFFFFFFF AND PUSH20 0xFFFFFFFFFFFFFFFFFFFFFFFFFFFFFFFFFFFFFFFF AND DUP2 MSTORE PUSH1 0x20 ADD SWAP1 DUP2 MSTORE PUSH1 0x20 ADD PUSH1 0x0 KECCAK256 SLOAD PUSH2 0x686 SWAP2 SWAP1 PUSH2 0x104C JUMP JUMPDEST PUSH2 0x8F6 JUMP JUMPDEST PUSH1 0x1 SWAP2 POP POP SWAP3 SWAP2 POP POP JUMP JUMPDEST PUSH1 0x0 DUP1 PUSH1 0x0 DUP4 PUSH20 0xFFFFFFFFFFFFFFFFFFFFFFFFFFFFFFFFFFFFFFFF AND PUSH20 0xFFFFFFFFFFFFFFFFFFFFFFFFFFFFFFFFFFFFFFFF AND DUP2 MSTORE PUSH1 0x20 ADD SWAP1 DUP2 MSTORE PUSH1 0x20 ADD PUSH1 0x0 KECCAK256 SLOAD SWAP1 POP SWAP2 SWAP1 POP JUMP JUMPDEST PUSH1 0x0 DUP1 CALLER SWAP1 POP PUSH1 0x0 PUSH1 0x1 PUSH1 0x0 DUP4 PUSH20 0xFFFFFFFFFFFFFFFFFFFFFFFFFFFFFFFFFFFFFFFF AND PUSH20 0xFFFFFFFFFFFFFFFFFFFFFFFFFFFFFFFFFFFFFFFF AND DUP2 MSTORE PUSH1 0x20 ADD SWAP1 DUP2 MSTORE PUSH1 0x20 ADD PUSH1 0x0 KECCAK256 PUSH1 0x0 DUP7 PUSH20 0xFFFFFFFFFFFFFFFFFFFFFFFFFFFFFFFFFFFFFFFF AND PUSH20 0xFFFFFFFFFFFFFFFFFFFFFFFFFFFFFFFFFFFFFFFF AND DUP2 MSTORE PUSH1 0x20 ADD SWAP1 DUP2 MSTORE PUSH1 0x20 ADD PUSH1 0x0 KECCAK256 SLOAD SWAP1 POP DUP4 DUP2 LT ISZERO PUSH2 0x7A8 JUMPI PUSH1 0x40 MLOAD PUSH32 0x8C379A000000000000000000000000000000000000000000000000000000000 DUP2 MSTORE PUSH1 0x4 ADD PUSH2 0x79F SWAP1 PUSH2 0x1114 JUMP JUMPDEST PUSH1 0x40 MLOAD DUP1 SWAP2 SUB SWAP1 REVERT JUMPDEST PUSH2 0x7B5 DUP3 DUP7 DUP7 DUP5 SUB PUSH2 0x8F6 JUMP JUMPDEST PUSH1 0x1 SWAP3 POP POP POP SWAP3 SWAP2 POP POP JUMP JUMPDEST PUSH1 0x60 PUSH1 0x4 DUP1 SLOAD PUSH2 0x7D0 SWAP1 PUSH2 0xE36 JUMP JUMPDEST DUP1 PUSH1 0x1F ADD PUSH1 0x20 DUP1 SWAP2 DIV MUL PUSH1 0x20 ADD PUSH1 0x40 MLOAD SWAP1 DUP2 ADD PUSH1 0x40 MSTORE DUP1 SWAP3 SWAP2 SWAP1 DUP2 DUP2 MSTORE PUSH1 0x20 ADD DUP3 DUP1 SLOAD PUSH2 0x7FC SWAP1 PUSH2 0xE36 JUMP JUMPDEST DUP1 ISZERO PUSH2 0x849 JUMPI DUP1 PUSH1 0x1F LT PUSH2 0x81E JUMPI PUSH2 0x100 DUP1 DUP4 SLOAD DIV MUL DUP4 MSTORE SWAP2 PUSH1 0x20 ADD SWAP2 PUSH2 0x849 JUMP JUMPDEST DUP3 ADD SWAP2 SWAP1 PUSH1 0x0 MSTORE PUSH1 0x20 PUSH1 0x0 KECCAK256 SWAP1 JUMPDEST DUP2 SLOAD DUP2 MSTORE SWAP1 PUSH1 0x1 ADD SWAP1 PUSH1 0x20 ADD DUP1 DUP4 GT PUSH2 0x82C JUMPI DUP3 SWAP1 SUB PUSH1 0x1F AND DUP3 ADD SWAP2 JUMPDEST POP POP POP POP POP SWAP1 POP SWAP1 JUMP JUMPDEST PUSH1 0x0 DUP1 CALLER SWAP1 POP PUSH2 0x864 DUP2 DUP6 DUP6 PUSH2 0x37D JUMP JUMPDEST PUSH1 0x1 SWAP2 POP POP SWAP3 SWAP2 POP POP JUMP JUMPDEST PUSH1 0x0 PUSH1 0x1 PUSH1 0x0 DUP5 PUSH20 0xFFFFFFFFFFFFFFFFFFFFFFFFFFFFFFFFFFFFFFFF AND PUSH20 0xFFFFFFFFFFFFFFFFFFFFFFFFFFFFFFFFFFFFFFFF AND DUP2 MSTORE PUSH1 0x20 ADD SWAP1 DUP2 MSTORE PUSH1 0x20 ADD PUSH1 0x0 KECCAK256 PUSH1 0x0 DUP4 PUSH20 0xFFFFFFFFFFFFFFFFFFFFFFFFFFFFFFFFFFFFFFFF AND PUSH20 0xFFFFFFFFFFFFFFFFFFFFFFFFFFFFFFFFFFFFFFFF AND DUP2 MSTORE PUSH1 0x20 ADD SWAP1 DUP2 MSTORE PUSH1 0x20 ADD PUSH1 0x0 KECCAK256 SLOAD SWAP1 POP SWAP3 SWAP2 POP POP JUMP JUMPDEST PUSH1 0x0 PUSH20 0xFFFFFFFFFFFFFFFFFFFFFFFFFFFFFFFFFFFFFFFF AND DUP4 PUSH20 0xFFFFFFFFFFFFFFFFFFFFFFFFFFFFFFFFFFFFFFFF AND SUB PUSH2 0x965 JUMPI PUSH1 0x40 MLOAD PUSH32 0x8C379A000000000000000000000000000000000000000000000000000000000 DUP2 MSTORE PUSH1 0x4 ADD PUSH2 0x95C SWAP1 PUSH2 0x11A6 JUMP JUMPDEST PUSH1 0x40 MLOAD DUP1 SWAP2 SUB SWAP1 REVERT JUMPDEST PUSH1 0x0 PUSH20 0xFFFFFFFFFFFFFFFFFFFFFFFFFFFFFFFFFFFFFFFF AND DUP3 PUSH20 0xFFFFFFFFFFFFFFFFFFFFFFFFFFFFFFFFFFFFFFFF AND SUB PUSH2 0x9D4 JUMPI PUSH1 0x40 MLOAD PUSH32 0x8C379A000000000000000000000000000000000000000000000000000000000 DUP2 MSTORE PUSH1 0x4 ADD PUSH2 0x9CB SWAP1 PUSH2 0x1238 JUMP JUMPDEST PUSH1 0x40 MLOAD DUP1 SWAP2 SUB SWAP1 REVERT JUMPDEST DUP1 PUSH1 0x1 PUSH1 0x0 DUP6 PUSH20 0xFFFFFFFFFFFFFFFFFFFFFFFFFFFFFFFFFFFFFFFF AND PUSH20 0xFFFFFFFFFFFFFFFFFFFFFFFFFFFFFFFFFFFFFFFF AND DUP2 MSTORE PUSH1 0x20 ADD SWAP1 DUP2 MSTORE PUSH1 0x20 ADD PUSH1 0x0 KECCAK256 PUSH1 0x0 DUP5 PUSH20 0xFFFFFFFFFFFFFFFFFFFFFFFFFFFFFFFFFFFFFFFF AND PUSH20 0xFFFFFFFFFFFFFFFFFFFFFFFFFFFFFFFFFFFFFFFF AND DUP2 MSTORE PUSH1 0x20 ADD SWAP1 DUP2 MSTORE PUSH1 0x20 ADD PUSH1 0x0 KECCAK256 DUP2 SWAP1 SSTORE POP DUP2 PUSH20 0xFFFFFFFFFFFFFFFFFFFFFFFFFFFFFFFFFFFFFFFF AND DUP4 PUSH20 0xFFFFFFFFFFFFFFFFFFFFFFFFFFFFFFFFFFFFFFFF AND PUSH32 0x8C5BE1E5EBEC7D5BD14F71427D1E84F3DD0314C0F7B2291E5B200AC8C7C3B925 DUP4 PUSH1 0x40 MLOAD PUSH2 0xAB2 SWAP2 SWAP1 PUSH2 0xD2C JUMP JUMPDEST PUSH1 0x40 MLOAD DUP1 SWAP2 SUB SWAP1 LOG3 POP POP POP JUMP JUMPDEST PUSH1 0x0 PUSH2 0xACB DUP5 DUP5 PUSH2 0x86F JUMP JUMPDEST SWAP1 POP PUSH32 0xFFFFFFFFFFFFFFFFFFFFFFFFFFFFFFFFFFFFFFFFFFFFFFFFFFFFFFFFFFFFFFFF DUP2 EQ PUSH2 0xB43 JUMPI DUP2 DUP2 LT ISZERO PUSH2 0xB37 JUMPI PUSH1 0x40 MLOAD PUSH32 0x8C379A000000000000000000000000000000000000000000000000000000000 DUP2 MSTORE PUSH1 0x4 ADD PUSH2 0xB2E SWAP1 PUSH2 0x12A4 JUMP JUMPDEST PUSH1 0x40 MLOAD DUP1 SWAP2 SUB SWAP1 REVERT JUMPDEST PUSH2 0xB42 DUP5 DUP5 DUP5 PUSH2 0x8F6 JUMP JUMPDEST JUMPDEST POP POP POP POP JUMP JUMPDEST POP POP POP JUMP JUMPDEST POP POP POP JUMP JUMPDEST PUSH1 0x0 DUP2 MLOAD SWAP1 POP SWAP2 SWAP1 POP JUMP JUMPDEST PUSH1 0x0 DUP3 DUP3 MSTORE PUSH1 0x20 DUP3 ADD SWAP1 POP SWAP3 SWAP2 POP POP JUMP JUMPDEST PUSH1 0x0 JUMPDEST DUP4 DUP2 LT ISZERO PUSH2 0xB8D JUMPI DUP1 DUP3 ADD MLOAD DUP2 DUP5 ADD MSTORE PUSH1 0x20 DUP2 ADD SWAP1 POP PUSH2 0xB72 JUMP JUMPDEST DUP4 DUP2 GT ISZERO PUSH2 0xB9C JUMPI PUSH1 0x0 DUP5 DUP5 ADD MSTORE JUMPDEST POP POP POP POP JUMP JUMPDEST PUSH1 0x0 PUSH1 0x1F NOT PUSH1 0x1F DUP4 ADD AND SWAP1 POP SWAP2 SWAP1 POP JUMP JUMPDEST PUSH1 0x0 PUSH2 0xBBE DUP3 PUSH2 0xB53 JUMP JUMPDEST PUSH2 0xBC8 DUP2 DUP6 PUSH2 0xB5E JUMP JUMPDEST SWAP4 POP PUSH2 0xBD8 DUP2 DUP6 PUSH1 0x20 DUP7 ADD PUSH2 0xB6F JUMP JUMPDEST PUSH2 0xBE1 DUP2 PUSH2 0xBA2 JUMP JUMPDEST DUP5 ADD SWAP2 POP POP SWAP3 SWAP2 POP POP JUMP JUMPDEST PUSH1 0x0 PUSH1 0x20 DUP3 ADD SWAP1 POP DUP2 DUP2 SUB PUSH1 0x0 DUP4 ADD MSTORE PUSH2 0xC06 DUP2 DUP5 PUSH2 0xBB3 JUMP JUMPDEST SWAP1 POP SWAP3 SWAP2 POP POP JUMP JUMPDEST PUSH1 0x0 DUP1 REVERT JUMPDEST PUSH1 0x0 PUSH20 0xFFFFFFFFFFFFFFFFFFFFFFFFFFFFFFFFFFFFFFFF DUP3 AND SWAP1 POP SWAP2 SWAP1 POP JUMP JUMPDEST PUSH1 0x0 PUSH2 0xC3E DUP3 PUSH2 0xC13 JUMP JUMPDEST SWAP1 POP SWAP2 SWAP1 POP JUMP JUMPDEST PUSH2 0xC4E DUP2 PUSH2 0xC33 JUMP JUMPDEST DUP2 EQ PUSH2 0xC59 JUMPI PUSH1 0x0 DUP1 REVERT JUMPDEST POP JUMP JUMPDEST PUSH1 0x0 DUP2 CALLDATALOAD SWAP1 POP PUSH2 0xC6B DUP2 PUSH2 0xC45 JUMP JUMPDEST SWAP3 SWAP2 POP POP JUMP JUMPDEST PUSH1 0x0 DUP2 SWAP1 POP SWAP2 SWAP1 POP JUMP JUMPDEST PUSH2 0xC84 DUP2 PUSH2 0xC71 JUMP JUMPDEST DUP2 EQ PUSH2 0xC8F JUMPI PUSH1 0x0 DUP1 REVERT JUMPDEST POP JUMP JUMPDEST PUSH1 0x0 DUP2 CALLDATALOAD SWAP1 POP PUSH2 0xCA1 DUP2 PUSH2 0xC7B JUMP JUMPDEST SWAP3 SWAP2 POP POP JUMP JUMPDEST PUSH1 0x0 DUP1 PUSH1 0x40 DUP4 DUP6 SUB SLT ISZERO PUSH2 0xCBE JUMPI PUSH2 0xCBD PUSH2 0xC0E JUMP JUMPDEST JUMPDEST PUSH1 0x0 PUSH2 0xCCC DUP6 DUP3 DUP7 ADD PUSH2 0xC5C JUMP JUMPDEST SWAP3 POP POP PUSH1 0x20 PUSH2 0xCDD DUP6 DUP3 DUP7 ADD PUSH2 0xC92 JUMP JUMPDEST SWAP2 POP POP SWAP3 POP SWAP3 SWAP1 POP JUMP JUMPDEST PUSH1 0x0 DUP2 ISZERO ISZERO SWAP1 POP SWAP2 SWAP1 POP JUMP JUMPDEST PUSH2 0xCFC DUP2 PUSH2 0xCE7 JUMP JUMPDEST DUP3 MSTORE POP POP JUMP JUMPDEST PUSH1 0x0 PUSH1 0x20 DUP3 ADD SWAP1 POP PUSH2 0xD17 PUSH1 0x0 DUP4 ADD DUP5 PUSH2 0xCF3 JUMP JUMPDEST SWAP3 SWAP2 POP POP JUMP JUMPDEST PUSH2 0xD26 DUP2 PUSH2 0xC71 JUMP JUMPDEST DUP3 MSTORE POP POP JUMP JUMPDEST PUSH1 0x0 PUSH1 0x20 DUP3 ADD SWAP1 POP PUSH2 0xD41 PUSH1 0x0 DUP4 ADD DUP5 PUSH2 0xD1D JUMP JUMPDEST SWAP3 SWAP2 POP POP JUMP JUMPDEST PUSH1 0x0 DUP1 PUSH1 0x0 PUSH1 0x60 DUP5 DUP7 SUB SLT ISZERO PUSH2 0xD60 JUMPI PUSH2 0xD5F PUSH2 0xC0E JUMP JUMPDEST JUMPDEST PUSH1 0x0 PUSH2 0xD6E DUP7 DUP3 DUP8 ADD PUSH2 0xC5C JUMP JUMPDEST SWAP4 POP POP PUSH1 0x20 PUSH2 0xD7F DUP7 DUP3 DUP8 ADD PUSH2 0xC5C JUMP JUMPDEST SWAP3 POP POP PUSH1 0x40 PUSH2 0xD90 DUP7 DUP3 DUP8 ADD PUSH2 0xC92 JUMP JUMPDEST SWAP2 POP POP SWAP3 POP SWAP3 POP SWAP3 JUMP JUMPDEST PUSH1 0x0 PUSH1 0x20 DUP3 DUP5 SUB SLT ISZERO PUSH2 0xDB0 JUMPI PUSH2 0xDAF PUSH2 0xC0E JUMP JUMPDEST JUMPDEST PUSH1 0x0 PUSH2 0xDBE DUP5 DUP3 DUP6 ADD PUSH2 0xC5C JUMP JUMPDEST SWAP2 POP POP SWAP3 SWAP2 POP POP JUMP JUMPDEST PUSH1 0x0 DUP1 PUSH1 0x40 DUP4 DUP6 SUB SLT ISZERO PUSH2 0xDDE JUMPI PUSH2 0xDDD PUSH2 0xC0E JUMP JUMPDEST JUMPDEST PUSH1 0x0 PUSH2 0xDEC DUP6 DUP3 DUP7 ADD PUSH2 0xC5C JUMP JUMPDEST SWAP3 POP POP PUSH1 0x20 PUSH2 0xDFD DUP6 DUP3 DUP7 ADD PUSH2 0xC5C JUMP JUMPDEST SWAP2 POP POP SWAP3 POP SWAP3 SWAP1 POP JUMP JUMPDEST PUSH32 0x4E487B7100000000000000000000000000000000000000000000000000000000 PUSH1 0x0 MSTORE PUSH1 0x22 PUSH1 0x4 MSTORE PUSH1 0x24 PUSH1 0x0 REVERT JUMPDEST PUSH1 0x0 PUSH1 0x2 DUP3 DIV SWAP1 POP PUSH1 0x1 DUP3 AND DUP1 PUSH2 0xE4E JUMPI PUSH1 0x7F DUP3 AND SWAP2 POP JUMPDEST PUSH1 0x20 DUP3 LT DUP2 SUB PUSH2 0xE61 JUMPI PUSH2 0xE60 PUSH2 0xE07 JUMP JUMPDEST JUMPDEST POP SWAP2 SWAP1 POP JUMP JUMPDEST PUSH32 0x45524332303A207472616E736665722066726F6D20746865207A65726F206164 PUSH1 0x0 DUP3 ADD MSTORE PUSH32 0x6472657373000000000000000000000000000000000000000000000000000000 PUSH1 0x20 DUP3 ADD MSTORE POP JUMP JUMPDEST PUSH1 0x0 PUSH2 0xEC3 PUSH1 0x25 DUP4 PUSH2 0xB5E JUMP JUMPDEST SWAP2 POP PUSH2 0xECE DUP3 PUSH2 0xE67 JUMP JUMPDEST PUSH1 0x40 DUP3 ADD SWAP1 POP SWAP2 SWAP1 POP JUMP JUMPDEST PUSH1 0x0 PUSH1 0x20 DUP3 ADD SWAP1 POP DUP2 DUP2 SUB PUSH1 0x0 DUP4 ADD MSTORE PUSH2 0xEF2 DUP2 PUSH2 0xEB6 JUMP JUMPDEST SWAP1 POP SWAP2 SWAP1 POP JUMP JUMPDEST PUSH32 0x45524332303A207472616E7366657220746F20746865207A65726F2061646472 PUSH1 0x0 DUP3 ADD MSTORE PUSH32 0x6573730000000000000000000000000000000000000000000000000000000000 PUSH1 0x20 DUP3 ADD MSTORE POP JUMP JUMPDEST PUSH1 0x0 PUSH2 0xF55 PUSH1 0x23 DUP4 PUSH2 0xB5E JUMP JUMPDEST SWAP2 POP PUSH2 0xF60 DUP3 PUSH2 0xEF9 JUMP JUMPDEST PUSH1 0x40 DUP3 ADD SWAP1 POP SWAP2 SWAP1 POP JUMP JUMPDEST PUSH1 0x0 PUSH1 0x20 DUP3 ADD SWAP1 POP DUP2 DUP2 SUB PUSH1 0x0 DUP4 ADD MSTORE PUSH2 0xF84 DUP2 PUSH2 0xF48 JUMP JUMPDEST SWAP1 POP SWAP2 SWAP1 POP JUMP JUMPDEST PUSH32 0x45524332303A207472616E7366657220616D6F756E7420657863656564732062 PUSH1 0x0 DUP3 ADD MSTORE PUSH32 0x616C616E63650000000000000000000000000000000000000000000000000000 PUSH1 0x20 DUP3 ADD MSTORE POP JUMP JUMPDEST PUSH1 0x0 PUSH2 0xFE7 PUSH1 0x26 DUP4 PUSH2 0xB5E JUMP JUMPDEST SWAP2 POP PUSH2 0xFF2 DUP3 PUSH2 0xF8B JUMP JUMPDEST PUSH1 0x40 DUP3 ADD SWAP1 POP SWAP2 SWAP1 POP JUMP JUMPDEST PUSH1 0x0 PUSH1 0x20 DUP3 ADD SWAP1 POP DUP2 DUP2 SUB PUSH1 0x0 DUP4 ADD MSTORE PUSH2 0x1016 DUP2 PUSH2 0xFDA JUMP JUMPDEST SWAP1 POP SWAP2 SWAP1 POP JUMP JUMPDEST PUSH32 0x4E487B7100000000000000000000000000000000000000000000000000000000 PUSH1 0x0 MSTORE PUSH1 0x11 PUSH1 0x4 MSTORE PUSH1 0x24 PUSH1 0x0 REVERT JUMPDEST PUSH1 0x0 PUSH2 0x1057 DUP3 PUSH2 0xC71 JUMP JUMPDEST SWAP2 POP PUSH2 0x1062 DUP4 PUSH2 0xC71 JUMP JUMPDEST SWAP3 POP DUP3 PUSH32 0xFFFFFFFFFFFFFFFFFFFFFFFFFFFFFFFFFFFFFFFFFFFFFFFFFFFFFFFFFFFFFFFF SUB DUP3 GT ISZERO PUSH2 0x1097 JUMPI PUSH2 0x1096 PUSH2 0x101D JUMP JUMPDEST JUMPDEST DUP3 DUP3 ADD SWAP1 POP SWAP3 SWAP2 POP POP JUMP JUMPDEST PUSH32 0x45524332303A2064656372656173656420616C6C6F77616E6365202062656C6F PUSH1 0x0 DUP3 ADD MSTORE PUSH32 0x77207A65726F0000000000000000000000000000000000000000000000000000 PUSH1 0x20 DUP3 ADD MSTORE POP JUMP JUMPDEST PUSH1 0x0 PUSH2 0x10FE PUSH1 0x26 DUP4 PUSH2 0xB5E JUMP JUMPDEST SWAP2 POP PUSH2 0x1109 DUP3 PUSH2 0x10A2 JUMP JUMPDEST PUSH1 0x40 DUP3 ADD SWAP1 POP SWAP2 SWAP1 POP JUMP JUMPDEST PUSH1 0x0 PUSH1 0x20 DUP3 ADD SWAP1 POP DUP2 DUP2 SUB PUSH1 0x0 DUP4 ADD MSTORE PUSH2 0x112D DUP2 PUSH2 0x10F1 JUMP JUMPDEST SWAP1 POP SWAP2 SWAP1 POP JUMP JUMPDEST PUSH32 0x45524332303A20617070726F76652066726F6D20746865207A65726F20616464 PUSH1 0x0 DUP3 ADD MSTORE PUSH32 0x7265737300000000000000000000000000000000000000000000000000000000 PUSH1 0x20 DUP3 ADD MSTORE POP JUMP JUMPDEST PUSH1 0x0 PUSH2 0x1190 PUSH1 0x24 DUP4 PUSH2 0xB5E JUMP JUMPDEST SWAP2 POP PUSH2 0x119B DUP3 PUSH2 0x1134 JUMP JUMPDEST PUSH1 0x40 DUP3 ADD SWAP1 POP SWAP2 SWAP1 POP JUMP JUMPDEST PUSH1 0x0 PUSH1 0x20 DUP3 ADD SWAP1 POP DUP2 DUP2 SUB PUSH1 0x0 DUP4 ADD MSTORE PUSH2 0x11BF DUP2 PUSH2 0x1183 JUMP JUMPDEST SWAP1 POP SWAP2 SWAP1 POP JUMP JUMPDEST PUSH32 0x45524332303A20617070726F766520746F20746865207A65726F206164647265 PUSH1 0x0 DUP3 ADD MSTORE PUSH32 0x7373000000000000000000000000000000000000000000000000000000000000 PUSH1 0x20 DUP3 ADD MSTORE POP JUMP JUMPDEST PUSH1 0x0 PUSH2 0x1222 PUSH1 0x22 DUP4 PUSH2 0xB5E JUMP JUMPDEST SWAP2 POP PUSH2 0x122D DUP3 PUSH2 0x11C6 JUMP JUMPDEST PUSH1 0x40 DUP3 ADD SWAP1 POP SWAP2 SWAP1 POP JUMP JUMPDEST PUSH1 0x0 PUSH1 0x20 DUP3 ADD SWAP1 POP DUP2 DUP2 SUB PUSH1 0x0 DUP4 ADD MSTORE PUSH2 0x1251 DUP2 PUSH2 0x1215 JUMP JUMPDEST SWAP1 POP SWAP2 SWAP1 POP JUMP JUMPDEST PUSH32 0x45524332303A20696E737566666963656E7420616C6C6F77616E636500000000 PUSH1 0x0 DUP3 ADD MSTORE POP JUMP JUMPDEST PUSH1 0x0 PUSH2 0x128E PUSH1 0x1C DUP4 PUSH2 0xB5E JUMP JUMPDEST SWAP2 POP PUSH2 0x1299 DUP3 PUSH2 0x1258 JUMP JUMPDEST PUSH1 0x20 DUP3 ADD SWAP1 POP SWAP2 SWAP1 POP JUMP JUMPDEST PUSH1 0x0 PUSH1 0x20 DUP3 ADD SWAP1 POP DUP2 DUP2 SUB PUSH1 0x0 DUP4 ADD MSTORE PUSH2 0x12BD DUP2 PUSH2 0x1281 JUMP JUMPDEST SWAP1 POP SWAP2 SWAP1 POP JUMP INVALID LOG2 PUSH5 0x6970667358 0x22 SLT KECCAK256 0xEC SWAP8 0xCE 0xCD SWAP5 0x27 POP LOG3 XOR 0xF9 0xBE CALLER SWAP3 EXTCODEHASH SWAP7 0xC9 POP GAS 0xE7 SHL PUSH26 0x3B1CEDC47E40CDCD93B65364736F6C634300080F003300000000 "
				},
				"gasEstimates": {
					"creation": {
						"codeDepositCost": "971600",
						"executionCost": "infinite",
						"totalCost": "infinite"
					},
					"external": {
						"_transfer(address,address,uint256)": "infinite",
						"allowance(address,address)": "infinite",
						"approve(address,uint256)": "infinite",
						"balanceOf(address)": "2863",
						"deceaseAllowance(address,uint256)": "infinite",
						"decimals()": "448",
						"increaseAllowance(address,uint256)": "infinite",
						"name()": "infinite",
						"symbol()": "infinite",
						"totalSupply()": "2482",
						"transfer(address,uint256)": "infinite",
						"transferFrom(address,address,uint256)": "infinite"
					}
				},
				"methodIdentifiers": {
					"_transfer(address,address,uint256)": "30e0789e",
					"allowance(address,address)": "dd62ed3e",
					"approve(address,uint256)": "095ea7b3",
					"balanceOf(address)": "70a08231",
					"deceaseAllowance(address,uint256)": "89bd36f4",
					"decimals()": "313ce567",
					"increaseAllowance(address,uint256)": "39509351",
					"name()": "06fdde03",
					"symbol()": "95d89b41",
					"totalSupply()": "18160ddd",
					"transfer(address,uint256)": "a9059cbb",
					"transferFrom(address,address,uint256)": "23b872dd"
				}
			},
			"storageLayout": {
				"storage": [
					{
						"astId": 88,
						"contract": "ERC-20/customERC20.sol:customERC20",
						"label": "_balance",
						"offset": 0,
						"slot": "0",
						"type": "t_mapping(t_address,t_uint256)"
					},
					{
						"astId": 94,
						"contract": "ERC-20/customERC20.sol:customERC20",
						"label": "_allowances",
						"offset": 0,
						"slot": "1",
						"type": "t_mapping(t_address,t_mapping(t_address,t_uint256))"
					},
					{
						"astId": 96,
						"contract": "ERC-20/customERC20.sol:customERC20",
						"label": "_totalSupply",
						"offset": 0,
						"slot": "2",
						"type": "t_uint256"
					},
					{
						"astId": 98,
						"contract": "ERC-20/customERC20.sol:customERC20",
						"label": "_name",
						"offset": 0,
						"slot": "3",
						"type": "t_string_storage"
					},
					{
						"astId": 100,
						"contract": "ERC-20/customERC20.sol:customERC20",
						"label": "_symbol",
						"offset": 0,
						"slot": "4",
						"type": "t_string_storage"
					}
				],
				"types": {
					"t_address": {
						"encoding": "inplace",
						"label": "address",
						"numberOfBytes": "20"
					},
					"t_mapping(t_address,t_mapping(t_address,t_uint256))": {
						"encoding": "mapping",
						"key": "t_address",
						"label": "mapping(address => mapping(address => uint256))",
						"numberOfBytes": "32",
						"value": "t_mapping(t_address,t_uint256)"
					},
					"t_mapping(t_address,t_uint256)": {
						"encoding": "mapping",
						"key": "t_address",
						"label": "mapping(address => uint256)",
						"numberOfBytes": "32",
						"value": "t_uint256"
					},
					"t_string_storage": {
						"encoding": "bytes",
						"label": "string",
						"numberOfBytes": "32"
					},
					"t_uint256": {
						"encoding": "inplace",
						"label": "uint256",
						"numberOfBytes": "32"
					}
				}
			},
			"userdoc": {
				"kind": "user",
				"methods": {},
				"version": 1
			}
		}
	}
}