{
	"Contracts/tiposVariable.sol": {
		"Variables_modifiers": {
			"abi": [
				{
					"inputs": [],
					"name": "_true",
					"outputs": [
						{
							"internalType": "bool",
							"name": "",
							"type": "bool"
						}
					],
					"stateMutability": "view",
					"type": "function"
				},
				{
					"inputs": [],
					"name": "address_1",
					"outputs": [
						{
							"internalType": "address",
							"name": "",
							"type": "address"
						}
					],
					"stateMutability": "view",
					"type": "function"
				},
				{
					"inputs": [],
					"name": "address_2",
					"outputs": [
						{
							"internalType": "address",
							"name": "",
							"type": "address"
						}
					],
					"stateMutability": "view",
					"type": "function"
				},
				{
					"inputs": [],
					"name": "b",
					"outputs": [
						{
							"internalType": "uint8",
							"name": "",
							"type": "uint8"
						}
					],
					"stateMutability": "view",
					"type": "function"
				},
				{
					"inputs": [],
					"name": "displayState",
					"outputs": [
						{
							"internalType": "enum Variables_modifiers.options",
							"name": "",
							"type": "uint8"
						}
					],
					"stateMutability": "view",
					"type": "function"
				},
				{
					"inputs": [],
					"name": "hashing_keccak256",
					"outputs": [
						{
							"internalType": "bytes32",
							"name": "",
							"type": "bytes32"
						}
					],
					"stateMutability": "view",
					"type": "function"
				},
				{
					"inputs": [],
					"name": "hashing_ripemd160",
					"outputs": [
						{
							"internalType": "bytes20",
							"name": "",
							"type": "bytes20"
						}
					],
					"stateMutability": "view",
					"type": "function"
				},
				{
					"inputs": [],
					"name": "hashing_sha256",
					"outputs": [
						{
							"internalType": "bytes32",
							"name": "",
							"type": "bytes32"
						}
					],
					"stateMutability": "view",
					"type": "function"
				},
				{
					"inputs": [],
					"name": "str",
					"outputs": [
						{
							"internalType": "string",
							"name": "",
							"type": "string"
						}
					],
					"stateMutability": "view",
					"type": "function"
				},
				{
					"inputs": [],
					"name": "trueOFF",
					"outputs": [],
					"stateMutability": "nonpayable",
					"type": "function"
				},
				{
					"inputs": [],
					"name": "trueOn",
					"outputs": [],
					"stateMutability": "nonpayable",
					"type": "function"
				}
			],
			"devdoc": {
				"kind": "dev",
				"methods": {},
				"version": 1
			},
			"evm": {
				"assembly": "    /* \"Contracts/tiposVariable.sol\":83:1391  contract Variables_modifiers {\r... */\n  mstore(0x40, 0x80)\n    /* \"Contracts/tiposVariable.sol\":246:247  4 */\n  0x04\n    /* \"Contracts/tiposVariable.sol\":229:247  uint8 public b = 4 */\n  0x00\n  exp(0x0100, 0x01)\n  dup2\n  sload\n  dup2\n  0xff\n  mul\n  not\n  and\n  swap1\n  dup4\n  0xff\n  and\n  mul\n  or\n  swap1\n  sstore\n  pop\n    /* \"Contracts/tiposVariable.sol\":313:315  -1 */\n  0xffffffffffffffffffffffffffffffffffffffffffffffffffffffffffffffff\n    /* \"Contracts/tiposVariable.sol\":304:315  int8 d = -1 */\n  0x02\n  exp(0x0100, 0x00)\n  dup2\n  sload\n  dup2\n  0xff\n  mul\n  not\n  and\n  swap1\n  dup4\n  0x00\n  signextend\n  0xff\n  and\n  mul\n  or\n  swap1\n  sstore\n  pop\n    /* \"Contracts/tiposVariable.sol\":330:332  52 */\n  0x34\n    /* \"Contracts/tiposVariable.sol\":322:332  int e = 52 */\n  0x03\n  sstore\n    /* \"Contracts/tiposVariable.sol\":356:393  string public str = \"esto es publico\" */\n  mload(0x40)\n  dup1\n  0x40\n  add\n  0x40\n  mstore\n  dup1\n  0x0f\n  dup2\n  mstore\n  0x20\n  add\n  0x6573746f206573207075626c69636f0000000000000000000000000000000000\n  dup2\n  mstore\n  pop\n  0x04\n  swap1\n  dup1\n  mload\n  swap1\n  0x20\n  add\n  swap1\n  tag_1\n  swap3\n  swap2\n  swap1\n  tag_2\n  jump\t// in\ntag_1:\n  pop\n    /* \"Contracts/tiposVariable.sol\":400:439  string private str1 = \"esto es privado\" */\n  mload(0x40)\n  dup1\n  0x40\n  add\n  0x40\n  mstore\n  dup1\n  0x0f\n  dup2\n  mstore\n  0x20\n  add\n  0x6573746f206573207072697661646f0000000000000000000000000000000000\n  dup2\n  mstore\n  pop\n  0x05\n  swap1\n  dup1\n  mload\n  swap1\n  0x20\n  add\n  swap1\n  tag_3\n  swap3\n  swap2\n  swap1\n  tag_2\n  jump\t// in\ntag_3:\n  pop\n    /* \"Contracts/tiposVariable.sol\":484:488  true */\n  0x01\n    /* \"Contracts/tiposVariable.sol\":464:488  bool public _true = true */\n  0x06\n  exp(0x0100, 0x00)\n  dup2\n  sload\n  dup2\n  0xff\n  mul\n  not\n  and\n  swap1\n  dup4\n  iszero\n  iszero\n  mul\n  or\n  swap1\n  sstore\n  pop\n    /* \"Contracts/tiposVariable.sol\":517:522  false */\n  0x00\n    /* \"Contracts/tiposVariable.sol\":495:522  bool private _false = false */\n  0x06\n  exp(0x0100, 0x01)\n  dup2\n  sload\n  dup2\n  0xff\n  mul\n  not\n  and\n  swap1\n  dup4\n  iszero\n  iszero\n  mul\n  or\n  swap1\n  sstore\n  pop\n    /* \"Contracts/tiposVariable.sol\":678:679  1 */\n  0x01\n    /* \"Contracts/tiposVariable.sol\":640:681  abi.encodePacked(\"hello\", \"lia\", uint(1)) */\n  add(0x20, mload(0x40))\n  tag_4\n  swap2\n  swap1\n  tag_5\n  jump\t// in\ntag_4:\n  mload(0x40)\n  0x20\n  dup2\n  dup4\n  sub\n  sub\n  dup2\n  mstore\n  swap1\n  0x40\n  mstore\n    /* \"Contracts/tiposVariable.sol\":630:682  keccak256(abi.encodePacked(\"hello\", \"lia\", uint(1))) */\n  dup1\n  mload\n  swap1\n  0x20\n  add\n  keccak256\n    /* \"Contracts/tiposVariable.sol\":595:682  bytes32 public hashing_keccak256 = keccak256(abi.encodePacked(\"hello\", \"lia\", uint(1))) */\n  0x08\n  sstore\n    /* \"Contracts/tiposVariable.sol\":721:761  sha256(abi.encodePacked(\"hello\", \"lia\")) */\n  0x02\n    /* \"Contracts/tiposVariable.sol\":728:760  abi.encodePacked(\"hello\", \"lia\") */\n  add(0x20, mload(0x40))\n  tag_6\n  swap1\n  tag_7\n  jump\t// in\ntag_6:\n  mload(0x40)\n  0x20\n  dup2\n  dup4\n  sub\n  sub\n  dup2\n  mstore\n  swap1\n  0x40\n  mstore\n    /* \"Contracts/tiposVariable.sol\":721:761  sha256(abi.encodePacked(\"hello\", \"lia\")) */\n  mload(0x40)\n  tag_8\n  swap2\n  swap1\n  tag_9\n  jump\t// in\ntag_8:\n  0x20\n  mload(0x40)\n  dup1\n  dup4\n  sub\n  dup2\n  dup6\n  gas\n  staticcall\n  iszero\n  dup1\n  iszero\n  tag_11\n  jumpi\n  returndatasize\n  0x00\n  dup1\n  returndatacopy\n  revert(0x00, returndatasize)\ntag_11:\n  pop\n  pop\n  pop\n  mload(0x40)\n  returndatasize\n  not(0x1f)\n  0x1f\n  dup3\n  add\n  and\n  dup3\n  add\n  dup1\n  0x40\n  mstore\n  pop\n  dup2\n  add\n  swap1\n  tag_12\n  swap2\n  swap1\n  tag_13\n  jump\t// in\ntag_12:\n    /* \"Contracts/tiposVariable.sol\":689:761  bytes32 public hashing_sha256 = sha256(abi.encodePacked(\"hello\", \"lia\")) */\n  0x09\n  sstore\n    /* \"Contracts/tiposVariable.sol\":803:846  ripemd160(abi.encodePacked(\"hello\", \"lia\")) */\n  0x03\n    /* \"Contracts/tiposVariable.sol\":813:845  abi.encodePacked(\"hello\", \"lia\") */\n  add(0x20, mload(0x40))\n  tag_14\n  swap1\n  tag_7\n  jump\t// in\ntag_14:\n  mload(0x40)\n  0x20\n  dup2\n  dup4\n  sub\n  sub\n  dup2\n  mstore\n  swap1\n  0x40\n  mstore\n    /* \"Contracts/tiposVariable.sol\":803:846  ripemd160(abi.encodePacked(\"hello\", \"lia\")) */\n  mload(0x40)\n  tag_15\n  swap2\n  swap1\n  tag_9\n  jump\t// in\ntag_15:\n  0x20\n  mload(0x40)\n  dup1\n  dup4\n  sub\n  dup2\n  dup6\n  gas\n  staticcall\n  iszero\n  dup1\n  iszero\n  tag_17\n  jumpi\n  returndatasize\n  0x00\n  dup1\n  returndatacopy\n  revert(0x00, returndatasize)\ntag_17:\n  pop\n  pop\n  pop\n  shl(0x60, mload(mload(0x40)))\n    /* \"Contracts/tiposVariable.sol\":768:846  bytes20 public hashing_ripemd160 = ripemd160(abi.encodePacked(\"hello\", \"lia\")) */\n  0x0a\n  exp(0x0100, 0x00)\n  dup2\n  sload\n  dup2\n  0xffffffffffffffffffffffffffffffffffffffff\n  mul\n  not\n  and\n  swap1\n  dup4\n  0x60\n  shr\n  mul\n  or\n  swap1\n  sstore\n  pop\n    /* \"Contracts/tiposVariable.sol\":932:974  0x5B38Da6a701c568545dCfcB03FcB875f56beddC4 */\n  0x5b38da6a701c568545dcfcb03fcb875f56beddc4\n    /* \"Contracts/tiposVariable.sol\":904:974  address public  address_1 = 0x5B38Da6a701c568545dCfcB03FcB875f56beddC4 */\n  0x0c\n  exp(0x0100, 0x00)\n  dup2\n  sload\n  dup2\n  0xffffffffffffffffffffffffffffffffffffffff\n  mul\n  not\n  and\n  swap1\n  dup4\n  0xffffffffffffffffffffffffffffffffffffffff\n  and\n  mul\n  or\n  swap1\n  sstore\n  pop\n    /* \"Contracts/tiposVariable.sol\":1008:1018  msg.sender */\n  caller\n    /* \"Contracts/tiposVariable.sol\":981:1018  address public address_2 = msg.sender */\n  0x0d\n  exp(0x0100, 0x00)\n  dup2\n  sload\n  dup2\n  0xffffffffffffffffffffffffffffffffffffffff\n  mul\n  not\n  and\n  swap1\n  dup4\n  0xffffffffffffffffffffffffffffffffffffffff\n  and\n  mul\n  or\n  swap1\n  sstore\n  pop\n    /* \"Contracts/tiposVariable.sol\":83:1391  contract Variables_modifiers {\r... */\n  callvalue\n  dup1\n  iszero\n  tag_18\n  jumpi\n  0x00\n  dup1\n  revert\ntag_18:\n  pop\n  jump(tag_19)\ntag_2:\n  dup3\n  dup1\n  sload\n  tag_20\n  swap1\n  tag_21\n  jump\t// in\ntag_20:\n  swap1\n  0x00\n  mstore\n  keccak256(0x00, 0x20)\n  swap1\n  0x1f\n  add\n  0x20\n  swap1\n  div\n  dup2\n  add\n  swap3\n  dup3\n  tag_23\n  jumpi\n  0x00\n  dup6\n  sstore\n  jump(tag_22)\ntag_23:\n  dup3\n  0x1f\n  lt\n  tag_24\n  jumpi\n  dup1\n  mload\n  not(0xff)\n  and\n  dup4\n  dup1\n  add\n  or\n  dup6\n  sstore\n  jump(tag_22)\ntag_24:\n  dup3\n  dup1\n  add\n  0x01\n  add\n  dup6\n  sstore\n  dup3\n  iszero\n  tag_22\n  jumpi\n  swap2\n  dup3\n  add\ntag_25:\n  dup3\n  dup2\n  gt\n  iszero\n  tag_26\n  jumpi\n  dup3\n  mload\n  dup3\n  sstore\n  swap2\n  0x20\n  add\n  swap2\n  swap1\n  0x01\n  add\n  swap1\n  jump(tag_25)\ntag_26:\ntag_22:\n  pop\n  swap1\n  pop\n  tag_27\n  swap2\n  swap1\n  tag_28\n  jump\t// in\ntag_27:\n  pop\n  swap1\n  jump\t// out\ntag_28:\ntag_29:\n  dup1\n  dup3\n  gt\n  iszero\n  tag_30\n  jumpi\n  0x00\n  dup2\n  0x00\n  swap1\n  sstore\n  pop\n  0x01\n  add\n  jump(tag_29)\ntag_30:\n  pop\n  swap1\n  jump\t// out\n    /* \"#utility.yul\":7:150   */\ntag_32:\n    /* \"#utility.yul\":64:69   */\n  0x00\n    /* \"#utility.yul\":95:101   */\n  dup2\n    /* \"#utility.yul\":89:102   */\n  mload\n    /* \"#utility.yul\":80:102   */\n  swap1\n  pop\n    /* \"#utility.yul\":111:144   */\n  tag_34\n    /* \"#utility.yul\":138:143   */\n  dup2\n    /* \"#utility.yul\":111:144   */\n  tag_35\n  jump\t// in\ntag_34:\n    /* \"#utility.yul\":7:150   */\n  swap3\n  swap2\n  pop\n  pop\n  jump\t// out\n    /* \"#utility.yul\":156:507   */\ntag_13:\n    /* \"#utility.yul\":226:232   */\n  0x00\n    /* \"#utility.yul\":275:277   */\n  0x20\n    /* \"#utility.yul\":263:272   */\n  dup3\n    /* \"#utility.yul\":254:261   */\n  dup5\n    /* \"#utility.yul\":250:273   */\n  sub\n    /* \"#utility.yul\":246:278   */\n  slt\n    /* \"#utility.yul\":243:362   */\n  iszero\n  tag_37\n  jumpi\n    /* \"#utility.yul\":281:360   */\n  tag_38\n  tag_39\n  jump\t// in\ntag_38:\n    /* \"#utility.yul\":243:362   */\ntag_37:\n    /* \"#utility.yul\":401:402   */\n  0x00\n    /* \"#utility.yul\":426:490   */\n  tag_40\n    /* \"#utility.yul\":482:489   */\n  dup5\n    /* \"#utility.yul\":473:479   */\n  dup3\n    /* \"#utility.yul\":462:471   */\n  dup6\n    /* \"#utility.yul\":458:480   */\n  add\n    /* \"#utility.yul\":426:490   */\n  tag_32\n  jump\t// in\ntag_40:\n    /* \"#utility.yul\":416:490   */\n  swap2\n  pop\n    /* \"#utility.yul\":372:500   */\n  pop\n    /* \"#utility.yul\":156:507   */\n  swap3\n  swap2\n  pop\n  pop\n  jump\t// out\n    /* \"#utility.yul\":513:886   */\ntag_41:\n    /* \"#utility.yul\":617:620   */\n  0x00\n    /* \"#utility.yul\":645:683   */\n  tag_43\n    /* \"#utility.yul\":677:682   */\n  dup3\n    /* \"#utility.yul\":645:683   */\n  tag_44\n  jump\t// in\ntag_43:\n    /* \"#utility.yul\":699:787   */\n  tag_45\n    /* \"#utility.yul\":780:786   */\n  dup2\n    /* \"#utility.yul\":775:778   */\n  dup6\n    /* \"#utility.yul\":699:787   */\n  tag_46\n  jump\t// in\ntag_45:\n    /* \"#utility.yul\":692:787   */\n  swap4\n  pop\n    /* \"#utility.yul\":796:848   */\n  tag_47\n    /* \"#utility.yul\":841:847   */\n  dup2\n    /* \"#utility.yul\":836:839   */\n  dup6\n    /* \"#utility.yul\":829:833   */\n  0x20\n    /* \"#utility.yul\":822:827   */\n  dup7\n    /* \"#utility.yul\":818:834   */\n  add\n    /* \"#utility.yul\":796:848   */\n  tag_48\n  jump\t// in\ntag_47:\n    /* \"#utility.yul\":873:879   */\n  dup1\n    /* \"#utility.yul\":868:871   */\n  dup5\n    /* \"#utility.yul\":864:880   */\n  add\n    /* \"#utility.yul\":857:880   */\n  swap2\n  pop\n    /* \"#utility.yul\":621:886   */\n  pop\n    /* \"#utility.yul\":513:886   */\n  swap3\n  swap2\n  pop\n  pop\n  jump\t// out\n    /* \"#utility.yul\":892:1292   */\ntag_49:\n    /* \"#utility.yul\":1052:1055   */\n  0x00\n    /* \"#utility.yul\":1073:1157   */\n  tag_51\n    /* \"#utility.yul\":1155:1156   */\n  0x05\n    /* \"#utility.yul\":1150:1153   */\n  dup4\n    /* \"#utility.yul\":1073:1157   */\n  tag_52\n  jump\t// in\ntag_51:\n    /* \"#utility.yul\":1066:1157   */\n  swap2\n  pop\n    /* \"#utility.yul\":1166:1259   */\n  tag_53\n    /* \"#utility.yul\":1255:1258   */\n  dup3\n    /* \"#utility.yul\":1166:1259   */\n  tag_54\n  jump\t// in\ntag_53:\n    /* \"#utility.yul\":1284:1285   */\n  0x05\n    /* \"#utility.yul\":1279:1282   */\n  dup3\n    /* \"#utility.yul\":1275:1286   */\n  add\n    /* \"#utility.yul\":1268:1286   */\n  swap1\n  pop\n    /* \"#utility.yul\":892:1292   */\n  swap2\n  swap1\n  pop\n  jump\t// out\n    /* \"#utility.yul\":1298:1698   */\ntag_55:\n    /* \"#utility.yul\":1458:1461   */\n  0x00\n    /* \"#utility.yul\":1479:1563   */\n  tag_57\n    /* \"#utility.yul\":1561:1562   */\n  0x03\n    /* \"#utility.yul\":1556:1559   */\n  dup4\n    /* \"#utility.yul\":1479:1563   */\n  tag_52\n  jump\t// in\ntag_57:\n    /* \"#utility.yul\":1472:1563   */\n  swap2\n  pop\n    /* \"#utility.yul\":1572:1665   */\n  tag_58\n    /* \"#utility.yul\":1661:1664   */\n  dup3\n    /* \"#utility.yul\":1572:1665   */\n  tag_59\n  jump\t// in\ntag_58:\n    /* \"#utility.yul\":1690:1691   */\n  0x03\n    /* \"#utility.yul\":1685:1688   */\n  dup3\n    /* \"#utility.yul\":1681:1692   */\n  add\n    /* \"#utility.yul\":1674:1692   */\n  swap1\n  pop\n    /* \"#utility.yul\":1298:1698   */\n  swap2\n  swap1\n  pop\n  jump\t// out\n    /* \"#utility.yul\":1704:1861   */\ntag_60:\n    /* \"#utility.yul\":1809:1854   */\n  tag_62\n    /* \"#utility.yul\":1829:1853   */\n  tag_63\n    /* \"#utility.yul\":1847:1852   */\n  dup3\n    /* \"#utility.yul\":1829:1853   */\n  tag_64\n  jump\t// in\ntag_63:\n    /* \"#utility.yul\":1809:1854   */\n  tag_65\n  jump\t// in\ntag_62:\n    /* \"#utility.yul\":1804:1807   */\n  dup3\n    /* \"#utility.yul\":1797:1855   */\n  mstore\n    /* \"#utility.yul\":1704:1861   */\n  pop\n  pop\n  jump\t// out\n    /* \"#utility.yul\":1867:2138   */\ntag_9:\n    /* \"#utility.yul\":1997:2000   */\n  0x00\n    /* \"#utility.yul\":2019:2112   */\n  tag_67\n    /* \"#utility.yul\":2108:2111   */\n  dup3\n    /* \"#utility.yul\":2099:2105   */\n  dup5\n    /* \"#utility.yul\":2019:2112   */\n  tag_41\n  jump\t// in\ntag_67:\n    /* \"#utility.yul\":2012:2112   */\n  swap2\n  pop\n    /* \"#utility.yul\":2129:2132   */\n  dup2\n    /* \"#utility.yul\":2122:2132   */\n  swap1\n  pop\n    /* \"#utility.yul\":1867:2138   */\n  swap3\n  swap2\n  pop\n  pop\n  jump\t// out\n    /* \"#utility.yul\":2144:2791   */\ntag_7:\n    /* \"#utility.yul\":2430:2433   */\n  0x00\n    /* \"#utility.yul\":2452:2600   */\n  tag_69\n    /* \"#utility.yul\":2596:2599   */\n  dup3\n    /* \"#utility.yul\":2452:2600   */\n  tag_49\n  jump\t// in\ntag_69:\n    /* \"#utility.yul\":2445:2600   */\n  swap2\n  pop\n    /* \"#utility.yul\":2617:2765   */\n  tag_70\n    /* \"#utility.yul\":2761:2764   */\n  dup3\n    /* \"#utility.yul\":2617:2765   */\n  tag_55\n  jump\t// in\ntag_70:\n    /* \"#utility.yul\":2610:2765   */\n  swap2\n  pop\n    /* \"#utility.yul\":2782:2785   */\n  dup2\n    /* \"#utility.yul\":2775:2785   */\n  swap1\n  pop\n    /* \"#utility.yul\":2144:2791   */\n  swap2\n  swap1\n  pop\n  jump\t// out\n    /* \"#utility.yul\":2797:3585   */\ntag_5:\n    /* \"#utility.yul\":3111:3114   */\n  0x00\n    /* \"#utility.yul\":3133:3281   */\n  tag_72\n    /* \"#utility.yul\":3277:3280   */\n  dup3\n    /* \"#utility.yul\":3133:3281   */\n  tag_49\n  jump\t// in\ntag_72:\n    /* \"#utility.yul\":3126:3281   */\n  swap2\n  pop\n    /* \"#utility.yul\":3298:3446   */\n  tag_73\n    /* \"#utility.yul\":3442:3445   */\n  dup3\n    /* \"#utility.yul\":3298:3446   */\n  tag_55\n  jump\t// in\ntag_73:\n    /* \"#utility.yul\":3291:3446   */\n  swap2\n  pop\n    /* \"#utility.yul\":3456:3531   */\n  tag_74\n    /* \"#utility.yul\":3527:3530   */\n  dup3\n    /* \"#utility.yul\":3518:3524   */\n  dup5\n    /* \"#utility.yul\":3456:3531   */\n  tag_60\n  jump\t// in\ntag_74:\n    /* \"#utility.yul\":3556:3558   */\n  0x20\n    /* \"#utility.yul\":3551:3554   */\n  dup3\n    /* \"#utility.yul\":3547:3559   */\n  add\n    /* \"#utility.yul\":3540:3559   */\n  swap2\n  pop\n    /* \"#utility.yul\":3576:3579   */\n  dup2\n    /* \"#utility.yul\":3569:3579   */\n  swap1\n  pop\n    /* \"#utility.yul\":2797:3585   */\n  swap3\n  swap2\n  pop\n  pop\n  jump\t// out\n    /* \"#utility.yul\":3672:3770   */\ntag_44:\n    /* \"#utility.yul\":3723:3729   */\n  0x00\n    /* \"#utility.yul\":3757:3762   */\n  dup2\n    /* \"#utility.yul\":3751:3763   */\n  mload\n    /* \"#utility.yul\":3741:3763   */\n  swap1\n  pop\n    /* \"#utility.yul\":3672:3770   */\n  swap2\n  swap1\n  pop\n  jump\t// out\n    /* \"#utility.yul\":3776:3923   */\ntag_46:\n    /* \"#utility.yul\":3877:3888   */\n  0x00\n    /* \"#utility.yul\":3914:3917   */\n  dup2\n    /* \"#utility.yul\":3899:3917   */\n  swap1\n  pop\n    /* \"#utility.yul\":3776:3923   */\n  swap3\n  swap2\n  pop\n  pop\n  jump\t// out\n    /* \"#utility.yul\":3929:4077   */\ntag_52:\n    /* \"#utility.yul\":4031:4042   */\n  0x00\n    /* \"#utility.yul\":4068:4071   */\n  dup2\n    /* \"#utility.yul\":4053:4071   */\n  swap1\n  pop\n    /* \"#utility.yul\":3929:4077   */\n  swap3\n  swap2\n  pop\n  pop\n  jump\t// out\n    /* \"#utility.yul\":4083:4160   */\ntag_80:\n    /* \"#utility.yul\":4120:4127   */\n  0x00\n    /* \"#utility.yul\":4149:4154   */\n  dup2\n    /* \"#utility.yul\":4138:4154   */\n  swap1\n  pop\n    /* \"#utility.yul\":4083:4160   */\n  swap2\n  swap1\n  pop\n  jump\t// out\n    /* \"#utility.yul\":4166:4243   */\ntag_64:\n    /* \"#utility.yul\":4203:4210   */\n  0x00\n    /* \"#utility.yul\":4232:4237   */\n  dup2\n    /* \"#utility.yul\":4221:4237   */\n  swap1\n  pop\n    /* \"#utility.yul\":4166:4243   */\n  swap2\n  swap1\n  pop\n  jump\t// out\n    /* \"#utility.yul\":4249:4556   */\ntag_48:\n    /* \"#utility.yul\":4317:4318   */\n  0x00\n    /* \"#utility.yul\":4327:4440   */\ntag_84:\n    /* \"#utility.yul\":4341:4347   */\n  dup4\n    /* \"#utility.yul\":4338:4339   */\n  dup2\n    /* \"#utility.yul\":4335:4348   */\n  lt\n    /* \"#utility.yul\":4327:4440   */\n  iszero\n  tag_86\n  jumpi\n    /* \"#utility.yul\":4426:4427   */\n  dup1\n    /* \"#utility.yul\":4421:4424   */\n  dup3\n    /* \"#utility.yul\":4417:4428   */\n  add\n    /* \"#utility.yul\":4411:4429   */\n  mload\n    /* \"#utility.yul\":4407:4408   */\n  dup2\n    /* \"#utility.yul\":4402:4405   */\n  dup5\n    /* \"#utility.yul\":4398:4409   */\n  add\n    /* \"#utility.yul\":4391:4430   */\n  mstore\n    /* \"#utility.yul\":4363:4365   */\n  0x20\n    /* \"#utility.yul\":4360:4361   */\n  dup2\n    /* \"#utility.yul\":4356:4366   */\n  add\n    /* \"#utility.yul\":4351:4366   */\n  swap1\n  pop\n    /* \"#utility.yul\":4327:4440   */\n  jump(tag_84)\ntag_86:\n    /* \"#utility.yul\":4458:4464   */\n  dup4\n    /* \"#utility.yul\":4455:4456   */\n  dup2\n    /* \"#utility.yul\":4452:4465   */\n  gt\n    /* \"#utility.yul\":4449:4550   */\n  iszero\n  tag_87\n  jumpi\n    /* \"#utility.yul\":4538:4539   */\n  0x00\n    /* \"#utility.yul\":4529:4535   */\n  dup5\n    /* \"#utility.yul\":4524:4527   */\n  dup5\n    /* \"#utility.yul\":4520:4536   */\n  add\n    /* \"#utility.yul\":4513:4540   */\n  mstore\n    /* \"#utility.yul\":4449:4550   */\ntag_87:\n    /* \"#utility.yul\":4298:4556   */\n  pop\n    /* \"#utility.yul\":4249:4556   */\n  pop\n  pop\n  pop\n  jump\t// out\n    /* \"#utility.yul\":4562:4882   */\ntag_21:\n    /* \"#utility.yul\":4606:4612   */\n  0x00\n    /* \"#utility.yul\":4643:4644   */\n  0x02\n    /* \"#utility.yul\":4637:4641   */\n  dup3\n    /* \"#utility.yul\":4633:4645   */\n  div\n    /* \"#utility.yul\":4623:4645   */\n  swap1\n  pop\n    /* \"#utility.yul\":4690:4691   */\n  0x01\n    /* \"#utility.yul\":4684:4688   */\n  dup3\n    /* \"#utility.yul\":4680:4692   */\n  and\n    /* \"#utility.yul\":4711:4729   */\n  dup1\n    /* \"#utility.yul\":4701:4782   */\n  tag_89\n  jumpi\n    /* \"#utility.yul\":4767:4771   */\n  0x7f\n    /* \"#utility.yul\":4759:4765   */\n  dup3\n    /* \"#utility.yul\":4755:4772   */\n  and\n    /* \"#utility.yul\":4745:4772   */\n  swap2\n  pop\n    /* \"#utility.yul\":4701:4782   */\ntag_89:\n    /* \"#utility.yul\":4829:4831   */\n  0x20\n    /* \"#utility.yul\":4821:4827   */\n  dup3\n    /* \"#utility.yul\":4818:4832   */\n  lt\n    /* \"#utility.yul\":4798:4816   */\n  dup2\n    /* \"#utility.yul\":4795:4833   */\n  eq\n    /* \"#utility.yul\":4792:4876   */\n  iszero\n  tag_90\n  jumpi\n    /* \"#utility.yul\":4848:4866   */\n  tag_91\n  tag_92\n  jump\t// in\ntag_91:\n    /* \"#utility.yul\":4792:4876   */\ntag_90:\n    /* \"#utility.yul\":4613:4882   */\n  pop\n    /* \"#utility.yul\":4562:4882   */\n  swap2\n  swap1\n  pop\n  jump\t// out\n    /* \"#utility.yul\":4888:4967   */\ntag_65:\n    /* \"#utility.yul\":4927:4934   */\n  0x00\n    /* \"#utility.yul\":4956:4961   */\n  dup2\n    /* \"#utility.yul\":4945:4961   */\n  swap1\n  pop\n    /* \"#utility.yul\":4888:4967   */\n  swap2\n  swap1\n  pop\n  jump\t// out\n    /* \"#utility.yul\":4973:5153   */\ntag_92:\n    /* \"#utility.yul\":5021:5098   */\n  0x4e487b7100000000000000000000000000000000000000000000000000000000\n    /* \"#utility.yul\":5018:5019   */\n  0x00\n    /* \"#utility.yul\":5011:5099   */\n  mstore\n    /* \"#utility.yul\":5118:5122   */\n  0x22\n    /* \"#utility.yul\":5115:5116   */\n  0x04\n    /* \"#utility.yul\":5108:5123   */\n  mstore\n    /* \"#utility.yul\":5142:5146   */\n  0x24\n    /* \"#utility.yul\":5139:5140   */\n  0x00\n    /* \"#utility.yul\":5132:5147   */\n  revert\n    /* \"#utility.yul\":5282:5399   */\ntag_39:\n    /* \"#utility.yul\":5391:5392   */\n  0x00\n    /* \"#utility.yul\":5388:5389   */\n  dup1\n    /* \"#utility.yul\":5381:5393   */\n  revert\n    /* \"#utility.yul\":5405:5560   */\ntag_54:\n    /* \"#utility.yul\":5545:5552   */\n  0x68656c6c6f000000000000000000000000000000000000000000000000000000\n    /* \"#utility.yul\":5541:5542   */\n  0x00\n    /* \"#utility.yul\":5533:5539   */\n  dup3\n    /* \"#utility.yul\":5529:5543   */\n  add\n    /* \"#utility.yul\":5522:5553   */\n  mstore\n    /* \"#utility.yul\":5405:5560   */\n  pop\n  jump\t// out\n    /* \"#utility.yul\":5566:5719   */\ntag_59:\n    /* \"#utility.yul\":5706:5711   */\n  0x6c69610000000000000000000000000000000000000000000000000000000000\n    /* \"#utility.yul\":5702:5703   */\n  0x00\n    /* \"#utility.yul\":5694:5700   */\n  dup3\n    /* \"#utility.yul\":5690:5704   */\n  add\n    /* \"#utility.yul\":5683:5712   */\n  mstore\n    /* \"#utility.yul\":5566:5719   */\n  pop\n  jump\t// out\n    /* \"#utility.yul\":5725:5847   */\ntag_35:\n    /* \"#utility.yul\":5798:5822   */\n  tag_101\n    /* \"#utility.yul\":5816:5821   */\n  dup2\n    /* \"#utility.yul\":5798:5822   */\n  tag_80\n  jump\t// in\ntag_101:\n    /* \"#utility.yul\":5791:5796   */\n  dup2\n    /* \"#utility.yul\":5788:5823   */\n  eq\n    /* \"#utility.yul\":5778:5841   */\n  tag_102\n  jumpi\n    /* \"#utility.yul\":5837:5838   */\n  0x00\n    /* \"#utility.yul\":5834:5835   */\n  dup1\n    /* \"#utility.yul\":5827:5839   */\n  revert\n    /* \"#utility.yul\":5778:5841   */\ntag_102:\n    /* \"#utility.yul\":5725:5847   */\n  pop\n  jump\t// out\n    /* \"Contracts/tiposVariable.sol\":83:1391  contract Variables_modifiers {\r... */\ntag_19:\n  dataSize(sub_0)\n  dup1\n  dataOffset(sub_0)\n  0x00\n  codecopy\n  0x00\n  return\nstop\n\nsub_0: assembly {\n        /* \"Contracts/tiposVariable.sol\":83:1391  contract Variables_modifiers {\r... */\n      mstore(0x40, 0x80)\n      callvalue\n      dup1\n      iszero\n      tag_1\n      jumpi\n      0x00\n      dup1\n      revert\n    tag_1:\n      pop\n      jumpi(tag_2, lt(calldatasize, 0x04))\n      shr(0xe0, calldataload(0x00))\n      dup1\n      0x7a68ef7f\n      gt\n      tag_14\n      jumpi\n      dup1\n      0x7a68ef7f\n      eq\n      tag_8\n      jumpi\n      dup1\n      0x7c3baa18\n      eq\n      tag_9\n      jumpi\n      dup1\n      0xa2bdcc8c\n      eq\n      tag_10\n      jumpi\n      dup1\n      0xad0a93bc\n      eq\n      tag_11\n      jumpi\n      dup1\n      0xc15bae84\n      eq\n      tag_12\n      jumpi\n      dup1\n      0xc7109d04\n      eq\n      tag_13\n      jumpi\n      jump(tag_2)\n    tag_14:\n      dup1\n      0x1216d176\n      eq\n      tag_3\n      jumpi\n      dup1\n      0x2b73648d\n      eq\n      tag_4\n      jumpi\n      dup1\n      0x312a4c9c\n      eq\n      tag_5\n      jumpi\n      dup1\n      0x4df7e3d0\n      eq\n      tag_6\n      jumpi\n      dup1\n      0x7272eea1\n      eq\n      tag_7\n      jumpi\n    tag_2:\n      0x00\n      dup1\n      revert\n        /* \"Contracts/tiposVariable.sol\":981:1018  address public address_2 = msg.sender */\n    tag_3:\n      tag_15\n      tag_16\n      jump\t// in\n    tag_15:\n      mload(0x40)\n      tag_17\n      swap2\n      swap1\n      tag_18\n      jump\t// in\n    tag_17:\n      mload(0x40)\n      dup1\n      swap2\n      sub\n      swap1\n      return\n        /* \"Contracts/tiposVariable.sol\":595:682  bytes32 public hashing_keccak256 = keccak256(abi.encodePacked(\"hello\", \"lia\", uint(1))) */\n    tag_4:\n      tag_19\n      tag_20\n      jump\t// in\n    tag_19:\n      mload(0x40)\n      tag_21\n      swap2\n      swap1\n      tag_22\n      jump\t// in\n    tag_21:\n      mload(0x40)\n      dup1\n      swap2\n      sub\n      swap1\n      return\n        /* \"Contracts/tiposVariable.sol\":464:488  bool public _true = true */\n    tag_5:\n      tag_23\n      tag_24\n      jump\t// in\n    tag_23:\n      mload(0x40)\n      tag_25\n      swap2\n      swap1\n      tag_26\n      jump\t// in\n    tag_25:\n      mload(0x40)\n      dup1\n      swap2\n      sub\n      swap1\n      return\n        /* \"Contracts/tiposVariable.sol\":229:247  uint8 public b = 4 */\n    tag_6:\n      tag_27\n      tag_28\n      jump\t// in\n    tag_27:\n      mload(0x40)\n      tag_29\n      swap2\n      swap1\n      tag_30\n      jump\t// in\n    tag_29:\n      mload(0x40)\n      dup1\n      swap2\n      sub\n      swap1\n      return\n        /* \"Contracts/tiposVariable.sol\":1302:1386  function displayState() public view returns (options){\r... */\n    tag_7:\n      tag_31\n      tag_32\n      jump\t// in\n    tag_31:\n      mload(0x40)\n      tag_33\n      swap2\n      swap1\n      tag_34\n      jump\t// in\n    tag_33:\n      mload(0x40)\n      dup1\n      swap2\n      sub\n      swap1\n      return\n        /* \"Contracts/tiposVariable.sol\":768:846  bytes20 public hashing_ripemd160 = ripemd160(abi.encodePacked(\"hello\", \"lia\")) */\n    tag_8:\n      tag_35\n      tag_36\n      jump\t// in\n    tag_35:\n      mload(0x40)\n      tag_37\n      swap2\n      swap1\n      tag_38\n      jump\t// in\n    tag_37:\n      mload(0x40)\n      dup1\n      swap2\n      sub\n      swap1\n      return\n        /* \"Contracts/tiposVariable.sol\":1230:1294  function trueOFF() public {\r... */\n    tag_9:\n      tag_39\n      tag_40\n      jump\t// in\n    tag_39:\n      stop\n        /* \"Contracts/tiposVariable.sol\":1160:1222  function trueOn() public {\r... */\n    tag_10:\n      tag_41\n      tag_42\n      jump\t// in\n    tag_41:\n      stop\n        /* \"Contracts/tiposVariable.sol\":904:974  address public  address_1 = 0x5B38Da6a701c568545dCfcB03FcB875f56beddC4 */\n    tag_11:\n      tag_43\n      tag_44\n      jump\t// in\n    tag_43:\n      mload(0x40)\n      tag_45\n      swap2\n      swap1\n      tag_18\n      jump\t// in\n    tag_45:\n      mload(0x40)\n      dup1\n      swap2\n      sub\n      swap1\n      return\n        /* \"Contracts/tiposVariable.sol\":356:393  string public str = \"esto es publico\" */\n    tag_12:\n      tag_46\n      tag_47\n      jump\t// in\n    tag_46:\n      mload(0x40)\n      tag_48\n      swap2\n      swap1\n      tag_49\n      jump\t// in\n    tag_48:\n      mload(0x40)\n      dup1\n      swap2\n      sub\n      swap1\n      return\n        /* \"Contracts/tiposVariable.sol\":689:761  bytes32 public hashing_sha256 = sha256(abi.encodePacked(\"hello\", \"lia\")) */\n    tag_13:\n      tag_50\n      tag_51\n      jump\t// in\n    tag_50:\n      mload(0x40)\n      tag_52\n      swap2\n      swap1\n      tag_22\n      jump\t// in\n    tag_52:\n      mload(0x40)\n      dup1\n      swap2\n      sub\n      swap1\n      return\n        /* \"Contracts/tiposVariable.sol\":981:1018  address public address_2 = msg.sender */\n    tag_16:\n      0x0d\n      0x00\n      swap1\n      sload\n      swap1\n      0x0100\n      exp\n      swap1\n      div\n      0xffffffffffffffffffffffffffffffffffffffff\n      and\n      dup2\n      jump\t// out\n        /* \"Contracts/tiposVariable.sol\":595:682  bytes32 public hashing_keccak256 = keccak256(abi.encodePacked(\"hello\", \"lia\", uint(1))) */\n    tag_20:\n      sload(0x08)\n      dup2\n      jump\t// out\n        /* \"Contracts/tiposVariable.sol\":464:488  bool public _true = true */\n    tag_24:\n      0x06\n      0x00\n      swap1\n      sload\n      swap1\n      0x0100\n      exp\n      swap1\n      div\n      0xff\n      and\n      dup2\n      jump\t// out\n        /* \"Contracts/tiposVariable.sol\":229:247  uint8 public b = 4 */\n    tag_28:\n      0x00\n      0x01\n      swap1\n      sload\n      swap1\n      0x0100\n      exp\n      swap1\n      div\n      0xff\n      and\n      dup2\n      jump\t// out\n        /* \"Contracts/tiposVariable.sol\":1302:1386  function displayState() public view returns (options){\r... */\n    tag_32:\n        /* \"Contracts/tiposVariable.sol\":1347:1354  options */\n      0x00\n        /* \"Contracts/tiposVariable.sol\":1373:1378  state */\n      0x0d\n      0x14\n      swap1\n      sload\n      swap1\n      0x0100\n      exp\n      swap1\n      div\n      0xff\n      and\n        /* \"Contracts/tiposVariable.sol\":1366:1378  return state */\n      swap1\n      pop\n        /* \"Contracts/tiposVariable.sol\":1302:1386  function displayState() public view returns (options){\r... */\n      swap1\n      jump\t// out\n        /* \"Contracts/tiposVariable.sol\":768:846  bytes20 public hashing_ripemd160 = ripemd160(abi.encodePacked(\"hello\", \"lia\")) */\n    tag_36:\n      0x0a\n      0x00\n      swap1\n      sload\n      swap1\n      0x0100\n      exp\n      swap1\n      div\n      0x60\n      shl\n      dup2\n      jump\t// out\n        /* \"Contracts/tiposVariable.sol\":1230:1294  function trueOFF() public {\r... */\n    tag_40:\n        /* \"Contracts/tiposVariable.sol\":1275:1286  options.OFF */\n      0x01\n        /* \"Contracts/tiposVariable.sol\":1267:1272  state */\n      0x0d\n      0x14\n        /* \"Contracts/tiposVariable.sol\":1267:1286  state = options.OFF */\n      0x0100\n      exp\n      dup2\n      sload\n      dup2\n      0xff\n      mul\n      not\n      and\n      swap1\n      dup4\n      0x01\n      dup2\n      gt\n      iszero\n      tag_55\n      jumpi\n      tag_56\n      tag_57\n      jump\t// in\n    tag_56:\n    tag_55:\n      mul\n      or\n      swap1\n      sstore\n      pop\n        /* \"Contracts/tiposVariable.sol\":1230:1294  function trueOFF() public {\r... */\n      jump\t// out\n        /* \"Contracts/tiposVariable.sol\":1160:1222  function trueOn() public {\r... */\n    tag_42:\n        /* \"Contracts/tiposVariable.sol\":1204:1214  options.ON */\n      0x00\n        /* \"Contracts/tiposVariable.sol\":1196:1201  state */\n      0x0d\n      0x14\n        /* \"Contracts/tiposVariable.sol\":1196:1214  state = options.ON */\n      0x0100\n      exp\n      dup2\n      sload\n      dup2\n      0xff\n      mul\n      not\n      and\n      swap1\n      dup4\n      0x01\n      dup2\n      gt\n      iszero\n      tag_59\n      jumpi\n      tag_60\n      tag_57\n      jump\t// in\n    tag_60:\n    tag_59:\n      mul\n      or\n      swap1\n      sstore\n      pop\n        /* \"Contracts/tiposVariable.sol\":1160:1222  function trueOn() public {\r... */\n      jump\t// out\n        /* \"Contracts/tiposVariable.sol\":904:974  address public  address_1 = 0x5B38Da6a701c568545dCfcB03FcB875f56beddC4 */\n    tag_44:\n      0x0c\n      0x00\n      swap1\n      sload\n      swap1\n      0x0100\n      exp\n      swap1\n      div\n      0xffffffffffffffffffffffffffffffffffffffff\n      and\n      dup2\n      jump\t// out\n        /* \"Contracts/tiposVariable.sol\":356:393  string public str = \"esto es publico\" */\n    tag_47:\n      0x04\n      dup1\n      sload\n      tag_61\n      swap1\n      tag_62\n      jump\t// in\n    tag_61:\n      dup1\n      0x1f\n      add\n      0x20\n      dup1\n      swap2\n      div\n      mul\n      0x20\n      add\n      mload(0x40)\n      swap1\n      dup2\n      add\n      0x40\n      mstore\n      dup1\n      swap3\n      swap2\n      swap1\n      dup2\n      dup2\n      mstore\n      0x20\n      add\n      dup3\n      dup1\n      sload\n      tag_63\n      swap1\n      tag_62\n      jump\t// in\n    tag_63:\n      dup1\n      iszero\n      tag_64\n      jumpi\n      dup1\n      0x1f\n      lt\n      tag_65\n      jumpi\n      0x0100\n      dup1\n      dup4\n      sload\n      div\n      mul\n      dup4\n      mstore\n      swap2\n      0x20\n      add\n      swap2\n      jump(tag_64)\n    tag_65:\n      dup3\n      add\n      swap2\n      swap1\n      0x00\n      mstore\n      keccak256(0x00, 0x20)\n      swap1\n    tag_66:\n      dup2\n      sload\n      dup2\n      mstore\n      swap1\n      0x01\n      add\n      swap1\n      0x20\n      add\n      dup1\n      dup4\n      gt\n      tag_66\n      jumpi\n      dup3\n      swap1\n      sub\n      0x1f\n      and\n      dup3\n      add\n      swap2\n    tag_64:\n      pop\n      pop\n      pop\n      pop\n      pop\n      dup2\n      jump\t// out\n        /* \"Contracts/tiposVariable.sol\":689:761  bytes32 public hashing_sha256 = sha256(abi.encodePacked(\"hello\", \"lia\")) */\n    tag_51:\n      sload(0x09)\n      dup2\n      jump\t// out\n        /* \"#utility.yul\":7:125   */\n    tag_68:\n        /* \"#utility.yul\":94:118   */\n      tag_70\n        /* \"#utility.yul\":112:117   */\n      dup2\n        /* \"#utility.yul\":94:118   */\n      tag_71\n      jump\t// in\n    tag_70:\n        /* \"#utility.yul\":89:92   */\n      dup3\n        /* \"#utility.yul\":82:119   */\n      mstore\n        /* \"#utility.yul\":7:125   */\n      pop\n      pop\n      jump\t// out\n        /* \"#utility.yul\":131:240   */\n    tag_72:\n        /* \"#utility.yul\":212:233   */\n      tag_74\n        /* \"#utility.yul\":227:232   */\n      dup2\n        /* \"#utility.yul\":212:233   */\n      tag_75\n      jump\t// in\n    tag_74:\n        /* \"#utility.yul\":207:210   */\n      dup3\n        /* \"#utility.yul\":200:234   */\n      mstore\n        /* \"#utility.yul\":131:240   */\n      pop\n      pop\n      jump\t// out\n        /* \"#utility.yul\":246:364   */\n    tag_76:\n        /* \"#utility.yul\":333:357   */\n      tag_78\n        /* \"#utility.yul\":351:356   */\n      dup2\n        /* \"#utility.yul\":333:357   */\n      tag_79\n      jump\t// in\n    tag_78:\n        /* \"#utility.yul\":328:331   */\n      dup3\n        /* \"#utility.yul\":321:358   */\n      mstore\n        /* \"#utility.yul\":246:364   */\n      pop\n      pop\n      jump\t// out\n        /* \"#utility.yul\":370:488   */\n    tag_80:\n        /* \"#utility.yul\":457:481   */\n      tag_82\n        /* \"#utility.yul\":475:480   */\n      dup2\n        /* \"#utility.yul\":457:481   */\n      tag_83\n      jump\t// in\n    tag_82:\n        /* \"#utility.yul\":452:455   */\n      dup3\n        /* \"#utility.yul\":445:482   */\n      mstore\n        /* \"#utility.yul\":370:488   */\n      pop\n      pop\n      jump\t// out\n        /* \"#utility.yul\":494:641   */\n    tag_84:\n        /* \"#utility.yul\":589:634   */\n      tag_86\n        /* \"#utility.yul\":628:633   */\n      dup2\n        /* \"#utility.yul\":589:634   */\n      tag_87\n      jump\t// in\n    tag_86:\n        /* \"#utility.yul\":584:587   */\n      dup3\n        /* \"#utility.yul\":577:635   */\n      mstore\n        /* \"#utility.yul\":494:641   */\n      pop\n      pop\n      jump\t// out\n        /* \"#utility.yul\":647:1011   */\n    tag_88:\n        /* \"#utility.yul\":735:738   */\n      0x00\n        /* \"#utility.yul\":763:802   */\n      tag_90\n        /* \"#utility.yul\":796:801   */\n      dup3\n        /* \"#utility.yul\":763:802   */\n      tag_91\n      jump\t// in\n    tag_90:\n        /* \"#utility.yul\":818:889   */\n      tag_92\n        /* \"#utility.yul\":882:888   */\n      dup2\n        /* \"#utility.yul\":877:880   */\n      dup6\n        /* \"#utility.yul\":818:889   */\n      tag_93\n      jump\t// in\n    tag_92:\n        /* \"#utility.yul\":811:889   */\n      swap4\n      pop\n        /* \"#utility.yul\":898:950   */\n      tag_94\n        /* \"#utility.yul\":943:949   */\n      dup2\n        /* \"#utility.yul\":938:941   */\n      dup6\n        /* \"#utility.yul\":931:935   */\n      0x20\n        /* \"#utility.yul\":924:929   */\n      dup7\n        /* \"#utility.yul\":920:936   */\n      add\n        /* \"#utility.yul\":898:950   */\n      tag_95\n      jump\t// in\n    tag_94:\n        /* \"#utility.yul\":975:1004   */\n      tag_96\n        /* \"#utility.yul\":997:1003   */\n      dup2\n        /* \"#utility.yul\":975:1004   */\n      tag_97\n      jump\t// in\n    tag_96:\n        /* \"#utility.yul\":970:973   */\n      dup5\n        /* \"#utility.yul\":966:1005   */\n      add\n        /* \"#utility.yul\":959:1005   */\n      swap2\n      pop\n        /* \"#utility.yul\":739:1011   */\n      pop\n        /* \"#utility.yul\":647:1011   */\n      swap3\n      swap2\n      pop\n      pop\n      jump\t// out\n        /* \"#utility.yul\":1017:1129   */\n    tag_98:\n        /* \"#utility.yul\":1100:1122   */\n      tag_100\n        /* \"#utility.yul\":1116:1121   */\n      dup2\n        /* \"#utility.yul\":1100:1122   */\n      tag_101\n      jump\t// in\n    tag_100:\n        /* \"#utility.yul\":1095:1098   */\n      dup3\n        /* \"#utility.yul\":1088:1123   */\n      mstore\n        /* \"#utility.yul\":1017:1129   */\n      pop\n      pop\n      jump\t// out\n        /* \"#utility.yul\":1135:1357   */\n    tag_18:\n        /* \"#utility.yul\":1228:1232   */\n      0x00\n        /* \"#utility.yul\":1266:1268   */\n      0x20\n        /* \"#utility.yul\":1255:1264   */\n      dup3\n        /* \"#utility.yul\":1251:1269   */\n      add\n        /* \"#utility.yul\":1243:1269   */\n      swap1\n      pop\n        /* \"#utility.yul\":1279:1350   */\n      tag_103\n        /* \"#utility.yul\":1347:1348   */\n      0x00\n        /* \"#utility.yul\":1336:1345   */\n      dup4\n        /* \"#utility.yul\":1332:1349   */\n      add\n        /* \"#utility.yul\":1323:1329   */\n      dup5\n        /* \"#utility.yul\":1279:1350   */\n      tag_68\n      jump\t// in\n    tag_103:\n        /* \"#utility.yul\":1135:1357   */\n      swap3\n      swap2\n      pop\n      pop\n      jump\t// out\n        /* \"#utility.yul\":1363:1573   */\n    tag_26:\n        /* \"#utility.yul\":1450:1454   */\n      0x00\n        /* \"#utility.yul\":1488:1490   */\n      0x20\n        /* \"#utility.yul\":1477:1486   */\n      dup3\n        /* \"#utility.yul\":1473:1491   */\n      add\n        /* \"#utility.yul\":1465:1491   */\n      swap1\n      pop\n        /* \"#utility.yul\":1501:1566   */\n      tag_105\n        /* \"#utility.yul\":1563:1564   */\n      0x00\n        /* \"#utility.yul\":1552:1561   */\n      dup4\n        /* \"#utility.yul\":1548:1565   */\n      add\n        /* \"#utility.yul\":1539:1545   */\n      dup5\n        /* \"#utility.yul\":1501:1566   */\n      tag_72\n      jump\t// in\n    tag_105:\n        /* \"#utility.yul\":1363:1573   */\n      swap3\n      swap2\n      pop\n      pop\n      jump\t// out\n        /* \"#utility.yul\":1579:1801   */\n    tag_38:\n        /* \"#utility.yul\":1672:1676   */\n      0x00\n        /* \"#utility.yul\":1710:1712   */\n      0x20\n        /* \"#utility.yul\":1699:1708   */\n      dup3\n        /* \"#utility.yul\":1695:1713   */\n      add\n        /* \"#utility.yul\":1687:1713   */\n      swap1\n      pop\n        /* \"#utility.yul\":1723:1794   */\n      tag_107\n        /* \"#utility.yul\":1791:1792   */\n      0x00\n        /* \"#utility.yul\":1780:1789   */\n      dup4\n        /* \"#utility.yul\":1776:1793   */\n      add\n        /* \"#utility.yul\":1767:1773   */\n      dup5\n        /* \"#utility.yul\":1723:1794   */\n      tag_76\n      jump\t// in\n    tag_107:\n        /* \"#utility.yul\":1579:1801   */\n      swap3\n      swap2\n      pop\n      pop\n      jump\t// out\n        /* \"#utility.yul\":1807:2029   */\n    tag_22:\n        /* \"#utility.yul\":1900:1904   */\n      0x00\n        /* \"#utility.yul\":1938:1940   */\n      0x20\n        /* \"#utility.yul\":1927:1936   */\n      dup3\n        /* \"#utility.yul\":1923:1941   */\n      add\n        /* \"#utility.yul\":1915:1941   */\n      swap1\n      pop\n        /* \"#utility.yul\":1951:2022   */\n      tag_109\n        /* \"#utility.yul\":2019:2020   */\n      0x00\n        /* \"#utility.yul\":2008:2017   */\n      dup4\n        /* \"#utility.yul\":2004:2021   */\n      add\n        /* \"#utility.yul\":1995:2001   */\n      dup5\n        /* \"#utility.yul\":1951:2022   */\n      tag_80\n      jump\t// in\n    tag_109:\n        /* \"#utility.yul\":1807:2029   */\n      swap3\n      swap2\n      pop\n      pop\n      jump\t// out\n        /* \"#utility.yul\":2035:2273   */\n    tag_34:\n        /* \"#utility.yul\":2136:2140   */\n      0x00\n        /* \"#utility.yul\":2174:2176   */\n      0x20\n        /* \"#utility.yul\":2163:2172   */\n      dup3\n        /* \"#utility.yul\":2159:2177   */\n      add\n        /* \"#utility.yul\":2151:2177   */\n      swap1\n      pop\n        /* \"#utility.yul\":2187:2266   */\n      tag_111\n        /* \"#utility.yul\":2263:2264   */\n      0x00\n        /* \"#utility.yul\":2252:2261   */\n      dup4\n        /* \"#utility.yul\":2248:2265   */\n      add\n        /* \"#utility.yul\":2239:2245   */\n      dup5\n        /* \"#utility.yul\":2187:2266   */\n      tag_84\n      jump\t// in\n    tag_111:\n        /* \"#utility.yul\":2035:2273   */\n      swap3\n      swap2\n      pop\n      pop\n      jump\t// out\n        /* \"#utility.yul\":2279:2592   */\n    tag_49:\n        /* \"#utility.yul\":2392:2396   */\n      0x00\n        /* \"#utility.yul\":2430:2432   */\n      0x20\n        /* \"#utility.yul\":2419:2428   */\n      dup3\n        /* \"#utility.yul\":2415:2433   */\n      add\n        /* \"#utility.yul\":2407:2433   */\n      swap1\n      pop\n        /* \"#utility.yul\":2479:2488   */\n      dup2\n        /* \"#utility.yul\":2473:2477   */\n      dup2\n        /* \"#utility.yul\":2469:2489   */\n      sub\n        /* \"#utility.yul\":2465:2466   */\n      0x00\n        /* \"#utility.yul\":2454:2463   */\n      dup4\n        /* \"#utility.yul\":2450:2467   */\n      add\n        /* \"#utility.yul\":2443:2490   */\n      mstore\n        /* \"#utility.yul\":2507:2585   */\n      tag_113\n        /* \"#utility.yul\":2580:2584   */\n      dup2\n        /* \"#utility.yul\":2571:2577   */\n      dup5\n        /* \"#utility.yul\":2507:2585   */\n      tag_88\n      jump\t// in\n    tag_113:\n        /* \"#utility.yul\":2499:2585   */\n      swap1\n      pop\n        /* \"#utility.yul\":2279:2592   */\n      swap3\n      swap2\n      pop\n      pop\n      jump\t// out\n        /* \"#utility.yul\":2598:2812   */\n    tag_30:\n        /* \"#utility.yul\":2687:2691   */\n      0x00\n        /* \"#utility.yul\":2725:2727   */\n      0x20\n        /* \"#utility.yul\":2714:2723   */\n      dup3\n        /* \"#utility.yul\":2710:2728   */\n      add\n        /* \"#utility.yul\":2702:2728   */\n      swap1\n      pop\n        /* \"#utility.yul\":2738:2805   */\n      tag_115\n        /* \"#utility.yul\":2802:2803   */\n      0x00\n        /* \"#utility.yul\":2791:2800   */\n      dup4\n        /* \"#utility.yul\":2787:2804   */\n      add\n        /* \"#utility.yul\":2778:2784   */\n      dup5\n        /* \"#utility.yul\":2738:2805   */\n      tag_98\n      jump\t// in\n    tag_115:\n        /* \"#utility.yul\":2598:2812   */\n      swap3\n      swap2\n      pop\n      pop\n      jump\t// out\n        /* \"#utility.yul\":2818:2917   */\n    tag_91:\n        /* \"#utility.yul\":2870:2876   */\n      0x00\n        /* \"#utility.yul\":2904:2909   */\n      dup2\n        /* \"#utility.yul\":2898:2910   */\n      mload\n        /* \"#utility.yul\":2888:2910   */\n      swap1\n      pop\n        /* \"#utility.yul\":2818:2917   */\n      swap2\n      swap1\n      pop\n      jump\t// out\n        /* \"#utility.yul\":2923:3092   */\n    tag_93:\n        /* \"#utility.yul\":3007:3018   */\n      0x00\n        /* \"#utility.yul\":3041:3047   */\n      dup3\n        /* \"#utility.yul\":3036:3039   */\n      dup3\n        /* \"#utility.yul\":3029:3048   */\n      mstore\n        /* \"#utility.yul\":3081:3085   */\n      0x20\n        /* \"#utility.yul\":3076:3079   */\n      dup3\n        /* \"#utility.yul\":3072:3086   */\n      add\n        /* \"#utility.yul\":3057:3086   */\n      swap1\n      pop\n        /* \"#utility.yul\":2923:3092   */\n      swap3\n      swap2\n      pop\n      pop\n      jump\t// out\n        /* \"#utility.yul\":3098:3194   */\n    tag_71:\n        /* \"#utility.yul\":3135:3142   */\n      0x00\n        /* \"#utility.yul\":3164:3188   */\n      tag_119\n        /* \"#utility.yul\":3182:3187   */\n      dup3\n        /* \"#utility.yul\":3164:3188   */\n      tag_120\n      jump\t// in\n    tag_119:\n        /* \"#utility.yul\":3153:3188   */\n      swap1\n      pop\n        /* \"#utility.yul\":3098:3194   */\n      swap2\n      swap1\n      pop\n      jump\t// out\n        /* \"#utility.yul\":3200:3290   */\n    tag_75:\n        /* \"#utility.yul\":3234:3241   */\n      0x00\n        /* \"#utility.yul\":3277:3282   */\n      dup2\n        /* \"#utility.yul\":3270:3283   */\n      iszero\n        /* \"#utility.yul\":3263:3284   */\n      iszero\n        /* \"#utility.yul\":3252:3284   */\n      swap1\n      pop\n        /* \"#utility.yul\":3200:3290   */\n      swap2\n      swap1\n      pop\n      jump\t// out\n        /* \"#utility.yul\":3296:3446   */\n    tag_79:\n        /* \"#utility.yul\":3333:3340   */\n      0x00\n        /* \"#utility.yul\":3373:3439   */\n      0xffffffffffffffffffffffffffffffffffffffff000000000000000000000000\n        /* \"#utility.yul\":3366:3371   */\n      dup3\n        /* \"#utility.yul\":3362:3440   */\n      and\n        /* \"#utility.yul\":3351:3440   */\n      swap1\n      pop\n        /* \"#utility.yul\":3296:3446   */\n      swap2\n      swap1\n      pop\n      jump\t// out\n        /* \"#utility.yul\":3452:3529   */\n    tag_83:\n        /* \"#utility.yul\":3489:3496   */\n      0x00\n        /* \"#utility.yul\":3518:3523   */\n      dup2\n        /* \"#utility.yul\":3507:3523   */\n      swap1\n      pop\n        /* \"#utility.yul\":3452:3529   */\n      swap2\n      swap1\n      pop\n      jump\t// out\n        /* \"#utility.yul\":3535:3666   */\n    tag_124:\n        /* \"#utility.yul\":3582:3589   */\n      0x00\n        /* \"#utility.yul\":3611:3616   */\n      dup2\n        /* \"#utility.yul\":3600:3616   */\n      swap1\n      pop\n        /* \"#utility.yul\":3617:3660   */\n      tag_126\n        /* \"#utility.yul\":3654:3659   */\n      dup3\n        /* \"#utility.yul\":3617:3660   */\n      tag_127\n      jump\t// in\n    tag_126:\n        /* \"#utility.yul\":3535:3666   */\n      swap2\n      swap1\n      pop\n      jump\t// out\n        /* \"#utility.yul\":3672:3798   */\n    tag_120:\n        /* \"#utility.yul\":3709:3716   */\n      0x00\n        /* \"#utility.yul\":3749:3791   */\n      0xffffffffffffffffffffffffffffffffffffffff\n        /* \"#utility.yul\":3742:3747   */\n      dup3\n        /* \"#utility.yul\":3738:3792   */\n      and\n        /* \"#utility.yul\":3727:3792   */\n      swap1\n      pop\n        /* \"#utility.yul\":3672:3798   */\n      swap2\n      swap1\n      pop\n      jump\t// out\n        /* \"#utility.yul\":3804:3890   */\n    tag_101:\n        /* \"#utility.yul\":3839:3846   */\n      0x00\n        /* \"#utility.yul\":3879:3883   */\n      0xff\n        /* \"#utility.yul\":3872:3877   */\n      dup3\n        /* \"#utility.yul\":3868:3884   */\n      and\n        /* \"#utility.yul\":3857:3884   */\n      swap1\n      pop\n        /* \"#utility.yul\":3804:3890   */\n      swap2\n      swap1\n      pop\n      jump\t// out\n        /* \"#utility.yul\":3896:4027   */\n    tag_87:\n        /* \"#utility.yul\":3954:3963   */\n      0x00\n        /* \"#utility.yul\":3987:4021   */\n      tag_131\n        /* \"#utility.yul\":4015:4020   */\n      dup3\n        /* \"#utility.yul\":3987:4021   */\n      tag_124\n      jump\t// in\n    tag_131:\n        /* \"#utility.yul\":3974:4021   */\n      swap1\n      pop\n        /* \"#utility.yul\":3896:4027   */\n      swap2\n      swap1\n      pop\n      jump\t// out\n        /* \"#utility.yul\":4033:4340   */\n    tag_95:\n        /* \"#utility.yul\":4101:4102   */\n      0x00\n        /* \"#utility.yul\":4111:4224   */\n    tag_133:\n        /* \"#utility.yul\":4125:4131   */\n      dup4\n        /* \"#utility.yul\":4122:4123   */\n      dup2\n        /* \"#utility.yul\":4119:4132   */\n      lt\n        /* \"#utility.yul\":4111:4224   */\n      iszero\n      tag_135\n      jumpi\n        /* \"#utility.yul\":4210:4211   */\n      dup1\n        /* \"#utility.yul\":4205:4208   */\n      dup3\n        /* \"#utility.yul\":4201:4212   */\n      add\n        /* \"#utility.yul\":4195:4213   */\n      mload\n        /* \"#utility.yul\":4191:4192   */\n      dup2\n        /* \"#utility.yul\":4186:4189   */\n      dup5\n        /* \"#utility.yul\":4182:4193   */\n      add\n        /* \"#utility.yul\":4175:4214   */\n      mstore\n        /* \"#utility.yul\":4147:4149   */\n      0x20\n        /* \"#utility.yul\":4144:4145   */\n      dup2\n        /* \"#utility.yul\":4140:4150   */\n      add\n        /* \"#utility.yul\":4135:4150   */\n      swap1\n      pop\n        /* \"#utility.yul\":4111:4224   */\n      jump(tag_133)\n    tag_135:\n        /* \"#utility.yul\":4242:4248   */\n      dup4\n        /* \"#utility.yul\":4239:4240   */\n      dup2\n        /* \"#utility.yul\":4236:4249   */\n      gt\n        /* \"#utility.yul\":4233:4334   */\n      iszero\n      tag_136\n      jumpi\n        /* \"#utility.yul\":4322:4323   */\n      0x00\n        /* \"#utility.yul\":4313:4319   */\n      dup5\n        /* \"#utility.yul\":4308:4311   */\n      dup5\n        /* \"#utility.yul\":4304:4320   */\n      add\n        /* \"#utility.yul\":4297:4324   */\n      mstore\n        /* \"#utility.yul\":4233:4334   */\n    tag_136:\n        /* \"#utility.yul\":4082:4340   */\n      pop\n        /* \"#utility.yul\":4033:4340   */\n      pop\n      pop\n      pop\n      jump\t// out\n        /* \"#utility.yul\":4346:4666   */\n    tag_62:\n        /* \"#utility.yul\":4390:4396   */\n      0x00\n        /* \"#utility.yul\":4427:4428   */\n      0x02\n        /* \"#utility.yul\":4421:4425   */\n      dup3\n        /* \"#utility.yul\":4417:4429   */\n      div\n        /* \"#utility.yul\":4407:4429   */\n      swap1\n      pop\n        /* \"#utility.yul\":4474:4475   */\n      0x01\n        /* \"#utility.yul\":4468:4472   */\n      dup3\n        /* \"#utility.yul\":4464:4476   */\n      and\n        /* \"#utility.yul\":4495:4513   */\n      dup1\n        /* \"#utility.yul\":4485:4566   */\n      tag_138\n      jumpi\n        /* \"#utility.yul\":4551:4555   */\n      0x7f\n        /* \"#utility.yul\":4543:4549   */\n      dup3\n        /* \"#utility.yul\":4539:4556   */\n      and\n        /* \"#utility.yul\":4529:4556   */\n      swap2\n      pop\n        /* \"#utility.yul\":4485:4566   */\n    tag_138:\n        /* \"#utility.yul\":4613:4615   */\n      0x20\n        /* \"#utility.yul\":4605:4611   */\n      dup3\n        /* \"#utility.yul\":4602:4616   */\n      lt\n        /* \"#utility.yul\":4582:4600   */\n      dup2\n        /* \"#utility.yul\":4579:4617   */\n      eq\n        /* \"#utility.yul\":4576:4660   */\n      iszero\n      tag_139\n      jumpi\n        /* \"#utility.yul\":4632:4650   */\n      tag_140\n      tag_141\n      jump\t// in\n    tag_140:\n        /* \"#utility.yul\":4576:4660   */\n    tag_139:\n        /* \"#utility.yul\":4397:4666   */\n      pop\n        /* \"#utility.yul\":4346:4666   */\n      swap2\n      swap1\n      pop\n      jump\t// out\n        /* \"#utility.yul\":4672:4852   */\n    tag_57:\n        /* \"#utility.yul\":4720:4797   */\n      0x4e487b7100000000000000000000000000000000000000000000000000000000\n        /* \"#utility.yul\":4717:4718   */\n      0x00\n        /* \"#utility.yul\":4710:4798   */\n      mstore\n        /* \"#utility.yul\":4817:4821   */\n      0x21\n        /* \"#utility.yul\":4814:4815   */\n      0x04\n        /* \"#utility.yul\":4807:4822   */\n      mstore\n        /* \"#utility.yul\":4841:4845   */\n      0x24\n        /* \"#utility.yul\":4838:4839   */\n      0x00\n        /* \"#utility.yul\":4831:4846   */\n      revert\n        /* \"#utility.yul\":4858:5038   */\n    tag_141:\n        /* \"#utility.yul\":4906:4983   */\n      0x4e487b7100000000000000000000000000000000000000000000000000000000\n        /* \"#utility.yul\":4903:4904   */\n      0x00\n        /* \"#utility.yul\":4896:4984   */\n      mstore\n        /* \"#utility.yul\":5003:5007   */\n      0x22\n        /* \"#utility.yul\":5000:5001   */\n      0x04\n        /* \"#utility.yul\":4993:5008   */\n      mstore\n        /* \"#utility.yul\":5027:5031   */\n      0x24\n        /* \"#utility.yul\":5024:5025   */\n      0x00\n        /* \"#utility.yul\":5017:5032   */\n      revert\n        /* \"#utility.yul\":5044:5146   */\n    tag_97:\n        /* \"#utility.yul\":5085:5091   */\n      0x00\n        /* \"#utility.yul\":5136:5138   */\n      0x1f\n        /* \"#utility.yul\":5132:5139   */\n      not\n        /* \"#utility.yul\":5127:5129   */\n      0x1f\n        /* \"#utility.yul\":5120:5125   */\n      dup4\n        /* \"#utility.yul\":5116:5130   */\n      add\n        /* \"#utility.yul\":5112:5140   */\n      and\n        /* \"#utility.yul\":5102:5140   */\n      swap1\n      pop\n        /* \"#utility.yul\":5044:5146   */\n      swap2\n      swap1\n      pop\n      jump\t// out\n        /* \"#utility.yul\":5152:5267   */\n    tag_127:\n        /* \"#utility.yul\":5235:5236   */\n      0x02\n        /* \"#utility.yul\":5228:5233   */\n      dup2\n        /* \"#utility.yul\":5225:5237   */\n      lt\n        /* \"#utility.yul\":5215:5261   */\n      tag_146\n      jumpi\n        /* \"#utility.yul\":5241:5259   */\n      tag_147\n      tag_57\n      jump\t// in\n    tag_147:\n        /* \"#utility.yul\":5215:5261   */\n    tag_146:\n        /* \"#utility.yul\":5152:5267   */\n      pop\n      jump\t// out\n\n    auxdata: 0xa2646970667358221220c3274ce800da81c41e3b7f4c30dc69e54ae197c9bd625170f3cea49269389f9364736f6c63430008070033\n}\n",
				"bytecode": {
					"linkReferences": {},
					"object": "60806040526004600060016101000a81548160ff021916908360ff1602179055507fffffffffffffffffffffffffffffffffffffffffffffffffffffffffffffffff600260006101000a81548160ff021916908360000b60ff16021790555060346003556040518060400160405280600f81526020017f6573746f206573207075626c69636f000000000000000000000000000000000081525060049080519060200190620000b092919062000309565b506040518060400160405280600f81526020017f6573746f206573207072697661646f000000000000000000000000000000000081525060059080519060200190620000fe92919062000309565b506001600660006101000a81548160ff0219169083151502179055506000600660016101000a81548160ff0219169083151502179055506001604051602001620001499190620004df565b6040516020818303038152906040528051906020012060085560026040516020016200017590620004bb565b604051602081830303815290604052604051620001939190620004a2565b602060405180830381855afa158015620001b1573d6000803e3d6000fd5b5050506040513d601f19601f82011682018060405250810190620001d69190620003d0565b6009556003604051602001620001ec90620004bb565b6040516020818303038152906040526040516200020a9190620004a2565b602060405180830381855afa15801562000228573d6000803e3d6000fd5b5050506040515160601b600a60006101000a81548173ffffffffffffffffffffffffffffffffffffffff021916908360601c0217905550735b38da6a701c568545dcfcb03fcb875f56beddc4600c60006101000a81548173ffffffffffffffffffffffffffffffffffffffff021916908373ffffffffffffffffffffffffffffffffffffffff16021790555033600d60006101000a81548173ffffffffffffffffffffffffffffffffffffffff021916908373ffffffffffffffffffffffffffffffffffffffff1602179055503480156200030257600080fd5b5062000661565b828054620003179062000581565b90600052602060002090601f0160209004810192826200033b576000855562000387565b82601f106200035657805160ff191683800117855562000387565b8280016001018555821562000387579182015b828111156200038657825182559160200191906001019062000369565b5b5090506200039691906200039a565b5090565b5b80821115620003b55760008160009055506001016200039b565b5090565b600081519050620003ca8162000647565b92915050565b600060208284031215620003e957620003e8620005f0565b5b6000620003f984828501620003b9565b91505092915050565b60006200040f8262000516565b6200041b818562000521565b93506200042d8185602086016200054b565b80840191505092915050565b6000620004486005836200052c565b91506200045582620005f5565b600582019050919050565b60006200046f6003836200052c565b91506200047c826200061e565b600382019050919050565b6200049c620004968262000541565b620005b7565b82525050565b6000620004b0828462000402565b915081905092915050565b6000620004c88262000439565b9150620004d58262000460565b9150819050919050565b6000620004ec8262000439565b9150620004f98262000460565b915062000507828462000487565b60208201915081905092915050565b600081519050919050565b600081905092915050565b600081905092915050565b6000819050919050565b6000819050919050565b60005b838110156200056b5780820151818401526020810190506200054e565b838111156200057b576000848401525b50505050565b600060028204905060018216806200059a57607f821691505b60208210811415620005b157620005b0620005c1565b5b50919050565b6000819050919050565b7f4e487b7100000000000000000000000000000000000000000000000000000000600052602260045260246000fd5b600080fd5b7f68656c6c6f000000000000000000000000000000000000000000000000000000600082015250565b7f6c69610000000000000000000000000000000000000000000000000000000000600082015250565b620006528162000537565b81146200065e57600080fd5b50565b61069780620006716000396000f3fe608060405234801561001057600080fd5b50600436106100a95760003560e01c80637a68ef7f116100715780637a68ef7f146101445780637c3baa1814610162578063a2bdcc8c1461016c578063ad0a93bc14610176578063c15bae8414610194578063c7109d04146101b2576100a9565b80631216d176146100ae5780632b73648d146100cc578063312a4c9c146100ea5780634df7e3d0146101085780637272eea114610126575b600080fd5b6100b66101d0565b6040516100c391906103f3565b60405180910390f35b6100d46101f6565b6040516100e19190610444565b60405180910390f35b6100f26101fc565b6040516100ff919061040e565b60405180910390f35b61011061020f565b60405161011d919061049c565b60405180910390f35b61012e610222565b60405161013b919061045f565b60405180910390f35b61014c610239565b6040516101599190610429565b60405180910390f35b61016a61024c565b005b610174610279565b005b61017e6102a6565b60405161018b91906103f3565b60405180910390f35b61019c6102cc565b6040516101a9919061047a565b60405180910390f35b6101ba61035a565b6040516101c79190610444565b60405180910390f35b600d60009054906101000a900473ffffffffffffffffffffffffffffffffffffffff1681565b60085481565b600660009054906101000a900460ff1681565b600060019054906101000a900460ff1681565b6000600d60149054906101000a900460ff16905090565b600a60009054906101000a900460601b81565b6001600d60146101000a81548160ff02191690836001811115610272576102716105de565b5b0217905550565b6000600d60146101000a81548160ff0219169083600181111561029f5761029e6105de565b5b0217905550565b600c60009054906101000a900473ffffffffffffffffffffffffffffffffffffffff1681565b600480546102d9906105ac565b80601f0160208091040260200160405190810160405280929190818152602001828054610305906105ac565b80156103525780601f1061032757610100808354040283529160200191610352565b820191906000526020600020905b81548152906001019060200180831161033557829003601f168201915b505050505081565b60095481565b610369816104d3565b82525050565b610378816104e5565b82525050565b610387816104f1565b82525050565b6103968161051d565b82525050565b6103a581610567565b82525050565b60006103b6826104b7565b6103c081856104c2565b93506103d0818560208601610579565b6103d98161063c565b840191505092915050565b6103ed8161055a565b82525050565b60006020820190506104086000830184610360565b92915050565b6000602082019050610423600083018461036f565b92915050565b600060208201905061043e600083018461037e565b92915050565b6000602082019050610459600083018461038d565b92915050565b6000602082019050610474600083018461039c565b92915050565b6000602082019050818103600083015261049481846103ab565b905092915050565b60006020820190506104b160008301846103e4565b92915050565b600081519050919050565b600082825260208201905092915050565b60006104de8261053a565b9050919050565b60008115159050919050565b60007fffffffffffffffffffffffffffffffffffffffff00000000000000000000000082169050919050565b6000819050919050565b60008190506105358261064d565b919050565b600073ffffffffffffffffffffffffffffffffffffffff82169050919050565b600060ff82169050919050565b600061057282610527565b9050919050565b60005b8381101561059757808201518184015260208101905061057c565b838111156105a6576000848401525b50505050565b600060028204905060018216806105c457607f821691505b602082108114156105d8576105d761060d565b5b50919050565b7f4e487b7100000000000000000000000000000000000000000000000000000000600052602160045260246000fd5b7f4e487b7100000000000000000000000000000000000000000000000000000000600052602260045260246000fd5b6000601f19601f8301169050919050565b6002811061065e5761065d6105de565b5b5056fea2646970667358221220c3274ce800da81c41e3b7f4c30dc69e54ae197c9bd625170f3cea49269389f9364736f6c63430008070033",
					"opcodes": "PUSH1 0x80 PUSH1 0x40 MSTORE PUSH1 0x4 PUSH1 0x0 PUSH1 0x1 PUSH2 0x100 EXP DUP2 SLOAD DUP2 PUSH1 0xFF MUL NOT AND SWAP1 DUP4 PUSH1 0xFF AND MUL OR SWAP1 SSTORE POP PUSH32 0xFFFFFFFFFFFFFFFFFFFFFFFFFFFFFFFFFFFFFFFFFFFFFFFFFFFFFFFFFFFFFFFF PUSH1 0x2 PUSH1 0x0 PUSH2 0x100 EXP DUP2 SLOAD DUP2 PUSH1 0xFF MUL NOT AND SWAP1 DUP4 PUSH1 0x0 SIGNEXTEND PUSH1 0xFF AND MUL OR SWAP1 SSTORE POP PUSH1 0x34 PUSH1 0x3 SSTORE PUSH1 0x40 MLOAD DUP1 PUSH1 0x40 ADD PUSH1 0x40 MSTORE DUP1 PUSH1 0xF DUP2 MSTORE PUSH1 0x20 ADD PUSH32 0x6573746F206573207075626C69636F0000000000000000000000000000000000 DUP2 MSTORE POP PUSH1 0x4 SWAP1 DUP1 MLOAD SWAP1 PUSH1 0x20 ADD SWAP1 PUSH3 0xB0 SWAP3 SWAP2 SWAP1 PUSH3 0x309 JUMP JUMPDEST POP PUSH1 0x40 MLOAD DUP1 PUSH1 0x40 ADD PUSH1 0x40 MSTORE DUP1 PUSH1 0xF DUP2 MSTORE PUSH1 0x20 ADD PUSH32 0x6573746F206573207072697661646F0000000000000000000000000000000000 DUP2 MSTORE POP PUSH1 0x5 SWAP1 DUP1 MLOAD SWAP1 PUSH1 0x20 ADD SWAP1 PUSH3 0xFE SWAP3 SWAP2 SWAP1 PUSH3 0x309 JUMP JUMPDEST POP PUSH1 0x1 PUSH1 0x6 PUSH1 0x0 PUSH2 0x100 EXP DUP2 SLOAD DUP2 PUSH1 0xFF MUL NOT AND SWAP1 DUP4 ISZERO ISZERO MUL OR SWAP1 SSTORE POP PUSH1 0x0 PUSH1 0x6 PUSH1 0x1 PUSH2 0x100 EXP DUP2 SLOAD DUP2 PUSH1 0xFF MUL NOT AND SWAP1 DUP4 ISZERO ISZERO MUL OR SWAP1 SSTORE POP PUSH1 0x1 PUSH1 0x40 MLOAD PUSH1 0x20 ADD PUSH3 0x149 SWAP2 SWAP1 PUSH3 0x4DF JUMP JUMPDEST PUSH1 0x40 MLOAD PUSH1 0x20 DUP2 DUP4 SUB SUB DUP2 MSTORE SWAP1 PUSH1 0x40 MSTORE DUP1 MLOAD SWAP1 PUSH1 0x20 ADD KECCAK256 PUSH1 0x8 SSTORE PUSH1 0x2 PUSH1 0x40 MLOAD PUSH1 0x20 ADD PUSH3 0x175 SWAP1 PUSH3 0x4BB JUMP JUMPDEST PUSH1 0x40 MLOAD PUSH1 0x20 DUP2 DUP4 SUB SUB DUP2 MSTORE SWAP1 PUSH1 0x40 MSTORE PUSH1 0x40 MLOAD PUSH3 0x193 SWAP2 SWAP1 PUSH3 0x4A2 JUMP JUMPDEST PUSH1 0x20 PUSH1 0x40 MLOAD DUP1 DUP4 SUB DUP2 DUP6 GAS STATICCALL ISZERO DUP1 ISZERO PUSH3 0x1B1 JUMPI RETURNDATASIZE PUSH1 0x0 DUP1 RETURNDATACOPY RETURNDATASIZE PUSH1 0x0 REVERT JUMPDEST POP POP POP PUSH1 0x40 MLOAD RETURNDATASIZE PUSH1 0x1F NOT PUSH1 0x1F DUP3 ADD AND DUP3 ADD DUP1 PUSH1 0x40 MSTORE POP DUP2 ADD SWAP1 PUSH3 0x1D6 SWAP2 SWAP1 PUSH3 0x3D0 JUMP JUMPDEST PUSH1 0x9 SSTORE PUSH1 0x3 PUSH1 0x40 MLOAD PUSH1 0x20 ADD PUSH3 0x1EC SWAP1 PUSH3 0x4BB JUMP JUMPDEST PUSH1 0x40 MLOAD PUSH1 0x20 DUP2 DUP4 SUB SUB DUP2 MSTORE SWAP1 PUSH1 0x40 MSTORE PUSH1 0x40 MLOAD PUSH3 0x20A SWAP2 SWAP1 PUSH3 0x4A2 JUMP JUMPDEST PUSH1 0x20 PUSH1 0x40 MLOAD DUP1 DUP4 SUB DUP2 DUP6 GAS STATICCALL ISZERO DUP1 ISZERO PUSH3 0x228 JUMPI RETURNDATASIZE PUSH1 0x0 DUP1 RETURNDATACOPY RETURNDATASIZE PUSH1 0x0 REVERT JUMPDEST POP POP POP PUSH1 0x40 MLOAD MLOAD PUSH1 0x60 SHL PUSH1 0xA PUSH1 0x0 PUSH2 0x100 EXP DUP2 SLOAD DUP2 PUSH20 0xFFFFFFFFFFFFFFFFFFFFFFFFFFFFFFFFFFFFFFFF MUL NOT AND SWAP1 DUP4 PUSH1 0x60 SHR MUL OR SWAP1 SSTORE POP PUSH20 0x5B38DA6A701C568545DCFCB03FCB875F56BEDDC4 PUSH1 0xC PUSH1 0x0 PUSH2 0x100 EXP DUP2 SLOAD DUP2 PUSH20 0xFFFFFFFFFFFFFFFFFFFFFFFFFFFFFFFFFFFFFFFF MUL NOT AND SWAP1 DUP4 PUSH20 0xFFFFFFFFFFFFFFFFFFFFFFFFFFFFFFFFFFFFFFFF AND MUL OR SWAP1 SSTORE POP CALLER PUSH1 0xD PUSH1 0x0 PUSH2 0x100 EXP DUP2 SLOAD DUP2 PUSH20 0xFFFFFFFFFFFFFFFFFFFFFFFFFFFFFFFFFFFFFFFF MUL NOT AND SWAP1 DUP4 PUSH20 0xFFFFFFFFFFFFFFFFFFFFFFFFFFFFFFFFFFFFFFFF AND MUL OR SWAP1 SSTORE POP CALLVALUE DUP1 ISZERO PUSH3 0x302 JUMPI PUSH1 0x0 DUP1 REVERT JUMPDEST POP PUSH3 0x661 JUMP JUMPDEST DUP3 DUP1 SLOAD PUSH3 0x317 SWAP1 PUSH3 0x581 JUMP JUMPDEST SWAP1 PUSH1 0x0 MSTORE PUSH1 0x20 PUSH1 0x0 KECCAK256 SWAP1 PUSH1 0x1F ADD PUSH1 0x20 SWAP1 DIV DUP2 ADD SWAP3 DUP3 PUSH3 0x33B JUMPI PUSH1 0x0 DUP6 SSTORE PUSH3 0x387 JUMP JUMPDEST DUP3 PUSH1 0x1F LT PUSH3 0x356 JUMPI DUP1 MLOAD PUSH1 0xFF NOT AND DUP4 DUP1 ADD OR DUP6 SSTORE PUSH3 0x387 JUMP JUMPDEST DUP3 DUP1 ADD PUSH1 0x1 ADD DUP6 SSTORE DUP3 ISZERO PUSH3 0x387 JUMPI SWAP2 DUP3 ADD JUMPDEST DUP3 DUP2 GT ISZERO PUSH3 0x386 JUMPI DUP3 MLOAD DUP3 SSTORE SWAP2 PUSH1 0x20 ADD SWAP2 SWAP1 PUSH1 0x1 ADD SWAP1 PUSH3 0x369 JUMP JUMPDEST JUMPDEST POP SWAP1 POP PUSH3 0x396 SWAP2 SWAP1 PUSH3 0x39A JUMP JUMPDEST POP SWAP1 JUMP JUMPDEST JUMPDEST DUP1 DUP3 GT ISZERO PUSH3 0x3B5 JUMPI PUSH1 0x0 DUP2 PUSH1 0x0 SWAP1 SSTORE POP PUSH1 0x1 ADD PUSH3 0x39B JUMP JUMPDEST POP SWAP1 JUMP JUMPDEST PUSH1 0x0 DUP2 MLOAD SWAP1 POP PUSH3 0x3CA DUP2 PUSH3 0x647 JUMP JUMPDEST SWAP3 SWAP2 POP POP JUMP JUMPDEST PUSH1 0x0 PUSH1 0x20 DUP3 DUP5 SUB SLT ISZERO PUSH3 0x3E9 JUMPI PUSH3 0x3E8 PUSH3 0x5F0 JUMP JUMPDEST JUMPDEST PUSH1 0x0 PUSH3 0x3F9 DUP5 DUP3 DUP6 ADD PUSH3 0x3B9 JUMP JUMPDEST SWAP2 POP POP SWAP3 SWAP2 POP POP JUMP JUMPDEST PUSH1 0x0 PUSH3 0x40F DUP3 PUSH3 0x516 JUMP JUMPDEST PUSH3 0x41B DUP2 DUP6 PUSH3 0x521 JUMP JUMPDEST SWAP4 POP PUSH3 0x42D DUP2 DUP6 PUSH1 0x20 DUP7 ADD PUSH3 0x54B JUMP JUMPDEST DUP1 DUP5 ADD SWAP2 POP POP SWAP3 SWAP2 POP POP JUMP JUMPDEST PUSH1 0x0 PUSH3 0x448 PUSH1 0x5 DUP4 PUSH3 0x52C JUMP JUMPDEST SWAP2 POP PUSH3 0x455 DUP3 PUSH3 0x5F5 JUMP JUMPDEST PUSH1 0x5 DUP3 ADD SWAP1 POP SWAP2 SWAP1 POP JUMP JUMPDEST PUSH1 0x0 PUSH3 0x46F PUSH1 0x3 DUP4 PUSH3 0x52C JUMP JUMPDEST SWAP2 POP PUSH3 0x47C DUP3 PUSH3 0x61E JUMP JUMPDEST PUSH1 0x3 DUP3 ADD SWAP1 POP SWAP2 SWAP1 POP JUMP JUMPDEST PUSH3 0x49C PUSH3 0x496 DUP3 PUSH3 0x541 JUMP JUMPDEST PUSH3 0x5B7 JUMP JUMPDEST DUP3 MSTORE POP POP JUMP JUMPDEST PUSH1 0x0 PUSH3 0x4B0 DUP3 DUP5 PUSH3 0x402 JUMP JUMPDEST SWAP2 POP DUP2 SWAP1 POP SWAP3 SWAP2 POP POP JUMP JUMPDEST PUSH1 0x0 PUSH3 0x4C8 DUP3 PUSH3 0x439 JUMP JUMPDEST SWAP2 POP PUSH3 0x4D5 DUP3 PUSH3 0x460 JUMP JUMPDEST SWAP2 POP DUP2 SWAP1 POP SWAP2 SWAP1 POP JUMP JUMPDEST PUSH1 0x0 PUSH3 0x4EC DUP3 PUSH3 0x439 JUMP JUMPDEST SWAP2 POP PUSH3 0x4F9 DUP3 PUSH3 0x460 JUMP JUMPDEST SWAP2 POP PUSH3 0x507 DUP3 DUP5 PUSH3 0x487 JUMP JUMPDEST PUSH1 0x20 DUP3 ADD SWAP2 POP DUP2 SWAP1 POP SWAP3 SWAP2 POP POP JUMP JUMPDEST PUSH1 0x0 DUP2 MLOAD SWAP1 POP SWAP2 SWAP1 POP JUMP JUMPDEST PUSH1 0x0 DUP2 SWAP1 POP SWAP3 SWAP2 POP POP JUMP JUMPDEST PUSH1 0x0 DUP2 SWAP1 POP SWAP3 SWAP2 POP POP JUMP JUMPDEST PUSH1 0x0 DUP2 SWAP1 POP SWAP2 SWAP1 POP JUMP JUMPDEST PUSH1 0x0 DUP2 SWAP1 POP SWAP2 SWAP1 POP JUMP JUMPDEST PUSH1 0x0 JUMPDEST DUP4 DUP2 LT ISZERO PUSH3 0x56B JUMPI DUP1 DUP3 ADD MLOAD DUP2 DUP5 ADD MSTORE PUSH1 0x20 DUP2 ADD SWAP1 POP PUSH3 0x54E JUMP JUMPDEST DUP4 DUP2 GT ISZERO PUSH3 0x57B JUMPI PUSH1 0x0 DUP5 DUP5 ADD MSTORE JUMPDEST POP POP POP POP JUMP JUMPDEST PUSH1 0x0 PUSH1 0x2 DUP3 DIV SWAP1 POP PUSH1 0x1 DUP3 AND DUP1 PUSH3 0x59A JUMPI PUSH1 0x7F DUP3 AND SWAP2 POP JUMPDEST PUSH1 0x20 DUP3 LT DUP2 EQ ISZERO PUSH3 0x5B1 JUMPI PUSH3 0x5B0 PUSH3 0x5C1 JUMP JUMPDEST JUMPDEST POP SWAP2 SWAP1 POP JUMP JUMPDEST PUSH1 0x0 DUP2 SWAP1 POP SWAP2 SWAP1 POP JUMP JUMPDEST PUSH32 0x4E487B7100000000000000000000000000000000000000000000000000000000 PUSH1 0x0 MSTORE PUSH1 0x22 PUSH1 0x4 MSTORE PUSH1 0x24 PUSH1 0x0 REVERT JUMPDEST PUSH1 0x0 DUP1 REVERT JUMPDEST PUSH32 0x68656C6C6F000000000000000000000000000000000000000000000000000000 PUSH1 0x0 DUP3 ADD MSTORE POP JUMP JUMPDEST PUSH32 0x6C69610000000000000000000000000000000000000000000000000000000000 PUSH1 0x0 DUP3 ADD MSTORE POP JUMP JUMPDEST PUSH3 0x652 DUP2 PUSH3 0x537 JUMP JUMPDEST DUP2 EQ PUSH3 0x65E JUMPI PUSH1 0x0 DUP1 REVERT JUMPDEST POP JUMP JUMPDEST PUSH2 0x697 DUP1 PUSH3 0x671 PUSH1 0x0 CODECOPY PUSH1 0x0 RETURN INVALID PUSH1 0x80 PUSH1 0x40 MSTORE CALLVALUE DUP1 ISZERO PUSH2 0x10 JUMPI PUSH1 0x0 DUP1 REVERT JUMPDEST POP PUSH1 0x4 CALLDATASIZE LT PUSH2 0xA9 JUMPI PUSH1 0x0 CALLDATALOAD PUSH1 0xE0 SHR DUP1 PUSH4 0x7A68EF7F GT PUSH2 0x71 JUMPI DUP1 PUSH4 0x7A68EF7F EQ PUSH2 0x144 JUMPI DUP1 PUSH4 0x7C3BAA18 EQ PUSH2 0x162 JUMPI DUP1 PUSH4 0xA2BDCC8C EQ PUSH2 0x16C JUMPI DUP1 PUSH4 0xAD0A93BC EQ PUSH2 0x176 JUMPI DUP1 PUSH4 0xC15BAE84 EQ PUSH2 0x194 JUMPI DUP1 PUSH4 0xC7109D04 EQ PUSH2 0x1B2 JUMPI PUSH2 0xA9 JUMP JUMPDEST DUP1 PUSH4 0x1216D176 EQ PUSH2 0xAE JUMPI DUP1 PUSH4 0x2B73648D EQ PUSH2 0xCC JUMPI DUP1 PUSH4 0x312A4C9C EQ PUSH2 0xEA JUMPI DUP1 PUSH4 0x4DF7E3D0 EQ PUSH2 0x108 JUMPI DUP1 PUSH4 0x7272EEA1 EQ PUSH2 0x126 JUMPI JUMPDEST PUSH1 0x0 DUP1 REVERT JUMPDEST PUSH2 0xB6 PUSH2 0x1D0 JUMP JUMPDEST PUSH1 0x40 MLOAD PUSH2 0xC3 SWAP2 SWAP1 PUSH2 0x3F3 JUMP JUMPDEST PUSH1 0x40 MLOAD DUP1 SWAP2 SUB SWAP1 RETURN JUMPDEST PUSH2 0xD4 PUSH2 0x1F6 JUMP JUMPDEST PUSH1 0x40 MLOAD PUSH2 0xE1 SWAP2 SWAP1 PUSH2 0x444 JUMP JUMPDEST PUSH1 0x40 MLOAD DUP1 SWAP2 SUB SWAP1 RETURN JUMPDEST PUSH2 0xF2 PUSH2 0x1FC JUMP JUMPDEST PUSH1 0x40 MLOAD PUSH2 0xFF SWAP2 SWAP1 PUSH2 0x40E JUMP JUMPDEST PUSH1 0x40 MLOAD DUP1 SWAP2 SUB SWAP1 RETURN JUMPDEST PUSH2 0x110 PUSH2 0x20F JUMP JUMPDEST PUSH1 0x40 MLOAD PUSH2 0x11D SWAP2 SWAP1 PUSH2 0x49C JUMP JUMPDEST PUSH1 0x40 MLOAD DUP1 SWAP2 SUB SWAP1 RETURN JUMPDEST PUSH2 0x12E PUSH2 0x222 JUMP JUMPDEST PUSH1 0x40 MLOAD PUSH2 0x13B SWAP2 SWAP1 PUSH2 0x45F JUMP JUMPDEST PUSH1 0x40 MLOAD DUP1 SWAP2 SUB SWAP1 RETURN JUMPDEST PUSH2 0x14C PUSH2 0x239 JUMP JUMPDEST PUSH1 0x40 MLOAD PUSH2 0x159 SWAP2 SWAP1 PUSH2 0x429 JUMP JUMPDEST PUSH1 0x40 MLOAD DUP1 SWAP2 SUB SWAP1 RETURN JUMPDEST PUSH2 0x16A PUSH2 0x24C JUMP JUMPDEST STOP JUMPDEST PUSH2 0x174 PUSH2 0x279 JUMP JUMPDEST STOP JUMPDEST PUSH2 0x17E PUSH2 0x2A6 JUMP JUMPDEST PUSH1 0x40 MLOAD PUSH2 0x18B SWAP2 SWAP1 PUSH2 0x3F3 JUMP JUMPDEST PUSH1 0x40 MLOAD DUP1 SWAP2 SUB SWAP1 RETURN JUMPDEST PUSH2 0x19C PUSH2 0x2CC JUMP JUMPDEST PUSH1 0x40 MLOAD PUSH2 0x1A9 SWAP2 SWAP1 PUSH2 0x47A JUMP JUMPDEST PUSH1 0x40 MLOAD DUP1 SWAP2 SUB SWAP1 RETURN JUMPDEST PUSH2 0x1BA PUSH2 0x35A JUMP JUMPDEST PUSH1 0x40 MLOAD PUSH2 0x1C7 SWAP2 SWAP1 PUSH2 0x444 JUMP JUMPDEST PUSH1 0x40 MLOAD DUP1 SWAP2 SUB SWAP1 RETURN JUMPDEST PUSH1 0xD PUSH1 0x0 SWAP1 SLOAD SWAP1 PUSH2 0x100 EXP SWAP1 DIV PUSH20 0xFFFFFFFFFFFFFFFFFFFFFFFFFFFFFFFFFFFFFFFF AND DUP2 JUMP JUMPDEST PUSH1 0x8 SLOAD DUP2 JUMP JUMPDEST PUSH1 0x6 PUSH1 0x0 SWAP1 SLOAD SWAP1 PUSH2 0x100 EXP SWAP1 DIV PUSH1 0xFF AND DUP2 JUMP JUMPDEST PUSH1 0x0 PUSH1 0x1 SWAP1 SLOAD SWAP1 PUSH2 0x100 EXP SWAP1 DIV PUSH1 0xFF AND DUP2 JUMP JUMPDEST PUSH1 0x0 PUSH1 0xD PUSH1 0x14 SWAP1 SLOAD SWAP1 PUSH2 0x100 EXP SWAP1 DIV PUSH1 0xFF AND SWAP1 POP SWAP1 JUMP JUMPDEST PUSH1 0xA PUSH1 0x0 SWAP1 SLOAD SWAP1 PUSH2 0x100 EXP SWAP1 DIV PUSH1 0x60 SHL DUP2 JUMP JUMPDEST PUSH1 0x1 PUSH1 0xD PUSH1 0x14 PUSH2 0x100 EXP DUP2 SLOAD DUP2 PUSH1 0xFF MUL NOT AND SWAP1 DUP4 PUSH1 0x1 DUP2 GT ISZERO PUSH2 0x272 JUMPI PUSH2 0x271 PUSH2 0x5DE JUMP JUMPDEST JUMPDEST MUL OR SWAP1 SSTORE POP JUMP JUMPDEST PUSH1 0x0 PUSH1 0xD PUSH1 0x14 PUSH2 0x100 EXP DUP2 SLOAD DUP2 PUSH1 0xFF MUL NOT AND SWAP1 DUP4 PUSH1 0x1 DUP2 GT ISZERO PUSH2 0x29F JUMPI PUSH2 0x29E PUSH2 0x5DE JUMP JUMPDEST JUMPDEST MUL OR SWAP1 SSTORE POP JUMP JUMPDEST PUSH1 0xC PUSH1 0x0 SWAP1 SLOAD SWAP1 PUSH2 0x100 EXP SWAP1 DIV PUSH20 0xFFFFFFFFFFFFFFFFFFFFFFFFFFFFFFFFFFFFFFFF AND DUP2 JUMP JUMPDEST PUSH1 0x4 DUP1 SLOAD PUSH2 0x2D9 SWAP1 PUSH2 0x5AC JUMP JUMPDEST DUP1 PUSH1 0x1F ADD PUSH1 0x20 DUP1 SWAP2 DIV MUL PUSH1 0x20 ADD PUSH1 0x40 MLOAD SWAP1 DUP2 ADD PUSH1 0x40 MSTORE DUP1 SWAP3 SWAP2 SWAP1 DUP2 DUP2 MSTORE PUSH1 0x20 ADD DUP3 DUP1 SLOAD PUSH2 0x305 SWAP1 PUSH2 0x5AC JUMP JUMPDEST DUP1 ISZERO PUSH2 0x352 JUMPI DUP1 PUSH1 0x1F LT PUSH2 0x327 JUMPI PUSH2 0x100 DUP1 DUP4 SLOAD DIV MUL DUP4 MSTORE SWAP2 PUSH1 0x20 ADD SWAP2 PUSH2 0x352 JUMP JUMPDEST DUP3 ADD SWAP2 SWAP1 PUSH1 0x0 MSTORE PUSH1 0x20 PUSH1 0x0 KECCAK256 SWAP1 JUMPDEST DUP2 SLOAD DUP2 MSTORE SWAP1 PUSH1 0x1 ADD SWAP1 PUSH1 0x20 ADD DUP1 DUP4 GT PUSH2 0x335 JUMPI DUP3 SWAP1 SUB PUSH1 0x1F AND DUP3 ADD SWAP2 JUMPDEST POP POP POP POP POP DUP2 JUMP JUMPDEST PUSH1 0x9 SLOAD DUP2 JUMP JUMPDEST PUSH2 0x369 DUP2 PUSH2 0x4D3 JUMP JUMPDEST DUP3 MSTORE POP POP JUMP JUMPDEST PUSH2 0x378 DUP2 PUSH2 0x4E5 JUMP JUMPDEST DUP3 MSTORE POP POP JUMP JUMPDEST PUSH2 0x387 DUP2 PUSH2 0x4F1 JUMP JUMPDEST DUP3 MSTORE POP POP JUMP JUMPDEST PUSH2 0x396 DUP2 PUSH2 0x51D JUMP JUMPDEST DUP3 MSTORE POP POP JUMP JUMPDEST PUSH2 0x3A5 DUP2 PUSH2 0x567 JUMP JUMPDEST DUP3 MSTORE POP POP JUMP JUMPDEST PUSH1 0x0 PUSH2 0x3B6 DUP3 PUSH2 0x4B7 JUMP JUMPDEST PUSH2 0x3C0 DUP2 DUP6 PUSH2 0x4C2 JUMP JUMPDEST SWAP4 POP PUSH2 0x3D0 DUP2 DUP6 PUSH1 0x20 DUP7 ADD PUSH2 0x579 JUMP JUMPDEST PUSH2 0x3D9 DUP2 PUSH2 0x63C JUMP JUMPDEST DUP5 ADD SWAP2 POP POP SWAP3 SWAP2 POP POP JUMP JUMPDEST PUSH2 0x3ED DUP2 PUSH2 0x55A JUMP JUMPDEST DUP3 MSTORE POP POP JUMP JUMPDEST PUSH1 0x0 PUSH1 0x20 DUP3 ADD SWAP1 POP PUSH2 0x408 PUSH1 0x0 DUP4 ADD DUP5 PUSH2 0x360 JUMP JUMPDEST SWAP3 SWAP2 POP POP JUMP JUMPDEST PUSH1 0x0 PUSH1 0x20 DUP3 ADD SWAP1 POP PUSH2 0x423 PUSH1 0x0 DUP4 ADD DUP5 PUSH2 0x36F JUMP JUMPDEST SWAP3 SWAP2 POP POP JUMP JUMPDEST PUSH1 0x0 PUSH1 0x20 DUP3 ADD SWAP1 POP PUSH2 0x43E PUSH1 0x0 DUP4 ADD DUP5 PUSH2 0x37E JUMP JUMPDEST SWAP3 SWAP2 POP POP JUMP JUMPDEST PUSH1 0x0 PUSH1 0x20 DUP3 ADD SWAP1 POP PUSH2 0x459 PUSH1 0x0 DUP4 ADD DUP5 PUSH2 0x38D JUMP JUMPDEST SWAP3 SWAP2 POP POP JUMP JUMPDEST PUSH1 0x0 PUSH1 0x20 DUP3 ADD SWAP1 POP PUSH2 0x474 PUSH1 0x0 DUP4 ADD DUP5 PUSH2 0x39C JUMP JUMPDEST SWAP3 SWAP2 POP POP JUMP JUMPDEST PUSH1 0x0 PUSH1 0x20 DUP3 ADD SWAP1 POP DUP2 DUP2 SUB PUSH1 0x0 DUP4 ADD MSTORE PUSH2 0x494 DUP2 DUP5 PUSH2 0x3AB JUMP JUMPDEST SWAP1 POP SWAP3 SWAP2 POP POP JUMP JUMPDEST PUSH1 0x0 PUSH1 0x20 DUP3 ADD SWAP1 POP PUSH2 0x4B1 PUSH1 0x0 DUP4 ADD DUP5 PUSH2 0x3E4 JUMP JUMPDEST SWAP3 SWAP2 POP POP JUMP JUMPDEST PUSH1 0x0 DUP2 MLOAD SWAP1 POP SWAP2 SWAP1 POP JUMP JUMPDEST PUSH1 0x0 DUP3 DUP3 MSTORE PUSH1 0x20 DUP3 ADD SWAP1 POP SWAP3 SWAP2 POP POP JUMP JUMPDEST PUSH1 0x0 PUSH2 0x4DE DUP3 PUSH2 0x53A JUMP JUMPDEST SWAP1 POP SWAP2 SWAP1 POP JUMP JUMPDEST PUSH1 0x0 DUP2 ISZERO ISZERO SWAP1 POP SWAP2 SWAP1 POP JUMP JUMPDEST PUSH1 0x0 PUSH32 0xFFFFFFFFFFFFFFFFFFFFFFFFFFFFFFFFFFFFFFFF000000000000000000000000 DUP3 AND SWAP1 POP SWAP2 SWAP1 POP JUMP JUMPDEST PUSH1 0x0 DUP2 SWAP1 POP SWAP2 SWAP1 POP JUMP JUMPDEST PUSH1 0x0 DUP2 SWAP1 POP PUSH2 0x535 DUP3 PUSH2 0x64D JUMP JUMPDEST SWAP2 SWAP1 POP JUMP JUMPDEST PUSH1 0x0 PUSH20 0xFFFFFFFFFFFFFFFFFFFFFFFFFFFFFFFFFFFFFFFF DUP3 AND SWAP1 POP SWAP2 SWAP1 POP JUMP JUMPDEST PUSH1 0x0 PUSH1 0xFF DUP3 AND SWAP1 POP SWAP2 SWAP1 POP JUMP JUMPDEST PUSH1 0x0 PUSH2 0x572 DUP3 PUSH2 0x527 JUMP JUMPDEST SWAP1 POP SWAP2 SWAP1 POP JUMP JUMPDEST PUSH1 0x0 JUMPDEST DUP4 DUP2 LT ISZERO PUSH2 0x597 JUMPI DUP1 DUP3 ADD MLOAD DUP2 DUP5 ADD MSTORE PUSH1 0x20 DUP2 ADD SWAP1 POP PUSH2 0x57C JUMP JUMPDEST DUP4 DUP2 GT ISZERO PUSH2 0x5A6 JUMPI PUSH1 0x0 DUP5 DUP5 ADD MSTORE JUMPDEST POP POP POP POP JUMP JUMPDEST PUSH1 0x0 PUSH1 0x2 DUP3 DIV SWAP1 POP PUSH1 0x1 DUP3 AND DUP1 PUSH2 0x5C4 JUMPI PUSH1 0x7F DUP3 AND SWAP2 POP JUMPDEST PUSH1 0x20 DUP3 LT DUP2 EQ ISZERO PUSH2 0x5D8 JUMPI PUSH2 0x5D7 PUSH2 0x60D JUMP JUMPDEST JUMPDEST POP SWAP2 SWAP1 POP JUMP JUMPDEST PUSH32 0x4E487B7100000000000000000000000000000000000000000000000000000000 PUSH1 0x0 MSTORE PUSH1 0x21 PUSH1 0x4 MSTORE PUSH1 0x24 PUSH1 0x0 REVERT JUMPDEST PUSH32 0x4E487B7100000000000000000000000000000000000000000000000000000000 PUSH1 0x0 MSTORE PUSH1 0x22 PUSH1 0x4 MSTORE PUSH1 0x24 PUSH1 0x0 REVERT JUMPDEST PUSH1 0x0 PUSH1 0x1F NOT PUSH1 0x1F DUP4 ADD AND SWAP1 POP SWAP2 SWAP1 POP JUMP JUMPDEST PUSH1 0x2 DUP2 LT PUSH2 0x65E JUMPI PUSH2 0x65D PUSH2 0x5DE JUMP JUMPDEST JUMPDEST POP JUMP INVALID LOG2 PUSH5 0x6970667358 0x22 SLT KECCAK256 0xC3 0x27 0x4C 0xE8 STOP 0xDA DUP2 0xC4 0x1E EXTCODESIZE PUSH32 0x4C30DC69E54AE197C9BD625170F3CEA49269389F9364736F6C63430008070033 "
				},
				"gasEstimates": {
					"creation": {
						"codeDepositCost": "337400",
						"executionCost": "infinite",
						"totalCost": "infinite"
					},
					"external": {
						"_true()": "2516",
						"address_1()": "2580",
						"address_2()": "2515",
						"b()": "2588",
						"displayState()": "2707",
						"hashing_keccak256()": "2452",
						"hashing_ripemd160()": "2471",
						"hashing_sha256()": "2539",
						"str()": "infinite",
						"trueOFF()": "24503",
						"trueOn()": "24525"
					}
				},
				"methodIdentifiers": {
					"_true()": "312a4c9c",
					"address_1()": "ad0a93bc",
					"address_2()": "1216d176",
					"b()": "4df7e3d0",
					"displayState()": "7272eea1",
					"hashing_keccak256()": "2b73648d",
					"hashing_ripemd160()": "7a68ef7f",
					"hashing_sha256()": "c7109d04",
					"str()": "c15bae84",
					"trueOFF()": "7c3baa18",
					"trueOn()": "a2bdcc8c"
				}
			},
			"storageLayout": {
				"storage": [
					{
						"astId": 3,
						"contract": "Contracts/tiposVariable.sol:Variables_modifiers",
						"label": "a",
						"offset": 0,
						"slot": "0",
						"type": "t_uint8"
					},
					{
						"astId": 6,
						"contract": "Contracts/tiposVariable.sol:Variables_modifiers",
						"label": "b",
						"offset": 1,
						"slot": "0",
						"type": "t_uint8"
					},
					{
						"astId": 8,
						"contract": "Contracts/tiposVariable.sol:Variables_modifiers",
						"label": "c",
						"offset": 0,
						"slot": "1",
						"type": "t_int256"
					},
					{
						"astId": 12,
						"contract": "Contracts/tiposVariable.sol:Variables_modifiers",
						"label": "d",
						"offset": 0,
						"slot": "2",
						"type": "t_int8"
					},
					{
						"astId": 15,
						"contract": "Contracts/tiposVariable.sol:Variables_modifiers",
						"label": "e",
						"offset": 0,
						"slot": "3",
						"type": "t_int256"
					},
					{
						"astId": 18,
						"contract": "Contracts/tiposVariable.sol:Variables_modifiers",
						"label": "str",
						"offset": 0,
						"slot": "4",
						"type": "t_string_storage"
					},
					{
						"astId": 21,
						"contract": "Contracts/tiposVariable.sol:Variables_modifiers",
						"label": "str1",
						"offset": 0,
						"slot": "5",
						"type": "t_string_storage"
					},
					{
						"astId": 24,
						"contract": "Contracts/tiposVariable.sol:Variables_modifiers",
						"label": "_true",
						"offset": 0,
						"slot": "6",
						"type": "t_bool"
					},
					{
						"astId": 27,
						"contract": "Contracts/tiposVariable.sol:Variables_modifiers",
						"label": "_false",
						"offset": 1,
						"slot": "6",
						"type": "t_bool"
					},
					{
						"astId": 29,
						"contract": "Contracts/tiposVariable.sol:Variables_modifiers",
						"label": "first_byte",
						"offset": 0,
						"slot": "7",
						"type": "t_bytes_storage"
					},
					{
						"astId": 42,
						"contract": "Contracts/tiposVariable.sol:Variables_modifiers",
						"label": "hashing_keccak256",
						"offset": 0,
						"slot": "8",
						"type": "t_bytes32"
					},
					{
						"astId": 51,
						"contract": "Contracts/tiposVariable.sol:Variables_modifiers",
						"label": "hashing_sha256",
						"offset": 0,
						"slot": "9",
						"type": "t_bytes32"
					},
					{
						"astId": 60,
						"contract": "Contracts/tiposVariable.sol:Variables_modifiers",
						"label": "hashing_ripemd160",
						"offset": 0,
						"slot": "10",
						"type": "t_bytes20"
					},
					{
						"astId": 62,
						"contract": "Contracts/tiposVariable.sol:Variables_modifiers",
						"label": "my_address",
						"offset": 0,
						"slot": "11",
						"type": "t_address"
					},
					{
						"astId": 65,
						"contract": "Contracts/tiposVariable.sol:Variables_modifiers",
						"label": "address_1",
						"offset": 0,
						"slot": "12",
						"type": "t_address"
					},
					{
						"astId": 69,
						"contract": "Contracts/tiposVariable.sol:Variables_modifiers",
						"label": "address_2",
						"offset": 0,
						"slot": "13",
						"type": "t_address"
					},
					{
						"astId": 75,
						"contract": "Contracts/tiposVariable.sol:Variables_modifiers",
						"label": "state",
						"offset": 20,
						"slot": "13",
						"type": "t_enum(options)72"
					}
				],
				"types": {
					"t_address": {
						"encoding": "inplace",
						"label": "address",
						"numberOfBytes": "20"
					},
					"t_bool": {
						"encoding": "inplace",
						"label": "bool",
						"numberOfBytes": "1"
					},
					"t_bytes20": {
						"encoding": "inplace",
						"label": "bytes20",
						"numberOfBytes": "20"
					},
					"t_bytes32": {
						"encoding": "inplace",
						"label": "bytes32",
						"numberOfBytes": "32"
					},
					"t_bytes_storage": {
						"encoding": "bytes",
						"label": "bytes",
						"numberOfBytes": "32"
					},
					"t_enum(options)72": {
						"encoding": "inplace",
						"label": "enum Variables_modifiers.options",
						"numberOfBytes": "1"
					},
					"t_int256": {
						"encoding": "inplace",
						"label": "int256",
						"numberOfBytes": "32"
					},
					"t_int8": {
						"encoding": "inplace",
						"label": "int8",
						"numberOfBytes": "1"
					},
					"t_string_storage": {
						"encoding": "bytes",
						"label": "string",
						"numberOfBytes": "32"
					},
					"t_uint8": {
						"encoding": "inplace",
						"label": "uint8",
						"numberOfBytes": "1"
					}
				}
			},
			"userdoc": {
				"kind": "user",
				"methods": {},
				"version": 1
			}
		}
	}
}