{
	"Contracts/funcionPayable.sol": {
		"ethSend": {
			"abi": [
				{
					"inputs": [],
					"stateMutability": "payable",
					"type": "constructor"
				},
				{
					"anonymous": false,
					"inputs": [
						{
							"indexed": false,
							"internalType": "bool",
							"name": "",
							"type": "bool"
						},
						{
							"indexed": false,
							"internalType": "bytes",
							"name": "",
							"type": "bytes"
						}
					],
					"name": "callStatus",
					"type": "event"
				},
				{
					"anonymous": false,
					"inputs": [
						{
							"indexed": false,
							"internalType": "bool",
							"name": "",
							"type": "bool"
						}
					],
					"name": "sendStatus",
					"type": "event"
				},
				{
					"inputs": [
						{
							"internalType": "address payable",
							"name": "_to",
							"type": "address"
						}
					],
					"name": "sendCall",
					"outputs": [],
					"stateMutability": "payable",
					"type": "function"
				},
				{
					"inputs": [
						{
							"internalType": "address payable",
							"name": "_to",
							"type": "address"
						}
					],
					"name": "sendViaSend",
					"outputs": [],
					"stateMutability": "payable",
					"type": "function"
				},
				{
					"inputs": [
						{
							"internalType": "address payable",
							"name": "_to",
							"type": "address"
						}
					],
					"name": "sendViaTransfer",
					"outputs": [],
					"stateMutability": "payable",
					"type": "function"
				},
				{
					"stateMutability": "payable",
					"type": "receive"
				}
			],
			"devdoc": {
				"kind": "dev",
				"methods": {},
				"version": 1
			},
			"evm": {
				"assembly": "    /* \"Contracts/funcionPayable.sol\":83:614  contract ethSend {\r... */\n  mstore(0x40, 0x80)\n  dataSize(sub_0)\n  dup1\n  dataOffset(sub_0)\n  0x00\n  codecopy\n  0x00\n  return\nstop\n\nsub_0: assembly {\n        /* \"Contracts/funcionPayable.sol\":83:614  contract ethSend {\r... */\n      mstore(0x40, 0x80)\n      jumpi(tag_1, lt(calldatasize, 0x04))\n      shr(0xe0, calldataload(0x00))\n      dup1\n      0x636e082b\n      eq\n      tag_3\n      jumpi\n      dup1\n      0x71369d5c\n      eq\n      tag_4\n      jumpi\n      dup1\n      0x74be4806\n      eq\n      tag_5\n      jumpi\n      jump(tag_2)\n    tag_1:\n      jumpi(tag_2, calldatasize)\n      stop\n    tag_2:\n      0x00\n      dup1\n      revert\n        /* \"Contracts/funcionPayable.sol\":243:343  function sendViaTransfer(address payable _to) public payable {\r... */\n    tag_3:\n      tag_8\n      0x04\n      dup1\n      calldatasize\n      sub\n      dup2\n      add\n      swap1\n      tag_9\n      swap2\n      swap1\n      tag_10\n      jump\t// in\n    tag_9:\n      tag_11\n      jump\t// in\n    tag_8:\n      stop\n        /* \"Contracts/funcionPayable.sol\":539:611  function sendCall(address payable _to) public payable {\r... */\n    tag_4:\n      tag_12\n      0x04\n      dup1\n      calldatasize\n      sub\n      dup2\n      add\n      swap1\n      tag_13\n      swap2\n      swap1\n      tag_10\n      jump\t// in\n    tag_13:\n      tag_14\n      jump\t// in\n    tag_12:\n      stop\n        /* \"Contracts/funcionPayable.sol\":349:533  function sendViaSend(address payable _to) public payable {\r... */\n    tag_5:\n      tag_15\n      0x04\n      dup1\n      calldatasize\n      sub\n      dup2\n      add\n      swap1\n      tag_16\n      swap2\n      swap1\n      tag_10\n      jump\t// in\n    tag_16:\n      tag_17\n      jump\t// in\n    tag_15:\n      stop\n        /* \"Contracts/funcionPayable.sol\":243:343  function sendViaTransfer(address payable _to) public payable {\r... */\n    tag_11:\n        /* \"Contracts/funcionPayable.sol\":314:317  _to */\n      dup1\n        /* \"Contracts/funcionPayable.sol\":314:326  _to.transfer */\n      0xffffffffffffffffffffffffffffffffffffffff\n      and\n        /* \"Contracts/funcionPayable.sol\":314:335  _to.transfer(1 ether) */\n      0x08fc\n        /* \"Contracts/funcionPayable.sol\":327:334  1 ether */\n      0x0de0b6b3a7640000\n        /* \"Contracts/funcionPayable.sol\":314:335  _to.transfer(1 ether) */\n      swap1\n      dup2\n      iszero\n      mul\n      swap1\n      mload(0x40)\n      0x00\n      mload(0x40)\n      dup1\n      dup4\n      sub\n      dup2\n      dup6\n      dup9\n      dup9\n      call\n      swap4\n      pop\n      pop\n      pop\n      pop\n      iszero\n      dup1\n      iszero\n      tag_20\n      jumpi\n      returndatasize\n      0x00\n      dup1\n      returndatacopy\n      revert(0x00, returndatasize)\n    tag_20:\n      pop\n        /* \"Contracts/funcionPayable.sol\":243:343  function sendViaTransfer(address payable _to) public payable {\r... */\n      pop\n      jump\t// out\n        /* \"Contracts/funcionPayable.sol\":539:611  function sendCall(address payable _to) public payable {\r... */\n    tag_14:\n      pop\n      jump\t// out\n        /* \"Contracts/funcionPayable.sol\":349:533  function sendViaSend(address payable _to) public payable {\r... */\n    tag_17:\n        /* \"Contracts/funcionPayable.sol\":418:427  bool sent */\n      0x00\n        /* \"Contracts/funcionPayable.sol\":430:433  _to */\n      dup2\n        /* \"Contracts/funcionPayable.sol\":430:438  _to.send */\n      0xffffffffffffffffffffffffffffffffffffffff\n      and\n        /* \"Contracts/funcionPayable.sol\":430:447  _to.send(1 ether) */\n      0x08fc\n        /* \"Contracts/funcionPayable.sol\":439:446  1 ether */\n      0x0de0b6b3a7640000\n        /* \"Contracts/funcionPayable.sol\":430:447  _to.send(1 ether) */\n      swap1\n      dup2\n      iszero\n      mul\n      swap1\n      mload(0x40)\n      0x00\n      mload(0x40)\n      dup1\n      dup4\n      sub\n      dup2\n      dup6\n      dup9\n      dup9\n      call\n      swap4\n      pop\n      pop\n      pop\n      pop\n        /* \"Contracts/funcionPayable.sol\":418:447  bool sent = _to.send(1 ether) */\n      swap1\n      pop\n        /* \"Contracts/funcionPayable.sol\":463:479  sendStatus(sent) */\n      0x0c46a72a145bed1fc3c2d4b0e023bd11ddb1e3204a898f4119357ecde6d5fe99\n        /* \"Contracts/funcionPayable.sol\":474:478  sent */\n      dup2\n        /* \"Contracts/funcionPayable.sol\":463:479  sendStatus(sent) */\n      mload(0x40)\n      tag_24\n      swap2\n      swap1\n      tag_25\n      jump\t// in\n    tag_24:\n      mload(0x40)\n      dup1\n      swap2\n      sub\n      swap1\n      log1\n        /* \"Contracts/funcionPayable.sol\":506:510  true */\n      0x01\n        /* \"Contracts/funcionPayable.sol\":498:510  sent == true */\n      iszero\n      iszero\n        /* \"Contracts/funcionPayable.sol\":498:502  sent */\n      dup2\n        /* \"Contracts/funcionPayable.sol\":498:510  sent == true */\n      iszero\n      iszero\n      eq\n        /* \"Contracts/funcionPayable.sol\":490:525  require(sent == true, \"ha fallado\") */\n      tag_26\n      jumpi\n      mload(0x40)\n      0x08c379a000000000000000000000000000000000000000000000000000000000\n      dup2\n      mstore\n      0x04\n      add\n      tag_27\n      swap1\n      tag_28\n      jump\t// in\n    tag_27:\n      mload(0x40)\n      dup1\n      swap2\n      sub\n      swap1\n      revert\n    tag_26:\n        /* \"Contracts/funcionPayable.sol\":406:533  {\r... */\n      pop\n        /* \"Contracts/funcionPayable.sol\":349:533  function sendViaSend(address payable _to) public payable {\r... */\n      pop\n      jump\t// out\n        /* \"#utility.yul\":7:162   */\n    tag_30:\n        /* \"#utility.yul\":61:66   */\n      0x00\n        /* \"#utility.yul\":99:105   */\n      dup2\n        /* \"#utility.yul\":86:106   */\n      calldataload\n        /* \"#utility.yul\":77:106   */\n      swap1\n      pop\n        /* \"#utility.yul\":115:156   */\n      tag_32\n        /* \"#utility.yul\":150:155   */\n      dup2\n        /* \"#utility.yul\":115:156   */\n      tag_33\n      jump\t// in\n    tag_32:\n        /* \"#utility.yul\":7:162   */\n      swap3\n      swap2\n      pop\n      pop\n      jump\t// out\n        /* \"#utility.yul\":168:513   */\n    tag_10:\n        /* \"#utility.yul\":235:241   */\n      0x00\n        /* \"#utility.yul\":284:286   */\n      0x20\n        /* \"#utility.yul\":272:281   */\n      dup3\n        /* \"#utility.yul\":263:270   */\n      dup5\n        /* \"#utility.yul\":259:282   */\n      sub\n        /* \"#utility.yul\":255:287   */\n      slt\n        /* \"#utility.yul\":252:371   */\n      iszero\n      tag_35\n      jumpi\n        /* \"#utility.yul\":290:369   */\n      tag_36\n      tag_37\n      jump\t// in\n    tag_36:\n        /* \"#utility.yul\":252:371   */\n    tag_35:\n        /* \"#utility.yul\":410:411   */\n      0x00\n        /* \"#utility.yul\":435:496   */\n      tag_38\n        /* \"#utility.yul\":488:495   */\n      dup5\n        /* \"#utility.yul\":479:485   */\n      dup3\n        /* \"#utility.yul\":468:477   */\n      dup6\n        /* \"#utility.yul\":464:486   */\n      add\n        /* \"#utility.yul\":435:496   */\n      tag_30\n      jump\t// in\n    tag_38:\n        /* \"#utility.yul\":425:496   */\n      swap2\n      pop\n        /* \"#utility.yul\":381:506   */\n      pop\n        /* \"#utility.yul\":168:513   */\n      swap3\n      swap2\n      pop\n      pop\n      jump\t// out\n        /* \"#utility.yul\":519:628   */\n    tag_39:\n        /* \"#utility.yul\":600:621   */\n      tag_41\n        /* \"#utility.yul\":615:620   */\n      dup2\n        /* \"#utility.yul\":600:621   */\n      tag_42\n      jump\t// in\n    tag_41:\n        /* \"#utility.yul\":595:598   */\n      dup3\n        /* \"#utility.yul\":588:622   */\n      mstore\n        /* \"#utility.yul\":519:628   */\n      pop\n      pop\n      jump\t// out\n        /* \"#utility.yul\":634:1000   */\n    tag_43:\n        /* \"#utility.yul\":776:779   */\n      0x00\n        /* \"#utility.yul\":797:864   */\n      tag_45\n        /* \"#utility.yul\":861:863   */\n      0x0a\n        /* \"#utility.yul\":856:859   */\n      dup4\n        /* \"#utility.yul\":797:864   */\n      tag_46\n      jump\t// in\n    tag_45:\n        /* \"#utility.yul\":790:864   */\n      swap2\n      pop\n        /* \"#utility.yul\":873:966   */\n      tag_47\n        /* \"#utility.yul\":962:965   */\n      dup3\n        /* \"#utility.yul\":873:966   */\n      tag_48\n      jump\t// in\n    tag_47:\n        /* \"#utility.yul\":991:993   */\n      0x20\n        /* \"#utility.yul\":986:989   */\n      dup3\n        /* \"#utility.yul\":982:994   */\n      add\n        /* \"#utility.yul\":975:994   */\n      swap1\n      pop\n        /* \"#utility.yul\":634:1000   */\n      swap2\n      swap1\n      pop\n      jump\t// out\n        /* \"#utility.yul\":1006:1216   */\n    tag_25:\n        /* \"#utility.yul\":1093:1097   */\n      0x00\n        /* \"#utility.yul\":1131:1133   */\n      0x20\n        /* \"#utility.yul\":1120:1129   */\n      dup3\n        /* \"#utility.yul\":1116:1134   */\n      add\n        /* \"#utility.yul\":1108:1134   */\n      swap1\n      pop\n        /* \"#utility.yul\":1144:1209   */\n      tag_50\n        /* \"#utility.yul\":1206:1207   */\n      0x00\n        /* \"#utility.yul\":1195:1204   */\n      dup4\n        /* \"#utility.yul\":1191:1208   */\n      add\n        /* \"#utility.yul\":1182:1188   */\n      dup5\n        /* \"#utility.yul\":1144:1209   */\n      tag_39\n      jump\t// in\n    tag_50:\n        /* \"#utility.yul\":1006:1216   */\n      swap3\n      swap2\n      pop\n      pop\n      jump\t// out\n        /* \"#utility.yul\":1222:1641   */\n    tag_28:\n        /* \"#utility.yul\":1388:1392   */\n      0x00\n        /* \"#utility.yul\":1426:1428   */\n      0x20\n        /* \"#utility.yul\":1415:1424   */\n      dup3\n        /* \"#utility.yul\":1411:1429   */\n      add\n        /* \"#utility.yul\":1403:1429   */\n      swap1\n      pop\n        /* \"#utility.yul\":1475:1484   */\n      dup2\n        /* \"#utility.yul\":1469:1473   */\n      dup2\n        /* \"#utility.yul\":1465:1485   */\n      sub\n        /* \"#utility.yul\":1461:1462   */\n      0x00\n        /* \"#utility.yul\":1450:1459   */\n      dup4\n        /* \"#utility.yul\":1446:1463   */\n      add\n        /* \"#utility.yul\":1439:1486   */\n      mstore\n        /* \"#utility.yul\":1503:1634   */\n      tag_52\n        /* \"#utility.yul\":1629:1633   */\n      dup2\n        /* \"#utility.yul\":1503:1634   */\n      tag_43\n      jump\t// in\n    tag_52:\n        /* \"#utility.yul\":1495:1634   */\n      swap1\n      pop\n        /* \"#utility.yul\":1222:1641   */\n      swap2\n      swap1\n      pop\n      jump\t// out\n        /* \"#utility.yul\":1728:1897   */\n    tag_46:\n        /* \"#utility.yul\":1812:1823   */\n      0x00\n        /* \"#utility.yul\":1846:1852   */\n      dup3\n        /* \"#utility.yul\":1841:1844   */\n      dup3\n        /* \"#utility.yul\":1834:1853   */\n      mstore\n        /* \"#utility.yul\":1886:1890   */\n      0x20\n        /* \"#utility.yul\":1881:1884   */\n      dup3\n        /* \"#utility.yul\":1877:1891   */\n      add\n        /* \"#utility.yul\":1862:1891   */\n      swap1\n      pop\n        /* \"#utility.yul\":1728:1897   */\n      swap3\n      swap2\n      pop\n      pop\n      jump\t// out\n        /* \"#utility.yul\":1903:2007   */\n    tag_56:\n        /* \"#utility.yul\":1948:1955   */\n      0x00\n        /* \"#utility.yul\":1977:2001   */\n      tag_58\n        /* \"#utility.yul\":1995:2000   */\n      dup3\n        /* \"#utility.yul\":1977:2001   */\n      tag_59\n      jump\t// in\n    tag_58:\n        /* \"#utility.yul\":1966:2001   */\n      swap1\n      pop\n        /* \"#utility.yul\":1903:2007   */\n      swap2\n      swap1\n      pop\n      jump\t// out\n        /* \"#utility.yul\":2013:2103   */\n    tag_42:\n        /* \"#utility.yul\":2047:2054   */\n      0x00\n        /* \"#utility.yul\":2090:2095   */\n      dup2\n        /* \"#utility.yul\":2083:2096   */\n      iszero\n        /* \"#utility.yul\":2076:2097   */\n      iszero\n        /* \"#utility.yul\":2065:2097   */\n      swap1\n      pop\n        /* \"#utility.yul\":2013:2103   */\n      swap2\n      swap1\n      pop\n      jump\t// out\n        /* \"#utility.yul\":2109:2235   */\n    tag_59:\n        /* \"#utility.yul\":2146:2153   */\n      0x00\n        /* \"#utility.yul\":2186:2228   */\n      0xffffffffffffffffffffffffffffffffffffffff\n        /* \"#utility.yul\":2179:2184   */\n      dup3\n        /* \"#utility.yul\":2175:2229   */\n      and\n        /* \"#utility.yul\":2164:2229   */\n      swap1\n      pop\n        /* \"#utility.yul\":2109:2235   */\n      swap2\n      swap1\n      pop\n      jump\t// out\n        /* \"#utility.yul\":2364:2481   */\n    tag_37:\n        /* \"#utility.yul\":2473:2474   */\n      0x00\n        /* \"#utility.yul\":2470:2471   */\n      dup1\n        /* \"#utility.yul\":2463:2475   */\n      revert\n        /* \"#utility.yul\":2487:2647   */\n    tag_48:\n        /* \"#utility.yul\":2627:2639   */\n      0x68612066616c6c61646f00000000000000000000000000000000000000000000\n        /* \"#utility.yul\":2623:2624   */\n      0x00\n        /* \"#utility.yul\":2615:2621   */\n      dup3\n        /* \"#utility.yul\":2611:2625   */\n      add\n        /* \"#utility.yul\":2604:2640   */\n      mstore\n        /* \"#utility.yul\":2487:2647   */\n      pop\n      jump\t// out\n        /* \"#utility.yul\":2653:2791   */\n    tag_33:\n        /* \"#utility.yul\":2734:2766   */\n      tag_67\n        /* \"#utility.yul\":2760:2765   */\n      dup2\n        /* \"#utility.yul\":2734:2766   */\n      tag_56\n      jump\t// in\n    tag_67:\n        /* \"#utility.yul\":2727:2732   */\n      dup2\n        /* \"#utility.yul\":2724:2767   */\n      eq\n        /* \"#utility.yul\":2714:2785   */\n      tag_68\n      jumpi\n        /* \"#utility.yul\":2781:2782   */\n      0x00\n        /* \"#utility.yul\":2778:2779   */\n      dup1\n        /* \"#utility.yul\":2771:2783   */\n      revert\n        /* \"#utility.yul\":2714:2785   */\n    tag_68:\n        /* \"#utility.yul\":2653:2791   */\n      pop\n      jump\t// out\n\n    auxdata: 0xa26469706673582212203c6c94eeb8efe39c85405f5aefcf416d5e50a0ee191ab9d28b7ff6991f924efe64736f6c63430008070033\n}\n",
				"bytecode": {
					"linkReferences": {},
					"object": "6080604052610329806100136000396000f3fe6080604052600436106100385760003560e01c8063636e082b1461004457806371369d5c1461006057806374be48061461007c5761003f565b3661003f57005b600080fd5b61005e600480360381019061005991906101c5565b610098565b005b61007a600480360381019061007591906101c5565b6100ea565b005b610096600480360381019061009191906101c5565b6100ed565b005b8073ffffffffffffffffffffffffffffffffffffffff166108fc670de0b6b3a76400009081150290604051600060405180830381858888f193505050501580156100e6573d6000803e3d6000fd5b5050565b50565b60008173ffffffffffffffffffffffffffffffffffffffff166108fc670de0b6b3a76400009081150290604051600060405180830381858888f1935050505090507f0c46a72a145bed1fc3c2d4b0e023bd11ddb1e3204a898f4119357ecde6d5fe998160405161015d9190610224565b60405180910390a160011515811515146101ac576040517f08c379a00000000000000000000000000000000000000000000000000000000081526004016101a39061023f565b60405180910390fd5b5050565b6000813590506101bf816102dc565b92915050565b6000602082840312156101db576101da6102ae565b5b60006101e9848285016101b0565b91505092915050565b6101fb81610282565b82525050565b600061020e600a8361025f565b9150610219826102b3565b602082019050919050565b600060208201905061023960008301846101f2565b92915050565b6000602082019050818103600083015261025881610201565b9050919050565b600082825260208201905092915050565b600061027b8261028e565b9050919050565b60008115159050919050565b600073ffffffffffffffffffffffffffffffffffffffff82169050919050565b600080fd5b7f68612066616c6c61646f00000000000000000000000000000000000000000000600082015250565b6102e581610270565b81146102f057600080fd5b5056fea26469706673582212203c6c94eeb8efe39c85405f5aefcf416d5e50a0ee191ab9d28b7ff6991f924efe64736f6c63430008070033",
					"opcodes": "PUSH1 0x80 PUSH1 0x40 MSTORE PUSH2 0x329 DUP1 PUSH2 0x13 PUSH1 0x0 CODECOPY PUSH1 0x0 RETURN INVALID PUSH1 0x80 PUSH1 0x40 MSTORE PUSH1 0x4 CALLDATASIZE LT PUSH2 0x38 JUMPI PUSH1 0x0 CALLDATALOAD PUSH1 0xE0 SHR DUP1 PUSH4 0x636E082B EQ PUSH2 0x44 JUMPI DUP1 PUSH4 0x71369D5C EQ PUSH2 0x60 JUMPI DUP1 PUSH4 0x74BE4806 EQ PUSH2 0x7C JUMPI PUSH2 0x3F JUMP JUMPDEST CALLDATASIZE PUSH2 0x3F JUMPI STOP JUMPDEST PUSH1 0x0 DUP1 REVERT JUMPDEST PUSH2 0x5E PUSH1 0x4 DUP1 CALLDATASIZE SUB DUP2 ADD SWAP1 PUSH2 0x59 SWAP2 SWAP1 PUSH2 0x1C5 JUMP JUMPDEST PUSH2 0x98 JUMP JUMPDEST STOP JUMPDEST PUSH2 0x7A PUSH1 0x4 DUP1 CALLDATASIZE SUB DUP2 ADD SWAP1 PUSH2 0x75 SWAP2 SWAP1 PUSH2 0x1C5 JUMP JUMPDEST PUSH2 0xEA JUMP JUMPDEST STOP JUMPDEST PUSH2 0x96 PUSH1 0x4 DUP1 CALLDATASIZE SUB DUP2 ADD SWAP1 PUSH2 0x91 SWAP2 SWAP1 PUSH2 0x1C5 JUMP JUMPDEST PUSH2 0xED JUMP JUMPDEST STOP JUMPDEST DUP1 PUSH20 0xFFFFFFFFFFFFFFFFFFFFFFFFFFFFFFFFFFFFFFFF AND PUSH2 0x8FC PUSH8 0xDE0B6B3A7640000 SWAP1 DUP2 ISZERO MUL SWAP1 PUSH1 0x40 MLOAD PUSH1 0x0 PUSH1 0x40 MLOAD DUP1 DUP4 SUB DUP2 DUP6 DUP9 DUP9 CALL SWAP4 POP POP POP POP ISZERO DUP1 ISZERO PUSH2 0xE6 JUMPI RETURNDATASIZE PUSH1 0x0 DUP1 RETURNDATACOPY RETURNDATASIZE PUSH1 0x0 REVERT JUMPDEST POP POP JUMP JUMPDEST POP JUMP JUMPDEST PUSH1 0x0 DUP2 PUSH20 0xFFFFFFFFFFFFFFFFFFFFFFFFFFFFFFFFFFFFFFFF AND PUSH2 0x8FC PUSH8 0xDE0B6B3A7640000 SWAP1 DUP2 ISZERO MUL SWAP1 PUSH1 0x40 MLOAD PUSH1 0x0 PUSH1 0x40 MLOAD DUP1 DUP4 SUB DUP2 DUP6 DUP9 DUP9 CALL SWAP4 POP POP POP POP SWAP1 POP PUSH32 0xC46A72A145BED1FC3C2D4B0E023BD11DDB1E3204A898F4119357ECDE6D5FE99 DUP2 PUSH1 0x40 MLOAD PUSH2 0x15D SWAP2 SWAP1 PUSH2 0x224 JUMP JUMPDEST PUSH1 0x40 MLOAD DUP1 SWAP2 SUB SWAP1 LOG1 PUSH1 0x1 ISZERO ISZERO DUP2 ISZERO ISZERO EQ PUSH2 0x1AC JUMPI PUSH1 0x40 MLOAD PUSH32 0x8C379A000000000000000000000000000000000000000000000000000000000 DUP2 MSTORE PUSH1 0x4 ADD PUSH2 0x1A3 SWAP1 PUSH2 0x23F JUMP JUMPDEST PUSH1 0x40 MLOAD DUP1 SWAP2 SUB SWAP1 REVERT JUMPDEST POP POP JUMP JUMPDEST PUSH1 0x0 DUP2 CALLDATALOAD SWAP1 POP PUSH2 0x1BF DUP2 PUSH2 0x2DC JUMP JUMPDEST SWAP3 SWAP2 POP POP JUMP JUMPDEST PUSH1 0x0 PUSH1 0x20 DUP3 DUP5 SUB SLT ISZERO PUSH2 0x1DB JUMPI PUSH2 0x1DA PUSH2 0x2AE JUMP JUMPDEST JUMPDEST PUSH1 0x0 PUSH2 0x1E9 DUP5 DUP3 DUP6 ADD PUSH2 0x1B0 JUMP JUMPDEST SWAP2 POP POP SWAP3 SWAP2 POP POP JUMP JUMPDEST PUSH2 0x1FB DUP2 PUSH2 0x282 JUMP JUMPDEST DUP3 MSTORE POP POP JUMP JUMPDEST PUSH1 0x0 PUSH2 0x20E PUSH1 0xA DUP4 PUSH2 0x25F JUMP JUMPDEST SWAP2 POP PUSH2 0x219 DUP3 PUSH2 0x2B3 JUMP JUMPDEST PUSH1 0x20 DUP3 ADD SWAP1 POP SWAP2 SWAP1 POP JUMP JUMPDEST PUSH1 0x0 PUSH1 0x20 DUP3 ADD SWAP1 POP PUSH2 0x239 PUSH1 0x0 DUP4 ADD DUP5 PUSH2 0x1F2 JUMP JUMPDEST SWAP3 SWAP2 POP POP JUMP JUMPDEST PUSH1 0x0 PUSH1 0x20 DUP3 ADD SWAP1 POP DUP2 DUP2 SUB PUSH1 0x0 DUP4 ADD MSTORE PUSH2 0x258 DUP2 PUSH2 0x201 JUMP JUMPDEST SWAP1 POP SWAP2 SWAP1 POP JUMP JUMPDEST PUSH1 0x0 DUP3 DUP3 MSTORE PUSH1 0x20 DUP3 ADD SWAP1 POP SWAP3 SWAP2 POP POP JUMP JUMPDEST PUSH1 0x0 PUSH2 0x27B DUP3 PUSH2 0x28E JUMP JUMPDEST SWAP1 POP SWAP2 SWAP1 POP JUMP JUMPDEST PUSH1 0x0 DUP2 ISZERO ISZERO SWAP1 POP SWAP2 SWAP1 POP JUMP JUMPDEST PUSH1 0x0 PUSH20 0xFFFFFFFFFFFFFFFFFFFFFFFFFFFFFFFFFFFFFFFF DUP3 AND SWAP1 POP SWAP2 SWAP1 POP JUMP JUMPDEST PUSH1 0x0 DUP1 REVERT JUMPDEST PUSH32 0x68612066616C6C61646F00000000000000000000000000000000000000000000 PUSH1 0x0 DUP3 ADD MSTORE POP JUMP JUMPDEST PUSH2 0x2E5 DUP2 PUSH2 0x270 JUMP JUMPDEST DUP2 EQ PUSH2 0x2F0 JUMPI PUSH1 0x0 DUP1 REVERT JUMPDEST POP JUMP INVALID LOG2 PUSH5 0x6970667358 0x22 SLT KECCAK256 EXTCODECOPY PUSH13 0x94EEB8EFE39C85405F5AEFCF41 PUSH14 0x5E50A0EE191AB9D28B7FF6991F92 0x4E INVALID PUSH5 0x736F6C6343 STOP ADDMOD SMOD STOP CALLER "
				},
				"gasEstimates": {
					"creation": {
						"codeDepositCost": "161800",
						"executionCost": "184",
						"totalCost": "161984"
					},
					"external": {
						"sendCall(address)": "431",
						"sendViaSend(address)": "infinite",
						"sendViaTransfer(address)": "infinite"
					}
				},
				"methodIdentifiers": {
					"sendCall(address)": "71369d5c",
					"sendViaSend(address)": "74be4806",
					"sendViaTransfer(address)": "636e082b"
				}
			},
			"storageLayout": {
				"storage": [],
				"types": null
			},
			"userdoc": {
				"kind": "user",
				"methods": {},
				"version": 1
			}
		}
	}
}