{
	"Contracts/funcionPayable.sol": {
		"ethSend": {
			"abi": [
				{
					"inputs": [],
					"stateMutability": "payable",
					"type": "constructor"
				},
				{
					"anonymous": false,
					"inputs": [
						{
							"indexed": false,
							"internalType": "bool",
							"name": "",
							"type": "bool"
						},
						{
							"indexed": false,
							"internalType": "bytes",
							"name": "",
							"type": "bytes"
						}
					],
					"name": "callStatus",
					"type": "event"
				},
				{
					"anonymous": false,
					"inputs": [
						{
							"indexed": false,
							"internalType": "bool",
							"name": "",
							"type": "bool"
						}
					],
					"name": "sendStatus",
					"type": "event"
				},
				{
					"inputs": [
						{
							"internalType": "address payable",
							"name": "_to",
							"type": "address"
						}
					],
					"name": "sendViaSend",
					"outputs": [],
					"stateMutability": "payable",
					"type": "function"
				},
				{
					"inputs": [
						{
							"internalType": "address payable",
							"name": "_to",
							"type": "address"
						}
					],
					"name": "sendViaTransfer",
					"outputs": [],
					"stateMutability": "payable",
					"type": "function"
				},
				{
					"stateMutability": "payable",
					"type": "receive"
				}
			],
			"devdoc": {
				"kind": "dev",
				"methods": {},
				"version": 1
			},
			"evm": {
				"assembly": "    /* \"Contracts/funcionPayable.sol\":83:522  contract ethSend {\r... */\n  mstore(0x40, 0x80)\n  dataSize(sub_0)\n  dup1\n  dataOffset(sub_0)\n  0x00\n  codecopy\n  0x00\n  return\nstop\n\nsub_0: assembly {\n        /* \"Contracts/funcionPayable.sol\":83:522  contract ethSend {\r... */\n      mstore(0x40, 0x80)\n      jumpi(tag_1, lt(calldatasize, 0x04))\n      shr(0xe0, calldataload(0x00))\n      dup1\n      0x636e082b\n      eq\n      tag_3\n      jumpi\n      dup1\n      0x74be4806\n      eq\n      tag_4\n      jumpi\n      jump(tag_2)\n    tag_1:\n      jumpi(tag_2, calldatasize)\n      stop\n    tag_2:\n      0x00\n      dup1\n      revert\n        /* \"Contracts/funcionPayable.sol\":243:343  function sendViaTransfer(address payable _to) public payable {\r... */\n    tag_3:\n      tag_7\n      0x04\n      dup1\n      calldatasize\n      sub\n      dup2\n      add\n      swap1\n      tag_8\n      swap2\n      swap1\n      tag_9\n      jump\t// in\n    tag_8:\n      tag_10\n      jump\t// in\n    tag_7:\n      stop\n        /* \"Contracts/funcionPayable.sol\":349:519  function sendViaSend(address payable _to) public payable {\r... */\n    tag_4:\n      tag_11\n      0x04\n      dup1\n      calldatasize\n      sub\n      dup2\n      add\n      swap1\n      tag_12\n      swap2\n      swap1\n      tag_9\n      jump\t// in\n    tag_12:\n      tag_13\n      jump\t// in\n    tag_11:\n      stop\n        /* \"Contracts/funcionPayable.sol\":243:343  function sendViaTransfer(address payable _to) public payable {\r... */\n    tag_10:\n        /* \"Contracts/funcionPayable.sol\":314:317  _to */\n      dup1\n        /* \"Contracts/funcionPayable.sol\":314:326  _to.transfer */\n      0xffffffffffffffffffffffffffffffffffffffff\n      and\n        /* \"Contracts/funcionPayable.sol\":314:335  _to.transfer(1 ether) */\n      0x08fc\n        /* \"Contracts/funcionPayable.sol\":327:334  1 ether */\n      0x0de0b6b3a7640000\n        /* \"Contracts/funcionPayable.sol\":314:335  _to.transfer(1 ether) */\n      swap1\n      dup2\n      iszero\n      mul\n      swap1\n      mload(0x40)\n      0x00\n      mload(0x40)\n      dup1\n      dup4\n      sub\n      dup2\n      dup6\n      dup9\n      dup9\n      call\n      swap4\n      pop\n      pop\n      pop\n      pop\n      iszero\n      dup1\n      iszero\n      tag_16\n      jumpi\n      returndatasize\n      0x00\n      dup1\n      returndatacopy\n      revert(0x00, returndatasize)\n    tag_16:\n      pop\n        /* \"Contracts/funcionPayable.sol\":243:343  function sendViaTransfer(address payable _to) public payable {\r... */\n      pop\n      jump\t// out\n        /* \"Contracts/funcionPayable.sol\":349:519  function sendViaSend(address payable _to) public payable {\r... */\n    tag_13:\n        /* \"Contracts/funcionPayable.sol\":418:427  bool sent */\n      0x00\n        /* \"Contracts/funcionPayable.sol\":430:433  _to */\n      dup2\n        /* \"Contracts/funcionPayable.sol\":430:438  _to.send */\n      0xffffffffffffffffffffffffffffffffffffffff\n      and\n        /* \"Contracts/funcionPayable.sol\":430:447  _to.send(1 ether) */\n      0x08fc\n        /* \"Contracts/funcionPayable.sol\":439:446  1 ether */\n      0x0de0b6b3a7640000\n        /* \"Contracts/funcionPayable.sol\":430:447  _to.send(1 ether) */\n      swap1\n      dup2\n      iszero\n      mul\n      swap1\n      mload(0x40)\n      0x00\n      mload(0x40)\n      dup1\n      dup4\n      sub\n      dup2\n      dup6\n      dup9\n      dup9\n      call\n      swap4\n      pop\n      pop\n      pop\n      pop\n        /* \"Contracts/funcionPayable.sol\":418:447  bool sent = _to.send(1 ether) */\n      swap1\n      pop\n        /* \"Contracts/funcionPayable.sol\":463:479  sendStatus(sent) */\n      0x0c46a72a145bed1fc3c2d4b0e023bd11ddb1e3204a898f4119357ecde6d5fe99\n        /* \"Contracts/funcionPayable.sol\":474:478  sent */\n      dup2\n        /* \"Contracts/funcionPayable.sol\":463:479  sendStatus(sent) */\n      mload(0x40)\n      tag_19\n      swap2\n      swap1\n      tag_20\n      jump\t// in\n    tag_19:\n      mload(0x40)\n      dup1\n      swap2\n      sub\n      swap1\n      log1\n        /* \"Contracts/funcionPayable.sol\":506:510  true */\n      0x01\n        /* \"Contracts/funcionPayable.sol\":498:510  sent == true */\n      iszero\n      iszero\n        /* \"Contracts/funcionPayable.sol\":498:502  sent */\n      dup2\n        /* \"Contracts/funcionPayable.sol\":498:510  sent == true */\n      iszero\n      iszero\n      eq\n        /* \"Contracts/funcionPayable.sol\":490:511  require(sent == true) */\n      tag_21\n      jumpi\n      0x00\n      dup1\n      revert\n    tag_21:\n        /* \"Contracts/funcionPayable.sol\":406:519  {\r... */\n      pop\n        /* \"Contracts/funcionPayable.sol\":349:519  function sendViaSend(address payable _to) public payable {\r... */\n      pop\n      jump\t// out\n        /* \"#utility.yul\":7:162   */\n    tag_23:\n        /* \"#utility.yul\":61:66   */\n      0x00\n        /* \"#utility.yul\":99:105   */\n      dup2\n        /* \"#utility.yul\":86:106   */\n      calldataload\n        /* \"#utility.yul\":77:106   */\n      swap1\n      pop\n        /* \"#utility.yul\":115:156   */\n      tag_25\n        /* \"#utility.yul\":150:155   */\n      dup2\n        /* \"#utility.yul\":115:156   */\n      tag_26\n      jump\t// in\n    tag_25:\n        /* \"#utility.yul\":7:162   */\n      swap3\n      swap2\n      pop\n      pop\n      jump\t// out\n        /* \"#utility.yul\":168:513   */\n    tag_9:\n        /* \"#utility.yul\":235:241   */\n      0x00\n        /* \"#utility.yul\":284:286   */\n      0x20\n        /* \"#utility.yul\":272:281   */\n      dup3\n        /* \"#utility.yul\":263:270   */\n      dup5\n        /* \"#utility.yul\":259:282   */\n      sub\n        /* \"#utility.yul\":255:287   */\n      slt\n        /* \"#utility.yul\":252:371   */\n      iszero\n      tag_28\n      jumpi\n        /* \"#utility.yul\":290:369   */\n      tag_29\n      tag_30\n      jump\t// in\n    tag_29:\n        /* \"#utility.yul\":252:371   */\n    tag_28:\n        /* \"#utility.yul\":410:411   */\n      0x00\n        /* \"#utility.yul\":435:496   */\n      tag_31\n        /* \"#utility.yul\":488:495   */\n      dup5\n        /* \"#utility.yul\":479:485   */\n      dup3\n        /* \"#utility.yul\":468:477   */\n      dup6\n        /* \"#utility.yul\":464:486   */\n      add\n        /* \"#utility.yul\":435:496   */\n      tag_23\n      jump\t// in\n    tag_31:\n        /* \"#utility.yul\":425:496   */\n      swap2\n      pop\n        /* \"#utility.yul\":381:506   */\n      pop\n        /* \"#utility.yul\":168:513   */\n      swap3\n      swap2\n      pop\n      pop\n      jump\t// out\n        /* \"#utility.yul\":519:628   */\n    tag_32:\n        /* \"#utility.yul\":600:621   */\n      tag_34\n        /* \"#utility.yul\":615:620   */\n      dup2\n        /* \"#utility.yul\":600:621   */\n      tag_35\n      jump\t// in\n    tag_34:\n        /* \"#utility.yul\":595:598   */\n      dup3\n        /* \"#utility.yul\":588:622   */\n      mstore\n        /* \"#utility.yul\":519:628   */\n      pop\n      pop\n      jump\t// out\n        /* \"#utility.yul\":634:844   */\n    tag_20:\n        /* \"#utility.yul\":721:725   */\n      0x00\n        /* \"#utility.yul\":759:761   */\n      0x20\n        /* \"#utility.yul\":748:757   */\n      dup3\n        /* \"#utility.yul\":744:762   */\n      add\n        /* \"#utility.yul\":736:762   */\n      swap1\n      pop\n        /* \"#utility.yul\":772:837   */\n      tag_37\n        /* \"#utility.yul\":834:835   */\n      0x00\n        /* \"#utility.yul\":823:832   */\n      dup4\n        /* \"#utility.yul\":819:836   */\n      add\n        /* \"#utility.yul\":810:816   */\n      dup5\n        /* \"#utility.yul\":772:837   */\n      tag_32\n      jump\t// in\n    tag_37:\n        /* \"#utility.yul\":634:844   */\n      swap3\n      swap2\n      pop\n      pop\n      jump\t// out\n        /* \"#utility.yul\":931:1035   */\n    tag_40:\n        /* \"#utility.yul\":976:983   */\n      0x00\n        /* \"#utility.yul\":1005:1029   */\n      tag_42\n        /* \"#utility.yul\":1023:1028   */\n      dup3\n        /* \"#utility.yul\":1005:1029   */\n      tag_43\n      jump\t// in\n    tag_42:\n        /* \"#utility.yul\":994:1029   */\n      swap1\n      pop\n        /* \"#utility.yul\":931:1035   */\n      swap2\n      swap1\n      pop\n      jump\t// out\n        /* \"#utility.yul\":1041:1131   */\n    tag_35:\n        /* \"#utility.yul\":1075:1082   */\n      0x00\n        /* \"#utility.yul\":1118:1123   */\n      dup2\n        /* \"#utility.yul\":1111:1124   */\n      iszero\n        /* \"#utility.yul\":1104:1125   */\n      iszero\n        /* \"#utility.yul\":1093:1125   */\n      swap1\n      pop\n        /* \"#utility.yul\":1041:1131   */\n      swap2\n      swap1\n      pop\n      jump\t// out\n        /* \"#utility.yul\":1137:1263   */\n    tag_43:\n        /* \"#utility.yul\":1174:1181   */\n      0x00\n        /* \"#utility.yul\":1214:1256   */\n      0xffffffffffffffffffffffffffffffffffffffff\n        /* \"#utility.yul\":1207:1212   */\n      dup3\n        /* \"#utility.yul\":1203:1257   */\n      and\n        /* \"#utility.yul\":1192:1257   */\n      swap1\n      pop\n        /* \"#utility.yul\":1137:1263   */\n      swap2\n      swap1\n      pop\n      jump\t// out\n        /* \"#utility.yul\":1392:1509   */\n    tag_30:\n        /* \"#utility.yul\":1501:1502   */\n      0x00\n        /* \"#utility.yul\":1498:1499   */\n      dup1\n        /* \"#utility.yul\":1491:1503   */\n      revert\n        /* \"#utility.yul\":1515:1653   */\n    tag_26:\n        /* \"#utility.yul\":1596:1628   */\n      tag_50\n        /* \"#utility.yul\":1622:1627   */\n      dup2\n        /* \"#utility.yul\":1596:1628   */\n      tag_40\n      jump\t// in\n    tag_50:\n        /* \"#utility.yul\":1589:1594   */\n      dup2\n        /* \"#utility.yul\":1586:1629   */\n      eq\n        /* \"#utility.yul\":1576:1647   */\n      tag_51\n      jumpi\n        /* \"#utility.yul\":1643:1644   */\n      0x00\n        /* \"#utility.yul\":1640:1641   */\n      dup1\n        /* \"#utility.yul\":1633:1645   */\n      revert\n        /* \"#utility.yul\":1576:1647   */\n    tag_51:\n        /* \"#utility.yul\":1515:1653   */\n      pop\n      jump\t// out\n\n    auxdata: 0xa2646970667358221220890e038896e2c708181c0d777e6e35dfd28ff46e16f8cffffa96ed956c1e8dc864736f6c63430008070033\n}\n",
				"bytecode": {
					"linkReferences": {},
					"object": "608060405261024c806100136000396000f3fe60806040526004361061002d5760003560e01c8063636e082b1461003957806374be48061461005557610034565b3661003457005b600080fd5b610053600480360381019061004e9190610165565b610071565b005b61006f600480360381019061006a9190610165565b6100c3565b005b8073ffffffffffffffffffffffffffffffffffffffff166108fc670de0b6b3a76400009081150290604051600060405180830381858888f193505050501580156100bf573d6000803e3d6000fd5b5050565b60008173ffffffffffffffffffffffffffffffffffffffff166108fc670de0b6b3a76400009081150290604051600060405180830381858888f1935050505090507f0c46a72a145bed1fc3c2d4b0e023bd11ddb1e3204a898f4119357ecde6d5fe998160405161013391906101a1565b60405180910390a1600115158115151461014c57600080fd5b5050565b60008135905061015f816101ff565b92915050565b60006020828403121561017b5761017a6101fa565b5b600061018984828501610150565b91505092915050565b61019b816101ce565b82525050565b60006020820190506101b66000830184610192565b92915050565b60006101c7826101da565b9050919050565b60008115159050919050565b600073ffffffffffffffffffffffffffffffffffffffff82169050919050565b600080fd5b610208816101bc565b811461021357600080fd5b5056fea2646970667358221220890e038896e2c708181c0d777e6e35dfd28ff46e16f8cffffa96ed956c1e8dc864736f6c63430008070033",
					"opcodes": "PUSH1 0x80 PUSH1 0x40 MSTORE PUSH2 0x24C DUP1 PUSH2 0x13 PUSH1 0x0 CODECOPY PUSH1 0x0 RETURN INVALID PUSH1 0x80 PUSH1 0x40 MSTORE PUSH1 0x4 CALLDATASIZE LT PUSH2 0x2D JUMPI PUSH1 0x0 CALLDATALOAD PUSH1 0xE0 SHR DUP1 PUSH4 0x636E082B EQ PUSH2 0x39 JUMPI DUP1 PUSH4 0x74BE4806 EQ PUSH2 0x55 JUMPI PUSH2 0x34 JUMP JUMPDEST CALLDATASIZE PUSH2 0x34 JUMPI STOP JUMPDEST PUSH1 0x0 DUP1 REVERT JUMPDEST PUSH2 0x53 PUSH1 0x4 DUP1 CALLDATASIZE SUB DUP2 ADD SWAP1 PUSH2 0x4E SWAP2 SWAP1 PUSH2 0x165 JUMP JUMPDEST PUSH2 0x71 JUMP JUMPDEST STOP JUMPDEST PUSH2 0x6F PUSH1 0x4 DUP1 CALLDATASIZE SUB DUP2 ADD SWAP1 PUSH2 0x6A SWAP2 SWAP1 PUSH2 0x165 JUMP JUMPDEST PUSH2 0xC3 JUMP JUMPDEST STOP JUMPDEST DUP1 PUSH20 0xFFFFFFFFFFFFFFFFFFFFFFFFFFFFFFFFFFFFFFFF AND PUSH2 0x8FC PUSH8 0xDE0B6B3A7640000 SWAP1 DUP2 ISZERO MUL SWAP1 PUSH1 0x40 MLOAD PUSH1 0x0 PUSH1 0x40 MLOAD DUP1 DUP4 SUB DUP2 DUP6 DUP9 DUP9 CALL SWAP4 POP POP POP POP ISZERO DUP1 ISZERO PUSH2 0xBF JUMPI RETURNDATASIZE PUSH1 0x0 DUP1 RETURNDATACOPY RETURNDATASIZE PUSH1 0x0 REVERT JUMPDEST POP POP JUMP JUMPDEST PUSH1 0x0 DUP2 PUSH20 0xFFFFFFFFFFFFFFFFFFFFFFFFFFFFFFFFFFFFFFFF AND PUSH2 0x8FC PUSH8 0xDE0B6B3A7640000 SWAP1 DUP2 ISZERO MUL SWAP1 PUSH1 0x40 MLOAD PUSH1 0x0 PUSH1 0x40 MLOAD DUP1 DUP4 SUB DUP2 DUP6 DUP9 DUP9 CALL SWAP4 POP POP POP POP SWAP1 POP PUSH32 0xC46A72A145BED1FC3C2D4B0E023BD11DDB1E3204A898F4119357ECDE6D5FE99 DUP2 PUSH1 0x40 MLOAD PUSH2 0x133 SWAP2 SWAP1 PUSH2 0x1A1 JUMP JUMPDEST PUSH1 0x40 MLOAD DUP1 SWAP2 SUB SWAP1 LOG1 PUSH1 0x1 ISZERO ISZERO DUP2 ISZERO ISZERO EQ PUSH2 0x14C JUMPI PUSH1 0x0 DUP1 REVERT JUMPDEST POP POP JUMP JUMPDEST PUSH1 0x0 DUP2 CALLDATALOAD SWAP1 POP PUSH2 0x15F DUP2 PUSH2 0x1FF JUMP JUMPDEST SWAP3 SWAP2 POP POP JUMP JUMPDEST PUSH1 0x0 PUSH1 0x20 DUP3 DUP5 SUB SLT ISZERO PUSH2 0x17B JUMPI PUSH2 0x17A PUSH2 0x1FA JUMP JUMPDEST JUMPDEST PUSH1 0x0 PUSH2 0x189 DUP5 DUP3 DUP6 ADD PUSH2 0x150 JUMP JUMPDEST SWAP2 POP POP SWAP3 SWAP2 POP POP JUMP JUMPDEST PUSH2 0x19B DUP2 PUSH2 0x1CE JUMP JUMPDEST DUP3 MSTORE POP POP JUMP JUMPDEST PUSH1 0x0 PUSH1 0x20 DUP3 ADD SWAP1 POP PUSH2 0x1B6 PUSH1 0x0 DUP4 ADD DUP5 PUSH2 0x192 JUMP JUMPDEST SWAP3 SWAP2 POP POP JUMP JUMPDEST PUSH1 0x0 PUSH2 0x1C7 DUP3 PUSH2 0x1DA JUMP JUMPDEST SWAP1 POP SWAP2 SWAP1 POP JUMP JUMPDEST PUSH1 0x0 DUP2 ISZERO ISZERO SWAP1 POP SWAP2 SWAP1 POP JUMP JUMPDEST PUSH1 0x0 PUSH20 0xFFFFFFFFFFFFFFFFFFFFFFFFFFFFFFFFFFFFFFFF DUP3 AND SWAP1 POP SWAP2 SWAP1 POP JUMP JUMPDEST PUSH1 0x0 DUP1 REVERT JUMPDEST PUSH2 0x208 DUP2 PUSH2 0x1BC JUMP JUMPDEST DUP2 EQ PUSH2 0x213 JUMPI PUSH1 0x0 DUP1 REVERT JUMPDEST POP JUMP INVALID LOG2 PUSH5 0x6970667358 0x22 SLT KECCAK256 DUP10 0xE SUB DUP9 SWAP7 0xE2 0xC7 ADDMOD XOR SHR 0xD PUSH24 0x7E6E35DFD28FF46E16F8CFFFFA96ED956C1E8DC864736F6C PUSH4 0x43000807 STOP CALLER "
				},
				"gasEstimates": {
					"creation": {
						"codeDepositCost": "117600",
						"executionCost": "141",
						"totalCost": "117741"
					},
					"external": {
						"sendViaSend(address)": "infinite",
						"sendViaTransfer(address)": "infinite"
					}
				},
				"methodIdentifiers": {
					"sendViaSend(address)": "74be4806",
					"sendViaTransfer(address)": "636e082b"
				}
			},
			"storageLayout": {
				"storage": [],
				"types": null
			},
			"userdoc": {
				"kind": "user",
				"methods": {},
				"version": 1
			}
		}
	}
}