{
	"Contracts/structs_datos.sol": {
		"data_structures": {
			"abi": [
				{
					"inputs": [
						{
							"internalType": "address",
							"name": "",
							"type": "address"
						}
					],
					"name": "address_dataStructure",
					"outputs": [
						{
							"internalType": "uint256",
							"name": "id",
							"type": "uint256"
						},
						{
							"internalType": "string",
							"name": "name",
							"type": "string"
						},
						{
							"internalType": "string",
							"name": "email",
							"type": "string"
						}
					],
					"stateMutability": "view",
					"type": "function"
				},
				{
					"inputs": [
						{
							"internalType": "address",
							"name": "",
							"type": "address"
						}
					],
					"name": "address_uint",
					"outputs": [
						{
							"internalType": "uint256",
							"name": "",
							"type": "uint256"
						}
					],
					"stateMutability": "view",
					"type": "function"
				},
				{
					"inputs": [
						{
							"internalType": "uint256",
							"name": "_id",
							"type": "uint256"
						},
						{
							"internalType": "string",
							"name": "_name",
							"type": "string"
						},
						{
							"internalType": "string",
							"name": "_email",
							"type": "string"
						}
					],
					"name": "array_modificatios",
					"outputs": [],
					"stateMutability": "nonpayable",
					"type": "function"
				},
				{
					"inputs": [
						{
							"internalType": "uint256",
							"name": "_id",
							"type": "uint256"
						},
						{
							"internalType": "string",
							"name": "_name",
							"type": "string"
						},
						{
							"internalType": "string",
							"name": "_email",
							"type": "string"
						}
					],
					"name": "assignDataStorage",
					"outputs": [],
					"stateMutability": "nonpayable",
					"type": "function"
				},
				{
					"inputs": [
						{
							"internalType": "string",
							"name": "_name",
							"type": "string"
						},
						{
							"internalType": "uint256",
							"name": "_number",
							"type": "uint256"
						}
					],
					"name": "assignList",
					"outputs": [],
					"stateMutability": "nonpayable",
					"type": "function"
				},
				{
					"inputs": [
						{
							"internalType": "uint256",
							"name": "_number",
							"type": "uint256"
						}
					],
					"name": "assignNumber",
					"outputs": [],
					"stateMutability": "nonpayable",
					"type": "function"
				},
				{
					"inputs": [
						{
							"internalType": "uint256",
							"name": "",
							"type": "uint256"
						}
					],
					"name": "dynamic_list_customer",
					"outputs": [
						{
							"internalType": "uint256",
							"name": "id",
							"type": "uint256"
						},
						{
							"internalType": "string",
							"name": "name",
							"type": "string"
						},
						{
							"internalType": "string",
							"name": "email",
							"type": "string"
						}
					],
					"stateMutability": "view",
					"type": "function"
				},
				{
					"inputs": [
						{
							"internalType": "uint256",
							"name": "",
							"type": "uint256"
						}
					],
					"name": "fixed_list_uints",
					"outputs": [
						{
							"internalType": "uint256",
							"name": "",
							"type": "uint256"
						}
					],
					"stateMutability": "view",
					"type": "function"
				},
				{
					"inputs": [
						{
							"internalType": "string",
							"name": "",
							"type": "string"
						},
						{
							"internalType": "uint256",
							"name": "",
							"type": "uint256"
						}
					],
					"name": "string_list",
					"outputs": [
						{
							"internalType": "uint256",
							"name": "",
							"type": "uint256"
						}
					],
					"stateMutability": "view",
					"type": "function"
				}
			],
			"devdoc": {
				"kind": "dev",
				"methods": {},
				"version": 1
			},
			"evm": {
				"assembly": "    /* \"Contracts/structs_datos.sol\":83:1676  contract data_structures {\r... */\n  mstore(0x40, 0x80)\n    /* \"Contracts/structs_datos.sol\":312:347  Customer(1, \"lia\", \"lia@gmail.com\") */\n  mload(0x40)\n  dup1\n  0x60\n  add\n  0x40\n  mstore\n  dup1\n    /* \"Contracts/structs_datos.sol\":321:322  1 */\n  0x01\n    /* \"Contracts/structs_datos.sol\":312:347  Customer(1, \"lia\", \"lia@gmail.com\") */\n  dup2\n  mstore\n  0x20\n  add\n  mload(0x40)\n  dup1\n  0x40\n  add\n  0x40\n  mstore\n  dup1\n  0x03\n  dup2\n  mstore\n  0x20\n  add\n  0x6c69610000000000000000000000000000000000000000000000000000000000\n  dup2\n  mstore\n  pop\n  dup2\n  mstore\n  0x20\n  add\n  mload(0x40)\n  dup1\n  0x40\n  add\n  0x40\n  mstore\n  dup1\n  0x0d\n  dup2\n  mstore\n  0x20\n  add\n  0x6c696140676d61696c2e636f6d00000000000000000000000000000000000000\n  dup2\n  mstore\n  pop\n  dup2\n  mstore\n  pop\n    /* \"Contracts/structs_datos.sol\":290:347  Customer customer_1 = Customer(1, \"lia\", \"lia@gmail.com\") */\n  0x00\n  dup1\n  dup3\n  add\n  mload\n  dup2\n  0x00\n  add\n  sstore\n  0x20\n  dup3\n  add\n  mload\n  dup2\n  0x01\n  add\n  swap1\n  dup1\n  mload\n  swap1\n  0x20\n  add\n  swap1\n  tag_1\n  swap3\n  swap2\n  swap1\n  tag_2\n  jump\t// in\ntag_1:\n  pop\n  0x40\n  dup3\n  add\n  mload\n  dup2\n  0x02\n  add\n  swap1\n  dup1\n  mload\n  swap1\n  0x20\n  add\n  swap1\n  tag_3\n  swap3\n  swap2\n  swap1\n  tag_2\n  jump\t// in\ntag_3:\n  pop\n  pop\n  pop\n    /* \"Contracts/structs_datos.sol\":394:440  uint [5] public fixed_list_uints = [1,2,3,4,5] */\n  mload(0x40)\n  dup1\n  0xa0\n  add\n  0x40\n  mstore\n  dup1\n    /* \"Contracts/structs_datos.sol\":430:431  1 */\n  0x01\n    /* \"Contracts/structs_datos.sol\":394:440  uint [5] public fixed_list_uints = [1,2,3,4,5] */\n  0xff\n  and\n  dup2\n  mstore\n  0x20\n  add\n    /* \"Contracts/structs_datos.sol\":432:433  2 */\n  0x02\n    /* \"Contracts/structs_datos.sol\":394:440  uint [5] public fixed_list_uints = [1,2,3,4,5] */\n  0xff\n  and\n  dup2\n  mstore\n  0x20\n  add\n    /* \"Contracts/structs_datos.sol\":434:435  3 */\n  0x03\n    /* \"Contracts/structs_datos.sol\":394:440  uint [5] public fixed_list_uints = [1,2,3,4,5] */\n  0xff\n  and\n  dup2\n  mstore\n  0x20\n  add\n    /* \"Contracts/structs_datos.sol\":436:437  4 */\n  0x04\n    /* \"Contracts/structs_datos.sol\":394:440  uint [5] public fixed_list_uints = [1,2,3,4,5] */\n  0xff\n  and\n  dup2\n  mstore\n  0x20\n  add\n    /* \"Contracts/structs_datos.sol\":438:439  5 */\n  0x05\n    /* \"Contracts/structs_datos.sol\":394:440  uint [5] public fixed_list_uints = [1,2,3,4,5] */\n  0xff\n  and\n  dup2\n  mstore\n  pop\n  0x03\n  swap1\n  0x05\n  tag_4\n  swap3\n  swap2\n  swap1\n  tag_5\n  jump\t// in\ntag_4:\n  pop\n    /* \"Contracts/structs_datos.sol\":83:1676  contract data_structures {\r... */\n  callvalue\n  dup1\n  iszero\n  tag_6\n  jumpi\n  0x00\n  dup1\n  revert\ntag_6:\n  pop\n  jump(tag_7)\ntag_2:\n  dup3\n  dup1\n  sload\n  tag_8\n  swap1\n  tag_9\n  jump\t// in\ntag_8:\n  swap1\n  0x00\n  mstore\n  keccak256(0x00, 0x20)\n  swap1\n  0x1f\n  add\n  0x20\n  swap1\n  div\n  dup2\n  add\n  swap3\n  dup3\n  tag_11\n  jumpi\n  0x00\n  dup6\n  sstore\n  jump(tag_10)\ntag_11:\n  dup3\n  0x1f\n  lt\n  tag_12\n  jumpi\n  dup1\n  mload\n  not(0xff)\n  and\n  dup4\n  dup1\n  add\n  or\n  dup6\n  sstore\n  jump(tag_10)\ntag_12:\n  dup3\n  dup1\n  add\n  0x01\n  add\n  dup6\n  sstore\n  dup3\n  iszero\n  tag_10\n  jumpi\n  swap2\n  dup3\n  add\ntag_13:\n  dup3\n  dup2\n  gt\n  iszero\n  tag_14\n  jumpi\n  dup3\n  mload\n  dup3\n  sstore\n  swap2\n  0x20\n  add\n  swap2\n  swap1\n  0x01\n  add\n  swap1\n  jump(tag_13)\ntag_14:\ntag_10:\n  pop\n  swap1\n  pop\n  tag_15\n  swap2\n  swap1\n  tag_16\n  jump\t// in\ntag_15:\n  pop\n  swap1\n  jump\t// out\ntag_5:\n  dup3\n  0x05\n  dup2\n  add\n  swap3\n  dup3\n  iszero\n  tag_17\n  jumpi\n  swap2\n  0x20\n  mul\n  dup3\n  add\ntag_18:\n  dup3\n  dup2\n  gt\n  iszero\n  tag_19\n  jumpi\n  dup3\n  mload\n  dup3\n  swap1\n  0xff\n  and\n  swap1\n  sstore\n  swap2\n  0x20\n  add\n  swap2\n  swap1\n  0x01\n  add\n  swap1\n  jump(tag_18)\ntag_19:\ntag_17:\n  pop\n  swap1\n  pop\n  tag_20\n  swap2\n  swap1\n  tag_16\n  jump\t// in\ntag_20:\n  pop\n  swap1\n  jump\t// out\ntag_16:\ntag_21:\n  dup1\n  dup3\n  gt\n  iszero\n  tag_22\n  jumpi\n  0x00\n  dup2\n  0x00\n  swap1\n  sstore\n  pop\n  0x01\n  add\n  jump(tag_21)\ntag_22:\n  pop\n  swap1\n  jump\t// out\n    /* \"#utility.yul\":7:327   */\ntag_9:\n    /* \"#utility.yul\":51:57   */\n  0x00\n    /* \"#utility.yul\":88:89   */\n  0x02\n    /* \"#utility.yul\":82:86   */\n  dup3\n    /* \"#utility.yul\":78:90   */\n  div\n    /* \"#utility.yul\":68:90   */\n  swap1\n  pop\n    /* \"#utility.yul\":135:136   */\n  0x01\n    /* \"#utility.yul\":129:133   */\n  dup3\n    /* \"#utility.yul\":125:137   */\n  and\n    /* \"#utility.yul\":156:174   */\n  dup1\n    /* \"#utility.yul\":146:227   */\n  tag_25\n  jumpi\n    /* \"#utility.yul\":212:216   */\n  0x7f\n    /* \"#utility.yul\":204:210   */\n  dup3\n    /* \"#utility.yul\":200:217   */\n  and\n    /* \"#utility.yul\":190:217   */\n  swap2\n  pop\n    /* \"#utility.yul\":146:227   */\ntag_25:\n    /* \"#utility.yul\":274:276   */\n  0x20\n    /* \"#utility.yul\":266:272   */\n  dup3\n    /* \"#utility.yul\":263:277   */\n  lt\n    /* \"#utility.yul\":243:261   */\n  dup2\n    /* \"#utility.yul\":240:278   */\n  eq\n    /* \"#utility.yul\":237:321   */\n  iszero\n  tag_26\n  jumpi\n    /* \"#utility.yul\":293:311   */\n  tag_27\n  tag_28\n  jump\t// in\ntag_27:\n    /* \"#utility.yul\":237:321   */\ntag_26:\n    /* \"#utility.yul\":58:327   */\n  pop\n    /* \"#utility.yul\":7:327   */\n  swap2\n  swap1\n  pop\n  jump\t// out\n    /* \"#utility.yul\":333:513   */\ntag_28:\n    /* \"#utility.yul\":381:458   */\n  0x4e487b7100000000000000000000000000000000000000000000000000000000\n    /* \"#utility.yul\":378:379   */\n  0x00\n    /* \"#utility.yul\":371:459   */\n  mstore\n    /* \"#utility.yul\":478:482   */\n  0x22\n    /* \"#utility.yul\":475:476   */\n  0x04\n    /* \"#utility.yul\":468:483   */\n  mstore\n    /* \"#utility.yul\":502:506   */\n  0x24\n    /* \"#utility.yul\":499:500   */\n  0x00\n    /* \"#utility.yul\":492:507   */\n  revert\n    /* \"Contracts/structs_datos.sol\":83:1676  contract data_structures {\r... */\ntag_7:\n  dataSize(sub_0)\n  dup1\n  dataOffset(sub_0)\n  0x00\n  codecopy\n  0x00\n  return\nstop\n\nsub_0: assembly {\n        /* \"Contracts/structs_datos.sol\":83:1676  contract data_structures {\r... */\n      mstore(0x40, 0x80)\n      callvalue\n      dup1\n      iszero\n      tag_1\n      jumpi\n      0x00\n      dup1\n      revert\n    tag_1:\n      pop\n      jumpi(tag_2, lt(calldatasize, 0x04))\n      shr(0xe0, calldataload(0x00))\n      dup1\n      0xe52b008f\n      gt\n      tag_12\n      jumpi\n      dup1\n      0xe52b008f\n      eq\n      tag_7\n      jumpi\n      dup1\n      0xe897cb4a\n      eq\n      tag_8\n      jumpi\n      dup1\n      0xeaaefa96\n      eq\n      tag_9\n      jumpi\n      dup1\n      0xf096fa63\n      eq\n      tag_10\n      jumpi\n      dup1\n      0xfecb2c16\n      eq\n      tag_11\n      jumpi\n      jump(tag_2)\n    tag_12:\n      dup1\n      0x7a088a2e\n      eq\n      tag_3\n      jumpi\n      dup1\n      0x89553d46\n      eq\n      tag_4\n      jumpi\n      dup1\n      0xd7f5fe84\n      eq\n      tag_5\n      jumpi\n      dup1\n      0xddb7b87d\n      eq\n      tag_6\n      jumpi\n    tag_2:\n      0x00\n      dup1\n      revert\n        /* \"Contracts/structs_datos.sol\":1008:1053  mapping (address => uint) public address_uint */\n    tag_3:\n      tag_13\n      0x04\n      dup1\n      calldatasize\n      sub\n      dup2\n      add\n      swap1\n      tag_14\n      swap2\n      swap1\n      tag_15\n      jump\t// in\n    tag_14:\n      tag_16\n      jump\t// in\n    tag_13:\n      mload(0x40)\n      tag_17\n      swap2\n      swap1\n      tag_18\n      jump\t// in\n    tag_17:\n      mload(0x40)\n      dup1\n      swap2\n      sub\n      swap1\n      return\n        /* \"Contracts/structs_datos.sol\":1321:1435  function assignList (string memory _name, uint _number) public {\r... */\n    tag_4:\n      tag_19\n      0x04\n      dup1\n      calldatasize\n      sub\n      dup2\n      add\n      swap1\n      tag_20\n      swap2\n      swap1\n      tag_21\n      jump\t// in\n    tag_20:\n      tag_22\n      jump\t// in\n    tag_19:\n      stop\n        /* \"Contracts/structs_datos.sol\":1503:1673  function assignDataStorage(uint _id, string memory _name, string memory _email) public {\r... */\n    tag_5:\n      tag_23\n      0x04\n      dup1\n      calldatasize\n      sub\n      dup2\n      add\n      swap1\n      tag_24\n      swap2\n      swap1\n      tag_25\n      jump\t// in\n    tag_24:\n      tag_26\n      jump\t// in\n    tag_23:\n      stop\n        /* \"Contracts/structs_datos.sol\":1060:1105  mapping (string => uint[]) public string_list */\n    tag_6:\n      tag_27\n      0x04\n      dup1\n      calldatasize\n      sub\n      dup2\n      add\n      swap1\n      tag_28\n      swap2\n      swap1\n      tag_21\n      jump\t// in\n    tag_28:\n      tag_29\n      jump\t// in\n    tag_27:\n      mload(0x40)\n      tag_30\n      swap2\n      swap1\n      tag_18\n      jump\t// in\n    tag_30:\n      mload(0x40)\n      dup1\n      swap2\n      sub\n      swap1\n      return\n        /* \"Contracts/structs_datos.sol\":1218:1315  function assignNumber (uint _number) public {\r... */\n    tag_7:\n      tag_31\n      0x04\n      dup1\n      calldatasize\n      sub\n      dup2\n      add\n      swap1\n      tag_32\n      swap2\n      swap1\n      tag_33\n      jump\t// in\n    tag_32:\n      tag_34\n      jump\t// in\n    tag_31:\n      stop\n        /* \"Contracts/structs_datos.sol\":719:941  function array_modificatios(uint _id, string memory _name, string memory _email) public {\r... */\n    tag_8:\n      tag_35\n      0x04\n      dup1\n      calldatasize\n      sub\n      dup2\n      add\n      swap1\n      tag_36\n      swap2\n      swap1\n      tag_25\n      jump\t// in\n    tag_36:\n      tag_37\n      jump\t// in\n    tag_35:\n      stop\n        /* \"Contracts/structs_datos.sol\":1112:1171  mapping (address  => Customer) public address_dataStructure */\n    tag_9:\n      tag_38\n      0x04\n      dup1\n      calldatasize\n      sub\n      dup2\n      add\n      swap1\n      tag_39\n      swap2\n      swap1\n      tag_15\n      jump\t// in\n    tag_39:\n      tag_40\n      jump\t// in\n    tag_38:\n      mload(0x40)\n      tag_41\n      swap4\n      swap3\n      swap2\n      swap1\n      tag_42\n      jump\t// in\n    tag_41:\n      mload(0x40)\n      dup1\n      swap2\n      sub\n      swap1\n      return\n        /* \"Contracts/structs_datos.sol\":670:710  Customer [] public dynamic_list_customer */\n    tag_10:\n      tag_43\n      0x04\n      dup1\n      calldatasize\n      sub\n      dup2\n      add\n      swap1\n      tag_44\n      swap2\n      swap1\n      tag_33\n      jump\t// in\n    tag_44:\n      tag_45\n      jump\t// in\n    tag_43:\n      mload(0x40)\n      tag_46\n      swap4\n      swap3\n      swap2\n      swap1\n      tag_42\n      jump\t// in\n    tag_46:\n      mload(0x40)\n      dup1\n      swap2\n      sub\n      swap1\n      return\n        /* \"Contracts/structs_datos.sol\":394:440  uint [5] public fixed_list_uints = [1,2,3,4,5] */\n    tag_11:\n      tag_47\n      0x04\n      dup1\n      calldatasize\n      sub\n      dup2\n      add\n      swap1\n      tag_48\n      swap2\n      swap1\n      tag_33\n      jump\t// in\n    tag_48:\n      tag_49\n      jump\t// in\n    tag_47:\n      mload(0x40)\n      tag_50\n      swap2\n      swap1\n      tag_18\n      jump\t// in\n    tag_50:\n      mload(0x40)\n      dup1\n      swap2\n      sub\n      swap1\n      return\n        /* \"Contracts/structs_datos.sol\":1008:1053  mapping (address => uint) public address_uint */\n    tag_16:\n      mstore(0x20, 0x0a)\n      dup1\n      0x00\n      mstore\n      keccak256(0x00, 0x40)\n      0x00\n      swap2\n      pop\n      swap1\n      pop\n      sload\n      dup2\n      jump\t// out\n        /* \"Contracts/structs_datos.sol\":1321:1435  function assignList (string memory _name, uint _number) public {\r... */\n    tag_22:\n        /* \"Contracts/structs_datos.sol\":1395:1406  string_list */\n      0x0b\n        /* \"Contracts/structs_datos.sol\":1407:1412  _name */\n      dup3\n        /* \"Contracts/structs_datos.sol\":1395:1413  string_list[_name] */\n      mload(0x40)\n      tag_52\n      swap2\n      swap1\n      tag_53\n      jump\t// in\n    tag_52:\n      swap1\n      dup2\n      mstore\n      0x20\n      add\n      mload(0x40)\n      dup1\n      swap2\n      sub\n      swap1\n      keccak256\n        /* \"Contracts/structs_datos.sol\":1419:1426  _number */\n      dup2\n        /* \"Contracts/structs_datos.sol\":1395:1427  string_list[_name].push(_number) */\n      swap1\n      dup1\n      0x01\n      dup2\n      sload\n      add\n      dup1\n      dup3\n      sstore\n      dup1\n      swap2\n      pop\n      pop\n      0x01\n      swap1\n      sub\n      swap1\n      0x00\n      mstore\n      keccak256(0x00, 0x20)\n      add\n      0x00\n      swap1\n      swap2\n      swap1\n      swap2\n      swap1\n      swap2\n      pop\n      sstore\n        /* \"Contracts/structs_datos.sol\":1321:1435  function assignList (string memory _name, uint _number) public {\r... */\n      pop\n      pop\n      jump\t// out\n        /* \"Contracts/structs_datos.sol\":1503:1673  function assignDataStorage(uint _id, string memory _name, string memory _email) public {\r... */\n    tag_26:\n        /* \"Contracts/structs_datos.sol\":1637:1665  Customer(_id, _name, _email) */\n      mload(0x40)\n      dup1\n      0x60\n      add\n      0x40\n      mstore\n      dup1\n        /* \"Contracts/structs_datos.sol\":1646:1649  _id */\n      dup5\n        /* \"Contracts/structs_datos.sol\":1637:1665  Customer(_id, _name, _email) */\n      dup2\n      mstore\n      0x20\n      add\n        /* \"Contracts/structs_datos.sol\":1651:1656  _name */\n      dup4\n        /* \"Contracts/structs_datos.sol\":1637:1665  Customer(_id, _name, _email) */\n      dup2\n      mstore\n      0x20\n      add\n        /* \"Contracts/structs_datos.sol\":1658:1664  _email */\n      dup3\n        /* \"Contracts/structs_datos.sol\":1637:1665  Customer(_id, _name, _email) */\n      dup2\n      mstore\n      pop\n        /* \"Contracts/structs_datos.sol\":1601:1622  address_dataStructure */\n      0x0c\n        /* \"Contracts/structs_datos.sol\":1601:1634  address_dataStructure[msg.sender] */\n      0x00\n        /* \"Contracts/structs_datos.sol\":1623:1633  msg.sender */\n      caller\n        /* \"Contracts/structs_datos.sol\":1601:1634  address_dataStructure[msg.sender] */\n      0xffffffffffffffffffffffffffffffffffffffff\n      and\n      0xffffffffffffffffffffffffffffffffffffffff\n      and\n      dup2\n      mstore\n      0x20\n      add\n      swap1\n      dup2\n      mstore\n      0x20\n      add\n      0x00\n      keccak256\n        /* \"Contracts/structs_datos.sol\":1601:1665  address_dataStructure[msg.sender] = Customer(_id, _name, _email) */\n      0x00\n      dup3\n      add\n      mload\n      dup2\n      0x00\n      add\n      sstore\n      0x20\n      dup3\n      add\n      mload\n      dup2\n      0x01\n      add\n      swap1\n      dup1\n      mload\n      swap1\n      0x20\n      add\n      swap1\n      tag_56\n      swap3\n      swap2\n      swap1\n      tag_57\n      jump\t// in\n    tag_56:\n      pop\n      0x40\n      dup3\n      add\n      mload\n      dup2\n      0x02\n      add\n      swap1\n      dup1\n      mload\n      swap1\n      0x20\n      add\n      swap1\n      tag_58\n      swap3\n      swap2\n      swap1\n      tag_57\n      jump\t// in\n    tag_58:\n      pop\n      swap1\n      pop\n      pop\n        /* \"Contracts/structs_datos.sol\":1503:1673  function assignDataStorage(uint _id, string memory _name, string memory _email) public {\r... */\n      pop\n      pop\n      pop\n      jump\t// out\n        /* \"Contracts/structs_datos.sol\":1060:1105  mapping (string => uint[]) public string_list */\n    tag_29:\n      0x0b\n      dup3\n      dup1\n      mload\n      0x20\n      dup2\n      add\n      dup3\n      add\n      dup1\n      mload\n      dup5\n      dup3\n      mstore\n      0x20\n      dup4\n      add\n      0x20\n      dup6\n      add\n      keccak256\n      dup2\n      dup4\n      mstore\n      dup1\n      swap6\n      pop\n      pop\n      pop\n      pop\n      pop\n      pop\n      dup2\n      dup2\n      sload\n      dup2\n      lt\n      tag_59\n      jumpi\n      0x00\n      dup1\n      revert\n    tag_59:\n      swap1\n      0x00\n      mstore\n      keccak256(0x00, 0x20)\n      add\n      0x00\n      swap2\n      pop\n      swap2\n      pop\n      pop\n      sload\n      dup2\n      jump\t// out\n        /* \"Contracts/structs_datos.sol\":1218:1315  function assignNumber (uint _number) public {\r... */\n    tag_34:\n        /* \"Contracts/structs_datos.sol\":1300:1307  _number */\n      dup1\n        /* \"Contracts/structs_datos.sol\":1273:1285  address_uint */\n      0x0a\n        /* \"Contracts/structs_datos.sol\":1273:1297  address_uint[msg.sender] */\n      0x00\n        /* \"Contracts/structs_datos.sol\":1286:1296  msg.sender */\n      caller\n        /* \"Contracts/structs_datos.sol\":1273:1297  address_uint[msg.sender] */\n      0xffffffffffffffffffffffffffffffffffffffff\n      and\n      0xffffffffffffffffffffffffffffffffffffffff\n      and\n      dup2\n      mstore\n      0x20\n      add\n      swap1\n      dup2\n      mstore\n      0x20\n      add\n      0x00\n      keccak256\n        /* \"Contracts/structs_datos.sol\":1273:1307  address_uint[msg.sender] = _number */\n      dup2\n      swap1\n      sstore\n      pop\n        /* \"Contracts/structs_datos.sol\":1218:1315  function assignNumber (uint _number) public {\r... */\n      pop\n      jump\t// out\n        /* \"Contracts/structs_datos.sol\":719:941  function array_modificatios(uint _id, string memory _name, string memory _email) public {\r... */\n    tag_37:\n        /* \"Contracts/structs_datos.sol\":817:848  Customer memory random_customer */\n      0x00\n        /* \"Contracts/structs_datos.sol\":851:879  Customer(_id, _name ,_email) */\n      mload(0x40)\n      dup1\n      0x60\n      add\n      0x40\n      mstore\n      dup1\n        /* \"Contracts/structs_datos.sol\":860:863  _id */\n      dup6\n        /* \"Contracts/structs_datos.sol\":851:879  Customer(_id, _name ,_email) */\n      dup2\n      mstore\n      0x20\n      add\n        /* \"Contracts/structs_datos.sol\":865:870  _name */\n      dup5\n        /* \"Contracts/structs_datos.sol\":851:879  Customer(_id, _name ,_email) */\n      dup2\n      mstore\n      0x20\n      add\n        /* \"Contracts/structs_datos.sol\":872:878  _email */\n      dup4\n        /* \"Contracts/structs_datos.sol\":851:879  Customer(_id, _name ,_email) */\n      dup2\n      mstore\n      pop\n        /* \"Contracts/structs_datos.sol\":817:879  Customer memory random_customer = Customer(_id, _name ,_email) */\n      swap1\n      pop\n        /* \"Contracts/structs_datos.sol\":890:911  dynamic_list_customer */\n      0x09\n        /* \"Contracts/structs_datos.sol\":917:932  random_customer */\n      dup2\n        /* \"Contracts/structs_datos.sol\":890:933  dynamic_list_customer.push(random_customer) */\n      swap1\n      dup1\n      0x01\n      dup2\n      sload\n      add\n      dup1\n      dup3\n      sstore\n      dup1\n      swap2\n      pop\n      pop\n      0x01\n      swap1\n      sub\n      swap1\n      0x00\n      mstore\n      keccak256(0x00, 0x20)\n      swap1\n      0x03\n      mul\n      add\n      0x00\n      swap1\n      swap2\n      swap1\n      swap2\n      swap1\n      swap2\n      pop\n      0x00\n      dup3\n      add\n      mload\n      dup2\n      0x00\n      add\n      sstore\n      0x20\n      dup3\n      add\n      mload\n      dup2\n      0x01\n      add\n      swap1\n      dup1\n      mload\n      swap1\n      0x20\n      add\n      swap1\n      tag_64\n      swap3\n      swap2\n      swap1\n      tag_57\n      jump\t// in\n    tag_64:\n      pop\n      0x40\n      dup3\n      add\n      mload\n      dup2\n      0x02\n      add\n      swap1\n      dup1\n      mload\n      swap1\n      0x20\n      add\n      swap1\n      tag_65\n      swap3\n      swap2\n      swap1\n      tag_57\n      jump\t// in\n    tag_65:\n      pop\n      pop\n      pop\n        /* \"Contracts/structs_datos.sol\":807:941  {\r... */\n      pop\n        /* \"Contracts/structs_datos.sol\":719:941  function array_modificatios(uint _id, string memory _name, string memory _email) public {\r... */\n      pop\n      pop\n      pop\n      jump\t// out\n        /* \"Contracts/structs_datos.sol\":1112:1171  mapping (address  => Customer) public address_dataStructure */\n    tag_40:\n      mstore(0x20, 0x0c)\n      dup1\n      0x00\n      mstore\n      keccak256(0x00, 0x40)\n      0x00\n      swap2\n      pop\n      swap1\n      pop\n      dup1\n      0x00\n      add\n      sload\n      swap1\n      dup1\n      0x01\n      add\n      dup1\n      sload\n      tag_66\n      swap1\n      tag_67\n      jump\t// in\n    tag_66:\n      dup1\n      0x1f\n      add\n      0x20\n      dup1\n      swap2\n      div\n      mul\n      0x20\n      add\n      mload(0x40)\n      swap1\n      dup2\n      add\n      0x40\n      mstore\n      dup1\n      swap3\n      swap2\n      swap1\n      dup2\n      dup2\n      mstore\n      0x20\n      add\n      dup3\n      dup1\n      sload\n      tag_68\n      swap1\n      tag_67\n      jump\t// in\n    tag_68:\n      dup1\n      iszero\n      tag_69\n      jumpi\n      dup1\n      0x1f\n      lt\n      tag_70\n      jumpi\n      0x0100\n      dup1\n      dup4\n      sload\n      div\n      mul\n      dup4\n      mstore\n      swap2\n      0x20\n      add\n      swap2\n      jump(tag_69)\n    tag_70:\n      dup3\n      add\n      swap2\n      swap1\n      0x00\n      mstore\n      keccak256(0x00, 0x20)\n      swap1\n    tag_71:\n      dup2\n      sload\n      dup2\n      mstore\n      swap1\n      0x01\n      add\n      swap1\n      0x20\n      add\n      dup1\n      dup4\n      gt\n      tag_71\n      jumpi\n      dup3\n      swap1\n      sub\n      0x1f\n      and\n      dup3\n      add\n      swap2\n    tag_69:\n      pop\n      pop\n      pop\n      pop\n      pop\n      swap1\n      dup1\n      0x02\n      add\n      dup1\n      sload\n      tag_72\n      swap1\n      tag_67\n      jump\t// in\n    tag_72:\n      dup1\n      0x1f\n      add\n      0x20\n      dup1\n      swap2\n      div\n      mul\n      0x20\n      add\n      mload(0x40)\n      swap1\n      dup2\n      add\n      0x40\n      mstore\n      dup1\n      swap3\n      swap2\n      swap1\n      dup2\n      dup2\n      mstore\n      0x20\n      add\n      dup3\n      dup1\n      sload\n      tag_73\n      swap1\n      tag_67\n      jump\t// in\n    tag_73:\n      dup1\n      iszero\n      tag_74\n      jumpi\n      dup1\n      0x1f\n      lt\n      tag_75\n      jumpi\n      0x0100\n      dup1\n      dup4\n      sload\n      div\n      mul\n      dup4\n      mstore\n      swap2\n      0x20\n      add\n      swap2\n      jump(tag_74)\n    tag_75:\n      dup3\n      add\n      swap2\n      swap1\n      0x00\n      mstore\n      keccak256(0x00, 0x20)\n      swap1\n    tag_76:\n      dup2\n      sload\n      dup2\n      mstore\n      swap1\n      0x01\n      add\n      swap1\n      0x20\n      add\n      dup1\n      dup4\n      gt\n      tag_76\n      jumpi\n      dup3\n      swap1\n      sub\n      0x1f\n      and\n      dup3\n      add\n      swap2\n    tag_74:\n      pop\n      pop\n      pop\n      pop\n      pop\n      swap1\n      pop\n      dup4\n      jump\t// out\n        /* \"Contracts/structs_datos.sol\":670:710  Customer [] public dynamic_list_customer */\n    tag_45:\n      0x09\n      dup2\n      dup2\n      sload\n      dup2\n      lt\n      tag_77\n      jumpi\n      0x00\n      dup1\n      revert\n    tag_77:\n      swap1\n      0x00\n      mstore\n      keccak256(0x00, 0x20)\n      swap1\n      0x03\n      mul\n      add\n      0x00\n      swap2\n      pop\n      swap1\n      pop\n      dup1\n      0x00\n      add\n      sload\n      swap1\n      dup1\n      0x01\n      add\n      dup1\n      sload\n      tag_79\n      swap1\n      tag_67\n      jump\t// in\n    tag_79:\n      dup1\n      0x1f\n      add\n      0x20\n      dup1\n      swap2\n      div\n      mul\n      0x20\n      add\n      mload(0x40)\n      swap1\n      dup2\n      add\n      0x40\n      mstore\n      dup1\n      swap3\n      swap2\n      swap1\n      dup2\n      dup2\n      mstore\n      0x20\n      add\n      dup3\n      dup1\n      sload\n      tag_80\n      swap1\n      tag_67\n      jump\t// in\n    tag_80:\n      dup1\n      iszero\n      tag_81\n      jumpi\n      dup1\n      0x1f\n      lt\n      tag_82\n      jumpi\n      0x0100\n      dup1\n      dup4\n      sload\n      div\n      mul\n      dup4\n      mstore\n      swap2\n      0x20\n      add\n      swap2\n      jump(tag_81)\n    tag_82:\n      dup3\n      add\n      swap2\n      swap1\n      0x00\n      mstore\n      keccak256(0x00, 0x20)\n      swap1\n    tag_83:\n      dup2\n      sload\n      dup2\n      mstore\n      swap1\n      0x01\n      add\n      swap1\n      0x20\n      add\n      dup1\n      dup4\n      gt\n      tag_83\n      jumpi\n      dup3\n      swap1\n      sub\n      0x1f\n      and\n      dup3\n      add\n      swap2\n    tag_81:\n      pop\n      pop\n      pop\n      pop\n      pop\n      swap1\n      dup1\n      0x02\n      add\n      dup1\n      sload\n      tag_84\n      swap1\n      tag_67\n      jump\t// in\n    tag_84:\n      dup1\n      0x1f\n      add\n      0x20\n      dup1\n      swap2\n      div\n      mul\n      0x20\n      add\n      mload(0x40)\n      swap1\n      dup2\n      add\n      0x40\n      mstore\n      dup1\n      swap3\n      swap2\n      swap1\n      dup2\n      dup2\n      mstore\n      0x20\n      add\n      dup3\n      dup1\n      sload\n      tag_85\n      swap1\n      tag_67\n      jump\t// in\n    tag_85:\n      dup1\n      iszero\n      tag_86\n      jumpi\n      dup1\n      0x1f\n      lt\n      tag_87\n      jumpi\n      0x0100\n      dup1\n      dup4\n      sload\n      div\n      mul\n      dup4\n      mstore\n      swap2\n      0x20\n      add\n      swap2\n      jump(tag_86)\n    tag_87:\n      dup3\n      add\n      swap2\n      swap1\n      0x00\n      mstore\n      keccak256(0x00, 0x20)\n      swap1\n    tag_88:\n      dup2\n      sload\n      dup2\n      mstore\n      swap1\n      0x01\n      add\n      swap1\n      0x20\n      add\n      dup1\n      dup4\n      gt\n      tag_88\n      jumpi\n      dup3\n      swap1\n      sub\n      0x1f\n      and\n      dup3\n      add\n      swap2\n    tag_86:\n      pop\n      pop\n      pop\n      pop\n      pop\n      swap1\n      pop\n      dup4\n      jump\t// out\n        /* \"Contracts/structs_datos.sol\":394:440  uint [5] public fixed_list_uints = [1,2,3,4,5] */\n    tag_49:\n      0x03\n      dup2\n      0x05\n      dup2\n      lt\n      tag_89\n      jumpi\n      0x00\n      dup1\n      revert\n    tag_89:\n      add\n      0x00\n      swap2\n      pop\n      swap1\n      pop\n      sload\n      dup2\n      jump\t// out\n    tag_57:\n      dup3\n      dup1\n      sload\n      tag_91\n      swap1\n      tag_67\n      jump\t// in\n    tag_91:\n      swap1\n      0x00\n      mstore\n      keccak256(0x00, 0x20)\n      swap1\n      0x1f\n      add\n      0x20\n      swap1\n      div\n      dup2\n      add\n      swap3\n      dup3\n      tag_93\n      jumpi\n      0x00\n      dup6\n      sstore\n      jump(tag_92)\n    tag_93:\n      dup3\n      0x1f\n      lt\n      tag_94\n      jumpi\n      dup1\n      mload\n      not(0xff)\n      and\n      dup4\n      dup1\n      add\n      or\n      dup6\n      sstore\n      jump(tag_92)\n    tag_94:\n      dup3\n      dup1\n      add\n      0x01\n      add\n      dup6\n      sstore\n      dup3\n      iszero\n      tag_92\n      jumpi\n      swap2\n      dup3\n      add\n    tag_95:\n      dup3\n      dup2\n      gt\n      iszero\n      tag_96\n      jumpi\n      dup3\n      mload\n      dup3\n      sstore\n      swap2\n      0x20\n      add\n      swap2\n      swap1\n      0x01\n      add\n      swap1\n      jump(tag_95)\n    tag_96:\n    tag_92:\n      pop\n      swap1\n      pop\n      tag_97\n      swap2\n      swap1\n      tag_98\n      jump\t// in\n    tag_97:\n      pop\n      swap1\n      jump\t// out\n    tag_98:\n    tag_99:\n      dup1\n      dup3\n      gt\n      iszero\n      tag_100\n      jumpi\n      0x00\n      dup2\n      0x00\n      swap1\n      sstore\n      pop\n      0x01\n      add\n      jump(tag_99)\n    tag_100:\n      pop\n      swap1\n      jump\t// out\n        /* \"#utility.yul\":7:419   */\n    tag_102:\n        /* \"#utility.yul\":85:90   */\n      0x00\n        /* \"#utility.yul\":110:176   */\n      tag_104\n        /* \"#utility.yul\":126:175   */\n      tag_105\n        /* \"#utility.yul\":168:174   */\n      dup5\n        /* \"#utility.yul\":126:175   */\n      tag_106\n      jump\t// in\n    tag_105:\n        /* \"#utility.yul\":110:176   */\n      tag_107\n      jump\t// in\n    tag_104:\n        /* \"#utility.yul\":101:176   */\n      swap1\n      pop\n        /* \"#utility.yul\":199:205   */\n      dup3\n        /* \"#utility.yul\":192:197   */\n      dup2\n        /* \"#utility.yul\":185:206   */\n      mstore\n        /* \"#utility.yul\":237:241   */\n      0x20\n        /* \"#utility.yul\":230:235   */\n      dup2\n        /* \"#utility.yul\":226:242   */\n      add\n        /* \"#utility.yul\":275:278   */\n      dup5\n        /* \"#utility.yul\":266:272   */\n      dup5\n        /* \"#utility.yul\":261:264   */\n      dup5\n        /* \"#utility.yul\":257:273   */\n      add\n        /* \"#utility.yul\":254:279   */\n      gt\n        /* \"#utility.yul\":251:363   */\n      iszero\n      tag_108\n      jumpi\n        /* \"#utility.yul\":282:361   */\n      tag_109\n      tag_110\n      jump\t// in\n    tag_109:\n        /* \"#utility.yul\":251:363   */\n    tag_108:\n        /* \"#utility.yul\":372:413   */\n      tag_111\n        /* \"#utility.yul\":406:412   */\n      dup5\n        /* \"#utility.yul\":401:404   */\n      dup3\n        /* \"#utility.yul\":396:399   */\n      dup6\n        /* \"#utility.yul\":372:413   */\n      tag_112\n      jump\t// in\n    tag_111:\n        /* \"#utility.yul\":91:419   */\n      pop\n        /* \"#utility.yul\":7:419   */\n      swap4\n      swap3\n      pop\n      pop\n      pop\n      jump\t// out\n        /* \"#utility.yul\":425:564   */\n    tag_113:\n        /* \"#utility.yul\":471:476   */\n      0x00\n        /* \"#utility.yul\":509:515   */\n      dup2\n        /* \"#utility.yul\":496:516   */\n      calldataload\n        /* \"#utility.yul\":487:516   */\n      swap1\n      pop\n        /* \"#utility.yul\":525:558   */\n      tag_115\n        /* \"#utility.yul\":552:557   */\n      dup2\n        /* \"#utility.yul\":525:558   */\n      tag_116\n      jump\t// in\n    tag_115:\n        /* \"#utility.yul\":425:564   */\n      swap3\n      swap2\n      pop\n      pop\n      jump\t// out\n        /* \"#utility.yul\":584:924   */\n    tag_117:\n        /* \"#utility.yul\":640:645   */\n      0x00\n        /* \"#utility.yul\":689:692   */\n      dup3\n        /* \"#utility.yul\":682:686   */\n      0x1f\n        /* \"#utility.yul\":674:680   */\n      dup4\n        /* \"#utility.yul\":670:687   */\n      add\n        /* \"#utility.yul\":666:693   */\n      slt\n        /* \"#utility.yul\":656:778   */\n      tag_119\n      jumpi\n        /* \"#utility.yul\":697:776   */\n      tag_120\n      tag_121\n      jump\t// in\n    tag_120:\n        /* \"#utility.yul\":656:778   */\n    tag_119:\n        /* \"#utility.yul\":814:820   */\n      dup2\n        /* \"#utility.yul\":801:821   */\n      calldataload\n        /* \"#utility.yul\":839:918   */\n      tag_122\n        /* \"#utility.yul\":914:917   */\n      dup5\n        /* \"#utility.yul\":906:912   */\n      dup3\n        /* \"#utility.yul\":899:903   */\n      0x20\n        /* \"#utility.yul\":891:897   */\n      dup7\n        /* \"#utility.yul\":887:904   */\n      add\n        /* \"#utility.yul\":839:918   */\n      tag_102\n      jump\t// in\n    tag_122:\n        /* \"#utility.yul\":830:918   */\n      swap2\n      pop\n        /* \"#utility.yul\":646:924   */\n      pop\n        /* \"#utility.yul\":584:924   */\n      swap3\n      swap2\n      pop\n      pop\n      jump\t// out\n        /* \"#utility.yul\":930:1069   */\n    tag_123:\n        /* \"#utility.yul\":976:981   */\n      0x00\n        /* \"#utility.yul\":1014:1020   */\n      dup2\n        /* \"#utility.yul\":1001:1021   */\n      calldataload\n        /* \"#utility.yul\":992:1021   */\n      swap1\n      pop\n        /* \"#utility.yul\":1030:1063   */\n      tag_125\n        /* \"#utility.yul\":1057:1062   */\n      dup2\n        /* \"#utility.yul\":1030:1063   */\n      tag_126\n      jump\t// in\n    tag_125:\n        /* \"#utility.yul\":930:1069   */\n      swap3\n      swap2\n      pop\n      pop\n      jump\t// out\n        /* \"#utility.yul\":1075:1404   */\n    tag_15:\n        /* \"#utility.yul\":1134:1140   */\n      0x00\n        /* \"#utility.yul\":1183:1185   */\n      0x20\n        /* \"#utility.yul\":1171:1180   */\n      dup3\n        /* \"#utility.yul\":1162:1169   */\n      dup5\n        /* \"#utility.yul\":1158:1181   */\n      sub\n        /* \"#utility.yul\":1154:1186   */\n      slt\n        /* \"#utility.yul\":1151:1270   */\n      iszero\n      tag_128\n      jumpi\n        /* \"#utility.yul\":1189:1268   */\n      tag_129\n      tag_130\n      jump\t// in\n    tag_129:\n        /* \"#utility.yul\":1151:1270   */\n    tag_128:\n        /* \"#utility.yul\":1309:1310   */\n      0x00\n        /* \"#utility.yul\":1334:1387   */\n      tag_131\n        /* \"#utility.yul\":1379:1386   */\n      dup5\n        /* \"#utility.yul\":1370:1376   */\n      dup3\n        /* \"#utility.yul\":1359:1368   */\n      dup6\n        /* \"#utility.yul\":1355:1377   */\n      add\n        /* \"#utility.yul\":1334:1387   */\n      tag_113\n      jump\t// in\n    tag_131:\n        /* \"#utility.yul\":1324:1387   */\n      swap2\n      pop\n        /* \"#utility.yul\":1280:1397   */\n      pop\n        /* \"#utility.yul\":1075:1404   */\n      swap3\n      swap2\n      pop\n      pop\n      jump\t// out\n        /* \"#utility.yul\":1410:2064   */\n    tag_21:\n        /* \"#utility.yul\":1488:1494   */\n      0x00\n        /* \"#utility.yul\":1496:1502   */\n      dup1\n        /* \"#utility.yul\":1545:1547   */\n      0x40\n        /* \"#utility.yul\":1533:1542   */\n      dup4\n        /* \"#utility.yul\":1524:1531   */\n      dup6\n        /* \"#utility.yul\":1520:1543   */\n      sub\n        /* \"#utility.yul\":1516:1548   */\n      slt\n        /* \"#utility.yul\":1513:1632   */\n      iszero\n      tag_133\n      jumpi\n        /* \"#utility.yul\":1551:1630   */\n      tag_134\n      tag_130\n      jump\t// in\n    tag_134:\n        /* \"#utility.yul\":1513:1632   */\n    tag_133:\n        /* \"#utility.yul\":1699:1700   */\n      0x00\n        /* \"#utility.yul\":1688:1697   */\n      dup4\n        /* \"#utility.yul\":1684:1701   */\n      add\n        /* \"#utility.yul\":1671:1702   */\n      calldataload\n        /* \"#utility.yul\":1729:1747   */\n      0xffffffffffffffff\n        /* \"#utility.yul\":1721:1727   */\n      dup2\n        /* \"#utility.yul\":1718:1748   */\n      gt\n        /* \"#utility.yul\":1715:1832   */\n      iszero\n      tag_135\n      jumpi\n        /* \"#utility.yul\":1751:1830   */\n      tag_136\n      tag_137\n      jump\t// in\n    tag_136:\n        /* \"#utility.yul\":1715:1832   */\n    tag_135:\n        /* \"#utility.yul\":1856:1919   */\n      tag_138\n        /* \"#utility.yul\":1911:1918   */\n      dup6\n        /* \"#utility.yul\":1902:1908   */\n      dup3\n        /* \"#utility.yul\":1891:1900   */\n      dup7\n        /* \"#utility.yul\":1887:1909   */\n      add\n        /* \"#utility.yul\":1856:1919   */\n      tag_117\n      jump\t// in\n    tag_138:\n        /* \"#utility.yul\":1846:1919   */\n      swap3\n      pop\n        /* \"#utility.yul\":1642:1929   */\n      pop\n        /* \"#utility.yul\":1968:1970   */\n      0x20\n        /* \"#utility.yul\":1994:2047   */\n      tag_139\n        /* \"#utility.yul\":2039:2046   */\n      dup6\n        /* \"#utility.yul\":2030:2036   */\n      dup3\n        /* \"#utility.yul\":2019:2028   */\n      dup7\n        /* \"#utility.yul\":2015:2037   */\n      add\n        /* \"#utility.yul\":1994:2047   */\n      tag_123\n      jump\t// in\n    tag_139:\n        /* \"#utility.yul\":1984:2047   */\n      swap2\n      pop\n        /* \"#utility.yul\":1939:2057   */\n      pop\n        /* \"#utility.yul\":1410:2064   */\n      swap3\n      pop\n      swap3\n      swap1\n      pop\n      jump\t// out\n        /* \"#utility.yul\":2070:2399   */\n    tag_33:\n        /* \"#utility.yul\":2129:2135   */\n      0x00\n        /* \"#utility.yul\":2178:2180   */\n      0x20\n        /* \"#utility.yul\":2166:2175   */\n      dup3\n        /* \"#utility.yul\":2157:2164   */\n      dup5\n        /* \"#utility.yul\":2153:2176   */\n      sub\n        /* \"#utility.yul\":2149:2181   */\n      slt\n        /* \"#utility.yul\":2146:2265   */\n      iszero\n      tag_141\n      jumpi\n        /* \"#utility.yul\":2184:2263   */\n      tag_142\n      tag_130\n      jump\t// in\n    tag_142:\n        /* \"#utility.yul\":2146:2265   */\n    tag_141:\n        /* \"#utility.yul\":2304:2305   */\n      0x00\n        /* \"#utility.yul\":2329:2382   */\n      tag_143\n        /* \"#utility.yul\":2374:2381   */\n      dup5\n        /* \"#utility.yul\":2365:2371   */\n      dup3\n        /* \"#utility.yul\":2354:2363   */\n      dup6\n        /* \"#utility.yul\":2350:2372   */\n      add\n        /* \"#utility.yul\":2329:2382   */\n      tag_123\n      jump\t// in\n    tag_143:\n        /* \"#utility.yul\":2319:2382   */\n      swap2\n      pop\n        /* \"#utility.yul\":2275:2392   */\n      pop\n        /* \"#utility.yul\":2070:2399   */\n      swap3\n      swap2\n      pop\n      pop\n      jump\t// out\n        /* \"#utility.yul\":2405:3384   */\n    tag_25:\n        /* \"#utility.yul\":2502:2508   */\n      0x00\n        /* \"#utility.yul\":2510:2516   */\n      dup1\n        /* \"#utility.yul\":2518:2524   */\n      0x00\n        /* \"#utility.yul\":2567:2569   */\n      0x60\n        /* \"#utility.yul\":2555:2564   */\n      dup5\n        /* \"#utility.yul\":2546:2553   */\n      dup7\n        /* \"#utility.yul\":2542:2565   */\n      sub\n        /* \"#utility.yul\":2538:2570   */\n      slt\n        /* \"#utility.yul\":2535:2654   */\n      iszero\n      tag_145\n      jumpi\n        /* \"#utility.yul\":2573:2652   */\n      tag_146\n      tag_130\n      jump\t// in\n    tag_146:\n        /* \"#utility.yul\":2535:2654   */\n    tag_145:\n        /* \"#utility.yul\":2693:2694   */\n      0x00\n        /* \"#utility.yul\":2718:2771   */\n      tag_147\n        /* \"#utility.yul\":2763:2770   */\n      dup7\n        /* \"#utility.yul\":2754:2760   */\n      dup3\n        /* \"#utility.yul\":2743:2752   */\n      dup8\n        /* \"#utility.yul\":2739:2761   */\n      add\n        /* \"#utility.yul\":2718:2771   */\n      tag_123\n      jump\t// in\n    tag_147:\n        /* \"#utility.yul\":2708:2771   */\n      swap4\n      pop\n        /* \"#utility.yul\":2664:2781   */\n      pop\n        /* \"#utility.yul\":2848:2850   */\n      0x20\n        /* \"#utility.yul\":2837:2846   */\n      dup5\n        /* \"#utility.yul\":2833:2851   */\n      add\n        /* \"#utility.yul\":2820:2852   */\n      calldataload\n        /* \"#utility.yul\":2879:2897   */\n      0xffffffffffffffff\n        /* \"#utility.yul\":2871:2877   */\n      dup2\n        /* \"#utility.yul\":2868:2898   */\n      gt\n        /* \"#utility.yul\":2865:2982   */\n      iszero\n      tag_148\n      jumpi\n        /* \"#utility.yul\":2901:2980   */\n      tag_149\n      tag_137\n      jump\t// in\n    tag_149:\n        /* \"#utility.yul\":2865:2982   */\n    tag_148:\n        /* \"#utility.yul\":3006:3069   */\n      tag_150\n        /* \"#utility.yul\":3061:3068   */\n      dup7\n        /* \"#utility.yul\":3052:3058   */\n      dup3\n        /* \"#utility.yul\":3041:3050   */\n      dup8\n        /* \"#utility.yul\":3037:3059   */\n      add\n        /* \"#utility.yul\":3006:3069   */\n      tag_117\n      jump\t// in\n    tag_150:\n        /* \"#utility.yul\":2996:3069   */\n      swap3\n      pop\n        /* \"#utility.yul\":2791:3079   */\n      pop\n        /* \"#utility.yul\":3146:3148   */\n      0x40\n        /* \"#utility.yul\":3135:3144   */\n      dup5\n        /* \"#utility.yul\":3131:3149   */\n      add\n        /* \"#utility.yul\":3118:3150   */\n      calldataload\n        /* \"#utility.yul\":3177:3195   */\n      0xffffffffffffffff\n        /* \"#utility.yul\":3169:3175   */\n      dup2\n        /* \"#utility.yul\":3166:3196   */\n      gt\n        /* \"#utility.yul\":3163:3280   */\n      iszero\n      tag_151\n      jumpi\n        /* \"#utility.yul\":3199:3278   */\n      tag_152\n      tag_137\n      jump\t// in\n    tag_152:\n        /* \"#utility.yul\":3163:3280   */\n    tag_151:\n        /* \"#utility.yul\":3304:3367   */\n      tag_153\n        /* \"#utility.yul\":3359:3366   */\n      dup7\n        /* \"#utility.yul\":3350:3356   */\n      dup3\n        /* \"#utility.yul\":3339:3348   */\n      dup8\n        /* \"#utility.yul\":3335:3357   */\n      add\n        /* \"#utility.yul\":3304:3367   */\n      tag_117\n      jump\t// in\n    tag_153:\n        /* \"#utility.yul\":3294:3367   */\n      swap2\n      pop\n        /* \"#utility.yul\":3089:3377   */\n      pop\n        /* \"#utility.yul\":2405:3384   */\n      swap3\n      pop\n      swap3\n      pop\n      swap3\n      jump\t// out\n        /* \"#utility.yul\":3390:3754   */\n    tag_154:\n        /* \"#utility.yul\":3478:3481   */\n      0x00\n        /* \"#utility.yul\":3506:3545   */\n      tag_156\n        /* \"#utility.yul\":3539:3544   */\n      dup3\n        /* \"#utility.yul\":3506:3545   */\n      tag_157\n      jump\t// in\n    tag_156:\n        /* \"#utility.yul\":3561:3632   */\n      tag_158\n        /* \"#utility.yul\":3625:3631   */\n      dup2\n        /* \"#utility.yul\":3620:3623   */\n      dup6\n        /* \"#utility.yul\":3561:3632   */\n      tag_159\n      jump\t// in\n    tag_158:\n        /* \"#utility.yul\":3554:3632   */\n      swap4\n      pop\n        /* \"#utility.yul\":3641:3693   */\n      tag_160\n        /* \"#utility.yul\":3686:3692   */\n      dup2\n        /* \"#utility.yul\":3681:3684   */\n      dup6\n        /* \"#utility.yul\":3674:3678   */\n      0x20\n        /* \"#utility.yul\":3667:3672   */\n      dup7\n        /* \"#utility.yul\":3663:3679   */\n      add\n        /* \"#utility.yul\":3641:3693   */\n      tag_161\n      jump\t// in\n    tag_160:\n        /* \"#utility.yul\":3718:3747   */\n      tag_162\n        /* \"#utility.yul\":3740:3746   */\n      dup2\n        /* \"#utility.yul\":3718:3747   */\n      tag_163\n      jump\t// in\n    tag_162:\n        /* \"#utility.yul\":3713:3716   */\n      dup5\n        /* \"#utility.yul\":3709:3748   */\n      add\n        /* \"#utility.yul\":3702:3748   */\n      swap2\n      pop\n        /* \"#utility.yul\":3482:3754   */\n      pop\n        /* \"#utility.yul\":3390:3754   */\n      swap3\n      swap2\n      pop\n      pop\n      jump\t// out\n        /* \"#utility.yul\":3760:4137   */\n    tag_164:\n        /* \"#utility.yul\":3866:3869   */\n      0x00\n        /* \"#utility.yul\":3894:3933   */\n      tag_166\n        /* \"#utility.yul\":3927:3932   */\n      dup3\n        /* \"#utility.yul\":3894:3933   */\n      tag_157\n      jump\t// in\n    tag_166:\n        /* \"#utility.yul\":3949:4038   */\n      tag_167\n        /* \"#utility.yul\":4031:4037   */\n      dup2\n        /* \"#utility.yul\":4026:4029   */\n      dup6\n        /* \"#utility.yul\":3949:4038   */\n      tag_168\n      jump\t// in\n    tag_167:\n        /* \"#utility.yul\":3942:4038   */\n      swap4\n      pop\n        /* \"#utility.yul\":4047:4099   */\n      tag_169\n        /* \"#utility.yul\":4092:4098   */\n      dup2\n        /* \"#utility.yul\":4087:4090   */\n      dup6\n        /* \"#utility.yul\":4080:4084   */\n      0x20\n        /* \"#utility.yul\":4073:4078   */\n      dup7\n        /* \"#utility.yul\":4069:4085   */\n      add\n        /* \"#utility.yul\":4047:4099   */\n      tag_161\n      jump\t// in\n    tag_169:\n        /* \"#utility.yul\":4124:4130   */\n      dup1\n        /* \"#utility.yul\":4119:4122   */\n      dup5\n        /* \"#utility.yul\":4115:4131   */\n      add\n        /* \"#utility.yul\":4108:4131   */\n      swap2\n      pop\n        /* \"#utility.yul\":3870:4137   */\n      pop\n        /* \"#utility.yul\":3760:4137   */\n      swap3\n      swap2\n      pop\n      pop\n      jump\t// out\n        /* \"#utility.yul\":4143:4261   */\n    tag_170:\n        /* \"#utility.yul\":4230:4254   */\n      tag_172\n        /* \"#utility.yul\":4248:4253   */\n      dup2\n        /* \"#utility.yul\":4230:4254   */\n      tag_173\n      jump\t// in\n    tag_172:\n        /* \"#utility.yul\":4225:4228   */\n      dup3\n        /* \"#utility.yul\":4218:4255   */\n      mstore\n        /* \"#utility.yul\":4143:4261   */\n      pop\n      pop\n      jump\t// out\n        /* \"#utility.yul\":4267:4542   */\n    tag_53:\n        /* \"#utility.yul\":4399:4402   */\n      0x00\n        /* \"#utility.yul\":4421:4516   */\n      tag_175\n        /* \"#utility.yul\":4512:4515   */\n      dup3\n        /* \"#utility.yul\":4503:4509   */\n      dup5\n        /* \"#utility.yul\":4421:4516   */\n      tag_164\n      jump\t// in\n    tag_175:\n        /* \"#utility.yul\":4414:4516   */\n      swap2\n      pop\n        /* \"#utility.yul\":4533:4536   */\n      dup2\n        /* \"#utility.yul\":4526:4536   */\n      swap1\n      pop\n        /* \"#utility.yul\":4267:4542   */\n      swap3\n      swap2\n      pop\n      pop\n      jump\t// out\n        /* \"#utility.yul\":4548:4770   */\n    tag_18:\n        /* \"#utility.yul\":4641:4645   */\n      0x00\n        /* \"#utility.yul\":4679:4681   */\n      0x20\n        /* \"#utility.yul\":4668:4677   */\n      dup3\n        /* \"#utility.yul\":4664:4682   */\n      add\n        /* \"#utility.yul\":4656:4682   */\n      swap1\n      pop\n        /* \"#utility.yul\":4692:4763   */\n      tag_177\n        /* \"#utility.yul\":4760:4761   */\n      0x00\n        /* \"#utility.yul\":4749:4758   */\n      dup4\n        /* \"#utility.yul\":4745:4762   */\n      add\n        /* \"#utility.yul\":4736:4742   */\n      dup5\n        /* \"#utility.yul\":4692:4763   */\n      tag_170\n      jump\t// in\n    tag_177:\n        /* \"#utility.yul\":4548:4770   */\n      swap3\n      swap2\n      pop\n      pop\n      jump\t// out\n        /* \"#utility.yul\":4776:5400   */\n    tag_42:\n        /* \"#utility.yul\":4965:4969   */\n      0x00\n        /* \"#utility.yul\":5003:5005   */\n      0x60\n        /* \"#utility.yul\":4992:5001   */\n      dup3\n        /* \"#utility.yul\":4988:5006   */\n      add\n        /* \"#utility.yul\":4980:5006   */\n      swap1\n      pop\n        /* \"#utility.yul\":5016:5087   */\n      tag_179\n        /* \"#utility.yul\":5084:5085   */\n      0x00\n        /* \"#utility.yul\":5073:5082   */\n      dup4\n        /* \"#utility.yul\":5069:5086   */\n      add\n        /* \"#utility.yul\":5060:5066   */\n      dup7\n        /* \"#utility.yul\":5016:5087   */\n      tag_170\n      jump\t// in\n    tag_179:\n        /* \"#utility.yul\":5134:5143   */\n      dup2\n        /* \"#utility.yul\":5128:5132   */\n      dup2\n        /* \"#utility.yul\":5124:5144   */\n      sub\n        /* \"#utility.yul\":5119:5121   */\n      0x20\n        /* \"#utility.yul\":5108:5117   */\n      dup4\n        /* \"#utility.yul\":5104:5122   */\n      add\n        /* \"#utility.yul\":5097:5145   */\n      mstore\n        /* \"#utility.yul\":5162:5240   */\n      tag_180\n        /* \"#utility.yul\":5235:5239   */\n      dup2\n        /* \"#utility.yul\":5226:5232   */\n      dup6\n        /* \"#utility.yul\":5162:5240   */\n      tag_154\n      jump\t// in\n    tag_180:\n        /* \"#utility.yul\":5154:5240   */\n      swap1\n      pop\n        /* \"#utility.yul\":5287:5296   */\n      dup2\n        /* \"#utility.yul\":5281:5285   */\n      dup2\n        /* \"#utility.yul\":5277:5297   */\n      sub\n        /* \"#utility.yul\":5272:5274   */\n      0x40\n        /* \"#utility.yul\":5261:5270   */\n      dup4\n        /* \"#utility.yul\":5257:5275   */\n      add\n        /* \"#utility.yul\":5250:5298   */\n      mstore\n        /* \"#utility.yul\":5315:5393   */\n      tag_181\n        /* \"#utility.yul\":5388:5392   */\n      dup2\n        /* \"#utility.yul\":5379:5385   */\n      dup5\n        /* \"#utility.yul\":5315:5393   */\n      tag_154\n      jump\t// in\n    tag_181:\n        /* \"#utility.yul\":5307:5393   */\n      swap1\n      pop\n        /* \"#utility.yul\":4776:5400   */\n      swap5\n      swap4\n      pop\n      pop\n      pop\n      pop\n      jump\t// out\n        /* \"#utility.yul\":5406:5535   */\n    tag_107:\n        /* \"#utility.yul\":5440:5446   */\n      0x00\n        /* \"#utility.yul\":5467:5487   */\n      tag_183\n      tag_184\n      jump\t// in\n    tag_183:\n        /* \"#utility.yul\":5457:5487   */\n      swap1\n      pop\n        /* \"#utility.yul\":5496:5529   */\n      tag_185\n        /* \"#utility.yul\":5524:5528   */\n      dup3\n        /* \"#utility.yul\":5516:5522   */\n      dup3\n        /* \"#utility.yul\":5496:5529   */\n      tag_186\n      jump\t// in\n    tag_185:\n        /* \"#utility.yul\":5406:5535   */\n      swap2\n      swap1\n      pop\n      jump\t// out\n        /* \"#utility.yul\":5541:5616   */\n    tag_184:\n        /* \"#utility.yul\":5574:5580   */\n      0x00\n        /* \"#utility.yul\":5607:5609   */\n      0x40\n        /* \"#utility.yul\":5601:5610   */\n      mload\n        /* \"#utility.yul\":5591:5610   */\n      swap1\n      pop\n        /* \"#utility.yul\":5541:5616   */\n      swap1\n      jump\t// out\n        /* \"#utility.yul\":5622:5930   */\n    tag_106:\n        /* \"#utility.yul\":5684:5688   */\n      0x00\n        /* \"#utility.yul\":5774:5792   */\n      0xffffffffffffffff\n        /* \"#utility.yul\":5766:5772   */\n      dup3\n        /* \"#utility.yul\":5763:5793   */\n      gt\n        /* \"#utility.yul\":5760:5816   */\n      iszero\n      tag_189\n      jumpi\n        /* \"#utility.yul\":5796:5814   */\n      tag_190\n      tag_191\n      jump\t// in\n    tag_190:\n        /* \"#utility.yul\":5760:5816   */\n    tag_189:\n        /* \"#utility.yul\":5834:5863   */\n      tag_192\n        /* \"#utility.yul\":5856:5862   */\n      dup3\n        /* \"#utility.yul\":5834:5863   */\n      tag_163\n      jump\t// in\n    tag_192:\n        /* \"#utility.yul\":5826:5863   */\n      swap1\n      pop\n        /* \"#utility.yul\":5918:5922   */\n      0x20\n        /* \"#utility.yul\":5912:5916   */\n      dup2\n        /* \"#utility.yul\":5908:5923   */\n      add\n        /* \"#utility.yul\":5900:5923   */\n      swap1\n      pop\n        /* \"#utility.yul\":5622:5930   */\n      swap2\n      swap1\n      pop\n      jump\t// out\n        /* \"#utility.yul\":5936:6035   */\n    tag_157:\n        /* \"#utility.yul\":5988:5994   */\n      0x00\n        /* \"#utility.yul\":6022:6027   */\n      dup2\n        /* \"#utility.yul\":6016:6028   */\n      mload\n        /* \"#utility.yul\":6006:6028   */\n      swap1\n      pop\n        /* \"#utility.yul\":5936:6035   */\n      swap2\n      swap1\n      pop\n      jump\t// out\n        /* \"#utility.yul\":6041:6210   */\n    tag_159:\n        /* \"#utility.yul\":6125:6136   */\n      0x00\n        /* \"#utility.yul\":6159:6165   */\n      dup3\n        /* \"#utility.yul\":6154:6157   */\n      dup3\n        /* \"#utility.yul\":6147:6166   */\n      mstore\n        /* \"#utility.yul\":6199:6203   */\n      0x20\n        /* \"#utility.yul\":6194:6197   */\n      dup3\n        /* \"#utility.yul\":6190:6204   */\n      add\n        /* \"#utility.yul\":6175:6204   */\n      swap1\n      pop\n        /* \"#utility.yul\":6041:6210   */\n      swap3\n      swap2\n      pop\n      pop\n      jump\t// out\n        /* \"#utility.yul\":6216:6364   */\n    tag_168:\n        /* \"#utility.yul\":6318:6329   */\n      0x00\n        /* \"#utility.yul\":6355:6358   */\n      dup2\n        /* \"#utility.yul\":6340:6358   */\n      swap1\n      pop\n        /* \"#utility.yul\":6216:6364   */\n      swap3\n      swap2\n      pop\n      pop\n      jump\t// out\n        /* \"#utility.yul\":6370:6466   */\n    tag_196:\n        /* \"#utility.yul\":6407:6414   */\n      0x00\n        /* \"#utility.yul\":6436:6460   */\n      tag_198\n        /* \"#utility.yul\":6454:6459   */\n      dup3\n        /* \"#utility.yul\":6436:6460   */\n      tag_199\n      jump\t// in\n    tag_198:\n        /* \"#utility.yul\":6425:6460   */\n      swap1\n      pop\n        /* \"#utility.yul\":6370:6466   */\n      swap2\n      swap1\n      pop\n      jump\t// out\n        /* \"#utility.yul\":6472:6598   */\n    tag_199:\n        /* \"#utility.yul\":6509:6516   */\n      0x00\n        /* \"#utility.yul\":6549:6591   */\n      0xffffffffffffffffffffffffffffffffffffffff\n        /* \"#utility.yul\":6542:6547   */\n      dup3\n        /* \"#utility.yul\":6538:6592   */\n      and\n        /* \"#utility.yul\":6527:6592   */\n      swap1\n      pop\n        /* \"#utility.yul\":6472:6598   */\n      swap2\n      swap1\n      pop\n      jump\t// out\n        /* \"#utility.yul\":6604:6681   */\n    tag_173:\n        /* \"#utility.yul\":6641:6648   */\n      0x00\n        /* \"#utility.yul\":6670:6675   */\n      dup2\n        /* \"#utility.yul\":6659:6675   */\n      swap1\n      pop\n        /* \"#utility.yul\":6604:6681   */\n      swap2\n      swap1\n      pop\n      jump\t// out\n        /* \"#utility.yul\":6687:6841   */\n    tag_112:\n        /* \"#utility.yul\":6771:6777   */\n      dup3\n        /* \"#utility.yul\":6766:6769   */\n      dup2\n        /* \"#utility.yul\":6761:6764   */\n      dup4\n        /* \"#utility.yul\":6748:6778   */\n      calldatacopy\n        /* \"#utility.yul\":6833:6834   */\n      0x00\n        /* \"#utility.yul\":6824:6830   */\n      dup4\n        /* \"#utility.yul\":6819:6822   */\n      dup4\n        /* \"#utility.yul\":6815:6831   */\n      add\n        /* \"#utility.yul\":6808:6835   */\n      mstore\n        /* \"#utility.yul\":6687:6841   */\n      pop\n      pop\n      pop\n      jump\t// out\n        /* \"#utility.yul\":6847:7154   */\n    tag_161:\n        /* \"#utility.yul\":6915:6916   */\n      0x00\n        /* \"#utility.yul\":6925:7038   */\n    tag_204:\n        /* \"#utility.yul\":6939:6945   */\n      dup4\n        /* \"#utility.yul\":6936:6937   */\n      dup2\n        /* \"#utility.yul\":6933:6946   */\n      lt\n        /* \"#utility.yul\":6925:7038   */\n      iszero\n      tag_206\n      jumpi\n        /* \"#utility.yul\":7024:7025   */\n      dup1\n        /* \"#utility.yul\":7019:7022   */\n      dup3\n        /* \"#utility.yul\":7015:7026   */\n      add\n        /* \"#utility.yul\":7009:7027   */\n      mload\n        /* \"#utility.yul\":7005:7006   */\n      dup2\n        /* \"#utility.yul\":7000:7003   */\n      dup5\n        /* \"#utility.yul\":6996:7007   */\n      add\n        /* \"#utility.yul\":6989:7028   */\n      mstore\n        /* \"#utility.yul\":6961:6963   */\n      0x20\n        /* \"#utility.yul\":6958:6959   */\n      dup2\n        /* \"#utility.yul\":6954:6964   */\n      add\n        /* \"#utility.yul\":6949:6964   */\n      swap1\n      pop\n        /* \"#utility.yul\":6925:7038   */\n      jump(tag_204)\n    tag_206:\n        /* \"#utility.yul\":7056:7062   */\n      dup4\n        /* \"#utility.yul\":7053:7054   */\n      dup2\n        /* \"#utility.yul\":7050:7063   */\n      gt\n        /* \"#utility.yul\":7047:7148   */\n      iszero\n      tag_207\n      jumpi\n        /* \"#utility.yul\":7136:7137   */\n      0x00\n        /* \"#utility.yul\":7127:7133   */\n      dup5\n        /* \"#utility.yul\":7122:7125   */\n      dup5\n        /* \"#utility.yul\":7118:7134   */\n      add\n        /* \"#utility.yul\":7111:7138   */\n      mstore\n        /* \"#utility.yul\":7047:7148   */\n    tag_207:\n        /* \"#utility.yul\":6896:7154   */\n      pop\n        /* \"#utility.yul\":6847:7154   */\n      pop\n      pop\n      pop\n      jump\t// out\n        /* \"#utility.yul\":7160:7480   */\n    tag_67:\n        /* \"#utility.yul\":7204:7210   */\n      0x00\n        /* \"#utility.yul\":7241:7242   */\n      0x02\n        /* \"#utility.yul\":7235:7239   */\n      dup3\n        /* \"#utility.yul\":7231:7243   */\n      div\n        /* \"#utility.yul\":7221:7243   */\n      swap1\n      pop\n        /* \"#utility.yul\":7288:7289   */\n      0x01\n        /* \"#utility.yul\":7282:7286   */\n      dup3\n        /* \"#utility.yul\":7278:7290   */\n      and\n        /* \"#utility.yul\":7309:7327   */\n      dup1\n        /* \"#utility.yul\":7299:7380   */\n      tag_209\n      jumpi\n        /* \"#utility.yul\":7365:7369   */\n      0x7f\n        /* \"#utility.yul\":7357:7363   */\n      dup3\n        /* \"#utility.yul\":7353:7370   */\n      and\n        /* \"#utility.yul\":7343:7370   */\n      swap2\n      pop\n        /* \"#utility.yul\":7299:7380   */\n    tag_209:\n        /* \"#utility.yul\":7427:7429   */\n      0x20\n        /* \"#utility.yul\":7419:7425   */\n      dup3\n        /* \"#utility.yul\":7416:7430   */\n      lt\n        /* \"#utility.yul\":7396:7414   */\n      dup2\n        /* \"#utility.yul\":7393:7431   */\n      eq\n        /* \"#utility.yul\":7390:7474   */\n      iszero\n      tag_210\n      jumpi\n        /* \"#utility.yul\":7446:7464   */\n      tag_211\n      tag_212\n      jump\t// in\n    tag_211:\n        /* \"#utility.yul\":7390:7474   */\n    tag_210:\n        /* \"#utility.yul\":7211:7480   */\n      pop\n        /* \"#utility.yul\":7160:7480   */\n      swap2\n      swap1\n      pop\n      jump\t// out\n        /* \"#utility.yul\":7486:7767   */\n    tag_186:\n        /* \"#utility.yul\":7569:7596   */\n      tag_214\n        /* \"#utility.yul\":7591:7595   */\n      dup3\n        /* \"#utility.yul\":7569:7596   */\n      tag_163\n      jump\t// in\n    tag_214:\n        /* \"#utility.yul\":7561:7567   */\n      dup2\n        /* \"#utility.yul\":7557:7597   */\n      add\n        /* \"#utility.yul\":7699:7705   */\n      dup2\n        /* \"#utility.yul\":7687:7697   */\n      dup2\n        /* \"#utility.yul\":7684:7706   */\n      lt\n        /* \"#utility.yul\":7663:7681   */\n      0xffffffffffffffff\n        /* \"#utility.yul\":7651:7661   */\n      dup3\n        /* \"#utility.yul\":7648:7682   */\n      gt\n        /* \"#utility.yul\":7645:7707   */\n      or\n        /* \"#utility.yul\":7642:7730   */\n      iszero\n      tag_215\n      jumpi\n        /* \"#utility.yul\":7710:7728   */\n      tag_216\n      tag_191\n      jump\t// in\n    tag_216:\n        /* \"#utility.yul\":7642:7730   */\n    tag_215:\n        /* \"#utility.yul\":7750:7760   */\n      dup1\n        /* \"#utility.yul\":7746:7748   */\n      0x40\n        /* \"#utility.yul\":7739:7761   */\n      mstore\n        /* \"#utility.yul\":7529:7767   */\n      pop\n        /* \"#utility.yul\":7486:7767   */\n      pop\n      pop\n      jump\t// out\n        /* \"#utility.yul\":7773:7953   */\n    tag_212:\n        /* \"#utility.yul\":7821:7898   */\n      0x4e487b7100000000000000000000000000000000000000000000000000000000\n        /* \"#utility.yul\":7818:7819   */\n      0x00\n        /* \"#utility.yul\":7811:7899   */\n      mstore\n        /* \"#utility.yul\":7918:7922   */\n      0x22\n        /* \"#utility.yul\":7915:7916   */\n      0x04\n        /* \"#utility.yul\":7908:7923   */\n      mstore\n        /* \"#utility.yul\":7942:7946   */\n      0x24\n        /* \"#utility.yul\":7939:7940   */\n      0x00\n        /* \"#utility.yul\":7932:7947   */\n      revert\n        /* \"#utility.yul\":7959:8139   */\n    tag_191:\n        /* \"#utility.yul\":8007:8084   */\n      0x4e487b7100000000000000000000000000000000000000000000000000000000\n        /* \"#utility.yul\":8004:8005   */\n      0x00\n        /* \"#utility.yul\":7997:8085   */\n      mstore\n        /* \"#utility.yul\":8104:8108   */\n      0x41\n        /* \"#utility.yul\":8101:8102   */\n      0x04\n        /* \"#utility.yul\":8094:8109   */\n      mstore\n        /* \"#utility.yul\":8128:8132   */\n      0x24\n        /* \"#utility.yul\":8125:8126   */\n      0x00\n        /* \"#utility.yul\":8118:8133   */\n      revert\n        /* \"#utility.yul\":8145:8262   */\n    tag_121:\n        /* \"#utility.yul\":8254:8255   */\n      0x00\n        /* \"#utility.yul\":8251:8252   */\n      dup1\n        /* \"#utility.yul\":8244:8256   */\n      revert\n        /* \"#utility.yul\":8268:8385   */\n    tag_110:\n        /* \"#utility.yul\":8377:8378   */\n      0x00\n        /* \"#utility.yul\":8374:8375   */\n      dup1\n        /* \"#utility.yul\":8367:8379   */\n      revert\n        /* \"#utility.yul\":8391:8508   */\n    tag_137:\n        /* \"#utility.yul\":8500:8501   */\n      0x00\n        /* \"#utility.yul\":8497:8498   */\n      dup1\n        /* \"#utility.yul\":8490:8502   */\n      revert\n        /* \"#utility.yul\":8514:8631   */\n    tag_130:\n        /* \"#utility.yul\":8623:8624   */\n      0x00\n        /* \"#utility.yul\":8620:8621   */\n      dup1\n        /* \"#utility.yul\":8613:8625   */\n      revert\n        /* \"#utility.yul\":8637:8739   */\n    tag_163:\n        /* \"#utility.yul\":8678:8684   */\n      0x00\n        /* \"#utility.yul\":8729:8731   */\n      0x1f\n        /* \"#utility.yul\":8725:8732   */\n      not\n        /* \"#utility.yul\":8720:8722   */\n      0x1f\n        /* \"#utility.yul\":8713:8718   */\n      dup4\n        /* \"#utility.yul\":8709:8723   */\n      add\n        /* \"#utility.yul\":8705:8733   */\n      and\n        /* \"#utility.yul\":8695:8733   */\n      swap1\n      pop\n        /* \"#utility.yul\":8637:8739   */\n      swap2\n      swap1\n      pop\n      jump\t// out\n        /* \"#utility.yul\":8745:8867   */\n    tag_116:\n        /* \"#utility.yul\":8818:8842   */\n      tag_225\n        /* \"#utility.yul\":8836:8841   */\n      dup2\n        /* \"#utility.yul\":8818:8842   */\n      tag_196\n      jump\t// in\n    tag_225:\n        /* \"#utility.yul\":8811:8816   */\n      dup2\n        /* \"#utility.yul\":8808:8843   */\n      eq\n        /* \"#utility.yul\":8798:8861   */\n      tag_226\n      jumpi\n        /* \"#utility.yul\":8857:8858   */\n      0x00\n        /* \"#utility.yul\":8854:8855   */\n      dup1\n        /* \"#utility.yul\":8847:8859   */\n      revert\n        /* \"#utility.yul\":8798:8861   */\n    tag_226:\n        /* \"#utility.yul\":8745:8867   */\n      pop\n      jump\t// out\n        /* \"#utility.yul\":8873:8995   */\n    tag_126:\n        /* \"#utility.yul\":8946:8970   */\n      tag_228\n        /* \"#utility.yul\":8964:8969   */\n      dup2\n        /* \"#utility.yul\":8946:8970   */\n      tag_173\n      jump\t// in\n    tag_228:\n        /* \"#utility.yul\":8939:8944   */\n      dup2\n        /* \"#utility.yul\":8936:8971   */\n      eq\n        /* \"#utility.yul\":8926:8989   */\n      tag_229\n      jumpi\n        /* \"#utility.yul\":8985:8986   */\n      0x00\n        /* \"#utility.yul\":8982:8983   */\n      dup1\n        /* \"#utility.yul\":8975:8987   */\n      revert\n        /* \"#utility.yul\":8926:8989   */\n    tag_229:\n        /* \"#utility.yul\":8873:8995   */\n      pop\n      jump\t// out\n\n    auxdata: 0xa2646970667358221220071f800e58982aa51bb16153d802f5122ec8511781fdd45b05e32a5178842ea764736f6c63430008070033\n}\n",
				"bytecode": {
					"linkReferences": {},
					"object": "60806040526040518060600160405280600181526020016040518060400160405280600381526020017f6c6961000000000000000000000000000000000000000000000000000000000081525081526020016040518060400160405280600d81526020017f6c696140676d61696c2e636f6d0000000000000000000000000000000000000081525081525060008082015181600001556020820151816001019080519060200190620000b392919062000137565b506040820151816002019080519060200190620000d292919062000137565b5050506040518060a00160405280600160ff168152602001600260ff168152602001600360ff168152602001600460ff168152602001600560ff16815250600390600562000122929190620001c8565b503480156200013057600080fd5b5062000296565b828054620001459062000231565b90600052602060002090601f016020900481019282620001695760008555620001b5565b82601f106200018457805160ff1916838001178555620001b5565b82800160010185558215620001b5579182015b82811115620001b457825182559160200191906001019062000197565b5b509050620001c4919062000212565b5090565b8260058101928215620001ff579160200282015b82811115620001fe578251829060ff16905591602001919060010190620001dc565b5b5090506200020e919062000212565b5090565b5b808211156200022d57600081600090555060010162000213565b5090565b600060028204905060018216806200024a57607f821691505b6020821081141562000261576200026062000267565b5b50919050565b7f4e487b7100000000000000000000000000000000000000000000000000000000600052602260045260246000fd5b610c7a80620002a66000396000f3fe608060405234801561001057600080fd5b50600436106100935760003560e01c8063e52b008f11610066578063e52b008f14610130578063e897cb4a1461014c578063eaaefa9614610168578063f096fa631461019a578063fecb2c16146101cc57610093565b80637a088a2e1461009857806389553d46146100c8578063d7f5fe84146100e4578063ddb7b87d14610100575b600080fd5b6100b260048036038101906100ad9190610804565b6101fc565b6040516100bf91906109d5565b60405180910390f35b6100e260048036038101906100dd9190610831565b610214565b005b6100fe60048036038101906100f991906108ba565b61025d565b005b61011a60048036038101906101159190610831565b610303565b60405161012791906109d5565b60405180910390f35b61014a6004803603810190610145919061088d565b61034a565b005b610166600480360381019061016191906108ba565b610391565b005b610182600480360381019061017d9190610804565b610428565b604051610191939291906109f0565b60405180910390f35b6101b460048036038101906101af919061088d565b610562565b6040516101c3939291906109f0565b60405180910390f35b6101e660048036038101906101e1919061088d565b6106ac565b6040516101f391906109d5565b60405180910390f35b600a6020528060005260406000206000915090505481565b600b8260405161022491906109be565b90815260200160405180910390208190806001815401808255809150506001900390600052602060002001600090919091909150555050565b604051806060016040528084815260200183815260200182815250600c60003373ffffffffffffffffffffffffffffffffffffffff1673ffffffffffffffffffffffffffffffffffffffff1681526020019081526020016000206000820151816000015560208201518160010190805190602001906102dd9291906106c7565b5060408201518160020190805190602001906102fa9291906106c7565b50905050505050565b600b82805160208101820180518482526020830160208501208183528095505050505050818154811061033557600080fd5b90600052602060002001600091509150505481565b80600a60003373ffffffffffffffffffffffffffffffffffffffff1673ffffffffffffffffffffffffffffffffffffffff1681526020019081526020016000208190555050565b6000604051806060016040528085815260200184815260200183815250905060098190806001815401808255809150506001900390600052602060002090600302016000909190919091506000820151816000015560208201518160010190805190602001906104029291906106c7565b50604082015181600201908051906020019061041f9291906106c7565b50505050505050565b600c60205280600052604060002060009150905080600001549080600101805461045190610b30565b80601f016020809104026020016040519081016040528092919081815260200182805461047d90610b30565b80156104ca5780601f1061049f576101008083540402835291602001916104ca565b820191906000526020600020905b8154815290600101906020018083116104ad57829003601f168201915b5050505050908060020180546104df90610b30565b80601f016020809104026020016040519081016040528092919081815260200182805461050b90610b30565b80156105585780601f1061052d57610100808354040283529160200191610558565b820191906000526020600020905b81548152906001019060200180831161053b57829003601f168201915b5050505050905083565b6009818154811061057257600080fd5b906000526020600020906003020160009150905080600001549080600101805461059b90610b30565b80601f01602080910402602001604051908101604052809291908181526020018280546105c790610b30565b80156106145780601f106105e957610100808354040283529160200191610614565b820191906000526020600020905b8154815290600101906020018083116105f757829003601f168201915b50505050509080600201805461062990610b30565b80601f016020809104026020016040519081016040528092919081815260200182805461065590610b30565b80156106a25780601f10610677576101008083540402835291602001916106a2565b820191906000526020600020905b81548152906001019060200180831161068557829003601f168201915b5050505050905083565b600381600581106106bc57600080fd5b016000915090505481565b8280546106d390610b30565b90600052602060002090601f0160209004810192826106f5576000855561073c565b82601f1061070e57805160ff191683800117855561073c565b8280016001018555821561073c579182015b8281111561073b578251825591602001919060010190610720565b5b509050610749919061074d565b5090565b5b8082111561076657600081600090555060010161074e565b5090565b600061077d61077884610a5a565b610a35565b90508281526020810184848401111561079957610798610bf6565b5b6107a4848285610aee565b509392505050565b6000813590506107bb81610c16565b92915050565b600082601f8301126107d6576107d5610bf1565b5b81356107e684826020860161076a565b91505092915050565b6000813590506107fe81610c2d565b92915050565b60006020828403121561081a57610819610c00565b5b6000610828848285016107ac565b91505092915050565b6000806040838503121561084857610847610c00565b5b600083013567ffffffffffffffff81111561086657610865610bfb565b5b610872858286016107c1565b9250506020610883858286016107ef565b9150509250929050565b6000602082840312156108a3576108a2610c00565b5b60006108b1848285016107ef565b91505092915050565b6000806000606084860312156108d3576108d2610c00565b5b60006108e1868287016107ef565b935050602084013567ffffffffffffffff81111561090257610901610bfb565b5b61090e868287016107c1565b925050604084013567ffffffffffffffff81111561092f5761092e610bfb565b5b61093b868287016107c1565b9150509250925092565b600061095082610a8b565b61095a8185610a96565b935061096a818560208601610afd565b61097381610c05565b840191505092915050565b600061098982610a8b565b6109938185610aa7565b93506109a3818560208601610afd565b80840191505092915050565b6109b881610ae4565b82525050565b60006109ca828461097e565b915081905092915050565b60006020820190506109ea60008301846109af565b92915050565b6000606082019050610a0560008301866109af565b8181036020830152610a178185610945565b90508181036040830152610a2b8184610945565b9050949350505050565b6000610a3f610a50565b9050610a4b8282610b62565b919050565b6000604051905090565b600067ffffffffffffffff821115610a7557610a74610bc2565b5b610a7e82610c05565b9050602081019050919050565b600081519050919050565b600082825260208201905092915050565b600081905092915050565b6000610abd82610ac4565b9050919050565b600073ffffffffffffffffffffffffffffffffffffffff82169050919050565b6000819050919050565b82818337600083830152505050565b60005b83811015610b1b578082015181840152602081019050610b00565b83811115610b2a576000848401525b50505050565b60006002820490506001821680610b4857607f821691505b60208210811415610b5c57610b5b610b93565b5b50919050565b610b6b82610c05565b810181811067ffffffffffffffff82111715610b8a57610b89610bc2565b5b80604052505050565b7f4e487b7100000000000000000000000000000000000000000000000000000000600052602260045260246000fd5b7f4e487b7100000000000000000000000000000000000000000000000000000000600052604160045260246000fd5b600080fd5b600080fd5b600080fd5b600080fd5b6000601f19601f8301169050919050565b610c1f81610ab2565b8114610c2a57600080fd5b50565b610c3681610ae4565b8114610c4157600080fd5b5056fea2646970667358221220071f800e58982aa51bb16153d802f5122ec8511781fdd45b05e32a5178842ea764736f6c63430008070033",
					"opcodes": "PUSH1 0x80 PUSH1 0x40 MSTORE PUSH1 0x40 MLOAD DUP1 PUSH1 0x60 ADD PUSH1 0x40 MSTORE DUP1 PUSH1 0x1 DUP2 MSTORE PUSH1 0x20 ADD PUSH1 0x40 MLOAD DUP1 PUSH1 0x40 ADD PUSH1 0x40 MSTORE DUP1 PUSH1 0x3 DUP2 MSTORE PUSH1 0x20 ADD PUSH32 0x6C69610000000000000000000000000000000000000000000000000000000000 DUP2 MSTORE POP DUP2 MSTORE PUSH1 0x20 ADD PUSH1 0x40 MLOAD DUP1 PUSH1 0x40 ADD PUSH1 0x40 MSTORE DUP1 PUSH1 0xD DUP2 MSTORE PUSH1 0x20 ADD PUSH32 0x6C696140676D61696C2E636F6D00000000000000000000000000000000000000 DUP2 MSTORE POP DUP2 MSTORE POP PUSH1 0x0 DUP1 DUP3 ADD MLOAD DUP2 PUSH1 0x0 ADD SSTORE PUSH1 0x20 DUP3 ADD MLOAD DUP2 PUSH1 0x1 ADD SWAP1 DUP1 MLOAD SWAP1 PUSH1 0x20 ADD SWAP1 PUSH3 0xB3 SWAP3 SWAP2 SWAP1 PUSH3 0x137 JUMP JUMPDEST POP PUSH1 0x40 DUP3 ADD MLOAD DUP2 PUSH1 0x2 ADD SWAP1 DUP1 MLOAD SWAP1 PUSH1 0x20 ADD SWAP1 PUSH3 0xD2 SWAP3 SWAP2 SWAP1 PUSH3 0x137 JUMP JUMPDEST POP POP POP PUSH1 0x40 MLOAD DUP1 PUSH1 0xA0 ADD PUSH1 0x40 MSTORE DUP1 PUSH1 0x1 PUSH1 0xFF AND DUP2 MSTORE PUSH1 0x20 ADD PUSH1 0x2 PUSH1 0xFF AND DUP2 MSTORE PUSH1 0x20 ADD PUSH1 0x3 PUSH1 0xFF AND DUP2 MSTORE PUSH1 0x20 ADD PUSH1 0x4 PUSH1 0xFF AND DUP2 MSTORE PUSH1 0x20 ADD PUSH1 0x5 PUSH1 0xFF AND DUP2 MSTORE POP PUSH1 0x3 SWAP1 PUSH1 0x5 PUSH3 0x122 SWAP3 SWAP2 SWAP1 PUSH3 0x1C8 JUMP JUMPDEST POP CALLVALUE DUP1 ISZERO PUSH3 0x130 JUMPI PUSH1 0x0 DUP1 REVERT JUMPDEST POP PUSH3 0x296 JUMP JUMPDEST DUP3 DUP1 SLOAD PUSH3 0x145 SWAP1 PUSH3 0x231 JUMP JUMPDEST SWAP1 PUSH1 0x0 MSTORE PUSH1 0x20 PUSH1 0x0 KECCAK256 SWAP1 PUSH1 0x1F ADD PUSH1 0x20 SWAP1 DIV DUP2 ADD SWAP3 DUP3 PUSH3 0x169 JUMPI PUSH1 0x0 DUP6 SSTORE PUSH3 0x1B5 JUMP JUMPDEST DUP3 PUSH1 0x1F LT PUSH3 0x184 JUMPI DUP1 MLOAD PUSH1 0xFF NOT AND DUP4 DUP1 ADD OR DUP6 SSTORE PUSH3 0x1B5 JUMP JUMPDEST DUP3 DUP1 ADD PUSH1 0x1 ADD DUP6 SSTORE DUP3 ISZERO PUSH3 0x1B5 JUMPI SWAP2 DUP3 ADD JUMPDEST DUP3 DUP2 GT ISZERO PUSH3 0x1B4 JUMPI DUP3 MLOAD DUP3 SSTORE SWAP2 PUSH1 0x20 ADD SWAP2 SWAP1 PUSH1 0x1 ADD SWAP1 PUSH3 0x197 JUMP JUMPDEST JUMPDEST POP SWAP1 POP PUSH3 0x1C4 SWAP2 SWAP1 PUSH3 0x212 JUMP JUMPDEST POP SWAP1 JUMP JUMPDEST DUP3 PUSH1 0x5 DUP2 ADD SWAP3 DUP3 ISZERO PUSH3 0x1FF JUMPI SWAP2 PUSH1 0x20 MUL DUP3 ADD JUMPDEST DUP3 DUP2 GT ISZERO PUSH3 0x1FE JUMPI DUP3 MLOAD DUP3 SWAP1 PUSH1 0xFF AND SWAP1 SSTORE SWAP2 PUSH1 0x20 ADD SWAP2 SWAP1 PUSH1 0x1 ADD SWAP1 PUSH3 0x1DC JUMP JUMPDEST JUMPDEST POP SWAP1 POP PUSH3 0x20E SWAP2 SWAP1 PUSH3 0x212 JUMP JUMPDEST POP SWAP1 JUMP JUMPDEST JUMPDEST DUP1 DUP3 GT ISZERO PUSH3 0x22D JUMPI PUSH1 0x0 DUP2 PUSH1 0x0 SWAP1 SSTORE POP PUSH1 0x1 ADD PUSH3 0x213 JUMP JUMPDEST POP SWAP1 JUMP JUMPDEST PUSH1 0x0 PUSH1 0x2 DUP3 DIV SWAP1 POP PUSH1 0x1 DUP3 AND DUP1 PUSH3 0x24A JUMPI PUSH1 0x7F DUP3 AND SWAP2 POP JUMPDEST PUSH1 0x20 DUP3 LT DUP2 EQ ISZERO PUSH3 0x261 JUMPI PUSH3 0x260 PUSH3 0x267 JUMP JUMPDEST JUMPDEST POP SWAP2 SWAP1 POP JUMP JUMPDEST PUSH32 0x4E487B7100000000000000000000000000000000000000000000000000000000 PUSH1 0x0 MSTORE PUSH1 0x22 PUSH1 0x4 MSTORE PUSH1 0x24 PUSH1 0x0 REVERT JUMPDEST PUSH2 0xC7A DUP1 PUSH3 0x2A6 PUSH1 0x0 CODECOPY PUSH1 0x0 RETURN INVALID PUSH1 0x80 PUSH1 0x40 MSTORE CALLVALUE DUP1 ISZERO PUSH2 0x10 JUMPI PUSH1 0x0 DUP1 REVERT JUMPDEST POP PUSH1 0x4 CALLDATASIZE LT PUSH2 0x93 JUMPI PUSH1 0x0 CALLDATALOAD PUSH1 0xE0 SHR DUP1 PUSH4 0xE52B008F GT PUSH2 0x66 JUMPI DUP1 PUSH4 0xE52B008F EQ PUSH2 0x130 JUMPI DUP1 PUSH4 0xE897CB4A EQ PUSH2 0x14C JUMPI DUP1 PUSH4 0xEAAEFA96 EQ PUSH2 0x168 JUMPI DUP1 PUSH4 0xF096FA63 EQ PUSH2 0x19A JUMPI DUP1 PUSH4 0xFECB2C16 EQ PUSH2 0x1CC JUMPI PUSH2 0x93 JUMP JUMPDEST DUP1 PUSH4 0x7A088A2E EQ PUSH2 0x98 JUMPI DUP1 PUSH4 0x89553D46 EQ PUSH2 0xC8 JUMPI DUP1 PUSH4 0xD7F5FE84 EQ PUSH2 0xE4 JUMPI DUP1 PUSH4 0xDDB7B87D EQ PUSH2 0x100 JUMPI JUMPDEST PUSH1 0x0 DUP1 REVERT JUMPDEST PUSH2 0xB2 PUSH1 0x4 DUP1 CALLDATASIZE SUB DUP2 ADD SWAP1 PUSH2 0xAD SWAP2 SWAP1 PUSH2 0x804 JUMP JUMPDEST PUSH2 0x1FC JUMP JUMPDEST PUSH1 0x40 MLOAD PUSH2 0xBF SWAP2 SWAP1 PUSH2 0x9D5 JUMP JUMPDEST PUSH1 0x40 MLOAD DUP1 SWAP2 SUB SWAP1 RETURN JUMPDEST PUSH2 0xE2 PUSH1 0x4 DUP1 CALLDATASIZE SUB DUP2 ADD SWAP1 PUSH2 0xDD SWAP2 SWAP1 PUSH2 0x831 JUMP JUMPDEST PUSH2 0x214 JUMP JUMPDEST STOP JUMPDEST PUSH2 0xFE PUSH1 0x4 DUP1 CALLDATASIZE SUB DUP2 ADD SWAP1 PUSH2 0xF9 SWAP2 SWAP1 PUSH2 0x8BA JUMP JUMPDEST PUSH2 0x25D JUMP JUMPDEST STOP JUMPDEST PUSH2 0x11A PUSH1 0x4 DUP1 CALLDATASIZE SUB DUP2 ADD SWAP1 PUSH2 0x115 SWAP2 SWAP1 PUSH2 0x831 JUMP JUMPDEST PUSH2 0x303 JUMP JUMPDEST PUSH1 0x40 MLOAD PUSH2 0x127 SWAP2 SWAP1 PUSH2 0x9D5 JUMP JUMPDEST PUSH1 0x40 MLOAD DUP1 SWAP2 SUB SWAP1 RETURN JUMPDEST PUSH2 0x14A PUSH1 0x4 DUP1 CALLDATASIZE SUB DUP2 ADD SWAP1 PUSH2 0x145 SWAP2 SWAP1 PUSH2 0x88D JUMP JUMPDEST PUSH2 0x34A JUMP JUMPDEST STOP JUMPDEST PUSH2 0x166 PUSH1 0x4 DUP1 CALLDATASIZE SUB DUP2 ADD SWAP1 PUSH2 0x161 SWAP2 SWAP1 PUSH2 0x8BA JUMP JUMPDEST PUSH2 0x391 JUMP JUMPDEST STOP JUMPDEST PUSH2 0x182 PUSH1 0x4 DUP1 CALLDATASIZE SUB DUP2 ADD SWAP1 PUSH2 0x17D SWAP2 SWAP1 PUSH2 0x804 JUMP JUMPDEST PUSH2 0x428 JUMP JUMPDEST PUSH1 0x40 MLOAD PUSH2 0x191 SWAP4 SWAP3 SWAP2 SWAP1 PUSH2 0x9F0 JUMP JUMPDEST PUSH1 0x40 MLOAD DUP1 SWAP2 SUB SWAP1 RETURN JUMPDEST PUSH2 0x1B4 PUSH1 0x4 DUP1 CALLDATASIZE SUB DUP2 ADD SWAP1 PUSH2 0x1AF SWAP2 SWAP1 PUSH2 0x88D JUMP JUMPDEST PUSH2 0x562 JUMP JUMPDEST PUSH1 0x40 MLOAD PUSH2 0x1C3 SWAP4 SWAP3 SWAP2 SWAP1 PUSH2 0x9F0 JUMP JUMPDEST PUSH1 0x40 MLOAD DUP1 SWAP2 SUB SWAP1 RETURN JUMPDEST PUSH2 0x1E6 PUSH1 0x4 DUP1 CALLDATASIZE SUB DUP2 ADD SWAP1 PUSH2 0x1E1 SWAP2 SWAP1 PUSH2 0x88D JUMP JUMPDEST PUSH2 0x6AC JUMP JUMPDEST PUSH1 0x40 MLOAD PUSH2 0x1F3 SWAP2 SWAP1 PUSH2 0x9D5 JUMP JUMPDEST PUSH1 0x40 MLOAD DUP1 SWAP2 SUB SWAP1 RETURN JUMPDEST PUSH1 0xA PUSH1 0x20 MSTORE DUP1 PUSH1 0x0 MSTORE PUSH1 0x40 PUSH1 0x0 KECCAK256 PUSH1 0x0 SWAP2 POP SWAP1 POP SLOAD DUP2 JUMP JUMPDEST PUSH1 0xB DUP3 PUSH1 0x40 MLOAD PUSH2 0x224 SWAP2 SWAP1 PUSH2 0x9BE JUMP JUMPDEST SWAP1 DUP2 MSTORE PUSH1 0x20 ADD PUSH1 0x40 MLOAD DUP1 SWAP2 SUB SWAP1 KECCAK256 DUP2 SWAP1 DUP1 PUSH1 0x1 DUP2 SLOAD ADD DUP1 DUP3 SSTORE DUP1 SWAP2 POP POP PUSH1 0x1 SWAP1 SUB SWAP1 PUSH1 0x0 MSTORE PUSH1 0x20 PUSH1 0x0 KECCAK256 ADD PUSH1 0x0 SWAP1 SWAP2 SWAP1 SWAP2 SWAP1 SWAP2 POP SSTORE POP POP JUMP JUMPDEST PUSH1 0x40 MLOAD DUP1 PUSH1 0x60 ADD PUSH1 0x40 MSTORE DUP1 DUP5 DUP2 MSTORE PUSH1 0x20 ADD DUP4 DUP2 MSTORE PUSH1 0x20 ADD DUP3 DUP2 MSTORE POP PUSH1 0xC PUSH1 0x0 CALLER PUSH20 0xFFFFFFFFFFFFFFFFFFFFFFFFFFFFFFFFFFFFFFFF AND PUSH20 0xFFFFFFFFFFFFFFFFFFFFFFFFFFFFFFFFFFFFFFFF AND DUP2 MSTORE PUSH1 0x20 ADD SWAP1 DUP2 MSTORE PUSH1 0x20 ADD PUSH1 0x0 KECCAK256 PUSH1 0x0 DUP3 ADD MLOAD DUP2 PUSH1 0x0 ADD SSTORE PUSH1 0x20 DUP3 ADD MLOAD DUP2 PUSH1 0x1 ADD SWAP1 DUP1 MLOAD SWAP1 PUSH1 0x20 ADD SWAP1 PUSH2 0x2DD SWAP3 SWAP2 SWAP1 PUSH2 0x6C7 JUMP JUMPDEST POP PUSH1 0x40 DUP3 ADD MLOAD DUP2 PUSH1 0x2 ADD SWAP1 DUP1 MLOAD SWAP1 PUSH1 0x20 ADD SWAP1 PUSH2 0x2FA SWAP3 SWAP2 SWAP1 PUSH2 0x6C7 JUMP JUMPDEST POP SWAP1 POP POP POP POP POP JUMP JUMPDEST PUSH1 0xB DUP3 DUP1 MLOAD PUSH1 0x20 DUP2 ADD DUP3 ADD DUP1 MLOAD DUP5 DUP3 MSTORE PUSH1 0x20 DUP4 ADD PUSH1 0x20 DUP6 ADD KECCAK256 DUP2 DUP4 MSTORE DUP1 SWAP6 POP POP POP POP POP POP DUP2 DUP2 SLOAD DUP2 LT PUSH2 0x335 JUMPI PUSH1 0x0 DUP1 REVERT JUMPDEST SWAP1 PUSH1 0x0 MSTORE PUSH1 0x20 PUSH1 0x0 KECCAK256 ADD PUSH1 0x0 SWAP2 POP SWAP2 POP POP SLOAD DUP2 JUMP JUMPDEST DUP1 PUSH1 0xA PUSH1 0x0 CALLER PUSH20 0xFFFFFFFFFFFFFFFFFFFFFFFFFFFFFFFFFFFFFFFF AND PUSH20 0xFFFFFFFFFFFFFFFFFFFFFFFFFFFFFFFFFFFFFFFF AND DUP2 MSTORE PUSH1 0x20 ADD SWAP1 DUP2 MSTORE PUSH1 0x20 ADD PUSH1 0x0 KECCAK256 DUP2 SWAP1 SSTORE POP POP JUMP JUMPDEST PUSH1 0x0 PUSH1 0x40 MLOAD DUP1 PUSH1 0x60 ADD PUSH1 0x40 MSTORE DUP1 DUP6 DUP2 MSTORE PUSH1 0x20 ADD DUP5 DUP2 MSTORE PUSH1 0x20 ADD DUP4 DUP2 MSTORE POP SWAP1 POP PUSH1 0x9 DUP2 SWAP1 DUP1 PUSH1 0x1 DUP2 SLOAD ADD DUP1 DUP3 SSTORE DUP1 SWAP2 POP POP PUSH1 0x1 SWAP1 SUB SWAP1 PUSH1 0x0 MSTORE PUSH1 0x20 PUSH1 0x0 KECCAK256 SWAP1 PUSH1 0x3 MUL ADD PUSH1 0x0 SWAP1 SWAP2 SWAP1 SWAP2 SWAP1 SWAP2 POP PUSH1 0x0 DUP3 ADD MLOAD DUP2 PUSH1 0x0 ADD SSTORE PUSH1 0x20 DUP3 ADD MLOAD DUP2 PUSH1 0x1 ADD SWAP1 DUP1 MLOAD SWAP1 PUSH1 0x20 ADD SWAP1 PUSH2 0x402 SWAP3 SWAP2 SWAP1 PUSH2 0x6C7 JUMP JUMPDEST POP PUSH1 0x40 DUP3 ADD MLOAD DUP2 PUSH1 0x2 ADD SWAP1 DUP1 MLOAD SWAP1 PUSH1 0x20 ADD SWAP1 PUSH2 0x41F SWAP3 SWAP2 SWAP1 PUSH2 0x6C7 JUMP JUMPDEST POP POP POP POP POP POP POP JUMP JUMPDEST PUSH1 0xC PUSH1 0x20 MSTORE DUP1 PUSH1 0x0 MSTORE PUSH1 0x40 PUSH1 0x0 KECCAK256 PUSH1 0x0 SWAP2 POP SWAP1 POP DUP1 PUSH1 0x0 ADD SLOAD SWAP1 DUP1 PUSH1 0x1 ADD DUP1 SLOAD PUSH2 0x451 SWAP1 PUSH2 0xB30 JUMP JUMPDEST DUP1 PUSH1 0x1F ADD PUSH1 0x20 DUP1 SWAP2 DIV MUL PUSH1 0x20 ADD PUSH1 0x40 MLOAD SWAP1 DUP2 ADD PUSH1 0x40 MSTORE DUP1 SWAP3 SWAP2 SWAP1 DUP2 DUP2 MSTORE PUSH1 0x20 ADD DUP3 DUP1 SLOAD PUSH2 0x47D SWAP1 PUSH2 0xB30 JUMP JUMPDEST DUP1 ISZERO PUSH2 0x4CA JUMPI DUP1 PUSH1 0x1F LT PUSH2 0x49F JUMPI PUSH2 0x100 DUP1 DUP4 SLOAD DIV MUL DUP4 MSTORE SWAP2 PUSH1 0x20 ADD SWAP2 PUSH2 0x4CA JUMP JUMPDEST DUP3 ADD SWAP2 SWAP1 PUSH1 0x0 MSTORE PUSH1 0x20 PUSH1 0x0 KECCAK256 SWAP1 JUMPDEST DUP2 SLOAD DUP2 MSTORE SWAP1 PUSH1 0x1 ADD SWAP1 PUSH1 0x20 ADD DUP1 DUP4 GT PUSH2 0x4AD JUMPI DUP3 SWAP1 SUB PUSH1 0x1F AND DUP3 ADD SWAP2 JUMPDEST POP POP POP POP POP SWAP1 DUP1 PUSH1 0x2 ADD DUP1 SLOAD PUSH2 0x4DF SWAP1 PUSH2 0xB30 JUMP JUMPDEST DUP1 PUSH1 0x1F ADD PUSH1 0x20 DUP1 SWAP2 DIV MUL PUSH1 0x20 ADD PUSH1 0x40 MLOAD SWAP1 DUP2 ADD PUSH1 0x40 MSTORE DUP1 SWAP3 SWAP2 SWAP1 DUP2 DUP2 MSTORE PUSH1 0x20 ADD DUP3 DUP1 SLOAD PUSH2 0x50B SWAP1 PUSH2 0xB30 JUMP JUMPDEST DUP1 ISZERO PUSH2 0x558 JUMPI DUP1 PUSH1 0x1F LT PUSH2 0x52D JUMPI PUSH2 0x100 DUP1 DUP4 SLOAD DIV MUL DUP4 MSTORE SWAP2 PUSH1 0x20 ADD SWAP2 PUSH2 0x558 JUMP JUMPDEST DUP3 ADD SWAP2 SWAP1 PUSH1 0x0 MSTORE PUSH1 0x20 PUSH1 0x0 KECCAK256 SWAP1 JUMPDEST DUP2 SLOAD DUP2 MSTORE SWAP1 PUSH1 0x1 ADD SWAP1 PUSH1 0x20 ADD DUP1 DUP4 GT PUSH2 0x53B JUMPI DUP3 SWAP1 SUB PUSH1 0x1F AND DUP3 ADD SWAP2 JUMPDEST POP POP POP POP POP SWAP1 POP DUP4 JUMP JUMPDEST PUSH1 0x9 DUP2 DUP2 SLOAD DUP2 LT PUSH2 0x572 JUMPI PUSH1 0x0 DUP1 REVERT JUMPDEST SWAP1 PUSH1 0x0 MSTORE PUSH1 0x20 PUSH1 0x0 KECCAK256 SWAP1 PUSH1 0x3 MUL ADD PUSH1 0x0 SWAP2 POP SWAP1 POP DUP1 PUSH1 0x0 ADD SLOAD SWAP1 DUP1 PUSH1 0x1 ADD DUP1 SLOAD PUSH2 0x59B SWAP1 PUSH2 0xB30 JUMP JUMPDEST DUP1 PUSH1 0x1F ADD PUSH1 0x20 DUP1 SWAP2 DIV MUL PUSH1 0x20 ADD PUSH1 0x40 MLOAD SWAP1 DUP2 ADD PUSH1 0x40 MSTORE DUP1 SWAP3 SWAP2 SWAP1 DUP2 DUP2 MSTORE PUSH1 0x20 ADD DUP3 DUP1 SLOAD PUSH2 0x5C7 SWAP1 PUSH2 0xB30 JUMP JUMPDEST DUP1 ISZERO PUSH2 0x614 JUMPI DUP1 PUSH1 0x1F LT PUSH2 0x5E9 JUMPI PUSH2 0x100 DUP1 DUP4 SLOAD DIV MUL DUP4 MSTORE SWAP2 PUSH1 0x20 ADD SWAP2 PUSH2 0x614 JUMP JUMPDEST DUP3 ADD SWAP2 SWAP1 PUSH1 0x0 MSTORE PUSH1 0x20 PUSH1 0x0 KECCAK256 SWAP1 JUMPDEST DUP2 SLOAD DUP2 MSTORE SWAP1 PUSH1 0x1 ADD SWAP1 PUSH1 0x20 ADD DUP1 DUP4 GT PUSH2 0x5F7 JUMPI DUP3 SWAP1 SUB PUSH1 0x1F AND DUP3 ADD SWAP2 JUMPDEST POP POP POP POP POP SWAP1 DUP1 PUSH1 0x2 ADD DUP1 SLOAD PUSH2 0x629 SWAP1 PUSH2 0xB30 JUMP JUMPDEST DUP1 PUSH1 0x1F ADD PUSH1 0x20 DUP1 SWAP2 DIV MUL PUSH1 0x20 ADD PUSH1 0x40 MLOAD SWAP1 DUP2 ADD PUSH1 0x40 MSTORE DUP1 SWAP3 SWAP2 SWAP1 DUP2 DUP2 MSTORE PUSH1 0x20 ADD DUP3 DUP1 SLOAD PUSH2 0x655 SWAP1 PUSH2 0xB30 JUMP JUMPDEST DUP1 ISZERO PUSH2 0x6A2 JUMPI DUP1 PUSH1 0x1F LT PUSH2 0x677 JUMPI PUSH2 0x100 DUP1 DUP4 SLOAD DIV MUL DUP4 MSTORE SWAP2 PUSH1 0x20 ADD SWAP2 PUSH2 0x6A2 JUMP JUMPDEST DUP3 ADD SWAP2 SWAP1 PUSH1 0x0 MSTORE PUSH1 0x20 PUSH1 0x0 KECCAK256 SWAP1 JUMPDEST DUP2 SLOAD DUP2 MSTORE SWAP1 PUSH1 0x1 ADD SWAP1 PUSH1 0x20 ADD DUP1 DUP4 GT PUSH2 0x685 JUMPI DUP3 SWAP1 SUB PUSH1 0x1F AND DUP3 ADD SWAP2 JUMPDEST POP POP POP POP POP SWAP1 POP DUP4 JUMP JUMPDEST PUSH1 0x3 DUP2 PUSH1 0x5 DUP2 LT PUSH2 0x6BC JUMPI PUSH1 0x0 DUP1 REVERT JUMPDEST ADD PUSH1 0x0 SWAP2 POP SWAP1 POP SLOAD DUP2 JUMP JUMPDEST DUP3 DUP1 SLOAD PUSH2 0x6D3 SWAP1 PUSH2 0xB30 JUMP JUMPDEST SWAP1 PUSH1 0x0 MSTORE PUSH1 0x20 PUSH1 0x0 KECCAK256 SWAP1 PUSH1 0x1F ADD PUSH1 0x20 SWAP1 DIV DUP2 ADD SWAP3 DUP3 PUSH2 0x6F5 JUMPI PUSH1 0x0 DUP6 SSTORE PUSH2 0x73C JUMP JUMPDEST DUP3 PUSH1 0x1F LT PUSH2 0x70E JUMPI DUP1 MLOAD PUSH1 0xFF NOT AND DUP4 DUP1 ADD OR DUP6 SSTORE PUSH2 0x73C JUMP JUMPDEST DUP3 DUP1 ADD PUSH1 0x1 ADD DUP6 SSTORE DUP3 ISZERO PUSH2 0x73C JUMPI SWAP2 DUP3 ADD JUMPDEST DUP3 DUP2 GT ISZERO PUSH2 0x73B JUMPI DUP3 MLOAD DUP3 SSTORE SWAP2 PUSH1 0x20 ADD SWAP2 SWAP1 PUSH1 0x1 ADD SWAP1 PUSH2 0x720 JUMP JUMPDEST JUMPDEST POP SWAP1 POP PUSH2 0x749 SWAP2 SWAP1 PUSH2 0x74D JUMP JUMPDEST POP SWAP1 JUMP JUMPDEST JUMPDEST DUP1 DUP3 GT ISZERO PUSH2 0x766 JUMPI PUSH1 0x0 DUP2 PUSH1 0x0 SWAP1 SSTORE POP PUSH1 0x1 ADD PUSH2 0x74E JUMP JUMPDEST POP SWAP1 JUMP JUMPDEST PUSH1 0x0 PUSH2 0x77D PUSH2 0x778 DUP5 PUSH2 0xA5A JUMP JUMPDEST PUSH2 0xA35 JUMP JUMPDEST SWAP1 POP DUP3 DUP2 MSTORE PUSH1 0x20 DUP2 ADD DUP5 DUP5 DUP5 ADD GT ISZERO PUSH2 0x799 JUMPI PUSH2 0x798 PUSH2 0xBF6 JUMP JUMPDEST JUMPDEST PUSH2 0x7A4 DUP5 DUP3 DUP6 PUSH2 0xAEE JUMP JUMPDEST POP SWAP4 SWAP3 POP POP POP JUMP JUMPDEST PUSH1 0x0 DUP2 CALLDATALOAD SWAP1 POP PUSH2 0x7BB DUP2 PUSH2 0xC16 JUMP JUMPDEST SWAP3 SWAP2 POP POP JUMP JUMPDEST PUSH1 0x0 DUP3 PUSH1 0x1F DUP4 ADD SLT PUSH2 0x7D6 JUMPI PUSH2 0x7D5 PUSH2 0xBF1 JUMP JUMPDEST JUMPDEST DUP2 CALLDATALOAD PUSH2 0x7E6 DUP5 DUP3 PUSH1 0x20 DUP7 ADD PUSH2 0x76A JUMP JUMPDEST SWAP2 POP POP SWAP3 SWAP2 POP POP JUMP JUMPDEST PUSH1 0x0 DUP2 CALLDATALOAD SWAP1 POP PUSH2 0x7FE DUP2 PUSH2 0xC2D JUMP JUMPDEST SWAP3 SWAP2 POP POP JUMP JUMPDEST PUSH1 0x0 PUSH1 0x20 DUP3 DUP5 SUB SLT ISZERO PUSH2 0x81A JUMPI PUSH2 0x819 PUSH2 0xC00 JUMP JUMPDEST JUMPDEST PUSH1 0x0 PUSH2 0x828 DUP5 DUP3 DUP6 ADD PUSH2 0x7AC JUMP JUMPDEST SWAP2 POP POP SWAP3 SWAP2 POP POP JUMP JUMPDEST PUSH1 0x0 DUP1 PUSH1 0x40 DUP4 DUP6 SUB SLT ISZERO PUSH2 0x848 JUMPI PUSH2 0x847 PUSH2 0xC00 JUMP JUMPDEST JUMPDEST PUSH1 0x0 DUP4 ADD CALLDATALOAD PUSH8 0xFFFFFFFFFFFFFFFF DUP2 GT ISZERO PUSH2 0x866 JUMPI PUSH2 0x865 PUSH2 0xBFB JUMP JUMPDEST JUMPDEST PUSH2 0x872 DUP6 DUP3 DUP7 ADD PUSH2 0x7C1 JUMP JUMPDEST SWAP3 POP POP PUSH1 0x20 PUSH2 0x883 DUP6 DUP3 DUP7 ADD PUSH2 0x7EF JUMP JUMPDEST SWAP2 POP POP SWAP3 POP SWAP3 SWAP1 POP JUMP JUMPDEST PUSH1 0x0 PUSH1 0x20 DUP3 DUP5 SUB SLT ISZERO PUSH2 0x8A3 JUMPI PUSH2 0x8A2 PUSH2 0xC00 JUMP JUMPDEST JUMPDEST PUSH1 0x0 PUSH2 0x8B1 DUP5 DUP3 DUP6 ADD PUSH2 0x7EF JUMP JUMPDEST SWAP2 POP POP SWAP3 SWAP2 POP POP JUMP JUMPDEST PUSH1 0x0 DUP1 PUSH1 0x0 PUSH1 0x60 DUP5 DUP7 SUB SLT ISZERO PUSH2 0x8D3 JUMPI PUSH2 0x8D2 PUSH2 0xC00 JUMP JUMPDEST JUMPDEST PUSH1 0x0 PUSH2 0x8E1 DUP7 DUP3 DUP8 ADD PUSH2 0x7EF JUMP JUMPDEST SWAP4 POP POP PUSH1 0x20 DUP5 ADD CALLDATALOAD PUSH8 0xFFFFFFFFFFFFFFFF DUP2 GT ISZERO PUSH2 0x902 JUMPI PUSH2 0x901 PUSH2 0xBFB JUMP JUMPDEST JUMPDEST PUSH2 0x90E DUP7 DUP3 DUP8 ADD PUSH2 0x7C1 JUMP JUMPDEST SWAP3 POP POP PUSH1 0x40 DUP5 ADD CALLDATALOAD PUSH8 0xFFFFFFFFFFFFFFFF DUP2 GT ISZERO PUSH2 0x92F JUMPI PUSH2 0x92E PUSH2 0xBFB JUMP JUMPDEST JUMPDEST PUSH2 0x93B DUP7 DUP3 DUP8 ADD PUSH2 0x7C1 JUMP JUMPDEST SWAP2 POP POP SWAP3 POP SWAP3 POP SWAP3 JUMP JUMPDEST PUSH1 0x0 PUSH2 0x950 DUP3 PUSH2 0xA8B JUMP JUMPDEST PUSH2 0x95A DUP2 DUP6 PUSH2 0xA96 JUMP JUMPDEST SWAP4 POP PUSH2 0x96A DUP2 DUP6 PUSH1 0x20 DUP7 ADD PUSH2 0xAFD JUMP JUMPDEST PUSH2 0x973 DUP2 PUSH2 0xC05 JUMP JUMPDEST DUP5 ADD SWAP2 POP POP SWAP3 SWAP2 POP POP JUMP JUMPDEST PUSH1 0x0 PUSH2 0x989 DUP3 PUSH2 0xA8B JUMP JUMPDEST PUSH2 0x993 DUP2 DUP6 PUSH2 0xAA7 JUMP JUMPDEST SWAP4 POP PUSH2 0x9A3 DUP2 DUP6 PUSH1 0x20 DUP7 ADD PUSH2 0xAFD JUMP JUMPDEST DUP1 DUP5 ADD SWAP2 POP POP SWAP3 SWAP2 POP POP JUMP JUMPDEST PUSH2 0x9B8 DUP2 PUSH2 0xAE4 JUMP JUMPDEST DUP3 MSTORE POP POP JUMP JUMPDEST PUSH1 0x0 PUSH2 0x9CA DUP3 DUP5 PUSH2 0x97E JUMP JUMPDEST SWAP2 POP DUP2 SWAP1 POP SWAP3 SWAP2 POP POP JUMP JUMPDEST PUSH1 0x0 PUSH1 0x20 DUP3 ADD SWAP1 POP PUSH2 0x9EA PUSH1 0x0 DUP4 ADD DUP5 PUSH2 0x9AF JUMP JUMPDEST SWAP3 SWAP2 POP POP JUMP JUMPDEST PUSH1 0x0 PUSH1 0x60 DUP3 ADD SWAP1 POP PUSH2 0xA05 PUSH1 0x0 DUP4 ADD DUP7 PUSH2 0x9AF JUMP JUMPDEST DUP2 DUP2 SUB PUSH1 0x20 DUP4 ADD MSTORE PUSH2 0xA17 DUP2 DUP6 PUSH2 0x945 JUMP JUMPDEST SWAP1 POP DUP2 DUP2 SUB PUSH1 0x40 DUP4 ADD MSTORE PUSH2 0xA2B DUP2 DUP5 PUSH2 0x945 JUMP JUMPDEST SWAP1 POP SWAP5 SWAP4 POP POP POP POP JUMP JUMPDEST PUSH1 0x0 PUSH2 0xA3F PUSH2 0xA50 JUMP JUMPDEST SWAP1 POP PUSH2 0xA4B DUP3 DUP3 PUSH2 0xB62 JUMP JUMPDEST SWAP2 SWAP1 POP JUMP JUMPDEST PUSH1 0x0 PUSH1 0x40 MLOAD SWAP1 POP SWAP1 JUMP JUMPDEST PUSH1 0x0 PUSH8 0xFFFFFFFFFFFFFFFF DUP3 GT ISZERO PUSH2 0xA75 JUMPI PUSH2 0xA74 PUSH2 0xBC2 JUMP JUMPDEST JUMPDEST PUSH2 0xA7E DUP3 PUSH2 0xC05 JUMP JUMPDEST SWAP1 POP PUSH1 0x20 DUP2 ADD SWAP1 POP SWAP2 SWAP1 POP JUMP JUMPDEST PUSH1 0x0 DUP2 MLOAD SWAP1 POP SWAP2 SWAP1 POP JUMP JUMPDEST PUSH1 0x0 DUP3 DUP3 MSTORE PUSH1 0x20 DUP3 ADD SWAP1 POP SWAP3 SWAP2 POP POP JUMP JUMPDEST PUSH1 0x0 DUP2 SWAP1 POP SWAP3 SWAP2 POP POP JUMP JUMPDEST PUSH1 0x0 PUSH2 0xABD DUP3 PUSH2 0xAC4 JUMP JUMPDEST SWAP1 POP SWAP2 SWAP1 POP JUMP JUMPDEST PUSH1 0x0 PUSH20 0xFFFFFFFFFFFFFFFFFFFFFFFFFFFFFFFFFFFFFFFF DUP3 AND SWAP1 POP SWAP2 SWAP1 POP JUMP JUMPDEST PUSH1 0x0 DUP2 SWAP1 POP SWAP2 SWAP1 POP JUMP JUMPDEST DUP3 DUP2 DUP4 CALLDATACOPY PUSH1 0x0 DUP4 DUP4 ADD MSTORE POP POP POP JUMP JUMPDEST PUSH1 0x0 JUMPDEST DUP4 DUP2 LT ISZERO PUSH2 0xB1B JUMPI DUP1 DUP3 ADD MLOAD DUP2 DUP5 ADD MSTORE PUSH1 0x20 DUP2 ADD SWAP1 POP PUSH2 0xB00 JUMP JUMPDEST DUP4 DUP2 GT ISZERO PUSH2 0xB2A JUMPI PUSH1 0x0 DUP5 DUP5 ADD MSTORE JUMPDEST POP POP POP POP JUMP JUMPDEST PUSH1 0x0 PUSH1 0x2 DUP3 DIV SWAP1 POP PUSH1 0x1 DUP3 AND DUP1 PUSH2 0xB48 JUMPI PUSH1 0x7F DUP3 AND SWAP2 POP JUMPDEST PUSH1 0x20 DUP3 LT DUP2 EQ ISZERO PUSH2 0xB5C JUMPI PUSH2 0xB5B PUSH2 0xB93 JUMP JUMPDEST JUMPDEST POP SWAP2 SWAP1 POP JUMP JUMPDEST PUSH2 0xB6B DUP3 PUSH2 0xC05 JUMP JUMPDEST DUP2 ADD DUP2 DUP2 LT PUSH8 0xFFFFFFFFFFFFFFFF DUP3 GT OR ISZERO PUSH2 0xB8A JUMPI PUSH2 0xB89 PUSH2 0xBC2 JUMP JUMPDEST JUMPDEST DUP1 PUSH1 0x40 MSTORE POP POP POP JUMP JUMPDEST PUSH32 0x4E487B7100000000000000000000000000000000000000000000000000000000 PUSH1 0x0 MSTORE PUSH1 0x22 PUSH1 0x4 MSTORE PUSH1 0x24 PUSH1 0x0 REVERT JUMPDEST PUSH32 0x4E487B7100000000000000000000000000000000000000000000000000000000 PUSH1 0x0 MSTORE PUSH1 0x41 PUSH1 0x4 MSTORE PUSH1 0x24 PUSH1 0x0 REVERT JUMPDEST PUSH1 0x0 DUP1 REVERT JUMPDEST PUSH1 0x0 DUP1 REVERT JUMPDEST PUSH1 0x0 DUP1 REVERT JUMPDEST PUSH1 0x0 DUP1 REVERT JUMPDEST PUSH1 0x0 PUSH1 0x1F NOT PUSH1 0x1F DUP4 ADD AND SWAP1 POP SWAP2 SWAP1 POP JUMP JUMPDEST PUSH2 0xC1F DUP2 PUSH2 0xAB2 JUMP JUMPDEST DUP2 EQ PUSH2 0xC2A JUMPI PUSH1 0x0 DUP1 REVERT JUMPDEST POP JUMP JUMPDEST PUSH2 0xC36 DUP2 PUSH2 0xAE4 JUMP JUMPDEST DUP2 EQ PUSH2 0xC41 JUMPI PUSH1 0x0 DUP1 REVERT JUMPDEST POP JUMP INVALID LOG2 PUSH5 0x6970667358 0x22 SLT KECCAK256 SMOD 0x1F DUP1 0xE PC SWAP9 0x2A 0xA5 SHL 0xB1 PUSH2 0x53D8 MUL CREATE2 SLT 0x2E 0xC8 MLOAD OR DUP2 REVERT 0xD4 JUMPDEST SDIV 0xE3 0x2A MLOAD PUSH25 0x842EA764736F6C634300080700330000000000000000000000 "
				},
				"gasEstimates": {
					"creation": {
						"codeDepositCost": "638800",
						"executionCost": "infinite",
						"totalCost": "infinite"
					},
					"external": {
						"address_dataStructure(address)": "infinite",
						"address_uint(address)": "2815",
						"array_modificatios(uint256,string,string)": "infinite",
						"assignDataStorage(uint256,string,string)": "infinite",
						"assignList(string,uint256)": "infinite",
						"assignNumber(uint256)": "22609",
						"dynamic_list_customer(uint256)": "infinite",
						"fixed_list_uints(uint256)": "infinite",
						"string_list(string,uint256)": "infinite"
					}
				},
				"methodIdentifiers": {
					"address_dataStructure(address)": "eaaefa96",
					"address_uint(address)": "7a088a2e",
					"array_modificatios(uint256,string,string)": "e897cb4a",
					"assignDataStorage(uint256,string,string)": "d7f5fe84",
					"assignList(string,uint256)": "89553d46",
					"assignNumber(uint256)": "e52b008f",
					"dynamic_list_customer(uint256)": "f096fa63",
					"fixed_list_uints(uint256)": "fecb2c16",
					"string_list(string,uint256)": "ddb7b87d"
				}
			},
			"storageLayout": {
				"storage": [
					{
						"astId": 16,
						"contract": "Contracts/structs_datos.sol:data_structures",
						"label": "customer_1",
						"offset": 0,
						"slot": "0",
						"type": "t_struct(Customer)8_storage"
					},
					{
						"astId": 26,
						"contract": "Contracts/structs_datos.sol:data_structures",
						"label": "fixed_list_uints",
						"offset": 0,
						"slot": "3",
						"type": "t_array(t_uint256)5_storage"
					},
					{
						"astId": 29,
						"contract": "Contracts/structs_datos.sol:data_structures",
						"label": "dynamic_list_uints",
						"offset": 0,
						"slot": "8",
						"type": "t_array(t_uint256)dyn_storage"
					},
					{
						"astId": 33,
						"contract": "Contracts/structs_datos.sol:data_structures",
						"label": "dynamic_list_customer",
						"offset": 0,
						"slot": "9",
						"type": "t_array(t_struct(Customer)8_storage)dyn_storage"
					},
					{
						"astId": 62,
						"contract": "Contracts/structs_datos.sol:data_structures",
						"label": "address_uint",
						"offset": 0,
						"slot": "10",
						"type": "t_mapping(t_address,t_uint256)"
					},
					{
						"astId": 67,
						"contract": "Contracts/structs_datos.sol:data_structures",
						"label": "string_list",
						"offset": 0,
						"slot": "11",
						"type": "t_mapping(t_string_memory_ptr,t_array(t_uint256)dyn_storage)"
					},
					{
						"astId": 72,
						"contract": "Contracts/structs_datos.sol:data_structures",
						"label": "address_dataStructure",
						"offset": 0,
						"slot": "12",
						"type": "t_mapping(t_address,t_struct(Customer)8_storage)"
					}
				],
				"types": {
					"t_address": {
						"encoding": "inplace",
						"label": "address",
						"numberOfBytes": "20"
					},
					"t_array(t_struct(Customer)8_storage)dyn_storage": {
						"base": "t_struct(Customer)8_storage",
						"encoding": "dynamic_array",
						"label": "struct data_structures.Customer[]",
						"numberOfBytes": "32"
					},
					"t_array(t_uint256)5_storage": {
						"base": "t_uint256",
						"encoding": "inplace",
						"label": "uint256[5]",
						"numberOfBytes": "160"
					},
					"t_array(t_uint256)dyn_storage": {
						"base": "t_uint256",
						"encoding": "dynamic_array",
						"label": "uint256[]",
						"numberOfBytes": "32"
					},
					"t_mapping(t_address,t_struct(Customer)8_storage)": {
						"encoding": "mapping",
						"key": "t_address",
						"label": "mapping(address => struct data_structures.Customer)",
						"numberOfBytes": "32",
						"value": "t_struct(Customer)8_storage"
					},
					"t_mapping(t_address,t_uint256)": {
						"encoding": "mapping",
						"key": "t_address",
						"label": "mapping(address => uint256)",
						"numberOfBytes": "32",
						"value": "t_uint256"
					},
					"t_mapping(t_string_memory_ptr,t_array(t_uint256)dyn_storage)": {
						"encoding": "mapping",
						"key": "t_string_memory_ptr",
						"label": "mapping(string => uint256[])",
						"numberOfBytes": "32",
						"value": "t_array(t_uint256)dyn_storage"
					},
					"t_string_memory_ptr": {
						"encoding": "bytes",
						"label": "string",
						"numberOfBytes": "32"
					},
					"t_string_storage": {
						"encoding": "bytes",
						"label": "string",
						"numberOfBytes": "32"
					},
					"t_struct(Customer)8_storage": {
						"encoding": "inplace",
						"label": "struct data_structures.Customer",
						"members": [
							{
								"astId": 3,
								"contract": "Contracts/structs_datos.sol:data_structures",
								"label": "id",
								"offset": 0,
								"slot": "0",
								"type": "t_uint256"
							},
							{
								"astId": 5,
								"contract": "Contracts/structs_datos.sol:data_structures",
								"label": "name",
								"offset": 0,
								"slot": "1",
								"type": "t_string_storage"
							},
							{
								"astId": 7,
								"contract": "Contracts/structs_datos.sol:data_structures",
								"label": "email",
								"offset": 0,
								"slot": "2",
								"type": "t_string_storage"
							}
						],
						"numberOfBytes": "96"
					},
					"t_uint256": {
						"encoding": "inplace",
						"label": "uint256",
						"numberOfBytes": "32"
					}
				}
			},
			"userdoc": {
				"kind": "user",
				"methods": {},
				"version": 1
			}
		}
	}
}