{
	"Contracts/factory.sol": {
		"padre": {
			"abi": [
				{
					"inputs": [],
					"name": "Factory",
					"outputs": [],
					"stateMutability": "nonpayable",
					"type": "function"
				}
			],
			"devdoc": {
				"kind": "dev",
				"methods": {},
				"version": 1
			},
			"evm": {
				"assembly": "    /* \"Contracts/factory.sol\":83:443  contract padre {\r... */\n  mstore(0x40, 0x80)\n  callvalue\n  dup1\n  iszero\n  tag_1\n  jumpi\n  0x00\n  dup1\n  revert\ntag_1:\n  pop\n  dataSize(sub_0)\n  dup1\n  dataOffset(sub_0)\n  0x00\n  codecopy\n  0x00\n  return\nstop\n\nsub_0: assembly {\n        /* \"Contracts/factory.sol\":83:443  contract padre {\r... */\n      mstore(0x40, 0x80)\n      callvalue\n      dup1\n      iszero\n      tag_1\n      jumpi\n      0x00\n      dup1\n      revert\n    tag_1:\n      pop\n      jumpi(tag_2, lt(calldatasize, 0x04))\n      shr(0xe0, calldataload(0x00))\n      dup1\n      0xc83dd231\n      eq\n      tag_3\n      jumpi\n    tag_2:\n      0x00\n      dup1\n      revert\n        /* \"Contracts/factory.sol\":249:438  function Factory() public {\r... */\n    tag_3:\n      tag_4\n      tag_5\n      jump\t// in\n    tag_4:\n      stop\n    tag_5:\n        /* \"Contracts/factory.sol\":286:316  address addr_personal_contract */\n      0x00\n        /* \"Contracts/factory.sol\":336:346  msg.sender */\n      caller\n        /* \"Contracts/factory.sol\":356:360  this */\n      address\n        /* \"Contracts/factory.sol\":327:362  new hijo(msg.sender, address(this)) */\n      mload(0x40)\n      tag_7\n      swap1\n      tag_8\n      jump\t// in\n    tag_7:\n      tag_9\n      swap3\n      swap2\n      swap1\n      tag_10\n      jump\t// in\n    tag_9:\n      mload(0x40)\n      dup1\n      swap2\n      sub\n      swap1\n      0x00\n      create\n      dup1\n      iszero\n      dup1\n      iszero\n      tag_11\n      jumpi\n      returndatasize\n      0x00\n      dup1\n      returndatacopy\n      revert(0x00, returndatasize)\n    tag_11:\n      pop\n        /* \"Contracts/factory.sol\":286:363  address addr_personal_contract = address(new hijo(msg.sender, address(this))) */\n      swap1\n      pop\n        /* \"Contracts/factory.sol\":406:428  addr_personal_contract */\n      dup1\n        /* \"Contracts/factory.sol\":374:391  personal_contract */\n      0x00\n        /* \"Contracts/factory.sol\":374:403  personal_contract[msg.sender] */\n      dup1\n        /* \"Contracts/factory.sol\":392:402  msg.sender */\n      caller\n        /* \"Contracts/factory.sol\":374:403  personal_contract[msg.sender] */\n      0xffffffffffffffffffffffffffffffffffffffff\n      and\n      0xffffffffffffffffffffffffffffffffffffffff\n      and\n      dup2\n      mstore\n      0x20\n      add\n      swap1\n      dup2\n      mstore\n      0x20\n      add\n      0x00\n      keccak256\n      0x00\n        /* \"Contracts/factory.sol\":374:428  personal_contract[msg.sender] = addr_personal_contract */\n      0x0100\n      exp\n      dup2\n      sload\n      dup2\n      0xffffffffffffffffffffffffffffffffffffffff\n      mul\n      not\n      and\n      swap1\n      dup4\n      0xffffffffffffffffffffffffffffffffffffffff\n      and\n      mul\n      or\n      swap1\n      sstore\n      pop\n        /* \"Contracts/factory.sol\":275:438  {\r... */\n      pop\n        /* \"Contracts/factory.sol\":249:438  function Factory() public {\r... */\n      jump\t// out\n    tag_8:\n      dataSize(sub_0)\n      dup1\n      dataOffset(sub_0)\n      dup4\n      codecopy\n      add\n      swap1\n      jump\t// out\n        /* \"#utility.yul\":7:125   */\n    tag_13:\n        /* \"#utility.yul\":94:118   */\n      tag_15\n        /* \"#utility.yul\":112:117   */\n      dup2\n        /* \"#utility.yul\":94:118   */\n      tag_16\n      jump\t// in\n    tag_15:\n        /* \"#utility.yul\":89:92   */\n      dup3\n        /* \"#utility.yul\":82:119   */\n      mstore\n        /* \"#utility.yul\":7:125   */\n      pop\n      pop\n      jump\t// out\n        /* \"#utility.yul\":131:463   */\n    tag_10:\n        /* \"#utility.yul\":252:256   */\n      0x00\n        /* \"#utility.yul\":290:292   */\n      0x40\n        /* \"#utility.yul\":279:288   */\n      dup3\n        /* \"#utility.yul\":275:293   */\n      add\n        /* \"#utility.yul\":267:293   */\n      swap1\n      pop\n        /* \"#utility.yul\":303:374   */\n      tag_18\n        /* \"#utility.yul\":371:372   */\n      0x00\n        /* \"#utility.yul\":360:369   */\n      dup4\n        /* \"#utility.yul\":356:373   */\n      add\n        /* \"#utility.yul\":347:353   */\n      dup6\n        /* \"#utility.yul\":303:374   */\n      tag_13\n      jump\t// in\n    tag_18:\n        /* \"#utility.yul\":384:456   */\n      tag_19\n        /* \"#utility.yul\":452:454   */\n      0x20\n        /* \"#utility.yul\":441:450   */\n      dup4\n        /* \"#utility.yul\":437:455   */\n      add\n        /* \"#utility.yul\":428:434   */\n      dup5\n        /* \"#utility.yul\":384:456   */\n      tag_13\n      jump\t// in\n    tag_19:\n        /* \"#utility.yul\":131:463   */\n      swap4\n      swap3\n      pop\n      pop\n      pop\n      jump\t// out\n        /* \"#utility.yul\":469:565   */\n    tag_16:\n        /* \"#utility.yul\":506:513   */\n      0x00\n        /* \"#utility.yul\":535:559   */\n      tag_21\n        /* \"#utility.yul\":553:558   */\n      dup3\n        /* \"#utility.yul\":535:559   */\n      tag_22\n      jump\t// in\n    tag_21:\n        /* \"#utility.yul\":524:559   */\n      swap1\n      pop\n        /* \"#utility.yul\":469:565   */\n      swap2\n      swap1\n      pop\n      jump\t// out\n        /* \"#utility.yul\":571:697   */\n    tag_22:\n        /* \"#utility.yul\":608:615   */\n      0x00\n        /* \"#utility.yul\":648:690   */\n      0xffffffffffffffffffffffffffffffffffffffff\n        /* \"#utility.yul\":641:646   */\n      dup3\n        /* \"#utility.yul\":637:691   */\n      and\n        /* \"#utility.yul\":626:691   */\n      swap1\n      pop\n        /* \"#utility.yul\":571:697   */\n      swap2\n      swap1\n      pop\n      jump\t// out\n    stop\n\n    sub_0: assembly {\n            /* \"Contracts/factory.sol\":447:822  contract hijo {\r... */\n          mstore(0x40, 0x80)\n            /* \"Contracts/factory.sol\":672:817  constructor(address _account, address _account2){\r... */\n          callvalue\n          dup1\n          iszero\n          tag_1\n          jumpi\n          0x00\n          dup1\n          revert\n        tag_1:\n          pop\n          mload(0x40)\n          sub(codesize, bytecodeSize)\n          dup1\n          bytecodeSize\n          dup4\n          codecopy\n          dup2\n          dup2\n          add\n          0x40\n          mstore\n          dup2\n          add\n          swap1\n          tag_2\n          swap2\n          swap1\n          tag_3\n          jump\t// in\n        tag_2:\n            /* \"Contracts/factory.sol\":752:760  _account */\n          dup2\n            /* \"Contracts/factory.sol\":731:742  propietario */\n          0x00\n            /* \"Contracts/factory.sol\":731:749  propietario._owner */\n          dup1\n          add\n          0x00\n            /* \"Contracts/factory.sol\":731:760  propietario._owner = _account */\n          0x0100\n          exp\n          dup2\n          sload\n          dup2\n          0xffffffffffffffffffffffffffffffffffffffff\n          mul\n          not\n          and\n          swap1\n          dup4\n          0xffffffffffffffffffffffffffffffffffffffff\n          and\n          mul\n          or\n          swap1\n          sstore\n          pop\n            /* \"Contracts/factory.sol\":800:809  _account2 */\n          dup1\n            /* \"Contracts/factory.sol\":771:782  propietario */\n          0x00\n            /* \"Contracts/factory.sol\":771:797  propietario._smartcontract */\n          0x01\n          add\n          0x00\n            /* \"Contracts/factory.sol\":771:809  propietario._smartcontract = _account2 */\n          0x0100\n          exp\n          dup2\n          sload\n          dup2\n          0xffffffffffffffffffffffffffffffffffffffff\n          mul\n          not\n          and\n          swap1\n          dup4\n          0xffffffffffffffffffffffffffffffffffffffff\n          and\n          mul\n          or\n          swap1\n          sstore\n          pop\n            /* \"Contracts/factory.sol\":672:817  constructor(address _account, address _account2){\r... */\n          pop\n          pop\n            /* \"Contracts/factory.sol\":447:822  contract hijo {\r... */\n          jump(tag_6)\n            /* \"#utility.yul\":7:150   */\n        tag_8:\n            /* \"#utility.yul\":64:69   */\n          0x00\n            /* \"#utility.yul\":95:101   */\n          dup2\n            /* \"#utility.yul\":89:102   */\n          mload\n            /* \"#utility.yul\":80:102   */\n          swap1\n          pop\n            /* \"#utility.yul\":111:144   */\n          tag_10\n            /* \"#utility.yul\":138:143   */\n          dup2\n            /* \"#utility.yul\":111:144   */\n          tag_11\n          jump\t// in\n        tag_10:\n            /* \"#utility.yul\":7:150   */\n          swap3\n          swap2\n          pop\n          pop\n          jump\t// out\n            /* \"#utility.yul\":156:663   */\n        tag_3:\n            /* \"#utility.yul\":235:241   */\n          0x00\n            /* \"#utility.yul\":243:249   */\n          dup1\n            /* \"#utility.yul\":292:294   */\n          0x40\n            /* \"#utility.yul\":280:289   */\n          dup4\n            /* \"#utility.yul\":271:278   */\n          dup6\n            /* \"#utility.yul\":267:290   */\n          sub\n            /* \"#utility.yul\":263:295   */\n          slt\n            /* \"#utility.yul\":260:379   */\n          iszero\n          tag_13\n          jumpi\n            /* \"#utility.yul\":298:377   */\n          tag_14\n          tag_15\n          jump\t// in\n        tag_14:\n            /* \"#utility.yul\":260:379   */\n        tag_13:\n            /* \"#utility.yul\":418:419   */\n          0x00\n            /* \"#utility.yul\":443:507   */\n          tag_16\n            /* \"#utility.yul\":499:506   */\n          dup6\n            /* \"#utility.yul\":490:496   */\n          dup3\n            /* \"#utility.yul\":479:488   */\n          dup7\n            /* \"#utility.yul\":475:497   */\n          add\n            /* \"#utility.yul\":443:507   */\n          tag_8\n          jump\t// in\n        tag_16:\n            /* \"#utility.yul\":433:507   */\n          swap3\n          pop\n            /* \"#utility.yul\":389:517   */\n          pop\n            /* \"#utility.yul\":556:558   */\n          0x20\n            /* \"#utility.yul\":582:646   */\n          tag_17\n            /* \"#utility.yul\":638:645   */\n          dup6\n            /* \"#utility.yul\":629:635   */\n          dup3\n            /* \"#utility.yul\":618:627   */\n          dup7\n            /* \"#utility.yul\":614:636   */\n          add\n            /* \"#utility.yul\":582:646   */\n          tag_8\n          jump\t// in\n        tag_17:\n            /* \"#utility.yul\":572:646   */\n          swap2\n          pop\n            /* \"#utility.yul\":527:656   */\n          pop\n            /* \"#utility.yul\":156:663   */\n          swap3\n          pop\n          swap3\n          swap1\n          pop\n          jump\t// out\n            /* \"#utility.yul\":750:846   */\n        tag_20:\n            /* \"#utility.yul\":787:794   */\n          0x00\n            /* \"#utility.yul\":816:840   */\n          tag_22\n            /* \"#utility.yul\":834:839   */\n          dup3\n            /* \"#utility.yul\":816:840   */\n          tag_23\n          jump\t// in\n        tag_22:\n            /* \"#utility.yul\":805:840   */\n          swap1\n          pop\n            /* \"#utility.yul\":750:846   */\n          swap2\n          swap1\n          pop\n          jump\t// out\n            /* \"#utility.yul\":852:978   */\n        tag_23:\n            /* \"#utility.yul\":889:896   */\n          0x00\n            /* \"#utility.yul\":929:971   */\n          0xffffffffffffffffffffffffffffffffffffffff\n            /* \"#utility.yul\":922:927   */\n          dup3\n            /* \"#utility.yul\":918:972   */\n          and\n            /* \"#utility.yul\":907:972   */\n          swap1\n          pop\n            /* \"#utility.yul\":852:978   */\n          swap2\n          swap1\n          pop\n          jump\t// out\n            /* \"#utility.yul\":1107:1224   */\n        tag_15:\n            /* \"#utility.yul\":1216:1217   */\n          0x00\n            /* \"#utility.yul\":1213:1214   */\n          dup1\n            /* \"#utility.yul\":1206:1218   */\n          revert\n            /* \"#utility.yul\":1230:1352   */\n        tag_11:\n            /* \"#utility.yul\":1303:1327   */\n          tag_29\n            /* \"#utility.yul\":1321:1326   */\n          dup2\n            /* \"#utility.yul\":1303:1327   */\n          tag_20\n          jump\t// in\n        tag_29:\n            /* \"#utility.yul\":1296:1301   */\n          dup2\n            /* \"#utility.yul\":1293:1328   */\n          eq\n            /* \"#utility.yul\":1283:1346   */\n          tag_30\n          jumpi\n            /* \"#utility.yul\":1342:1343   */\n          0x00\n            /* \"#utility.yul\":1339:1340   */\n          dup1\n            /* \"#utility.yul\":1332:1344   */\n          revert\n            /* \"#utility.yul\":1283:1346   */\n        tag_30:\n            /* \"#utility.yul\":1230:1352   */\n          pop\n          jump\t// out\n            /* \"Contracts/factory.sol\":447:822  contract hijo {\r... */\n        tag_6:\n          dataSize(sub_0)\n          dup1\n          dataOffset(sub_0)\n          0x00\n          codecopy\n          0x00\n          return\n        stop\n\n        sub_0: assembly {\n                /* \"Contracts/factory.sol\":447:822  contract hijo {\r... */\n              mstore(0x40, 0x80)\n              callvalue\n              dup1\n              iszero\n              tag_1\n              jumpi\n              0x00\n              dup1\n              revert\n            tag_1:\n              pop\n              jumpi(tag_2, lt(calldatasize, 0x04))\n              shr(0xe0, calldataload(0x00))\n              dup1\n              0x3c4f81cd\n              eq\n              tag_3\n              jumpi\n            tag_2:\n              0x00\n              dup1\n              revert\n                /* \"Contracts/factory.sol\":509:533  Owner public propietario */\n            tag_3:\n              tag_4\n              tag_5\n              jump\t// in\n            tag_4:\n              mload(0x40)\n              tag_6\n              swap3\n              swap2\n              swap1\n              tag_7\n              jump\t// in\n            tag_6:\n              mload(0x40)\n              dup1\n              swap2\n              sub\n              swap1\n              return\n            tag_5:\n              0x00\n              dup1\n              0x00\n              add\n              0x00\n              swap1\n              sload\n              swap1\n              0x0100\n              exp\n              swap1\n              div\n              0xffffffffffffffffffffffffffffffffffffffff\n              and\n              swap1\n              dup1\n              0x01\n              add\n              0x00\n              swap1\n              sload\n              swap1\n              0x0100\n              exp\n              swap1\n              div\n              0xffffffffffffffffffffffffffffffffffffffff\n              and\n              swap1\n              pop\n              dup3\n              jump\t// out\n                /* \"#utility.yul\":7:125   */\n            tag_9:\n                /* \"#utility.yul\":94:118   */\n              tag_11\n                /* \"#utility.yul\":112:117   */\n              dup2\n                /* \"#utility.yul\":94:118   */\n              tag_12\n              jump\t// in\n            tag_11:\n                /* \"#utility.yul\":89:92   */\n              dup3\n                /* \"#utility.yul\":82:119   */\n              mstore\n                /* \"#utility.yul\":7:125   */\n              pop\n              pop\n              jump\t// out\n                /* \"#utility.yul\":131:463   */\n            tag_7:\n                /* \"#utility.yul\":252:256   */\n              0x00\n                /* \"#utility.yul\":290:292   */\n              0x40\n                /* \"#utility.yul\":279:288   */\n              dup3\n                /* \"#utility.yul\":275:293   */\n              add\n                /* \"#utility.yul\":267:293   */\n              swap1\n              pop\n                /* \"#utility.yul\":303:374   */\n              tag_14\n                /* \"#utility.yul\":371:372   */\n              0x00\n                /* \"#utility.yul\":360:369   */\n              dup4\n                /* \"#utility.yul\":356:373   */\n              add\n                /* \"#utility.yul\":347:353   */\n              dup6\n                /* \"#utility.yul\":303:374   */\n              tag_9\n              jump\t// in\n            tag_14:\n                /* \"#utility.yul\":384:456   */\n              tag_15\n                /* \"#utility.yul\":452:454   */\n              0x20\n                /* \"#utility.yul\":441:450   */\n              dup4\n                /* \"#utility.yul\":437:455   */\n              add\n                /* \"#utility.yul\":428:434   */\n              dup5\n                /* \"#utility.yul\":384:456   */\n              tag_9\n              jump\t// in\n            tag_15:\n                /* \"#utility.yul\":131:463   */\n              swap4\n              swap3\n              pop\n              pop\n              pop\n              jump\t// out\n                /* \"#utility.yul\":469:565   */\n            tag_12:\n                /* \"#utility.yul\":506:513   */\n              0x00\n                /* \"#utility.yul\":535:559   */\n              tag_17\n                /* \"#utility.yul\":553:558   */\n              dup3\n                /* \"#utility.yul\":535:559   */\n              tag_18\n              jump\t// in\n            tag_17:\n                /* \"#utility.yul\":524:559   */\n              swap1\n              pop\n                /* \"#utility.yul\":469:565   */\n              swap2\n              swap1\n              pop\n              jump\t// out\n                /* \"#utility.yul\":571:697   */\n            tag_18:\n                /* \"#utility.yul\":608:615   */\n              0x00\n                /* \"#utility.yul\":648:690   */\n              0xffffffffffffffffffffffffffffffffffffffff\n                /* \"#utility.yul\":641:646   */\n              dup3\n                /* \"#utility.yul\":637:691   */\n              and\n                /* \"#utility.yul\":626:691   */\n              swap1\n              pop\n                /* \"#utility.yul\":571:697   */\n              swap2\n              swap1\n              pop\n              jump\t// out\n\n            auxdata: 0xa26469706673582212206e5169abe28bd97633e00ee54032176bb4a65bed96438d1285a490572055fc2164736f6c63430008070033\n        }\n    }\n\n    auxdata: 0xa264697066735822122086e0d5a3f6347ac7a2a4ba8f7d2c52eb37f7c0fb38eca60494b23669a75e8e8264736f6c63430008070033\n}\n",
				"bytecode": {
					"linkReferences": {},
					"object": "608060405234801561001057600080fd5b50610445806100206000396000f3fe608060405234801561001057600080fd5b506004361061002b5760003560e01c8063c83dd23114610030575b600080fd5b61003861003a565b005b6000333060405161004a906100f4565b610055929190610110565b604051809103906000f080158015610071573d6000803e3d6000fd5b509050806000803373ffffffffffffffffffffffffffffffffffffffff1673ffffffffffffffffffffffffffffffffffffffff16815260200190815260200160002060006101000a81548173ffffffffffffffffffffffffffffffffffffffff021916908373ffffffffffffffffffffffffffffffffffffffff16021790555050565b6102a48061016c83390190565b61010a81610139565b82525050565b60006040820190506101256000830185610101565b6101326020830184610101565b9392505050565b60006101448261014b565b9050919050565b600073ffffffffffffffffffffffffffffffffffffffff8216905091905056fe608060405234801561001057600080fd5b506040516102a43803806102a4833981810160405281019061003291906100d5565b816000800160006101000a81548173ffffffffffffffffffffffffffffffffffffffff021916908373ffffffffffffffffffffffffffffffffffffffff16021790555080600060010160006101000a81548173ffffffffffffffffffffffffffffffffffffffff021916908373ffffffffffffffffffffffffffffffffffffffff1602179055505050610163565b6000815190506100cf8161014c565b92915050565b600080604083850312156100ec576100eb610147565b5b60006100fa858286016100c0565b925050602061010b858286016100c0565b9150509250929050565b600061012082610127565b9050919050565b600073ffffffffffffffffffffffffffffffffffffffff82169050919050565b600080fd5b61015581610115565b811461016057600080fd5b50565b610132806101726000396000f3fe6080604052348015600f57600080fd5b506004361060285760003560e01c80633c4f81cd14602d575b600080fd5b60336048565b604051603f92919060a7565b60405180910390f35b60008060000160009054906101000a900473ffffffffffffffffffffffffffffffffffffffff16908060010160009054906101000a900473ffffffffffffffffffffffffffffffffffffffff16905082565b60a18160cc565b82525050565b600060408201905060ba6000830185609a565b60c56020830184609a565b9392505050565b600060d58260dc565b9050919050565b600073ffffffffffffffffffffffffffffffffffffffff8216905091905056fea26469706673582212206e5169abe28bd97633e00ee54032176bb4a65bed96438d1285a490572055fc2164736f6c63430008070033a264697066735822122086e0d5a3f6347ac7a2a4ba8f7d2c52eb37f7c0fb38eca60494b23669a75e8e8264736f6c63430008070033",
					"opcodes": "PUSH1 0x80 PUSH1 0x40 MSTORE CALLVALUE DUP1 ISZERO PUSH2 0x10 JUMPI PUSH1 0x0 DUP1 REVERT JUMPDEST POP PUSH2 0x445 DUP1 PUSH2 0x20 PUSH1 0x0 CODECOPY PUSH1 0x0 RETURN INVALID PUSH1 0x80 PUSH1 0x40 MSTORE CALLVALUE DUP1 ISZERO PUSH2 0x10 JUMPI PUSH1 0x0 DUP1 REVERT JUMPDEST POP PUSH1 0x4 CALLDATASIZE LT PUSH2 0x2B JUMPI PUSH1 0x0 CALLDATALOAD PUSH1 0xE0 SHR DUP1 PUSH4 0xC83DD231 EQ PUSH2 0x30 JUMPI JUMPDEST PUSH1 0x0 DUP1 REVERT JUMPDEST PUSH2 0x38 PUSH2 0x3A JUMP JUMPDEST STOP JUMPDEST PUSH1 0x0 CALLER ADDRESS PUSH1 0x40 MLOAD PUSH2 0x4A SWAP1 PUSH2 0xF4 JUMP JUMPDEST PUSH2 0x55 SWAP3 SWAP2 SWAP1 PUSH2 0x110 JUMP JUMPDEST PUSH1 0x40 MLOAD DUP1 SWAP2 SUB SWAP1 PUSH1 0x0 CREATE DUP1 ISZERO DUP1 ISZERO PUSH2 0x71 JUMPI RETURNDATASIZE PUSH1 0x0 DUP1 RETURNDATACOPY RETURNDATASIZE PUSH1 0x0 REVERT JUMPDEST POP SWAP1 POP DUP1 PUSH1 0x0 DUP1 CALLER PUSH20 0xFFFFFFFFFFFFFFFFFFFFFFFFFFFFFFFFFFFFFFFF AND PUSH20 0xFFFFFFFFFFFFFFFFFFFFFFFFFFFFFFFFFFFFFFFF AND DUP2 MSTORE PUSH1 0x20 ADD SWAP1 DUP2 MSTORE PUSH1 0x20 ADD PUSH1 0x0 KECCAK256 PUSH1 0x0 PUSH2 0x100 EXP DUP2 SLOAD DUP2 PUSH20 0xFFFFFFFFFFFFFFFFFFFFFFFFFFFFFFFFFFFFFFFF MUL NOT AND SWAP1 DUP4 PUSH20 0xFFFFFFFFFFFFFFFFFFFFFFFFFFFFFFFFFFFFFFFF AND MUL OR SWAP1 SSTORE POP POP JUMP JUMPDEST PUSH2 0x2A4 DUP1 PUSH2 0x16C DUP4 CODECOPY ADD SWAP1 JUMP JUMPDEST PUSH2 0x10A DUP2 PUSH2 0x139 JUMP JUMPDEST DUP3 MSTORE POP POP JUMP JUMPDEST PUSH1 0x0 PUSH1 0x40 DUP3 ADD SWAP1 POP PUSH2 0x125 PUSH1 0x0 DUP4 ADD DUP6 PUSH2 0x101 JUMP JUMPDEST PUSH2 0x132 PUSH1 0x20 DUP4 ADD DUP5 PUSH2 0x101 JUMP JUMPDEST SWAP4 SWAP3 POP POP POP JUMP JUMPDEST PUSH1 0x0 PUSH2 0x144 DUP3 PUSH2 0x14B JUMP JUMPDEST SWAP1 POP SWAP2 SWAP1 POP JUMP JUMPDEST PUSH1 0x0 PUSH20 0xFFFFFFFFFFFFFFFFFFFFFFFFFFFFFFFFFFFFFFFF DUP3 AND SWAP1 POP SWAP2 SWAP1 POP JUMP INVALID PUSH1 0x80 PUSH1 0x40 MSTORE CALLVALUE DUP1 ISZERO PUSH2 0x10 JUMPI PUSH1 0x0 DUP1 REVERT JUMPDEST POP PUSH1 0x40 MLOAD PUSH2 0x2A4 CODESIZE SUB DUP1 PUSH2 0x2A4 DUP4 CODECOPY DUP2 DUP2 ADD PUSH1 0x40 MSTORE DUP2 ADD SWAP1 PUSH2 0x32 SWAP2 SWAP1 PUSH2 0xD5 JUMP JUMPDEST DUP2 PUSH1 0x0 DUP1 ADD PUSH1 0x0 PUSH2 0x100 EXP DUP2 SLOAD DUP2 PUSH20 0xFFFFFFFFFFFFFFFFFFFFFFFFFFFFFFFFFFFFFFFF MUL NOT AND SWAP1 DUP4 PUSH20 0xFFFFFFFFFFFFFFFFFFFFFFFFFFFFFFFFFFFFFFFF AND MUL OR SWAP1 SSTORE POP DUP1 PUSH1 0x0 PUSH1 0x1 ADD PUSH1 0x0 PUSH2 0x100 EXP DUP2 SLOAD DUP2 PUSH20 0xFFFFFFFFFFFFFFFFFFFFFFFFFFFFFFFFFFFFFFFF MUL NOT AND SWAP1 DUP4 PUSH20 0xFFFFFFFFFFFFFFFFFFFFFFFFFFFFFFFFFFFFFFFF AND MUL OR SWAP1 SSTORE POP POP POP PUSH2 0x163 JUMP JUMPDEST PUSH1 0x0 DUP2 MLOAD SWAP1 POP PUSH2 0xCF DUP2 PUSH2 0x14C JUMP JUMPDEST SWAP3 SWAP2 POP POP JUMP JUMPDEST PUSH1 0x0 DUP1 PUSH1 0x40 DUP4 DUP6 SUB SLT ISZERO PUSH2 0xEC JUMPI PUSH2 0xEB PUSH2 0x147 JUMP JUMPDEST JUMPDEST PUSH1 0x0 PUSH2 0xFA DUP6 DUP3 DUP7 ADD PUSH2 0xC0 JUMP JUMPDEST SWAP3 POP POP PUSH1 0x20 PUSH2 0x10B DUP6 DUP3 DUP7 ADD PUSH2 0xC0 JUMP JUMPDEST SWAP2 POP POP SWAP3 POP SWAP3 SWAP1 POP JUMP JUMPDEST PUSH1 0x0 PUSH2 0x120 DUP3 PUSH2 0x127 JUMP JUMPDEST SWAP1 POP SWAP2 SWAP1 POP JUMP JUMPDEST PUSH1 0x0 PUSH20 0xFFFFFFFFFFFFFFFFFFFFFFFFFFFFFFFFFFFFFFFF DUP3 AND SWAP1 POP SWAP2 SWAP1 POP JUMP JUMPDEST PUSH1 0x0 DUP1 REVERT JUMPDEST PUSH2 0x155 DUP2 PUSH2 0x115 JUMP JUMPDEST DUP2 EQ PUSH2 0x160 JUMPI PUSH1 0x0 DUP1 REVERT JUMPDEST POP JUMP JUMPDEST PUSH2 0x132 DUP1 PUSH2 0x172 PUSH1 0x0 CODECOPY PUSH1 0x0 RETURN INVALID PUSH1 0x80 PUSH1 0x40 MSTORE CALLVALUE DUP1 ISZERO PUSH1 0xF JUMPI PUSH1 0x0 DUP1 REVERT JUMPDEST POP PUSH1 0x4 CALLDATASIZE LT PUSH1 0x28 JUMPI PUSH1 0x0 CALLDATALOAD PUSH1 0xE0 SHR DUP1 PUSH4 0x3C4F81CD EQ PUSH1 0x2D JUMPI JUMPDEST PUSH1 0x0 DUP1 REVERT JUMPDEST PUSH1 0x33 PUSH1 0x48 JUMP JUMPDEST PUSH1 0x40 MLOAD PUSH1 0x3F SWAP3 SWAP2 SWAP1 PUSH1 0xA7 JUMP JUMPDEST PUSH1 0x40 MLOAD DUP1 SWAP2 SUB SWAP1 RETURN JUMPDEST PUSH1 0x0 DUP1 PUSH1 0x0 ADD PUSH1 0x0 SWAP1 SLOAD SWAP1 PUSH2 0x100 EXP SWAP1 DIV PUSH20 0xFFFFFFFFFFFFFFFFFFFFFFFFFFFFFFFFFFFFFFFF AND SWAP1 DUP1 PUSH1 0x1 ADD PUSH1 0x0 SWAP1 SLOAD SWAP1 PUSH2 0x100 EXP SWAP1 DIV PUSH20 0xFFFFFFFFFFFFFFFFFFFFFFFFFFFFFFFFFFFFFFFF AND SWAP1 POP DUP3 JUMP JUMPDEST PUSH1 0xA1 DUP2 PUSH1 0xCC JUMP JUMPDEST DUP3 MSTORE POP POP JUMP JUMPDEST PUSH1 0x0 PUSH1 0x40 DUP3 ADD SWAP1 POP PUSH1 0xBA PUSH1 0x0 DUP4 ADD DUP6 PUSH1 0x9A JUMP JUMPDEST PUSH1 0xC5 PUSH1 0x20 DUP4 ADD DUP5 PUSH1 0x9A JUMP JUMPDEST SWAP4 SWAP3 POP POP POP JUMP JUMPDEST PUSH1 0x0 PUSH1 0xD5 DUP3 PUSH1 0xDC JUMP JUMPDEST SWAP1 POP SWAP2 SWAP1 POP JUMP JUMPDEST PUSH1 0x0 PUSH20 0xFFFFFFFFFFFFFFFFFFFFFFFFFFFFFFFFFFFFFFFF DUP3 AND SWAP1 POP SWAP2 SWAP1 POP JUMP INVALID LOG2 PUSH5 0x6970667358 0x22 SLT KECCAK256 PUSH15 0x5169ABE28BD97633E00EE54032176B 0xB4 0xA6 JUMPDEST 0xED SWAP7 NUMBER DUP14 SLT DUP6 LOG4 SWAP1 JUMPI KECCAK256 SSTORE 0xFC 0x21 PUSH5 0x736F6C6343 STOP ADDMOD SMOD STOP CALLER LOG2 PUSH5 0x6970667358 0x22 SLT KECCAK256 DUP7 0xE0 0xD5 LOG3 0xF6 CALLVALUE PUSH27 0xC7A2A4BA8F7D2C52EB37F7C0FB38ECA60494B23669A75E8E826473 PUSH16 0x6C634300080700330000000000000000 "
				},
				"gasEstimates": {
					"creation": {
						"codeDepositCost": "218600",
						"executionCost": "263",
						"totalCost": "218863"
					},
					"external": {
						"Factory()": "infinite"
					}
				},
				"methodIdentifiers": {
					"Factory()": "c83dd231"
				}
			},
			"storageLayout": {
				"storage": [
					{
						"astId": 5,
						"contract": "Contracts/factory.sol:padre",
						"label": "personal_contract",
						"offset": 0,
						"slot": "0",
						"type": "t_mapping(t_address,t_address)"
					}
				],
				"types": {
					"t_address": {
						"encoding": "inplace",
						"label": "address",
						"numberOfBytes": "20"
					},
					"t_mapping(t_address,t_address)": {
						"encoding": "mapping",
						"key": "t_address",
						"label": "mapping(address => address)",
						"numberOfBytes": "32",
						"value": "t_address"
					}
				}
			},
			"userdoc": {
				"kind": "user",
				"methods": {},
				"version": 1
			}
		}
	}
}