{
	"Contracts/tiposVariable.sol": {
		"Variables_modifiers": {
			"abi": [
				{
					"inputs": [],
					"name": "_true",
					"outputs": [
						{
							"internalType": "bool",
							"name": "",
							"type": "bool"
						}
					],
					"stateMutability": "view",
					"type": "function"
				},
				{
					"inputs": [],
					"name": "address_1",
					"outputs": [
						{
							"internalType": "address",
							"name": "",
							"type": "address"
						}
					],
					"stateMutability": "view",
					"type": "function"
				},
				{
					"inputs": [],
					"name": "address_2",
					"outputs": [
						{
							"internalType": "address",
							"name": "",
							"type": "address"
						}
					],
					"stateMutability": "view",
					"type": "function"
				},
				{
					"inputs": [],
					"name": "b",
					"outputs": [
						{
							"internalType": "uint8",
							"name": "",
							"type": "uint8"
						}
					],
					"stateMutability": "view",
					"type": "function"
				},
				{
					"inputs": [],
					"name": "displayState",
					"outputs": [
						{
							"internalType": "enum Variables_modifiers.options",
							"name": "",
							"type": "uint8"
						}
					],
					"stateMutability": "view",
					"type": "function"
				},
				{
					"inputs": [],
					"name": "hashing_keccak256",
					"outputs": [
						{
							"internalType": "bytes32",
							"name": "",
							"type": "bytes32"
						}
					],
					"stateMutability": "view",
					"type": "function"
				},
				{
					"inputs": [],
					"name": "hashing_ripemd160",
					"outputs": [
						{
							"internalType": "bytes20",
							"name": "",
							"type": "bytes20"
						}
					],
					"stateMutability": "view",
					"type": "function"
				},
				{
					"inputs": [],
					"name": "hashing_sha256",
					"outputs": [
						{
							"internalType": "bytes32",
							"name": "",
							"type": "bytes32"
						}
					],
					"stateMutability": "view",
					"type": "function"
				},
				{
					"inputs": [],
					"name": "str",
					"outputs": [
						{
							"internalType": "string",
							"name": "",
							"type": "string"
						}
					],
					"stateMutability": "view",
					"type": "function"
				},
				{
					"inputs": [],
					"name": "trueOFF",
					"outputs": [],
					"stateMutability": "nonpayable",
					"type": "function"
				},
				{
					"inputs": [],
					"name": "trueOn",
					"outputs": [],
					"stateMutability": "nonpayable",
					"type": "function"
				}
			],
			"devdoc": {
				"kind": "dev",
				"methods": {},
				"version": 1
			},
			"evm": {
				"assembly": "    /* \"Contracts/tiposVariable.sol\":83:1435  contract Variables_modifiers {\r... */\n  mstore(0x40, 0x80)\n    /* \"Contracts/tiposVariable.sol\":246:247  4 */\n  0x04\n    /* \"Contracts/tiposVariable.sol\":229:247  uint8 public b = 4 */\n  0x00\n  exp(0x0100, 0x01)\n  dup2\n  sload\n  dup2\n  0xff\n  mul\n  not\n  and\n  swap1\n  dup4\n  0xff\n  and\n  mul\n  or\n  swap1\n  sstore\n  pop\n    /* \"Contracts/tiposVariable.sol\":313:315  -1 */\n  0xffffffffffffffffffffffffffffffffffffffffffffffffffffffffffffffff\n    /* \"Contracts/tiposVariable.sol\":304:315  int8 d = -1 */\n  0x02\n  exp(0x0100, 0x00)\n  dup2\n  sload\n  dup2\n  0xff\n  mul\n  not\n  and\n  swap1\n  dup4\n  0x00\n  signextend\n  0xff\n  and\n  mul\n  or\n  swap1\n  sstore\n  pop\n    /* \"Contracts/tiposVariable.sol\":330:332  52 */\n  0x34\n    /* \"Contracts/tiposVariable.sol\":322:332  int e = 52 */\n  0x03\n  sstore\n    /* \"Contracts/tiposVariable.sol\":356:393  string public str = \"esto es publico\" */\n  mload(0x40)\n  dup1\n  0x40\n  add\n  0x40\n  mstore\n  dup1\n  0x0f\n  dup2\n  mstore\n  0x20\n  add\n  0x6573746f206573207075626c69636f0000000000000000000000000000000000\n  dup2\n  mstore\n  pop\n  0x04\n  swap1\n  dup1\n  mload\n  swap1\n  0x20\n  add\n  swap1\n  tag_1\n  swap3\n  swap2\n  swap1\n  tag_2\n  jump\t// in\ntag_1:\n  pop\n    /* \"Contracts/tiposVariable.sol\":400:439  string private str1 = \"esto es privado\" */\n  mload(0x40)\n  dup1\n  0x40\n  add\n  0x40\n  mstore\n  dup1\n  0x0f\n  dup2\n  mstore\n  0x20\n  add\n  0x6573746f206573207072697661646f0000000000000000000000000000000000\n  dup2\n  mstore\n  pop\n  0x05\n  swap1\n  dup1\n  mload\n  swap1\n  0x20\n  add\n  swap1\n  tag_3\n  swap3\n  swap2\n  swap1\n  tag_2\n  jump\t// in\ntag_3:\n  pop\n    /* \"Contracts/tiposVariable.sol\":484:488  true */\n  0x01\n    /* \"Contracts/tiposVariable.sol\":464:488  bool public _true = true */\n  0x06\n  exp(0x0100, 0x00)\n  dup2\n  sload\n  dup2\n  0xff\n  mul\n  not\n  and\n  swap1\n  dup4\n  iszero\n  iszero\n  mul\n  or\n  swap1\n  sstore\n  pop\n    /* \"Contracts/tiposVariable.sol\":517:522  false */\n  0x00\n    /* \"Contracts/tiposVariable.sol\":495:522  bool private _false = false */\n  0x06\n  exp(0x0100, 0x01)\n  dup2\n  sload\n  dup2\n  0xff\n  mul\n  not\n  and\n  swap1\n  dup4\n  iszero\n  iszero\n  mul\n  or\n  swap1\n  sstore\n  pop\n    /* \"Contracts/tiposVariable.sol\":678:679  1 */\n  0x01\n    /* \"Contracts/tiposVariable.sol\":682:724  0x5B38Da6a701c568545dCfcB03FcB875f56beddC4 */\n  0x5b38da6a701c568545dcfcb03fcb875f56beddc4\n    /* \"Contracts/tiposVariable.sol\":640:725  abi.encodePacked(\"hello\", \"lia\", uint(1), 0x5B38Da6a701c568545dCfcB03FcB875f56beddC4) */\n  add(0x20, mload(0x40))\n  tag_4\n  swap3\n  swap2\n  swap1\n  tag_5\n  jump\t// in\ntag_4:\n  mload(0x40)\n  0x20\n  dup2\n  dup4\n  sub\n  sub\n  dup2\n  mstore\n  swap1\n  0x40\n  mstore\n    /* \"Contracts/tiposVariable.sol\":630:726  keccak256(abi.encodePacked(\"hello\", \"lia\", uint(1), 0x5B38Da6a701c568545dCfcB03FcB875f56beddC4)) */\n  dup1\n  mload\n  swap1\n  0x20\n  add\n  keccak256\n    /* \"Contracts/tiposVariable.sol\":595:726  bytes32 public hashing_keccak256 = keccak256(abi.encodePacked(\"hello\", \"lia\", uint(1), 0x5B38Da6a701c568545dCfcB03FcB875f56beddC4)) */\n  0x08\n  sstore\n    /* \"Contracts/tiposVariable.sol\":765:805  sha256(abi.encodePacked(\"hello\", \"lia\")) */\n  0x02\n    /* \"Contracts/tiposVariable.sol\":772:804  abi.encodePacked(\"hello\", \"lia\") */\n  add(0x20, mload(0x40))\n  tag_6\n  swap1\n  tag_7\n  jump\t// in\ntag_6:\n  mload(0x40)\n  0x20\n  dup2\n  dup4\n  sub\n  sub\n  dup2\n  mstore\n  swap1\n  0x40\n  mstore\n    /* \"Contracts/tiposVariable.sol\":765:805  sha256(abi.encodePacked(\"hello\", \"lia\")) */\n  mload(0x40)\n  tag_8\n  swap2\n  swap1\n  tag_9\n  jump\t// in\ntag_8:\n  0x20\n  mload(0x40)\n  dup1\n  dup4\n  sub\n  dup2\n  dup6\n  gas\n  staticcall\n  iszero\n  dup1\n  iszero\n  tag_11\n  jumpi\n  returndatasize\n  0x00\n  dup1\n  returndatacopy\n  revert(0x00, returndatasize)\ntag_11:\n  pop\n  pop\n  pop\n  mload(0x40)\n  returndatasize\n  not(0x1f)\n  0x1f\n  dup3\n  add\n  and\n  dup3\n  add\n  dup1\n  0x40\n  mstore\n  pop\n  dup2\n  add\n  swap1\n  tag_12\n  swap2\n  swap1\n  tag_13\n  jump\t// in\ntag_12:\n    /* \"Contracts/tiposVariable.sol\":733:805  bytes32 public hashing_sha256 = sha256(abi.encodePacked(\"hello\", \"lia\")) */\n  0x09\n  sstore\n    /* \"Contracts/tiposVariable.sol\":847:890  ripemd160(abi.encodePacked(\"hello\", \"lia\")) */\n  0x03\n    /* \"Contracts/tiposVariable.sol\":857:889  abi.encodePacked(\"hello\", \"lia\") */\n  add(0x20, mload(0x40))\n  tag_14\n  swap1\n  tag_7\n  jump\t// in\ntag_14:\n  mload(0x40)\n  0x20\n  dup2\n  dup4\n  sub\n  sub\n  dup2\n  mstore\n  swap1\n  0x40\n  mstore\n    /* \"Contracts/tiposVariable.sol\":847:890  ripemd160(abi.encodePacked(\"hello\", \"lia\")) */\n  mload(0x40)\n  tag_15\n  swap2\n  swap1\n  tag_9\n  jump\t// in\ntag_15:\n  0x20\n  mload(0x40)\n  dup1\n  dup4\n  sub\n  dup2\n  dup6\n  gas\n  staticcall\n  iszero\n  dup1\n  iszero\n  tag_17\n  jumpi\n  returndatasize\n  0x00\n  dup1\n  returndatacopy\n  revert(0x00, returndatasize)\ntag_17:\n  pop\n  pop\n  pop\n  shl(0x60, mload(mload(0x40)))\n    /* \"Contracts/tiposVariable.sol\":812:890  bytes20 public hashing_ripemd160 = ripemd160(abi.encodePacked(\"hello\", \"lia\")) */\n  0x0a\n  exp(0x0100, 0x00)\n  dup2\n  sload\n  dup2\n  0xffffffffffffffffffffffffffffffffffffffff\n  mul\n  not\n  and\n  swap1\n  dup4\n  0x60\n  shr\n  mul\n  or\n  swap1\n  sstore\n  pop\n    /* \"Contracts/tiposVariable.sol\":976:1018  0x5B38Da6a701c568545dCfcB03FcB875f56beddC4 */\n  0x5b38da6a701c568545dcfcb03fcb875f56beddc4\n    /* \"Contracts/tiposVariable.sol\":948:1018  address public  address_1 = 0x5B38Da6a701c568545dCfcB03FcB875f56beddC4 */\n  0x0c\n  exp(0x0100, 0x00)\n  dup2\n  sload\n  dup2\n  0xffffffffffffffffffffffffffffffffffffffff\n  mul\n  not\n  and\n  swap1\n  dup4\n  0xffffffffffffffffffffffffffffffffffffffff\n  and\n  mul\n  or\n  swap1\n  sstore\n  pop\n    /* \"Contracts/tiposVariable.sol\":1052:1062  msg.sender */\n  caller\n    /* \"Contracts/tiposVariable.sol\":1025:1062  address public address_2 = msg.sender */\n  0x0d\n  exp(0x0100, 0x00)\n  dup2\n  sload\n  dup2\n  0xffffffffffffffffffffffffffffffffffffffff\n  mul\n  not\n  and\n  swap1\n  dup4\n  0xffffffffffffffffffffffffffffffffffffffff\n  and\n  mul\n  or\n  swap1\n  sstore\n  pop\n    /* \"Contracts/tiposVariable.sol\":83:1435  contract Variables_modifiers {\r... */\n  callvalue\n  dup1\n  iszero\n  tag_18\n  jumpi\n  0x00\n  dup1\n  revert\ntag_18:\n  pop\n  jump(tag_19)\ntag_2:\n  dup3\n  dup1\n  sload\n  tag_20\n  swap1\n  tag_21\n  jump\t// in\ntag_20:\n  swap1\n  0x00\n  mstore\n  keccak256(0x00, 0x20)\n  swap1\n  0x1f\n  add\n  0x20\n  swap1\n  div\n  dup2\n  add\n  swap3\n  dup3\n  tag_23\n  jumpi\n  0x00\n  dup6\n  sstore\n  jump(tag_22)\ntag_23:\n  dup3\n  0x1f\n  lt\n  tag_24\n  jumpi\n  dup1\n  mload\n  not(0xff)\n  and\n  dup4\n  dup1\n  add\n  or\n  dup6\n  sstore\n  jump(tag_22)\ntag_24:\n  dup3\n  dup1\n  add\n  0x01\n  add\n  dup6\n  sstore\n  dup3\n  iszero\n  tag_22\n  jumpi\n  swap2\n  dup3\n  add\ntag_25:\n  dup3\n  dup2\n  gt\n  iszero\n  tag_26\n  jumpi\n  dup3\n  mload\n  dup3\n  sstore\n  swap2\n  0x20\n  add\n  swap2\n  swap1\n  0x01\n  add\n  swap1\n  jump(tag_25)\ntag_26:\ntag_22:\n  pop\n  swap1\n  pop\n  tag_27\n  swap2\n  swap1\n  tag_28\n  jump\t// in\ntag_27:\n  pop\n  swap1\n  jump\t// out\ntag_28:\ntag_29:\n  dup1\n  dup3\n  gt\n  iszero\n  tag_30\n  jumpi\n  0x00\n  dup2\n  0x00\n  swap1\n  sstore\n  pop\n  0x01\n  add\n  jump(tag_29)\ntag_30:\n  pop\n  swap1\n  jump\t// out\n    /* \"#utility.yul\":7:150   */\ntag_32:\n    /* \"#utility.yul\":64:69   */\n  0x00\n    /* \"#utility.yul\":95:101   */\n  dup2\n    /* \"#utility.yul\":89:102   */\n  mload\n    /* \"#utility.yul\":80:102   */\n  swap1\n  pop\n    /* \"#utility.yul\":111:144   */\n  tag_34\n    /* \"#utility.yul\":138:143   */\n  dup2\n    /* \"#utility.yul\":111:144   */\n  tag_35\n  jump\t// in\ntag_34:\n    /* \"#utility.yul\":7:150   */\n  swap3\n  swap2\n  pop\n  pop\n  jump\t// out\n    /* \"#utility.yul\":156:507   */\ntag_13:\n    /* \"#utility.yul\":226:232   */\n  0x00\n    /* \"#utility.yul\":275:277   */\n  0x20\n    /* \"#utility.yul\":263:272   */\n  dup3\n    /* \"#utility.yul\":254:261   */\n  dup5\n    /* \"#utility.yul\":250:273   */\n  sub\n    /* \"#utility.yul\":246:278   */\n  slt\n    /* \"#utility.yul\":243:362   */\n  iszero\n  tag_37\n  jumpi\n    /* \"#utility.yul\":281:360   */\n  tag_38\n  tag_39\n  jump\t// in\ntag_38:\n    /* \"#utility.yul\":243:362   */\ntag_37:\n    /* \"#utility.yul\":401:402   */\n  0x00\n    /* \"#utility.yul\":426:490   */\n  tag_40\n    /* \"#utility.yul\":482:489   */\n  dup5\n    /* \"#utility.yul\":473:479   */\n  dup3\n    /* \"#utility.yul\":462:471   */\n  dup6\n    /* \"#utility.yul\":458:480   */\n  add\n    /* \"#utility.yul\":426:490   */\n  tag_32\n  jump\t// in\ntag_40:\n    /* \"#utility.yul\":416:490   */\n  swap2\n  pop\n    /* \"#utility.yul\":372:500   */\n  pop\n    /* \"#utility.yul\":156:507   */\n  swap3\n  swap2\n  pop\n  pop\n  jump\t// out\n    /* \"#utility.yul\":513:670   */\ntag_41:\n    /* \"#utility.yul\":618:663   */\n  tag_43\n    /* \"#utility.yul\":638:662   */\n  tag_44\n    /* \"#utility.yul\":656:661   */\n  dup3\n    /* \"#utility.yul\":638:662   */\n  tag_45\n  jump\t// in\ntag_44:\n    /* \"#utility.yul\":618:663   */\n  tag_46\n  jump\t// in\ntag_43:\n    /* \"#utility.yul\":613:616   */\n  dup3\n    /* \"#utility.yul\":606:664   */\n  mstore\n    /* \"#utility.yul\":513:670   */\n  pop\n  pop\n  jump\t// out\n    /* \"#utility.yul\":676:1049   */\ntag_47:\n    /* \"#utility.yul\":780:783   */\n  0x00\n    /* \"#utility.yul\":808:846   */\n  tag_49\n    /* \"#utility.yul\":840:845   */\n  dup3\n    /* \"#utility.yul\":808:846   */\n  tag_50\n  jump\t// in\ntag_49:\n    /* \"#utility.yul\":862:950   */\n  tag_51\n    /* \"#utility.yul\":943:949   */\n  dup2\n    /* \"#utility.yul\":938:941   */\n  dup6\n    /* \"#utility.yul\":862:950   */\n  tag_52\n  jump\t// in\ntag_51:\n    /* \"#utility.yul\":855:950   */\n  swap4\n  pop\n    /* \"#utility.yul\":959:1011   */\n  tag_53\n    /* \"#utility.yul\":1004:1010   */\n  dup2\n    /* \"#utility.yul\":999:1002   */\n  dup6\n    /* \"#utility.yul\":992:996   */\n  0x20\n    /* \"#utility.yul\":985:990   */\n  dup7\n    /* \"#utility.yul\":981:997   */\n  add\n    /* \"#utility.yul\":959:1011   */\n  tag_54\n  jump\t// in\ntag_53:\n    /* \"#utility.yul\":1036:1042   */\n  dup1\n    /* \"#utility.yul\":1031:1034   */\n  dup5\n    /* \"#utility.yul\":1027:1043   */\n  add\n    /* \"#utility.yul\":1020:1043   */\n  swap2\n  pop\n    /* \"#utility.yul\":784:1049   */\n  pop\n    /* \"#utility.yul\":676:1049   */\n  swap3\n  swap2\n  pop\n  pop\n  jump\t// out\n    /* \"#utility.yul\":1055:1455   */\ntag_55:\n    /* \"#utility.yul\":1215:1218   */\n  0x00\n    /* \"#utility.yul\":1236:1320   */\n  tag_57\n    /* \"#utility.yul\":1318:1319   */\n  0x05\n    /* \"#utility.yul\":1313:1316   */\n  dup4\n    /* \"#utility.yul\":1236:1320   */\n  tag_58\n  jump\t// in\ntag_57:\n    /* \"#utility.yul\":1229:1320   */\n  swap2\n  pop\n    /* \"#utility.yul\":1329:1422   */\n  tag_59\n    /* \"#utility.yul\":1418:1421   */\n  dup3\n    /* \"#utility.yul\":1329:1422   */\n  tag_60\n  jump\t// in\ntag_59:\n    /* \"#utility.yul\":1447:1448   */\n  0x05\n    /* \"#utility.yul\":1442:1445   */\n  dup3\n    /* \"#utility.yul\":1438:1449   */\n  add\n    /* \"#utility.yul\":1431:1449   */\n  swap1\n  pop\n    /* \"#utility.yul\":1055:1455   */\n  swap2\n  swap1\n  pop\n  jump\t// out\n    /* \"#utility.yul\":1461:1861   */\ntag_61:\n    /* \"#utility.yul\":1621:1624   */\n  0x00\n    /* \"#utility.yul\":1642:1726   */\n  tag_63\n    /* \"#utility.yul\":1724:1725   */\n  0x03\n    /* \"#utility.yul\":1719:1722   */\n  dup4\n    /* \"#utility.yul\":1642:1726   */\n  tag_58\n  jump\t// in\ntag_63:\n    /* \"#utility.yul\":1635:1726   */\n  swap2\n  pop\n    /* \"#utility.yul\":1735:1828   */\n  tag_64\n    /* \"#utility.yul\":1824:1827   */\n  dup3\n    /* \"#utility.yul\":1735:1828   */\n  tag_65\n  jump\t// in\ntag_64:\n    /* \"#utility.yul\":1853:1854   */\n  0x03\n    /* \"#utility.yul\":1848:1851   */\n  dup3\n    /* \"#utility.yul\":1844:1855   */\n  add\n    /* \"#utility.yul\":1837:1855   */\n  swap1\n  pop\n    /* \"#utility.yul\":1461:1861   */\n  swap2\n  swap1\n  pop\n  jump\t// out\n    /* \"#utility.yul\":1867:2024   */\ntag_66:\n    /* \"#utility.yul\":1972:2017   */\n  tag_68\n    /* \"#utility.yul\":1992:2016   */\n  tag_69\n    /* \"#utility.yul\":2010:2015   */\n  dup3\n    /* \"#utility.yul\":1992:2016   */\n  tag_70\n  jump\t// in\ntag_69:\n    /* \"#utility.yul\":1972:2017   */\n  tag_71\n  jump\t// in\ntag_68:\n    /* \"#utility.yul\":1967:1970   */\n  dup3\n    /* \"#utility.yul\":1960:2018   */\n  mstore\n    /* \"#utility.yul\":1867:2024   */\n  pop\n  pop\n  jump\t// out\n    /* \"#utility.yul\":2030:2301   */\ntag_9:\n    /* \"#utility.yul\":2160:2163   */\n  0x00\n    /* \"#utility.yul\":2182:2275   */\n  tag_73\n    /* \"#utility.yul\":2271:2274   */\n  dup3\n    /* \"#utility.yul\":2262:2268   */\n  dup5\n    /* \"#utility.yul\":2182:2275   */\n  tag_47\n  jump\t// in\ntag_73:\n    /* \"#utility.yul\":2175:2275   */\n  swap2\n  pop\n    /* \"#utility.yul\":2292:2295   */\n  dup2\n    /* \"#utility.yul\":2285:2295   */\n  swap1\n  pop\n    /* \"#utility.yul\":2030:2301   */\n  swap3\n  swap2\n  pop\n  pop\n  jump\t// out\n    /* \"#utility.yul\":2307:2954   */\ntag_7:\n    /* \"#utility.yul\":2593:2596   */\n  0x00\n    /* \"#utility.yul\":2615:2763   */\n  tag_75\n    /* \"#utility.yul\":2759:2762   */\n  dup3\n    /* \"#utility.yul\":2615:2763   */\n  tag_55\n  jump\t// in\ntag_75:\n    /* \"#utility.yul\":2608:2763   */\n  swap2\n  pop\n    /* \"#utility.yul\":2780:2928   */\n  tag_76\n    /* \"#utility.yul\":2924:2927   */\n  dup3\n    /* \"#utility.yul\":2780:2928   */\n  tag_61\n  jump\t// in\ntag_76:\n    /* \"#utility.yul\":2773:2928   */\n  swap2\n  pop\n    /* \"#utility.yul\":2945:2948   */\n  dup2\n    /* \"#utility.yul\":2938:2948   */\n  swap1\n  pop\n    /* \"#utility.yul\":2307:2954   */\n  swap2\n  swap1\n  pop\n  jump\t// out\n    /* \"#utility.yul\":2960:3889   */\ntag_5:\n    /* \"#utility.yul\":3302:3305   */\n  0x00\n    /* \"#utility.yul\":3324:3472   */\n  tag_78\n    /* \"#utility.yul\":3468:3471   */\n  dup3\n    /* \"#utility.yul\":3324:3472   */\n  tag_55\n  jump\t// in\ntag_78:\n    /* \"#utility.yul\":3317:3472   */\n  swap2\n  pop\n    /* \"#utility.yul\":3489:3637   */\n  tag_79\n    /* \"#utility.yul\":3633:3636   */\n  dup3\n    /* \"#utility.yul\":3489:3637   */\n  tag_61\n  jump\t// in\ntag_79:\n    /* \"#utility.yul\":3482:3637   */\n  swap2\n  pop\n    /* \"#utility.yul\":3647:3722   */\n  tag_80\n    /* \"#utility.yul\":3718:3721   */\n  dup3\n    /* \"#utility.yul\":3709:3715   */\n  dup6\n    /* \"#utility.yul\":3647:3722   */\n  tag_66\n  jump\t// in\ntag_80:\n    /* \"#utility.yul\":3747:3749   */\n  0x20\n    /* \"#utility.yul\":3742:3745   */\n  dup3\n    /* \"#utility.yul\":3738:3750   */\n  add\n    /* \"#utility.yul\":3731:3750   */\n  swap2\n  pop\n    /* \"#utility.yul\":3760:3835   */\n  tag_81\n    /* \"#utility.yul\":3831:3834   */\n  dup3\n    /* \"#utility.yul\":3822:3828   */\n  dup5\n    /* \"#utility.yul\":3760:3835   */\n  tag_41\n  jump\t// in\ntag_81:\n    /* \"#utility.yul\":3860:3862   */\n  0x14\n    /* \"#utility.yul\":3855:3858   */\n  dup3\n    /* \"#utility.yul\":3851:3863   */\n  add\n    /* \"#utility.yul\":3844:3863   */\n  swap2\n  pop\n    /* \"#utility.yul\":3880:3883   */\n  dup2\n    /* \"#utility.yul\":3873:3883   */\n  swap1\n  pop\n    /* \"#utility.yul\":2960:3889   */\n  swap4\n  swap3\n  pop\n  pop\n  pop\n  jump\t// out\n    /* \"#utility.yul\":3976:4074   */\ntag_50:\n    /* \"#utility.yul\":4027:4033   */\n  0x00\n    /* \"#utility.yul\":4061:4066   */\n  dup2\n    /* \"#utility.yul\":4055:4067   */\n  mload\n    /* \"#utility.yul\":4045:4067   */\n  swap1\n  pop\n    /* \"#utility.yul\":3976:4074   */\n  swap2\n  swap1\n  pop\n  jump\t// out\n    /* \"#utility.yul\":4080:4227   */\ntag_52:\n    /* \"#utility.yul\":4181:4192   */\n  0x00\n    /* \"#utility.yul\":4218:4221   */\n  dup2\n    /* \"#utility.yul\":4203:4221   */\n  swap1\n  pop\n    /* \"#utility.yul\":4080:4227   */\n  swap3\n  swap2\n  pop\n  pop\n  jump\t// out\n    /* \"#utility.yul\":4233:4381   */\ntag_58:\n    /* \"#utility.yul\":4335:4346   */\n  0x00\n    /* \"#utility.yul\":4372:4375   */\n  dup2\n    /* \"#utility.yul\":4357:4375   */\n  swap1\n  pop\n    /* \"#utility.yul\":4233:4381   */\n  swap3\n  swap2\n  pop\n  pop\n  jump\t// out\n    /* \"#utility.yul\":4387:4483   */\ntag_45:\n    /* \"#utility.yul\":4424:4431   */\n  0x00\n    /* \"#utility.yul\":4453:4477   */\n  tag_88\n    /* \"#utility.yul\":4471:4476   */\n  dup3\n    /* \"#utility.yul\":4453:4477   */\n  tag_89\n  jump\t// in\ntag_88:\n    /* \"#utility.yul\":4442:4477   */\n  swap1\n  pop\n    /* \"#utility.yul\":4387:4483   */\n  swap2\n  swap1\n  pop\n  jump\t// out\n    /* \"#utility.yul\":4489:4566   */\ntag_90:\n    /* \"#utility.yul\":4526:4533   */\n  0x00\n    /* \"#utility.yul\":4555:4560   */\n  dup2\n    /* \"#utility.yul\":4544:4560   */\n  swap1\n  pop\n    /* \"#utility.yul\":4489:4566   */\n  swap2\n  swap1\n  pop\n  jump\t// out\n    /* \"#utility.yul\":4572:4698   */\ntag_89:\n    /* \"#utility.yul\":4609:4616   */\n  0x00\n    /* \"#utility.yul\":4649:4691   */\n  0xffffffffffffffffffffffffffffffffffffffff\n    /* \"#utility.yul\":4642:4647   */\n  dup3\n    /* \"#utility.yul\":4638:4692   */\n  and\n    /* \"#utility.yul\":4627:4692   */\n  swap1\n  pop\n    /* \"#utility.yul\":4572:4698   */\n  swap2\n  swap1\n  pop\n  jump\t// out\n    /* \"#utility.yul\":4704:4781   */\ntag_70:\n    /* \"#utility.yul\":4741:4748   */\n  0x00\n    /* \"#utility.yul\":4770:4775   */\n  dup2\n    /* \"#utility.yul\":4759:4775   */\n  swap1\n  pop\n    /* \"#utility.yul\":4704:4781   */\n  swap2\n  swap1\n  pop\n  jump\t// out\n    /* \"#utility.yul\":4787:5094   */\ntag_54:\n    /* \"#utility.yul\":4855:4856   */\n  0x00\n    /* \"#utility.yul\":4865:4978   */\ntag_95:\n    /* \"#utility.yul\":4879:4885   */\n  dup4\n    /* \"#utility.yul\":4876:4877   */\n  dup2\n    /* \"#utility.yul\":4873:4886   */\n  lt\n    /* \"#utility.yul\":4865:4978   */\n  iszero\n  tag_97\n  jumpi\n    /* \"#utility.yul\":4964:4965   */\n  dup1\n    /* \"#utility.yul\":4959:4962   */\n  dup3\n    /* \"#utility.yul\":4955:4966   */\n  add\n    /* \"#utility.yul\":4949:4967   */\n  mload\n    /* \"#utility.yul\":4945:4946   */\n  dup2\n    /* \"#utility.yul\":4940:4943   */\n  dup5\n    /* \"#utility.yul\":4936:4947   */\n  add\n    /* \"#utility.yul\":4929:4968   */\n  mstore\n    /* \"#utility.yul\":4901:4903   */\n  0x20\n    /* \"#utility.yul\":4898:4899   */\n  dup2\n    /* \"#utility.yul\":4894:4904   */\n  add\n    /* \"#utility.yul\":4889:4904   */\n  swap1\n  pop\n    /* \"#utility.yul\":4865:4978   */\n  jump(tag_95)\ntag_97:\n    /* \"#utility.yul\":4996:5002   */\n  dup4\n    /* \"#utility.yul\":4993:4994   */\n  dup2\n    /* \"#utility.yul\":4990:5003   */\n  gt\n    /* \"#utility.yul\":4987:5088   */\n  iszero\n  tag_98\n  jumpi\n    /* \"#utility.yul\":5076:5077   */\n  0x00\n    /* \"#utility.yul\":5067:5073   */\n  dup5\n    /* \"#utility.yul\":5062:5065   */\n  dup5\n    /* \"#utility.yul\":5058:5074   */\n  add\n    /* \"#utility.yul\":5051:5078   */\n  mstore\n    /* \"#utility.yul\":4987:5088   */\ntag_98:\n    /* \"#utility.yul\":4836:5094   */\n  pop\n    /* \"#utility.yul\":4787:5094   */\n  pop\n  pop\n  pop\n  jump\t// out\n    /* \"#utility.yul\":5100:5420   */\ntag_21:\n    /* \"#utility.yul\":5144:5150   */\n  0x00\n    /* \"#utility.yul\":5181:5182   */\n  0x02\n    /* \"#utility.yul\":5175:5179   */\n  dup3\n    /* \"#utility.yul\":5171:5183   */\n  div\n    /* \"#utility.yul\":5161:5183   */\n  swap1\n  pop\n    /* \"#utility.yul\":5228:5229   */\n  0x01\n    /* \"#utility.yul\":5222:5226   */\n  dup3\n    /* \"#utility.yul\":5218:5230   */\n  and\n    /* \"#utility.yul\":5249:5267   */\n  dup1\n    /* \"#utility.yul\":5239:5320   */\n  tag_100\n  jumpi\n    /* \"#utility.yul\":5305:5309   */\n  0x7f\n    /* \"#utility.yul\":5297:5303   */\n  dup3\n    /* \"#utility.yul\":5293:5310   */\n  and\n    /* \"#utility.yul\":5283:5310   */\n  swap2\n  pop\n    /* \"#utility.yul\":5239:5320   */\ntag_100:\n    /* \"#utility.yul\":5367:5369   */\n  0x20\n    /* \"#utility.yul\":5359:5365   */\n  dup3\n    /* \"#utility.yul\":5356:5370   */\n  lt\n    /* \"#utility.yul\":5336:5354   */\n  dup2\n    /* \"#utility.yul\":5333:5371   */\n  eq\n    /* \"#utility.yul\":5330:5414   */\n  iszero\n  tag_101\n  jumpi\n    /* \"#utility.yul\":5386:5404   */\n  tag_102\n  tag_103\n  jump\t// in\ntag_102:\n    /* \"#utility.yul\":5330:5414   */\ntag_101:\n    /* \"#utility.yul\":5151:5420   */\n  pop\n    /* \"#utility.yul\":5100:5420   */\n  swap2\n  swap1\n  pop\n  jump\t// out\n    /* \"#utility.yul\":5426:5526   */\ntag_46:\n    /* \"#utility.yul\":5465:5472   */\n  0x00\n    /* \"#utility.yul\":5494:5520   */\n  tag_105\n    /* \"#utility.yul\":5514:5519   */\n  dup3\n    /* \"#utility.yul\":5494:5520   */\n  tag_106\n  jump\t// in\ntag_105:\n    /* \"#utility.yul\":5483:5520   */\n  swap1\n  pop\n    /* \"#utility.yul\":5426:5526   */\n  swap2\n  swap1\n  pop\n  jump\t// out\n    /* \"#utility.yul\":5532:5626   */\ntag_106:\n    /* \"#utility.yul\":5571:5578   */\n  0x00\n    /* \"#utility.yul\":5600:5620   */\n  tag_108\n    /* \"#utility.yul\":5614:5619   */\n  dup3\n    /* \"#utility.yul\":5600:5620   */\n  tag_109\n  jump\t// in\ntag_108:\n    /* \"#utility.yul\":5589:5620   */\n  swap1\n  pop\n    /* \"#utility.yul\":5532:5626   */\n  swap2\n  swap1\n  pop\n  jump\t// out\n    /* \"#utility.yul\":5632:5711   */\ntag_71:\n    /* \"#utility.yul\":5671:5678   */\n  0x00\n    /* \"#utility.yul\":5700:5705   */\n  dup2\n    /* \"#utility.yul\":5689:5705   */\n  swap1\n  pop\n    /* \"#utility.yul\":5632:5711   */\n  swap2\n  swap1\n  pop\n  jump\t// out\n    /* \"#utility.yul\":5717:5897   */\ntag_103:\n    /* \"#utility.yul\":5765:5842   */\n  0x4e487b7100000000000000000000000000000000000000000000000000000000\n    /* \"#utility.yul\":5762:5763   */\n  0x00\n    /* \"#utility.yul\":5755:5843   */\n  mstore\n    /* \"#utility.yul\":5862:5866   */\n  0x22\n    /* \"#utility.yul\":5859:5860   */\n  0x04\n    /* \"#utility.yul\":5852:5867   */\n  mstore\n    /* \"#utility.yul\":5886:5890   */\n  0x24\n    /* \"#utility.yul\":5883:5884   */\n  0x00\n    /* \"#utility.yul\":5876:5891   */\n  revert\n    /* \"#utility.yul\":6026:6143   */\ntag_39:\n    /* \"#utility.yul\":6135:6136   */\n  0x00\n    /* \"#utility.yul\":6132:6133   */\n  dup1\n    /* \"#utility.yul\":6125:6137   */\n  revert\n    /* \"#utility.yul\":6149:6243   */\ntag_109:\n    /* \"#utility.yul\":6182:6190   */\n  0x00\n    /* \"#utility.yul\":6230:6235   */\n  dup2\n    /* \"#utility.yul\":6226:6228   */\n  0x60\n    /* \"#utility.yul\":6222:6236   */\n  shl\n    /* \"#utility.yul\":6201:6236   */\n  swap1\n  pop\n    /* \"#utility.yul\":6149:6243   */\n  swap2\n  swap1\n  pop\n  jump\t// out\n    /* \"#utility.yul\":6249:6404   */\ntag_60:\n    /* \"#utility.yul\":6389:6396   */\n  0x68656c6c6f000000000000000000000000000000000000000000000000000000\n    /* \"#utility.yul\":6385:6386   */\n  0x00\n    /* \"#utility.yul\":6377:6383   */\n  dup3\n    /* \"#utility.yul\":6373:6387   */\n  add\n    /* \"#utility.yul\":6366:6397   */\n  mstore\n    /* \"#utility.yul\":6249:6404   */\n  pop\n  jump\t// out\n    /* \"#utility.yul\":6410:6563   */\ntag_65:\n    /* \"#utility.yul\":6550:6555   */\n  0x6c69610000000000000000000000000000000000000000000000000000000000\n    /* \"#utility.yul\":6546:6547   */\n  0x00\n    /* \"#utility.yul\":6538:6544   */\n  dup3\n    /* \"#utility.yul\":6534:6548   */\n  add\n    /* \"#utility.yul\":6527:6556   */\n  mstore\n    /* \"#utility.yul\":6410:6563   */\n  pop\n  jump\t// out\n    /* \"#utility.yul\":6569:6691   */\ntag_35:\n    /* \"#utility.yul\":6642:6666   */\n  tag_119\n    /* \"#utility.yul\":6660:6665   */\n  dup2\n    /* \"#utility.yul\":6642:6666   */\n  tag_90\n  jump\t// in\ntag_119:\n    /* \"#utility.yul\":6635:6640   */\n  dup2\n    /* \"#utility.yul\":6632:6667   */\n  eq\n    /* \"#utility.yul\":6622:6685   */\n  tag_120\n  jumpi\n    /* \"#utility.yul\":6681:6682   */\n  0x00\n    /* \"#utility.yul\":6678:6679   */\n  dup1\n    /* \"#utility.yul\":6671:6683   */\n  revert\n    /* \"#utility.yul\":6622:6685   */\ntag_120:\n    /* \"#utility.yul\":6569:6691   */\n  pop\n  jump\t// out\n    /* \"Contracts/tiposVariable.sol\":83:1435  contract Variables_modifiers {\r... */\ntag_19:\n  dataSize(sub_0)\n  dup1\n  dataOffset(sub_0)\n  0x00\n  codecopy\n  0x00\n  return\nstop\n\nsub_0: assembly {\n        /* \"Contracts/tiposVariable.sol\":83:1435  contract Variables_modifiers {\r... */\n      mstore(0x40, 0x80)\n      callvalue\n      dup1\n      iszero\n      tag_1\n      jumpi\n      0x00\n      dup1\n      revert\n    tag_1:\n      pop\n      jumpi(tag_2, lt(calldatasize, 0x04))\n      shr(0xe0, calldataload(0x00))\n      dup1\n      0x7a68ef7f\n      gt\n      tag_14\n      jumpi\n      dup1\n      0x7a68ef7f\n      eq\n      tag_8\n      jumpi\n      dup1\n      0x7c3baa18\n      eq\n      tag_9\n      jumpi\n      dup1\n      0xa2bdcc8c\n      eq\n      tag_10\n      jumpi\n      dup1\n      0xad0a93bc\n      eq\n      tag_11\n      jumpi\n      dup1\n      0xc15bae84\n      eq\n      tag_12\n      jumpi\n      dup1\n      0xc7109d04\n      eq\n      tag_13\n      jumpi\n      jump(tag_2)\n    tag_14:\n      dup1\n      0x1216d176\n      eq\n      tag_3\n      jumpi\n      dup1\n      0x2b73648d\n      eq\n      tag_4\n      jumpi\n      dup1\n      0x312a4c9c\n      eq\n      tag_5\n      jumpi\n      dup1\n      0x4df7e3d0\n      eq\n      tag_6\n      jumpi\n      dup1\n      0x7272eea1\n      eq\n      tag_7\n      jumpi\n    tag_2:\n      0x00\n      dup1\n      revert\n        /* \"Contracts/tiposVariable.sol\":1025:1062  address public address_2 = msg.sender */\n    tag_3:\n      tag_15\n      tag_16\n      jump\t// in\n    tag_15:\n      mload(0x40)\n      tag_17\n      swap2\n      swap1\n      tag_18\n      jump\t// in\n    tag_17:\n      mload(0x40)\n      dup1\n      swap2\n      sub\n      swap1\n      return\n        /* \"Contracts/tiposVariable.sol\":595:726  bytes32 public hashing_keccak256 = keccak256(abi.encodePacked(\"hello\", \"lia\", uint(1), 0x5B38Da6a701c568545dCfcB03FcB875f56beddC4)) */\n    tag_4:\n      tag_19\n      tag_20\n      jump\t// in\n    tag_19:\n      mload(0x40)\n      tag_21\n      swap2\n      swap1\n      tag_22\n      jump\t// in\n    tag_21:\n      mload(0x40)\n      dup1\n      swap2\n      sub\n      swap1\n      return\n        /* \"Contracts/tiposVariable.sol\":464:488  bool public _true = true */\n    tag_5:\n      tag_23\n      tag_24\n      jump\t// in\n    tag_23:\n      mload(0x40)\n      tag_25\n      swap2\n      swap1\n      tag_26\n      jump\t// in\n    tag_25:\n      mload(0x40)\n      dup1\n      swap2\n      sub\n      swap1\n      return\n        /* \"Contracts/tiposVariable.sol\":229:247  uint8 public b = 4 */\n    tag_6:\n      tag_27\n      tag_28\n      jump\t// in\n    tag_27:\n      mload(0x40)\n      tag_29\n      swap2\n      swap1\n      tag_30\n      jump\t// in\n    tag_29:\n      mload(0x40)\n      dup1\n      swap2\n      sub\n      swap1\n      return\n        /* \"Contracts/tiposVariable.sol\":1346:1430  function displayState() public view returns (options){\r... */\n    tag_7:\n      tag_31\n      tag_32\n      jump\t// in\n    tag_31:\n      mload(0x40)\n      tag_33\n      swap2\n      swap1\n      tag_34\n      jump\t// in\n    tag_33:\n      mload(0x40)\n      dup1\n      swap2\n      sub\n      swap1\n      return\n        /* \"Contracts/tiposVariable.sol\":812:890  bytes20 public hashing_ripemd160 = ripemd160(abi.encodePacked(\"hello\", \"lia\")) */\n    tag_8:\n      tag_35\n      tag_36\n      jump\t// in\n    tag_35:\n      mload(0x40)\n      tag_37\n      swap2\n      swap1\n      tag_38\n      jump\t// in\n    tag_37:\n      mload(0x40)\n      dup1\n      swap2\n      sub\n      swap1\n      return\n        /* \"Contracts/tiposVariable.sol\":1274:1338  function trueOFF() public {\r... */\n    tag_9:\n      tag_39\n      tag_40\n      jump\t// in\n    tag_39:\n      stop\n        /* \"Contracts/tiposVariable.sol\":1204:1266  function trueOn() public {\r... */\n    tag_10:\n      tag_41\n      tag_42\n      jump\t// in\n    tag_41:\n      stop\n        /* \"Contracts/tiposVariable.sol\":948:1018  address public  address_1 = 0x5B38Da6a701c568545dCfcB03FcB875f56beddC4 */\n    tag_11:\n      tag_43\n      tag_44\n      jump\t// in\n    tag_43:\n      mload(0x40)\n      tag_45\n      swap2\n      swap1\n      tag_18\n      jump\t// in\n    tag_45:\n      mload(0x40)\n      dup1\n      swap2\n      sub\n      swap1\n      return\n        /* \"Contracts/tiposVariable.sol\":356:393  string public str = \"esto es publico\" */\n    tag_12:\n      tag_46\n      tag_47\n      jump\t// in\n    tag_46:\n      mload(0x40)\n      tag_48\n      swap2\n      swap1\n      tag_49\n      jump\t// in\n    tag_48:\n      mload(0x40)\n      dup1\n      swap2\n      sub\n      swap1\n      return\n        /* \"Contracts/tiposVariable.sol\":733:805  bytes32 public hashing_sha256 = sha256(abi.encodePacked(\"hello\", \"lia\")) */\n    tag_13:\n      tag_50\n      tag_51\n      jump\t// in\n    tag_50:\n      mload(0x40)\n      tag_52\n      swap2\n      swap1\n      tag_22\n      jump\t// in\n    tag_52:\n      mload(0x40)\n      dup1\n      swap2\n      sub\n      swap1\n      return\n        /* \"Contracts/tiposVariable.sol\":1025:1062  address public address_2 = msg.sender */\n    tag_16:\n      0x0d\n      0x00\n      swap1\n      sload\n      swap1\n      0x0100\n      exp\n      swap1\n      div\n      0xffffffffffffffffffffffffffffffffffffffff\n      and\n      dup2\n      jump\t// out\n        /* \"Contracts/tiposVariable.sol\":595:726  bytes32 public hashing_keccak256 = keccak256(abi.encodePacked(\"hello\", \"lia\", uint(1), 0x5B38Da6a701c568545dCfcB03FcB875f56beddC4)) */\n    tag_20:\n      sload(0x08)\n      dup2\n      jump\t// out\n        /* \"Contracts/tiposVariable.sol\":464:488  bool public _true = true */\n    tag_24:\n      0x06\n      0x00\n      swap1\n      sload\n      swap1\n      0x0100\n      exp\n      swap1\n      div\n      0xff\n      and\n      dup2\n      jump\t// out\n        /* \"Contracts/tiposVariable.sol\":229:247  uint8 public b = 4 */\n    tag_28:\n      0x00\n      0x01\n      swap1\n      sload\n      swap1\n      0x0100\n      exp\n      swap1\n      div\n      0xff\n      and\n      dup2\n      jump\t// out\n        /* \"Contracts/tiposVariable.sol\":1346:1430  function displayState() public view returns (options){\r... */\n    tag_32:\n        /* \"Contracts/tiposVariable.sol\":1391:1398  options */\n      0x00\n        /* \"Contracts/tiposVariable.sol\":1417:1422  state */\n      0x0d\n      0x14\n      swap1\n      sload\n      swap1\n      0x0100\n      exp\n      swap1\n      div\n      0xff\n      and\n        /* \"Contracts/tiposVariable.sol\":1410:1422  return state */\n      swap1\n      pop\n        /* \"Contracts/tiposVariable.sol\":1346:1430  function displayState() public view returns (options){\r... */\n      swap1\n      jump\t// out\n        /* \"Contracts/tiposVariable.sol\":812:890  bytes20 public hashing_ripemd160 = ripemd160(abi.encodePacked(\"hello\", \"lia\")) */\n    tag_36:\n      0x0a\n      0x00\n      swap1\n      sload\n      swap1\n      0x0100\n      exp\n      swap1\n      div\n      0x60\n      shl\n      dup2\n      jump\t// out\n        /* \"Contracts/tiposVariable.sol\":1274:1338  function trueOFF() public {\r... */\n    tag_40:\n        /* \"Contracts/tiposVariable.sol\":1319:1330  options.OFF */\n      0x01\n        /* \"Contracts/tiposVariable.sol\":1311:1316  state */\n      0x0d\n      0x14\n        /* \"Contracts/tiposVariable.sol\":1311:1330  state = options.OFF */\n      0x0100\n      exp\n      dup2\n      sload\n      dup2\n      0xff\n      mul\n      not\n      and\n      swap1\n      dup4\n      0x01\n      dup2\n      gt\n      iszero\n      tag_55\n      jumpi\n      tag_56\n      tag_57\n      jump\t// in\n    tag_56:\n    tag_55:\n      mul\n      or\n      swap1\n      sstore\n      pop\n        /* \"Contracts/tiposVariable.sol\":1274:1338  function trueOFF() public {\r... */\n      jump\t// out\n        /* \"Contracts/tiposVariable.sol\":1204:1266  function trueOn() public {\r... */\n    tag_42:\n        /* \"Contracts/tiposVariable.sol\":1248:1258  options.ON */\n      0x00\n        /* \"Contracts/tiposVariable.sol\":1240:1245  state */\n      0x0d\n      0x14\n        /* \"Contracts/tiposVariable.sol\":1240:1258  state = options.ON */\n      0x0100\n      exp\n      dup2\n      sload\n      dup2\n      0xff\n      mul\n      not\n      and\n      swap1\n      dup4\n      0x01\n      dup2\n      gt\n      iszero\n      tag_59\n      jumpi\n      tag_60\n      tag_57\n      jump\t// in\n    tag_60:\n    tag_59:\n      mul\n      or\n      swap1\n      sstore\n      pop\n        /* \"Contracts/tiposVariable.sol\":1204:1266  function trueOn() public {\r... */\n      jump\t// out\n        /* \"Contracts/tiposVariable.sol\":948:1018  address public  address_1 = 0x5B38Da6a701c568545dCfcB03FcB875f56beddC4 */\n    tag_44:\n      0x0c\n      0x00\n      swap1\n      sload\n      swap1\n      0x0100\n      exp\n      swap1\n      div\n      0xffffffffffffffffffffffffffffffffffffffff\n      and\n      dup2\n      jump\t// out\n        /* \"Contracts/tiposVariable.sol\":356:393  string public str = \"esto es publico\" */\n    tag_47:\n      0x04\n      dup1\n      sload\n      tag_61\n      swap1\n      tag_62\n      jump\t// in\n    tag_61:\n      dup1\n      0x1f\n      add\n      0x20\n      dup1\n      swap2\n      div\n      mul\n      0x20\n      add\n      mload(0x40)\n      swap1\n      dup2\n      add\n      0x40\n      mstore\n      dup1\n      swap3\n      swap2\n      swap1\n      dup2\n      dup2\n      mstore\n      0x20\n      add\n      dup3\n      dup1\n      sload\n      tag_63\n      swap1\n      tag_62\n      jump\t// in\n    tag_63:\n      dup1\n      iszero\n      tag_64\n      jumpi\n      dup1\n      0x1f\n      lt\n      tag_65\n      jumpi\n      0x0100\n      dup1\n      dup4\n      sload\n      div\n      mul\n      dup4\n      mstore\n      swap2\n      0x20\n      add\n      swap2\n      jump(tag_64)\n    tag_65:\n      dup3\n      add\n      swap2\n      swap1\n      0x00\n      mstore\n      keccak256(0x00, 0x20)\n      swap1\n    tag_66:\n      dup2\n      sload\n      dup2\n      mstore\n      swap1\n      0x01\n      add\n      swap1\n      0x20\n      add\n      dup1\n      dup4\n      gt\n      tag_66\n      jumpi\n      dup3\n      swap1\n      sub\n      0x1f\n      and\n      dup3\n      add\n      swap2\n    tag_64:\n      pop\n      pop\n      pop\n      pop\n      pop\n      dup2\n      jump\t// out\n        /* \"Contracts/tiposVariable.sol\":733:805  bytes32 public hashing_sha256 = sha256(abi.encodePacked(\"hello\", \"lia\")) */\n    tag_51:\n      sload(0x09)\n      dup2\n      jump\t// out\n        /* \"#utility.yul\":7:125   */\n    tag_68:\n        /* \"#utility.yul\":94:118   */\n      tag_70\n        /* \"#utility.yul\":112:117   */\n      dup2\n        /* \"#utility.yul\":94:118   */\n      tag_71\n      jump\t// in\n    tag_70:\n        /* \"#utility.yul\":89:92   */\n      dup3\n        /* \"#utility.yul\":82:119   */\n      mstore\n        /* \"#utility.yul\":7:125   */\n      pop\n      pop\n      jump\t// out\n        /* \"#utility.yul\":131:240   */\n    tag_72:\n        /* \"#utility.yul\":212:233   */\n      tag_74\n        /* \"#utility.yul\":227:232   */\n      dup2\n        /* \"#utility.yul\":212:233   */\n      tag_75\n      jump\t// in\n    tag_74:\n        /* \"#utility.yul\":207:210   */\n      dup3\n        /* \"#utility.yul\":200:234   */\n      mstore\n        /* \"#utility.yul\":131:240   */\n      pop\n      pop\n      jump\t// out\n        /* \"#utility.yul\":246:364   */\n    tag_76:\n        /* \"#utility.yul\":333:357   */\n      tag_78\n        /* \"#utility.yul\":351:356   */\n      dup2\n        /* \"#utility.yul\":333:357   */\n      tag_79\n      jump\t// in\n    tag_78:\n        /* \"#utility.yul\":328:331   */\n      dup3\n        /* \"#utility.yul\":321:358   */\n      mstore\n        /* \"#utility.yul\":246:364   */\n      pop\n      pop\n      jump\t// out\n        /* \"#utility.yul\":370:488   */\n    tag_80:\n        /* \"#utility.yul\":457:481   */\n      tag_82\n        /* \"#utility.yul\":475:480   */\n      dup2\n        /* \"#utility.yul\":457:481   */\n      tag_83\n      jump\t// in\n    tag_82:\n        /* \"#utility.yul\":452:455   */\n      dup3\n        /* \"#utility.yul\":445:482   */\n      mstore\n        /* \"#utility.yul\":370:488   */\n      pop\n      pop\n      jump\t// out\n        /* \"#utility.yul\":494:641   */\n    tag_84:\n        /* \"#utility.yul\":589:634   */\n      tag_86\n        /* \"#utility.yul\":628:633   */\n      dup2\n        /* \"#utility.yul\":589:634   */\n      tag_87\n      jump\t// in\n    tag_86:\n        /* \"#utility.yul\":584:587   */\n      dup3\n        /* \"#utility.yul\":577:635   */\n      mstore\n        /* \"#utility.yul\":494:641   */\n      pop\n      pop\n      jump\t// out\n        /* \"#utility.yul\":647:1011   */\n    tag_88:\n        /* \"#utility.yul\":735:738   */\n      0x00\n        /* \"#utility.yul\":763:802   */\n      tag_90\n        /* \"#utility.yul\":796:801   */\n      dup3\n        /* \"#utility.yul\":763:802   */\n      tag_91\n      jump\t// in\n    tag_90:\n        /* \"#utility.yul\":818:889   */\n      tag_92\n        /* \"#utility.yul\":882:888   */\n      dup2\n        /* \"#utility.yul\":877:880   */\n      dup6\n        /* \"#utility.yul\":818:889   */\n      tag_93\n      jump\t// in\n    tag_92:\n        /* \"#utility.yul\":811:889   */\n      swap4\n      pop\n        /* \"#utility.yul\":898:950   */\n      tag_94\n        /* \"#utility.yul\":943:949   */\n      dup2\n        /* \"#utility.yul\":938:941   */\n      dup6\n        /* \"#utility.yul\":931:935   */\n      0x20\n        /* \"#utility.yul\":924:929   */\n      dup7\n        /* \"#utility.yul\":920:936   */\n      add\n        /* \"#utility.yul\":898:950   */\n      tag_95\n      jump\t// in\n    tag_94:\n        /* \"#utility.yul\":975:1004   */\n      tag_96\n        /* \"#utility.yul\":997:1003   */\n      dup2\n        /* \"#utility.yul\":975:1004   */\n      tag_97\n      jump\t// in\n    tag_96:\n        /* \"#utility.yul\":970:973   */\n      dup5\n        /* \"#utility.yul\":966:1005   */\n      add\n        /* \"#utility.yul\":959:1005   */\n      swap2\n      pop\n        /* \"#utility.yul\":739:1011   */\n      pop\n        /* \"#utility.yul\":647:1011   */\n      swap3\n      swap2\n      pop\n      pop\n      jump\t// out\n        /* \"#utility.yul\":1017:1129   */\n    tag_98:\n        /* \"#utility.yul\":1100:1122   */\n      tag_100\n        /* \"#utility.yul\":1116:1121   */\n      dup2\n        /* \"#utility.yul\":1100:1122   */\n      tag_101\n      jump\t// in\n    tag_100:\n        /* \"#utility.yul\":1095:1098   */\n      dup3\n        /* \"#utility.yul\":1088:1123   */\n      mstore\n        /* \"#utility.yul\":1017:1129   */\n      pop\n      pop\n      jump\t// out\n        /* \"#utility.yul\":1135:1357   */\n    tag_18:\n        /* \"#utility.yul\":1228:1232   */\n      0x00\n        /* \"#utility.yul\":1266:1268   */\n      0x20\n        /* \"#utility.yul\":1255:1264   */\n      dup3\n        /* \"#utility.yul\":1251:1269   */\n      add\n        /* \"#utility.yul\":1243:1269   */\n      swap1\n      pop\n        /* \"#utility.yul\":1279:1350   */\n      tag_103\n        /* \"#utility.yul\":1347:1348   */\n      0x00\n        /* \"#utility.yul\":1336:1345   */\n      dup4\n        /* \"#utility.yul\":1332:1349   */\n      add\n        /* \"#utility.yul\":1323:1329   */\n      dup5\n        /* \"#utility.yul\":1279:1350   */\n      tag_68\n      jump\t// in\n    tag_103:\n        /* \"#utility.yul\":1135:1357   */\n      swap3\n      swap2\n      pop\n      pop\n      jump\t// out\n        /* \"#utility.yul\":1363:1573   */\n    tag_26:\n        /* \"#utility.yul\":1450:1454   */\n      0x00\n        /* \"#utility.yul\":1488:1490   */\n      0x20\n        /* \"#utility.yul\":1477:1486   */\n      dup3\n        /* \"#utility.yul\":1473:1491   */\n      add\n        /* \"#utility.yul\":1465:1491   */\n      swap1\n      pop\n        /* \"#utility.yul\":1501:1566   */\n      tag_105\n        /* \"#utility.yul\":1563:1564   */\n      0x00\n        /* \"#utility.yul\":1552:1561   */\n      dup4\n        /* \"#utility.yul\":1548:1565   */\n      add\n        /* \"#utility.yul\":1539:1545   */\n      dup5\n        /* \"#utility.yul\":1501:1566   */\n      tag_72\n      jump\t// in\n    tag_105:\n        /* \"#utility.yul\":1363:1573   */\n      swap3\n      swap2\n      pop\n      pop\n      jump\t// out\n        /* \"#utility.yul\":1579:1801   */\n    tag_38:\n        /* \"#utility.yul\":1672:1676   */\n      0x00\n        /* \"#utility.yul\":1710:1712   */\n      0x20\n        /* \"#utility.yul\":1699:1708   */\n      dup3\n        /* \"#utility.yul\":1695:1713   */\n      add\n        /* \"#utility.yul\":1687:1713   */\n      swap1\n      pop\n        /* \"#utility.yul\":1723:1794   */\n      tag_107\n        /* \"#utility.yul\":1791:1792   */\n      0x00\n        /* \"#utility.yul\":1780:1789   */\n      dup4\n        /* \"#utility.yul\":1776:1793   */\n      add\n        /* \"#utility.yul\":1767:1773   */\n      dup5\n        /* \"#utility.yul\":1723:1794   */\n      tag_76\n      jump\t// in\n    tag_107:\n        /* \"#utility.yul\":1579:1801   */\n      swap3\n      swap2\n      pop\n      pop\n      jump\t// out\n        /* \"#utility.yul\":1807:2029   */\n    tag_22:\n        /* \"#utility.yul\":1900:1904   */\n      0x00\n        /* \"#utility.yul\":1938:1940   */\n      0x20\n        /* \"#utility.yul\":1927:1936   */\n      dup3\n        /* \"#utility.yul\":1923:1941   */\n      add\n        /* \"#utility.yul\":1915:1941   */\n      swap1\n      pop\n        /* \"#utility.yul\":1951:2022   */\n      tag_109\n        /* \"#utility.yul\":2019:2020   */\n      0x00\n        /* \"#utility.yul\":2008:2017   */\n      dup4\n        /* \"#utility.yul\":2004:2021   */\n      add\n        /* \"#utility.yul\":1995:2001   */\n      dup5\n        /* \"#utility.yul\":1951:2022   */\n      tag_80\n      jump\t// in\n    tag_109:\n        /* \"#utility.yul\":1807:2029   */\n      swap3\n      swap2\n      pop\n      pop\n      jump\t// out\n        /* \"#utility.yul\":2035:2273   */\n    tag_34:\n        /* \"#utility.yul\":2136:2140   */\n      0x00\n        /* \"#utility.yul\":2174:2176   */\n      0x20\n        /* \"#utility.yul\":2163:2172   */\n      dup3\n        /* \"#utility.yul\":2159:2177   */\n      add\n        /* \"#utility.yul\":2151:2177   */\n      swap1\n      pop\n        /* \"#utility.yul\":2187:2266   */\n      tag_111\n        /* \"#utility.yul\":2263:2264   */\n      0x00\n        /* \"#utility.yul\":2252:2261   */\n      dup4\n        /* \"#utility.yul\":2248:2265   */\n      add\n        /* \"#utility.yul\":2239:2245   */\n      dup5\n        /* \"#utility.yul\":2187:2266   */\n      tag_84\n      jump\t// in\n    tag_111:\n        /* \"#utility.yul\":2035:2273   */\n      swap3\n      swap2\n      pop\n      pop\n      jump\t// out\n        /* \"#utility.yul\":2279:2592   */\n    tag_49:\n        /* \"#utility.yul\":2392:2396   */\n      0x00\n        /* \"#utility.yul\":2430:2432   */\n      0x20\n        /* \"#utility.yul\":2419:2428   */\n      dup3\n        /* \"#utility.yul\":2415:2433   */\n      add\n        /* \"#utility.yul\":2407:2433   */\n      swap1\n      pop\n        /* \"#utility.yul\":2479:2488   */\n      dup2\n        /* \"#utility.yul\":2473:2477   */\n      dup2\n        /* \"#utility.yul\":2469:2489   */\n      sub\n        /* \"#utility.yul\":2465:2466   */\n      0x00\n        /* \"#utility.yul\":2454:2463   */\n      dup4\n        /* \"#utility.yul\":2450:2467   */\n      add\n        /* \"#utility.yul\":2443:2490   */\n      mstore\n        /* \"#utility.yul\":2507:2585   */\n      tag_113\n        /* \"#utility.yul\":2580:2584   */\n      dup2\n        /* \"#utility.yul\":2571:2577   */\n      dup5\n        /* \"#utility.yul\":2507:2585   */\n      tag_88\n      jump\t// in\n    tag_113:\n        /* \"#utility.yul\":2499:2585   */\n      swap1\n      pop\n        /* \"#utility.yul\":2279:2592   */\n      swap3\n      swap2\n      pop\n      pop\n      jump\t// out\n        /* \"#utility.yul\":2598:2812   */\n    tag_30:\n        /* \"#utility.yul\":2687:2691   */\n      0x00\n        /* \"#utility.yul\":2725:2727   */\n      0x20\n        /* \"#utility.yul\":2714:2723   */\n      dup3\n        /* \"#utility.yul\":2710:2728   */\n      add\n        /* \"#utility.yul\":2702:2728   */\n      swap1\n      pop\n        /* \"#utility.yul\":2738:2805   */\n      tag_115\n        /* \"#utility.yul\":2802:2803   */\n      0x00\n        /* \"#utility.yul\":2791:2800   */\n      dup4\n        /* \"#utility.yul\":2787:2804   */\n      add\n        /* \"#utility.yul\":2778:2784   */\n      dup5\n        /* \"#utility.yul\":2738:2805   */\n      tag_98\n      jump\t// in\n    tag_115:\n        /* \"#utility.yul\":2598:2812   */\n      swap3\n      swap2\n      pop\n      pop\n      jump\t// out\n        /* \"#utility.yul\":2818:2917   */\n    tag_91:\n        /* \"#utility.yul\":2870:2876   */\n      0x00\n        /* \"#utility.yul\":2904:2909   */\n      dup2\n        /* \"#utility.yul\":2898:2910   */\n      mload\n        /* \"#utility.yul\":2888:2910   */\n      swap1\n      pop\n        /* \"#utility.yul\":2818:2917   */\n      swap2\n      swap1\n      pop\n      jump\t// out\n        /* \"#utility.yul\":2923:3092   */\n    tag_93:\n        /* \"#utility.yul\":3007:3018   */\n      0x00\n        /* \"#utility.yul\":3041:3047   */\n      dup3\n        /* \"#utility.yul\":3036:3039   */\n      dup3\n        /* \"#utility.yul\":3029:3048   */\n      mstore\n        /* \"#utility.yul\":3081:3085   */\n      0x20\n        /* \"#utility.yul\":3076:3079   */\n      dup3\n        /* \"#utility.yul\":3072:3086   */\n      add\n        /* \"#utility.yul\":3057:3086   */\n      swap1\n      pop\n        /* \"#utility.yul\":2923:3092   */\n      swap3\n      swap2\n      pop\n      pop\n      jump\t// out\n        /* \"#utility.yul\":3098:3194   */\n    tag_71:\n        /* \"#utility.yul\":3135:3142   */\n      0x00\n        /* \"#utility.yul\":3164:3188   */\n      tag_119\n        /* \"#utility.yul\":3182:3187   */\n      dup3\n        /* \"#utility.yul\":3164:3188   */\n      tag_120\n      jump\t// in\n    tag_119:\n        /* \"#utility.yul\":3153:3188   */\n      swap1\n      pop\n        /* \"#utility.yul\":3098:3194   */\n      swap2\n      swap1\n      pop\n      jump\t// out\n        /* \"#utility.yul\":3200:3290   */\n    tag_75:\n        /* \"#utility.yul\":3234:3241   */\n      0x00\n        /* \"#utility.yul\":3277:3282   */\n      dup2\n        /* \"#utility.yul\":3270:3283   */\n      iszero\n        /* \"#utility.yul\":3263:3284   */\n      iszero\n        /* \"#utility.yul\":3252:3284   */\n      swap1\n      pop\n        /* \"#utility.yul\":3200:3290   */\n      swap2\n      swap1\n      pop\n      jump\t// out\n        /* \"#utility.yul\":3296:3446   */\n    tag_79:\n        /* \"#utility.yul\":3333:3340   */\n      0x00\n        /* \"#utility.yul\":3373:3439   */\n      0xffffffffffffffffffffffffffffffffffffffff000000000000000000000000\n        /* \"#utility.yul\":3366:3371   */\n      dup3\n        /* \"#utility.yul\":3362:3440   */\n      and\n        /* \"#utility.yul\":3351:3440   */\n      swap1\n      pop\n        /* \"#utility.yul\":3296:3446   */\n      swap2\n      swap1\n      pop\n      jump\t// out\n        /* \"#utility.yul\":3452:3529   */\n    tag_83:\n        /* \"#utility.yul\":3489:3496   */\n      0x00\n        /* \"#utility.yul\":3518:3523   */\n      dup2\n        /* \"#utility.yul\":3507:3523   */\n      swap1\n      pop\n        /* \"#utility.yul\":3452:3529   */\n      swap2\n      swap1\n      pop\n      jump\t// out\n        /* \"#utility.yul\":3535:3666   */\n    tag_124:\n        /* \"#utility.yul\":3582:3589   */\n      0x00\n        /* \"#utility.yul\":3611:3616   */\n      dup2\n        /* \"#utility.yul\":3600:3616   */\n      swap1\n      pop\n        /* \"#utility.yul\":3617:3660   */\n      tag_126\n        /* \"#utility.yul\":3654:3659   */\n      dup3\n        /* \"#utility.yul\":3617:3660   */\n      tag_127\n      jump\t// in\n    tag_126:\n        /* \"#utility.yul\":3535:3666   */\n      swap2\n      swap1\n      pop\n      jump\t// out\n        /* \"#utility.yul\":3672:3798   */\n    tag_120:\n        /* \"#utility.yul\":3709:3716   */\n      0x00\n        /* \"#utility.yul\":3749:3791   */\n      0xffffffffffffffffffffffffffffffffffffffff\n        /* \"#utility.yul\":3742:3747   */\n      dup3\n        /* \"#utility.yul\":3738:3792   */\n      and\n        /* \"#utility.yul\":3727:3792   */\n      swap1\n      pop\n        /* \"#utility.yul\":3672:3798   */\n      swap2\n      swap1\n      pop\n      jump\t// out\n        /* \"#utility.yul\":3804:3890   */\n    tag_101:\n        /* \"#utility.yul\":3839:3846   */\n      0x00\n        /* \"#utility.yul\":3879:3883   */\n      0xff\n        /* \"#utility.yul\":3872:3877   */\n      dup3\n        /* \"#utility.yul\":3868:3884   */\n      and\n        /* \"#utility.yul\":3857:3884   */\n      swap1\n      pop\n        /* \"#utility.yul\":3804:3890   */\n      swap2\n      swap1\n      pop\n      jump\t// out\n        /* \"#utility.yul\":3896:4027   */\n    tag_87:\n        /* \"#utility.yul\":3954:3963   */\n      0x00\n        /* \"#utility.yul\":3987:4021   */\n      tag_131\n        /* \"#utility.yul\":4015:4020   */\n      dup3\n        /* \"#utility.yul\":3987:4021   */\n      tag_124\n      jump\t// in\n    tag_131:\n        /* \"#utility.yul\":3974:4021   */\n      swap1\n      pop\n        /* \"#utility.yul\":3896:4027   */\n      swap2\n      swap1\n      pop\n      jump\t// out\n        /* \"#utility.yul\":4033:4340   */\n    tag_95:\n        /* \"#utility.yul\":4101:4102   */\n      0x00\n        /* \"#utility.yul\":4111:4224   */\n    tag_133:\n        /* \"#utility.yul\":4125:4131   */\n      dup4\n        /* \"#utility.yul\":4122:4123   */\n      dup2\n        /* \"#utility.yul\":4119:4132   */\n      lt\n        /* \"#utility.yul\":4111:4224   */\n      iszero\n      tag_135\n      jumpi\n        /* \"#utility.yul\":4210:4211   */\n      dup1\n        /* \"#utility.yul\":4205:4208   */\n      dup3\n        /* \"#utility.yul\":4201:4212   */\n      add\n        /* \"#utility.yul\":4195:4213   */\n      mload\n        /* \"#utility.yul\":4191:4192   */\n      dup2\n        /* \"#utility.yul\":4186:4189   */\n      dup5\n        /* \"#utility.yul\":4182:4193   */\n      add\n        /* \"#utility.yul\":4175:4214   */\n      mstore\n        /* \"#utility.yul\":4147:4149   */\n      0x20\n        /* \"#utility.yul\":4144:4145   */\n      dup2\n        /* \"#utility.yul\":4140:4150   */\n      add\n        /* \"#utility.yul\":4135:4150   */\n      swap1\n      pop\n        /* \"#utility.yul\":4111:4224   */\n      jump(tag_133)\n    tag_135:\n        /* \"#utility.yul\":4242:4248   */\n      dup4\n        /* \"#utility.yul\":4239:4240   */\n      dup2\n        /* \"#utility.yul\":4236:4249   */\n      gt\n        /* \"#utility.yul\":4233:4334   */\n      iszero\n      tag_136\n      jumpi\n        /* \"#utility.yul\":4322:4323   */\n      0x00\n        /* \"#utility.yul\":4313:4319   */\n      dup5\n        /* \"#utility.yul\":4308:4311   */\n      dup5\n        /* \"#utility.yul\":4304:4320   */\n      add\n        /* \"#utility.yul\":4297:4324   */\n      mstore\n        /* \"#utility.yul\":4233:4334   */\n    tag_136:\n        /* \"#utility.yul\":4082:4340   */\n      pop\n        /* \"#utility.yul\":4033:4340   */\n      pop\n      pop\n      pop\n      jump\t// out\n        /* \"#utility.yul\":4346:4666   */\n    tag_62:\n        /* \"#utility.yul\":4390:4396   */\n      0x00\n        /* \"#utility.yul\":4427:4428   */\n      0x02\n        /* \"#utility.yul\":4421:4425   */\n      dup3\n        /* \"#utility.yul\":4417:4429   */\n      div\n        /* \"#utility.yul\":4407:4429   */\n      swap1\n      pop\n        /* \"#utility.yul\":4474:4475   */\n      0x01\n        /* \"#utility.yul\":4468:4472   */\n      dup3\n        /* \"#utility.yul\":4464:4476   */\n      and\n        /* \"#utility.yul\":4495:4513   */\n      dup1\n        /* \"#utility.yul\":4485:4566   */\n      tag_138\n      jumpi\n        /* \"#utility.yul\":4551:4555   */\n      0x7f\n        /* \"#utility.yul\":4543:4549   */\n      dup3\n        /* \"#utility.yul\":4539:4556   */\n      and\n        /* \"#utility.yul\":4529:4556   */\n      swap2\n      pop\n        /* \"#utility.yul\":4485:4566   */\n    tag_138:\n        /* \"#utility.yul\":4613:4615   */\n      0x20\n        /* \"#utility.yul\":4605:4611   */\n      dup3\n        /* \"#utility.yul\":4602:4616   */\n      lt\n        /* \"#utility.yul\":4582:4600   */\n      dup2\n        /* \"#utility.yul\":4579:4617   */\n      eq\n        /* \"#utility.yul\":4576:4660   */\n      iszero\n      tag_139\n      jumpi\n        /* \"#utility.yul\":4632:4650   */\n      tag_140\n      tag_141\n      jump\t// in\n    tag_140:\n        /* \"#utility.yul\":4576:4660   */\n    tag_139:\n        /* \"#utility.yul\":4397:4666   */\n      pop\n        /* \"#utility.yul\":4346:4666   */\n      swap2\n      swap1\n      pop\n      jump\t// out\n        /* \"#utility.yul\":4672:4852   */\n    tag_57:\n        /* \"#utility.yul\":4720:4797   */\n      0x4e487b7100000000000000000000000000000000000000000000000000000000\n        /* \"#utility.yul\":4717:4718   */\n      0x00\n        /* \"#utility.yul\":4710:4798   */\n      mstore\n        /* \"#utility.yul\":4817:4821   */\n      0x21\n        /* \"#utility.yul\":4814:4815   */\n      0x04\n        /* \"#utility.yul\":4807:4822   */\n      mstore\n        /* \"#utility.yul\":4841:4845   */\n      0x24\n        /* \"#utility.yul\":4838:4839   */\n      0x00\n        /* \"#utility.yul\":4831:4846   */\n      revert\n        /* \"#utility.yul\":4858:5038   */\n    tag_141:\n        /* \"#utility.yul\":4906:4983   */\n      0x4e487b7100000000000000000000000000000000000000000000000000000000\n        /* \"#utility.yul\":4903:4904   */\n      0x00\n        /* \"#utility.yul\":4896:4984   */\n      mstore\n        /* \"#utility.yul\":5003:5007   */\n      0x22\n        /* \"#utility.yul\":5000:5001   */\n      0x04\n        /* \"#utility.yul\":4993:5008   */\n      mstore\n        /* \"#utility.yul\":5027:5031   */\n      0x24\n        /* \"#utility.yul\":5024:5025   */\n      0x00\n        /* \"#utility.yul\":5017:5032   */\n      revert\n        /* \"#utility.yul\":5044:5146   */\n    tag_97:\n        /* \"#utility.yul\":5085:5091   */\n      0x00\n        /* \"#utility.yul\":5136:5138   */\n      0x1f\n        /* \"#utility.yul\":5132:5139   */\n      not\n        /* \"#utility.yul\":5127:5129   */\n      0x1f\n        /* \"#utility.yul\":5120:5125   */\n      dup4\n        /* \"#utility.yul\":5116:5130   */\n      add\n        /* \"#utility.yul\":5112:5140   */\n      and\n        /* \"#utility.yul\":5102:5140   */\n      swap1\n      pop\n        /* \"#utility.yul\":5044:5146   */\n      swap2\n      swap1\n      pop\n      jump\t// out\n        /* \"#utility.yul\":5152:5267   */\n    tag_127:\n        /* \"#utility.yul\":5235:5236   */\n      0x02\n        /* \"#utility.yul\":5228:5233   */\n      dup2\n        /* \"#utility.yul\":5225:5237   */\n      lt\n        /* \"#utility.yul\":5215:5261   */\n      tag_146\n      jumpi\n        /* \"#utility.yul\":5241:5259   */\n      tag_147\n      tag_57\n      jump\t// in\n    tag_147:\n        /* \"#utility.yul\":5215:5261   */\n    tag_146:\n        /* \"#utility.yul\":5152:5267   */\n      pop\n      jump\t// out\n\n    auxdata: 0xa2646970667358221220e42c475bddd5d8d6ff96ca236e5ddf7574293e5f95681b6f9e741046c1c3053e64736f6c63430008070033\n}\n",
				"bytecode": {
					"linkReferences": {},
					"object": "60806040526004600060016101000a81548160ff021916908360ff1602179055507fffffffffffffffffffffffffffffffffffffffffffffffffffffffffffffffff600260006101000a81548160ff021916908360000b60ff16021790555060346003556040518060400160405280600f81526020017f6573746f206573207075626c69636f000000000000000000000000000000000081525060049080519060200190620000b09291906200031f565b506040518060400160405280600f81526020017f6573746f206573207072697661646f000000000000000000000000000000000081525060059080519060200190620000fe9291906200031f565b506001600660006101000a81548160ff0219169083151502179055506000600660016101000a81548160ff0219169083151502179055506001735b38da6a701c568545dcfcb03fcb875f56beddc46040516020016200015f92919062000510565b6040516020818303038152906040528051906020012060085560026040516020016200018b90620004ec565b604051602081830303815290604052604051620001a99190620004d3565b602060405180830381855afa158015620001c7573d6000803e3d6000fd5b5050506040513d601f19601f82011682018060405250810190620001ec9190620003e6565b60095560036040516020016200020290620004ec565b604051602081830303815290604052604051620002209190620004d3565b602060405180830381855afa1580156200023e573d6000803e3d6000fd5b5050506040515160601b600a60006101000a81548173ffffffffffffffffffffffffffffffffffffffff021916908360601c0217905550735b38da6a701c568545dcfcb03fcb875f56beddc4600c60006101000a81548173ffffffffffffffffffffffffffffffffffffffff021916908373ffffffffffffffffffffffffffffffffffffffff16021790555033600d60006101000a81548173ffffffffffffffffffffffffffffffffffffffff021916908373ffffffffffffffffffffffffffffffffffffffff1602179055503480156200031857600080fd5b506200070e565b8280546200032d90620005f9565b90600052602060002090601f0160209004810192826200035157600085556200039d565b82601f106200036c57805160ff19168380011785556200039d565b828001600101855582156200039d579182015b828111156200039c5782518255916020019190600101906200037f565b5b509050620003ac9190620003b0565b5090565b5b80821115620003cb576000816000905550600101620003b1565b5090565b600081519050620003e081620006f4565b92915050565b600060208284031215620003ff57620003fe62000690565b5b60006200040f84828501620003cf565b91505092915050565b6200042d62000427826200057b565b6200062f565b82525050565b600062000440826200055a565b6200044c818562000565565b93506200045e818560208601620005c3565b80840191505092915050565b60006200047960058362000570565b91506200048682620006a2565b600582019050919050565b6000620004a060038362000570565b9150620004ad82620006cb565b600382019050919050565b620004cd620004c782620005b9565b62000657565b82525050565b6000620004e1828462000433565b915081905092915050565b6000620004f9826200046a565b9150620005068262000491565b9150819050919050565b60006200051d826200046a565b91506200052a8262000491565b9150620005388285620004b8565b6020820191506200054a828462000418565b6014820191508190509392505050565b600081519050919050565b600081905092915050565b600081905092915050565b6000620005888262000599565b9050919050565b6000819050919050565b600073ffffffffffffffffffffffffffffffffffffffff82169050919050565b6000819050919050565b60005b83811015620005e3578082015181840152602081019050620005c6565b83811115620005f3576000848401525b50505050565b600060028204905060018216806200061257607f821691505b6020821081141562000629576200062862000661565b5b50919050565b60006200063c8262000643565b9050919050565b6000620006508262000695565b9050919050565b6000819050919050565b7f4e487b7100000000000000000000000000000000000000000000000000000000600052602260045260246000fd5b600080fd5b60008160601b9050919050565b7f68656c6c6f000000000000000000000000000000000000000000000000000000600082015250565b7f6c69610000000000000000000000000000000000000000000000000000000000600082015250565b620006ff816200058f565b81146200070b57600080fd5b50565b610697806200071e6000396000f3fe608060405234801561001057600080fd5b50600436106100a95760003560e01c80637a68ef7f116100715780637a68ef7f146101445780637c3baa1814610162578063a2bdcc8c1461016c578063ad0a93bc14610176578063c15bae8414610194578063c7109d04146101b2576100a9565b80631216d176146100ae5780632b73648d146100cc578063312a4c9c146100ea5780634df7e3d0146101085780637272eea114610126575b600080fd5b6100b66101d0565b6040516100c391906103f3565b60405180910390f35b6100d46101f6565b6040516100e19190610444565b60405180910390f35b6100f26101fc565b6040516100ff919061040e565b60405180910390f35b61011061020f565b60405161011d919061049c565b60405180910390f35b61012e610222565b60405161013b919061045f565b60405180910390f35b61014c610239565b6040516101599190610429565b60405180910390f35b61016a61024c565b005b610174610279565b005b61017e6102a6565b60405161018b91906103f3565b60405180910390f35b61019c6102cc565b6040516101a9919061047a565b60405180910390f35b6101ba61035a565b6040516101c79190610444565b60405180910390f35b600d60009054906101000a900473ffffffffffffffffffffffffffffffffffffffff1681565b60085481565b600660009054906101000a900460ff1681565b600060019054906101000a900460ff1681565b6000600d60149054906101000a900460ff16905090565b600a60009054906101000a900460601b81565b6001600d60146101000a81548160ff02191690836001811115610272576102716105de565b5b0217905550565b6000600d60146101000a81548160ff0219169083600181111561029f5761029e6105de565b5b0217905550565b600c60009054906101000a900473ffffffffffffffffffffffffffffffffffffffff1681565b600480546102d9906105ac565b80601f0160208091040260200160405190810160405280929190818152602001828054610305906105ac565b80156103525780601f1061032757610100808354040283529160200191610352565b820191906000526020600020905b81548152906001019060200180831161033557829003601f168201915b505050505081565b60095481565b610369816104d3565b82525050565b610378816104e5565b82525050565b610387816104f1565b82525050565b6103968161051d565b82525050565b6103a581610567565b82525050565b60006103b6826104b7565b6103c081856104c2565b93506103d0818560208601610579565b6103d98161063c565b840191505092915050565b6103ed8161055a565b82525050565b60006020820190506104086000830184610360565b92915050565b6000602082019050610423600083018461036f565b92915050565b600060208201905061043e600083018461037e565b92915050565b6000602082019050610459600083018461038d565b92915050565b6000602082019050610474600083018461039c565b92915050565b6000602082019050818103600083015261049481846103ab565b905092915050565b60006020820190506104b160008301846103e4565b92915050565b600081519050919050565b600082825260208201905092915050565b60006104de8261053a565b9050919050565b60008115159050919050565b60007fffffffffffffffffffffffffffffffffffffffff00000000000000000000000082169050919050565b6000819050919050565b60008190506105358261064d565b919050565b600073ffffffffffffffffffffffffffffffffffffffff82169050919050565b600060ff82169050919050565b600061057282610527565b9050919050565b60005b8381101561059757808201518184015260208101905061057c565b838111156105a6576000848401525b50505050565b600060028204905060018216806105c457607f821691505b602082108114156105d8576105d761060d565b5b50919050565b7f4e487b7100000000000000000000000000000000000000000000000000000000600052602160045260246000fd5b7f4e487b7100000000000000000000000000000000000000000000000000000000600052602260045260246000fd5b6000601f19601f8301169050919050565b6002811061065e5761065d6105de565b5b5056fea2646970667358221220e42c475bddd5d8d6ff96ca236e5ddf7574293e5f95681b6f9e741046c1c3053e64736f6c63430008070033",
					"opcodes": "PUSH1 0x80 PUSH1 0x40 MSTORE PUSH1 0x4 PUSH1 0x0 PUSH1 0x1 PUSH2 0x100 EXP DUP2 SLOAD DUP2 PUSH1 0xFF MUL NOT AND SWAP1 DUP4 PUSH1 0xFF AND MUL OR SWAP1 SSTORE POP PUSH32 0xFFFFFFFFFFFFFFFFFFFFFFFFFFFFFFFFFFFFFFFFFFFFFFFFFFFFFFFFFFFFFFFF PUSH1 0x2 PUSH1 0x0 PUSH2 0x100 EXP DUP2 SLOAD DUP2 PUSH1 0xFF MUL NOT AND SWAP1 DUP4 PUSH1 0x0 SIGNEXTEND PUSH1 0xFF AND MUL OR SWAP1 SSTORE POP PUSH1 0x34 PUSH1 0x3 SSTORE PUSH1 0x40 MLOAD DUP1 PUSH1 0x40 ADD PUSH1 0x40 MSTORE DUP1 PUSH1 0xF DUP2 MSTORE PUSH1 0x20 ADD PUSH32 0x6573746F206573207075626C69636F0000000000000000000000000000000000 DUP2 MSTORE POP PUSH1 0x4 SWAP1 DUP1 MLOAD SWAP1 PUSH1 0x20 ADD SWAP1 PUSH3 0xB0 SWAP3 SWAP2 SWAP1 PUSH3 0x31F JUMP JUMPDEST POP PUSH1 0x40 MLOAD DUP1 PUSH1 0x40 ADD PUSH1 0x40 MSTORE DUP1 PUSH1 0xF DUP2 MSTORE PUSH1 0x20 ADD PUSH32 0x6573746F206573207072697661646F0000000000000000000000000000000000 DUP2 MSTORE POP PUSH1 0x5 SWAP1 DUP1 MLOAD SWAP1 PUSH1 0x20 ADD SWAP1 PUSH3 0xFE SWAP3 SWAP2 SWAP1 PUSH3 0x31F JUMP JUMPDEST POP PUSH1 0x1 PUSH1 0x6 PUSH1 0x0 PUSH2 0x100 EXP DUP2 SLOAD DUP2 PUSH1 0xFF MUL NOT AND SWAP1 DUP4 ISZERO ISZERO MUL OR SWAP1 SSTORE POP PUSH1 0x0 PUSH1 0x6 PUSH1 0x1 PUSH2 0x100 EXP DUP2 SLOAD DUP2 PUSH1 0xFF MUL NOT AND SWAP1 DUP4 ISZERO ISZERO MUL OR SWAP1 SSTORE POP PUSH1 0x1 PUSH20 0x5B38DA6A701C568545DCFCB03FCB875F56BEDDC4 PUSH1 0x40 MLOAD PUSH1 0x20 ADD PUSH3 0x15F SWAP3 SWAP2 SWAP1 PUSH3 0x510 JUMP JUMPDEST PUSH1 0x40 MLOAD PUSH1 0x20 DUP2 DUP4 SUB SUB DUP2 MSTORE SWAP1 PUSH1 0x40 MSTORE DUP1 MLOAD SWAP1 PUSH1 0x20 ADD KECCAK256 PUSH1 0x8 SSTORE PUSH1 0x2 PUSH1 0x40 MLOAD PUSH1 0x20 ADD PUSH3 0x18B SWAP1 PUSH3 0x4EC JUMP JUMPDEST PUSH1 0x40 MLOAD PUSH1 0x20 DUP2 DUP4 SUB SUB DUP2 MSTORE SWAP1 PUSH1 0x40 MSTORE PUSH1 0x40 MLOAD PUSH3 0x1A9 SWAP2 SWAP1 PUSH3 0x4D3 JUMP JUMPDEST PUSH1 0x20 PUSH1 0x40 MLOAD DUP1 DUP4 SUB DUP2 DUP6 GAS STATICCALL ISZERO DUP1 ISZERO PUSH3 0x1C7 JUMPI RETURNDATASIZE PUSH1 0x0 DUP1 RETURNDATACOPY RETURNDATASIZE PUSH1 0x0 REVERT JUMPDEST POP POP POP PUSH1 0x40 MLOAD RETURNDATASIZE PUSH1 0x1F NOT PUSH1 0x1F DUP3 ADD AND DUP3 ADD DUP1 PUSH1 0x40 MSTORE POP DUP2 ADD SWAP1 PUSH3 0x1EC SWAP2 SWAP1 PUSH3 0x3E6 JUMP JUMPDEST PUSH1 0x9 SSTORE PUSH1 0x3 PUSH1 0x40 MLOAD PUSH1 0x20 ADD PUSH3 0x202 SWAP1 PUSH3 0x4EC JUMP JUMPDEST PUSH1 0x40 MLOAD PUSH1 0x20 DUP2 DUP4 SUB SUB DUP2 MSTORE SWAP1 PUSH1 0x40 MSTORE PUSH1 0x40 MLOAD PUSH3 0x220 SWAP2 SWAP1 PUSH3 0x4D3 JUMP JUMPDEST PUSH1 0x20 PUSH1 0x40 MLOAD DUP1 DUP4 SUB DUP2 DUP6 GAS STATICCALL ISZERO DUP1 ISZERO PUSH3 0x23E JUMPI RETURNDATASIZE PUSH1 0x0 DUP1 RETURNDATACOPY RETURNDATASIZE PUSH1 0x0 REVERT JUMPDEST POP POP POP PUSH1 0x40 MLOAD MLOAD PUSH1 0x60 SHL PUSH1 0xA PUSH1 0x0 PUSH2 0x100 EXP DUP2 SLOAD DUP2 PUSH20 0xFFFFFFFFFFFFFFFFFFFFFFFFFFFFFFFFFFFFFFFF MUL NOT AND SWAP1 DUP4 PUSH1 0x60 SHR MUL OR SWAP1 SSTORE POP PUSH20 0x5B38DA6A701C568545DCFCB03FCB875F56BEDDC4 PUSH1 0xC PUSH1 0x0 PUSH2 0x100 EXP DUP2 SLOAD DUP2 PUSH20 0xFFFFFFFFFFFFFFFFFFFFFFFFFFFFFFFFFFFFFFFF MUL NOT AND SWAP1 DUP4 PUSH20 0xFFFFFFFFFFFFFFFFFFFFFFFFFFFFFFFFFFFFFFFF AND MUL OR SWAP1 SSTORE POP CALLER PUSH1 0xD PUSH1 0x0 PUSH2 0x100 EXP DUP2 SLOAD DUP2 PUSH20 0xFFFFFFFFFFFFFFFFFFFFFFFFFFFFFFFFFFFFFFFF MUL NOT AND SWAP1 DUP4 PUSH20 0xFFFFFFFFFFFFFFFFFFFFFFFFFFFFFFFFFFFFFFFF AND MUL OR SWAP1 SSTORE POP CALLVALUE DUP1 ISZERO PUSH3 0x318 JUMPI PUSH1 0x0 DUP1 REVERT JUMPDEST POP PUSH3 0x70E JUMP JUMPDEST DUP3 DUP1 SLOAD PUSH3 0x32D SWAP1 PUSH3 0x5F9 JUMP JUMPDEST SWAP1 PUSH1 0x0 MSTORE PUSH1 0x20 PUSH1 0x0 KECCAK256 SWAP1 PUSH1 0x1F ADD PUSH1 0x20 SWAP1 DIV DUP2 ADD SWAP3 DUP3 PUSH3 0x351 JUMPI PUSH1 0x0 DUP6 SSTORE PUSH3 0x39D JUMP JUMPDEST DUP3 PUSH1 0x1F LT PUSH3 0x36C JUMPI DUP1 MLOAD PUSH1 0xFF NOT AND DUP4 DUP1 ADD OR DUP6 SSTORE PUSH3 0x39D JUMP JUMPDEST DUP3 DUP1 ADD PUSH1 0x1 ADD DUP6 SSTORE DUP3 ISZERO PUSH3 0x39D JUMPI SWAP2 DUP3 ADD JUMPDEST DUP3 DUP2 GT ISZERO PUSH3 0x39C JUMPI DUP3 MLOAD DUP3 SSTORE SWAP2 PUSH1 0x20 ADD SWAP2 SWAP1 PUSH1 0x1 ADD SWAP1 PUSH3 0x37F JUMP JUMPDEST JUMPDEST POP SWAP1 POP PUSH3 0x3AC SWAP2 SWAP1 PUSH3 0x3B0 JUMP JUMPDEST POP SWAP1 JUMP JUMPDEST JUMPDEST DUP1 DUP3 GT ISZERO PUSH3 0x3CB JUMPI PUSH1 0x0 DUP2 PUSH1 0x0 SWAP1 SSTORE POP PUSH1 0x1 ADD PUSH3 0x3B1 JUMP JUMPDEST POP SWAP1 JUMP JUMPDEST PUSH1 0x0 DUP2 MLOAD SWAP1 POP PUSH3 0x3E0 DUP2 PUSH3 0x6F4 JUMP JUMPDEST SWAP3 SWAP2 POP POP JUMP JUMPDEST PUSH1 0x0 PUSH1 0x20 DUP3 DUP5 SUB SLT ISZERO PUSH3 0x3FF JUMPI PUSH3 0x3FE PUSH3 0x690 JUMP JUMPDEST JUMPDEST PUSH1 0x0 PUSH3 0x40F DUP5 DUP3 DUP6 ADD PUSH3 0x3CF JUMP JUMPDEST SWAP2 POP POP SWAP3 SWAP2 POP POP JUMP JUMPDEST PUSH3 0x42D PUSH3 0x427 DUP3 PUSH3 0x57B JUMP JUMPDEST PUSH3 0x62F JUMP JUMPDEST DUP3 MSTORE POP POP JUMP JUMPDEST PUSH1 0x0 PUSH3 0x440 DUP3 PUSH3 0x55A JUMP JUMPDEST PUSH3 0x44C DUP2 DUP6 PUSH3 0x565 JUMP JUMPDEST SWAP4 POP PUSH3 0x45E DUP2 DUP6 PUSH1 0x20 DUP7 ADD PUSH3 0x5C3 JUMP JUMPDEST DUP1 DUP5 ADD SWAP2 POP POP SWAP3 SWAP2 POP POP JUMP JUMPDEST PUSH1 0x0 PUSH3 0x479 PUSH1 0x5 DUP4 PUSH3 0x570 JUMP JUMPDEST SWAP2 POP PUSH3 0x486 DUP3 PUSH3 0x6A2 JUMP JUMPDEST PUSH1 0x5 DUP3 ADD SWAP1 POP SWAP2 SWAP1 POP JUMP JUMPDEST PUSH1 0x0 PUSH3 0x4A0 PUSH1 0x3 DUP4 PUSH3 0x570 JUMP JUMPDEST SWAP2 POP PUSH3 0x4AD DUP3 PUSH3 0x6CB JUMP JUMPDEST PUSH1 0x3 DUP3 ADD SWAP1 POP SWAP2 SWAP1 POP JUMP JUMPDEST PUSH3 0x4CD PUSH3 0x4C7 DUP3 PUSH3 0x5B9 JUMP JUMPDEST PUSH3 0x657 JUMP JUMPDEST DUP3 MSTORE POP POP JUMP JUMPDEST PUSH1 0x0 PUSH3 0x4E1 DUP3 DUP5 PUSH3 0x433 JUMP JUMPDEST SWAP2 POP DUP2 SWAP1 POP SWAP3 SWAP2 POP POP JUMP JUMPDEST PUSH1 0x0 PUSH3 0x4F9 DUP3 PUSH3 0x46A JUMP JUMPDEST SWAP2 POP PUSH3 0x506 DUP3 PUSH3 0x491 JUMP JUMPDEST SWAP2 POP DUP2 SWAP1 POP SWAP2 SWAP1 POP JUMP JUMPDEST PUSH1 0x0 PUSH3 0x51D DUP3 PUSH3 0x46A JUMP JUMPDEST SWAP2 POP PUSH3 0x52A DUP3 PUSH3 0x491 JUMP JUMPDEST SWAP2 POP PUSH3 0x538 DUP3 DUP6 PUSH3 0x4B8 JUMP JUMPDEST PUSH1 0x20 DUP3 ADD SWAP2 POP PUSH3 0x54A DUP3 DUP5 PUSH3 0x418 JUMP JUMPDEST PUSH1 0x14 DUP3 ADD SWAP2 POP DUP2 SWAP1 POP SWAP4 SWAP3 POP POP POP JUMP JUMPDEST PUSH1 0x0 DUP2 MLOAD SWAP1 POP SWAP2 SWAP1 POP JUMP JUMPDEST PUSH1 0x0 DUP2 SWAP1 POP SWAP3 SWAP2 POP POP JUMP JUMPDEST PUSH1 0x0 DUP2 SWAP1 POP SWAP3 SWAP2 POP POP JUMP JUMPDEST PUSH1 0x0 PUSH3 0x588 DUP3 PUSH3 0x599 JUMP JUMPDEST SWAP1 POP SWAP2 SWAP1 POP JUMP JUMPDEST PUSH1 0x0 DUP2 SWAP1 POP SWAP2 SWAP1 POP JUMP JUMPDEST PUSH1 0x0 PUSH20 0xFFFFFFFFFFFFFFFFFFFFFFFFFFFFFFFFFFFFFFFF DUP3 AND SWAP1 POP SWAP2 SWAP1 POP JUMP JUMPDEST PUSH1 0x0 DUP2 SWAP1 POP SWAP2 SWAP1 POP JUMP JUMPDEST PUSH1 0x0 JUMPDEST DUP4 DUP2 LT ISZERO PUSH3 0x5E3 JUMPI DUP1 DUP3 ADD MLOAD DUP2 DUP5 ADD MSTORE PUSH1 0x20 DUP2 ADD SWAP1 POP PUSH3 0x5C6 JUMP JUMPDEST DUP4 DUP2 GT ISZERO PUSH3 0x5F3 JUMPI PUSH1 0x0 DUP5 DUP5 ADD MSTORE JUMPDEST POP POP POP POP JUMP JUMPDEST PUSH1 0x0 PUSH1 0x2 DUP3 DIV SWAP1 POP PUSH1 0x1 DUP3 AND DUP1 PUSH3 0x612 JUMPI PUSH1 0x7F DUP3 AND SWAP2 POP JUMPDEST PUSH1 0x20 DUP3 LT DUP2 EQ ISZERO PUSH3 0x629 JUMPI PUSH3 0x628 PUSH3 0x661 JUMP JUMPDEST JUMPDEST POP SWAP2 SWAP1 POP JUMP JUMPDEST PUSH1 0x0 PUSH3 0x63C DUP3 PUSH3 0x643 JUMP JUMPDEST SWAP1 POP SWAP2 SWAP1 POP JUMP JUMPDEST PUSH1 0x0 PUSH3 0x650 DUP3 PUSH3 0x695 JUMP JUMPDEST SWAP1 POP SWAP2 SWAP1 POP JUMP JUMPDEST PUSH1 0x0 DUP2 SWAP1 POP SWAP2 SWAP1 POP JUMP JUMPDEST PUSH32 0x4E487B7100000000000000000000000000000000000000000000000000000000 PUSH1 0x0 MSTORE PUSH1 0x22 PUSH1 0x4 MSTORE PUSH1 0x24 PUSH1 0x0 REVERT JUMPDEST PUSH1 0x0 DUP1 REVERT JUMPDEST PUSH1 0x0 DUP2 PUSH1 0x60 SHL SWAP1 POP SWAP2 SWAP1 POP JUMP JUMPDEST PUSH32 0x68656C6C6F000000000000000000000000000000000000000000000000000000 PUSH1 0x0 DUP3 ADD MSTORE POP JUMP JUMPDEST PUSH32 0x6C69610000000000000000000000000000000000000000000000000000000000 PUSH1 0x0 DUP3 ADD MSTORE POP JUMP JUMPDEST PUSH3 0x6FF DUP2 PUSH3 0x58F JUMP JUMPDEST DUP2 EQ PUSH3 0x70B JUMPI PUSH1 0x0 DUP1 REVERT JUMPDEST POP JUMP JUMPDEST PUSH2 0x697 DUP1 PUSH3 0x71E PUSH1 0x0 CODECOPY PUSH1 0x0 RETURN INVALID PUSH1 0x80 PUSH1 0x40 MSTORE CALLVALUE DUP1 ISZERO PUSH2 0x10 JUMPI PUSH1 0x0 DUP1 REVERT JUMPDEST POP PUSH1 0x4 CALLDATASIZE LT PUSH2 0xA9 JUMPI PUSH1 0x0 CALLDATALOAD PUSH1 0xE0 SHR DUP1 PUSH4 0x7A68EF7F GT PUSH2 0x71 JUMPI DUP1 PUSH4 0x7A68EF7F EQ PUSH2 0x144 JUMPI DUP1 PUSH4 0x7C3BAA18 EQ PUSH2 0x162 JUMPI DUP1 PUSH4 0xA2BDCC8C EQ PUSH2 0x16C JUMPI DUP1 PUSH4 0xAD0A93BC EQ PUSH2 0x176 JUMPI DUP1 PUSH4 0xC15BAE84 EQ PUSH2 0x194 JUMPI DUP1 PUSH4 0xC7109D04 EQ PUSH2 0x1B2 JUMPI PUSH2 0xA9 JUMP JUMPDEST DUP1 PUSH4 0x1216D176 EQ PUSH2 0xAE JUMPI DUP1 PUSH4 0x2B73648D EQ PUSH2 0xCC JUMPI DUP1 PUSH4 0x312A4C9C EQ PUSH2 0xEA JUMPI DUP1 PUSH4 0x4DF7E3D0 EQ PUSH2 0x108 JUMPI DUP1 PUSH4 0x7272EEA1 EQ PUSH2 0x126 JUMPI JUMPDEST PUSH1 0x0 DUP1 REVERT JUMPDEST PUSH2 0xB6 PUSH2 0x1D0 JUMP JUMPDEST PUSH1 0x40 MLOAD PUSH2 0xC3 SWAP2 SWAP1 PUSH2 0x3F3 JUMP JUMPDEST PUSH1 0x40 MLOAD DUP1 SWAP2 SUB SWAP1 RETURN JUMPDEST PUSH2 0xD4 PUSH2 0x1F6 JUMP JUMPDEST PUSH1 0x40 MLOAD PUSH2 0xE1 SWAP2 SWAP1 PUSH2 0x444 JUMP JUMPDEST PUSH1 0x40 MLOAD DUP1 SWAP2 SUB SWAP1 RETURN JUMPDEST PUSH2 0xF2 PUSH2 0x1FC JUMP JUMPDEST PUSH1 0x40 MLOAD PUSH2 0xFF SWAP2 SWAP1 PUSH2 0x40E JUMP JUMPDEST PUSH1 0x40 MLOAD DUP1 SWAP2 SUB SWAP1 RETURN JUMPDEST PUSH2 0x110 PUSH2 0x20F JUMP JUMPDEST PUSH1 0x40 MLOAD PUSH2 0x11D SWAP2 SWAP1 PUSH2 0x49C JUMP JUMPDEST PUSH1 0x40 MLOAD DUP1 SWAP2 SUB SWAP1 RETURN JUMPDEST PUSH2 0x12E PUSH2 0x222 JUMP JUMPDEST PUSH1 0x40 MLOAD PUSH2 0x13B SWAP2 SWAP1 PUSH2 0x45F JUMP JUMPDEST PUSH1 0x40 MLOAD DUP1 SWAP2 SUB SWAP1 RETURN JUMPDEST PUSH2 0x14C PUSH2 0x239 JUMP JUMPDEST PUSH1 0x40 MLOAD PUSH2 0x159 SWAP2 SWAP1 PUSH2 0x429 JUMP JUMPDEST PUSH1 0x40 MLOAD DUP1 SWAP2 SUB SWAP1 RETURN JUMPDEST PUSH2 0x16A PUSH2 0x24C JUMP JUMPDEST STOP JUMPDEST PUSH2 0x174 PUSH2 0x279 JUMP JUMPDEST STOP JUMPDEST PUSH2 0x17E PUSH2 0x2A6 JUMP JUMPDEST PUSH1 0x40 MLOAD PUSH2 0x18B SWAP2 SWAP1 PUSH2 0x3F3 JUMP JUMPDEST PUSH1 0x40 MLOAD DUP1 SWAP2 SUB SWAP1 RETURN JUMPDEST PUSH2 0x19C PUSH2 0x2CC JUMP JUMPDEST PUSH1 0x40 MLOAD PUSH2 0x1A9 SWAP2 SWAP1 PUSH2 0x47A JUMP JUMPDEST PUSH1 0x40 MLOAD DUP1 SWAP2 SUB SWAP1 RETURN JUMPDEST PUSH2 0x1BA PUSH2 0x35A JUMP JUMPDEST PUSH1 0x40 MLOAD PUSH2 0x1C7 SWAP2 SWAP1 PUSH2 0x444 JUMP JUMPDEST PUSH1 0x40 MLOAD DUP1 SWAP2 SUB SWAP1 RETURN JUMPDEST PUSH1 0xD PUSH1 0x0 SWAP1 SLOAD SWAP1 PUSH2 0x100 EXP SWAP1 DIV PUSH20 0xFFFFFFFFFFFFFFFFFFFFFFFFFFFFFFFFFFFFFFFF AND DUP2 JUMP JUMPDEST PUSH1 0x8 SLOAD DUP2 JUMP JUMPDEST PUSH1 0x6 PUSH1 0x0 SWAP1 SLOAD SWAP1 PUSH2 0x100 EXP SWAP1 DIV PUSH1 0xFF AND DUP2 JUMP JUMPDEST PUSH1 0x0 PUSH1 0x1 SWAP1 SLOAD SWAP1 PUSH2 0x100 EXP SWAP1 DIV PUSH1 0xFF AND DUP2 JUMP JUMPDEST PUSH1 0x0 PUSH1 0xD PUSH1 0x14 SWAP1 SLOAD SWAP1 PUSH2 0x100 EXP SWAP1 DIV PUSH1 0xFF AND SWAP1 POP SWAP1 JUMP JUMPDEST PUSH1 0xA PUSH1 0x0 SWAP1 SLOAD SWAP1 PUSH2 0x100 EXP SWAP1 DIV PUSH1 0x60 SHL DUP2 JUMP JUMPDEST PUSH1 0x1 PUSH1 0xD PUSH1 0x14 PUSH2 0x100 EXP DUP2 SLOAD DUP2 PUSH1 0xFF MUL NOT AND SWAP1 DUP4 PUSH1 0x1 DUP2 GT ISZERO PUSH2 0x272 JUMPI PUSH2 0x271 PUSH2 0x5DE JUMP JUMPDEST JUMPDEST MUL OR SWAP1 SSTORE POP JUMP JUMPDEST PUSH1 0x0 PUSH1 0xD PUSH1 0x14 PUSH2 0x100 EXP DUP2 SLOAD DUP2 PUSH1 0xFF MUL NOT AND SWAP1 DUP4 PUSH1 0x1 DUP2 GT ISZERO PUSH2 0x29F JUMPI PUSH2 0x29E PUSH2 0x5DE JUMP JUMPDEST JUMPDEST MUL OR SWAP1 SSTORE POP JUMP JUMPDEST PUSH1 0xC PUSH1 0x0 SWAP1 SLOAD SWAP1 PUSH2 0x100 EXP SWAP1 DIV PUSH20 0xFFFFFFFFFFFFFFFFFFFFFFFFFFFFFFFFFFFFFFFF AND DUP2 JUMP JUMPDEST PUSH1 0x4 DUP1 SLOAD PUSH2 0x2D9 SWAP1 PUSH2 0x5AC JUMP JUMPDEST DUP1 PUSH1 0x1F ADD PUSH1 0x20 DUP1 SWAP2 DIV MUL PUSH1 0x20 ADD PUSH1 0x40 MLOAD SWAP1 DUP2 ADD PUSH1 0x40 MSTORE DUP1 SWAP3 SWAP2 SWAP1 DUP2 DUP2 MSTORE PUSH1 0x20 ADD DUP3 DUP1 SLOAD PUSH2 0x305 SWAP1 PUSH2 0x5AC JUMP JUMPDEST DUP1 ISZERO PUSH2 0x352 JUMPI DUP1 PUSH1 0x1F LT PUSH2 0x327 JUMPI PUSH2 0x100 DUP1 DUP4 SLOAD DIV MUL DUP4 MSTORE SWAP2 PUSH1 0x20 ADD SWAP2 PUSH2 0x352 JUMP JUMPDEST DUP3 ADD SWAP2 SWAP1 PUSH1 0x0 MSTORE PUSH1 0x20 PUSH1 0x0 KECCAK256 SWAP1 JUMPDEST DUP2 SLOAD DUP2 MSTORE SWAP1 PUSH1 0x1 ADD SWAP1 PUSH1 0x20 ADD DUP1 DUP4 GT PUSH2 0x335 JUMPI DUP3 SWAP1 SUB PUSH1 0x1F AND DUP3 ADD SWAP2 JUMPDEST POP POP POP POP POP DUP2 JUMP JUMPDEST PUSH1 0x9 SLOAD DUP2 JUMP JUMPDEST PUSH2 0x369 DUP2 PUSH2 0x4D3 JUMP JUMPDEST DUP3 MSTORE POP POP JUMP JUMPDEST PUSH2 0x378 DUP2 PUSH2 0x4E5 JUMP JUMPDEST DUP3 MSTORE POP POP JUMP JUMPDEST PUSH2 0x387 DUP2 PUSH2 0x4F1 JUMP JUMPDEST DUP3 MSTORE POP POP JUMP JUMPDEST PUSH2 0x396 DUP2 PUSH2 0x51D JUMP JUMPDEST DUP3 MSTORE POP POP JUMP JUMPDEST PUSH2 0x3A5 DUP2 PUSH2 0x567 JUMP JUMPDEST DUP3 MSTORE POP POP JUMP JUMPDEST PUSH1 0x0 PUSH2 0x3B6 DUP3 PUSH2 0x4B7 JUMP JUMPDEST PUSH2 0x3C0 DUP2 DUP6 PUSH2 0x4C2 JUMP JUMPDEST SWAP4 POP PUSH2 0x3D0 DUP2 DUP6 PUSH1 0x20 DUP7 ADD PUSH2 0x579 JUMP JUMPDEST PUSH2 0x3D9 DUP2 PUSH2 0x63C JUMP JUMPDEST DUP5 ADD SWAP2 POP POP SWAP3 SWAP2 POP POP JUMP JUMPDEST PUSH2 0x3ED DUP2 PUSH2 0x55A JUMP JUMPDEST DUP3 MSTORE POP POP JUMP JUMPDEST PUSH1 0x0 PUSH1 0x20 DUP3 ADD SWAP1 POP PUSH2 0x408 PUSH1 0x0 DUP4 ADD DUP5 PUSH2 0x360 JUMP JUMPDEST SWAP3 SWAP2 POP POP JUMP JUMPDEST PUSH1 0x0 PUSH1 0x20 DUP3 ADD SWAP1 POP PUSH2 0x423 PUSH1 0x0 DUP4 ADD DUP5 PUSH2 0x36F JUMP JUMPDEST SWAP3 SWAP2 POP POP JUMP JUMPDEST PUSH1 0x0 PUSH1 0x20 DUP3 ADD SWAP1 POP PUSH2 0x43E PUSH1 0x0 DUP4 ADD DUP5 PUSH2 0x37E JUMP JUMPDEST SWAP3 SWAP2 POP POP JUMP JUMPDEST PUSH1 0x0 PUSH1 0x20 DUP3 ADD SWAP1 POP PUSH2 0x459 PUSH1 0x0 DUP4 ADD DUP5 PUSH2 0x38D JUMP JUMPDEST SWAP3 SWAP2 POP POP JUMP JUMPDEST PUSH1 0x0 PUSH1 0x20 DUP3 ADD SWAP1 POP PUSH2 0x474 PUSH1 0x0 DUP4 ADD DUP5 PUSH2 0x39C JUMP JUMPDEST SWAP3 SWAP2 POP POP JUMP JUMPDEST PUSH1 0x0 PUSH1 0x20 DUP3 ADD SWAP1 POP DUP2 DUP2 SUB PUSH1 0x0 DUP4 ADD MSTORE PUSH2 0x494 DUP2 DUP5 PUSH2 0x3AB JUMP JUMPDEST SWAP1 POP SWAP3 SWAP2 POP POP JUMP JUMPDEST PUSH1 0x0 PUSH1 0x20 DUP3 ADD SWAP1 POP PUSH2 0x4B1 PUSH1 0x0 DUP4 ADD DUP5 PUSH2 0x3E4 JUMP JUMPDEST SWAP3 SWAP2 POP POP JUMP JUMPDEST PUSH1 0x0 DUP2 MLOAD SWAP1 POP SWAP2 SWAP1 POP JUMP JUMPDEST PUSH1 0x0 DUP3 DUP3 MSTORE PUSH1 0x20 DUP3 ADD SWAP1 POP SWAP3 SWAP2 POP POP JUMP JUMPDEST PUSH1 0x0 PUSH2 0x4DE DUP3 PUSH2 0x53A JUMP JUMPDEST SWAP1 POP SWAP2 SWAP1 POP JUMP JUMPDEST PUSH1 0x0 DUP2 ISZERO ISZERO SWAP1 POP SWAP2 SWAP1 POP JUMP JUMPDEST PUSH1 0x0 PUSH32 0xFFFFFFFFFFFFFFFFFFFFFFFFFFFFFFFFFFFFFFFF000000000000000000000000 DUP3 AND SWAP1 POP SWAP2 SWAP1 POP JUMP JUMPDEST PUSH1 0x0 DUP2 SWAP1 POP SWAP2 SWAP1 POP JUMP JUMPDEST PUSH1 0x0 DUP2 SWAP1 POP PUSH2 0x535 DUP3 PUSH2 0x64D JUMP JUMPDEST SWAP2 SWAP1 POP JUMP JUMPDEST PUSH1 0x0 PUSH20 0xFFFFFFFFFFFFFFFFFFFFFFFFFFFFFFFFFFFFFFFF DUP3 AND SWAP1 POP SWAP2 SWAP1 POP JUMP JUMPDEST PUSH1 0x0 PUSH1 0xFF DUP3 AND SWAP1 POP SWAP2 SWAP1 POP JUMP JUMPDEST PUSH1 0x0 PUSH2 0x572 DUP3 PUSH2 0x527 JUMP JUMPDEST SWAP1 POP SWAP2 SWAP1 POP JUMP JUMPDEST PUSH1 0x0 JUMPDEST DUP4 DUP2 LT ISZERO PUSH2 0x597 JUMPI DUP1 DUP3 ADD MLOAD DUP2 DUP5 ADD MSTORE PUSH1 0x20 DUP2 ADD SWAP1 POP PUSH2 0x57C JUMP JUMPDEST DUP4 DUP2 GT ISZERO PUSH2 0x5A6 JUMPI PUSH1 0x0 DUP5 DUP5 ADD MSTORE JUMPDEST POP POP POP POP JUMP JUMPDEST PUSH1 0x0 PUSH1 0x2 DUP3 DIV SWAP1 POP PUSH1 0x1 DUP3 AND DUP1 PUSH2 0x5C4 JUMPI PUSH1 0x7F DUP3 AND SWAP2 POP JUMPDEST PUSH1 0x20 DUP3 LT DUP2 EQ ISZERO PUSH2 0x5D8 JUMPI PUSH2 0x5D7 PUSH2 0x60D JUMP JUMPDEST JUMPDEST POP SWAP2 SWAP1 POP JUMP JUMPDEST PUSH32 0x4E487B7100000000000000000000000000000000000000000000000000000000 PUSH1 0x0 MSTORE PUSH1 0x21 PUSH1 0x4 MSTORE PUSH1 0x24 PUSH1 0x0 REVERT JUMPDEST PUSH32 0x4E487B7100000000000000000000000000000000000000000000000000000000 PUSH1 0x0 MSTORE PUSH1 0x22 PUSH1 0x4 MSTORE PUSH1 0x24 PUSH1 0x0 REVERT JUMPDEST PUSH1 0x0 PUSH1 0x1F NOT PUSH1 0x1F DUP4 ADD AND SWAP1 POP SWAP2 SWAP1 POP JUMP JUMPDEST PUSH1 0x2 DUP2 LT PUSH2 0x65E JUMPI PUSH2 0x65D PUSH2 0x5DE JUMP JUMPDEST JUMPDEST POP JUMP INVALID LOG2 PUSH5 0x6970667358 0x22 SLT KECCAK256 0xE4 0x2C SELFBALANCE JUMPDEST 0xDD 0xD5 0xD8 0xD6 SELFDESTRUCT SWAP7 0xCA 0x23 PUSH15 0x5DDF7574293E5F95681B6F9E741046 0xC1 0xC3 SDIV RETURNDATACOPY PUSH5 0x736F6C6343 STOP ADDMOD SMOD STOP CALLER "
				},
				"gasEstimates": {
					"creation": {
						"codeDepositCost": "337400",
						"executionCost": "infinite",
						"totalCost": "infinite"
					},
					"external": {
						"_true()": "2516",
						"address_1()": "2580",
						"address_2()": "2515",
						"b()": "2588",
						"displayState()": "2707",
						"hashing_keccak256()": "2452",
						"hashing_ripemd160()": "2471",
						"hashing_sha256()": "2539",
						"str()": "infinite",
						"trueOFF()": "24503",
						"trueOn()": "24525"
					}
				},
				"methodIdentifiers": {
					"_true()": "312a4c9c",
					"address_1()": "ad0a93bc",
					"address_2()": "1216d176",
					"b()": "4df7e3d0",
					"displayState()": "7272eea1",
					"hashing_keccak256()": "2b73648d",
					"hashing_ripemd160()": "7a68ef7f",
					"hashing_sha256()": "c7109d04",
					"str()": "c15bae84",
					"trueOFF()": "7c3baa18",
					"trueOn()": "a2bdcc8c"
				}
			},
			"storageLayout": {
				"storage": [
					{
						"astId": 3,
						"contract": "Contracts/tiposVariable.sol:Variables_modifiers",
						"label": "a",
						"offset": 0,
						"slot": "0",
						"type": "t_uint8"
					},
					{
						"astId": 6,
						"contract": "Contracts/tiposVariable.sol:Variables_modifiers",
						"label": "b",
						"offset": 1,
						"slot": "0",
						"type": "t_uint8"
					},
					{
						"astId": 8,
						"contract": "Contracts/tiposVariable.sol:Variables_modifiers",
						"label": "c",
						"offset": 0,
						"slot": "1",
						"type": "t_int256"
					},
					{
						"astId": 12,
						"contract": "Contracts/tiposVariable.sol:Variables_modifiers",
						"label": "d",
						"offset": 0,
						"slot": "2",
						"type": "t_int8"
					},
					{
						"astId": 15,
						"contract": "Contracts/tiposVariable.sol:Variables_modifiers",
						"label": "e",
						"offset": 0,
						"slot": "3",
						"type": "t_int256"
					},
					{
						"astId": 18,
						"contract": "Contracts/tiposVariable.sol:Variables_modifiers",
						"label": "str",
						"offset": 0,
						"slot": "4",
						"type": "t_string_storage"
					},
					{
						"astId": 21,
						"contract": "Contracts/tiposVariable.sol:Variables_modifiers",
						"label": "str1",
						"offset": 0,
						"slot": "5",
						"type": "t_string_storage"
					},
					{
						"astId": 24,
						"contract": "Contracts/tiposVariable.sol:Variables_modifiers",
						"label": "_true",
						"offset": 0,
						"slot": "6",
						"type": "t_bool"
					},
					{
						"astId": 27,
						"contract": "Contracts/tiposVariable.sol:Variables_modifiers",
						"label": "_false",
						"offset": 1,
						"slot": "6",
						"type": "t_bool"
					},
					{
						"astId": 29,
						"contract": "Contracts/tiposVariable.sol:Variables_modifiers",
						"label": "first_byte",
						"offset": 0,
						"slot": "7",
						"type": "t_bytes_storage"
					},
					{
						"astId": 43,
						"contract": "Contracts/tiposVariable.sol:Variables_modifiers",
						"label": "hashing_keccak256",
						"offset": 0,
						"slot": "8",
						"type": "t_bytes32"
					},
					{
						"astId": 52,
						"contract": "Contracts/tiposVariable.sol:Variables_modifiers",
						"label": "hashing_sha256",
						"offset": 0,
						"slot": "9",
						"type": "t_bytes32"
					},
					{
						"astId": 61,
						"contract": "Contracts/tiposVariable.sol:Variables_modifiers",
						"label": "hashing_ripemd160",
						"offset": 0,
						"slot": "10",
						"type": "t_bytes20"
					},
					{
						"astId": 63,
						"contract": "Contracts/tiposVariable.sol:Variables_modifiers",
						"label": "my_address",
						"offset": 0,
						"slot": "11",
						"type": "t_address"
					},
					{
						"astId": 66,
						"contract": "Contracts/tiposVariable.sol:Variables_modifiers",
						"label": "address_1",
						"offset": 0,
						"slot": "12",
						"type": "t_address"
					},
					{
						"astId": 70,
						"contract": "Contracts/tiposVariable.sol:Variables_modifiers",
						"label": "address_2",
						"offset": 0,
						"slot": "13",
						"type": "t_address"
					},
					{
						"astId": 76,
						"contract": "Contracts/tiposVariable.sol:Variables_modifiers",
						"label": "state",
						"offset": 20,
						"slot": "13",
						"type": "t_enum(options)73"
					}
				],
				"types": {
					"t_address": {
						"encoding": "inplace",
						"label": "address",
						"numberOfBytes": "20"
					},
					"t_bool": {
						"encoding": "inplace",
						"label": "bool",
						"numberOfBytes": "1"
					},
					"t_bytes20": {
						"encoding": "inplace",
						"label": "bytes20",
						"numberOfBytes": "20"
					},
					"t_bytes32": {
						"encoding": "inplace",
						"label": "bytes32",
						"numberOfBytes": "32"
					},
					"t_bytes_storage": {
						"encoding": "bytes",
						"label": "bytes",
						"numberOfBytes": "32"
					},
					"t_enum(options)73": {
						"encoding": "inplace",
						"label": "enum Variables_modifiers.options",
						"numberOfBytes": "1"
					},
					"t_int256": {
						"encoding": "inplace",
						"label": "int256",
						"numberOfBytes": "32"
					},
					"t_int8": {
						"encoding": "inplace",
						"label": "int8",
						"numberOfBytes": "1"
					},
					"t_string_storage": {
						"encoding": "bytes",
						"label": "string",
						"numberOfBytes": "32"
					},
					"t_uint8": {
						"encoding": "inplace",
						"label": "uint8",
						"numberOfBytes": "1"
					}
				}
			},
			"userdoc": {
				"kind": "user",
				"methods": {},
				"version": 1
			}
		}
	}
}