{
	"Contracts/funcionPayable.sol": {
		"ethSend": {
			"abi": [
				{
					"inputs": [],
					"stateMutability": "payable",
					"type": "constructor"
				},
				{
					"anonymous": false,
					"inputs": [
						{
							"indexed": false,
							"internalType": "bool",
							"name": "",
							"type": "bool"
						},
						{
							"indexed": false,
							"internalType": "bytes",
							"name": "",
							"type": "bytes"
						}
					],
					"name": "callStatus",
					"type": "event"
				},
				{
					"anonymous": false,
					"inputs": [
						{
							"indexed": false,
							"internalType": "bool",
							"name": "",
							"type": "bool"
						}
					],
					"name": "sendStatus",
					"type": "event"
				},
				{
					"inputs": [
						{
							"internalType": "address payable",
							"name": "_to",
							"type": "address"
						}
					],
					"name": "sendCall",
					"outputs": [],
					"stateMutability": "payable",
					"type": "function"
				},
				{
					"inputs": [
						{
							"internalType": "address payable",
							"name": "_to",
							"type": "address"
						}
					],
					"name": "sendViaSend",
					"outputs": [],
					"stateMutability": "payable",
					"type": "function"
				},
				{
					"inputs": [
						{
							"internalType": "address payable",
							"name": "_to",
							"type": "address"
						}
					],
					"name": "sendViaTransfer",
					"outputs": [],
					"stateMutability": "payable",
					"type": "function"
				},
				{
					"stateMutability": "payable",
					"type": "receive"
				}
			],
			"devdoc": {
				"kind": "dev",
				"methods": {},
				"version": 1
			},
			"evm": {
				"assembly": "    /* \"Contracts/funcionPayable.sol\":83:684  contract ethSend {\r... */\n  mstore(0x40, 0x80)\n  dataSize(sub_0)\n  dup1\n  dataOffset(sub_0)\n  0x00\n  codecopy\n  0x00\n  return\nstop\n\nsub_0: assembly {\n        /* \"Contracts/funcionPayable.sol\":83:684  contract ethSend {\r... */\n      mstore(0x40, 0x80)\n      jumpi(tag_1, lt(calldatasize, 0x04))\n      shr(0xe0, calldataload(0x00))\n      dup1\n      0x636e082b\n      eq\n      tag_3\n      jumpi\n      dup1\n      0x71369d5c\n      eq\n      tag_4\n      jumpi\n      dup1\n      0x74be4806\n      eq\n      tag_5\n      jumpi\n      jump(tag_2)\n    tag_1:\n      jumpi(tag_2, calldatasize)\n      stop\n    tag_2:\n      0x00\n      dup1\n      revert\n        /* \"Contracts/funcionPayable.sol\":243:343  function sendViaTransfer(address payable _to) public payable {\r... */\n    tag_3:\n      tag_8\n      0x04\n      dup1\n      calldatasize\n      sub\n      dup2\n      add\n      swap1\n      tag_9\n      swap2\n      swap1\n      tag_10\n      jump\t// in\n    tag_9:\n      tag_11\n      jump\t// in\n    tag_8:\n      stop\n        /* \"Contracts/funcionPayable.sol\":539:681  function sendCall(address payable _to) public payable {\r... */\n    tag_4:\n      tag_12\n      0x04\n      dup1\n      calldatasize\n      sub\n      dup2\n      add\n      swap1\n      tag_13\n      swap2\n      swap1\n      tag_10\n      jump\t// in\n    tag_13:\n      tag_14\n      jump\t// in\n    tag_12:\n      stop\n        /* \"Contracts/funcionPayable.sol\":349:533  function sendViaSend(address payable _to) public payable {\r... */\n    tag_5:\n      tag_15\n      0x04\n      dup1\n      calldatasize\n      sub\n      dup2\n      add\n      swap1\n      tag_16\n      swap2\n      swap1\n      tag_10\n      jump\t// in\n    tag_16:\n      tag_17\n      jump\t// in\n    tag_15:\n      stop\n        /* \"Contracts/funcionPayable.sol\":243:343  function sendViaTransfer(address payable _to) public payable {\r... */\n    tag_11:\n        /* \"Contracts/funcionPayable.sol\":314:317  _to */\n      dup1\n        /* \"Contracts/funcionPayable.sol\":314:326  _to.transfer */\n      0xffffffffffffffffffffffffffffffffffffffff\n      and\n        /* \"Contracts/funcionPayable.sol\":314:335  _to.transfer(1 ether) */\n      0x08fc\n        /* \"Contracts/funcionPayable.sol\":327:334  1 ether */\n      0x0de0b6b3a7640000\n        /* \"Contracts/funcionPayable.sol\":314:335  _to.transfer(1 ether) */\n      swap1\n      dup2\n      iszero\n      mul\n      swap1\n      mload(0x40)\n      0x00\n      mload(0x40)\n      dup1\n      dup4\n      sub\n      dup2\n      dup6\n      dup9\n      dup9\n      call\n      swap4\n      pop\n      pop\n      pop\n      pop\n      iszero\n      dup1\n      iszero\n      tag_20\n      jumpi\n      returndatasize\n      0x00\n      dup1\n      returndatacopy\n      revert(0x00, returndatasize)\n    tag_20:\n      pop\n        /* \"Contracts/funcionPayable.sol\":243:343  function sendViaTransfer(address payable _to) public payable {\r... */\n      pop\n      jump\t// out\n        /* \"Contracts/funcionPayable.sol\":539:681  function sendCall(address payable _to) public payable {\r... */\n    tag_14:\n        /* \"Contracts/funcionPayable.sol\":605:616  bool succes */\n      0x00\n        /* \"Contracts/funcionPayable.sol\":618:635  bytes memory data */\n      dup1\n        /* \"Contracts/funcionPayable.sol\":639:642  _to */\n      dup3\n        /* \"Contracts/funcionPayable.sol\":639:647  _to.call */\n      0xffffffffffffffffffffffffffffffffffffffff\n      and\n        /* \"Contracts/funcionPayable.sol\":655:662  1 ether */\n      0x0de0b6b3a7640000\n        /* \"Contracts/funcionPayable.sol\":639:667  _to.call{value: 1 ether}(\"\") */\n      mload(0x40)\n      tag_22\n      swap1\n      tag_23\n      jump\t// in\n    tag_22:\n      0x00\n      mload(0x40)\n      dup1\n      dup4\n      sub\n      dup2\n      dup6\n      dup8\n      gas\n      call\n      swap3\n      pop\n      pop\n      pop\n      returndatasize\n      dup1\n      0x00\n      dup2\n      eq\n      tag_26\n      jumpi\n      mload(0x40)\n      swap2\n      pop\n      and(add(returndatasize, 0x3f), not(0x1f))\n      dup3\n      add\n      0x40\n      mstore\n      returndatasize\n      dup3\n      mstore\n      returndatasize\n      0x00\n      0x20\n      dup5\n      add\n      returndatacopy\n      jump(tag_25)\n    tag_26:\n      0x60\n      swap2\n      pop\n    tag_25:\n      pop\n        /* \"Contracts/funcionPayable.sol\":604:667  (bool succes, bytes memory data) = _to.call{value: 1 ether}(\"\") */\n      swap2\n      pop\n      swap2\n      pop\n        /* \"Contracts/funcionPayable.sol\":593:681  {\r... */\n      pop\n      pop\n        /* \"Contracts/funcionPayable.sol\":539:681  function sendCall(address payable _to) public payable {\r... */\n      pop\n      jump\t// out\n        /* \"Contracts/funcionPayable.sol\":349:533  function sendViaSend(address payable _to) public payable {\r... */\n    tag_17:\n        /* \"Contracts/funcionPayable.sol\":418:427  bool sent */\n      0x00\n        /* \"Contracts/funcionPayable.sol\":430:433  _to */\n      dup2\n        /* \"Contracts/funcionPayable.sol\":430:438  _to.send */\n      0xffffffffffffffffffffffffffffffffffffffff\n      and\n        /* \"Contracts/funcionPayable.sol\":430:447  _to.send(1 ether) */\n      0x08fc\n        /* \"Contracts/funcionPayable.sol\":439:446  1 ether */\n      0x0de0b6b3a7640000\n        /* \"Contracts/funcionPayable.sol\":430:447  _to.send(1 ether) */\n      swap1\n      dup2\n      iszero\n      mul\n      swap1\n      mload(0x40)\n      0x00\n      mload(0x40)\n      dup1\n      dup4\n      sub\n      dup2\n      dup6\n      dup9\n      dup9\n      call\n      swap4\n      pop\n      pop\n      pop\n      pop\n        /* \"Contracts/funcionPayable.sol\":418:447  bool sent = _to.send(1 ether) */\n      swap1\n      pop\n        /* \"Contracts/funcionPayable.sol\":463:479  sendStatus(sent) */\n      0x0c46a72a145bed1fc3c2d4b0e023bd11ddb1e3204a898f4119357ecde6d5fe99\n        /* \"Contracts/funcionPayable.sol\":474:478  sent */\n      dup2\n        /* \"Contracts/funcionPayable.sol\":463:479  sendStatus(sent) */\n      mload(0x40)\n      tag_29\n      swap2\n      swap1\n      tag_30\n      jump\t// in\n    tag_29:\n      mload(0x40)\n      dup1\n      swap2\n      sub\n      swap1\n      log1\n        /* \"Contracts/funcionPayable.sol\":506:510  true */\n      0x01\n        /* \"Contracts/funcionPayable.sol\":498:510  sent == true */\n      iszero\n      iszero\n        /* \"Contracts/funcionPayable.sol\":498:502  sent */\n      dup2\n        /* \"Contracts/funcionPayable.sol\":498:510  sent == true */\n      iszero\n      iszero\n      eq\n        /* \"Contracts/funcionPayable.sol\":490:525  require(sent == true, \"ha fallado\") */\n      tag_31\n      jumpi\n      mload(0x40)\n      0x08c379a000000000000000000000000000000000000000000000000000000000\n      dup2\n      mstore\n      0x04\n      add\n      tag_32\n      swap1\n      tag_33\n      jump\t// in\n    tag_32:\n      mload(0x40)\n      dup1\n      swap2\n      sub\n      swap1\n      revert\n    tag_31:\n        /* \"Contracts/funcionPayable.sol\":406:533  {\r... */\n      pop\n        /* \"Contracts/funcionPayable.sol\":349:533  function sendViaSend(address payable _to) public payable {\r... */\n      pop\n      jump\t// out\n        /* \"#utility.yul\":7:162   */\n    tag_35:\n        /* \"#utility.yul\":61:66   */\n      0x00\n        /* \"#utility.yul\":99:105   */\n      dup2\n        /* \"#utility.yul\":86:106   */\n      calldataload\n        /* \"#utility.yul\":77:106   */\n      swap1\n      pop\n        /* \"#utility.yul\":115:156   */\n      tag_37\n        /* \"#utility.yul\":150:155   */\n      dup2\n        /* \"#utility.yul\":115:156   */\n      tag_38\n      jump\t// in\n    tag_37:\n        /* \"#utility.yul\":7:162   */\n      swap3\n      swap2\n      pop\n      pop\n      jump\t// out\n        /* \"#utility.yul\":168:513   */\n    tag_10:\n        /* \"#utility.yul\":235:241   */\n      0x00\n        /* \"#utility.yul\":284:286   */\n      0x20\n        /* \"#utility.yul\":272:281   */\n      dup3\n        /* \"#utility.yul\":263:270   */\n      dup5\n        /* \"#utility.yul\":259:282   */\n      sub\n        /* \"#utility.yul\":255:287   */\n      slt\n        /* \"#utility.yul\":252:371   */\n      iszero\n      tag_40\n      jumpi\n        /* \"#utility.yul\":290:369   */\n      tag_41\n      tag_42\n      jump\t// in\n    tag_41:\n        /* \"#utility.yul\":252:371   */\n    tag_40:\n        /* \"#utility.yul\":410:411   */\n      0x00\n        /* \"#utility.yul\":435:496   */\n      tag_43\n        /* \"#utility.yul\":488:495   */\n      dup5\n        /* \"#utility.yul\":479:485   */\n      dup3\n        /* \"#utility.yul\":468:477   */\n      dup6\n        /* \"#utility.yul\":464:486   */\n      add\n        /* \"#utility.yul\":435:496   */\n      tag_35\n      jump\t// in\n    tag_43:\n        /* \"#utility.yul\":425:496   */\n      swap2\n      pop\n        /* \"#utility.yul\":381:506   */\n      pop\n        /* \"#utility.yul\":168:513   */\n      swap3\n      swap2\n      pop\n      pop\n      jump\t// out\n        /* \"#utility.yul\":519:628   */\n    tag_44:\n        /* \"#utility.yul\":600:621   */\n      tag_46\n        /* \"#utility.yul\":615:620   */\n      dup2\n        /* \"#utility.yul\":600:621   */\n      tag_47\n      jump\t// in\n    tag_46:\n        /* \"#utility.yul\":595:598   */\n      dup3\n        /* \"#utility.yul\":588:622   */\n      mstore\n        /* \"#utility.yul\":519:628   */\n      pop\n      pop\n      jump\t// out\n        /* \"#utility.yul\":634:1000   */\n    tag_48:\n        /* \"#utility.yul\":776:779   */\n      0x00\n        /* \"#utility.yul\":797:864   */\n      tag_50\n        /* \"#utility.yul\":861:863   */\n      0x0a\n        /* \"#utility.yul\":856:859   */\n      dup4\n        /* \"#utility.yul\":797:864   */\n      tag_51\n      jump\t// in\n    tag_50:\n        /* \"#utility.yul\":790:864   */\n      swap2\n      pop\n        /* \"#utility.yul\":873:966   */\n      tag_52\n        /* \"#utility.yul\":962:965   */\n      dup3\n        /* \"#utility.yul\":873:966   */\n      tag_53\n      jump\t// in\n    tag_52:\n        /* \"#utility.yul\":991:993   */\n      0x20\n        /* \"#utility.yul\":986:989   */\n      dup3\n        /* \"#utility.yul\":982:994   */\n      add\n        /* \"#utility.yul\":975:994   */\n      swap1\n      pop\n        /* \"#utility.yul\":634:1000   */\n      swap2\n      swap1\n      pop\n      jump\t// out\n        /* \"#utility.yul\":1006:1404   */\n    tag_54:\n        /* \"#utility.yul\":1165:1168   */\n      0x00\n        /* \"#utility.yul\":1186:1269   */\n      tag_56\n        /* \"#utility.yul\":1267:1268   */\n      0x00\n        /* \"#utility.yul\":1262:1265   */\n      dup4\n        /* \"#utility.yul\":1186:1269   */\n      tag_57\n      jump\t// in\n    tag_56:\n        /* \"#utility.yul\":1179:1269   */\n      swap2\n      pop\n        /* \"#utility.yul\":1278:1371   */\n      tag_58\n        /* \"#utility.yul\":1367:1370   */\n      dup3\n        /* \"#utility.yul\":1278:1371   */\n      tag_59\n      jump\t// in\n    tag_58:\n        /* \"#utility.yul\":1396:1397   */\n      0x00\n        /* \"#utility.yul\":1391:1394   */\n      dup3\n        /* \"#utility.yul\":1387:1398   */\n      add\n        /* \"#utility.yul\":1380:1398   */\n      swap1\n      pop\n        /* \"#utility.yul\":1006:1404   */\n      swap2\n      swap1\n      pop\n      jump\t// out\n        /* \"#utility.yul\":1410:1789   */\n    tag_23:\n        /* \"#utility.yul\":1594:1597   */\n      0x00\n        /* \"#utility.yul\":1616:1763   */\n      tag_61\n        /* \"#utility.yul\":1759:1762   */\n      dup3\n        /* \"#utility.yul\":1616:1763   */\n      tag_54\n      jump\t// in\n    tag_61:\n        /* \"#utility.yul\":1609:1763   */\n      swap2\n      pop\n        /* \"#utility.yul\":1780:1783   */\n      dup2\n        /* \"#utility.yul\":1773:1783   */\n      swap1\n      pop\n        /* \"#utility.yul\":1410:1789   */\n      swap2\n      swap1\n      pop\n      jump\t// out\n        /* \"#utility.yul\":1795:2005   */\n    tag_30:\n        /* \"#utility.yul\":1882:1886   */\n      0x00\n        /* \"#utility.yul\":1920:1922   */\n      0x20\n        /* \"#utility.yul\":1909:1918   */\n      dup3\n        /* \"#utility.yul\":1905:1923   */\n      add\n        /* \"#utility.yul\":1897:1923   */\n      swap1\n      pop\n        /* \"#utility.yul\":1933:1998   */\n      tag_63\n        /* \"#utility.yul\":1995:1996   */\n      0x00\n        /* \"#utility.yul\":1984:1993   */\n      dup4\n        /* \"#utility.yul\":1980:1997   */\n      add\n        /* \"#utility.yul\":1971:1977   */\n      dup5\n        /* \"#utility.yul\":1933:1998   */\n      tag_44\n      jump\t// in\n    tag_63:\n        /* \"#utility.yul\":1795:2005   */\n      swap3\n      swap2\n      pop\n      pop\n      jump\t// out\n        /* \"#utility.yul\":2011:2430   */\n    tag_33:\n        /* \"#utility.yul\":2177:2181   */\n      0x00\n        /* \"#utility.yul\":2215:2217   */\n      0x20\n        /* \"#utility.yul\":2204:2213   */\n      dup3\n        /* \"#utility.yul\":2200:2218   */\n      add\n        /* \"#utility.yul\":2192:2218   */\n      swap1\n      pop\n        /* \"#utility.yul\":2264:2273   */\n      dup2\n        /* \"#utility.yul\":2258:2262   */\n      dup2\n        /* \"#utility.yul\":2254:2274   */\n      sub\n        /* \"#utility.yul\":2250:2251   */\n      0x00\n        /* \"#utility.yul\":2239:2248   */\n      dup4\n        /* \"#utility.yul\":2235:2252   */\n      add\n        /* \"#utility.yul\":2228:2275   */\n      mstore\n        /* \"#utility.yul\":2292:2423   */\n      tag_65\n        /* \"#utility.yul\":2418:2422   */\n      dup2\n        /* \"#utility.yul\":2292:2423   */\n      tag_48\n      jump\t// in\n    tag_65:\n        /* \"#utility.yul\":2284:2423   */\n      swap1\n      pop\n        /* \"#utility.yul\":2011:2430   */\n      swap2\n      swap1\n      pop\n      jump\t// out\n        /* \"#utility.yul\":2517:2664   */\n    tag_57:\n        /* \"#utility.yul\":2618:2629   */\n      0x00\n        /* \"#utility.yul\":2655:2658   */\n      dup2\n        /* \"#utility.yul\":2640:2658   */\n      swap1\n      pop\n        /* \"#utility.yul\":2517:2664   */\n      swap3\n      swap2\n      pop\n      pop\n      jump\t// out\n        /* \"#utility.yul\":2670:2839   */\n    tag_51:\n        /* \"#utility.yul\":2754:2765   */\n      0x00\n        /* \"#utility.yul\":2788:2794   */\n      dup3\n        /* \"#utility.yul\":2783:2786   */\n      dup3\n        /* \"#utility.yul\":2776:2795   */\n      mstore\n        /* \"#utility.yul\":2828:2832   */\n      0x20\n        /* \"#utility.yul\":2823:2826   */\n      dup3\n        /* \"#utility.yul\":2819:2833   */\n      add\n        /* \"#utility.yul\":2804:2833   */\n      swap1\n      pop\n        /* \"#utility.yul\":2670:2839   */\n      swap3\n      swap2\n      pop\n      pop\n      jump\t// out\n        /* \"#utility.yul\":2845:2949   */\n    tag_70:\n        /* \"#utility.yul\":2890:2897   */\n      0x00\n        /* \"#utility.yul\":2919:2943   */\n      tag_72\n        /* \"#utility.yul\":2937:2942   */\n      dup3\n        /* \"#utility.yul\":2919:2943   */\n      tag_73\n      jump\t// in\n    tag_72:\n        /* \"#utility.yul\":2908:2943   */\n      swap1\n      pop\n        /* \"#utility.yul\":2845:2949   */\n      swap2\n      swap1\n      pop\n      jump\t// out\n        /* \"#utility.yul\":2955:3045   */\n    tag_47:\n        /* \"#utility.yul\":2989:2996   */\n      0x00\n        /* \"#utility.yul\":3032:3037   */\n      dup2\n        /* \"#utility.yul\":3025:3038   */\n      iszero\n        /* \"#utility.yul\":3018:3039   */\n      iszero\n        /* \"#utility.yul\":3007:3039   */\n      swap1\n      pop\n        /* \"#utility.yul\":2955:3045   */\n      swap2\n      swap1\n      pop\n      jump\t// out\n        /* \"#utility.yul\":3051:3177   */\n    tag_73:\n        /* \"#utility.yul\":3088:3095   */\n      0x00\n        /* \"#utility.yul\":3128:3170   */\n      0xffffffffffffffffffffffffffffffffffffffff\n        /* \"#utility.yul\":3121:3126   */\n      dup3\n        /* \"#utility.yul\":3117:3171   */\n      and\n        /* \"#utility.yul\":3106:3171   */\n      swap1\n      pop\n        /* \"#utility.yul\":3051:3177   */\n      swap2\n      swap1\n      pop\n      jump\t// out\n        /* \"#utility.yul\":3306:3423   */\n    tag_42:\n        /* \"#utility.yul\":3415:3416   */\n      0x00\n        /* \"#utility.yul\":3412:3413   */\n      dup1\n        /* \"#utility.yul\":3405:3417   */\n      revert\n        /* \"#utility.yul\":3429:3589   */\n    tag_53:\n        /* \"#utility.yul\":3569:3581   */\n      0x68612066616c6c61646f00000000000000000000000000000000000000000000\n        /* \"#utility.yul\":3565:3566   */\n      0x00\n        /* \"#utility.yul\":3557:3563   */\n      dup3\n        /* \"#utility.yul\":3553:3567   */\n      add\n        /* \"#utility.yul\":3546:3582   */\n      mstore\n        /* \"#utility.yul\":3429:3589   */\n      pop\n      jump\t// out\n        /* \"#utility.yul\":3595:3709   */\n    tag_59:\n      pop\n      jump\t// out\n        /* \"#utility.yul\":3715:3853   */\n    tag_38:\n        /* \"#utility.yul\":3796:3828   */\n      tag_82\n        /* \"#utility.yul\":3822:3827   */\n      dup2\n        /* \"#utility.yul\":3796:3828   */\n      tag_70\n      jump\t// in\n    tag_82:\n        /* \"#utility.yul\":3789:3794   */\n      dup2\n        /* \"#utility.yul\":3786:3829   */\n      eq\n        /* \"#utility.yul\":3776:3847   */\n      tag_83\n      jumpi\n        /* \"#utility.yul\":3843:3844   */\n      0x00\n        /* \"#utility.yul\":3840:3841   */\n      dup1\n        /* \"#utility.yul\":3833:3845   */\n      revert\n        /* \"#utility.yul\":3776:3847   */\n    tag_83:\n        /* \"#utility.yul\":3715:3853   */\n      pop\n      jump\t// out\n\n    auxdata: 0xa2646970667358221220db3b46c8691a796d185ab291b307226e83c90a4795d2e545b479bd3eca801e5664736f6c63430008070033\n}\n",
				"bytecode": {
					"linkReferences": {},
					"object": "60806040526103e7806100136000396000f3fe6080604052600436106100385760003560e01c8063636e082b1461004457806371369d5c1461006057806374be48061461007c5761003f565b3661003f57005b600080fd5b61005e6004803603810190610059919061023d565b610098565b005b61007a6004803603810190610075919061023d565b6100ea565b005b6100966004803603810190610091919061023d565b610165565b005b8073ffffffffffffffffffffffffffffffffffffffff166108fc670de0b6b3a76400009081150290604051600060405180830381858888f193505050501580156100e6573d6000803e3d6000fd5b5050565b6000808273ffffffffffffffffffffffffffffffffffffffff16670de0b6b3a7640000604051610119906102bf565b60006040518083038185875af1925050503d8060008114610156576040519150601f19603f3d011682016040523d82523d6000602084013e61015b565b606091505b5091509150505050565b60008173ffffffffffffffffffffffffffffffffffffffff166108fc670de0b6b3a76400009081150290604051600060405180830381858888f1935050505090507f0c46a72a145bed1fc3c2d4b0e023bd11ddb1e3204a898f4119357ecde6d5fe99816040516101d591906102d4565b60405180910390a16001151581151514610224576040517f08c379a000000000000000000000000000000000000000000000000000000000815260040161021b906102ef565b60405180910390fd5b5050565b6000813590506102378161039a565b92915050565b60006020828403121561025357610252610369565b5b600061026184828501610228565b91505092915050565b6102738161033d565b82525050565b6000610286600a8361031a565b91506102918261036e565b602082019050919050565b60006102a960008361030f565b91506102b482610397565b600082019050919050565b60006102ca8261029c565b9150819050919050565b60006020820190506102e9600083018461026a565b92915050565b6000602082019050818103600083015261030881610279565b9050919050565b600081905092915050565b600082825260208201905092915050565b600061033682610349565b9050919050565b60008115159050919050565b600073ffffffffffffffffffffffffffffffffffffffff82169050919050565b600080fd5b7f68612066616c6c61646f00000000000000000000000000000000000000000000600082015250565b50565b6103a38161032b565b81146103ae57600080fd5b5056fea2646970667358221220db3b46c8691a796d185ab291b307226e83c90a4795d2e545b479bd3eca801e5664736f6c63430008070033",
					"opcodes": "PUSH1 0x80 PUSH1 0x40 MSTORE PUSH2 0x3E7 DUP1 PUSH2 0x13 PUSH1 0x0 CODECOPY PUSH1 0x0 RETURN INVALID PUSH1 0x80 PUSH1 0x40 MSTORE PUSH1 0x4 CALLDATASIZE LT PUSH2 0x38 JUMPI PUSH1 0x0 CALLDATALOAD PUSH1 0xE0 SHR DUP1 PUSH4 0x636E082B EQ PUSH2 0x44 JUMPI DUP1 PUSH4 0x71369D5C EQ PUSH2 0x60 JUMPI DUP1 PUSH4 0x74BE4806 EQ PUSH2 0x7C JUMPI PUSH2 0x3F JUMP JUMPDEST CALLDATASIZE PUSH2 0x3F JUMPI STOP JUMPDEST PUSH1 0x0 DUP1 REVERT JUMPDEST PUSH2 0x5E PUSH1 0x4 DUP1 CALLDATASIZE SUB DUP2 ADD SWAP1 PUSH2 0x59 SWAP2 SWAP1 PUSH2 0x23D JUMP JUMPDEST PUSH2 0x98 JUMP JUMPDEST STOP JUMPDEST PUSH2 0x7A PUSH1 0x4 DUP1 CALLDATASIZE SUB DUP2 ADD SWAP1 PUSH2 0x75 SWAP2 SWAP1 PUSH2 0x23D JUMP JUMPDEST PUSH2 0xEA JUMP JUMPDEST STOP JUMPDEST PUSH2 0x96 PUSH1 0x4 DUP1 CALLDATASIZE SUB DUP2 ADD SWAP1 PUSH2 0x91 SWAP2 SWAP1 PUSH2 0x23D JUMP JUMPDEST PUSH2 0x165 JUMP JUMPDEST STOP JUMPDEST DUP1 PUSH20 0xFFFFFFFFFFFFFFFFFFFFFFFFFFFFFFFFFFFFFFFF AND PUSH2 0x8FC PUSH8 0xDE0B6B3A7640000 SWAP1 DUP2 ISZERO MUL SWAP1 PUSH1 0x40 MLOAD PUSH1 0x0 PUSH1 0x40 MLOAD DUP1 DUP4 SUB DUP2 DUP6 DUP9 DUP9 CALL SWAP4 POP POP POP POP ISZERO DUP1 ISZERO PUSH2 0xE6 JUMPI RETURNDATASIZE PUSH1 0x0 DUP1 RETURNDATACOPY RETURNDATASIZE PUSH1 0x0 REVERT JUMPDEST POP POP JUMP JUMPDEST PUSH1 0x0 DUP1 DUP3 PUSH20 0xFFFFFFFFFFFFFFFFFFFFFFFFFFFFFFFFFFFFFFFF AND PUSH8 0xDE0B6B3A7640000 PUSH1 0x40 MLOAD PUSH2 0x119 SWAP1 PUSH2 0x2BF JUMP JUMPDEST PUSH1 0x0 PUSH1 0x40 MLOAD DUP1 DUP4 SUB DUP2 DUP6 DUP8 GAS CALL SWAP3 POP POP POP RETURNDATASIZE DUP1 PUSH1 0x0 DUP2 EQ PUSH2 0x156 JUMPI PUSH1 0x40 MLOAD SWAP2 POP PUSH1 0x1F NOT PUSH1 0x3F RETURNDATASIZE ADD AND DUP3 ADD PUSH1 0x40 MSTORE RETURNDATASIZE DUP3 MSTORE RETURNDATASIZE PUSH1 0x0 PUSH1 0x20 DUP5 ADD RETURNDATACOPY PUSH2 0x15B JUMP JUMPDEST PUSH1 0x60 SWAP2 POP JUMPDEST POP SWAP2 POP SWAP2 POP POP POP POP JUMP JUMPDEST PUSH1 0x0 DUP2 PUSH20 0xFFFFFFFFFFFFFFFFFFFFFFFFFFFFFFFFFFFFFFFF AND PUSH2 0x8FC PUSH8 0xDE0B6B3A7640000 SWAP1 DUP2 ISZERO MUL SWAP1 PUSH1 0x40 MLOAD PUSH1 0x0 PUSH1 0x40 MLOAD DUP1 DUP4 SUB DUP2 DUP6 DUP9 DUP9 CALL SWAP4 POP POP POP POP SWAP1 POP PUSH32 0xC46A72A145BED1FC3C2D4B0E023BD11DDB1E3204A898F4119357ECDE6D5FE99 DUP2 PUSH1 0x40 MLOAD PUSH2 0x1D5 SWAP2 SWAP1 PUSH2 0x2D4 JUMP JUMPDEST PUSH1 0x40 MLOAD DUP1 SWAP2 SUB SWAP1 LOG1 PUSH1 0x1 ISZERO ISZERO DUP2 ISZERO ISZERO EQ PUSH2 0x224 JUMPI PUSH1 0x40 MLOAD PUSH32 0x8C379A000000000000000000000000000000000000000000000000000000000 DUP2 MSTORE PUSH1 0x4 ADD PUSH2 0x21B SWAP1 PUSH2 0x2EF JUMP JUMPDEST PUSH1 0x40 MLOAD DUP1 SWAP2 SUB SWAP1 REVERT JUMPDEST POP POP JUMP JUMPDEST PUSH1 0x0 DUP2 CALLDATALOAD SWAP1 POP PUSH2 0x237 DUP2 PUSH2 0x39A JUMP JUMPDEST SWAP3 SWAP2 POP POP JUMP JUMPDEST PUSH1 0x0 PUSH1 0x20 DUP3 DUP5 SUB SLT ISZERO PUSH2 0x253 JUMPI PUSH2 0x252 PUSH2 0x369 JUMP JUMPDEST JUMPDEST PUSH1 0x0 PUSH2 0x261 DUP5 DUP3 DUP6 ADD PUSH2 0x228 JUMP JUMPDEST SWAP2 POP POP SWAP3 SWAP2 POP POP JUMP JUMPDEST PUSH2 0x273 DUP2 PUSH2 0x33D JUMP JUMPDEST DUP3 MSTORE POP POP JUMP JUMPDEST PUSH1 0x0 PUSH2 0x286 PUSH1 0xA DUP4 PUSH2 0x31A JUMP JUMPDEST SWAP2 POP PUSH2 0x291 DUP3 PUSH2 0x36E JUMP JUMPDEST PUSH1 0x20 DUP3 ADD SWAP1 POP SWAP2 SWAP1 POP JUMP JUMPDEST PUSH1 0x0 PUSH2 0x2A9 PUSH1 0x0 DUP4 PUSH2 0x30F JUMP JUMPDEST SWAP2 POP PUSH2 0x2B4 DUP3 PUSH2 0x397 JUMP JUMPDEST PUSH1 0x0 DUP3 ADD SWAP1 POP SWAP2 SWAP1 POP JUMP JUMPDEST PUSH1 0x0 PUSH2 0x2CA DUP3 PUSH2 0x29C JUMP JUMPDEST SWAP2 POP DUP2 SWAP1 POP SWAP2 SWAP1 POP JUMP JUMPDEST PUSH1 0x0 PUSH1 0x20 DUP3 ADD SWAP1 POP PUSH2 0x2E9 PUSH1 0x0 DUP4 ADD DUP5 PUSH2 0x26A JUMP JUMPDEST SWAP3 SWAP2 POP POP JUMP JUMPDEST PUSH1 0x0 PUSH1 0x20 DUP3 ADD SWAP1 POP DUP2 DUP2 SUB PUSH1 0x0 DUP4 ADD MSTORE PUSH2 0x308 DUP2 PUSH2 0x279 JUMP JUMPDEST SWAP1 POP SWAP2 SWAP1 POP JUMP JUMPDEST PUSH1 0x0 DUP2 SWAP1 POP SWAP3 SWAP2 POP POP JUMP JUMPDEST PUSH1 0x0 DUP3 DUP3 MSTORE PUSH1 0x20 DUP3 ADD SWAP1 POP SWAP3 SWAP2 POP POP JUMP JUMPDEST PUSH1 0x0 PUSH2 0x336 DUP3 PUSH2 0x349 JUMP JUMPDEST SWAP1 POP SWAP2 SWAP1 POP JUMP JUMPDEST PUSH1 0x0 DUP2 ISZERO ISZERO SWAP1 POP SWAP2 SWAP1 POP JUMP JUMPDEST PUSH1 0x0 PUSH20 0xFFFFFFFFFFFFFFFFFFFFFFFFFFFFFFFFFFFFFFFF DUP3 AND SWAP1 POP SWAP2 SWAP1 POP JUMP JUMPDEST PUSH1 0x0 DUP1 REVERT JUMPDEST PUSH32 0x68612066616C6C61646F00000000000000000000000000000000000000000000 PUSH1 0x0 DUP3 ADD MSTORE POP JUMP JUMPDEST POP JUMP JUMPDEST PUSH2 0x3A3 DUP2 PUSH2 0x32B JUMP JUMPDEST DUP2 EQ PUSH2 0x3AE JUMPI PUSH1 0x0 DUP1 REVERT JUMPDEST POP JUMP INVALID LOG2 PUSH5 0x6970667358 0x22 SLT KECCAK256 0xDB EXTCODESIZE CHAINID 0xC8 PUSH10 0x1A796D185AB291B30722 PUSH15 0x83C90A4795D2E545B479BD3ECA801E JUMP PUSH5 0x736F6C6343 STOP ADDMOD SMOD STOP CALLER "
				},
				"gasEstimates": {
					"creation": {
						"codeDepositCost": "199800",
						"executionCost": "221",
						"totalCost": "200021"
					},
					"external": {
						"sendCall(address)": "infinite",
						"sendViaSend(address)": "infinite",
						"sendViaTransfer(address)": "infinite"
					}
				},
				"methodIdentifiers": {
					"sendCall(address)": "71369d5c",
					"sendViaSend(address)": "74be4806",
					"sendViaTransfer(address)": "636e082b"
				}
			},
			"storageLayout": {
				"storage": [],
				"types": null
			},
			"userdoc": {
				"kind": "user",
				"methods": {},
				"version": 1
			}
		}
	}
}