{
	"Contracts/tiposVariable.sol": {
		"Variables_modifiers": {
			"abi": [
				{
					"inputs": [],
					"name": "_true",
					"outputs": [
						{
							"internalType": "bool",
							"name": "",
							"type": "bool"
						}
					],
					"stateMutability": "view",
					"type": "function"
				},
				{
					"inputs": [],
					"name": "address_1",
					"outputs": [
						{
							"internalType": "address",
							"name": "",
							"type": "address"
						}
					],
					"stateMutability": "view",
					"type": "function"
				},
				{
					"inputs": [],
					"name": "address_2",
					"outputs": [
						{
							"internalType": "address",
							"name": "",
							"type": "address"
						}
					],
					"stateMutability": "view",
					"type": "function"
				},
				{
					"inputs": [],
					"name": "b",
					"outputs": [
						{
							"internalType": "uint8",
							"name": "",
							"type": "uint8"
						}
					],
					"stateMutability": "view",
					"type": "function"
				},
				{
					"inputs": [],
					"name": "hashing",
					"outputs": [
						{
							"internalType": "bytes32",
							"name": "",
							"type": "bytes32"
						}
					],
					"stateMutability": "view",
					"type": "function"
				},
				{
					"inputs": [],
					"name": "str",
					"outputs": [
						{
							"internalType": "string",
							"name": "",
							"type": "string"
						}
					],
					"stateMutability": "view",
					"type": "function"
				},
				{
					"inputs": [],
					"name": "trueOFF",
					"outputs": [],
					"stateMutability": "nonpayable",
					"type": "function"
				},
				{
					"inputs": [],
					"name": "trueOn",
					"outputs": [],
					"stateMutability": "nonpayable",
					"type": "function"
				}
			],
			"devdoc": {
				"kind": "dev",
				"methods": {},
				"version": 1
			},
			"evm": {
				"assembly": "    /* \"Contracts/tiposVariable.sol\":83:1113  contract Variables_modifiers {\r... */\n  mstore(0x40, 0x80)\n    /* \"Contracts/tiposVariable.sol\":246:247  4 */\n  0x04\n    /* \"Contracts/tiposVariable.sol\":229:247  uint8 public b = 4 */\n  0x00\n  exp(0x0100, 0x01)\n  dup2\n  sload\n  dup2\n  0xff\n  mul\n  not\n  and\n  swap1\n  dup4\n  0xff\n  and\n  mul\n  or\n  swap1\n  sstore\n  pop\n    /* \"Contracts/tiposVariable.sol\":313:315  -1 */\n  0xffffffffffffffffffffffffffffffffffffffffffffffffffffffffffffffff\n    /* \"Contracts/tiposVariable.sol\":304:315  int8 d = -1 */\n  0x02\n  exp(0x0100, 0x00)\n  dup2\n  sload\n  dup2\n  0xff\n  mul\n  not\n  and\n  swap1\n  dup4\n  0x00\n  signextend\n  0xff\n  and\n  mul\n  or\n  swap1\n  sstore\n  pop\n    /* \"Contracts/tiposVariable.sol\":330:332  52 */\n  0x34\n    /* \"Contracts/tiposVariable.sol\":322:332  int e = 52 */\n  0x03\n  sstore\n    /* \"Contracts/tiposVariable.sol\":356:393  string public str = \"esto es publico\" */\n  mload(0x40)\n  dup1\n  0x40\n  add\n  0x40\n  mstore\n  dup1\n  0x0f\n  dup2\n  mstore\n  0x20\n  add\n  0x6573746f206573207075626c69636f0000000000000000000000000000000000\n  dup2\n  mstore\n  pop\n  0x04\n  swap1\n  dup1\n  mload\n  swap1\n  0x20\n  add\n  swap1\n  tag_1\n  swap3\n  swap2\n  swap1\n  tag_2\n  jump\t// in\ntag_1:\n  pop\n    /* \"Contracts/tiposVariable.sol\":400:439  string private str1 = \"esto es privado\" */\n  mload(0x40)\n  dup1\n  0x40\n  add\n  0x40\n  mstore\n  dup1\n  0x0f\n  dup2\n  mstore\n  0x20\n  add\n  0x6573746f206573207072697661646f0000000000000000000000000000000000\n  dup2\n  mstore\n  pop\n  0x05\n  swap1\n  dup1\n  mload\n  swap1\n  0x20\n  add\n  swap1\n  tag_3\n  swap3\n  swap2\n  swap1\n  tag_2\n  jump\t// in\ntag_3:\n  pop\n    /* \"Contracts/tiposVariable.sol\":484:488  true */\n  0x01\n    /* \"Contracts/tiposVariable.sol\":464:488  bool public _true = true */\n  0x06\n  exp(0x0100, 0x00)\n  dup2\n  sload\n  dup2\n  0xff\n  mul\n  not\n  and\n  swap1\n  dup4\n  iszero\n  iszero\n  mul\n  or\n  swap1\n  sstore\n  pop\n    /* \"Contracts/tiposVariable.sol\":517:522  false */\n  0x00\n    /* \"Contracts/tiposVariable.sol\":495:522  bool private _false = false */\n  0x06\n  exp(0x0100, 0x01)\n  dup2\n  sload\n  dup2\n  0xff\n  mul\n  not\n  and\n  swap1\n  dup4\n  iszero\n  iszero\n  mul\n  or\n  swap1\n  sstore\n  pop\n    /* \"Contracts/tiposVariable.sol\":630:662  abi.encodePacked(\"hello\", \"lia\") */\n  add(0x20, mload(0x40))\n  tag_4\n  swap1\n  tag_5\n  jump\t// in\ntag_4:\n  mload(0x40)\n  0x20\n  dup2\n  dup4\n  sub\n  sub\n  dup2\n  mstore\n  swap1\n  0x40\n  mstore\n    /* \"Contracts/tiposVariable.sol\":620:663  keccak256(abi.encodePacked(\"hello\", \"lia\")) */\n  dup1\n  mload\n  swap1\n  0x20\n  add\n  keccak256\n    /* \"Contracts/tiposVariable.sol\":595:663  bytes32 public hashing = keccak256(abi.encodePacked(\"hello\", \"lia\")) */\n  0x08\n  sstore\n    /* \"Contracts/tiposVariable.sol\":749:791  0x5B38Da6a701c568545dCfcB03FcB875f56beddC4 */\n  0x5b38da6a701c568545dcfcb03fcb875f56beddc4\n    /* \"Contracts/tiposVariable.sol\":721:791  address public  address_1 = 0x5B38Da6a701c568545dCfcB03FcB875f56beddC4 */\n  0x0a\n  exp(0x0100, 0x00)\n  dup2\n  sload\n  dup2\n  0xffffffffffffffffffffffffffffffffffffffff\n  mul\n  not\n  and\n  swap1\n  dup4\n  0xffffffffffffffffffffffffffffffffffffffff\n  and\n  mul\n  or\n  swap1\n  sstore\n  pop\n    /* \"Contracts/tiposVariable.sol\":825:835  msg.sender */\n  caller\n    /* \"Contracts/tiposVariable.sol\":798:835  address public address_2 = msg.sender */\n  0x0b\n  exp(0x0100, 0x00)\n  dup2\n  sload\n  dup2\n  0xffffffffffffffffffffffffffffffffffffffff\n  mul\n  not\n  and\n  swap1\n  dup4\n  0xffffffffffffffffffffffffffffffffffffffff\n  and\n  mul\n  or\n  swap1\n  sstore\n  pop\n    /* \"Contracts/tiposVariable.sol\":83:1113  contract Variables_modifiers {\r... */\n  callvalue\n  dup1\n  iszero\n  tag_6\n  jumpi\n  0x00\n  dup1\n  revert\ntag_6:\n  pop\n  jump(tag_7)\ntag_2:\n  dup3\n  dup1\n  sload\n  tag_8\n  swap1\n  tag_9\n  jump\t// in\ntag_8:\n  swap1\n  0x00\n  mstore\n  keccak256(0x00, 0x20)\n  swap1\n  0x1f\n  add\n  0x20\n  swap1\n  div\n  dup2\n  add\n  swap3\n  dup3\n  tag_11\n  jumpi\n  0x00\n  dup6\n  sstore\n  jump(tag_10)\ntag_11:\n  dup3\n  0x1f\n  lt\n  tag_12\n  jumpi\n  dup1\n  mload\n  not(0xff)\n  and\n  dup4\n  dup1\n  add\n  or\n  dup6\n  sstore\n  jump(tag_10)\ntag_12:\n  dup3\n  dup1\n  add\n  0x01\n  add\n  dup6\n  sstore\n  dup3\n  iszero\n  tag_10\n  jumpi\n  swap2\n  dup3\n  add\ntag_13:\n  dup3\n  dup2\n  gt\n  iszero\n  tag_14\n  jumpi\n  dup3\n  mload\n  dup3\n  sstore\n  swap2\n  0x20\n  add\n  swap2\n  swap1\n  0x01\n  add\n  swap1\n  jump(tag_13)\ntag_14:\ntag_10:\n  pop\n  swap1\n  pop\n  tag_15\n  swap2\n  swap1\n  tag_16\n  jump\t// in\ntag_15:\n  pop\n  swap1\n  jump\t// out\ntag_16:\ntag_17:\n  dup1\n  dup3\n  gt\n  iszero\n  tag_18\n  jumpi\n  0x00\n  dup2\n  0x00\n  swap1\n  sstore\n  pop\n  0x01\n  add\n  jump(tag_17)\ntag_18:\n  pop\n  swap1\n  jump\t// out\n    /* \"#utility.yul\":7:407   */\ntag_20:\n    /* \"#utility.yul\":167:170   */\n  0x00\n    /* \"#utility.yul\":188:272   */\n  tag_22\n    /* \"#utility.yul\":270:271   */\n  0x05\n    /* \"#utility.yul\":265:268   */\n  dup4\n    /* \"#utility.yul\":188:272   */\n  tag_23\n  jump\t// in\ntag_22:\n    /* \"#utility.yul\":181:272   */\n  swap2\n  pop\n    /* \"#utility.yul\":281:374   */\n  tag_24\n    /* \"#utility.yul\":370:373   */\n  dup3\n    /* \"#utility.yul\":281:374   */\n  tag_25\n  jump\t// in\ntag_24:\n    /* \"#utility.yul\":399:400   */\n  0x05\n    /* \"#utility.yul\":394:397   */\n  dup3\n    /* \"#utility.yul\":390:401   */\n  add\n    /* \"#utility.yul\":383:401   */\n  swap1\n  pop\n    /* \"#utility.yul\":171:407   */\n  swap2\n  swap1\n  pop\n  jump\t// out\n    /* \"#utility.yul\":413:813   */\ntag_26:\n    /* \"#utility.yul\":573:576   */\n  0x00\n    /* \"#utility.yul\":594:678   */\n  tag_28\n    /* \"#utility.yul\":676:677   */\n  0x03\n    /* \"#utility.yul\":671:674   */\n  dup4\n    /* \"#utility.yul\":594:678   */\n  tag_23\n  jump\t// in\ntag_28:\n    /* \"#utility.yul\":587:678   */\n  swap2\n  pop\n    /* \"#utility.yul\":687:780   */\n  tag_29\n    /* \"#utility.yul\":776:779   */\n  dup3\n    /* \"#utility.yul\":687:780   */\n  tag_30\n  jump\t// in\ntag_29:\n    /* \"#utility.yul\":805:806   */\n  0x03\n    /* \"#utility.yul\":800:803   */\n  dup3\n    /* \"#utility.yul\":796:807   */\n  add\n    /* \"#utility.yul\":789:807   */\n  swap1\n  pop\n    /* \"#utility.yul\":577:813   */\n  swap2\n  swap1\n  pop\n  jump\t// out\n    /* \"#utility.yul\":819:1466   */\ntag_5:\n    /* \"#utility.yul\":1105:1108   */\n  0x00\n    /* \"#utility.yul\":1127:1275   */\n  tag_32\n    /* \"#utility.yul\":1271:1274   */\n  dup3\n    /* \"#utility.yul\":1127:1275   */\n  tag_20\n  jump\t// in\ntag_32:\n    /* \"#utility.yul\":1120:1275   */\n  swap2\n  pop\n    /* \"#utility.yul\":1292:1440   */\n  tag_33\n    /* \"#utility.yul\":1436:1439   */\n  dup3\n    /* \"#utility.yul\":1292:1440   */\n  tag_26\n  jump\t// in\ntag_33:\n    /* \"#utility.yul\":1285:1440   */\n  swap2\n  pop\n    /* \"#utility.yul\":1457:1460   */\n  dup2\n    /* \"#utility.yul\":1450:1460   */\n  swap1\n  pop\n    /* \"#utility.yul\":1109:1466   */\n  swap2\n  swap1\n  pop\n  jump\t// out\n    /* \"#utility.yul\":1472:1620   */\ntag_23:\n    /* \"#utility.yul\":1574:1585   */\n  0x00\n    /* \"#utility.yul\":1611:1614   */\n  dup2\n    /* \"#utility.yul\":1596:1614   */\n  swap1\n  pop\n    /* \"#utility.yul\":1586:1620   */\n  swap3\n  swap2\n  pop\n  pop\n  jump\t// out\n    /* \"#utility.yul\":1626:1946   */\ntag_9:\n    /* \"#utility.yul\":1670:1676   */\n  0x00\n    /* \"#utility.yul\":1707:1708   */\n  0x02\n    /* \"#utility.yul\":1701:1705   */\n  dup3\n    /* \"#utility.yul\":1697:1709   */\n  div\n    /* \"#utility.yul\":1687:1709   */\n  swap1\n  pop\n    /* \"#utility.yul\":1754:1755   */\n  0x01\n    /* \"#utility.yul\":1748:1752   */\n  dup3\n    /* \"#utility.yul\":1744:1756   */\n  and\n    /* \"#utility.yul\":1775:1793   */\n  dup1\n    /* \"#utility.yul\":1765:1767   */\n  tag_36\n  jumpi\n    /* \"#utility.yul\":1831:1835   */\n  0x7f\n    /* \"#utility.yul\":1823:1829   */\n  dup3\n    /* \"#utility.yul\":1819:1836   */\n  and\n    /* \"#utility.yul\":1809:1836   */\n  swap2\n  pop\n    /* \"#utility.yul\":1765:1767   */\ntag_36:\n    /* \"#utility.yul\":1893:1895   */\n  0x20\n    /* \"#utility.yul\":1885:1891   */\n  dup3\n    /* \"#utility.yul\":1882:1896   */\n  lt\n    /* \"#utility.yul\":1862:1880   */\n  dup2\n    /* \"#utility.yul\":1859:1897   */\n  eq\n    /* \"#utility.yul\":1856:1858   */\n  iszero\n  tag_37\n  jumpi\n    /* \"#utility.yul\":1912:1930   */\n  tag_38\n  tag_39\n  jump\t// in\ntag_38:\n    /* \"#utility.yul\":1856:1858   */\ntag_37:\n    /* \"#utility.yul\":1677:1946   */\n  pop\n  swap2\n  swap1\n  pop\n  jump\t// out\n    /* \"#utility.yul\":1952:2132   */\ntag_39:\n    /* \"#utility.yul\":2000:2077   */\n  0x4e487b7100000000000000000000000000000000000000000000000000000000\n    /* \"#utility.yul\":1997:1998   */\n  0x00\n    /* \"#utility.yul\":1990:2078   */\n  mstore\n    /* \"#utility.yul\":2097:2101   */\n  0x22\n    /* \"#utility.yul\":2094:2095   */\n  0x04\n    /* \"#utility.yul\":2087:2102   */\n  mstore\n    /* \"#utility.yul\":2121:2125   */\n  0x24\n    /* \"#utility.yul\":2118:2119   */\n  0x00\n    /* \"#utility.yul\":2111:2126   */\n  revert\n    /* \"#utility.yul\":2138:2293   */\ntag_25:\n    /* \"#utility.yul\":2278:2285   */\n  0x68656c6c6f000000000000000000000000000000000000000000000000000000\n    /* \"#utility.yul\":2274:2275   */\n  0x00\n    /* \"#utility.yul\":2266:2272   */\n  dup3\n    /* \"#utility.yul\":2262:2276   */\n  add\n    /* \"#utility.yul\":2255:2286   */\n  mstore\n    /* \"#utility.yul\":2244:2293   */\n  pop\n  jump\t// out\n    /* \"#utility.yul\":2299:2452   */\ntag_30:\n    /* \"#utility.yul\":2439:2444   */\n  0x6c69610000000000000000000000000000000000000000000000000000000000\n    /* \"#utility.yul\":2435:2436   */\n  0x00\n    /* \"#utility.yul\":2427:2433   */\n  dup3\n    /* \"#utility.yul\":2423:2437   */\n  add\n    /* \"#utility.yul\":2416:2445   */\n  mstore\n    /* \"#utility.yul\":2405:2452   */\n  pop\n  jump\t// out\n    /* \"Contracts/tiposVariable.sol\":83:1113  contract Variables_modifiers {\r... */\ntag_7:\n  dataSize(sub_0)\n  dup1\n  dataOffset(sub_0)\n  0x00\n  codecopy\n  0x00\n  return\nstop\n\nsub_0: assembly {\n        /* \"Contracts/tiposVariable.sol\":83:1113  contract Variables_modifiers {\r... */\n      mstore(0x40, 0x80)\n      callvalue\n      dup1\n      iszero\n      tag_1\n      jumpi\n      0x00\n      dup1\n      revert\n    tag_1:\n      pop\n      jumpi(tag_2, lt(calldatasize, 0x04))\n      shr(0xe0, calldataload(0x00))\n      dup1\n      0xa2bdcc8c\n      gt\n      tag_11\n      jumpi\n      dup1\n      0xa2bdcc8c\n      eq\n      tag_7\n      jumpi\n      dup1\n      0xad0a93bc\n      eq\n      tag_8\n      jumpi\n      dup1\n      0xc15bae84\n      eq\n      tag_9\n      jumpi\n      dup1\n      0xcd97d84e\n      eq\n      tag_10\n      jumpi\n      jump(tag_2)\n    tag_11:\n      dup1\n      0x1216d176\n      eq\n      tag_3\n      jumpi\n      dup1\n      0x312a4c9c\n      eq\n      tag_4\n      jumpi\n      dup1\n      0x4df7e3d0\n      eq\n      tag_5\n      jumpi\n      dup1\n      0x7c3baa18\n      eq\n      tag_6\n      jumpi\n    tag_2:\n      0x00\n      dup1\n      revert\n        /* \"Contracts/tiposVariable.sol\":798:835  address public address_2 = msg.sender */\n    tag_3:\n      tag_12\n      tag_13\n      jump\t// in\n    tag_12:\n      mload(0x40)\n      tag_14\n      swap2\n      swap1\n      tag_15\n      jump\t// in\n    tag_14:\n      mload(0x40)\n      dup1\n      swap2\n      sub\n      swap1\n      return\n        /* \"Contracts/tiposVariable.sol\":464:488  bool public _true = true */\n    tag_4:\n      tag_16\n      tag_17\n      jump\t// in\n    tag_16:\n      mload(0x40)\n      tag_18\n      swap2\n      swap1\n      tag_19\n      jump\t// in\n    tag_18:\n      mload(0x40)\n      dup1\n      swap2\n      sub\n      swap1\n      return\n        /* \"Contracts/tiposVariable.sol\":229:247  uint8 public b = 4 */\n    tag_5:\n      tag_20\n      tag_21\n      jump\t// in\n    tag_20:\n      mload(0x40)\n      tag_22\n      swap2\n      swap1\n      tag_23\n      jump\t// in\n    tag_22:\n      mload(0x40)\n      dup1\n      swap2\n      sub\n      swap1\n      return\n        /* \"Contracts/tiposVariable.sol\":1047:1110  function trueOFF() public {\r... */\n    tag_6:\n      tag_24\n      tag_25\n      jump\t// in\n    tag_24:\n      stop\n        /* \"Contracts/tiposVariable.sol\":977:1039  function trueOn() public {\r... */\n    tag_7:\n      tag_26\n      tag_27\n      jump\t// in\n    tag_26:\n      stop\n        /* \"Contracts/tiposVariable.sol\":721:791  address public  address_1 = 0x5B38Da6a701c568545dCfcB03FcB875f56beddC4 */\n    tag_8:\n      tag_28\n      tag_29\n      jump\t// in\n    tag_28:\n      mload(0x40)\n      tag_30\n      swap2\n      swap1\n      tag_15\n      jump\t// in\n    tag_30:\n      mload(0x40)\n      dup1\n      swap2\n      sub\n      swap1\n      return\n        /* \"Contracts/tiposVariable.sol\":356:393  string public str = \"esto es publico\" */\n    tag_9:\n      tag_31\n      tag_32\n      jump\t// in\n    tag_31:\n      mload(0x40)\n      tag_33\n      swap2\n      swap1\n      tag_34\n      jump\t// in\n    tag_33:\n      mload(0x40)\n      dup1\n      swap2\n      sub\n      swap1\n      return\n        /* \"Contracts/tiposVariable.sol\":595:663  bytes32 public hashing = keccak256(abi.encodePacked(\"hello\", \"lia\")) */\n    tag_10:\n      tag_35\n      tag_36\n      jump\t// in\n    tag_35:\n      mload(0x40)\n      tag_37\n      swap2\n      swap1\n      tag_38\n      jump\t// in\n    tag_37:\n      mload(0x40)\n      dup1\n      swap2\n      sub\n      swap1\n      return\n        /* \"Contracts/tiposVariable.sol\":798:835  address public address_2 = msg.sender */\n    tag_13:\n      0x0b\n      0x00\n      swap1\n      sload\n      swap1\n      0x0100\n      exp\n      swap1\n      div\n      0xffffffffffffffffffffffffffffffffffffffff\n      and\n      dup2\n      jump\t// out\n        /* \"Contracts/tiposVariable.sol\":464:488  bool public _true = true */\n    tag_17:\n      0x06\n      0x00\n      swap1\n      sload\n      swap1\n      0x0100\n      exp\n      swap1\n      div\n      0xff\n      and\n      dup2\n      jump\t// out\n        /* \"Contracts/tiposVariable.sol\":229:247  uint8 public b = 4 */\n    tag_21:\n      0x00\n      0x01\n      swap1\n      sload\n      swap1\n      0x0100\n      exp\n      swap1\n      div\n      0xff\n      and\n      dup2\n      jump\t// out\n        /* \"Contracts/tiposVariable.sol\":1047:1110  function trueOFF() public {\r... */\n    tag_25:\n        /* \"Contracts/tiposVariable.sol\":1092:1102  options.ON */\n      0x00\n        /* \"Contracts/tiposVariable.sol\":1084:1089  state */\n      0x0b\n      0x14\n        /* \"Contracts/tiposVariable.sol\":1084:1102  state = options.ON */\n      0x0100\n      exp\n      dup2\n      sload\n      dup2\n      0xff\n      mul\n      not\n      and\n      swap1\n      dup4\n      0x01\n      dup2\n      gt\n      iszero\n      tag_40\n      jumpi\n      tag_41\n      tag_42\n      jump\t// in\n    tag_41:\n    tag_40:\n      mul\n      or\n      swap1\n      sstore\n      pop\n        /* \"Contracts/tiposVariable.sol\":1047:1110  function trueOFF() public {\r... */\n      jump\t// out\n        /* \"Contracts/tiposVariable.sol\":977:1039  function trueOn() public {\r... */\n    tag_27:\n        /* \"Contracts/tiposVariable.sol\":1021:1031  options.ON */\n      0x00\n        /* \"Contracts/tiposVariable.sol\":1013:1018  state */\n      0x0b\n      0x14\n        /* \"Contracts/tiposVariable.sol\":1013:1031  state = options.ON */\n      0x0100\n      exp\n      dup2\n      sload\n      dup2\n      0xff\n      mul\n      not\n      and\n      swap1\n      dup4\n      0x01\n      dup2\n      gt\n      iszero\n      tag_44\n      jumpi\n      tag_45\n      tag_42\n      jump\t// in\n    tag_45:\n    tag_44:\n      mul\n      or\n      swap1\n      sstore\n      pop\n        /* \"Contracts/tiposVariable.sol\":977:1039  function trueOn() public {\r... */\n      jump\t// out\n        /* \"Contracts/tiposVariable.sol\":721:791  address public  address_1 = 0x5B38Da6a701c568545dCfcB03FcB875f56beddC4 */\n    tag_29:\n      0x0a\n      0x00\n      swap1\n      sload\n      swap1\n      0x0100\n      exp\n      swap1\n      div\n      0xffffffffffffffffffffffffffffffffffffffff\n      and\n      dup2\n      jump\t// out\n        /* \"Contracts/tiposVariable.sol\":356:393  string public str = \"esto es publico\" */\n    tag_32:\n      0x04\n      dup1\n      sload\n      tag_46\n      swap1\n      tag_47\n      jump\t// in\n    tag_46:\n      dup1\n      0x1f\n      add\n      0x20\n      dup1\n      swap2\n      div\n      mul\n      0x20\n      add\n      mload(0x40)\n      swap1\n      dup2\n      add\n      0x40\n      mstore\n      dup1\n      swap3\n      swap2\n      swap1\n      dup2\n      dup2\n      mstore\n      0x20\n      add\n      dup3\n      dup1\n      sload\n      tag_48\n      swap1\n      tag_47\n      jump\t// in\n    tag_48:\n      dup1\n      iszero\n      tag_49\n      jumpi\n      dup1\n      0x1f\n      lt\n      tag_50\n      jumpi\n      0x0100\n      dup1\n      dup4\n      sload\n      div\n      mul\n      dup4\n      mstore\n      swap2\n      0x20\n      add\n      swap2\n      jump(tag_49)\n    tag_50:\n      dup3\n      add\n      swap2\n      swap1\n      0x00\n      mstore\n      keccak256(0x00, 0x20)\n      swap1\n    tag_51:\n      dup2\n      sload\n      dup2\n      mstore\n      swap1\n      0x01\n      add\n      swap1\n      0x20\n      add\n      dup1\n      dup4\n      gt\n      tag_51\n      jumpi\n      dup3\n      swap1\n      sub\n      0x1f\n      and\n      dup3\n      add\n      swap2\n    tag_49:\n      pop\n      pop\n      pop\n      pop\n      pop\n      dup2\n      jump\t// out\n        /* \"Contracts/tiposVariable.sol\":595:663  bytes32 public hashing = keccak256(abi.encodePacked(\"hello\", \"lia\")) */\n    tag_36:\n      sload(0x08)\n      dup2\n      jump\t// out\n        /* \"#utility.yul\":7:125   */\n    tag_53:\n        /* \"#utility.yul\":94:118   */\n      tag_55\n        /* \"#utility.yul\":112:117   */\n      dup2\n        /* \"#utility.yul\":94:118   */\n      tag_56\n      jump\t// in\n    tag_55:\n        /* \"#utility.yul\":89:92   */\n      dup3\n        /* \"#utility.yul\":82:119   */\n      mstore\n        /* \"#utility.yul\":72:125   */\n      pop\n      pop\n      jump\t// out\n        /* \"#utility.yul\":131:240   */\n    tag_57:\n        /* \"#utility.yul\":212:233   */\n      tag_59\n        /* \"#utility.yul\":227:232   */\n      dup2\n        /* \"#utility.yul\":212:233   */\n      tag_60\n      jump\t// in\n    tag_59:\n        /* \"#utility.yul\":207:210   */\n      dup3\n        /* \"#utility.yul\":200:234   */\n      mstore\n        /* \"#utility.yul\":190:240   */\n      pop\n      pop\n      jump\t// out\n        /* \"#utility.yul\":246:364   */\n    tag_61:\n        /* \"#utility.yul\":333:357   */\n      tag_63\n        /* \"#utility.yul\":351:356   */\n      dup2\n        /* \"#utility.yul\":333:357   */\n      tag_64\n      jump\t// in\n    tag_63:\n        /* \"#utility.yul\":328:331   */\n      dup3\n        /* \"#utility.yul\":321:358   */\n      mstore\n        /* \"#utility.yul\":311:364   */\n      pop\n      pop\n      jump\t// out\n        /* \"#utility.yul\":370:734   */\n    tag_65:\n        /* \"#utility.yul\":458:461   */\n      0x00\n        /* \"#utility.yul\":486:525   */\n      tag_67\n        /* \"#utility.yul\":519:524   */\n      dup3\n        /* \"#utility.yul\":486:525   */\n      tag_68\n      jump\t// in\n    tag_67:\n        /* \"#utility.yul\":541:612   */\n      tag_69\n        /* \"#utility.yul\":605:611   */\n      dup2\n        /* \"#utility.yul\":600:603   */\n      dup6\n        /* \"#utility.yul\":541:612   */\n      tag_70\n      jump\t// in\n    tag_69:\n        /* \"#utility.yul\":534:612   */\n      swap4\n      pop\n        /* \"#utility.yul\":621:673   */\n      tag_71\n        /* \"#utility.yul\":666:672   */\n      dup2\n        /* \"#utility.yul\":661:664   */\n      dup6\n        /* \"#utility.yul\":654:658   */\n      0x20\n        /* \"#utility.yul\":647:652   */\n      dup7\n        /* \"#utility.yul\":643:659   */\n      add\n        /* \"#utility.yul\":621:673   */\n      tag_72\n      jump\t// in\n    tag_71:\n        /* \"#utility.yul\":698:727   */\n      tag_73\n        /* \"#utility.yul\":720:726   */\n      dup2\n        /* \"#utility.yul\":698:727   */\n      tag_74\n      jump\t// in\n    tag_73:\n        /* \"#utility.yul\":693:696   */\n      dup5\n        /* \"#utility.yul\":689:728   */\n      add\n        /* \"#utility.yul\":682:728   */\n      swap2\n      pop\n        /* \"#utility.yul\":462:734   */\n      pop\n      swap3\n      swap2\n      pop\n      pop\n      jump\t// out\n        /* \"#utility.yul\":740:852   */\n    tag_75:\n        /* \"#utility.yul\":823:845   */\n      tag_77\n        /* \"#utility.yul\":839:844   */\n      dup2\n        /* \"#utility.yul\":823:845   */\n      tag_78\n      jump\t// in\n    tag_77:\n        /* \"#utility.yul\":818:821   */\n      dup3\n        /* \"#utility.yul\":811:846   */\n      mstore\n        /* \"#utility.yul\":801:852   */\n      pop\n      pop\n      jump\t// out\n        /* \"#utility.yul\":858:1080   */\n    tag_15:\n        /* \"#utility.yul\":951:955   */\n      0x00\n        /* \"#utility.yul\":989:991   */\n      0x20\n        /* \"#utility.yul\":978:987   */\n      dup3\n        /* \"#utility.yul\":974:992   */\n      add\n        /* \"#utility.yul\":966:992   */\n      swap1\n      pop\n        /* \"#utility.yul\":1002:1073   */\n      tag_80\n        /* \"#utility.yul\":1070:1071   */\n      0x00\n        /* \"#utility.yul\":1059:1068   */\n      dup4\n        /* \"#utility.yul\":1055:1072   */\n      add\n        /* \"#utility.yul\":1046:1052   */\n      dup5\n        /* \"#utility.yul\":1002:1073   */\n      tag_53\n      jump\t// in\n    tag_80:\n        /* \"#utility.yul\":956:1080   */\n      swap3\n      swap2\n      pop\n      pop\n      jump\t// out\n        /* \"#utility.yul\":1086:1296   */\n    tag_19:\n        /* \"#utility.yul\":1173:1177   */\n      0x00\n        /* \"#utility.yul\":1211:1213   */\n      0x20\n        /* \"#utility.yul\":1200:1209   */\n      dup3\n        /* \"#utility.yul\":1196:1214   */\n      add\n        /* \"#utility.yul\":1188:1214   */\n      swap1\n      pop\n        /* \"#utility.yul\":1224:1289   */\n      tag_82\n        /* \"#utility.yul\":1286:1287   */\n      0x00\n        /* \"#utility.yul\":1275:1284   */\n      dup4\n        /* \"#utility.yul\":1271:1288   */\n      add\n        /* \"#utility.yul\":1262:1268   */\n      dup5\n        /* \"#utility.yul\":1224:1289   */\n      tag_57\n      jump\t// in\n    tag_82:\n        /* \"#utility.yul\":1178:1296   */\n      swap3\n      swap2\n      pop\n      pop\n      jump\t// out\n        /* \"#utility.yul\":1302:1524   */\n    tag_38:\n        /* \"#utility.yul\":1395:1399   */\n      0x00\n        /* \"#utility.yul\":1433:1435   */\n      0x20\n        /* \"#utility.yul\":1422:1431   */\n      dup3\n        /* \"#utility.yul\":1418:1436   */\n      add\n        /* \"#utility.yul\":1410:1436   */\n      swap1\n      pop\n        /* \"#utility.yul\":1446:1517   */\n      tag_84\n        /* \"#utility.yul\":1514:1515   */\n      0x00\n        /* \"#utility.yul\":1503:1512   */\n      dup4\n        /* \"#utility.yul\":1499:1516   */\n      add\n        /* \"#utility.yul\":1490:1496   */\n      dup5\n        /* \"#utility.yul\":1446:1517   */\n      tag_61\n      jump\t// in\n    tag_84:\n        /* \"#utility.yul\":1400:1524   */\n      swap3\n      swap2\n      pop\n      pop\n      jump\t// out\n        /* \"#utility.yul\":1530:1843   */\n    tag_34:\n        /* \"#utility.yul\":1643:1647   */\n      0x00\n        /* \"#utility.yul\":1681:1683   */\n      0x20\n        /* \"#utility.yul\":1670:1679   */\n      dup3\n        /* \"#utility.yul\":1666:1684   */\n      add\n        /* \"#utility.yul\":1658:1684   */\n      swap1\n      pop\n        /* \"#utility.yul\":1730:1739   */\n      dup2\n        /* \"#utility.yul\":1724:1728   */\n      dup2\n        /* \"#utility.yul\":1720:1740   */\n      sub\n        /* \"#utility.yul\":1716:1717   */\n      0x00\n        /* \"#utility.yul\":1705:1714   */\n      dup4\n        /* \"#utility.yul\":1701:1718   */\n      add\n        /* \"#utility.yul\":1694:1741   */\n      mstore\n        /* \"#utility.yul\":1758:1836   */\n      tag_86\n        /* \"#utility.yul\":1831:1835   */\n      dup2\n        /* \"#utility.yul\":1822:1828   */\n      dup5\n        /* \"#utility.yul\":1758:1836   */\n      tag_65\n      jump\t// in\n    tag_86:\n        /* \"#utility.yul\":1750:1836   */\n      swap1\n      pop\n        /* \"#utility.yul\":1648:1843   */\n      swap3\n      swap2\n      pop\n      pop\n      jump\t// out\n        /* \"#utility.yul\":1849:2063   */\n    tag_23:\n        /* \"#utility.yul\":1938:1942   */\n      0x00\n        /* \"#utility.yul\":1976:1978   */\n      0x20\n        /* \"#utility.yul\":1965:1974   */\n      dup3\n        /* \"#utility.yul\":1961:1979   */\n      add\n        /* \"#utility.yul\":1953:1979   */\n      swap1\n      pop\n        /* \"#utility.yul\":1989:2056   */\n      tag_88\n        /* \"#utility.yul\":2053:2054   */\n      0x00\n        /* \"#utility.yul\":2042:2051   */\n      dup4\n        /* \"#utility.yul\":2038:2055   */\n      add\n        /* \"#utility.yul\":2029:2035   */\n      dup5\n        /* \"#utility.yul\":1989:2056   */\n      tag_75\n      jump\t// in\n    tag_88:\n        /* \"#utility.yul\":1943:2063   */\n      swap3\n      swap2\n      pop\n      pop\n      jump\t// out\n        /* \"#utility.yul\":2069:2168   */\n    tag_68:\n        /* \"#utility.yul\":2121:2127   */\n      0x00\n        /* \"#utility.yul\":2155:2160   */\n      dup2\n        /* \"#utility.yul\":2149:2161   */\n      mload\n        /* \"#utility.yul\":2139:2161   */\n      swap1\n      pop\n        /* \"#utility.yul\":2128:2168   */\n      swap2\n      swap1\n      pop\n      jump\t// out\n        /* \"#utility.yul\":2174:2343   */\n    tag_70:\n        /* \"#utility.yul\":2258:2269   */\n      0x00\n        /* \"#utility.yul\":2292:2298   */\n      dup3\n        /* \"#utility.yul\":2287:2290   */\n      dup3\n        /* \"#utility.yul\":2280:2299   */\n      mstore\n        /* \"#utility.yul\":2332:2336   */\n      0x20\n        /* \"#utility.yul\":2327:2330   */\n      dup3\n        /* \"#utility.yul\":2323:2337   */\n      add\n        /* \"#utility.yul\":2308:2337   */\n      swap1\n      pop\n        /* \"#utility.yul\":2270:2343   */\n      swap3\n      swap2\n      pop\n      pop\n      jump\t// out\n        /* \"#utility.yul\":2349:2445   */\n    tag_56:\n        /* \"#utility.yul\":2386:2393   */\n      0x00\n        /* \"#utility.yul\":2415:2439   */\n      tag_92\n        /* \"#utility.yul\":2433:2438   */\n      dup3\n        /* \"#utility.yul\":2415:2439   */\n      tag_93\n      jump\t// in\n    tag_92:\n        /* \"#utility.yul\":2404:2439   */\n      swap1\n      pop\n        /* \"#utility.yul\":2394:2445   */\n      swap2\n      swap1\n      pop\n      jump\t// out\n        /* \"#utility.yul\":2451:2541   */\n    tag_60:\n        /* \"#utility.yul\":2485:2492   */\n      0x00\n        /* \"#utility.yul\":2528:2533   */\n      dup2\n        /* \"#utility.yul\":2521:2534   */\n      iszero\n        /* \"#utility.yul\":2514:2535   */\n      iszero\n        /* \"#utility.yul\":2503:2535   */\n      swap1\n      pop\n        /* \"#utility.yul\":2493:2541   */\n      swap2\n      swap1\n      pop\n      jump\t// out\n        /* \"#utility.yul\":2547:2624   */\n    tag_64:\n        /* \"#utility.yul\":2584:2591   */\n      0x00\n        /* \"#utility.yul\":2613:2618   */\n      dup2\n        /* \"#utility.yul\":2602:2618   */\n      swap1\n      pop\n        /* \"#utility.yul\":2592:2624   */\n      swap2\n      swap1\n      pop\n      jump\t// out\n        /* \"#utility.yul\":2630:2756   */\n    tag_93:\n        /* \"#utility.yul\":2667:2674   */\n      0x00\n        /* \"#utility.yul\":2707:2749   */\n      0xffffffffffffffffffffffffffffffffffffffff\n        /* \"#utility.yul\":2700:2705   */\n      dup3\n        /* \"#utility.yul\":2696:2750   */\n      and\n        /* \"#utility.yul\":2685:2750   */\n      swap1\n      pop\n        /* \"#utility.yul\":2675:2756   */\n      swap2\n      swap1\n      pop\n      jump\t// out\n        /* \"#utility.yul\":2762:2848   */\n    tag_78:\n        /* \"#utility.yul\":2797:2804   */\n      0x00\n        /* \"#utility.yul\":2837:2841   */\n      0xff\n        /* \"#utility.yul\":2830:2835   */\n      dup3\n        /* \"#utility.yul\":2826:2842   */\n      and\n        /* \"#utility.yul\":2815:2842   */\n      swap1\n      pop\n        /* \"#utility.yul\":2805:2848   */\n      swap2\n      swap1\n      pop\n      jump\t// out\n        /* \"#utility.yul\":2854:3161   */\n    tag_72:\n        /* \"#utility.yul\":2922:2923   */\n      0x00\n        /* \"#utility.yul\":2932:3045   */\n    tag_99:\n        /* \"#utility.yul\":2946:2952   */\n      dup4\n        /* \"#utility.yul\":2943:2944   */\n      dup2\n        /* \"#utility.yul\":2940:2953   */\n      lt\n        /* \"#utility.yul\":2932:3045   */\n      iszero\n      tag_101\n      jumpi\n        /* \"#utility.yul\":3031:3032   */\n      dup1\n        /* \"#utility.yul\":3026:3029   */\n      dup3\n        /* \"#utility.yul\":3022:3033   */\n      add\n        /* \"#utility.yul\":3016:3034   */\n      mload\n        /* \"#utility.yul\":3012:3013   */\n      dup2\n        /* \"#utility.yul\":3007:3010   */\n      dup5\n        /* \"#utility.yul\":3003:3014   */\n      add\n        /* \"#utility.yul\":2996:3035   */\n      mstore\n        /* \"#utility.yul\":2968:2970   */\n      0x20\n        /* \"#utility.yul\":2965:2966   */\n      dup2\n        /* \"#utility.yul\":2961:2971   */\n      add\n        /* \"#utility.yul\":2956:2971   */\n      swap1\n      pop\n        /* \"#utility.yul\":2932:3045   */\n      jump(tag_99)\n    tag_101:\n        /* \"#utility.yul\":3063:3069   */\n      dup4\n        /* \"#utility.yul\":3060:3061   */\n      dup2\n        /* \"#utility.yul\":3057:3070   */\n      gt\n        /* \"#utility.yul\":3054:3056   */\n      iszero\n      tag_102\n      jumpi\n        /* \"#utility.yul\":3143:3144   */\n      0x00\n        /* \"#utility.yul\":3134:3140   */\n      dup5\n        /* \"#utility.yul\":3129:3132   */\n      dup5\n        /* \"#utility.yul\":3125:3141   */\n      add\n        /* \"#utility.yul\":3118:3145   */\n      mstore\n        /* \"#utility.yul\":3054:3056   */\n    tag_102:\n        /* \"#utility.yul\":2903:3161   */\n      pop\n      pop\n      pop\n      pop\n      jump\t// out\n        /* \"#utility.yul\":3167:3487   */\n    tag_47:\n        /* \"#utility.yul\":3211:3217   */\n      0x00\n        /* \"#utility.yul\":3248:3249   */\n      0x02\n        /* \"#utility.yul\":3242:3246   */\n      dup3\n        /* \"#utility.yul\":3238:3250   */\n      div\n        /* \"#utility.yul\":3228:3250   */\n      swap1\n      pop\n        /* \"#utility.yul\":3295:3296   */\n      0x01\n        /* \"#utility.yul\":3289:3293   */\n      dup3\n        /* \"#utility.yul\":3285:3297   */\n      and\n        /* \"#utility.yul\":3316:3334   */\n      dup1\n        /* \"#utility.yul\":3306:3308   */\n      tag_104\n      jumpi\n        /* \"#utility.yul\":3372:3376   */\n      0x7f\n        /* \"#utility.yul\":3364:3370   */\n      dup3\n        /* \"#utility.yul\":3360:3377   */\n      and\n        /* \"#utility.yul\":3350:3377   */\n      swap2\n      pop\n        /* \"#utility.yul\":3306:3308   */\n    tag_104:\n        /* \"#utility.yul\":3434:3436   */\n      0x20\n        /* \"#utility.yul\":3426:3432   */\n      dup3\n        /* \"#utility.yul\":3423:3437   */\n      lt\n        /* \"#utility.yul\":3403:3421   */\n      dup2\n        /* \"#utility.yul\":3400:3438   */\n      eq\n        /* \"#utility.yul\":3397:3399   */\n      iszero\n      tag_105\n      jumpi\n        /* \"#utility.yul\":3453:3471   */\n      tag_106\n      tag_107\n      jump\t// in\n    tag_106:\n        /* \"#utility.yul\":3397:3399   */\n    tag_105:\n        /* \"#utility.yul\":3218:3487   */\n      pop\n      swap2\n      swap1\n      pop\n      jump\t// out\n        /* \"#utility.yul\":3493:3673   */\n    tag_42:\n        /* \"#utility.yul\":3541:3618   */\n      0x4e487b7100000000000000000000000000000000000000000000000000000000\n        /* \"#utility.yul\":3538:3539   */\n      0x00\n        /* \"#utility.yul\":3531:3619   */\n      mstore\n        /* \"#utility.yul\":3638:3642   */\n      0x21\n        /* \"#utility.yul\":3635:3636   */\n      0x04\n        /* \"#utility.yul\":3628:3643   */\n      mstore\n        /* \"#utility.yul\":3662:3666   */\n      0x24\n        /* \"#utility.yul\":3659:3660   */\n      0x00\n        /* \"#utility.yul\":3652:3667   */\n      revert\n        /* \"#utility.yul\":3679:3859   */\n    tag_107:\n        /* \"#utility.yul\":3727:3804   */\n      0x4e487b7100000000000000000000000000000000000000000000000000000000\n        /* \"#utility.yul\":3724:3725   */\n      0x00\n        /* \"#utility.yul\":3717:3805   */\n      mstore\n        /* \"#utility.yul\":3824:3828   */\n      0x22\n        /* \"#utility.yul\":3821:3822   */\n      0x04\n        /* \"#utility.yul\":3814:3829   */\n      mstore\n        /* \"#utility.yul\":3848:3852   */\n      0x24\n        /* \"#utility.yul\":3845:3846   */\n      0x00\n        /* \"#utility.yul\":3838:3853   */\n      revert\n        /* \"#utility.yul\":3865:3967   */\n    tag_74:\n        /* \"#utility.yul\":3906:3912   */\n      0x00\n        /* \"#utility.yul\":3957:3959   */\n      0x1f\n        /* \"#utility.yul\":3953:3960   */\n      not\n        /* \"#utility.yul\":3948:3950   */\n      0x1f\n        /* \"#utility.yul\":3941:3946   */\n      dup4\n        /* \"#utility.yul\":3937:3951   */\n      add\n        /* \"#utility.yul\":3933:3961   */\n      and\n        /* \"#utility.yul\":3923:3961   */\n      swap1\n      pop\n        /* \"#utility.yul\":3913:3967   */\n      swap2\n      swap1\n      pop\n      jump\t// out\n\n    auxdata: 0xa26469706673582212206559d75cd8ddb0a5d2154caa98739a4bc88586f292b8b2b1d917a271a550fb6364736f6c63430008060033\n}\n",
				"bytecode": {
					"linkReferences": {},
					"object": "60806040526004600060016101000a81548160ff021916908360ff1602179055507fffffffffffffffffffffffffffffffffffffffffffffffffffffffffffffffff600260006101000a81548160ff021916908360000b60ff16021790555060346003556040518060400160405280600f81526020017f6573746f206573207075626c69636f0000000000000000000000000000000000815250600490805190602001906100ae929190610201565b506040518060400160405280600f81526020017f6573746f206573207072697661646f0000000000000000000000000000000000815250600590805190602001906100fa929190610201565b506001600660006101000a81548160ff0219169083151502179055506000600660016101000a81548160ff021916908315150217905550604051602001610140906102ea565b60405160208183030381529060405280519060200120600855735b38da6a701c568545dcfcb03fcb875f56beddc4600a60006101000a81548173ffffffffffffffffffffffffffffffffffffffff021916908373ffffffffffffffffffffffffffffffffffffffff16021790555033600b60006101000a81548173ffffffffffffffffffffffffffffffffffffffff021916908373ffffffffffffffffffffffffffffffffffffffff1602179055503480156101fb57600080fd5b506103c8565b82805461020d90610315565b90600052602060002090601f01602090048101928261022f5760008555610276565b82601f1061024857805160ff1916838001178555610276565b82800160010185558215610276579182015b8281111561027557825182559160200191906001019061025a565b5b5090506102839190610287565b5090565b5b808211156102a0576000816000905550600101610288565b5090565b60006102b160058361030a565b91506102bc82610376565b600582019050919050565b60006102d460038361030a565b91506102df8261039f565b600382019050919050565b60006102f5826102a4565b9150610300826102c7565b9150819050919050565b600081905092915050565b6000600282049050600182168061032d57607f821691505b6020821081141561034157610340610347565b5b50919050565b7f4e487b7100000000000000000000000000000000000000000000000000000000600052602260045260246000fd5b7f68656c6c6f000000000000000000000000000000000000000000000000000000600082015250565b7f6c69610000000000000000000000000000000000000000000000000000000000600082015250565b610533806103d76000396000f3fe608060405234801561001057600080fd5b50600436106100885760003560e01c8063a2bdcc8c1161005b578063a2bdcc8c146100f1578063ad0a93bc146100fb578063c15bae8414610119578063cd97d84e1461013757610088565b80631216d1761461008d578063312a4c9c146100ab5780634df7e3d0146100c95780637c3baa18146100e7575b600080fd5b610095610155565b6040516100a2919061032a565b60405180910390f35b6100b361017b565b6040516100c09190610345565b60405180910390f35b6100d161018e565b6040516100de919061039d565b60405180910390f35b6100ef6101a1565b005b6100f96101ce565b005b6101036101fb565b604051610110919061032a565b60405180910390f35b610121610221565b60405161012e919061037b565b60405180910390f35b61013f6102af565b60405161014c9190610360565b60405180910390f35b600b60009054906101000a900473ffffffffffffffffffffffffffffffffffffffff1681565b600660009054906101000a900460ff1681565b600060019054906101000a900460ff1681565b6000600b60146101000a81548160ff021916908360018111156101c7576101c661048e565b5b0217905550565b6000600b60146101000a81548160ff021916908360018111156101f4576101f361048e565b5b0217905550565b600a60009054906101000a900473ffffffffffffffffffffffffffffffffffffffff1681565b6004805461022e9061045c565b80601f016020809104026020016040519081016040528092919081815260200182805461025a9061045c565b80156102a75780601f1061027c576101008083540402835291602001916102a7565b820191906000526020600020905b81548152906001019060200180831161028a57829003601f168201915b505050505081565b60085481565b6102be816103d4565b82525050565b6102cd816103e6565b82525050565b6102dc816103f2565b82525050565b60006102ed826103b8565b6102f781856103c3565b9350610307818560208601610429565b610310816104ec565b840191505092915050565b6103248161041c565b82525050565b600060208201905061033f60008301846102b5565b92915050565b600060208201905061035a60008301846102c4565b92915050565b600060208201905061037560008301846102d3565b92915050565b6000602082019050818103600083015261039581846102e2565b905092915050565b60006020820190506103b2600083018461031b565b92915050565b600081519050919050565b600082825260208201905092915050565b60006103df826103fc565b9050919050565b60008115159050919050565b6000819050919050565b600073ffffffffffffffffffffffffffffffffffffffff82169050919050565b600060ff82169050919050565b60005b8381101561044757808201518184015260208101905061042c565b83811115610456576000848401525b50505050565b6000600282049050600182168061047457607f821691505b60208210811415610488576104876104bd565b5b50919050565b7f4e487b7100000000000000000000000000000000000000000000000000000000600052602160045260246000fd5b7f4e487b7100000000000000000000000000000000000000000000000000000000600052602260045260246000fd5b6000601f19601f830116905091905056fea26469706673582212206559d75cd8ddb0a5d2154caa98739a4bc88586f292b8b2b1d917a271a550fb6364736f6c63430008060033",
					"opcodes": "PUSH1 0x80 PUSH1 0x40 MSTORE PUSH1 0x4 PUSH1 0x0 PUSH1 0x1 PUSH2 0x100 EXP DUP2 SLOAD DUP2 PUSH1 0xFF MUL NOT AND SWAP1 DUP4 PUSH1 0xFF AND MUL OR SWAP1 SSTORE POP PUSH32 0xFFFFFFFFFFFFFFFFFFFFFFFFFFFFFFFFFFFFFFFFFFFFFFFFFFFFFFFFFFFFFFFF PUSH1 0x2 PUSH1 0x0 PUSH2 0x100 EXP DUP2 SLOAD DUP2 PUSH1 0xFF MUL NOT AND SWAP1 DUP4 PUSH1 0x0 SIGNEXTEND PUSH1 0xFF AND MUL OR SWAP1 SSTORE POP PUSH1 0x34 PUSH1 0x3 SSTORE PUSH1 0x40 MLOAD DUP1 PUSH1 0x40 ADD PUSH1 0x40 MSTORE DUP1 PUSH1 0xF DUP2 MSTORE PUSH1 0x20 ADD PUSH32 0x6573746F206573207075626C69636F0000000000000000000000000000000000 DUP2 MSTORE POP PUSH1 0x4 SWAP1 DUP1 MLOAD SWAP1 PUSH1 0x20 ADD SWAP1 PUSH2 0xAE SWAP3 SWAP2 SWAP1 PUSH2 0x201 JUMP JUMPDEST POP PUSH1 0x40 MLOAD DUP1 PUSH1 0x40 ADD PUSH1 0x40 MSTORE DUP1 PUSH1 0xF DUP2 MSTORE PUSH1 0x20 ADD PUSH32 0x6573746F206573207072697661646F0000000000000000000000000000000000 DUP2 MSTORE POP PUSH1 0x5 SWAP1 DUP1 MLOAD SWAP1 PUSH1 0x20 ADD SWAP1 PUSH2 0xFA SWAP3 SWAP2 SWAP1 PUSH2 0x201 JUMP JUMPDEST POP PUSH1 0x1 PUSH1 0x6 PUSH1 0x0 PUSH2 0x100 EXP DUP2 SLOAD DUP2 PUSH1 0xFF MUL NOT AND SWAP1 DUP4 ISZERO ISZERO MUL OR SWAP1 SSTORE POP PUSH1 0x0 PUSH1 0x6 PUSH1 0x1 PUSH2 0x100 EXP DUP2 SLOAD DUP2 PUSH1 0xFF MUL NOT AND SWAP1 DUP4 ISZERO ISZERO MUL OR SWAP1 SSTORE POP PUSH1 0x40 MLOAD PUSH1 0x20 ADD PUSH2 0x140 SWAP1 PUSH2 0x2EA JUMP JUMPDEST PUSH1 0x40 MLOAD PUSH1 0x20 DUP2 DUP4 SUB SUB DUP2 MSTORE SWAP1 PUSH1 0x40 MSTORE DUP1 MLOAD SWAP1 PUSH1 0x20 ADD KECCAK256 PUSH1 0x8 SSTORE PUSH20 0x5B38DA6A701C568545DCFCB03FCB875F56BEDDC4 PUSH1 0xA PUSH1 0x0 PUSH2 0x100 EXP DUP2 SLOAD DUP2 PUSH20 0xFFFFFFFFFFFFFFFFFFFFFFFFFFFFFFFFFFFFFFFF MUL NOT AND SWAP1 DUP4 PUSH20 0xFFFFFFFFFFFFFFFFFFFFFFFFFFFFFFFFFFFFFFFF AND MUL OR SWAP1 SSTORE POP CALLER PUSH1 0xB PUSH1 0x0 PUSH2 0x100 EXP DUP2 SLOAD DUP2 PUSH20 0xFFFFFFFFFFFFFFFFFFFFFFFFFFFFFFFFFFFFFFFF MUL NOT AND SWAP1 DUP4 PUSH20 0xFFFFFFFFFFFFFFFFFFFFFFFFFFFFFFFFFFFFFFFF AND MUL OR SWAP1 SSTORE POP CALLVALUE DUP1 ISZERO PUSH2 0x1FB JUMPI PUSH1 0x0 DUP1 REVERT JUMPDEST POP PUSH2 0x3C8 JUMP JUMPDEST DUP3 DUP1 SLOAD PUSH2 0x20D SWAP1 PUSH2 0x315 JUMP JUMPDEST SWAP1 PUSH1 0x0 MSTORE PUSH1 0x20 PUSH1 0x0 KECCAK256 SWAP1 PUSH1 0x1F ADD PUSH1 0x20 SWAP1 DIV DUP2 ADD SWAP3 DUP3 PUSH2 0x22F JUMPI PUSH1 0x0 DUP6 SSTORE PUSH2 0x276 JUMP JUMPDEST DUP3 PUSH1 0x1F LT PUSH2 0x248 JUMPI DUP1 MLOAD PUSH1 0xFF NOT AND DUP4 DUP1 ADD OR DUP6 SSTORE PUSH2 0x276 JUMP JUMPDEST DUP3 DUP1 ADD PUSH1 0x1 ADD DUP6 SSTORE DUP3 ISZERO PUSH2 0x276 JUMPI SWAP2 DUP3 ADD JUMPDEST DUP3 DUP2 GT ISZERO PUSH2 0x275 JUMPI DUP3 MLOAD DUP3 SSTORE SWAP2 PUSH1 0x20 ADD SWAP2 SWAP1 PUSH1 0x1 ADD SWAP1 PUSH2 0x25A JUMP JUMPDEST JUMPDEST POP SWAP1 POP PUSH2 0x283 SWAP2 SWAP1 PUSH2 0x287 JUMP JUMPDEST POP SWAP1 JUMP JUMPDEST JUMPDEST DUP1 DUP3 GT ISZERO PUSH2 0x2A0 JUMPI PUSH1 0x0 DUP2 PUSH1 0x0 SWAP1 SSTORE POP PUSH1 0x1 ADD PUSH2 0x288 JUMP JUMPDEST POP SWAP1 JUMP JUMPDEST PUSH1 0x0 PUSH2 0x2B1 PUSH1 0x5 DUP4 PUSH2 0x30A JUMP JUMPDEST SWAP2 POP PUSH2 0x2BC DUP3 PUSH2 0x376 JUMP JUMPDEST PUSH1 0x5 DUP3 ADD SWAP1 POP SWAP2 SWAP1 POP JUMP JUMPDEST PUSH1 0x0 PUSH2 0x2D4 PUSH1 0x3 DUP4 PUSH2 0x30A JUMP JUMPDEST SWAP2 POP PUSH2 0x2DF DUP3 PUSH2 0x39F JUMP JUMPDEST PUSH1 0x3 DUP3 ADD SWAP1 POP SWAP2 SWAP1 POP JUMP JUMPDEST PUSH1 0x0 PUSH2 0x2F5 DUP3 PUSH2 0x2A4 JUMP JUMPDEST SWAP2 POP PUSH2 0x300 DUP3 PUSH2 0x2C7 JUMP JUMPDEST SWAP2 POP DUP2 SWAP1 POP SWAP2 SWAP1 POP JUMP JUMPDEST PUSH1 0x0 DUP2 SWAP1 POP SWAP3 SWAP2 POP POP JUMP JUMPDEST PUSH1 0x0 PUSH1 0x2 DUP3 DIV SWAP1 POP PUSH1 0x1 DUP3 AND DUP1 PUSH2 0x32D JUMPI PUSH1 0x7F DUP3 AND SWAP2 POP JUMPDEST PUSH1 0x20 DUP3 LT DUP2 EQ ISZERO PUSH2 0x341 JUMPI PUSH2 0x340 PUSH2 0x347 JUMP JUMPDEST JUMPDEST POP SWAP2 SWAP1 POP JUMP JUMPDEST PUSH32 0x4E487B7100000000000000000000000000000000000000000000000000000000 PUSH1 0x0 MSTORE PUSH1 0x22 PUSH1 0x4 MSTORE PUSH1 0x24 PUSH1 0x0 REVERT JUMPDEST PUSH32 0x68656C6C6F000000000000000000000000000000000000000000000000000000 PUSH1 0x0 DUP3 ADD MSTORE POP JUMP JUMPDEST PUSH32 0x6C69610000000000000000000000000000000000000000000000000000000000 PUSH1 0x0 DUP3 ADD MSTORE POP JUMP JUMPDEST PUSH2 0x533 DUP1 PUSH2 0x3D7 PUSH1 0x0 CODECOPY PUSH1 0x0 RETURN INVALID PUSH1 0x80 PUSH1 0x40 MSTORE CALLVALUE DUP1 ISZERO PUSH2 0x10 JUMPI PUSH1 0x0 DUP1 REVERT JUMPDEST POP PUSH1 0x4 CALLDATASIZE LT PUSH2 0x88 JUMPI PUSH1 0x0 CALLDATALOAD PUSH1 0xE0 SHR DUP1 PUSH4 0xA2BDCC8C GT PUSH2 0x5B JUMPI DUP1 PUSH4 0xA2BDCC8C EQ PUSH2 0xF1 JUMPI DUP1 PUSH4 0xAD0A93BC EQ PUSH2 0xFB JUMPI DUP1 PUSH4 0xC15BAE84 EQ PUSH2 0x119 JUMPI DUP1 PUSH4 0xCD97D84E EQ PUSH2 0x137 JUMPI PUSH2 0x88 JUMP JUMPDEST DUP1 PUSH4 0x1216D176 EQ PUSH2 0x8D JUMPI DUP1 PUSH4 0x312A4C9C EQ PUSH2 0xAB JUMPI DUP1 PUSH4 0x4DF7E3D0 EQ PUSH2 0xC9 JUMPI DUP1 PUSH4 0x7C3BAA18 EQ PUSH2 0xE7 JUMPI JUMPDEST PUSH1 0x0 DUP1 REVERT JUMPDEST PUSH2 0x95 PUSH2 0x155 JUMP JUMPDEST PUSH1 0x40 MLOAD PUSH2 0xA2 SWAP2 SWAP1 PUSH2 0x32A JUMP JUMPDEST PUSH1 0x40 MLOAD DUP1 SWAP2 SUB SWAP1 RETURN JUMPDEST PUSH2 0xB3 PUSH2 0x17B JUMP JUMPDEST PUSH1 0x40 MLOAD PUSH2 0xC0 SWAP2 SWAP1 PUSH2 0x345 JUMP JUMPDEST PUSH1 0x40 MLOAD DUP1 SWAP2 SUB SWAP1 RETURN JUMPDEST PUSH2 0xD1 PUSH2 0x18E JUMP JUMPDEST PUSH1 0x40 MLOAD PUSH2 0xDE SWAP2 SWAP1 PUSH2 0x39D JUMP JUMPDEST PUSH1 0x40 MLOAD DUP1 SWAP2 SUB SWAP1 RETURN JUMPDEST PUSH2 0xEF PUSH2 0x1A1 JUMP JUMPDEST STOP JUMPDEST PUSH2 0xF9 PUSH2 0x1CE JUMP JUMPDEST STOP JUMPDEST PUSH2 0x103 PUSH2 0x1FB JUMP JUMPDEST PUSH1 0x40 MLOAD PUSH2 0x110 SWAP2 SWAP1 PUSH2 0x32A JUMP JUMPDEST PUSH1 0x40 MLOAD DUP1 SWAP2 SUB SWAP1 RETURN JUMPDEST PUSH2 0x121 PUSH2 0x221 JUMP JUMPDEST PUSH1 0x40 MLOAD PUSH2 0x12E SWAP2 SWAP1 PUSH2 0x37B JUMP JUMPDEST PUSH1 0x40 MLOAD DUP1 SWAP2 SUB SWAP1 RETURN JUMPDEST PUSH2 0x13F PUSH2 0x2AF JUMP JUMPDEST PUSH1 0x40 MLOAD PUSH2 0x14C SWAP2 SWAP1 PUSH2 0x360 JUMP JUMPDEST PUSH1 0x40 MLOAD DUP1 SWAP2 SUB SWAP1 RETURN JUMPDEST PUSH1 0xB PUSH1 0x0 SWAP1 SLOAD SWAP1 PUSH2 0x100 EXP SWAP1 DIV PUSH20 0xFFFFFFFFFFFFFFFFFFFFFFFFFFFFFFFFFFFFFFFF AND DUP2 JUMP JUMPDEST PUSH1 0x6 PUSH1 0x0 SWAP1 SLOAD SWAP1 PUSH2 0x100 EXP SWAP1 DIV PUSH1 0xFF AND DUP2 JUMP JUMPDEST PUSH1 0x0 PUSH1 0x1 SWAP1 SLOAD SWAP1 PUSH2 0x100 EXP SWAP1 DIV PUSH1 0xFF AND DUP2 JUMP JUMPDEST PUSH1 0x0 PUSH1 0xB PUSH1 0x14 PUSH2 0x100 EXP DUP2 SLOAD DUP2 PUSH1 0xFF MUL NOT AND SWAP1 DUP4 PUSH1 0x1 DUP2 GT ISZERO PUSH2 0x1C7 JUMPI PUSH2 0x1C6 PUSH2 0x48E JUMP JUMPDEST JUMPDEST MUL OR SWAP1 SSTORE POP JUMP JUMPDEST PUSH1 0x0 PUSH1 0xB PUSH1 0x14 PUSH2 0x100 EXP DUP2 SLOAD DUP2 PUSH1 0xFF MUL NOT AND SWAP1 DUP4 PUSH1 0x1 DUP2 GT ISZERO PUSH2 0x1F4 JUMPI PUSH2 0x1F3 PUSH2 0x48E JUMP JUMPDEST JUMPDEST MUL OR SWAP1 SSTORE POP JUMP JUMPDEST PUSH1 0xA PUSH1 0x0 SWAP1 SLOAD SWAP1 PUSH2 0x100 EXP SWAP1 DIV PUSH20 0xFFFFFFFFFFFFFFFFFFFFFFFFFFFFFFFFFFFFFFFF AND DUP2 JUMP JUMPDEST PUSH1 0x4 DUP1 SLOAD PUSH2 0x22E SWAP1 PUSH2 0x45C JUMP JUMPDEST DUP1 PUSH1 0x1F ADD PUSH1 0x20 DUP1 SWAP2 DIV MUL PUSH1 0x20 ADD PUSH1 0x40 MLOAD SWAP1 DUP2 ADD PUSH1 0x40 MSTORE DUP1 SWAP3 SWAP2 SWAP1 DUP2 DUP2 MSTORE PUSH1 0x20 ADD DUP3 DUP1 SLOAD PUSH2 0x25A SWAP1 PUSH2 0x45C JUMP JUMPDEST DUP1 ISZERO PUSH2 0x2A7 JUMPI DUP1 PUSH1 0x1F LT PUSH2 0x27C JUMPI PUSH2 0x100 DUP1 DUP4 SLOAD DIV MUL DUP4 MSTORE SWAP2 PUSH1 0x20 ADD SWAP2 PUSH2 0x2A7 JUMP JUMPDEST DUP3 ADD SWAP2 SWAP1 PUSH1 0x0 MSTORE PUSH1 0x20 PUSH1 0x0 KECCAK256 SWAP1 JUMPDEST DUP2 SLOAD DUP2 MSTORE SWAP1 PUSH1 0x1 ADD SWAP1 PUSH1 0x20 ADD DUP1 DUP4 GT PUSH2 0x28A JUMPI DUP3 SWAP1 SUB PUSH1 0x1F AND DUP3 ADD SWAP2 JUMPDEST POP POP POP POP POP DUP2 JUMP JUMPDEST PUSH1 0x8 SLOAD DUP2 JUMP JUMPDEST PUSH2 0x2BE DUP2 PUSH2 0x3D4 JUMP JUMPDEST DUP3 MSTORE POP POP JUMP JUMPDEST PUSH2 0x2CD DUP2 PUSH2 0x3E6 JUMP JUMPDEST DUP3 MSTORE POP POP JUMP JUMPDEST PUSH2 0x2DC DUP2 PUSH2 0x3F2 JUMP JUMPDEST DUP3 MSTORE POP POP JUMP JUMPDEST PUSH1 0x0 PUSH2 0x2ED DUP3 PUSH2 0x3B8 JUMP JUMPDEST PUSH2 0x2F7 DUP2 DUP6 PUSH2 0x3C3 JUMP JUMPDEST SWAP4 POP PUSH2 0x307 DUP2 DUP6 PUSH1 0x20 DUP7 ADD PUSH2 0x429 JUMP JUMPDEST PUSH2 0x310 DUP2 PUSH2 0x4EC JUMP JUMPDEST DUP5 ADD SWAP2 POP POP SWAP3 SWAP2 POP POP JUMP JUMPDEST PUSH2 0x324 DUP2 PUSH2 0x41C JUMP JUMPDEST DUP3 MSTORE POP POP JUMP JUMPDEST PUSH1 0x0 PUSH1 0x20 DUP3 ADD SWAP1 POP PUSH2 0x33F PUSH1 0x0 DUP4 ADD DUP5 PUSH2 0x2B5 JUMP JUMPDEST SWAP3 SWAP2 POP POP JUMP JUMPDEST PUSH1 0x0 PUSH1 0x20 DUP3 ADD SWAP1 POP PUSH2 0x35A PUSH1 0x0 DUP4 ADD DUP5 PUSH2 0x2C4 JUMP JUMPDEST SWAP3 SWAP2 POP POP JUMP JUMPDEST PUSH1 0x0 PUSH1 0x20 DUP3 ADD SWAP1 POP PUSH2 0x375 PUSH1 0x0 DUP4 ADD DUP5 PUSH2 0x2D3 JUMP JUMPDEST SWAP3 SWAP2 POP POP JUMP JUMPDEST PUSH1 0x0 PUSH1 0x20 DUP3 ADD SWAP1 POP DUP2 DUP2 SUB PUSH1 0x0 DUP4 ADD MSTORE PUSH2 0x395 DUP2 DUP5 PUSH2 0x2E2 JUMP JUMPDEST SWAP1 POP SWAP3 SWAP2 POP POP JUMP JUMPDEST PUSH1 0x0 PUSH1 0x20 DUP3 ADD SWAP1 POP PUSH2 0x3B2 PUSH1 0x0 DUP4 ADD DUP5 PUSH2 0x31B JUMP JUMPDEST SWAP3 SWAP2 POP POP JUMP JUMPDEST PUSH1 0x0 DUP2 MLOAD SWAP1 POP SWAP2 SWAP1 POP JUMP JUMPDEST PUSH1 0x0 DUP3 DUP3 MSTORE PUSH1 0x20 DUP3 ADD SWAP1 POP SWAP3 SWAP2 POP POP JUMP JUMPDEST PUSH1 0x0 PUSH2 0x3DF DUP3 PUSH2 0x3FC JUMP JUMPDEST SWAP1 POP SWAP2 SWAP1 POP JUMP JUMPDEST PUSH1 0x0 DUP2 ISZERO ISZERO SWAP1 POP SWAP2 SWAP1 POP JUMP JUMPDEST PUSH1 0x0 DUP2 SWAP1 POP SWAP2 SWAP1 POP JUMP JUMPDEST PUSH1 0x0 PUSH20 0xFFFFFFFFFFFFFFFFFFFFFFFFFFFFFFFFFFFFFFFF DUP3 AND SWAP1 POP SWAP2 SWAP1 POP JUMP JUMPDEST PUSH1 0x0 PUSH1 0xFF DUP3 AND SWAP1 POP SWAP2 SWAP1 POP JUMP JUMPDEST PUSH1 0x0 JUMPDEST DUP4 DUP2 LT ISZERO PUSH2 0x447 JUMPI DUP1 DUP3 ADD MLOAD DUP2 DUP5 ADD MSTORE PUSH1 0x20 DUP2 ADD SWAP1 POP PUSH2 0x42C JUMP JUMPDEST DUP4 DUP2 GT ISZERO PUSH2 0x456 JUMPI PUSH1 0x0 DUP5 DUP5 ADD MSTORE JUMPDEST POP POP POP POP JUMP JUMPDEST PUSH1 0x0 PUSH1 0x2 DUP3 DIV SWAP1 POP PUSH1 0x1 DUP3 AND DUP1 PUSH2 0x474 JUMPI PUSH1 0x7F DUP3 AND SWAP2 POP JUMPDEST PUSH1 0x20 DUP3 LT DUP2 EQ ISZERO PUSH2 0x488 JUMPI PUSH2 0x487 PUSH2 0x4BD JUMP JUMPDEST JUMPDEST POP SWAP2 SWAP1 POP JUMP JUMPDEST PUSH32 0x4E487B7100000000000000000000000000000000000000000000000000000000 PUSH1 0x0 MSTORE PUSH1 0x21 PUSH1 0x4 MSTORE PUSH1 0x24 PUSH1 0x0 REVERT JUMPDEST PUSH32 0x4E487B7100000000000000000000000000000000000000000000000000000000 PUSH1 0x0 MSTORE PUSH1 0x22 PUSH1 0x4 MSTORE PUSH1 0x24 PUSH1 0x0 REVERT JUMPDEST PUSH1 0x0 PUSH1 0x1F NOT PUSH1 0x1F DUP4 ADD AND SWAP1 POP SWAP2 SWAP1 POP JUMP INVALID LOG2 PUSH5 0x6970667358 0x22 SLT KECCAK256 PUSH6 0x59D75CD8DDB0 0xA5 0xD2 ISZERO 0x4C 0xAA SWAP9 PUSH20 0x9A4BC88586F292B8B2B1D917A271A550FB636473 PUSH16 0x6C634300080600330000000000000000 "
				},
				"gasEstimates": {
					"creation": {
						"codeDepositCost": "266200",
						"executionCost": "infinite",
						"totalCost": "infinite"
					},
					"external": {
						"_true()": "2494",
						"address_1()": "2536",
						"address_2()": "2515",
						"b()": "2566",
						"hashing()": "2495",
						"str()": "infinite",
						"trueOFF()": "24548",
						"trueOn()": "24481"
					}
				},
				"methodIdentifiers": {
					"_true()": "312a4c9c",
					"address_1()": "ad0a93bc",
					"address_2()": "1216d176",
					"b()": "4df7e3d0",
					"hashing()": "cd97d84e",
					"str()": "c15bae84",
					"trueOFF()": "7c3baa18",
					"trueOn()": "a2bdcc8c"
				}
			},
			"storageLayout": {
				"storage": [
					{
						"astId": 3,
						"contract": "Contracts/tiposVariable.sol:Variables_modifiers",
						"label": "a",
						"offset": 0,
						"slot": "0",
						"type": "t_uint8"
					},
					{
						"astId": 6,
						"contract": "Contracts/tiposVariable.sol:Variables_modifiers",
						"label": "b",
						"offset": 1,
						"slot": "0",
						"type": "t_uint8"
					},
					{
						"astId": 8,
						"contract": "Contracts/tiposVariable.sol:Variables_modifiers",
						"label": "c",
						"offset": 0,
						"slot": "1",
						"type": "t_int256"
					},
					{
						"astId": 12,
						"contract": "Contracts/tiposVariable.sol:Variables_modifiers",
						"label": "d",
						"offset": 0,
						"slot": "2",
						"type": "t_int8"
					},
					{
						"astId": 15,
						"contract": "Contracts/tiposVariable.sol:Variables_modifiers",
						"label": "e",
						"offset": 0,
						"slot": "3",
						"type": "t_int256"
					},
					{
						"astId": 18,
						"contract": "Contracts/tiposVariable.sol:Variables_modifiers",
						"label": "str",
						"offset": 0,
						"slot": "4",
						"type": "t_string_storage"
					},
					{
						"astId": 21,
						"contract": "Contracts/tiposVariable.sol:Variables_modifiers",
						"label": "str1",
						"offset": 0,
						"slot": "5",
						"type": "t_string_storage"
					},
					{
						"astId": 24,
						"contract": "Contracts/tiposVariable.sol:Variables_modifiers",
						"label": "_true",
						"offset": 0,
						"slot": "6",
						"type": "t_bool"
					},
					{
						"astId": 27,
						"contract": "Contracts/tiposVariable.sol:Variables_modifiers",
						"label": "_false",
						"offset": 1,
						"slot": "6",
						"type": "t_bool"
					},
					{
						"astId": 29,
						"contract": "Contracts/tiposVariable.sol:Variables_modifiers",
						"label": "first_byte",
						"offset": 0,
						"slot": "7",
						"type": "t_bytes_storage"
					},
					{
						"astId": 38,
						"contract": "Contracts/tiposVariable.sol:Variables_modifiers",
						"label": "hashing",
						"offset": 0,
						"slot": "8",
						"type": "t_bytes32"
					},
					{
						"astId": 40,
						"contract": "Contracts/tiposVariable.sol:Variables_modifiers",
						"label": "my_address",
						"offset": 0,
						"slot": "9",
						"type": "t_address"
					},
					{
						"astId": 43,
						"contract": "Contracts/tiposVariable.sol:Variables_modifiers",
						"label": "address_1",
						"offset": 0,
						"slot": "10",
						"type": "t_address"
					},
					{
						"astId": 47,
						"contract": "Contracts/tiposVariable.sol:Variables_modifiers",
						"label": "address_2",
						"offset": 0,
						"slot": "11",
						"type": "t_address"
					},
					{
						"astId": 53,
						"contract": "Contracts/tiposVariable.sol:Variables_modifiers",
						"label": "state",
						"offset": 20,
						"slot": "11",
						"type": "t_enum(options)50"
					}
				],
				"types": {
					"t_address": {
						"encoding": "inplace",
						"label": "address",
						"numberOfBytes": "20"
					},
					"t_bool": {
						"encoding": "inplace",
						"label": "bool",
						"numberOfBytes": "1"
					},
					"t_bytes32": {
						"encoding": "inplace",
						"label": "bytes32",
						"numberOfBytes": "32"
					},
					"t_bytes_storage": {
						"encoding": "bytes",
						"label": "bytes",
						"numberOfBytes": "32"
					},
					"t_enum(options)50": {
						"encoding": "inplace",
						"label": "enum Variables_modifiers.options",
						"numberOfBytes": "1"
					},
					"t_int256": {
						"encoding": "inplace",
						"label": "int256",
						"numberOfBytes": "32"
					},
					"t_int8": {
						"encoding": "inplace",
						"label": "int8",
						"numberOfBytes": "1"
					},
					"t_string_storage": {
						"encoding": "bytes",
						"label": "string",
						"numberOfBytes": "32"
					},
					"t_uint8": {
						"encoding": "inplace",
						"label": "uint8",
						"numberOfBytes": "1"
					}
				}
			},
			"userdoc": {
				"kind": "user",
				"methods": {},
				"version": 1
			}
		}
	}
}