{
	"Contracts/functiones.sol": {
		"functiones": {
			"abi": [
				{
					"inputs": [],
					"name": "getName",
					"outputs": [
						{
							"internalType": "string",
							"name": "",
							"type": "string"
						}
					],
					"stateMutability": "pure",
					"type": "function"
				},
				{
					"inputs": [],
					"name": "getNumber",
					"outputs": [
						{
							"internalType": "uint256",
							"name": "",
							"type": "uint256"
						}
					],
					"stateMutability": "view",
					"type": "function"
				}
			],
			"devdoc": {
				"kind": "dev",
				"methods": {},
				"version": 1
			},
			"evm": {
				"assembly": "    /* \"Contracts/functiones.sol\":83:482  contract functiones {\r... */\n  mstore(0x40, 0x80)\n    /* \"Contracts/functiones.sol\":391:394  100 */\n  0x64\n    /* \"Contracts/functiones.sol\":382:394  uint x = 100 */\n  0x00\n  sstore\n    /* \"Contracts/functiones.sol\":83:482  contract functiones {\r... */\n  callvalue\n  dup1\n  iszero\n  tag_1\n  jumpi\n  0x00\n  dup1\n  revert\ntag_1:\n  pop\n  dataSize(sub_0)\n  dup1\n  dataOffset(sub_0)\n  0x00\n  codecopy\n  0x00\n  return\nstop\n\nsub_0: assembly {\n        /* \"Contracts/functiones.sol\":83:482  contract functiones {\r... */\n      mstore(0x40, 0x80)\n      callvalue\n      dup1\n      iszero\n      tag_1\n      jumpi\n      0x00\n      dup1\n      revert\n    tag_1:\n      pop\n      jumpi(tag_2, lt(calldatasize, 0x04))\n      shr(0xe0, calldataload(0x00))\n      dup1\n      0x17d7de7c\n      eq\n      tag_3\n      jumpi\n      dup1\n      0xf2c9ecd8\n      eq\n      tag_4\n      jumpi\n    tag_2:\n      0x00\n      dup1\n      revert\n        /* \"Contracts/functiones.sol\":203:289  function getName() public pure returns (string memory) {\r... */\n    tag_3:\n      tag_5\n      tag_6\n      jump\t// in\n    tag_5:\n      mload(0x40)\n      tag_7\n      swap2\n      swap1\n      tag_8\n      jump\t// in\n    tag_7:\n      mload(0x40)\n      dup1\n      swap2\n      sub\n      swap1\n      return\n        /* \"Contracts/functiones.sol\":401:477  function getNumber() public view returns (uint){\r... */\n    tag_4:\n      tag_9\n      tag_10\n      jump\t// in\n    tag_9:\n      mload(0x40)\n      tag_11\n      swap2\n      swap1\n      tag_12\n      jump\t// in\n    tag_11:\n      mload(0x40)\n      dup1\n      swap2\n      sub\n      swap1\n      return\n        /* \"Contracts/functiones.sol\":203:289  function getName() public pure returns (string memory) {\r... */\n    tag_6:\n        /* \"Contracts/functiones.sol\":243:256  string memory */\n      0x60\n        /* \"Contracts/functiones.sol\":269:281  return \"lia\" */\n      mload(0x40)\n      dup1\n      0x40\n      add\n      0x40\n      mstore\n      dup1\n      0x03\n      dup2\n      mstore\n      0x20\n      add\n      0x6c69610000000000000000000000000000000000000000000000000000000000\n      dup2\n      mstore\n      pop\n      swap1\n      pop\n        /* \"Contracts/functiones.sol\":203:289  function getName() public pure returns (string memory) {\r... */\n      swap1\n      jump\t// out\n        /* \"Contracts/functiones.sol\":401:477  function getNumber() public view returns (uint){\r... */\n    tag_10:\n        /* \"Contracts/functiones.sol\":443:447  uint */\n      0x00\n        /* \"Contracts/functiones.sol\":468:469  2 */\n      0x02\n        /* \"Contracts/functiones.sol\":466:467  x */\n      sload(0x00)\n        /* \"Contracts/functiones.sol\":466:469  x*2 */\n      tag_15\n      swap2\n      swap1\n      tag_16\n      jump\t// in\n    tag_15:\n        /* \"Contracts/functiones.sol\":459:469  return x*2 */\n      swap1\n      pop\n        /* \"Contracts/functiones.sol\":401:477  function getNumber() public view returns (uint){\r... */\n      swap1\n      jump\t// out\n        /* \"#utility.yul\":7:371   */\n    tag_18:\n        /* \"#utility.yul\":95:98   */\n      0x00\n        /* \"#utility.yul\":123:162   */\n      tag_20\n        /* \"#utility.yul\":156:161   */\n      dup3\n        /* \"#utility.yul\":123:162   */\n      tag_21\n      jump\t// in\n    tag_20:\n        /* \"#utility.yul\":178:249   */\n      tag_22\n        /* \"#utility.yul\":242:248   */\n      dup2\n        /* \"#utility.yul\":237:240   */\n      dup6\n        /* \"#utility.yul\":178:249   */\n      tag_23\n      jump\t// in\n    tag_22:\n        /* \"#utility.yul\":171:249   */\n      swap4\n      pop\n        /* \"#utility.yul\":258:310   */\n      tag_24\n        /* \"#utility.yul\":303:309   */\n      dup2\n        /* \"#utility.yul\":298:301   */\n      dup6\n        /* \"#utility.yul\":291:295   */\n      0x20\n        /* \"#utility.yul\":284:289   */\n      dup7\n        /* \"#utility.yul\":280:296   */\n      add\n        /* \"#utility.yul\":258:310   */\n      tag_25\n      jump\t// in\n    tag_24:\n        /* \"#utility.yul\":335:364   */\n      tag_26\n        /* \"#utility.yul\":357:363   */\n      dup2\n        /* \"#utility.yul\":335:364   */\n      tag_27\n      jump\t// in\n    tag_26:\n        /* \"#utility.yul\":330:333   */\n      dup5\n        /* \"#utility.yul\":326:365   */\n      add\n        /* \"#utility.yul\":319:365   */\n      swap2\n      pop\n        /* \"#utility.yul\":99:371   */\n      pop\n        /* \"#utility.yul\":7:371   */\n      swap3\n      swap2\n      pop\n      pop\n      jump\t// out\n        /* \"#utility.yul\":377:495   */\n    tag_28:\n        /* \"#utility.yul\":464:488   */\n      tag_30\n        /* \"#utility.yul\":482:487   */\n      dup2\n        /* \"#utility.yul\":464:488   */\n      tag_31\n      jump\t// in\n    tag_30:\n        /* \"#utility.yul\":459:462   */\n      dup3\n        /* \"#utility.yul\":452:489   */\n      mstore\n        /* \"#utility.yul\":377:495   */\n      pop\n      pop\n      jump\t// out\n        /* \"#utility.yul\":501:814   */\n    tag_8:\n        /* \"#utility.yul\":614:618   */\n      0x00\n        /* \"#utility.yul\":652:654   */\n      0x20\n        /* \"#utility.yul\":641:650   */\n      dup3\n        /* \"#utility.yul\":637:655   */\n      add\n        /* \"#utility.yul\":629:655   */\n      swap1\n      pop\n        /* \"#utility.yul\":701:710   */\n      dup2\n        /* \"#utility.yul\":695:699   */\n      dup2\n        /* \"#utility.yul\":691:711   */\n      sub\n        /* \"#utility.yul\":687:688   */\n      0x00\n        /* \"#utility.yul\":676:685   */\n      dup4\n        /* \"#utility.yul\":672:689   */\n      add\n        /* \"#utility.yul\":665:712   */\n      mstore\n        /* \"#utility.yul\":729:807   */\n      tag_33\n        /* \"#utility.yul\":802:806   */\n      dup2\n        /* \"#utility.yul\":793:799   */\n      dup5\n        /* \"#utility.yul\":729:807   */\n      tag_18\n      jump\t// in\n    tag_33:\n        /* \"#utility.yul\":721:807   */\n      swap1\n      pop\n        /* \"#utility.yul\":501:814   */\n      swap3\n      swap2\n      pop\n      pop\n      jump\t// out\n        /* \"#utility.yul\":820:1042   */\n    tag_12:\n        /* \"#utility.yul\":913:917   */\n      0x00\n        /* \"#utility.yul\":951:953   */\n      0x20\n        /* \"#utility.yul\":940:949   */\n      dup3\n        /* \"#utility.yul\":936:954   */\n      add\n        /* \"#utility.yul\":928:954   */\n      swap1\n      pop\n        /* \"#utility.yul\":964:1035   */\n      tag_35\n        /* \"#utility.yul\":1032:1033   */\n      0x00\n        /* \"#utility.yul\":1021:1030   */\n      dup4\n        /* \"#utility.yul\":1017:1034   */\n      add\n        /* \"#utility.yul\":1008:1014   */\n      dup5\n        /* \"#utility.yul\":964:1035   */\n      tag_28\n      jump\t// in\n    tag_35:\n        /* \"#utility.yul\":820:1042   */\n      swap3\n      swap2\n      pop\n      pop\n      jump\t// out\n        /* \"#utility.yul\":1048:1147   */\n    tag_21:\n        /* \"#utility.yul\":1100:1106   */\n      0x00\n        /* \"#utility.yul\":1134:1139   */\n      dup2\n        /* \"#utility.yul\":1128:1140   */\n      mload\n        /* \"#utility.yul\":1118:1140   */\n      swap1\n      pop\n        /* \"#utility.yul\":1048:1147   */\n      swap2\n      swap1\n      pop\n      jump\t// out\n        /* \"#utility.yul\":1153:1322   */\n    tag_23:\n        /* \"#utility.yul\":1237:1248   */\n      0x00\n        /* \"#utility.yul\":1271:1277   */\n      dup3\n        /* \"#utility.yul\":1266:1269   */\n      dup3\n        /* \"#utility.yul\":1259:1278   */\n      mstore\n        /* \"#utility.yul\":1311:1315   */\n      0x20\n        /* \"#utility.yul\":1306:1309   */\n      dup3\n        /* \"#utility.yul\":1302:1316   */\n      add\n        /* \"#utility.yul\":1287:1316   */\n      swap1\n      pop\n        /* \"#utility.yul\":1153:1322   */\n      swap3\n      swap2\n      pop\n      pop\n      jump\t// out\n        /* \"#utility.yul\":1328:1676   */\n    tag_16:\n        /* \"#utility.yul\":1368:1375   */\n      0x00\n        /* \"#utility.yul\":1391:1411   */\n      tag_39\n        /* \"#utility.yul\":1409:1410   */\n      dup3\n        /* \"#utility.yul\":1391:1411   */\n      tag_31\n      jump\t// in\n    tag_39:\n        /* \"#utility.yul\":1386:1411   */\n      swap2\n      pop\n        /* \"#utility.yul\":1425:1445   */\n      tag_40\n        /* \"#utility.yul\":1443:1444   */\n      dup4\n        /* \"#utility.yul\":1425:1445   */\n      tag_31\n      jump\t// in\n    tag_40:\n        /* \"#utility.yul\":1420:1445   */\n      swap3\n      pop\n        /* \"#utility.yul\":1613:1614   */\n      dup2\n        /* \"#utility.yul\":1545:1611   */\n      0xffffffffffffffffffffffffffffffffffffffffffffffffffffffffffffffff\n        /* \"#utility.yul\":1541:1615   */\n      div\n        /* \"#utility.yul\":1538:1539   */\n      dup4\n        /* \"#utility.yul\":1535:1616   */\n      gt\n        /* \"#utility.yul\":1530:1531   */\n      dup3\n        /* \"#utility.yul\":1523:1532   */\n      iszero\n        /* \"#utility.yul\":1516:1533   */\n      iszero\n        /* \"#utility.yul\":1512:1617   */\n      and\n        /* \"#utility.yul\":1509:1640   */\n      iszero\n      tag_41\n      jumpi\n        /* \"#utility.yul\":1620:1638   */\n      tag_42\n      tag_43\n      jump\t// in\n    tag_42:\n        /* \"#utility.yul\":1509:1640   */\n    tag_41:\n        /* \"#utility.yul\":1668:1669   */\n      dup3\n        /* \"#utility.yul\":1665:1666   */\n      dup3\n        /* \"#utility.yul\":1661:1670   */\n      mul\n        /* \"#utility.yul\":1650:1670   */\n      swap1\n      pop\n        /* \"#utility.yul\":1328:1676   */\n      swap3\n      swap2\n      pop\n      pop\n      jump\t// out\n        /* \"#utility.yul\":1682:1759   */\n    tag_31:\n        /* \"#utility.yul\":1719:1726   */\n      0x00\n        /* \"#utility.yul\":1748:1753   */\n      dup2\n        /* \"#utility.yul\":1737:1753   */\n      swap1\n      pop\n        /* \"#utility.yul\":1682:1759   */\n      swap2\n      swap1\n      pop\n      jump\t// out\n        /* \"#utility.yul\":1765:2072   */\n    tag_25:\n        /* \"#utility.yul\":1833:1834   */\n      0x00\n        /* \"#utility.yul\":1843:1956   */\n    tag_46:\n        /* \"#utility.yul\":1857:1863   */\n      dup4\n        /* \"#utility.yul\":1854:1855   */\n      dup2\n        /* \"#utility.yul\":1851:1864   */\n      lt\n        /* \"#utility.yul\":1843:1956   */\n      iszero\n      tag_48\n      jumpi\n        /* \"#utility.yul\":1942:1943   */\n      dup1\n        /* \"#utility.yul\":1937:1940   */\n      dup3\n        /* \"#utility.yul\":1933:1944   */\n      add\n        /* \"#utility.yul\":1927:1945   */\n      mload\n        /* \"#utility.yul\":1923:1924   */\n      dup2\n        /* \"#utility.yul\":1918:1921   */\n      dup5\n        /* \"#utility.yul\":1914:1925   */\n      add\n        /* \"#utility.yul\":1907:1946   */\n      mstore\n        /* \"#utility.yul\":1879:1881   */\n      0x20\n        /* \"#utility.yul\":1876:1877   */\n      dup2\n        /* \"#utility.yul\":1872:1882   */\n      add\n        /* \"#utility.yul\":1867:1882   */\n      swap1\n      pop\n        /* \"#utility.yul\":1843:1956   */\n      jump(tag_46)\n    tag_48:\n        /* \"#utility.yul\":1974:1980   */\n      dup4\n        /* \"#utility.yul\":1971:1972   */\n      dup2\n        /* \"#utility.yul\":1968:1981   */\n      gt\n        /* \"#utility.yul\":1965:2066   */\n      iszero\n      tag_49\n      jumpi\n        /* \"#utility.yul\":2054:2055   */\n      0x00\n        /* \"#utility.yul\":2045:2051   */\n      dup5\n        /* \"#utility.yul\":2040:2043   */\n      dup5\n        /* \"#utility.yul\":2036:2052   */\n      add\n        /* \"#utility.yul\":2029:2056   */\n      mstore\n        /* \"#utility.yul\":1965:2066   */\n    tag_49:\n        /* \"#utility.yul\":1814:2072   */\n      pop\n        /* \"#utility.yul\":1765:2072   */\n      pop\n      pop\n      pop\n      jump\t// out\n        /* \"#utility.yul\":2078:2258   */\n    tag_43:\n        /* \"#utility.yul\":2126:2203   */\n      0x4e487b7100000000000000000000000000000000000000000000000000000000\n        /* \"#utility.yul\":2123:2124   */\n      0x00\n        /* \"#utility.yul\":2116:2204   */\n      mstore\n        /* \"#utility.yul\":2223:2227   */\n      0x11\n        /* \"#utility.yul\":2220:2221   */\n      0x04\n        /* \"#utility.yul\":2213:2228   */\n      mstore\n        /* \"#utility.yul\":2247:2251   */\n      0x24\n        /* \"#utility.yul\":2244:2245   */\n      0x00\n        /* \"#utility.yul\":2237:2252   */\n      revert\n        /* \"#utility.yul\":2264:2366   */\n    tag_27:\n        /* \"#utility.yul\":2305:2311   */\n      0x00\n        /* \"#utility.yul\":2356:2358   */\n      0x1f\n        /* \"#utility.yul\":2352:2359   */\n      not\n        /* \"#utility.yul\":2347:2349   */\n      0x1f\n        /* \"#utility.yul\":2340:2345   */\n      dup4\n        /* \"#utility.yul\":2336:2350   */\n      add\n        /* \"#utility.yul\":2332:2360   */\n      and\n        /* \"#utility.yul\":2322:2360   */\n      swap1\n      pop\n        /* \"#utility.yul\":2264:2366   */\n      swap2\n      swap1\n      pop\n      jump\t// out\n\n    auxdata: 0xa26469706673582212204ebe65cbf4e4278a41c37b71ea9df4638d86c412f24c13d163942e82de6e88cb64736f6c63430008070033\n}\n",
				"bytecode": {
					"linkReferences": {},
					"object": "6080604052606460005534801561001557600080fd5b50610278806100256000396000f3fe608060405234801561001057600080fd5b50600436106100365760003560e01c806317d7de7c1461003b578063f2c9ecd814610059575b600080fd5b610043610077565b6040516100509190610112565b60405180910390f35b6100616100b4565b60405161006e9190610134565b60405180910390f35b60606040518060400160405280600381526020017f6c69610000000000000000000000000000000000000000000000000000000000815250905090565b600060026000546100c5919061016b565b905090565b60006100d58261014f565b6100df818561015a565b93506100ef8185602086016101cf565b6100f881610231565b840191505092915050565b61010c816101c5565b82525050565b6000602082019050818103600083015261012c81846100ca565b905092915050565b60006020820190506101496000830184610103565b92915050565b600081519050919050565b600082825260208201905092915050565b6000610176826101c5565b9150610181836101c5565b9250817fffffffffffffffffffffffffffffffffffffffffffffffffffffffffffffffff04831182151516156101ba576101b9610202565b5b828202905092915050565b6000819050919050565b60005b838110156101ed5780820151818401526020810190506101d2565b838111156101fc576000848401525b50505050565b7f4e487b7100000000000000000000000000000000000000000000000000000000600052601160045260246000fd5b6000601f19601f830116905091905056fea26469706673582212204ebe65cbf4e4278a41c37b71ea9df4638d86c412f24c13d163942e82de6e88cb64736f6c63430008070033",
					"opcodes": "PUSH1 0x80 PUSH1 0x40 MSTORE PUSH1 0x64 PUSH1 0x0 SSTORE CALLVALUE DUP1 ISZERO PUSH2 0x15 JUMPI PUSH1 0x0 DUP1 REVERT JUMPDEST POP PUSH2 0x278 DUP1 PUSH2 0x25 PUSH1 0x0 CODECOPY PUSH1 0x0 RETURN INVALID PUSH1 0x80 PUSH1 0x40 MSTORE CALLVALUE DUP1 ISZERO PUSH2 0x10 JUMPI PUSH1 0x0 DUP1 REVERT JUMPDEST POP PUSH1 0x4 CALLDATASIZE LT PUSH2 0x36 JUMPI PUSH1 0x0 CALLDATALOAD PUSH1 0xE0 SHR DUP1 PUSH4 0x17D7DE7C EQ PUSH2 0x3B JUMPI DUP1 PUSH4 0xF2C9ECD8 EQ PUSH2 0x59 JUMPI JUMPDEST PUSH1 0x0 DUP1 REVERT JUMPDEST PUSH2 0x43 PUSH2 0x77 JUMP JUMPDEST PUSH1 0x40 MLOAD PUSH2 0x50 SWAP2 SWAP1 PUSH2 0x112 JUMP JUMPDEST PUSH1 0x40 MLOAD DUP1 SWAP2 SUB SWAP1 RETURN JUMPDEST PUSH2 0x61 PUSH2 0xB4 JUMP JUMPDEST PUSH1 0x40 MLOAD PUSH2 0x6E SWAP2 SWAP1 PUSH2 0x134 JUMP JUMPDEST PUSH1 0x40 MLOAD DUP1 SWAP2 SUB SWAP1 RETURN JUMPDEST PUSH1 0x60 PUSH1 0x40 MLOAD DUP1 PUSH1 0x40 ADD PUSH1 0x40 MSTORE DUP1 PUSH1 0x3 DUP2 MSTORE PUSH1 0x20 ADD PUSH32 0x6C69610000000000000000000000000000000000000000000000000000000000 DUP2 MSTORE POP SWAP1 POP SWAP1 JUMP JUMPDEST PUSH1 0x0 PUSH1 0x2 PUSH1 0x0 SLOAD PUSH2 0xC5 SWAP2 SWAP1 PUSH2 0x16B JUMP JUMPDEST SWAP1 POP SWAP1 JUMP JUMPDEST PUSH1 0x0 PUSH2 0xD5 DUP3 PUSH2 0x14F JUMP JUMPDEST PUSH2 0xDF DUP2 DUP6 PUSH2 0x15A JUMP JUMPDEST SWAP4 POP PUSH2 0xEF DUP2 DUP6 PUSH1 0x20 DUP7 ADD PUSH2 0x1CF JUMP JUMPDEST PUSH2 0xF8 DUP2 PUSH2 0x231 JUMP JUMPDEST DUP5 ADD SWAP2 POP POP SWAP3 SWAP2 POP POP JUMP JUMPDEST PUSH2 0x10C DUP2 PUSH2 0x1C5 JUMP JUMPDEST DUP3 MSTORE POP POP JUMP JUMPDEST PUSH1 0x0 PUSH1 0x20 DUP3 ADD SWAP1 POP DUP2 DUP2 SUB PUSH1 0x0 DUP4 ADD MSTORE PUSH2 0x12C DUP2 DUP5 PUSH2 0xCA JUMP JUMPDEST SWAP1 POP SWAP3 SWAP2 POP POP JUMP JUMPDEST PUSH1 0x0 PUSH1 0x20 DUP3 ADD SWAP1 POP PUSH2 0x149 PUSH1 0x0 DUP4 ADD DUP5 PUSH2 0x103 JUMP JUMPDEST SWAP3 SWAP2 POP POP JUMP JUMPDEST PUSH1 0x0 DUP2 MLOAD SWAP1 POP SWAP2 SWAP1 POP JUMP JUMPDEST PUSH1 0x0 DUP3 DUP3 MSTORE PUSH1 0x20 DUP3 ADD SWAP1 POP SWAP3 SWAP2 POP POP JUMP JUMPDEST PUSH1 0x0 PUSH2 0x176 DUP3 PUSH2 0x1C5 JUMP JUMPDEST SWAP2 POP PUSH2 0x181 DUP4 PUSH2 0x1C5 JUMP JUMPDEST SWAP3 POP DUP2 PUSH32 0xFFFFFFFFFFFFFFFFFFFFFFFFFFFFFFFFFFFFFFFFFFFFFFFFFFFFFFFFFFFFFFFF DIV DUP4 GT DUP3 ISZERO ISZERO AND ISZERO PUSH2 0x1BA JUMPI PUSH2 0x1B9 PUSH2 0x202 JUMP JUMPDEST JUMPDEST DUP3 DUP3 MUL SWAP1 POP SWAP3 SWAP2 POP POP JUMP JUMPDEST PUSH1 0x0 DUP2 SWAP1 POP SWAP2 SWAP1 POP JUMP JUMPDEST PUSH1 0x0 JUMPDEST DUP4 DUP2 LT ISZERO PUSH2 0x1ED JUMPI DUP1 DUP3 ADD MLOAD DUP2 DUP5 ADD MSTORE PUSH1 0x20 DUP2 ADD SWAP1 POP PUSH2 0x1D2 JUMP JUMPDEST DUP4 DUP2 GT ISZERO PUSH2 0x1FC JUMPI PUSH1 0x0 DUP5 DUP5 ADD MSTORE JUMPDEST POP POP POP POP JUMP JUMPDEST PUSH32 0x4E487B7100000000000000000000000000000000000000000000000000000000 PUSH1 0x0 MSTORE PUSH1 0x11 PUSH1 0x4 MSTORE PUSH1 0x24 PUSH1 0x0 REVERT JUMPDEST PUSH1 0x0 PUSH1 0x1F NOT PUSH1 0x1F DUP4 ADD AND SWAP1 POP SWAP2 SWAP1 POP JUMP INVALID LOG2 PUSH5 0x6970667358 0x22 SLT KECCAK256 0x4E 0xBE PUSH6 0xCBF4E4278A41 0xC3 PUSH28 0x71EA9DF4638D86C412F24C13D163942E82DE6E88CB64736F6C634300 ADDMOD SMOD STOP CALLER "
				},
				"gasEstimates": {
					"creation": {
						"codeDepositCost": "126400",
						"executionCost": "22277",
						"totalCost": "148677"
					},
					"external": {
						"getName()": "infinite",
						"getNumber()": "infinite"
					}
				},
				"methodIdentifiers": {
					"getName()": "17d7de7c",
					"getNumber()": "f2c9ecd8"
				}
			},
			"storageLayout": {
				"storage": [
					{
						"astId": 12,
						"contract": "Contracts/functiones.sol:functiones",
						"label": "x",
						"offset": 0,
						"slot": "0",
						"type": "t_uint256"
					}
				],
				"types": {
					"t_uint256": {
						"encoding": "inplace",
						"label": "uint256",
						"numberOfBytes": "32"
					}
				}
			},
			"userdoc": {
				"kind": "user",
				"methods": {},
				"version": 1
			}
		}
	}
}