{
	"Contracts/structs_datos.sol": {
		"data_structures": {
			"abi": [
				{
					"inputs": [
						{
							"internalType": "uint256",
							"name": "_id",
							"type": "uint256"
						},
						{
							"internalType": "string",
							"name": "_name",
							"type": "string"
						},
						{
							"internalType": "string",
							"name": "_email",
							"type": "string"
						}
					],
					"name": "array_modificatios",
					"outputs": [],
					"stateMutability": "nonpayable",
					"type": "function"
				},
				{
					"inputs": [
						{
							"internalType": "uint256",
							"name": "",
							"type": "uint256"
						}
					],
					"name": "dynamic_list_customer",
					"outputs": [
						{
							"internalType": "uint256",
							"name": "id",
							"type": "uint256"
						},
						{
							"internalType": "string",
							"name": "name",
							"type": "string"
						},
						{
							"internalType": "string",
							"name": "email",
							"type": "string"
						}
					],
					"stateMutability": "view",
					"type": "function"
				},
				{
					"inputs": [
						{
							"internalType": "uint256",
							"name": "",
							"type": "uint256"
						}
					],
					"name": "fixed_list_uints",
					"outputs": [
						{
							"internalType": "uint256",
							"name": "",
							"type": "uint256"
						}
					],
					"stateMutability": "view",
					"type": "function"
				}
			],
			"devdoc": {
				"kind": "dev",
				"methods": {},
				"version": 1
			},
			"evm": {
				"assembly": "    /* \"Contracts/structs_datos.sol\":83:809  contract data_structures {\r... */\n  mstore(0x40, 0x80)\n    /* \"Contracts/structs_datos.sol\":312:347  Customer(1, \"lia\", \"lia@gmail.com\") */\n  mload(0x40)\n  dup1\n  0x60\n  add\n  0x40\n  mstore\n  dup1\n    /* \"Contracts/structs_datos.sol\":321:322  1 */\n  0x01\n    /* \"Contracts/structs_datos.sol\":312:347  Customer(1, \"lia\", \"lia@gmail.com\") */\n  dup2\n  mstore\n  0x20\n  add\n  mload(0x40)\n  dup1\n  0x40\n  add\n  0x40\n  mstore\n  dup1\n  0x03\n  dup2\n  mstore\n  0x20\n  add\n  0x6c69610000000000000000000000000000000000000000000000000000000000\n  dup2\n  mstore\n  pop\n  dup2\n  mstore\n  0x20\n  add\n  mload(0x40)\n  dup1\n  0x40\n  add\n  0x40\n  mstore\n  dup1\n  0x0d\n  dup2\n  mstore\n  0x20\n  add\n  0x6c696140676d61696c2e636f6d00000000000000000000000000000000000000\n  dup2\n  mstore\n  pop\n  dup2\n  mstore\n  pop\n    /* \"Contracts/structs_datos.sol\":290:347  Customer customer_1 = Customer(1, \"lia\", \"lia@gmail.com\") */\n  0x00\n  dup1\n  dup3\n  add\n  mload\n  dup2\n  0x00\n  add\n  sstore\n  0x20\n  dup3\n  add\n  mload\n  dup2\n  0x01\n  add\n  swap1\n  dup1\n  mload\n  swap1\n  0x20\n  add\n  swap1\n  tag_1\n  swap3\n  swap2\n  swap1\n  tag_2\n  jump\t// in\ntag_1:\n  pop\n  0x40\n  dup3\n  add\n  mload\n  dup2\n  0x02\n  add\n  swap1\n  dup1\n  mload\n  swap1\n  0x20\n  add\n  swap1\n  tag_3\n  swap3\n  swap2\n  swap1\n  tag_2\n  jump\t// in\ntag_3:\n  pop\n  pop\n  pop\n    /* \"Contracts/structs_datos.sol\":394:440  uint [5] public fixed_list_uints = [1,2,3,4,5] */\n  mload(0x40)\n  dup1\n  0xa0\n  add\n  0x40\n  mstore\n  dup1\n    /* \"Contracts/structs_datos.sol\":430:431  1 */\n  0x01\n    /* \"Contracts/structs_datos.sol\":394:440  uint [5] public fixed_list_uints = [1,2,3,4,5] */\n  0xff\n  and\n  dup2\n  mstore\n  0x20\n  add\n    /* \"Contracts/structs_datos.sol\":432:433  2 */\n  0x02\n    /* \"Contracts/structs_datos.sol\":394:440  uint [5] public fixed_list_uints = [1,2,3,4,5] */\n  0xff\n  and\n  dup2\n  mstore\n  0x20\n  add\n    /* \"Contracts/structs_datos.sol\":434:435  3 */\n  0x03\n    /* \"Contracts/structs_datos.sol\":394:440  uint [5] public fixed_list_uints = [1,2,3,4,5] */\n  0xff\n  and\n  dup2\n  mstore\n  0x20\n  add\n    /* \"Contracts/structs_datos.sol\":436:437  4 */\n  0x04\n    /* \"Contracts/structs_datos.sol\":394:440  uint [5] public fixed_list_uints = [1,2,3,4,5] */\n  0xff\n  and\n  dup2\n  mstore\n  0x20\n  add\n    /* \"Contracts/structs_datos.sol\":438:439  5 */\n  0x05\n    /* \"Contracts/structs_datos.sol\":394:440  uint [5] public fixed_list_uints = [1,2,3,4,5] */\n  0xff\n  and\n  dup2\n  mstore\n  pop\n  0x03\n  swap1\n  0x05\n  tag_4\n  swap3\n  swap2\n  swap1\n  tag_5\n  jump\t// in\ntag_4:\n  pop\n    /* \"Contracts/structs_datos.sol\":83:809  contract data_structures {\r... */\n  callvalue\n  dup1\n  iszero\n  tag_6\n  jumpi\n  0x00\n  dup1\n  revert\ntag_6:\n  pop\n  jump(tag_7)\ntag_2:\n  dup3\n  dup1\n  sload\n  tag_8\n  swap1\n  tag_9\n  jump\t// in\ntag_8:\n  swap1\n  0x00\n  mstore\n  keccak256(0x00, 0x20)\n  swap1\n  0x1f\n  add\n  0x20\n  swap1\n  div\n  dup2\n  add\n  swap3\n  dup3\n  tag_11\n  jumpi\n  0x00\n  dup6\n  sstore\n  jump(tag_10)\ntag_11:\n  dup3\n  0x1f\n  lt\n  tag_12\n  jumpi\n  dup1\n  mload\n  not(0xff)\n  and\n  dup4\n  dup1\n  add\n  or\n  dup6\n  sstore\n  jump(tag_10)\ntag_12:\n  dup3\n  dup1\n  add\n  0x01\n  add\n  dup6\n  sstore\n  dup3\n  iszero\n  tag_10\n  jumpi\n  swap2\n  dup3\n  add\ntag_13:\n  dup3\n  dup2\n  gt\n  iszero\n  tag_14\n  jumpi\n  dup3\n  mload\n  dup3\n  sstore\n  swap2\n  0x20\n  add\n  swap2\n  swap1\n  0x01\n  add\n  swap1\n  jump(tag_13)\ntag_14:\ntag_10:\n  pop\n  swap1\n  pop\n  tag_15\n  swap2\n  swap1\n  tag_16\n  jump\t// in\ntag_15:\n  pop\n  swap1\n  jump\t// out\ntag_5:\n  dup3\n  0x05\n  dup2\n  add\n  swap3\n  dup3\n  iszero\n  tag_17\n  jumpi\n  swap2\n  0x20\n  mul\n  dup3\n  add\ntag_18:\n  dup3\n  dup2\n  gt\n  iszero\n  tag_19\n  jumpi\n  dup3\n  mload\n  dup3\n  swap1\n  0xff\n  and\n  swap1\n  sstore\n  swap2\n  0x20\n  add\n  swap2\n  swap1\n  0x01\n  add\n  swap1\n  jump(tag_18)\ntag_19:\ntag_17:\n  pop\n  swap1\n  pop\n  tag_20\n  swap2\n  swap1\n  tag_16\n  jump\t// in\ntag_20:\n  pop\n  swap1\n  jump\t// out\ntag_16:\ntag_21:\n  dup1\n  dup3\n  gt\n  iszero\n  tag_22\n  jumpi\n  0x00\n  dup2\n  0x00\n  swap1\n  sstore\n  pop\n  0x01\n  add\n  jump(tag_21)\ntag_22:\n  pop\n  swap1\n  jump\t// out\n    /* \"#utility.yul\":7:327   */\ntag_9:\n    /* \"#utility.yul\":51:57   */\n  0x00\n    /* \"#utility.yul\":88:89   */\n  0x02\n    /* \"#utility.yul\":82:86   */\n  dup3\n    /* \"#utility.yul\":78:90   */\n  div\n    /* \"#utility.yul\":68:90   */\n  swap1\n  pop\n    /* \"#utility.yul\":135:136   */\n  0x01\n    /* \"#utility.yul\":129:133   */\n  dup3\n    /* \"#utility.yul\":125:137   */\n  and\n    /* \"#utility.yul\":156:174   */\n  dup1\n    /* \"#utility.yul\":146:227   */\n  tag_25\n  jumpi\n    /* \"#utility.yul\":212:216   */\n  0x7f\n    /* \"#utility.yul\":204:210   */\n  dup3\n    /* \"#utility.yul\":200:217   */\n  and\n    /* \"#utility.yul\":190:217   */\n  swap2\n  pop\n    /* \"#utility.yul\":146:227   */\ntag_25:\n    /* \"#utility.yul\":274:276   */\n  0x20\n    /* \"#utility.yul\":266:272   */\n  dup3\n    /* \"#utility.yul\":263:277   */\n  lt\n    /* \"#utility.yul\":243:261   */\n  dup2\n    /* \"#utility.yul\":240:278   */\n  eq\n    /* \"#utility.yul\":237:321   */\n  iszero\n  tag_26\n  jumpi\n    /* \"#utility.yul\":293:311   */\n  tag_27\n  tag_28\n  jump\t// in\ntag_27:\n    /* \"#utility.yul\":237:321   */\ntag_26:\n    /* \"#utility.yul\":58:327   */\n  pop\n    /* \"#utility.yul\":7:327   */\n  swap2\n  swap1\n  pop\n  jump\t// out\n    /* \"#utility.yul\":333:513   */\ntag_28:\n    /* \"#utility.yul\":381:458   */\n  0x4e487b7100000000000000000000000000000000000000000000000000000000\n    /* \"#utility.yul\":378:379   */\n  0x00\n    /* \"#utility.yul\":371:459   */\n  mstore\n    /* \"#utility.yul\":478:482   */\n  0x22\n    /* \"#utility.yul\":475:476   */\n  0x04\n    /* \"#utility.yul\":468:483   */\n  mstore\n    /* \"#utility.yul\":502:506   */\n  0x24\n    /* \"#utility.yul\":499:500   */\n  0x00\n    /* \"#utility.yul\":492:507   */\n  revert\n    /* \"Contracts/structs_datos.sol\":83:809  contract data_structures {\r... */\ntag_7:\n  dataSize(sub_0)\n  dup1\n  dataOffset(sub_0)\n  0x00\n  codecopy\n  0x00\n  return\nstop\n\nsub_0: assembly {\n        /* \"Contracts/structs_datos.sol\":83:809  contract data_structures {\r... */\n      mstore(0x40, 0x80)\n      callvalue\n      dup1\n      iszero\n      tag_1\n      jumpi\n      0x00\n      dup1\n      revert\n    tag_1:\n      pop\n      jumpi(tag_2, lt(calldatasize, 0x04))\n      shr(0xe0, calldataload(0x00))\n      dup1\n      0xe897cb4a\n      eq\n      tag_3\n      jumpi\n      dup1\n      0xf096fa63\n      eq\n      tag_4\n      jumpi\n      dup1\n      0xfecb2c16\n      eq\n      tag_5\n      jumpi\n    tag_2:\n      0x00\n      dup1\n      revert\n        /* \"Contracts/structs_datos.sol\":671:806  function array_modificatios(uint _id, string memory _name, string memory _email) public {\r... */\n    tag_3:\n      tag_6\n      0x04\n      dup1\n      calldatasize\n      sub\n      dup2\n      add\n      swap1\n      tag_7\n      swap2\n      swap1\n      tag_8\n      jump\t// in\n    tag_7:\n      tag_9\n      jump\t// in\n    tag_6:\n      stop\n        /* \"Contracts/structs_datos.sol\":624:664  Customer [] public dynamic_list_customer */\n    tag_4:\n      tag_10\n      0x04\n      dup1\n      calldatasize\n      sub\n      dup2\n      add\n      swap1\n      tag_11\n      swap2\n      swap1\n      tag_12\n      jump\t// in\n    tag_11:\n      tag_13\n      jump\t// in\n    tag_10:\n      mload(0x40)\n      tag_14\n      swap4\n      swap3\n      swap2\n      swap1\n      tag_15\n      jump\t// in\n    tag_14:\n      mload(0x40)\n      dup1\n      swap2\n      sub\n      swap1\n      return\n        /* \"Contracts/structs_datos.sol\":394:440  uint [5] public fixed_list_uints = [1,2,3,4,5] */\n    tag_5:\n      tag_16\n      0x04\n      dup1\n      calldatasize\n      sub\n      dup2\n      add\n      swap1\n      tag_17\n      swap2\n      swap1\n      tag_12\n      jump\t// in\n    tag_17:\n      tag_18\n      jump\t// in\n    tag_16:\n      mload(0x40)\n      tag_19\n      swap2\n      swap1\n      tag_20\n      jump\t// in\n    tag_19:\n      mload(0x40)\n      dup1\n      swap2\n      sub\n      swap1\n      return\n        /* \"Contracts/structs_datos.sol\":671:806  function array_modificatios(uint _id, string memory _name, string memory _email) public {\r... */\n    tag_9:\n        /* \"Contracts/structs_datos.sol\":770:791  dynamic_list_customer */\n      0x09\n        /* \"Contracts/structs_datos.sol\":770:798  dynamic_list_customer.push() */\n      0x01\n      dup2\n      0x01\n      dup2\n      sload\n      add\n      dup1\n      dup3\n      sstore\n      dup1\n      swap2\n      pop\n      pop\n      sub\n      swap1\n      0x00\n      mstore\n      keccak256(0x00, 0x20)\n      swap1\n      pop\n      pop\n        /* \"Contracts/structs_datos.sol\":671:806  function array_modificatios(uint _id, string memory _name, string memory _email) public {\r... */\n      pop\n      pop\n      pop\n      jump\t// out\n        /* \"Contracts/structs_datos.sol\":624:664  Customer [] public dynamic_list_customer */\n    tag_13:\n      0x09\n      dup2\n      dup2\n      sload\n      dup2\n      lt\n      tag_23\n      jumpi\n      0x00\n      dup1\n      revert\n    tag_23:\n      swap1\n      0x00\n      mstore\n      keccak256(0x00, 0x20)\n      swap1\n      0x03\n      mul\n      add\n      0x00\n      swap2\n      pop\n      swap1\n      pop\n      dup1\n      0x00\n      add\n      sload\n      swap1\n      dup1\n      0x01\n      add\n      dup1\n      sload\n      tag_25\n      swap1\n      tag_26\n      jump\t// in\n    tag_25:\n      dup1\n      0x1f\n      add\n      0x20\n      dup1\n      swap2\n      div\n      mul\n      0x20\n      add\n      mload(0x40)\n      swap1\n      dup2\n      add\n      0x40\n      mstore\n      dup1\n      swap3\n      swap2\n      swap1\n      dup2\n      dup2\n      mstore\n      0x20\n      add\n      dup3\n      dup1\n      sload\n      tag_27\n      swap1\n      tag_26\n      jump\t// in\n    tag_27:\n      dup1\n      iszero\n      tag_28\n      jumpi\n      dup1\n      0x1f\n      lt\n      tag_29\n      jumpi\n      0x0100\n      dup1\n      dup4\n      sload\n      div\n      mul\n      dup4\n      mstore\n      swap2\n      0x20\n      add\n      swap2\n      jump(tag_28)\n    tag_29:\n      dup3\n      add\n      swap2\n      swap1\n      0x00\n      mstore\n      keccak256(0x00, 0x20)\n      swap1\n    tag_30:\n      dup2\n      sload\n      dup2\n      mstore\n      swap1\n      0x01\n      add\n      swap1\n      0x20\n      add\n      dup1\n      dup4\n      gt\n      tag_30\n      jumpi\n      dup3\n      swap1\n      sub\n      0x1f\n      and\n      dup3\n      add\n      swap2\n    tag_28:\n      pop\n      pop\n      pop\n      pop\n      pop\n      swap1\n      dup1\n      0x02\n      add\n      dup1\n      sload\n      tag_31\n      swap1\n      tag_26\n      jump\t// in\n    tag_31:\n      dup1\n      0x1f\n      add\n      0x20\n      dup1\n      swap2\n      div\n      mul\n      0x20\n      add\n      mload(0x40)\n      swap1\n      dup2\n      add\n      0x40\n      mstore\n      dup1\n      swap3\n      swap2\n      swap1\n      dup2\n      dup2\n      mstore\n      0x20\n      add\n      dup3\n      dup1\n      sload\n      tag_32\n      swap1\n      tag_26\n      jump\t// in\n    tag_32:\n      dup1\n      iszero\n      tag_33\n      jumpi\n      dup1\n      0x1f\n      lt\n      tag_34\n      jumpi\n      0x0100\n      dup1\n      dup4\n      sload\n      div\n      mul\n      dup4\n      mstore\n      swap2\n      0x20\n      add\n      swap2\n      jump(tag_33)\n    tag_34:\n      dup3\n      add\n      swap2\n      swap1\n      0x00\n      mstore\n      keccak256(0x00, 0x20)\n      swap1\n    tag_35:\n      dup2\n      sload\n      dup2\n      mstore\n      swap1\n      0x01\n      add\n      swap1\n      0x20\n      add\n      dup1\n      dup4\n      gt\n      tag_35\n      jumpi\n      dup3\n      swap1\n      sub\n      0x1f\n      and\n      dup3\n      add\n      swap2\n    tag_33:\n      pop\n      pop\n      pop\n      pop\n      pop\n      swap1\n      pop\n      dup4\n      jump\t// out\n        /* \"Contracts/structs_datos.sol\":394:440  uint [5] public fixed_list_uints = [1,2,3,4,5] */\n    tag_18:\n      0x03\n      dup2\n      0x05\n      dup2\n      lt\n      tag_36\n      jumpi\n      0x00\n      dup1\n      revert\n    tag_36:\n      add\n      0x00\n      swap2\n      pop\n      swap1\n      pop\n      sload\n      dup2\n      jump\t// out\n        /* \"#utility.yul\":7:419   */\n    tag_39:\n        /* \"#utility.yul\":85:90   */\n      0x00\n        /* \"#utility.yul\":110:176   */\n      tag_41\n        /* \"#utility.yul\":126:175   */\n      tag_42\n        /* \"#utility.yul\":168:174   */\n      dup5\n        /* \"#utility.yul\":126:175   */\n      tag_43\n      jump\t// in\n    tag_42:\n        /* \"#utility.yul\":110:176   */\n      tag_44\n      jump\t// in\n    tag_41:\n        /* \"#utility.yul\":101:176   */\n      swap1\n      pop\n        /* \"#utility.yul\":199:205   */\n      dup3\n        /* \"#utility.yul\":192:197   */\n      dup2\n        /* \"#utility.yul\":185:206   */\n      mstore\n        /* \"#utility.yul\":237:241   */\n      0x20\n        /* \"#utility.yul\":230:235   */\n      dup2\n        /* \"#utility.yul\":226:242   */\n      add\n        /* \"#utility.yul\":275:278   */\n      dup5\n        /* \"#utility.yul\":266:272   */\n      dup5\n        /* \"#utility.yul\":261:264   */\n      dup5\n        /* \"#utility.yul\":257:273   */\n      add\n        /* \"#utility.yul\":254:279   */\n      gt\n        /* \"#utility.yul\":251:363   */\n      iszero\n      tag_45\n      jumpi\n        /* \"#utility.yul\":282:361   */\n      tag_46\n      tag_47\n      jump\t// in\n    tag_46:\n        /* \"#utility.yul\":251:363   */\n    tag_45:\n        /* \"#utility.yul\":372:413   */\n      tag_48\n        /* \"#utility.yul\":406:412   */\n      dup5\n        /* \"#utility.yul\":401:404   */\n      dup3\n        /* \"#utility.yul\":396:399   */\n      dup6\n        /* \"#utility.yul\":372:413   */\n      tag_49\n      jump\t// in\n    tag_48:\n        /* \"#utility.yul\":91:419   */\n      pop\n        /* \"#utility.yul\":7:419   */\n      swap4\n      swap3\n      pop\n      pop\n      pop\n      jump\t// out\n        /* \"#utility.yul\":439:779   */\n    tag_50:\n        /* \"#utility.yul\":495:500   */\n      0x00\n        /* \"#utility.yul\":544:547   */\n      dup3\n        /* \"#utility.yul\":537:541   */\n      0x1f\n        /* \"#utility.yul\":529:535   */\n      dup4\n        /* \"#utility.yul\":525:542   */\n      add\n        /* \"#utility.yul\":521:548   */\n      slt\n        /* \"#utility.yul\":511:633   */\n      tag_52\n      jumpi\n        /* \"#utility.yul\":552:631   */\n      tag_53\n      tag_54\n      jump\t// in\n    tag_53:\n        /* \"#utility.yul\":511:633   */\n    tag_52:\n        /* \"#utility.yul\":669:675   */\n      dup2\n        /* \"#utility.yul\":656:676   */\n      calldataload\n        /* \"#utility.yul\":694:773   */\n      tag_55\n        /* \"#utility.yul\":769:772   */\n      dup5\n        /* \"#utility.yul\":761:767   */\n      dup3\n        /* \"#utility.yul\":754:758   */\n      0x20\n        /* \"#utility.yul\":746:752   */\n      dup7\n        /* \"#utility.yul\":742:759   */\n      add\n        /* \"#utility.yul\":694:773   */\n      tag_39\n      jump\t// in\n    tag_55:\n        /* \"#utility.yul\":685:773   */\n      swap2\n      pop\n        /* \"#utility.yul\":501:779   */\n      pop\n        /* \"#utility.yul\":439:779   */\n      swap3\n      swap2\n      pop\n      pop\n      jump\t// out\n        /* \"#utility.yul\":785:924   */\n    tag_56:\n        /* \"#utility.yul\":831:836   */\n      0x00\n        /* \"#utility.yul\":869:875   */\n      dup2\n        /* \"#utility.yul\":856:876   */\n      calldataload\n        /* \"#utility.yul\":847:876   */\n      swap1\n      pop\n        /* \"#utility.yul\":885:918   */\n      tag_58\n        /* \"#utility.yul\":912:917   */\n      dup2\n        /* \"#utility.yul\":885:918   */\n      tag_59\n      jump\t// in\n    tag_58:\n        /* \"#utility.yul\":785:924   */\n      swap3\n      swap2\n      pop\n      pop\n      jump\t// out\n        /* \"#utility.yul\":930:1259   */\n    tag_12:\n        /* \"#utility.yul\":989:995   */\n      0x00\n        /* \"#utility.yul\":1038:1040   */\n      0x20\n        /* \"#utility.yul\":1026:1035   */\n      dup3\n        /* \"#utility.yul\":1017:1024   */\n      dup5\n        /* \"#utility.yul\":1013:1036   */\n      sub\n        /* \"#utility.yul\":1009:1041   */\n      slt\n        /* \"#utility.yul\":1006:1125   */\n      iszero\n      tag_61\n      jumpi\n        /* \"#utility.yul\":1044:1123   */\n      tag_62\n      tag_63\n      jump\t// in\n    tag_62:\n        /* \"#utility.yul\":1006:1125   */\n    tag_61:\n        /* \"#utility.yul\":1164:1165   */\n      0x00\n        /* \"#utility.yul\":1189:1242   */\n      tag_64\n        /* \"#utility.yul\":1234:1241   */\n      dup5\n        /* \"#utility.yul\":1225:1231   */\n      dup3\n        /* \"#utility.yul\":1214:1223   */\n      dup6\n        /* \"#utility.yul\":1210:1232   */\n      add\n        /* \"#utility.yul\":1189:1242   */\n      tag_56\n      jump\t// in\n    tag_64:\n        /* \"#utility.yul\":1179:1242   */\n      swap2\n      pop\n        /* \"#utility.yul\":1135:1252   */\n      pop\n        /* \"#utility.yul\":930:1259   */\n      swap3\n      swap2\n      pop\n      pop\n      jump\t// out\n        /* \"#utility.yul\":1265:2244   */\n    tag_8:\n        /* \"#utility.yul\":1362:1368   */\n      0x00\n        /* \"#utility.yul\":1370:1376   */\n      dup1\n        /* \"#utility.yul\":1378:1384   */\n      0x00\n        /* \"#utility.yul\":1427:1429   */\n      0x60\n        /* \"#utility.yul\":1415:1424   */\n      dup5\n        /* \"#utility.yul\":1406:1413   */\n      dup7\n        /* \"#utility.yul\":1402:1425   */\n      sub\n        /* \"#utility.yul\":1398:1430   */\n      slt\n        /* \"#utility.yul\":1395:1514   */\n      iszero\n      tag_66\n      jumpi\n        /* \"#utility.yul\":1433:1512   */\n      tag_67\n      tag_63\n      jump\t// in\n    tag_67:\n        /* \"#utility.yul\":1395:1514   */\n    tag_66:\n        /* \"#utility.yul\":1553:1554   */\n      0x00\n        /* \"#utility.yul\":1578:1631   */\n      tag_68\n        /* \"#utility.yul\":1623:1630   */\n      dup7\n        /* \"#utility.yul\":1614:1620   */\n      dup3\n        /* \"#utility.yul\":1603:1612   */\n      dup8\n        /* \"#utility.yul\":1599:1621   */\n      add\n        /* \"#utility.yul\":1578:1631   */\n      tag_56\n      jump\t// in\n    tag_68:\n        /* \"#utility.yul\":1568:1631   */\n      swap4\n      pop\n        /* \"#utility.yul\":1524:1641   */\n      pop\n        /* \"#utility.yul\":1708:1710   */\n      0x20\n        /* \"#utility.yul\":1697:1706   */\n      dup5\n        /* \"#utility.yul\":1693:1711   */\n      add\n        /* \"#utility.yul\":1680:1712   */\n      calldataload\n        /* \"#utility.yul\":1739:1757   */\n      0xffffffffffffffff\n        /* \"#utility.yul\":1731:1737   */\n      dup2\n        /* \"#utility.yul\":1728:1758   */\n      gt\n        /* \"#utility.yul\":1725:1842   */\n      iszero\n      tag_69\n      jumpi\n        /* \"#utility.yul\":1761:1840   */\n      tag_70\n      tag_71\n      jump\t// in\n    tag_70:\n        /* \"#utility.yul\":1725:1842   */\n    tag_69:\n        /* \"#utility.yul\":1866:1929   */\n      tag_72\n        /* \"#utility.yul\":1921:1928   */\n      dup7\n        /* \"#utility.yul\":1912:1918   */\n      dup3\n        /* \"#utility.yul\":1901:1910   */\n      dup8\n        /* \"#utility.yul\":1897:1919   */\n      add\n        /* \"#utility.yul\":1866:1929   */\n      tag_50\n      jump\t// in\n    tag_72:\n        /* \"#utility.yul\":1856:1929   */\n      swap3\n      pop\n        /* \"#utility.yul\":1651:1939   */\n      pop\n        /* \"#utility.yul\":2006:2008   */\n      0x40\n        /* \"#utility.yul\":1995:2004   */\n      dup5\n        /* \"#utility.yul\":1991:2009   */\n      add\n        /* \"#utility.yul\":1978:2010   */\n      calldataload\n        /* \"#utility.yul\":2037:2055   */\n      0xffffffffffffffff\n        /* \"#utility.yul\":2029:2035   */\n      dup2\n        /* \"#utility.yul\":2026:2056   */\n      gt\n        /* \"#utility.yul\":2023:2140   */\n      iszero\n      tag_73\n      jumpi\n        /* \"#utility.yul\":2059:2138   */\n      tag_74\n      tag_71\n      jump\t// in\n    tag_74:\n        /* \"#utility.yul\":2023:2140   */\n    tag_73:\n        /* \"#utility.yul\":2164:2227   */\n      tag_75\n        /* \"#utility.yul\":2219:2226   */\n      dup7\n        /* \"#utility.yul\":2210:2216   */\n      dup3\n        /* \"#utility.yul\":2199:2208   */\n      dup8\n        /* \"#utility.yul\":2195:2217   */\n      add\n        /* \"#utility.yul\":2164:2227   */\n      tag_50\n      jump\t// in\n    tag_75:\n        /* \"#utility.yul\":2154:2227   */\n      swap2\n      pop\n        /* \"#utility.yul\":1949:2237   */\n      pop\n        /* \"#utility.yul\":1265:2244   */\n      swap3\n      pop\n      swap3\n      pop\n      swap3\n      jump\t// out\n        /* \"#utility.yul\":2250:2614   */\n    tag_76:\n        /* \"#utility.yul\":2338:2341   */\n      0x00\n        /* \"#utility.yul\":2366:2405   */\n      tag_78\n        /* \"#utility.yul\":2399:2404   */\n      dup3\n        /* \"#utility.yul\":2366:2405   */\n      tag_79\n      jump\t// in\n    tag_78:\n        /* \"#utility.yul\":2421:2492   */\n      tag_80\n        /* \"#utility.yul\":2485:2491   */\n      dup2\n        /* \"#utility.yul\":2480:2483   */\n      dup6\n        /* \"#utility.yul\":2421:2492   */\n      tag_81\n      jump\t// in\n    tag_80:\n        /* \"#utility.yul\":2414:2492   */\n      swap4\n      pop\n        /* \"#utility.yul\":2501:2553   */\n      tag_82\n        /* \"#utility.yul\":2546:2552   */\n      dup2\n        /* \"#utility.yul\":2541:2544   */\n      dup6\n        /* \"#utility.yul\":2534:2538   */\n      0x20\n        /* \"#utility.yul\":2527:2532   */\n      dup7\n        /* \"#utility.yul\":2523:2539   */\n      add\n        /* \"#utility.yul\":2501:2553   */\n      tag_83\n      jump\t// in\n    tag_82:\n        /* \"#utility.yul\":2578:2607   */\n      tag_84\n        /* \"#utility.yul\":2600:2606   */\n      dup2\n        /* \"#utility.yul\":2578:2607   */\n      tag_85\n      jump\t// in\n    tag_84:\n        /* \"#utility.yul\":2573:2576   */\n      dup5\n        /* \"#utility.yul\":2569:2608   */\n      add\n        /* \"#utility.yul\":2562:2608   */\n      swap2\n      pop\n        /* \"#utility.yul\":2342:2614   */\n      pop\n        /* \"#utility.yul\":2250:2614   */\n      swap3\n      swap2\n      pop\n      pop\n      jump\t// out\n        /* \"#utility.yul\":2620:2738   */\n    tag_86:\n        /* \"#utility.yul\":2707:2731   */\n      tag_88\n        /* \"#utility.yul\":2725:2730   */\n      dup2\n        /* \"#utility.yul\":2707:2731   */\n      tag_89\n      jump\t// in\n    tag_88:\n        /* \"#utility.yul\":2702:2705   */\n      dup3\n        /* \"#utility.yul\":2695:2732   */\n      mstore\n        /* \"#utility.yul\":2620:2738   */\n      pop\n      pop\n      jump\t// out\n        /* \"#utility.yul\":2744:2966   */\n    tag_20:\n        /* \"#utility.yul\":2837:2841   */\n      0x00\n        /* \"#utility.yul\":2875:2877   */\n      0x20\n        /* \"#utility.yul\":2864:2873   */\n      dup3\n        /* \"#utility.yul\":2860:2878   */\n      add\n        /* \"#utility.yul\":2852:2878   */\n      swap1\n      pop\n        /* \"#utility.yul\":2888:2959   */\n      tag_91\n        /* \"#utility.yul\":2956:2957   */\n      0x00\n        /* \"#utility.yul\":2945:2954   */\n      dup4\n        /* \"#utility.yul\":2941:2958   */\n      add\n        /* \"#utility.yul\":2932:2938   */\n      dup5\n        /* \"#utility.yul\":2888:2959   */\n      tag_86\n      jump\t// in\n    tag_91:\n        /* \"#utility.yul\":2744:2966   */\n      swap3\n      swap2\n      pop\n      pop\n      jump\t// out\n        /* \"#utility.yul\":2972:3596   */\n    tag_15:\n        /* \"#utility.yul\":3161:3165   */\n      0x00\n        /* \"#utility.yul\":3199:3201   */\n      0x60\n        /* \"#utility.yul\":3188:3197   */\n      dup3\n        /* \"#utility.yul\":3184:3202   */\n      add\n        /* \"#utility.yul\":3176:3202   */\n      swap1\n      pop\n        /* \"#utility.yul\":3212:3283   */\n      tag_93\n        /* \"#utility.yul\":3280:3281   */\n      0x00\n        /* \"#utility.yul\":3269:3278   */\n      dup4\n        /* \"#utility.yul\":3265:3282   */\n      add\n        /* \"#utility.yul\":3256:3262   */\n      dup7\n        /* \"#utility.yul\":3212:3283   */\n      tag_86\n      jump\t// in\n    tag_93:\n        /* \"#utility.yul\":3330:3339   */\n      dup2\n        /* \"#utility.yul\":3324:3328   */\n      dup2\n        /* \"#utility.yul\":3320:3340   */\n      sub\n        /* \"#utility.yul\":3315:3317   */\n      0x20\n        /* \"#utility.yul\":3304:3313   */\n      dup4\n        /* \"#utility.yul\":3300:3318   */\n      add\n        /* \"#utility.yul\":3293:3341   */\n      mstore\n        /* \"#utility.yul\":3358:3436   */\n      tag_94\n        /* \"#utility.yul\":3431:3435   */\n      dup2\n        /* \"#utility.yul\":3422:3428   */\n      dup6\n        /* \"#utility.yul\":3358:3436   */\n      tag_76\n      jump\t// in\n    tag_94:\n        /* \"#utility.yul\":3350:3436   */\n      swap1\n      pop\n        /* \"#utility.yul\":3483:3492   */\n      dup2\n        /* \"#utility.yul\":3477:3481   */\n      dup2\n        /* \"#utility.yul\":3473:3493   */\n      sub\n        /* \"#utility.yul\":3468:3470   */\n      0x40\n        /* \"#utility.yul\":3457:3466   */\n      dup4\n        /* \"#utility.yul\":3453:3471   */\n      add\n        /* \"#utility.yul\":3446:3494   */\n      mstore\n        /* \"#utility.yul\":3511:3589   */\n      tag_95\n        /* \"#utility.yul\":3584:3588   */\n      dup2\n        /* \"#utility.yul\":3575:3581   */\n      dup5\n        /* \"#utility.yul\":3511:3589   */\n      tag_76\n      jump\t// in\n    tag_95:\n        /* \"#utility.yul\":3503:3589   */\n      swap1\n      pop\n        /* \"#utility.yul\":2972:3596   */\n      swap5\n      swap4\n      pop\n      pop\n      pop\n      pop\n      jump\t// out\n        /* \"#utility.yul\":3602:3731   */\n    tag_44:\n        /* \"#utility.yul\":3636:3642   */\n      0x00\n        /* \"#utility.yul\":3663:3683   */\n      tag_97\n      tag_98\n      jump\t// in\n    tag_97:\n        /* \"#utility.yul\":3653:3683   */\n      swap1\n      pop\n        /* \"#utility.yul\":3692:3725   */\n      tag_99\n        /* \"#utility.yul\":3720:3724   */\n      dup3\n        /* \"#utility.yul\":3712:3718   */\n      dup3\n        /* \"#utility.yul\":3692:3725   */\n      tag_100\n      jump\t// in\n    tag_99:\n        /* \"#utility.yul\":3602:3731   */\n      swap2\n      swap1\n      pop\n      jump\t// out\n        /* \"#utility.yul\":3737:3812   */\n    tag_98:\n        /* \"#utility.yul\":3770:3776   */\n      0x00\n        /* \"#utility.yul\":3803:3805   */\n      0x40\n        /* \"#utility.yul\":3797:3806   */\n      mload\n        /* \"#utility.yul\":3787:3806   */\n      swap1\n      pop\n        /* \"#utility.yul\":3737:3812   */\n      swap1\n      jump\t// out\n        /* \"#utility.yul\":3818:4126   */\n    tag_43:\n        /* \"#utility.yul\":3880:3884   */\n      0x00\n        /* \"#utility.yul\":3970:3988   */\n      0xffffffffffffffff\n        /* \"#utility.yul\":3962:3968   */\n      dup3\n        /* \"#utility.yul\":3959:3989   */\n      gt\n        /* \"#utility.yul\":3956:4012   */\n      iszero\n      tag_103\n      jumpi\n        /* \"#utility.yul\":3992:4010   */\n      tag_104\n      tag_105\n      jump\t// in\n    tag_104:\n        /* \"#utility.yul\":3956:4012   */\n    tag_103:\n        /* \"#utility.yul\":4030:4059   */\n      tag_106\n        /* \"#utility.yul\":4052:4058   */\n      dup3\n        /* \"#utility.yul\":4030:4059   */\n      tag_85\n      jump\t// in\n    tag_106:\n        /* \"#utility.yul\":4022:4059   */\n      swap1\n      pop\n        /* \"#utility.yul\":4114:4118   */\n      0x20\n        /* \"#utility.yul\":4108:4112   */\n      dup2\n        /* \"#utility.yul\":4104:4119   */\n      add\n        /* \"#utility.yul\":4096:4119   */\n      swap1\n      pop\n        /* \"#utility.yul\":3818:4126   */\n      swap2\n      swap1\n      pop\n      jump\t// out\n        /* \"#utility.yul\":4132:4231   */\n    tag_79:\n        /* \"#utility.yul\":4184:4190   */\n      0x00\n        /* \"#utility.yul\":4218:4223   */\n      dup2\n        /* \"#utility.yul\":4212:4224   */\n      mload\n        /* \"#utility.yul\":4202:4224   */\n      swap1\n      pop\n        /* \"#utility.yul\":4132:4231   */\n      swap2\n      swap1\n      pop\n      jump\t// out\n        /* \"#utility.yul\":4237:4406   */\n    tag_81:\n        /* \"#utility.yul\":4321:4332   */\n      0x00\n        /* \"#utility.yul\":4355:4361   */\n      dup3\n        /* \"#utility.yul\":4350:4353   */\n      dup3\n        /* \"#utility.yul\":4343:4362   */\n      mstore\n        /* \"#utility.yul\":4395:4399   */\n      0x20\n        /* \"#utility.yul\":4390:4393   */\n      dup3\n        /* \"#utility.yul\":4386:4400   */\n      add\n        /* \"#utility.yul\":4371:4400   */\n      swap1\n      pop\n        /* \"#utility.yul\":4237:4406   */\n      swap3\n      swap2\n      pop\n      pop\n      jump\t// out\n        /* \"#utility.yul\":4412:4489   */\n    tag_89:\n        /* \"#utility.yul\":4449:4456   */\n      0x00\n        /* \"#utility.yul\":4478:4483   */\n      dup2\n        /* \"#utility.yul\":4467:4483   */\n      swap1\n      pop\n        /* \"#utility.yul\":4412:4489   */\n      swap2\n      swap1\n      pop\n      jump\t// out\n        /* \"#utility.yul\":4495:4649   */\n    tag_49:\n        /* \"#utility.yul\":4579:4585   */\n      dup3\n        /* \"#utility.yul\":4574:4577   */\n      dup2\n        /* \"#utility.yul\":4569:4572   */\n      dup4\n        /* \"#utility.yul\":4556:4586   */\n      calldatacopy\n        /* \"#utility.yul\":4641:4642   */\n      0x00\n        /* \"#utility.yul\":4632:4638   */\n      dup4\n        /* \"#utility.yul\":4627:4630   */\n      dup4\n        /* \"#utility.yul\":4623:4639   */\n      add\n        /* \"#utility.yul\":4616:4643   */\n      mstore\n        /* \"#utility.yul\":4495:4649   */\n      pop\n      pop\n      pop\n      jump\t// out\n        /* \"#utility.yul\":4655:4962   */\n    tag_83:\n        /* \"#utility.yul\":4723:4724   */\n      0x00\n        /* \"#utility.yul\":4733:4846   */\n    tag_112:\n        /* \"#utility.yul\":4747:4753   */\n      dup4\n        /* \"#utility.yul\":4744:4745   */\n      dup2\n        /* \"#utility.yul\":4741:4754   */\n      lt\n        /* \"#utility.yul\":4733:4846   */\n      iszero\n      tag_114\n      jumpi\n        /* \"#utility.yul\":4832:4833   */\n      dup1\n        /* \"#utility.yul\":4827:4830   */\n      dup3\n        /* \"#utility.yul\":4823:4834   */\n      add\n        /* \"#utility.yul\":4817:4835   */\n      mload\n        /* \"#utility.yul\":4813:4814   */\n      dup2\n        /* \"#utility.yul\":4808:4811   */\n      dup5\n        /* \"#utility.yul\":4804:4815   */\n      add\n        /* \"#utility.yul\":4797:4836   */\n      mstore\n        /* \"#utility.yul\":4769:4771   */\n      0x20\n        /* \"#utility.yul\":4766:4767   */\n      dup2\n        /* \"#utility.yul\":4762:4772   */\n      add\n        /* \"#utility.yul\":4757:4772   */\n      swap1\n      pop\n        /* \"#utility.yul\":4733:4846   */\n      jump(tag_112)\n    tag_114:\n        /* \"#utility.yul\":4864:4870   */\n      dup4\n        /* \"#utility.yul\":4861:4862   */\n      dup2\n        /* \"#utility.yul\":4858:4871   */\n      gt\n        /* \"#utility.yul\":4855:4956   */\n      iszero\n      tag_115\n      jumpi\n        /* \"#utility.yul\":4944:4945   */\n      0x00\n        /* \"#utility.yul\":4935:4941   */\n      dup5\n        /* \"#utility.yul\":4930:4933   */\n      dup5\n        /* \"#utility.yul\":4926:4942   */\n      add\n        /* \"#utility.yul\":4919:4946   */\n      mstore\n        /* \"#utility.yul\":4855:4956   */\n    tag_115:\n        /* \"#utility.yul\":4704:4962   */\n      pop\n        /* \"#utility.yul\":4655:4962   */\n      pop\n      pop\n      pop\n      jump\t// out\n        /* \"#utility.yul\":4968:5288   */\n    tag_26:\n        /* \"#utility.yul\":5012:5018   */\n      0x00\n        /* \"#utility.yul\":5049:5050   */\n      0x02\n        /* \"#utility.yul\":5043:5047   */\n      dup3\n        /* \"#utility.yul\":5039:5051   */\n      div\n        /* \"#utility.yul\":5029:5051   */\n      swap1\n      pop\n        /* \"#utility.yul\":5096:5097   */\n      0x01\n        /* \"#utility.yul\":5090:5094   */\n      dup3\n        /* \"#utility.yul\":5086:5098   */\n      and\n        /* \"#utility.yul\":5117:5135   */\n      dup1\n        /* \"#utility.yul\":5107:5188   */\n      tag_117\n      jumpi\n        /* \"#utility.yul\":5173:5177   */\n      0x7f\n        /* \"#utility.yul\":5165:5171   */\n      dup3\n        /* \"#utility.yul\":5161:5178   */\n      and\n        /* \"#utility.yul\":5151:5178   */\n      swap2\n      pop\n        /* \"#utility.yul\":5107:5188   */\n    tag_117:\n        /* \"#utility.yul\":5235:5237   */\n      0x20\n        /* \"#utility.yul\":5227:5233   */\n      dup3\n        /* \"#utility.yul\":5224:5238   */\n      lt\n        /* \"#utility.yul\":5204:5222   */\n      dup2\n        /* \"#utility.yul\":5201:5239   */\n      eq\n        /* \"#utility.yul\":5198:5282   */\n      iszero\n      tag_118\n      jumpi\n        /* \"#utility.yul\":5254:5272   */\n      tag_119\n      tag_120\n      jump\t// in\n    tag_119:\n        /* \"#utility.yul\":5198:5282   */\n    tag_118:\n        /* \"#utility.yul\":5019:5288   */\n      pop\n        /* \"#utility.yul\":4968:5288   */\n      swap2\n      swap1\n      pop\n      jump\t// out\n        /* \"#utility.yul\":5294:5575   */\n    tag_100:\n        /* \"#utility.yul\":5377:5404   */\n      tag_122\n        /* \"#utility.yul\":5399:5403   */\n      dup3\n        /* \"#utility.yul\":5377:5404   */\n      tag_85\n      jump\t// in\n    tag_122:\n        /* \"#utility.yul\":5369:5375   */\n      dup2\n        /* \"#utility.yul\":5365:5405   */\n      add\n        /* \"#utility.yul\":5507:5513   */\n      dup2\n        /* \"#utility.yul\":5495:5505   */\n      dup2\n        /* \"#utility.yul\":5492:5514   */\n      lt\n        /* \"#utility.yul\":5471:5489   */\n      0xffffffffffffffff\n        /* \"#utility.yul\":5459:5469   */\n      dup3\n        /* \"#utility.yul\":5456:5490   */\n      gt\n        /* \"#utility.yul\":5453:5515   */\n      or\n        /* \"#utility.yul\":5450:5538   */\n      iszero\n      tag_123\n      jumpi\n        /* \"#utility.yul\":5518:5536   */\n      tag_124\n      tag_105\n      jump\t// in\n    tag_124:\n        /* \"#utility.yul\":5450:5538   */\n    tag_123:\n        /* \"#utility.yul\":5558:5568   */\n      dup1\n        /* \"#utility.yul\":5554:5556   */\n      0x40\n        /* \"#utility.yul\":5547:5569   */\n      mstore\n        /* \"#utility.yul\":5337:5575   */\n      pop\n        /* \"#utility.yul\":5294:5575   */\n      pop\n      pop\n      jump\t// out\n        /* \"#utility.yul\":5581:5761   */\n    tag_120:\n        /* \"#utility.yul\":5629:5706   */\n      0x4e487b7100000000000000000000000000000000000000000000000000000000\n        /* \"#utility.yul\":5626:5627   */\n      0x00\n        /* \"#utility.yul\":5619:5707   */\n      mstore\n        /* \"#utility.yul\":5726:5730   */\n      0x22\n        /* \"#utility.yul\":5723:5724   */\n      0x04\n        /* \"#utility.yul\":5716:5731   */\n      mstore\n        /* \"#utility.yul\":5750:5754   */\n      0x24\n        /* \"#utility.yul\":5747:5748   */\n      0x00\n        /* \"#utility.yul\":5740:5755   */\n      revert\n        /* \"#utility.yul\":5767:5947   */\n    tag_105:\n        /* \"#utility.yul\":5815:5892   */\n      0x4e487b7100000000000000000000000000000000000000000000000000000000\n        /* \"#utility.yul\":5812:5813   */\n      0x00\n        /* \"#utility.yul\":5805:5893   */\n      mstore\n        /* \"#utility.yul\":5912:5916   */\n      0x41\n        /* \"#utility.yul\":5909:5910   */\n      0x04\n        /* \"#utility.yul\":5902:5917   */\n      mstore\n        /* \"#utility.yul\":5936:5940   */\n      0x24\n        /* \"#utility.yul\":5933:5934   */\n      0x00\n        /* \"#utility.yul\":5926:5941   */\n      revert\n        /* \"#utility.yul\":5953:6070   */\n    tag_54:\n        /* \"#utility.yul\":6062:6063   */\n      0x00\n        /* \"#utility.yul\":6059:6060   */\n      dup1\n        /* \"#utility.yul\":6052:6064   */\n      revert\n        /* \"#utility.yul\":6076:6193   */\n    tag_47:\n        /* \"#utility.yul\":6185:6186   */\n      0x00\n        /* \"#utility.yul\":6182:6183   */\n      dup1\n        /* \"#utility.yul\":6175:6187   */\n      revert\n        /* \"#utility.yul\":6199:6316   */\n    tag_71:\n        /* \"#utility.yul\":6308:6309   */\n      0x00\n        /* \"#utility.yul\":6305:6306   */\n      dup1\n        /* \"#utility.yul\":6298:6310   */\n      revert\n        /* \"#utility.yul\":6322:6439   */\n    tag_63:\n        /* \"#utility.yul\":6431:6432   */\n      0x00\n        /* \"#utility.yul\":6428:6429   */\n      dup1\n        /* \"#utility.yul\":6421:6433   */\n      revert\n        /* \"#utility.yul\":6445:6547   */\n    tag_85:\n        /* \"#utility.yul\":6486:6492   */\n      0x00\n        /* \"#utility.yul\":6537:6539   */\n      0x1f\n        /* \"#utility.yul\":6533:6540   */\n      not\n        /* \"#utility.yul\":6528:6530   */\n      0x1f\n        /* \"#utility.yul\":6521:6526   */\n      dup4\n        /* \"#utility.yul\":6517:6531   */\n      add\n        /* \"#utility.yul\":6513:6541   */\n      and\n        /* \"#utility.yul\":6503:6541   */\n      swap1\n      pop\n        /* \"#utility.yul\":6445:6547   */\n      swap2\n      swap1\n      pop\n      jump\t// out\n        /* \"#utility.yul\":6553:6675   */\n    tag_59:\n        /* \"#utility.yul\":6626:6650   */\n      tag_133\n        /* \"#utility.yul\":6644:6649   */\n      dup2\n        /* \"#utility.yul\":6626:6650   */\n      tag_89\n      jump\t// in\n    tag_133:\n        /* \"#utility.yul\":6619:6624   */\n      dup2\n        /* \"#utility.yul\":6616:6651   */\n      eq\n        /* \"#utility.yul\":6606:6669   */\n      tag_134\n      jumpi\n        /* \"#utility.yul\":6665:6666   */\n      0x00\n        /* \"#utility.yul\":6662:6663   */\n      dup1\n        /* \"#utility.yul\":6655:6667   */\n      revert\n        /* \"#utility.yul\":6606:6669   */\n    tag_134:\n        /* \"#utility.yul\":6553:6675   */\n      pop\n      jump\t// out\n\n    auxdata: 0xa26469706673582212208c387fe2b18ce5108a5d8fb5e9771da6a1e059385a6ee53bb18817604634123964736f6c63430008070033\n}\n",
				"bytecode": {
					"linkReferences": {},
					"object": "60806040526040518060600160405280600181526020016040518060400160405280600381526020017f6c6961000000000000000000000000000000000000000000000000000000000081525081526020016040518060400160405280600d81526020017f6c696140676d61696c2e636f6d00000000000000000000000000000000000000815250815250600080820151816000015560208201518160010190805190602001906100b192919061012f565b5060408201518160020190805190602001906100ce92919061012f565b5050506040518060a00160405280600160ff168152602001600260ff168152602001600360ff168152602001600460ff168152602001600560ff16815250600390600561011c9291906101b5565b5034801561012957600080fd5b50610278565b82805461013b90610217565b90600052602060002090601f01602090048101928261015d57600085556101a4565b82601f1061017657805160ff19168380011785556101a4565b828001600101855582156101a4579182015b828111156101a3578251825591602001919060010190610188565b5b5090506101b191906101fa565b5090565b82600581019282156101e9579160200282015b828111156101e8578251829060ff169055916020019190600101906101c8565b5b5090506101f691906101fa565b5090565b5b808211156102135760008160009055506001016101fb565b5090565b6000600282049050600182168061022f57607f821691505b6020821081141561024357610242610249565b5b50919050565b7f4e487b7100000000000000000000000000000000000000000000000000000000600052602260045260246000fd5b610622806102876000396000f3fe608060405234801561001057600080fd5b50600436106100415760003560e01c8063e897cb4a14610046578063f096fa6314610062578063fecb2c1614610094575b600080fd5b610060600480360381019061005b91906102fe565b6100c4565b005b61007c600480360381019061007791906102d1565b6100e7565b60405161008b939291906103ec565b60405180910390f35b6100ae60048036038101906100a991906102d1565b610231565b6040516100bb91906103d1565b60405180910390f35b600960018160018154018082558091505003906000526020600020905050505050565b600981815481106100f757600080fd5b9060005260206000209060030201600091509050806000015490806001018054610120906104ef565b80601f016020809104026020016040519081016040528092919081815260200182805461014c906104ef565b80156101995780601f1061016e57610100808354040283529160200191610199565b820191906000526020600020905b81548152906001019060200180831161017c57829003601f168201915b5050505050908060020180546101ae906104ef565b80601f01602080910402602001604051908101604052809291908181526020018280546101da906104ef565b80156102275780601f106101fc57610100808354040283529160200191610227565b820191906000526020600020905b81548152906001019060200180831161020a57829003601f168201915b5050505050905083565b6003816005811061024157600080fd5b016000915090505481565b600061025f61025a84610456565b610431565b90508281526020810184848401111561027b5761027a6105b5565b5b6102868482856104ad565b509392505050565b600082601f8301126102a3576102a26105b0565b5b81356102b384826020860161024c565b91505092915050565b6000813590506102cb816105d5565b92915050565b6000602082840312156102e7576102e66105bf565b5b60006102f5848285016102bc565b91505092915050565b600080600060608486031215610317576103166105bf565b5b6000610325868287016102bc565b935050602084013567ffffffffffffffff811115610346576103456105ba565b5b6103528682870161028e565b925050604084013567ffffffffffffffff811115610373576103726105ba565b5b61037f8682870161028e565b9150509250925092565b600061039482610487565b61039e8185610492565b93506103ae8185602086016104bc565b6103b7816105c4565b840191505092915050565b6103cb816104a3565b82525050565b60006020820190506103e660008301846103c2565b92915050565b600060608201905061040160008301866103c2565b81810360208301526104138185610389565b905081810360408301526104278184610389565b9050949350505050565b600061043b61044c565b90506104478282610521565b919050565b6000604051905090565b600067ffffffffffffffff82111561047157610470610581565b5b61047a826105c4565b9050602081019050919050565b600081519050919050565b600082825260208201905092915050565b6000819050919050565b82818337600083830152505050565b60005b838110156104da5780820151818401526020810190506104bf565b838111156104e9576000848401525b50505050565b6000600282049050600182168061050757607f821691505b6020821081141561051b5761051a610552565b5b50919050565b61052a826105c4565b810181811067ffffffffffffffff8211171561054957610548610581565b5b80604052505050565b7f4e487b7100000000000000000000000000000000000000000000000000000000600052602260045260246000fd5b7f4e487b7100000000000000000000000000000000000000000000000000000000600052604160045260246000fd5b600080fd5b600080fd5b600080fd5b600080fd5b6000601f19601f8301169050919050565b6105de816104a3565b81146105e957600080fd5b5056fea26469706673582212208c387fe2b18ce5108a5d8fb5e9771da6a1e059385a6ee53bb18817604634123964736f6c63430008070033",
					"opcodes": "PUSH1 0x80 PUSH1 0x40 MSTORE PUSH1 0x40 MLOAD DUP1 PUSH1 0x60 ADD PUSH1 0x40 MSTORE DUP1 PUSH1 0x1 DUP2 MSTORE PUSH1 0x20 ADD PUSH1 0x40 MLOAD DUP1 PUSH1 0x40 ADD PUSH1 0x40 MSTORE DUP1 PUSH1 0x3 DUP2 MSTORE PUSH1 0x20 ADD PUSH32 0x6C69610000000000000000000000000000000000000000000000000000000000 DUP2 MSTORE POP DUP2 MSTORE PUSH1 0x20 ADD PUSH1 0x40 MLOAD DUP1 PUSH1 0x40 ADD PUSH1 0x40 MSTORE DUP1 PUSH1 0xD DUP2 MSTORE PUSH1 0x20 ADD PUSH32 0x6C696140676D61696C2E636F6D00000000000000000000000000000000000000 DUP2 MSTORE POP DUP2 MSTORE POP PUSH1 0x0 DUP1 DUP3 ADD MLOAD DUP2 PUSH1 0x0 ADD SSTORE PUSH1 0x20 DUP3 ADD MLOAD DUP2 PUSH1 0x1 ADD SWAP1 DUP1 MLOAD SWAP1 PUSH1 0x20 ADD SWAP1 PUSH2 0xB1 SWAP3 SWAP2 SWAP1 PUSH2 0x12F JUMP JUMPDEST POP PUSH1 0x40 DUP3 ADD MLOAD DUP2 PUSH1 0x2 ADD SWAP1 DUP1 MLOAD SWAP1 PUSH1 0x20 ADD SWAP1 PUSH2 0xCE SWAP3 SWAP2 SWAP1 PUSH2 0x12F JUMP JUMPDEST POP POP POP PUSH1 0x40 MLOAD DUP1 PUSH1 0xA0 ADD PUSH1 0x40 MSTORE DUP1 PUSH1 0x1 PUSH1 0xFF AND DUP2 MSTORE PUSH1 0x20 ADD PUSH1 0x2 PUSH1 0xFF AND DUP2 MSTORE PUSH1 0x20 ADD PUSH1 0x3 PUSH1 0xFF AND DUP2 MSTORE PUSH1 0x20 ADD PUSH1 0x4 PUSH1 0xFF AND DUP2 MSTORE PUSH1 0x20 ADD PUSH1 0x5 PUSH1 0xFF AND DUP2 MSTORE POP PUSH1 0x3 SWAP1 PUSH1 0x5 PUSH2 0x11C SWAP3 SWAP2 SWAP1 PUSH2 0x1B5 JUMP JUMPDEST POP CALLVALUE DUP1 ISZERO PUSH2 0x129 JUMPI PUSH1 0x0 DUP1 REVERT JUMPDEST POP PUSH2 0x278 JUMP JUMPDEST DUP3 DUP1 SLOAD PUSH2 0x13B SWAP1 PUSH2 0x217 JUMP JUMPDEST SWAP1 PUSH1 0x0 MSTORE PUSH1 0x20 PUSH1 0x0 KECCAK256 SWAP1 PUSH1 0x1F ADD PUSH1 0x20 SWAP1 DIV DUP2 ADD SWAP3 DUP3 PUSH2 0x15D JUMPI PUSH1 0x0 DUP6 SSTORE PUSH2 0x1A4 JUMP JUMPDEST DUP3 PUSH1 0x1F LT PUSH2 0x176 JUMPI DUP1 MLOAD PUSH1 0xFF NOT AND DUP4 DUP1 ADD OR DUP6 SSTORE PUSH2 0x1A4 JUMP JUMPDEST DUP3 DUP1 ADD PUSH1 0x1 ADD DUP6 SSTORE DUP3 ISZERO PUSH2 0x1A4 JUMPI SWAP2 DUP3 ADD JUMPDEST DUP3 DUP2 GT ISZERO PUSH2 0x1A3 JUMPI DUP3 MLOAD DUP3 SSTORE SWAP2 PUSH1 0x20 ADD SWAP2 SWAP1 PUSH1 0x1 ADD SWAP1 PUSH2 0x188 JUMP JUMPDEST JUMPDEST POP SWAP1 POP PUSH2 0x1B1 SWAP2 SWAP1 PUSH2 0x1FA JUMP JUMPDEST POP SWAP1 JUMP JUMPDEST DUP3 PUSH1 0x5 DUP2 ADD SWAP3 DUP3 ISZERO PUSH2 0x1E9 JUMPI SWAP2 PUSH1 0x20 MUL DUP3 ADD JUMPDEST DUP3 DUP2 GT ISZERO PUSH2 0x1E8 JUMPI DUP3 MLOAD DUP3 SWAP1 PUSH1 0xFF AND SWAP1 SSTORE SWAP2 PUSH1 0x20 ADD SWAP2 SWAP1 PUSH1 0x1 ADD SWAP1 PUSH2 0x1C8 JUMP JUMPDEST JUMPDEST POP SWAP1 POP PUSH2 0x1F6 SWAP2 SWAP1 PUSH2 0x1FA JUMP JUMPDEST POP SWAP1 JUMP JUMPDEST JUMPDEST DUP1 DUP3 GT ISZERO PUSH2 0x213 JUMPI PUSH1 0x0 DUP2 PUSH1 0x0 SWAP1 SSTORE POP PUSH1 0x1 ADD PUSH2 0x1FB JUMP JUMPDEST POP SWAP1 JUMP JUMPDEST PUSH1 0x0 PUSH1 0x2 DUP3 DIV SWAP1 POP PUSH1 0x1 DUP3 AND DUP1 PUSH2 0x22F JUMPI PUSH1 0x7F DUP3 AND SWAP2 POP JUMPDEST PUSH1 0x20 DUP3 LT DUP2 EQ ISZERO PUSH2 0x243 JUMPI PUSH2 0x242 PUSH2 0x249 JUMP JUMPDEST JUMPDEST POP SWAP2 SWAP1 POP JUMP JUMPDEST PUSH32 0x4E487B7100000000000000000000000000000000000000000000000000000000 PUSH1 0x0 MSTORE PUSH1 0x22 PUSH1 0x4 MSTORE PUSH1 0x24 PUSH1 0x0 REVERT JUMPDEST PUSH2 0x622 DUP1 PUSH2 0x287 PUSH1 0x0 CODECOPY PUSH1 0x0 RETURN INVALID PUSH1 0x80 PUSH1 0x40 MSTORE CALLVALUE DUP1 ISZERO PUSH2 0x10 JUMPI PUSH1 0x0 DUP1 REVERT JUMPDEST POP PUSH1 0x4 CALLDATASIZE LT PUSH2 0x41 JUMPI PUSH1 0x0 CALLDATALOAD PUSH1 0xE0 SHR DUP1 PUSH4 0xE897CB4A EQ PUSH2 0x46 JUMPI DUP1 PUSH4 0xF096FA63 EQ PUSH2 0x62 JUMPI DUP1 PUSH4 0xFECB2C16 EQ PUSH2 0x94 JUMPI JUMPDEST PUSH1 0x0 DUP1 REVERT JUMPDEST PUSH2 0x60 PUSH1 0x4 DUP1 CALLDATASIZE SUB DUP2 ADD SWAP1 PUSH2 0x5B SWAP2 SWAP1 PUSH2 0x2FE JUMP JUMPDEST PUSH2 0xC4 JUMP JUMPDEST STOP JUMPDEST PUSH2 0x7C PUSH1 0x4 DUP1 CALLDATASIZE SUB DUP2 ADD SWAP1 PUSH2 0x77 SWAP2 SWAP1 PUSH2 0x2D1 JUMP JUMPDEST PUSH2 0xE7 JUMP JUMPDEST PUSH1 0x40 MLOAD PUSH2 0x8B SWAP4 SWAP3 SWAP2 SWAP1 PUSH2 0x3EC JUMP JUMPDEST PUSH1 0x40 MLOAD DUP1 SWAP2 SUB SWAP1 RETURN JUMPDEST PUSH2 0xAE PUSH1 0x4 DUP1 CALLDATASIZE SUB DUP2 ADD SWAP1 PUSH2 0xA9 SWAP2 SWAP1 PUSH2 0x2D1 JUMP JUMPDEST PUSH2 0x231 JUMP JUMPDEST PUSH1 0x40 MLOAD PUSH2 0xBB SWAP2 SWAP1 PUSH2 0x3D1 JUMP JUMPDEST PUSH1 0x40 MLOAD DUP1 SWAP2 SUB SWAP1 RETURN JUMPDEST PUSH1 0x9 PUSH1 0x1 DUP2 PUSH1 0x1 DUP2 SLOAD ADD DUP1 DUP3 SSTORE DUP1 SWAP2 POP POP SUB SWAP1 PUSH1 0x0 MSTORE PUSH1 0x20 PUSH1 0x0 KECCAK256 SWAP1 POP POP POP POP POP JUMP JUMPDEST PUSH1 0x9 DUP2 DUP2 SLOAD DUP2 LT PUSH2 0xF7 JUMPI PUSH1 0x0 DUP1 REVERT JUMPDEST SWAP1 PUSH1 0x0 MSTORE PUSH1 0x20 PUSH1 0x0 KECCAK256 SWAP1 PUSH1 0x3 MUL ADD PUSH1 0x0 SWAP2 POP SWAP1 POP DUP1 PUSH1 0x0 ADD SLOAD SWAP1 DUP1 PUSH1 0x1 ADD DUP1 SLOAD PUSH2 0x120 SWAP1 PUSH2 0x4EF JUMP JUMPDEST DUP1 PUSH1 0x1F ADD PUSH1 0x20 DUP1 SWAP2 DIV MUL PUSH1 0x20 ADD PUSH1 0x40 MLOAD SWAP1 DUP2 ADD PUSH1 0x40 MSTORE DUP1 SWAP3 SWAP2 SWAP1 DUP2 DUP2 MSTORE PUSH1 0x20 ADD DUP3 DUP1 SLOAD PUSH2 0x14C SWAP1 PUSH2 0x4EF JUMP JUMPDEST DUP1 ISZERO PUSH2 0x199 JUMPI DUP1 PUSH1 0x1F LT PUSH2 0x16E JUMPI PUSH2 0x100 DUP1 DUP4 SLOAD DIV MUL DUP4 MSTORE SWAP2 PUSH1 0x20 ADD SWAP2 PUSH2 0x199 JUMP JUMPDEST DUP3 ADD SWAP2 SWAP1 PUSH1 0x0 MSTORE PUSH1 0x20 PUSH1 0x0 KECCAK256 SWAP1 JUMPDEST DUP2 SLOAD DUP2 MSTORE SWAP1 PUSH1 0x1 ADD SWAP1 PUSH1 0x20 ADD DUP1 DUP4 GT PUSH2 0x17C JUMPI DUP3 SWAP1 SUB PUSH1 0x1F AND DUP3 ADD SWAP2 JUMPDEST POP POP POP POP POP SWAP1 DUP1 PUSH1 0x2 ADD DUP1 SLOAD PUSH2 0x1AE SWAP1 PUSH2 0x4EF JUMP JUMPDEST DUP1 PUSH1 0x1F ADD PUSH1 0x20 DUP1 SWAP2 DIV MUL PUSH1 0x20 ADD PUSH1 0x40 MLOAD SWAP1 DUP2 ADD PUSH1 0x40 MSTORE DUP1 SWAP3 SWAP2 SWAP1 DUP2 DUP2 MSTORE PUSH1 0x20 ADD DUP3 DUP1 SLOAD PUSH2 0x1DA SWAP1 PUSH2 0x4EF JUMP JUMPDEST DUP1 ISZERO PUSH2 0x227 JUMPI DUP1 PUSH1 0x1F LT PUSH2 0x1FC JUMPI PUSH2 0x100 DUP1 DUP4 SLOAD DIV MUL DUP4 MSTORE SWAP2 PUSH1 0x20 ADD SWAP2 PUSH2 0x227 JUMP JUMPDEST DUP3 ADD SWAP2 SWAP1 PUSH1 0x0 MSTORE PUSH1 0x20 PUSH1 0x0 KECCAK256 SWAP1 JUMPDEST DUP2 SLOAD DUP2 MSTORE SWAP1 PUSH1 0x1 ADD SWAP1 PUSH1 0x20 ADD DUP1 DUP4 GT PUSH2 0x20A JUMPI DUP3 SWAP1 SUB PUSH1 0x1F AND DUP3 ADD SWAP2 JUMPDEST POP POP POP POP POP SWAP1 POP DUP4 JUMP JUMPDEST PUSH1 0x3 DUP2 PUSH1 0x5 DUP2 LT PUSH2 0x241 JUMPI PUSH1 0x0 DUP1 REVERT JUMPDEST ADD PUSH1 0x0 SWAP2 POP SWAP1 POP SLOAD DUP2 JUMP JUMPDEST PUSH1 0x0 PUSH2 0x25F PUSH2 0x25A DUP5 PUSH2 0x456 JUMP JUMPDEST PUSH2 0x431 JUMP JUMPDEST SWAP1 POP DUP3 DUP2 MSTORE PUSH1 0x20 DUP2 ADD DUP5 DUP5 DUP5 ADD GT ISZERO PUSH2 0x27B JUMPI PUSH2 0x27A PUSH2 0x5B5 JUMP JUMPDEST JUMPDEST PUSH2 0x286 DUP5 DUP3 DUP6 PUSH2 0x4AD JUMP JUMPDEST POP SWAP4 SWAP3 POP POP POP JUMP JUMPDEST PUSH1 0x0 DUP3 PUSH1 0x1F DUP4 ADD SLT PUSH2 0x2A3 JUMPI PUSH2 0x2A2 PUSH2 0x5B0 JUMP JUMPDEST JUMPDEST DUP2 CALLDATALOAD PUSH2 0x2B3 DUP5 DUP3 PUSH1 0x20 DUP7 ADD PUSH2 0x24C JUMP JUMPDEST SWAP2 POP POP SWAP3 SWAP2 POP POP JUMP JUMPDEST PUSH1 0x0 DUP2 CALLDATALOAD SWAP1 POP PUSH2 0x2CB DUP2 PUSH2 0x5D5 JUMP JUMPDEST SWAP3 SWAP2 POP POP JUMP JUMPDEST PUSH1 0x0 PUSH1 0x20 DUP3 DUP5 SUB SLT ISZERO PUSH2 0x2E7 JUMPI PUSH2 0x2E6 PUSH2 0x5BF JUMP JUMPDEST JUMPDEST PUSH1 0x0 PUSH2 0x2F5 DUP5 DUP3 DUP6 ADD PUSH2 0x2BC JUMP JUMPDEST SWAP2 POP POP SWAP3 SWAP2 POP POP JUMP JUMPDEST PUSH1 0x0 DUP1 PUSH1 0x0 PUSH1 0x60 DUP5 DUP7 SUB SLT ISZERO PUSH2 0x317 JUMPI PUSH2 0x316 PUSH2 0x5BF JUMP JUMPDEST JUMPDEST PUSH1 0x0 PUSH2 0x325 DUP7 DUP3 DUP8 ADD PUSH2 0x2BC JUMP JUMPDEST SWAP4 POP POP PUSH1 0x20 DUP5 ADD CALLDATALOAD PUSH8 0xFFFFFFFFFFFFFFFF DUP2 GT ISZERO PUSH2 0x346 JUMPI PUSH2 0x345 PUSH2 0x5BA JUMP JUMPDEST JUMPDEST PUSH2 0x352 DUP7 DUP3 DUP8 ADD PUSH2 0x28E JUMP JUMPDEST SWAP3 POP POP PUSH1 0x40 DUP5 ADD CALLDATALOAD PUSH8 0xFFFFFFFFFFFFFFFF DUP2 GT ISZERO PUSH2 0x373 JUMPI PUSH2 0x372 PUSH2 0x5BA JUMP JUMPDEST JUMPDEST PUSH2 0x37F DUP7 DUP3 DUP8 ADD PUSH2 0x28E JUMP JUMPDEST SWAP2 POP POP SWAP3 POP SWAP3 POP SWAP3 JUMP JUMPDEST PUSH1 0x0 PUSH2 0x394 DUP3 PUSH2 0x487 JUMP JUMPDEST PUSH2 0x39E DUP2 DUP6 PUSH2 0x492 JUMP JUMPDEST SWAP4 POP PUSH2 0x3AE DUP2 DUP6 PUSH1 0x20 DUP7 ADD PUSH2 0x4BC JUMP JUMPDEST PUSH2 0x3B7 DUP2 PUSH2 0x5C4 JUMP JUMPDEST DUP5 ADD SWAP2 POP POP SWAP3 SWAP2 POP POP JUMP JUMPDEST PUSH2 0x3CB DUP2 PUSH2 0x4A3 JUMP JUMPDEST DUP3 MSTORE POP POP JUMP JUMPDEST PUSH1 0x0 PUSH1 0x20 DUP3 ADD SWAP1 POP PUSH2 0x3E6 PUSH1 0x0 DUP4 ADD DUP5 PUSH2 0x3C2 JUMP JUMPDEST SWAP3 SWAP2 POP POP JUMP JUMPDEST PUSH1 0x0 PUSH1 0x60 DUP3 ADD SWAP1 POP PUSH2 0x401 PUSH1 0x0 DUP4 ADD DUP7 PUSH2 0x3C2 JUMP JUMPDEST DUP2 DUP2 SUB PUSH1 0x20 DUP4 ADD MSTORE PUSH2 0x413 DUP2 DUP6 PUSH2 0x389 JUMP JUMPDEST SWAP1 POP DUP2 DUP2 SUB PUSH1 0x40 DUP4 ADD MSTORE PUSH2 0x427 DUP2 DUP5 PUSH2 0x389 JUMP JUMPDEST SWAP1 POP SWAP5 SWAP4 POP POP POP POP JUMP JUMPDEST PUSH1 0x0 PUSH2 0x43B PUSH2 0x44C JUMP JUMPDEST SWAP1 POP PUSH2 0x447 DUP3 DUP3 PUSH2 0x521 JUMP JUMPDEST SWAP2 SWAP1 POP JUMP JUMPDEST PUSH1 0x0 PUSH1 0x40 MLOAD SWAP1 POP SWAP1 JUMP JUMPDEST PUSH1 0x0 PUSH8 0xFFFFFFFFFFFFFFFF DUP3 GT ISZERO PUSH2 0x471 JUMPI PUSH2 0x470 PUSH2 0x581 JUMP JUMPDEST JUMPDEST PUSH2 0x47A DUP3 PUSH2 0x5C4 JUMP JUMPDEST SWAP1 POP PUSH1 0x20 DUP2 ADD SWAP1 POP SWAP2 SWAP1 POP JUMP JUMPDEST PUSH1 0x0 DUP2 MLOAD SWAP1 POP SWAP2 SWAP1 POP JUMP JUMPDEST PUSH1 0x0 DUP3 DUP3 MSTORE PUSH1 0x20 DUP3 ADD SWAP1 POP SWAP3 SWAP2 POP POP JUMP JUMPDEST PUSH1 0x0 DUP2 SWAP1 POP SWAP2 SWAP1 POP JUMP JUMPDEST DUP3 DUP2 DUP4 CALLDATACOPY PUSH1 0x0 DUP4 DUP4 ADD MSTORE POP POP POP JUMP JUMPDEST PUSH1 0x0 JUMPDEST DUP4 DUP2 LT ISZERO PUSH2 0x4DA JUMPI DUP1 DUP3 ADD MLOAD DUP2 DUP5 ADD MSTORE PUSH1 0x20 DUP2 ADD SWAP1 POP PUSH2 0x4BF JUMP JUMPDEST DUP4 DUP2 GT ISZERO PUSH2 0x4E9 JUMPI PUSH1 0x0 DUP5 DUP5 ADD MSTORE JUMPDEST POP POP POP POP JUMP JUMPDEST PUSH1 0x0 PUSH1 0x2 DUP3 DIV SWAP1 POP PUSH1 0x1 DUP3 AND DUP1 PUSH2 0x507 JUMPI PUSH1 0x7F DUP3 AND SWAP2 POP JUMPDEST PUSH1 0x20 DUP3 LT DUP2 EQ ISZERO PUSH2 0x51B JUMPI PUSH2 0x51A PUSH2 0x552 JUMP JUMPDEST JUMPDEST POP SWAP2 SWAP1 POP JUMP JUMPDEST PUSH2 0x52A DUP3 PUSH2 0x5C4 JUMP JUMPDEST DUP2 ADD DUP2 DUP2 LT PUSH8 0xFFFFFFFFFFFFFFFF DUP3 GT OR ISZERO PUSH2 0x549 JUMPI PUSH2 0x548 PUSH2 0x581 JUMP JUMPDEST JUMPDEST DUP1 PUSH1 0x40 MSTORE POP POP POP JUMP JUMPDEST PUSH32 0x4E487B7100000000000000000000000000000000000000000000000000000000 PUSH1 0x0 MSTORE PUSH1 0x22 PUSH1 0x4 MSTORE PUSH1 0x24 PUSH1 0x0 REVERT JUMPDEST PUSH32 0x4E487B7100000000000000000000000000000000000000000000000000000000 PUSH1 0x0 MSTORE PUSH1 0x41 PUSH1 0x4 MSTORE PUSH1 0x24 PUSH1 0x0 REVERT JUMPDEST PUSH1 0x0 DUP1 REVERT JUMPDEST PUSH1 0x0 DUP1 REVERT JUMPDEST PUSH1 0x0 DUP1 REVERT JUMPDEST PUSH1 0x0 DUP1 REVERT JUMPDEST PUSH1 0x0 PUSH1 0x1F NOT PUSH1 0x1F DUP4 ADD AND SWAP1 POP SWAP2 SWAP1 POP JUMP JUMPDEST PUSH2 0x5DE DUP2 PUSH2 0x4A3 JUMP JUMPDEST DUP2 EQ PUSH2 0x5E9 JUMPI PUSH1 0x0 DUP1 REVERT JUMPDEST POP JUMP INVALID LOG2 PUSH5 0x6970667358 0x22 SLT KECCAK256 DUP13 CODESIZE PUSH32 0xE2B18CE5108A5D8FB5E9771DA6A1E059385A6EE53BB18817604634123964736F PUSH13 0x63430008070033000000000000 "
				},
				"gasEstimates": {
					"creation": {
						"codeDepositCost": "314000",
						"executionCost": "infinite",
						"totalCost": "infinite"
					},
					"external": {
						"array_modificatios(uint256,string,string)": "infinite",
						"dynamic_list_customer(uint256)": "infinite",
						"fixed_list_uints(uint256)": "infinite"
					}
				},
				"methodIdentifiers": {
					"array_modificatios(uint256,string,string)": "e897cb4a",
					"dynamic_list_customer(uint256)": "f096fa63",
					"fixed_list_uints(uint256)": "fecb2c16"
				}
			},
			"storageLayout": {
				"storage": [
					{
						"astId": 16,
						"contract": "Contracts/structs_datos.sol:data_structures",
						"label": "customer_1",
						"offset": 0,
						"slot": "0",
						"type": "t_struct(Customer)8_storage"
					},
					{
						"astId": 26,
						"contract": "Contracts/structs_datos.sol:data_structures",
						"label": "fixed_list_uints",
						"offset": 0,
						"slot": "3",
						"type": "t_array(t_uint256)5_storage"
					},
					{
						"astId": 29,
						"contract": "Contracts/structs_datos.sol:data_structures",
						"label": "dynamic_list_uints",
						"offset": 0,
						"slot": "8",
						"type": "t_array(t_uint256)dyn_storage"
					},
					{
						"astId": 33,
						"contract": "Contracts/structs_datos.sol:data_structures",
						"label": "dynamic_list_customer",
						"offset": 0,
						"slot": "9",
						"type": "t_array(t_struct(Customer)8_storage)dyn_storage"
					}
				],
				"types": {
					"t_array(t_struct(Customer)8_storage)dyn_storage": {
						"base": "t_struct(Customer)8_storage",
						"encoding": "dynamic_array",
						"label": "struct data_structures.Customer[]",
						"numberOfBytes": "32"
					},
					"t_array(t_uint256)5_storage": {
						"base": "t_uint256",
						"encoding": "inplace",
						"label": "uint256[5]",
						"numberOfBytes": "160"
					},
					"t_array(t_uint256)dyn_storage": {
						"base": "t_uint256",
						"encoding": "dynamic_array",
						"label": "uint256[]",
						"numberOfBytes": "32"
					},
					"t_string_storage": {
						"encoding": "bytes",
						"label": "string",
						"numberOfBytes": "32"
					},
					"t_struct(Customer)8_storage": {
						"encoding": "inplace",
						"label": "struct data_structures.Customer",
						"members": [
							{
								"astId": 3,
								"contract": "Contracts/structs_datos.sol:data_structures",
								"label": "id",
								"offset": 0,
								"slot": "0",
								"type": "t_uint256"
							},
							{
								"astId": 5,
								"contract": "Contracts/structs_datos.sol:data_structures",
								"label": "name",
								"offset": 0,
								"slot": "1",
								"type": "t_string_storage"
							},
							{
								"astId": 7,
								"contract": "Contracts/structs_datos.sol:data_structures",
								"label": "email",
								"offset": 0,
								"slot": "2",
								"type": "t_string_storage"
							}
						],
						"numberOfBytes": "96"
					},
					"t_uint256": {
						"encoding": "inplace",
						"label": "uint256",
						"numberOfBytes": "32"
					}
				}
			},
			"userdoc": {
				"kind": "user",
				"methods": {},
				"version": 1
			}
		}
	}
}