{
	"Contracts/funcionPayable.sol": {
		"ethSend": {
			"abi": [
				{
					"inputs": [],
					"stateMutability": "payable",
					"type": "constructor"
				},
				{
					"anonymous": false,
					"inputs": [
						{
							"indexed": false,
							"internalType": "bool",
							"name": "",
							"type": "bool"
						},
						{
							"indexed": false,
							"internalType": "bytes",
							"name": "",
							"type": "bytes"
						}
					],
					"name": "callStatus",
					"type": "event"
				},
				{
					"anonymous": false,
					"inputs": [
						{
							"indexed": false,
							"internalType": "bool",
							"name": "",
							"type": "bool"
						}
					],
					"name": "sendStatus",
					"type": "event"
				},
				{
					"inputs": [
						{
							"internalType": "address payable",
							"name": "_to",
							"type": "address"
						}
					],
					"name": "sendViaTransfer",
					"outputs": [],
					"stateMutability": "payable",
					"type": "function"
				},
				{
					"stateMutability": "payable",
					"type": "receive"
				}
			],
			"devdoc": {
				"kind": "dev",
				"methods": {},
				"version": 1
			},
			"evm": {
				"assembly": "    /* \"Contracts/funcionPayable.sol\":83:365  contract ethSend {\r... */\n  mstore(0x40, 0x80)\n  dataSize(sub_0)\n  dup1\n  dataOffset(sub_0)\n  0x00\n  codecopy\n  0x00\n  return\nstop\n\nsub_0: assembly {\n        /* \"Contracts/funcionPayable.sol\":83:365  contract ethSend {\r... */\n      mstore(0x40, 0x80)\n      jumpi(tag_1, lt(calldatasize, 0x04))\n      shr(0xe0, calldataload(0x00))\n      dup1\n      0x636e082b\n      eq\n      tag_3\n      jumpi\n      jump(tag_2)\n    tag_1:\n      jumpi(tag_2, calldatasize)\n      stop\n    tag_2:\n      0x00\n      dup1\n      revert\n        /* \"Contracts/funcionPayable.sol\":243:362  function sendViaTransfer(address payable _to) public payable {\r... */\n    tag_3:\n      tag_6\n      0x04\n      dup1\n      calldatasize\n      sub\n      dup2\n      add\n      swap1\n      tag_7\n      swap2\n      swap1\n      tag_8\n      jump\t// in\n    tag_7:\n      tag_9\n      jump\t// in\n    tag_6:\n      stop\n    tag_9:\n        /* \"Contracts/funcionPayable.sol\":315:324  bool sent */\n      0x00\n        /* \"Contracts/funcionPayable.sol\":327:330  _to */\n      dup2\n        /* \"Contracts/funcionPayable.sol\":327:335  _to.send */\n      0xffffffffffffffffffffffffffffffffffffffff\n      and\n        /* \"Contracts/funcionPayable.sol\":327:344  _to.send(1 ether) */\n      0x08fc\n        /* \"Contracts/funcionPayable.sol\":336:343  1 ether */\n      0x0de0b6b3a7640000\n        /* \"Contracts/funcionPayable.sol\":327:344  _to.send(1 ether) */\n      swap1\n      dup2\n      iszero\n      mul\n      swap1\n      mload(0x40)\n      0x00\n      mload(0x40)\n      dup1\n      dup4\n      sub\n      dup2\n      dup6\n      dup9\n      dup9\n      call\n      swap4\n      pop\n      pop\n      pop\n      pop\n        /* \"Contracts/funcionPayable.sol\":315:344  bool sent = _to.send(1 ether) */\n      swap1\n      pop\n        /* \"Contracts/funcionPayable.sol\":304:362  {\r... */\n      pop\n        /* \"Contracts/funcionPayable.sol\":243:362  function sendViaTransfer(address payable _to) public payable {\r... */\n      pop\n      jump\t// out\n        /* \"#utility.yul\":7:162   */\n    tag_13:\n        /* \"#utility.yul\":61:66   */\n      0x00\n        /* \"#utility.yul\":99:105   */\n      dup2\n        /* \"#utility.yul\":86:106   */\n      calldataload\n        /* \"#utility.yul\":77:106   */\n      swap1\n      pop\n        /* \"#utility.yul\":115:156   */\n      tag_15\n        /* \"#utility.yul\":150:155   */\n      dup2\n        /* \"#utility.yul\":115:156   */\n      tag_16\n      jump\t// in\n    tag_15:\n        /* \"#utility.yul\":7:162   */\n      swap3\n      swap2\n      pop\n      pop\n      jump\t// out\n        /* \"#utility.yul\":168:513   */\n    tag_8:\n        /* \"#utility.yul\":235:241   */\n      0x00\n        /* \"#utility.yul\":284:286   */\n      0x20\n        /* \"#utility.yul\":272:281   */\n      dup3\n        /* \"#utility.yul\":263:270   */\n      dup5\n        /* \"#utility.yul\":259:282   */\n      sub\n        /* \"#utility.yul\":255:287   */\n      slt\n        /* \"#utility.yul\":252:371   */\n      iszero\n      tag_18\n      jumpi\n        /* \"#utility.yul\":290:369   */\n      tag_19\n      tag_20\n      jump\t// in\n    tag_19:\n        /* \"#utility.yul\":252:371   */\n    tag_18:\n        /* \"#utility.yul\":410:411   */\n      0x00\n        /* \"#utility.yul\":435:496   */\n      tag_21\n        /* \"#utility.yul\":488:495   */\n      dup5\n        /* \"#utility.yul\":479:485   */\n      dup3\n        /* \"#utility.yul\":468:477   */\n      dup6\n        /* \"#utility.yul\":464:486   */\n      add\n        /* \"#utility.yul\":435:496   */\n      tag_13\n      jump\t// in\n    tag_21:\n        /* \"#utility.yul\":425:496   */\n      swap2\n      pop\n        /* \"#utility.yul\":381:506   */\n      pop\n        /* \"#utility.yul\":168:513   */\n      swap3\n      swap2\n      pop\n      pop\n      jump\t// out\n        /* \"#utility.yul\":600:704   */\n    tag_24:\n        /* \"#utility.yul\":645:652   */\n      0x00\n        /* \"#utility.yul\":674:698   */\n      tag_26\n        /* \"#utility.yul\":692:697   */\n      dup3\n        /* \"#utility.yul\":674:698   */\n      tag_27\n      jump\t// in\n    tag_26:\n        /* \"#utility.yul\":663:698   */\n      swap1\n      pop\n        /* \"#utility.yul\":600:704   */\n      swap2\n      swap1\n      pop\n      jump\t// out\n        /* \"#utility.yul\":710:836   */\n    tag_27:\n        /* \"#utility.yul\":747:754   */\n      0x00\n        /* \"#utility.yul\":787:829   */\n      0xffffffffffffffffffffffffffffffffffffffff\n        /* \"#utility.yul\":780:785   */\n      dup3\n        /* \"#utility.yul\":776:830   */\n      and\n        /* \"#utility.yul\":765:830   */\n      swap1\n      pop\n        /* \"#utility.yul\":710:836   */\n      swap2\n      swap1\n      pop\n      jump\t// out\n        /* \"#utility.yul\":965:1082   */\n    tag_20:\n        /* \"#utility.yul\":1074:1075   */\n      0x00\n        /* \"#utility.yul\":1071:1072   */\n      dup1\n        /* \"#utility.yul\":1064:1076   */\n      revert\n        /* \"#utility.yul\":1088:1226   */\n    tag_16:\n        /* \"#utility.yul\":1169:1201   */\n      tag_33\n        /* \"#utility.yul\":1195:1200   */\n      dup2\n        /* \"#utility.yul\":1169:1201   */\n      tag_24\n      jump\t// in\n    tag_33:\n        /* \"#utility.yul\":1162:1167   */\n      dup2\n        /* \"#utility.yul\":1159:1202   */\n      eq\n        /* \"#utility.yul\":1149:1220   */\n      tag_34\n      jumpi\n        /* \"#utility.yul\":1216:1217   */\n      0x00\n        /* \"#utility.yul\":1213:1214   */\n      dup1\n        /* \"#utility.yul\":1206:1218   */\n      revert\n        /* \"#utility.yul\":1149:1220   */\n    tag_34:\n        /* \"#utility.yul\":1088:1226   */\n      pop\n      jump\t// out\n\n    auxdata: 0xa26469706673582212201be5a58c56fca10cf7c6d15b21abe7790f8787fc17fb1a0968a61fe373fd0a4f64736f6c63430008070033\n}\n",
				"bytecode": {
					"linkReferences": {},
					"object": "6080604052610155806100136000396000f3fe6080604052600436106100225760003560e01c8063636e082b1461002e57610029565b3661002957005b600080fd5b610048600480360381019061004391906100a4565b61004a565b005b60008173ffffffffffffffffffffffffffffffffffffffff166108fc670de0b6b3a76400009081150290604051600060405180830381858888f1935050505090505050565b60008135905061009e81610108565b92915050565b6000602082840312156100ba576100b9610103565b5b60006100c88482850161008f565b91505092915050565b60006100dc826100e3565b9050919050565b600073ffffffffffffffffffffffffffffffffffffffff82169050919050565b600080fd5b610111816100d1565b811461011c57600080fd5b5056fea26469706673582212201be5a58c56fca10cf7c6d15b21abe7790f8787fc17fb1a0968a61fe373fd0a4f64736f6c63430008070033",
					"opcodes": "PUSH1 0x80 PUSH1 0x40 MSTORE PUSH2 0x155 DUP1 PUSH2 0x13 PUSH1 0x0 CODECOPY PUSH1 0x0 RETURN INVALID PUSH1 0x80 PUSH1 0x40 MSTORE PUSH1 0x4 CALLDATASIZE LT PUSH2 0x22 JUMPI PUSH1 0x0 CALLDATALOAD PUSH1 0xE0 SHR DUP1 PUSH4 0x636E082B EQ PUSH2 0x2E JUMPI PUSH2 0x29 JUMP JUMPDEST CALLDATASIZE PUSH2 0x29 JUMPI STOP JUMPDEST PUSH1 0x0 DUP1 REVERT JUMPDEST PUSH2 0x48 PUSH1 0x4 DUP1 CALLDATASIZE SUB DUP2 ADD SWAP1 PUSH2 0x43 SWAP2 SWAP1 PUSH2 0xA4 JUMP JUMPDEST PUSH2 0x4A JUMP JUMPDEST STOP JUMPDEST PUSH1 0x0 DUP2 PUSH20 0xFFFFFFFFFFFFFFFFFFFFFFFFFFFFFFFFFFFFFFFF AND PUSH2 0x8FC PUSH8 0xDE0B6B3A7640000 SWAP1 DUP2 ISZERO MUL SWAP1 PUSH1 0x40 MLOAD PUSH1 0x0 PUSH1 0x40 MLOAD DUP1 DUP4 SUB DUP2 DUP6 DUP9 DUP9 CALL SWAP4 POP POP POP POP SWAP1 POP POP POP JUMP JUMPDEST PUSH1 0x0 DUP2 CALLDATALOAD SWAP1 POP PUSH2 0x9E DUP2 PUSH2 0x108 JUMP JUMPDEST SWAP3 SWAP2 POP POP JUMP JUMPDEST PUSH1 0x0 PUSH1 0x20 DUP3 DUP5 SUB SLT ISZERO PUSH2 0xBA JUMPI PUSH2 0xB9 PUSH2 0x103 JUMP JUMPDEST JUMPDEST PUSH1 0x0 PUSH2 0xC8 DUP5 DUP3 DUP6 ADD PUSH2 0x8F JUMP JUMPDEST SWAP2 POP POP SWAP3 SWAP2 POP POP JUMP JUMPDEST PUSH1 0x0 PUSH2 0xDC DUP3 PUSH2 0xE3 JUMP JUMPDEST SWAP1 POP SWAP2 SWAP1 POP JUMP JUMPDEST PUSH1 0x0 PUSH20 0xFFFFFFFFFFFFFFFFFFFFFFFFFFFFFFFFFFFFFFFF DUP3 AND SWAP1 POP SWAP2 SWAP1 POP JUMP JUMPDEST PUSH1 0x0 DUP1 REVERT JUMPDEST PUSH2 0x111 DUP2 PUSH2 0xD1 JUMP JUMPDEST DUP2 EQ PUSH2 0x11C JUMPI PUSH1 0x0 DUP1 REVERT JUMPDEST POP JUMP INVALID LOG2 PUSH5 0x6970667358 0x22 SLT KECCAK256 SHL 0xE5 0xA5 DUP13 JUMP 0xFC LOG1 0xC 0xF7 0xC6 0xD1 JUMPDEST 0x21 0xAB 0xE7 PUSH26 0xF8787FC17FB1A0968A61FE373FD0A4F64736F6C634300080700 CALLER "
				},
				"gasEstimates": {
					"creation": {
						"codeDepositCost": "68200",
						"executionCost": "93",
						"totalCost": "68293"
					},
					"external": {
						"sendViaTransfer(address)": "infinite"
					}
				},
				"methodIdentifiers": {
					"sendViaTransfer(address)": "636e082b"
				}
			},
			"storageLayout": {
				"storage": [],
				"types": null
			},
			"userdoc": {
				"kind": "user",
				"methods": {},
				"version": 1
			}
		}
	}
}