{
	"Contracts/tiposVariable.sol": {
		"Variables_modifiers": {
			"abi": [
				{
					"inputs": [],
					"name": "b",
					"outputs": [
						{
							"internalType": "uint8",
							"name": "",
							"type": "uint8"
						}
					],
					"stateMutability": "view",
					"type": "function"
				},
				{
					"inputs": [],
					"name": "str",
					"outputs": [
						{
							"internalType": "string",
							"name": "",
							"type": "string"
						}
					],
					"stateMutability": "view",
					"type": "function"
				}
			],
			"devdoc": {
				"kind": "dev",
				"methods": {},
				"version": 1
			},
			"evm": {
				"assembly": "    /* \"Contracts/tiposVariable.sol\":83:388  contract Variables_modifiers {\r... */\n  mstore(0x40, 0x80)\n    /* \"Contracts/tiposVariable.sol\":246:247  4 */\n  0x04\n    /* \"Contracts/tiposVariable.sol\":229:247  uint8 public b = 4 */\n  0x00\n  exp(0x0100, 0x01)\n  dup2\n  sload\n  dup2\n  0xff\n  mul\n  not\n  and\n  swap1\n  dup4\n  0xff\n  and\n  mul\n  or\n  swap1\n  sstore\n  pop\n    /* \"Contracts/tiposVariable.sol\":313:315  -1 */\n  0xffffffffffffffffffffffffffffffffffffffffffffffffffffffffffffffff\n    /* \"Contracts/tiposVariable.sol\":304:315  int8 d = -1 */\n  0x02\n  exp(0x0100, 0x00)\n  dup2\n  sload\n  dup2\n  0xff\n  mul\n  not\n  and\n  swap1\n  dup4\n  0x00\n  signextend\n  0xff\n  and\n  mul\n  or\n  swap1\n  sstore\n  pop\n    /* \"Contracts/tiposVariable.sol\":330:332  52 */\n  0x34\n    /* \"Contracts/tiposVariable.sol\":322:332  int e = 52 */\n  0x03\n  sstore\n    /* \"Contracts/tiposVariable.sol\":356:382  string public str = \"esto\" */\n  mload(0x40)\n  dup1\n  0x40\n  add\n  0x40\n  mstore\n  dup1\n  0x04\n  dup2\n  mstore\n  0x20\n  add\n  0x6573746f00000000000000000000000000000000000000000000000000000000\n  dup2\n  mstore\n  pop\n  0x04\n  swap1\n  dup1\n  mload\n  swap1\n  0x20\n  add\n  swap1\n  tag_1\n  swap3\n  swap2\n  swap1\n  tag_2\n  jump\t// in\ntag_1:\n  pop\n    /* \"Contracts/tiposVariable.sol\":83:388  contract Variables_modifiers {\r... */\n  callvalue\n  dup1\n  iszero\n  tag_3\n  jumpi\n  0x00\n  dup1\n  revert\ntag_3:\n  pop\n  jump(tag_4)\ntag_2:\n  dup3\n  dup1\n  sload\n  tag_5\n  swap1\n  tag_6\n  jump\t// in\ntag_5:\n  swap1\n  0x00\n  mstore\n  keccak256(0x00, 0x20)\n  swap1\n  0x1f\n  add\n  0x20\n  swap1\n  div\n  dup2\n  add\n  swap3\n  dup3\n  tag_8\n  jumpi\n  0x00\n  dup6\n  sstore\n  jump(tag_7)\ntag_8:\n  dup3\n  0x1f\n  lt\n  tag_9\n  jumpi\n  dup1\n  mload\n  not(0xff)\n  and\n  dup4\n  dup1\n  add\n  or\n  dup6\n  sstore\n  jump(tag_7)\ntag_9:\n  dup3\n  dup1\n  add\n  0x01\n  add\n  dup6\n  sstore\n  dup3\n  iszero\n  tag_7\n  jumpi\n  swap2\n  dup3\n  add\ntag_10:\n  dup3\n  dup2\n  gt\n  iszero\n  tag_11\n  jumpi\n  dup3\n  mload\n  dup3\n  sstore\n  swap2\n  0x20\n  add\n  swap2\n  swap1\n  0x01\n  add\n  swap1\n  jump(tag_10)\ntag_11:\ntag_7:\n  pop\n  swap1\n  pop\n  tag_12\n  swap2\n  swap1\n  tag_13\n  jump\t// in\ntag_12:\n  pop\n  swap1\n  jump\t// out\ntag_13:\ntag_14:\n  dup1\n  dup3\n  gt\n  iszero\n  tag_15\n  jumpi\n  0x00\n  dup2\n  0x00\n  swap1\n  sstore\n  pop\n  0x01\n  add\n  jump(tag_14)\ntag_15:\n  pop\n  swap1\n  jump\t// out\n    /* \"#utility.yul\":7:327   */\ntag_6:\n    /* \"#utility.yul\":51:57   */\n  0x00\n    /* \"#utility.yul\":88:89   */\n  0x02\n    /* \"#utility.yul\":82:86   */\n  dup3\n    /* \"#utility.yul\":78:90   */\n  div\n    /* \"#utility.yul\":68:90   */\n  swap1\n  pop\n    /* \"#utility.yul\":135:136   */\n  0x01\n    /* \"#utility.yul\":129:133   */\n  dup3\n    /* \"#utility.yul\":125:137   */\n  and\n    /* \"#utility.yul\":156:174   */\n  dup1\n    /* \"#utility.yul\":146:148   */\n  tag_18\n  jumpi\n    /* \"#utility.yul\":212:216   */\n  0x7f\n    /* \"#utility.yul\":204:210   */\n  dup3\n    /* \"#utility.yul\":200:217   */\n  and\n    /* \"#utility.yul\":190:217   */\n  swap2\n  pop\n    /* \"#utility.yul\":146:148   */\ntag_18:\n    /* \"#utility.yul\":274:276   */\n  0x20\n    /* \"#utility.yul\":266:272   */\n  dup3\n    /* \"#utility.yul\":263:277   */\n  lt\n    /* \"#utility.yul\":243:261   */\n  dup2\n    /* \"#utility.yul\":240:278   */\n  eq\n    /* \"#utility.yul\":237:239   */\n  iszero\n  tag_19\n  jumpi\n    /* \"#utility.yul\":293:311   */\n  tag_20\n  tag_21\n  jump\t// in\ntag_20:\n    /* \"#utility.yul\":237:239   */\ntag_19:\n    /* \"#utility.yul\":58:327   */\n  pop\n  swap2\n  swap1\n  pop\n  jump\t// out\n    /* \"#utility.yul\":333:513   */\ntag_21:\n    /* \"#utility.yul\":381:458   */\n  0x4e487b7100000000000000000000000000000000000000000000000000000000\n    /* \"#utility.yul\":378:379   */\n  0x00\n    /* \"#utility.yul\":371:459   */\n  mstore\n    /* \"#utility.yul\":478:482   */\n  0x22\n    /* \"#utility.yul\":475:476   */\n  0x04\n    /* \"#utility.yul\":468:483   */\n  mstore\n    /* \"#utility.yul\":502:506   */\n  0x24\n    /* \"#utility.yul\":499:500   */\n  0x00\n    /* \"#utility.yul\":492:507   */\n  revert\n    /* \"Contracts/tiposVariable.sol\":83:388  contract Variables_modifiers {\r... */\ntag_4:\n  dataSize(sub_0)\n  dup1\n  dataOffset(sub_0)\n  0x00\n  codecopy\n  0x00\n  return\nstop\n\nsub_0: assembly {\n        /* \"Contracts/tiposVariable.sol\":83:388  contract Variables_modifiers {\r... */\n      mstore(0x40, 0x80)\n      callvalue\n      dup1\n      iszero\n      tag_1\n      jumpi\n      0x00\n      dup1\n      revert\n    tag_1:\n      pop\n      jumpi(tag_2, lt(calldatasize, 0x04))\n      shr(0xe0, calldataload(0x00))\n      dup1\n      0x4df7e3d0\n      eq\n      tag_3\n      jumpi\n      dup1\n      0xc15bae84\n      eq\n      tag_4\n      jumpi\n    tag_2:\n      0x00\n      dup1\n      revert\n        /* \"Contracts/tiposVariable.sol\":229:247  uint8 public b = 4 */\n    tag_3:\n      tag_5\n      tag_6\n      jump\t// in\n    tag_5:\n      mload(0x40)\n      tag_7\n      swap2\n      swap1\n      tag_8\n      jump\t// in\n    tag_7:\n      mload(0x40)\n      dup1\n      swap2\n      sub\n      swap1\n      return\n        /* \"Contracts/tiposVariable.sol\":356:382  string public str = \"esto\" */\n    tag_4:\n      tag_9\n      tag_10\n      jump\t// in\n    tag_9:\n      mload(0x40)\n      tag_11\n      swap2\n      swap1\n      tag_12\n      jump\t// in\n    tag_11:\n      mload(0x40)\n      dup1\n      swap2\n      sub\n      swap1\n      return\n        /* \"Contracts/tiposVariable.sol\":229:247  uint8 public b = 4 */\n    tag_6:\n      0x00\n      0x01\n      swap1\n      sload\n      swap1\n      0x0100\n      exp\n      swap1\n      div\n      0xff\n      and\n      dup2\n      jump\t// out\n        /* \"Contracts/tiposVariable.sol\":356:382  string public str = \"esto\" */\n    tag_10:\n      0x04\n      dup1\n      sload\n      tag_13\n      swap1\n      tag_14\n      jump\t// in\n    tag_13:\n      dup1\n      0x1f\n      add\n      0x20\n      dup1\n      swap2\n      div\n      mul\n      0x20\n      add\n      mload(0x40)\n      swap1\n      dup2\n      add\n      0x40\n      mstore\n      dup1\n      swap3\n      swap2\n      swap1\n      dup2\n      dup2\n      mstore\n      0x20\n      add\n      dup3\n      dup1\n      sload\n      tag_15\n      swap1\n      tag_14\n      jump\t// in\n    tag_15:\n      dup1\n      iszero\n      tag_16\n      jumpi\n      dup1\n      0x1f\n      lt\n      tag_17\n      jumpi\n      0x0100\n      dup1\n      dup4\n      sload\n      div\n      mul\n      dup4\n      mstore\n      swap2\n      0x20\n      add\n      swap2\n      jump(tag_16)\n    tag_17:\n      dup3\n      add\n      swap2\n      swap1\n      0x00\n      mstore\n      keccak256(0x00, 0x20)\n      swap1\n    tag_18:\n      dup2\n      sload\n      dup2\n      mstore\n      swap1\n      0x01\n      add\n      swap1\n      0x20\n      add\n      dup1\n      dup4\n      gt\n      tag_18\n      jumpi\n      dup3\n      swap1\n      sub\n      0x1f\n      and\n      dup3\n      add\n      swap2\n    tag_16:\n      pop\n      pop\n      pop\n      pop\n      pop\n      dup2\n      jump\t// out\n        /* \"#utility.yul\":7:371   */\n    tag_20:\n        /* \"#utility.yul\":95:98   */\n      0x00\n        /* \"#utility.yul\":123:162   */\n      tag_22\n        /* \"#utility.yul\":156:161   */\n      dup3\n        /* \"#utility.yul\":123:162   */\n      tag_23\n      jump\t// in\n    tag_22:\n        /* \"#utility.yul\":178:249   */\n      tag_24\n        /* \"#utility.yul\":242:248   */\n      dup2\n        /* \"#utility.yul\":237:240   */\n      dup6\n        /* \"#utility.yul\":178:249   */\n      tag_25\n      jump\t// in\n    tag_24:\n        /* \"#utility.yul\":171:249   */\n      swap4\n      pop\n        /* \"#utility.yul\":258:310   */\n      tag_26\n        /* \"#utility.yul\":303:309   */\n      dup2\n        /* \"#utility.yul\":298:301   */\n      dup6\n        /* \"#utility.yul\":291:295   */\n      0x20\n        /* \"#utility.yul\":284:289   */\n      dup7\n        /* \"#utility.yul\":280:296   */\n      add\n        /* \"#utility.yul\":258:310   */\n      tag_27\n      jump\t// in\n    tag_26:\n        /* \"#utility.yul\":335:364   */\n      tag_28\n        /* \"#utility.yul\":357:363   */\n      dup2\n        /* \"#utility.yul\":335:364   */\n      tag_29\n      jump\t// in\n    tag_28:\n        /* \"#utility.yul\":330:333   */\n      dup5\n        /* \"#utility.yul\":326:365   */\n      add\n        /* \"#utility.yul\":319:365   */\n      swap2\n      pop\n        /* \"#utility.yul\":99:371   */\n      pop\n      swap3\n      swap2\n      pop\n      pop\n      jump\t// out\n        /* \"#utility.yul\":377:489   */\n    tag_30:\n        /* \"#utility.yul\":460:482   */\n      tag_32\n        /* \"#utility.yul\":476:481   */\n      dup2\n        /* \"#utility.yul\":460:482   */\n      tag_33\n      jump\t// in\n    tag_32:\n        /* \"#utility.yul\":455:458   */\n      dup3\n        /* \"#utility.yul\":448:483   */\n      mstore\n        /* \"#utility.yul\":438:489   */\n      pop\n      pop\n      jump\t// out\n        /* \"#utility.yul\":495:808   */\n    tag_12:\n        /* \"#utility.yul\":608:612   */\n      0x00\n        /* \"#utility.yul\":646:648   */\n      0x20\n        /* \"#utility.yul\":635:644   */\n      dup3\n        /* \"#utility.yul\":631:649   */\n      add\n        /* \"#utility.yul\":623:649   */\n      swap1\n      pop\n        /* \"#utility.yul\":695:704   */\n      dup2\n        /* \"#utility.yul\":689:693   */\n      dup2\n        /* \"#utility.yul\":685:705   */\n      sub\n        /* \"#utility.yul\":681:682   */\n      0x00\n        /* \"#utility.yul\":670:679   */\n      dup4\n        /* \"#utility.yul\":666:683   */\n      add\n        /* \"#utility.yul\":659:706   */\n      mstore\n        /* \"#utility.yul\":723:801   */\n      tag_35\n        /* \"#utility.yul\":796:800   */\n      dup2\n        /* \"#utility.yul\":787:793   */\n      dup5\n        /* \"#utility.yul\":723:801   */\n      tag_20\n      jump\t// in\n    tag_35:\n        /* \"#utility.yul\":715:801   */\n      swap1\n      pop\n        /* \"#utility.yul\":613:808   */\n      swap3\n      swap2\n      pop\n      pop\n      jump\t// out\n        /* \"#utility.yul\":814:1028   */\n    tag_8:\n        /* \"#utility.yul\":903:907   */\n      0x00\n        /* \"#utility.yul\":941:943   */\n      0x20\n        /* \"#utility.yul\":930:939   */\n      dup3\n        /* \"#utility.yul\":926:944   */\n      add\n        /* \"#utility.yul\":918:944   */\n      swap1\n      pop\n        /* \"#utility.yul\":954:1021   */\n      tag_37\n        /* \"#utility.yul\":1018:1019   */\n      0x00\n        /* \"#utility.yul\":1007:1016   */\n      dup4\n        /* \"#utility.yul\":1003:1020   */\n      add\n        /* \"#utility.yul\":994:1000   */\n      dup5\n        /* \"#utility.yul\":954:1021   */\n      tag_30\n      jump\t// in\n    tag_37:\n        /* \"#utility.yul\":908:1028   */\n      swap3\n      swap2\n      pop\n      pop\n      jump\t// out\n        /* \"#utility.yul\":1034:1133   */\n    tag_23:\n        /* \"#utility.yul\":1086:1092   */\n      0x00\n        /* \"#utility.yul\":1120:1125   */\n      dup2\n        /* \"#utility.yul\":1114:1126   */\n      mload\n        /* \"#utility.yul\":1104:1126   */\n      swap1\n      pop\n        /* \"#utility.yul\":1093:1133   */\n      swap2\n      swap1\n      pop\n      jump\t// out\n        /* \"#utility.yul\":1139:1308   */\n    tag_25:\n        /* \"#utility.yul\":1223:1234   */\n      0x00\n        /* \"#utility.yul\":1257:1263   */\n      dup3\n        /* \"#utility.yul\":1252:1255   */\n      dup3\n        /* \"#utility.yul\":1245:1264   */\n      mstore\n        /* \"#utility.yul\":1297:1301   */\n      0x20\n        /* \"#utility.yul\":1292:1295   */\n      dup3\n        /* \"#utility.yul\":1288:1302   */\n      add\n        /* \"#utility.yul\":1273:1302   */\n      swap1\n      pop\n        /* \"#utility.yul\":1235:1308   */\n      swap3\n      swap2\n      pop\n      pop\n      jump\t// out\n        /* \"#utility.yul\":1314:1400   */\n    tag_33:\n        /* \"#utility.yul\":1349:1356   */\n      0x00\n        /* \"#utility.yul\":1389:1393   */\n      0xff\n        /* \"#utility.yul\":1382:1387   */\n      dup3\n        /* \"#utility.yul\":1378:1394   */\n      and\n        /* \"#utility.yul\":1367:1394   */\n      swap1\n      pop\n        /* \"#utility.yul\":1357:1400   */\n      swap2\n      swap1\n      pop\n      jump\t// out\n        /* \"#utility.yul\":1406:1713   */\n    tag_27:\n        /* \"#utility.yul\":1474:1475   */\n      0x00\n        /* \"#utility.yul\":1484:1597   */\n    tag_42:\n        /* \"#utility.yul\":1498:1504   */\n      dup4\n        /* \"#utility.yul\":1495:1496   */\n      dup2\n        /* \"#utility.yul\":1492:1505   */\n      lt\n        /* \"#utility.yul\":1484:1597   */\n      iszero\n      tag_44\n      jumpi\n        /* \"#utility.yul\":1583:1584   */\n      dup1\n        /* \"#utility.yul\":1578:1581   */\n      dup3\n        /* \"#utility.yul\":1574:1585   */\n      add\n        /* \"#utility.yul\":1568:1586   */\n      mload\n        /* \"#utility.yul\":1564:1565   */\n      dup2\n        /* \"#utility.yul\":1559:1562   */\n      dup5\n        /* \"#utility.yul\":1555:1566   */\n      add\n        /* \"#utility.yul\":1548:1587   */\n      mstore\n        /* \"#utility.yul\":1520:1522   */\n      0x20\n        /* \"#utility.yul\":1517:1518   */\n      dup2\n        /* \"#utility.yul\":1513:1523   */\n      add\n        /* \"#utility.yul\":1508:1523   */\n      swap1\n      pop\n        /* \"#utility.yul\":1484:1597   */\n      jump(tag_42)\n    tag_44:\n        /* \"#utility.yul\":1615:1621   */\n      dup4\n        /* \"#utility.yul\":1612:1613   */\n      dup2\n        /* \"#utility.yul\":1609:1622   */\n      gt\n        /* \"#utility.yul\":1606:1608   */\n      iszero\n      tag_45\n      jumpi\n        /* \"#utility.yul\":1695:1696   */\n      0x00\n        /* \"#utility.yul\":1686:1692   */\n      dup5\n        /* \"#utility.yul\":1681:1684   */\n      dup5\n        /* \"#utility.yul\":1677:1693   */\n      add\n        /* \"#utility.yul\":1670:1697   */\n      mstore\n        /* \"#utility.yul\":1606:1608   */\n    tag_45:\n        /* \"#utility.yul\":1455:1713   */\n      pop\n      pop\n      pop\n      pop\n      jump\t// out\n        /* \"#utility.yul\":1719:2039   */\n    tag_14:\n        /* \"#utility.yul\":1763:1769   */\n      0x00\n        /* \"#utility.yul\":1800:1801   */\n      0x02\n        /* \"#utility.yul\":1794:1798   */\n      dup3\n        /* \"#utility.yul\":1790:1802   */\n      div\n        /* \"#utility.yul\":1780:1802   */\n      swap1\n      pop\n        /* \"#utility.yul\":1847:1848   */\n      0x01\n        /* \"#utility.yul\":1841:1845   */\n      dup3\n        /* \"#utility.yul\":1837:1849   */\n      and\n        /* \"#utility.yul\":1868:1886   */\n      dup1\n        /* \"#utility.yul\":1858:1860   */\n      tag_47\n      jumpi\n        /* \"#utility.yul\":1924:1928   */\n      0x7f\n        /* \"#utility.yul\":1916:1922   */\n      dup3\n        /* \"#utility.yul\":1912:1929   */\n      and\n        /* \"#utility.yul\":1902:1929   */\n      swap2\n      pop\n        /* \"#utility.yul\":1858:1860   */\n    tag_47:\n        /* \"#utility.yul\":1986:1988   */\n      0x20\n        /* \"#utility.yul\":1978:1984   */\n      dup3\n        /* \"#utility.yul\":1975:1989   */\n      lt\n        /* \"#utility.yul\":1955:1973   */\n      dup2\n        /* \"#utility.yul\":1952:1990   */\n      eq\n        /* \"#utility.yul\":1949:1951   */\n      iszero\n      tag_48\n      jumpi\n        /* \"#utility.yul\":2005:2023   */\n      tag_49\n      tag_50\n      jump\t// in\n    tag_49:\n        /* \"#utility.yul\":1949:1951   */\n    tag_48:\n        /* \"#utility.yul\":1770:2039   */\n      pop\n      swap2\n      swap1\n      pop\n      jump\t// out\n        /* \"#utility.yul\":2045:2225   */\n    tag_50:\n        /* \"#utility.yul\":2093:2170   */\n      0x4e487b7100000000000000000000000000000000000000000000000000000000\n        /* \"#utility.yul\":2090:2091   */\n      0x00\n        /* \"#utility.yul\":2083:2171   */\n      mstore\n        /* \"#utility.yul\":2190:2194   */\n      0x22\n        /* \"#utility.yul\":2187:2188   */\n      0x04\n        /* \"#utility.yul\":2180:2195   */\n      mstore\n        /* \"#utility.yul\":2214:2218   */\n      0x24\n        /* \"#utility.yul\":2211:2212   */\n      0x00\n        /* \"#utility.yul\":2204:2219   */\n      revert\n        /* \"#utility.yul\":2231:2333   */\n    tag_29:\n        /* \"#utility.yul\":2272:2278   */\n      0x00\n        /* \"#utility.yul\":2323:2325   */\n      0x1f\n        /* \"#utility.yul\":2319:2326   */\n      not\n        /* \"#utility.yul\":2314:2316   */\n      0x1f\n        /* \"#utility.yul\":2307:2312   */\n      dup4\n        /* \"#utility.yul\":2303:2317   */\n      add\n        /* \"#utility.yul\":2299:2327   */\n      and\n        /* \"#utility.yul\":2289:2327   */\n      swap1\n      pop\n        /* \"#utility.yul\":2279:2333   */\n      swap2\n      swap1\n      pop\n      jump\t// out\n\n    auxdata: 0xa264697066735822122028efdfcf8b25a58a425f3c9c87d27571010a348c49de63d311622d22a86993ba64736f6c63430008060033\n}\n",
				"bytecode": {
					"linkReferences": {},
					"object": "60806040526004600060016101000a81548160ff021916908360ff1602179055507fffffffffffffffffffffffffffffffffffffffffffffffffffffffffffffffff600260006101000a81548160ff021916908360000b60ff16021790555060346003556040518060400160405280600481526020017f6573746f00000000000000000000000000000000000000000000000000000000815250600490805190602001906100ae9291906100c1565b503480156100bb57600080fd5b506101c5565b8280546100cd90610164565b90600052602060002090601f0160209004810192826100ef5760008555610136565b82601f1061010857805160ff1916838001178555610136565b82800160010185558215610136579182015b8281111561013557825182559160200191906001019061011a565b5b5090506101439190610147565b5090565b5b80821115610160576000816000905550600101610148565b5090565b6000600282049050600182168061017c57607f821691505b602082108114156101905761018f610196565b5b50919050565b7f4e487b7100000000000000000000000000000000000000000000000000000000600052602260045260246000fd5b6102a1806101d46000396000f3fe608060405234801561001057600080fd5b50600436106100365760003560e01c80634df7e3d01461003b578063c15bae8414610059575b600080fd5b610043610077565b6040516100509190610182565b60405180910390f35b61006161008a565b60405161006e9190610160565b60405180910390f35b600060019054906101000a900460ff1681565b60048054610097906101f9565b80601f01602080910402602001604051908101604052809291908181526020018280546100c3906101f9565b80156101105780601f106100e557610100808354040283529160200191610110565b820191906000526020600020905b8154815290600101906020018083116100f357829003601f168201915b505050505081565b60006101238261019d565b61012d81856101a8565b935061013d8185602086016101c6565b6101468161025a565b840191505092915050565b61015a816101b9565b82525050565b6000602082019050818103600083015261017a8184610118565b905092915050565b60006020820190506101976000830184610151565b92915050565b600081519050919050565b600082825260208201905092915050565b600060ff82169050919050565b60005b838110156101e45780820151818401526020810190506101c9565b838111156101f3576000848401525b50505050565b6000600282049050600182168061021157607f821691505b602082108114156102255761022461022b565b5b50919050565b7f4e487b7100000000000000000000000000000000000000000000000000000000600052602260045260246000fd5b6000601f19601f830116905091905056fea264697066735822122028efdfcf8b25a58a425f3c9c87d27571010a348c49de63d311622d22a86993ba64736f6c63430008060033",
					"opcodes": "PUSH1 0x80 PUSH1 0x40 MSTORE PUSH1 0x4 PUSH1 0x0 PUSH1 0x1 PUSH2 0x100 EXP DUP2 SLOAD DUP2 PUSH1 0xFF MUL NOT AND SWAP1 DUP4 PUSH1 0xFF AND MUL OR SWAP1 SSTORE POP PUSH32 0xFFFFFFFFFFFFFFFFFFFFFFFFFFFFFFFFFFFFFFFFFFFFFFFFFFFFFFFFFFFFFFFF PUSH1 0x2 PUSH1 0x0 PUSH2 0x100 EXP DUP2 SLOAD DUP2 PUSH1 0xFF MUL NOT AND SWAP1 DUP4 PUSH1 0x0 SIGNEXTEND PUSH1 0xFF AND MUL OR SWAP1 SSTORE POP PUSH1 0x34 PUSH1 0x3 SSTORE PUSH1 0x40 MLOAD DUP1 PUSH1 0x40 ADD PUSH1 0x40 MSTORE DUP1 PUSH1 0x4 DUP2 MSTORE PUSH1 0x20 ADD PUSH32 0x6573746F00000000000000000000000000000000000000000000000000000000 DUP2 MSTORE POP PUSH1 0x4 SWAP1 DUP1 MLOAD SWAP1 PUSH1 0x20 ADD SWAP1 PUSH2 0xAE SWAP3 SWAP2 SWAP1 PUSH2 0xC1 JUMP JUMPDEST POP CALLVALUE DUP1 ISZERO PUSH2 0xBB JUMPI PUSH1 0x0 DUP1 REVERT JUMPDEST POP PUSH2 0x1C5 JUMP JUMPDEST DUP3 DUP1 SLOAD PUSH2 0xCD SWAP1 PUSH2 0x164 JUMP JUMPDEST SWAP1 PUSH1 0x0 MSTORE PUSH1 0x20 PUSH1 0x0 KECCAK256 SWAP1 PUSH1 0x1F ADD PUSH1 0x20 SWAP1 DIV DUP2 ADD SWAP3 DUP3 PUSH2 0xEF JUMPI PUSH1 0x0 DUP6 SSTORE PUSH2 0x136 JUMP JUMPDEST DUP3 PUSH1 0x1F LT PUSH2 0x108 JUMPI DUP1 MLOAD PUSH1 0xFF NOT AND DUP4 DUP1 ADD OR DUP6 SSTORE PUSH2 0x136 JUMP JUMPDEST DUP3 DUP1 ADD PUSH1 0x1 ADD DUP6 SSTORE DUP3 ISZERO PUSH2 0x136 JUMPI SWAP2 DUP3 ADD JUMPDEST DUP3 DUP2 GT ISZERO PUSH2 0x135 JUMPI DUP3 MLOAD DUP3 SSTORE SWAP2 PUSH1 0x20 ADD SWAP2 SWAP1 PUSH1 0x1 ADD SWAP1 PUSH2 0x11A JUMP JUMPDEST JUMPDEST POP SWAP1 POP PUSH2 0x143 SWAP2 SWAP1 PUSH2 0x147 JUMP JUMPDEST POP SWAP1 JUMP JUMPDEST JUMPDEST DUP1 DUP3 GT ISZERO PUSH2 0x160 JUMPI PUSH1 0x0 DUP2 PUSH1 0x0 SWAP1 SSTORE POP PUSH1 0x1 ADD PUSH2 0x148 JUMP JUMPDEST POP SWAP1 JUMP JUMPDEST PUSH1 0x0 PUSH1 0x2 DUP3 DIV SWAP1 POP PUSH1 0x1 DUP3 AND DUP1 PUSH2 0x17C JUMPI PUSH1 0x7F DUP3 AND SWAP2 POP JUMPDEST PUSH1 0x20 DUP3 LT DUP2 EQ ISZERO PUSH2 0x190 JUMPI PUSH2 0x18F PUSH2 0x196 JUMP JUMPDEST JUMPDEST POP SWAP2 SWAP1 POP JUMP JUMPDEST PUSH32 0x4E487B7100000000000000000000000000000000000000000000000000000000 PUSH1 0x0 MSTORE PUSH1 0x22 PUSH1 0x4 MSTORE PUSH1 0x24 PUSH1 0x0 REVERT JUMPDEST PUSH2 0x2A1 DUP1 PUSH2 0x1D4 PUSH1 0x0 CODECOPY PUSH1 0x0 RETURN INVALID PUSH1 0x80 PUSH1 0x40 MSTORE CALLVALUE DUP1 ISZERO PUSH2 0x10 JUMPI PUSH1 0x0 DUP1 REVERT JUMPDEST POP PUSH1 0x4 CALLDATASIZE LT PUSH2 0x36 JUMPI PUSH1 0x0 CALLDATALOAD PUSH1 0xE0 SHR DUP1 PUSH4 0x4DF7E3D0 EQ PUSH2 0x3B JUMPI DUP1 PUSH4 0xC15BAE84 EQ PUSH2 0x59 JUMPI JUMPDEST PUSH1 0x0 DUP1 REVERT JUMPDEST PUSH2 0x43 PUSH2 0x77 JUMP JUMPDEST PUSH1 0x40 MLOAD PUSH2 0x50 SWAP2 SWAP1 PUSH2 0x182 JUMP JUMPDEST PUSH1 0x40 MLOAD DUP1 SWAP2 SUB SWAP1 RETURN JUMPDEST PUSH2 0x61 PUSH2 0x8A JUMP JUMPDEST PUSH1 0x40 MLOAD PUSH2 0x6E SWAP2 SWAP1 PUSH2 0x160 JUMP JUMPDEST PUSH1 0x40 MLOAD DUP1 SWAP2 SUB SWAP1 RETURN JUMPDEST PUSH1 0x0 PUSH1 0x1 SWAP1 SLOAD SWAP1 PUSH2 0x100 EXP SWAP1 DIV PUSH1 0xFF AND DUP2 JUMP JUMPDEST PUSH1 0x4 DUP1 SLOAD PUSH2 0x97 SWAP1 PUSH2 0x1F9 JUMP JUMPDEST DUP1 PUSH1 0x1F ADD PUSH1 0x20 DUP1 SWAP2 DIV MUL PUSH1 0x20 ADD PUSH1 0x40 MLOAD SWAP1 DUP2 ADD PUSH1 0x40 MSTORE DUP1 SWAP3 SWAP2 SWAP1 DUP2 DUP2 MSTORE PUSH1 0x20 ADD DUP3 DUP1 SLOAD PUSH2 0xC3 SWAP1 PUSH2 0x1F9 JUMP JUMPDEST DUP1 ISZERO PUSH2 0x110 JUMPI DUP1 PUSH1 0x1F LT PUSH2 0xE5 JUMPI PUSH2 0x100 DUP1 DUP4 SLOAD DIV MUL DUP4 MSTORE SWAP2 PUSH1 0x20 ADD SWAP2 PUSH2 0x110 JUMP JUMPDEST DUP3 ADD SWAP2 SWAP1 PUSH1 0x0 MSTORE PUSH1 0x20 PUSH1 0x0 KECCAK256 SWAP1 JUMPDEST DUP2 SLOAD DUP2 MSTORE SWAP1 PUSH1 0x1 ADD SWAP1 PUSH1 0x20 ADD DUP1 DUP4 GT PUSH2 0xF3 JUMPI DUP3 SWAP1 SUB PUSH1 0x1F AND DUP3 ADD SWAP2 JUMPDEST POP POP POP POP POP DUP2 JUMP JUMPDEST PUSH1 0x0 PUSH2 0x123 DUP3 PUSH2 0x19D JUMP JUMPDEST PUSH2 0x12D DUP2 DUP6 PUSH2 0x1A8 JUMP JUMPDEST SWAP4 POP PUSH2 0x13D DUP2 DUP6 PUSH1 0x20 DUP7 ADD PUSH2 0x1C6 JUMP JUMPDEST PUSH2 0x146 DUP2 PUSH2 0x25A JUMP JUMPDEST DUP5 ADD SWAP2 POP POP SWAP3 SWAP2 POP POP JUMP JUMPDEST PUSH2 0x15A DUP2 PUSH2 0x1B9 JUMP JUMPDEST DUP3 MSTORE POP POP JUMP JUMPDEST PUSH1 0x0 PUSH1 0x20 DUP3 ADD SWAP1 POP DUP2 DUP2 SUB PUSH1 0x0 DUP4 ADD MSTORE PUSH2 0x17A DUP2 DUP5 PUSH2 0x118 JUMP JUMPDEST SWAP1 POP SWAP3 SWAP2 POP POP JUMP JUMPDEST PUSH1 0x0 PUSH1 0x20 DUP3 ADD SWAP1 POP PUSH2 0x197 PUSH1 0x0 DUP4 ADD DUP5 PUSH2 0x151 JUMP JUMPDEST SWAP3 SWAP2 POP POP JUMP JUMPDEST PUSH1 0x0 DUP2 MLOAD SWAP1 POP SWAP2 SWAP1 POP JUMP JUMPDEST PUSH1 0x0 DUP3 DUP3 MSTORE PUSH1 0x20 DUP3 ADD SWAP1 POP SWAP3 SWAP2 POP POP JUMP JUMPDEST PUSH1 0x0 PUSH1 0xFF DUP3 AND SWAP1 POP SWAP2 SWAP1 POP JUMP JUMPDEST PUSH1 0x0 JUMPDEST DUP4 DUP2 LT ISZERO PUSH2 0x1E4 JUMPI DUP1 DUP3 ADD MLOAD DUP2 DUP5 ADD MSTORE PUSH1 0x20 DUP2 ADD SWAP1 POP PUSH2 0x1C9 JUMP JUMPDEST DUP4 DUP2 GT ISZERO PUSH2 0x1F3 JUMPI PUSH1 0x0 DUP5 DUP5 ADD MSTORE JUMPDEST POP POP POP POP JUMP JUMPDEST PUSH1 0x0 PUSH1 0x2 DUP3 DIV SWAP1 POP PUSH1 0x1 DUP3 AND DUP1 PUSH2 0x211 JUMPI PUSH1 0x7F DUP3 AND SWAP2 POP JUMPDEST PUSH1 0x20 DUP3 LT DUP2 EQ ISZERO PUSH2 0x225 JUMPI PUSH2 0x224 PUSH2 0x22B JUMP JUMPDEST JUMPDEST POP SWAP2 SWAP1 POP JUMP JUMPDEST PUSH32 0x4E487B7100000000000000000000000000000000000000000000000000000000 PUSH1 0x0 MSTORE PUSH1 0x22 PUSH1 0x4 MSTORE PUSH1 0x24 PUSH1 0x0 REVERT JUMPDEST PUSH1 0x0 PUSH1 0x1F NOT PUSH1 0x1F DUP4 ADD AND SWAP1 POP SWAP2 SWAP1 POP JUMP INVALID LOG2 PUSH5 0x6970667358 0x22 SLT KECCAK256 0x28 0xEF 0xDF 0xCF DUP12 0x25 0xA5 DUP11 TIMESTAMP 0x5F EXTCODECOPY SWAP13 DUP8 0xD2 PUSH22 0x71010A348C49DE63D311622D22A86993BA64736F6C63 NUMBER STOP ADDMOD MOD STOP CALLER "
				},
				"gasEstimates": {
					"creation": {
						"codeDepositCost": "134600",
						"executionCost": "infinite",
						"totalCost": "infinite"
					},
					"external": {
						"b()": "2499",
						"str()": "infinite"
					}
				},
				"methodIdentifiers": {
					"b()": "4df7e3d0",
					"str()": "c15bae84"
				}
			},
			"storageLayout": {
				"storage": [
					{
						"astId": 3,
						"contract": "Contracts/tiposVariable.sol:Variables_modifiers",
						"label": "a",
						"offset": 0,
						"slot": "0",
						"type": "t_uint8"
					},
					{
						"astId": 6,
						"contract": "Contracts/tiposVariable.sol:Variables_modifiers",
						"label": "b",
						"offset": 1,
						"slot": "0",
						"type": "t_uint8"
					},
					{
						"astId": 8,
						"contract": "Contracts/tiposVariable.sol:Variables_modifiers",
						"label": "c",
						"offset": 0,
						"slot": "1",
						"type": "t_int256"
					},
					{
						"astId": 12,
						"contract": "Contracts/tiposVariable.sol:Variables_modifiers",
						"label": "d",
						"offset": 0,
						"slot": "2",
						"type": "t_int8"
					},
					{
						"astId": 15,
						"contract": "Contracts/tiposVariable.sol:Variables_modifiers",
						"label": "e",
						"offset": 0,
						"slot": "3",
						"type": "t_int256"
					},
					{
						"astId": 18,
						"contract": "Contracts/tiposVariable.sol:Variables_modifiers",
						"label": "str",
						"offset": 0,
						"slot": "4",
						"type": "t_string_storage"
					}
				],
				"types": {
					"t_int256": {
						"encoding": "inplace",
						"label": "int256",
						"numberOfBytes": "32"
					},
					"t_int8": {
						"encoding": "inplace",
						"label": "int8",
						"numberOfBytes": "1"
					},
					"t_string_storage": {
						"encoding": "bytes",
						"label": "string",
						"numberOfBytes": "32"
					},
					"t_uint8": {
						"encoding": "inplace",
						"label": "uint8",
						"numberOfBytes": "1"
					}
				}
			},
			"userdoc": {
				"kind": "user",
				"methods": {},
				"version": 1
			}
		}
	}
}