{
	"Contracts/tiposVariable.sol": {
		"Variables_modifiers": {
			"abi": [
				{
					"inputs": [],
					"name": "_true",
					"outputs": [
						{
							"internalType": "bool",
							"name": "",
							"type": "bool"
						}
					],
					"stateMutability": "view",
					"type": "function"
				},
				{
					"inputs": [],
					"name": "address_1",
					"outputs": [
						{
							"internalType": "address",
							"name": "",
							"type": "address"
						}
					],
					"stateMutability": "view",
					"type": "function"
				},
				{
					"inputs": [],
					"name": "address_2",
					"outputs": [
						{
							"internalType": "address",
							"name": "",
							"type": "address"
						}
					],
					"stateMutability": "view",
					"type": "function"
				},
				{
					"inputs": [],
					"name": "b",
					"outputs": [
						{
							"internalType": "uint8",
							"name": "",
							"type": "uint8"
						}
					],
					"stateMutability": "view",
					"type": "function"
				},
				{
					"inputs": [],
					"name": "displayState",
					"outputs": [
						{
							"internalType": "enum Variables_modifiers.options",
							"name": "",
							"type": "uint8"
						}
					],
					"stateMutability": "view",
					"type": "function"
				},
				{
					"inputs": [],
					"name": "hashing_keccak256",
					"outputs": [
						{
							"internalType": "bytes32",
							"name": "",
							"type": "bytes32"
						}
					],
					"stateMutability": "view",
					"type": "function"
				},
				{
					"inputs": [],
					"name": "hashing_s256",
					"outputs": [
						{
							"internalType": "bytes32",
							"name": "",
							"type": "bytes32"
						}
					],
					"stateMutability": "view",
					"type": "function"
				},
				{
					"inputs": [],
					"name": "str",
					"outputs": [
						{
							"internalType": "string",
							"name": "",
							"type": "string"
						}
					],
					"stateMutability": "view",
					"type": "function"
				},
				{
					"inputs": [],
					"name": "trueOFF",
					"outputs": [],
					"stateMutability": "nonpayable",
					"type": "function"
				},
				{
					"inputs": [],
					"name": "trueOn",
					"outputs": [],
					"stateMutability": "nonpayable",
					"type": "function"
				}
			],
			"devdoc": {
				"kind": "dev",
				"methods": {},
				"version": 1
			},
			"evm": {
				"assembly": "    /* \"Contracts/tiposVariable.sol\":83:1295  contract Variables_modifiers {\r... */\n  mstore(0x40, 0x80)\n    /* \"Contracts/tiposVariable.sol\":246:247  4 */\n  0x04\n    /* \"Contracts/tiposVariable.sol\":229:247  uint8 public b = 4 */\n  0x00\n  exp(0x0100, 0x01)\n  dup2\n  sload\n  dup2\n  0xff\n  mul\n  not\n  and\n  swap1\n  dup4\n  0xff\n  and\n  mul\n  or\n  swap1\n  sstore\n  pop\n    /* \"Contracts/tiposVariable.sol\":313:315  -1 */\n  0xffffffffffffffffffffffffffffffffffffffffffffffffffffffffffffffff\n    /* \"Contracts/tiposVariable.sol\":304:315  int8 d = -1 */\n  0x02\n  exp(0x0100, 0x00)\n  dup2\n  sload\n  dup2\n  0xff\n  mul\n  not\n  and\n  swap1\n  dup4\n  0x00\n  signextend\n  0xff\n  and\n  mul\n  or\n  swap1\n  sstore\n  pop\n    /* \"Contracts/tiposVariable.sol\":330:332  52 */\n  0x34\n    /* \"Contracts/tiposVariable.sol\":322:332  int e = 52 */\n  0x03\n  sstore\n    /* \"Contracts/tiposVariable.sol\":356:393  string public str = \"esto es publico\" */\n  mload(0x40)\n  dup1\n  0x40\n  add\n  0x40\n  mstore\n  dup1\n  0x0f\n  dup2\n  mstore\n  0x20\n  add\n  0x6573746f206573207075626c69636f0000000000000000000000000000000000\n  dup2\n  mstore\n  pop\n  0x04\n  swap1\n  dup1\n  mload\n  swap1\n  0x20\n  add\n  swap1\n  tag_1\n  swap3\n  swap2\n  swap1\n  tag_2\n  jump\t// in\ntag_1:\n  pop\n    /* \"Contracts/tiposVariable.sol\":400:439  string private str1 = \"esto es privado\" */\n  mload(0x40)\n  dup1\n  0x40\n  add\n  0x40\n  mstore\n  dup1\n  0x0f\n  dup2\n  mstore\n  0x20\n  add\n  0x6573746f206573207072697661646f0000000000000000000000000000000000\n  dup2\n  mstore\n  pop\n  0x05\n  swap1\n  dup1\n  mload\n  swap1\n  0x20\n  add\n  swap1\n  tag_3\n  swap3\n  swap2\n  swap1\n  tag_2\n  jump\t// in\ntag_3:\n  pop\n    /* \"Contracts/tiposVariable.sol\":484:488  true */\n  0x01\n    /* \"Contracts/tiposVariable.sol\":464:488  bool public _true = true */\n  0x06\n  exp(0x0100, 0x00)\n  dup2\n  sload\n  dup2\n  0xff\n  mul\n  not\n  and\n  swap1\n  dup4\n  iszero\n  iszero\n  mul\n  or\n  swap1\n  sstore\n  pop\n    /* \"Contracts/tiposVariable.sol\":517:522  false */\n  0x00\n    /* \"Contracts/tiposVariable.sol\":495:522  bool private _false = false */\n  0x06\n  exp(0x0100, 0x01)\n  dup2\n  sload\n  dup2\n  0xff\n  mul\n  not\n  and\n  swap1\n  dup4\n  iszero\n  iszero\n  mul\n  or\n  swap1\n  sstore\n  pop\n    /* \"Contracts/tiposVariable.sol\":640:672  abi.encodePacked(\"hello\", \"lia\") */\n  add(0x20, mload(0x40))\n  tag_4\n  swap1\n  tag_5\n  jump\t// in\ntag_4:\n  mload(0x40)\n  0x20\n  dup2\n  dup4\n  sub\n  sub\n  dup2\n  mstore\n  swap1\n  0x40\n  mstore\n    /* \"Contracts/tiposVariable.sol\":630:673  keccak256(abi.encodePacked(\"hello\", \"lia\")) */\n  dup1\n  mload\n  swap1\n  0x20\n  add\n  keccak256\n    /* \"Contracts/tiposVariable.sol\":595:673  bytes32 public hashing_keccak256 = keccak256(abi.encodePacked(\"hello\", \"lia\")) */\n  0x08\n  sstore\n    /* \"Contracts/tiposVariable.sol\":710:750  sha256(abi.encodePacked(\"hello\", \"lia\")) */\n  0x02\n    /* \"Contracts/tiposVariable.sol\":717:749  abi.encodePacked(\"hello\", \"lia\") */\n  add(0x20, mload(0x40))\n  tag_6\n  swap1\n  tag_5\n  jump\t// in\ntag_6:\n  mload(0x40)\n  0x20\n  dup2\n  dup4\n  sub\n  sub\n  dup2\n  mstore\n  swap1\n  0x40\n  mstore\n    /* \"Contracts/tiposVariable.sol\":710:750  sha256(abi.encodePacked(\"hello\", \"lia\")) */\n  mload(0x40)\n  tag_7\n  swap2\n  swap1\n  tag_8\n  jump\t// in\ntag_7:\n  0x20\n  mload(0x40)\n  dup1\n  dup4\n  sub\n  dup2\n  dup6\n  gas\n  staticcall\n  iszero\n  dup1\n  iszero\n  tag_10\n  jumpi\n  returndatasize\n  0x00\n  dup1\n  returndatacopy\n  revert(0x00, returndatasize)\ntag_10:\n  pop\n  pop\n  pop\n  mload(0x40)\n  returndatasize\n  not(0x1f)\n  0x1f\n  dup3\n  add\n  and\n  dup3\n  add\n  dup1\n  0x40\n  mstore\n  pop\n  dup2\n  add\n  swap1\n  tag_11\n  swap2\n  swap1\n  tag_12\n  jump\t// in\ntag_11:\n    /* \"Contracts/tiposVariable.sol\":680:750  bytes32 public hashing_s256 = sha256(abi.encodePacked(\"hello\", \"lia\")) */\n  0x09\n  sstore\n    /* \"Contracts/tiposVariable.sol\":836:878  0x5B38Da6a701c568545dCfcB03FcB875f56beddC4 */\n  0x5b38da6a701c568545dcfcb03fcb875f56beddc4\n    /* \"Contracts/tiposVariable.sol\":808:878  address public  address_1 = 0x5B38Da6a701c568545dCfcB03FcB875f56beddC4 */\n  0x0b\n  exp(0x0100, 0x00)\n  dup2\n  sload\n  dup2\n  0xffffffffffffffffffffffffffffffffffffffff\n  mul\n  not\n  and\n  swap1\n  dup4\n  0xffffffffffffffffffffffffffffffffffffffff\n  and\n  mul\n  or\n  swap1\n  sstore\n  pop\n    /* \"Contracts/tiposVariable.sol\":912:922  msg.sender */\n  caller\n    /* \"Contracts/tiposVariable.sol\":885:922  address public address_2 = msg.sender */\n  0x0c\n  exp(0x0100, 0x00)\n  dup2\n  sload\n  dup2\n  0xffffffffffffffffffffffffffffffffffffffff\n  mul\n  not\n  and\n  swap1\n  dup4\n  0xffffffffffffffffffffffffffffffffffffffff\n  and\n  mul\n  or\n  swap1\n  sstore\n  pop\n    /* \"Contracts/tiposVariable.sol\":83:1295  contract Variables_modifiers {\r... */\n  callvalue\n  dup1\n  iszero\n  tag_13\n  jumpi\n  0x00\n  dup1\n  revert\ntag_13:\n  pop\n  jump(tag_14)\ntag_2:\n  dup3\n  dup1\n  sload\n  tag_15\n  swap1\n  tag_16\n  jump\t// in\ntag_15:\n  swap1\n  0x00\n  mstore\n  keccak256(0x00, 0x20)\n  swap1\n  0x1f\n  add\n  0x20\n  swap1\n  div\n  dup2\n  add\n  swap3\n  dup3\n  tag_18\n  jumpi\n  0x00\n  dup6\n  sstore\n  jump(tag_17)\ntag_18:\n  dup3\n  0x1f\n  lt\n  tag_19\n  jumpi\n  dup1\n  mload\n  not(0xff)\n  and\n  dup4\n  dup1\n  add\n  or\n  dup6\n  sstore\n  jump(tag_17)\ntag_19:\n  dup3\n  dup1\n  add\n  0x01\n  add\n  dup6\n  sstore\n  dup3\n  iszero\n  tag_17\n  jumpi\n  swap2\n  dup3\n  add\ntag_20:\n  dup3\n  dup2\n  gt\n  iszero\n  tag_21\n  jumpi\n  dup3\n  mload\n  dup3\n  sstore\n  swap2\n  0x20\n  add\n  swap2\n  swap1\n  0x01\n  add\n  swap1\n  jump(tag_20)\ntag_21:\ntag_17:\n  pop\n  swap1\n  pop\n  tag_22\n  swap2\n  swap1\n  tag_23\n  jump\t// in\ntag_22:\n  pop\n  swap1\n  jump\t// out\ntag_23:\ntag_24:\n  dup1\n  dup3\n  gt\n  iszero\n  tag_25\n  jumpi\n  0x00\n  dup2\n  0x00\n  swap1\n  sstore\n  pop\n  0x01\n  add\n  jump(tag_24)\ntag_25:\n  pop\n  swap1\n  jump\t// out\n    /* \"#utility.yul\":7:150   */\ntag_27:\n    /* \"#utility.yul\":64:69   */\n  0x00\n    /* \"#utility.yul\":95:101   */\n  dup2\n    /* \"#utility.yul\":89:102   */\n  mload\n    /* \"#utility.yul\":80:102   */\n  swap1\n  pop\n    /* \"#utility.yul\":111:144   */\n  tag_29\n    /* \"#utility.yul\":138:143   */\n  dup2\n    /* \"#utility.yul\":111:144   */\n  tag_30\n  jump\t// in\ntag_29:\n    /* \"#utility.yul\":7:150   */\n  swap3\n  swap2\n  pop\n  pop\n  jump\t// out\n    /* \"#utility.yul\":156:507   */\ntag_12:\n    /* \"#utility.yul\":226:232   */\n  0x00\n    /* \"#utility.yul\":275:277   */\n  0x20\n    /* \"#utility.yul\":263:272   */\n  dup3\n    /* \"#utility.yul\":254:261   */\n  dup5\n    /* \"#utility.yul\":250:273   */\n  sub\n    /* \"#utility.yul\":246:278   */\n  slt\n    /* \"#utility.yul\":243:362   */\n  iszero\n  tag_32\n  jumpi\n    /* \"#utility.yul\":281:360   */\n  tag_33\n  tag_34\n  jump\t// in\ntag_33:\n    /* \"#utility.yul\":243:362   */\ntag_32:\n    /* \"#utility.yul\":401:402   */\n  0x00\n    /* \"#utility.yul\":426:490   */\n  tag_35\n    /* \"#utility.yul\":482:489   */\n  dup5\n    /* \"#utility.yul\":473:479   */\n  dup3\n    /* \"#utility.yul\":462:471   */\n  dup6\n    /* \"#utility.yul\":458:480   */\n  add\n    /* \"#utility.yul\":426:490   */\n  tag_27\n  jump\t// in\ntag_35:\n    /* \"#utility.yul\":416:490   */\n  swap2\n  pop\n    /* \"#utility.yul\":372:500   */\n  pop\n    /* \"#utility.yul\":156:507   */\n  swap3\n  swap2\n  pop\n  pop\n  jump\t// out\n    /* \"#utility.yul\":513:886   */\ntag_36:\n    /* \"#utility.yul\":617:620   */\n  0x00\n    /* \"#utility.yul\":645:683   */\n  tag_38\n    /* \"#utility.yul\":677:682   */\n  dup3\n    /* \"#utility.yul\":645:683   */\n  tag_39\n  jump\t// in\ntag_38:\n    /* \"#utility.yul\":699:787   */\n  tag_40\n    /* \"#utility.yul\":780:786   */\n  dup2\n    /* \"#utility.yul\":775:778   */\n  dup6\n    /* \"#utility.yul\":699:787   */\n  tag_41\n  jump\t// in\ntag_40:\n    /* \"#utility.yul\":692:787   */\n  swap4\n  pop\n    /* \"#utility.yul\":796:848   */\n  tag_42\n    /* \"#utility.yul\":841:847   */\n  dup2\n    /* \"#utility.yul\":836:839   */\n  dup6\n    /* \"#utility.yul\":829:833   */\n  0x20\n    /* \"#utility.yul\":822:827   */\n  dup7\n    /* \"#utility.yul\":818:834   */\n  add\n    /* \"#utility.yul\":796:848   */\n  tag_43\n  jump\t// in\ntag_42:\n    /* \"#utility.yul\":873:879   */\n  dup1\n    /* \"#utility.yul\":868:871   */\n  dup5\n    /* \"#utility.yul\":864:880   */\n  add\n    /* \"#utility.yul\":857:880   */\n  swap2\n  pop\n    /* \"#utility.yul\":621:886   */\n  pop\n    /* \"#utility.yul\":513:886   */\n  swap3\n  swap2\n  pop\n  pop\n  jump\t// out\n    /* \"#utility.yul\":892:1292   */\ntag_44:\n    /* \"#utility.yul\":1052:1055   */\n  0x00\n    /* \"#utility.yul\":1073:1157   */\n  tag_46\n    /* \"#utility.yul\":1155:1156   */\n  0x05\n    /* \"#utility.yul\":1150:1153   */\n  dup4\n    /* \"#utility.yul\":1073:1157   */\n  tag_47\n  jump\t// in\ntag_46:\n    /* \"#utility.yul\":1066:1157   */\n  swap2\n  pop\n    /* \"#utility.yul\":1166:1259   */\n  tag_48\n    /* \"#utility.yul\":1255:1258   */\n  dup3\n    /* \"#utility.yul\":1166:1259   */\n  tag_49\n  jump\t// in\ntag_48:\n    /* \"#utility.yul\":1284:1285   */\n  0x05\n    /* \"#utility.yul\":1279:1282   */\n  dup3\n    /* \"#utility.yul\":1275:1286   */\n  add\n    /* \"#utility.yul\":1268:1286   */\n  swap1\n  pop\n    /* \"#utility.yul\":892:1292   */\n  swap2\n  swap1\n  pop\n  jump\t// out\n    /* \"#utility.yul\":1298:1698   */\ntag_50:\n    /* \"#utility.yul\":1458:1461   */\n  0x00\n    /* \"#utility.yul\":1479:1563   */\n  tag_52\n    /* \"#utility.yul\":1561:1562   */\n  0x03\n    /* \"#utility.yul\":1556:1559   */\n  dup4\n    /* \"#utility.yul\":1479:1563   */\n  tag_47\n  jump\t// in\ntag_52:\n    /* \"#utility.yul\":1472:1563   */\n  swap2\n  pop\n    /* \"#utility.yul\":1572:1665   */\n  tag_53\n    /* \"#utility.yul\":1661:1664   */\n  dup3\n    /* \"#utility.yul\":1572:1665   */\n  tag_54\n  jump\t// in\ntag_53:\n    /* \"#utility.yul\":1690:1691   */\n  0x03\n    /* \"#utility.yul\":1685:1688   */\n  dup3\n    /* \"#utility.yul\":1681:1692   */\n  add\n    /* \"#utility.yul\":1674:1692   */\n  swap1\n  pop\n    /* \"#utility.yul\":1298:1698   */\n  swap2\n  swap1\n  pop\n  jump\t// out\n    /* \"#utility.yul\":1704:1975   */\ntag_8:\n    /* \"#utility.yul\":1834:1837   */\n  0x00\n    /* \"#utility.yul\":1856:1949   */\n  tag_56\n    /* \"#utility.yul\":1945:1948   */\n  dup3\n    /* \"#utility.yul\":1936:1942   */\n  dup5\n    /* \"#utility.yul\":1856:1949   */\n  tag_36\n  jump\t// in\ntag_56:\n    /* \"#utility.yul\":1849:1949   */\n  swap2\n  pop\n    /* \"#utility.yul\":1966:1969   */\n  dup2\n    /* \"#utility.yul\":1959:1969   */\n  swap1\n  pop\n    /* \"#utility.yul\":1704:1975   */\n  swap3\n  swap2\n  pop\n  pop\n  jump\t// out\n    /* \"#utility.yul\":1981:2628   */\ntag_5:\n    /* \"#utility.yul\":2267:2270   */\n  0x00\n    /* \"#utility.yul\":2289:2437   */\n  tag_58\n    /* \"#utility.yul\":2433:2436   */\n  dup3\n    /* \"#utility.yul\":2289:2437   */\n  tag_44\n  jump\t// in\ntag_58:\n    /* \"#utility.yul\":2282:2437   */\n  swap2\n  pop\n    /* \"#utility.yul\":2454:2602   */\n  tag_59\n    /* \"#utility.yul\":2598:2601   */\n  dup3\n    /* \"#utility.yul\":2454:2602   */\n  tag_50\n  jump\t// in\ntag_59:\n    /* \"#utility.yul\":2447:2602   */\n  swap2\n  pop\n    /* \"#utility.yul\":2619:2622   */\n  dup2\n    /* \"#utility.yul\":2612:2622   */\n  swap1\n  pop\n    /* \"#utility.yul\":1981:2628   */\n  swap2\n  swap1\n  pop\n  jump\t// out\n    /* \"#utility.yul\":2715:2813   */\ntag_39:\n    /* \"#utility.yul\":2766:2772   */\n  0x00\n    /* \"#utility.yul\":2800:2805   */\n  dup2\n    /* \"#utility.yul\":2794:2806   */\n  mload\n    /* \"#utility.yul\":2784:2806   */\n  swap1\n  pop\n    /* \"#utility.yul\":2715:2813   */\n  swap2\n  swap1\n  pop\n  jump\t// out\n    /* \"#utility.yul\":2819:2966   */\ntag_41:\n    /* \"#utility.yul\":2920:2931   */\n  0x00\n    /* \"#utility.yul\":2957:2960   */\n  dup2\n    /* \"#utility.yul\":2942:2960   */\n  swap1\n  pop\n    /* \"#utility.yul\":2819:2966   */\n  swap3\n  swap2\n  pop\n  pop\n  jump\t// out\n    /* \"#utility.yul\":2972:3120   */\ntag_47:\n    /* \"#utility.yul\":3074:3085   */\n  0x00\n    /* \"#utility.yul\":3111:3114   */\n  dup2\n    /* \"#utility.yul\":3096:3114   */\n  swap1\n  pop\n    /* \"#utility.yul\":2972:3120   */\n  swap3\n  swap2\n  pop\n  pop\n  jump\t// out\n    /* \"#utility.yul\":3126:3203   */\ntag_65:\n    /* \"#utility.yul\":3163:3170   */\n  0x00\n    /* \"#utility.yul\":3192:3197   */\n  dup2\n    /* \"#utility.yul\":3181:3197   */\n  swap1\n  pop\n    /* \"#utility.yul\":3126:3203   */\n  swap2\n  swap1\n  pop\n  jump\t// out\n    /* \"#utility.yul\":3209:3516   */\ntag_43:\n    /* \"#utility.yul\":3277:3278   */\n  0x00\n    /* \"#utility.yul\":3287:3400   */\ntag_68:\n    /* \"#utility.yul\":3301:3307   */\n  dup4\n    /* \"#utility.yul\":3298:3299   */\n  dup2\n    /* \"#utility.yul\":3295:3308   */\n  lt\n    /* \"#utility.yul\":3287:3400   */\n  iszero\n  tag_70\n  jumpi\n    /* \"#utility.yul\":3386:3387   */\n  dup1\n    /* \"#utility.yul\":3381:3384   */\n  dup3\n    /* \"#utility.yul\":3377:3388   */\n  add\n    /* \"#utility.yul\":3371:3389   */\n  mload\n    /* \"#utility.yul\":3367:3368   */\n  dup2\n    /* \"#utility.yul\":3362:3365   */\n  dup5\n    /* \"#utility.yul\":3358:3369   */\n  add\n    /* \"#utility.yul\":3351:3390   */\n  mstore\n    /* \"#utility.yul\":3323:3325   */\n  0x20\n    /* \"#utility.yul\":3320:3321   */\n  dup2\n    /* \"#utility.yul\":3316:3326   */\n  add\n    /* \"#utility.yul\":3311:3326   */\n  swap1\n  pop\n    /* \"#utility.yul\":3287:3400   */\n  jump(tag_68)\ntag_70:\n    /* \"#utility.yul\":3418:3424   */\n  dup4\n    /* \"#utility.yul\":3415:3416   */\n  dup2\n    /* \"#utility.yul\":3412:3425   */\n  gt\n    /* \"#utility.yul\":3409:3510   */\n  iszero\n  tag_71\n  jumpi\n    /* \"#utility.yul\":3498:3499   */\n  0x00\n    /* \"#utility.yul\":3489:3495   */\n  dup5\n    /* \"#utility.yul\":3484:3487   */\n  dup5\n    /* \"#utility.yul\":3480:3496   */\n  add\n    /* \"#utility.yul\":3473:3500   */\n  mstore\n    /* \"#utility.yul\":3409:3510   */\ntag_71:\n    /* \"#utility.yul\":3258:3516   */\n  pop\n    /* \"#utility.yul\":3209:3516   */\n  pop\n  pop\n  pop\n  jump\t// out\n    /* \"#utility.yul\":3522:3842   */\ntag_16:\n    /* \"#utility.yul\":3566:3572   */\n  0x00\n    /* \"#utility.yul\":3603:3604   */\n  0x02\n    /* \"#utility.yul\":3597:3601   */\n  dup3\n    /* \"#utility.yul\":3593:3605   */\n  div\n    /* \"#utility.yul\":3583:3605   */\n  swap1\n  pop\n    /* \"#utility.yul\":3650:3651   */\n  0x01\n    /* \"#utility.yul\":3644:3648   */\n  dup3\n    /* \"#utility.yul\":3640:3652   */\n  and\n    /* \"#utility.yul\":3671:3689   */\n  dup1\n    /* \"#utility.yul\":3661:3742   */\n  tag_73\n  jumpi\n    /* \"#utility.yul\":3727:3731   */\n  0x7f\n    /* \"#utility.yul\":3719:3725   */\n  dup3\n    /* \"#utility.yul\":3715:3732   */\n  and\n    /* \"#utility.yul\":3705:3732   */\n  swap2\n  pop\n    /* \"#utility.yul\":3661:3742   */\ntag_73:\n    /* \"#utility.yul\":3789:3791   */\n  0x20\n    /* \"#utility.yul\":3781:3787   */\n  dup3\n    /* \"#utility.yul\":3778:3792   */\n  lt\n    /* \"#utility.yul\":3758:3776   */\n  dup2\n    /* \"#utility.yul\":3755:3793   */\n  eq\n    /* \"#utility.yul\":3752:3836   */\n  iszero\n  tag_74\n  jumpi\n    /* \"#utility.yul\":3808:3826   */\n  tag_75\n  tag_76\n  jump\t// in\ntag_75:\n    /* \"#utility.yul\":3752:3836   */\ntag_74:\n    /* \"#utility.yul\":3573:3842   */\n  pop\n    /* \"#utility.yul\":3522:3842   */\n  swap2\n  swap1\n  pop\n  jump\t// out\n    /* \"#utility.yul\":3848:4028   */\ntag_76:\n    /* \"#utility.yul\":3896:3973   */\n  0x4e487b7100000000000000000000000000000000000000000000000000000000\n    /* \"#utility.yul\":3893:3894   */\n  0x00\n    /* \"#utility.yul\":3886:3974   */\n  mstore\n    /* \"#utility.yul\":3993:3997   */\n  0x22\n    /* \"#utility.yul\":3990:3991   */\n  0x04\n    /* \"#utility.yul\":3983:3998   */\n  mstore\n    /* \"#utility.yul\":4017:4021   */\n  0x24\n    /* \"#utility.yul\":4014:4015   */\n  0x00\n    /* \"#utility.yul\":4007:4022   */\n  revert\n    /* \"#utility.yul\":4157:4274   */\ntag_34:\n    /* \"#utility.yul\":4266:4267   */\n  0x00\n    /* \"#utility.yul\":4263:4264   */\n  dup1\n    /* \"#utility.yul\":4256:4268   */\n  revert\n    /* \"#utility.yul\":4280:4435   */\ntag_49:\n    /* \"#utility.yul\":4420:4427   */\n  0x68656c6c6f000000000000000000000000000000000000000000000000000000\n    /* \"#utility.yul\":4416:4417   */\n  0x00\n    /* \"#utility.yul\":4408:4414   */\n  dup3\n    /* \"#utility.yul\":4404:4418   */\n  add\n    /* \"#utility.yul\":4397:4428   */\n  mstore\n    /* \"#utility.yul\":4280:4435   */\n  pop\n  jump\t// out\n    /* \"#utility.yul\":4441:4594   */\ntag_54:\n    /* \"#utility.yul\":4581:4586   */\n  0x6c69610000000000000000000000000000000000000000000000000000000000\n    /* \"#utility.yul\":4577:4578   */\n  0x00\n    /* \"#utility.yul\":4569:4575   */\n  dup3\n    /* \"#utility.yul\":4565:4579   */\n  add\n    /* \"#utility.yul\":4558:4587   */\n  mstore\n    /* \"#utility.yul\":4441:4594   */\n  pop\n  jump\t// out\n    /* \"#utility.yul\":4600:4722   */\ntag_30:\n    /* \"#utility.yul\":4673:4697   */\n  tag_84\n    /* \"#utility.yul\":4691:4696   */\n  dup2\n    /* \"#utility.yul\":4673:4697   */\n  tag_65\n  jump\t// in\ntag_84:\n    /* \"#utility.yul\":4666:4671   */\n  dup2\n    /* \"#utility.yul\":4663:4698   */\n  eq\n    /* \"#utility.yul\":4653:4716   */\n  tag_85\n  jumpi\n    /* \"#utility.yul\":4712:4713   */\n  0x00\n    /* \"#utility.yul\":4709:4710   */\n  dup1\n    /* \"#utility.yul\":4702:4714   */\n  revert\n    /* \"#utility.yul\":4653:4716   */\ntag_85:\n    /* \"#utility.yul\":4600:4722   */\n  pop\n  jump\t// out\n    /* \"Contracts/tiposVariable.sol\":83:1295  contract Variables_modifiers {\r... */\ntag_14:\n  dataSize(sub_0)\n  dup1\n  dataOffset(sub_0)\n  0x00\n  codecopy\n  0x00\n  return\nstop\n\nsub_0: assembly {\n        /* \"Contracts/tiposVariable.sol\":83:1295  contract Variables_modifiers {\r... */\n      mstore(0x40, 0x80)\n      callvalue\n      dup1\n      iszero\n      tag_1\n      jumpi\n      0x00\n      dup1\n      revert\n    tag_1:\n      pop\n      jumpi(tag_2, lt(calldatasize, 0x04))\n      shr(0xe0, calldataload(0x00))\n      dup1\n      0x7272eea1\n      gt\n      tag_13\n      jumpi\n      dup1\n      0x7272eea1\n      eq\n      tag_8\n      jumpi\n      dup1\n      0x7c3baa18\n      eq\n      tag_9\n      jumpi\n      dup1\n      0xa2bdcc8c\n      eq\n      tag_10\n      jumpi\n      dup1\n      0xad0a93bc\n      eq\n      tag_11\n      jumpi\n      dup1\n      0xc15bae84\n      eq\n      tag_12\n      jumpi\n      jump(tag_2)\n    tag_13:\n      dup1\n      0x1216d176\n      eq\n      tag_3\n      jumpi\n      dup1\n      0x2b73648d\n      eq\n      tag_4\n      jumpi\n      dup1\n      0x312a4c9c\n      eq\n      tag_5\n      jumpi\n      dup1\n      0x41dbe38b\n      eq\n      tag_6\n      jumpi\n      dup1\n      0x4df7e3d0\n      eq\n      tag_7\n      jumpi\n    tag_2:\n      0x00\n      dup1\n      revert\n        /* \"Contracts/tiposVariable.sol\":885:922  address public address_2 = msg.sender */\n    tag_3:\n      tag_14\n      tag_15\n      jump\t// in\n    tag_14:\n      mload(0x40)\n      tag_16\n      swap2\n      swap1\n      tag_17\n      jump\t// in\n    tag_16:\n      mload(0x40)\n      dup1\n      swap2\n      sub\n      swap1\n      return\n        /* \"Contracts/tiposVariable.sol\":595:673  bytes32 public hashing_keccak256 = keccak256(abi.encodePacked(\"hello\", \"lia\")) */\n    tag_4:\n      tag_18\n      tag_19\n      jump\t// in\n    tag_18:\n      mload(0x40)\n      tag_20\n      swap2\n      swap1\n      tag_21\n      jump\t// in\n    tag_20:\n      mload(0x40)\n      dup1\n      swap2\n      sub\n      swap1\n      return\n        /* \"Contracts/tiposVariable.sol\":464:488  bool public _true = true */\n    tag_5:\n      tag_22\n      tag_23\n      jump\t// in\n    tag_22:\n      mload(0x40)\n      tag_24\n      swap2\n      swap1\n      tag_25\n      jump\t// in\n    tag_24:\n      mload(0x40)\n      dup1\n      swap2\n      sub\n      swap1\n      return\n        /* \"Contracts/tiposVariable.sol\":680:750  bytes32 public hashing_s256 = sha256(abi.encodePacked(\"hello\", \"lia\")) */\n    tag_6:\n      tag_26\n      tag_27\n      jump\t// in\n    tag_26:\n      mload(0x40)\n      tag_28\n      swap2\n      swap1\n      tag_21\n      jump\t// in\n    tag_28:\n      mload(0x40)\n      dup1\n      swap2\n      sub\n      swap1\n      return\n        /* \"Contracts/tiposVariable.sol\":229:247  uint8 public b = 4 */\n    tag_7:\n      tag_29\n      tag_30\n      jump\t// in\n    tag_29:\n      mload(0x40)\n      tag_31\n      swap2\n      swap1\n      tag_32\n      jump\t// in\n    tag_31:\n      mload(0x40)\n      dup1\n      swap2\n      sub\n      swap1\n      return\n        /* \"Contracts/tiposVariable.sol\":1206:1290  function displayState() public view returns (options){\r... */\n    tag_8:\n      tag_33\n      tag_34\n      jump\t// in\n    tag_33:\n      mload(0x40)\n      tag_35\n      swap2\n      swap1\n      tag_36\n      jump\t// in\n    tag_35:\n      mload(0x40)\n      dup1\n      swap2\n      sub\n      swap1\n      return\n        /* \"Contracts/tiposVariable.sol\":1134:1198  function trueOFF() public {\r... */\n    tag_9:\n      tag_37\n      tag_38\n      jump\t// in\n    tag_37:\n      stop\n        /* \"Contracts/tiposVariable.sol\":1064:1126  function trueOn() public {\r... */\n    tag_10:\n      tag_39\n      tag_40\n      jump\t// in\n    tag_39:\n      stop\n        /* \"Contracts/tiposVariable.sol\":808:878  address public  address_1 = 0x5B38Da6a701c568545dCfcB03FcB875f56beddC4 */\n    tag_11:\n      tag_41\n      tag_42\n      jump\t// in\n    tag_41:\n      mload(0x40)\n      tag_43\n      swap2\n      swap1\n      tag_17\n      jump\t// in\n    tag_43:\n      mload(0x40)\n      dup1\n      swap2\n      sub\n      swap1\n      return\n        /* \"Contracts/tiposVariable.sol\":356:393  string public str = \"esto es publico\" */\n    tag_12:\n      tag_44\n      tag_45\n      jump\t// in\n    tag_44:\n      mload(0x40)\n      tag_46\n      swap2\n      swap1\n      tag_47\n      jump\t// in\n    tag_46:\n      mload(0x40)\n      dup1\n      swap2\n      sub\n      swap1\n      return\n        /* \"Contracts/tiposVariable.sol\":885:922  address public address_2 = msg.sender */\n    tag_15:\n      0x0c\n      0x00\n      swap1\n      sload\n      swap1\n      0x0100\n      exp\n      swap1\n      div\n      0xffffffffffffffffffffffffffffffffffffffff\n      and\n      dup2\n      jump\t// out\n        /* \"Contracts/tiposVariable.sol\":595:673  bytes32 public hashing_keccak256 = keccak256(abi.encodePacked(\"hello\", \"lia\")) */\n    tag_19:\n      sload(0x08)\n      dup2\n      jump\t// out\n        /* \"Contracts/tiposVariable.sol\":464:488  bool public _true = true */\n    tag_23:\n      0x06\n      0x00\n      swap1\n      sload\n      swap1\n      0x0100\n      exp\n      swap1\n      div\n      0xff\n      and\n      dup2\n      jump\t// out\n        /* \"Contracts/tiposVariable.sol\":680:750  bytes32 public hashing_s256 = sha256(abi.encodePacked(\"hello\", \"lia\")) */\n    tag_27:\n      sload(0x09)\n      dup2\n      jump\t// out\n        /* \"Contracts/tiposVariable.sol\":229:247  uint8 public b = 4 */\n    tag_30:\n      0x00\n      0x01\n      swap1\n      sload\n      swap1\n      0x0100\n      exp\n      swap1\n      div\n      0xff\n      and\n      dup2\n      jump\t// out\n        /* \"Contracts/tiposVariable.sol\":1206:1290  function displayState() public view returns (options){\r... */\n    tag_34:\n        /* \"Contracts/tiposVariable.sol\":1251:1258  options */\n      0x00\n        /* \"Contracts/tiposVariable.sol\":1277:1282  state */\n      0x0c\n      0x14\n      swap1\n      sload\n      swap1\n      0x0100\n      exp\n      swap1\n      div\n      0xff\n      and\n        /* \"Contracts/tiposVariable.sol\":1270:1282  return state */\n      swap1\n      pop\n        /* \"Contracts/tiposVariable.sol\":1206:1290  function displayState() public view returns (options){\r... */\n      swap1\n      jump\t// out\n        /* \"Contracts/tiposVariable.sol\":1134:1198  function trueOFF() public {\r... */\n    tag_38:\n        /* \"Contracts/tiposVariable.sol\":1179:1190  options.OFF */\n      0x01\n        /* \"Contracts/tiposVariable.sol\":1171:1176  state */\n      0x0c\n      0x14\n        /* \"Contracts/tiposVariable.sol\":1171:1190  state = options.OFF */\n      0x0100\n      exp\n      dup2\n      sload\n      dup2\n      0xff\n      mul\n      not\n      and\n      swap1\n      dup4\n      0x01\n      dup2\n      gt\n      iszero\n      tag_50\n      jumpi\n      tag_51\n      tag_52\n      jump\t// in\n    tag_51:\n    tag_50:\n      mul\n      or\n      swap1\n      sstore\n      pop\n        /* \"Contracts/tiposVariable.sol\":1134:1198  function trueOFF() public {\r... */\n      jump\t// out\n        /* \"Contracts/tiposVariable.sol\":1064:1126  function trueOn() public {\r... */\n    tag_40:\n        /* \"Contracts/tiposVariable.sol\":1108:1118  options.ON */\n      0x00\n        /* \"Contracts/tiposVariable.sol\":1100:1105  state */\n      0x0c\n      0x14\n        /* \"Contracts/tiposVariable.sol\":1100:1118  state = options.ON */\n      0x0100\n      exp\n      dup2\n      sload\n      dup2\n      0xff\n      mul\n      not\n      and\n      swap1\n      dup4\n      0x01\n      dup2\n      gt\n      iszero\n      tag_54\n      jumpi\n      tag_55\n      tag_52\n      jump\t// in\n    tag_55:\n    tag_54:\n      mul\n      or\n      swap1\n      sstore\n      pop\n        /* \"Contracts/tiposVariable.sol\":1064:1126  function trueOn() public {\r... */\n      jump\t// out\n        /* \"Contracts/tiposVariable.sol\":808:878  address public  address_1 = 0x5B38Da6a701c568545dCfcB03FcB875f56beddC4 */\n    tag_42:\n      0x0b\n      0x00\n      swap1\n      sload\n      swap1\n      0x0100\n      exp\n      swap1\n      div\n      0xffffffffffffffffffffffffffffffffffffffff\n      and\n      dup2\n      jump\t// out\n        /* \"Contracts/tiposVariable.sol\":356:393  string public str = \"esto es publico\" */\n    tag_45:\n      0x04\n      dup1\n      sload\n      tag_56\n      swap1\n      tag_57\n      jump\t// in\n    tag_56:\n      dup1\n      0x1f\n      add\n      0x20\n      dup1\n      swap2\n      div\n      mul\n      0x20\n      add\n      mload(0x40)\n      swap1\n      dup2\n      add\n      0x40\n      mstore\n      dup1\n      swap3\n      swap2\n      swap1\n      dup2\n      dup2\n      mstore\n      0x20\n      add\n      dup3\n      dup1\n      sload\n      tag_58\n      swap1\n      tag_57\n      jump\t// in\n    tag_58:\n      dup1\n      iszero\n      tag_59\n      jumpi\n      dup1\n      0x1f\n      lt\n      tag_60\n      jumpi\n      0x0100\n      dup1\n      dup4\n      sload\n      div\n      mul\n      dup4\n      mstore\n      swap2\n      0x20\n      add\n      swap2\n      jump(tag_59)\n    tag_60:\n      dup3\n      add\n      swap2\n      swap1\n      0x00\n      mstore\n      keccak256(0x00, 0x20)\n      swap1\n    tag_61:\n      dup2\n      sload\n      dup2\n      mstore\n      swap1\n      0x01\n      add\n      swap1\n      0x20\n      add\n      dup1\n      dup4\n      gt\n      tag_61\n      jumpi\n      dup3\n      swap1\n      sub\n      0x1f\n      and\n      dup3\n      add\n      swap2\n    tag_59:\n      pop\n      pop\n      pop\n      pop\n      pop\n      dup2\n      jump\t// out\n        /* \"#utility.yul\":7:125   */\n    tag_63:\n        /* \"#utility.yul\":94:118   */\n      tag_65\n        /* \"#utility.yul\":112:117   */\n      dup2\n        /* \"#utility.yul\":94:118   */\n      tag_66\n      jump\t// in\n    tag_65:\n        /* \"#utility.yul\":89:92   */\n      dup3\n        /* \"#utility.yul\":82:119   */\n      mstore\n        /* \"#utility.yul\":7:125   */\n      pop\n      pop\n      jump\t// out\n        /* \"#utility.yul\":131:240   */\n    tag_67:\n        /* \"#utility.yul\":212:233   */\n      tag_69\n        /* \"#utility.yul\":227:232   */\n      dup2\n        /* \"#utility.yul\":212:233   */\n      tag_70\n      jump\t// in\n    tag_69:\n        /* \"#utility.yul\":207:210   */\n      dup3\n        /* \"#utility.yul\":200:234   */\n      mstore\n        /* \"#utility.yul\":131:240   */\n      pop\n      pop\n      jump\t// out\n        /* \"#utility.yul\":246:364   */\n    tag_71:\n        /* \"#utility.yul\":333:357   */\n      tag_73\n        /* \"#utility.yul\":351:356   */\n      dup2\n        /* \"#utility.yul\":333:357   */\n      tag_74\n      jump\t// in\n    tag_73:\n        /* \"#utility.yul\":328:331   */\n      dup3\n        /* \"#utility.yul\":321:358   */\n      mstore\n        /* \"#utility.yul\":246:364   */\n      pop\n      pop\n      jump\t// out\n        /* \"#utility.yul\":370:517   */\n    tag_75:\n        /* \"#utility.yul\":465:510   */\n      tag_77\n        /* \"#utility.yul\":504:509   */\n      dup2\n        /* \"#utility.yul\":465:510   */\n      tag_78\n      jump\t// in\n    tag_77:\n        /* \"#utility.yul\":460:463   */\n      dup3\n        /* \"#utility.yul\":453:511   */\n      mstore\n        /* \"#utility.yul\":370:517   */\n      pop\n      pop\n      jump\t// out\n        /* \"#utility.yul\":523:887   */\n    tag_79:\n        /* \"#utility.yul\":611:614   */\n      0x00\n        /* \"#utility.yul\":639:678   */\n      tag_81\n        /* \"#utility.yul\":672:677   */\n      dup3\n        /* \"#utility.yul\":639:678   */\n      tag_82\n      jump\t// in\n    tag_81:\n        /* \"#utility.yul\":694:765   */\n      tag_83\n        /* \"#utility.yul\":758:764   */\n      dup2\n        /* \"#utility.yul\":753:756   */\n      dup6\n        /* \"#utility.yul\":694:765   */\n      tag_84\n      jump\t// in\n    tag_83:\n        /* \"#utility.yul\":687:765   */\n      swap4\n      pop\n        /* \"#utility.yul\":774:826   */\n      tag_85\n        /* \"#utility.yul\":819:825   */\n      dup2\n        /* \"#utility.yul\":814:817   */\n      dup6\n        /* \"#utility.yul\":807:811   */\n      0x20\n        /* \"#utility.yul\":800:805   */\n      dup7\n        /* \"#utility.yul\":796:812   */\n      add\n        /* \"#utility.yul\":774:826   */\n      tag_86\n      jump\t// in\n    tag_85:\n        /* \"#utility.yul\":851:880   */\n      tag_87\n        /* \"#utility.yul\":873:879   */\n      dup2\n        /* \"#utility.yul\":851:880   */\n      tag_88\n      jump\t// in\n    tag_87:\n        /* \"#utility.yul\":846:849   */\n      dup5\n        /* \"#utility.yul\":842:881   */\n      add\n        /* \"#utility.yul\":835:881   */\n      swap2\n      pop\n        /* \"#utility.yul\":615:887   */\n      pop\n        /* \"#utility.yul\":523:887   */\n      swap3\n      swap2\n      pop\n      pop\n      jump\t// out\n        /* \"#utility.yul\":893:1005   */\n    tag_89:\n        /* \"#utility.yul\":976:998   */\n      tag_91\n        /* \"#utility.yul\":992:997   */\n      dup2\n        /* \"#utility.yul\":976:998   */\n      tag_92\n      jump\t// in\n    tag_91:\n        /* \"#utility.yul\":971:974   */\n      dup3\n        /* \"#utility.yul\":964:999   */\n      mstore\n        /* \"#utility.yul\":893:1005   */\n      pop\n      pop\n      jump\t// out\n        /* \"#utility.yul\":1011:1233   */\n    tag_17:\n        /* \"#utility.yul\":1104:1108   */\n      0x00\n        /* \"#utility.yul\":1142:1144   */\n      0x20\n        /* \"#utility.yul\":1131:1140   */\n      dup3\n        /* \"#utility.yul\":1127:1145   */\n      add\n        /* \"#utility.yul\":1119:1145   */\n      swap1\n      pop\n        /* \"#utility.yul\":1155:1226   */\n      tag_94\n        /* \"#utility.yul\":1223:1224   */\n      0x00\n        /* \"#utility.yul\":1212:1221   */\n      dup4\n        /* \"#utility.yul\":1208:1225   */\n      add\n        /* \"#utility.yul\":1199:1205   */\n      dup5\n        /* \"#utility.yul\":1155:1226   */\n      tag_63\n      jump\t// in\n    tag_94:\n        /* \"#utility.yul\":1011:1233   */\n      swap3\n      swap2\n      pop\n      pop\n      jump\t// out\n        /* \"#utility.yul\":1239:1449   */\n    tag_25:\n        /* \"#utility.yul\":1326:1330   */\n      0x00\n        /* \"#utility.yul\":1364:1366   */\n      0x20\n        /* \"#utility.yul\":1353:1362   */\n      dup3\n        /* \"#utility.yul\":1349:1367   */\n      add\n        /* \"#utility.yul\":1341:1367   */\n      swap1\n      pop\n        /* \"#utility.yul\":1377:1442   */\n      tag_96\n        /* \"#utility.yul\":1439:1440   */\n      0x00\n        /* \"#utility.yul\":1428:1437   */\n      dup4\n        /* \"#utility.yul\":1424:1441   */\n      add\n        /* \"#utility.yul\":1415:1421   */\n      dup5\n        /* \"#utility.yul\":1377:1442   */\n      tag_67\n      jump\t// in\n    tag_96:\n        /* \"#utility.yul\":1239:1449   */\n      swap3\n      swap2\n      pop\n      pop\n      jump\t// out\n        /* \"#utility.yul\":1455:1677   */\n    tag_21:\n        /* \"#utility.yul\":1548:1552   */\n      0x00\n        /* \"#utility.yul\":1586:1588   */\n      0x20\n        /* \"#utility.yul\":1575:1584   */\n      dup3\n        /* \"#utility.yul\":1571:1589   */\n      add\n        /* \"#utility.yul\":1563:1589   */\n      swap1\n      pop\n        /* \"#utility.yul\":1599:1670   */\n      tag_98\n        /* \"#utility.yul\":1667:1668   */\n      0x00\n        /* \"#utility.yul\":1656:1665   */\n      dup4\n        /* \"#utility.yul\":1652:1669   */\n      add\n        /* \"#utility.yul\":1643:1649   */\n      dup5\n        /* \"#utility.yul\":1599:1670   */\n      tag_71\n      jump\t// in\n    tag_98:\n        /* \"#utility.yul\":1455:1677   */\n      swap3\n      swap2\n      pop\n      pop\n      jump\t// out\n        /* \"#utility.yul\":1683:1921   */\n    tag_36:\n        /* \"#utility.yul\":1784:1788   */\n      0x00\n        /* \"#utility.yul\":1822:1824   */\n      0x20\n        /* \"#utility.yul\":1811:1820   */\n      dup3\n        /* \"#utility.yul\":1807:1825   */\n      add\n        /* \"#utility.yul\":1799:1825   */\n      swap1\n      pop\n        /* \"#utility.yul\":1835:1914   */\n      tag_100\n        /* \"#utility.yul\":1911:1912   */\n      0x00\n        /* \"#utility.yul\":1900:1909   */\n      dup4\n        /* \"#utility.yul\":1896:1913   */\n      add\n        /* \"#utility.yul\":1887:1893   */\n      dup5\n        /* \"#utility.yul\":1835:1914   */\n      tag_75\n      jump\t// in\n    tag_100:\n        /* \"#utility.yul\":1683:1921   */\n      swap3\n      swap2\n      pop\n      pop\n      jump\t// out\n        /* \"#utility.yul\":1927:2240   */\n    tag_47:\n        /* \"#utility.yul\":2040:2044   */\n      0x00\n        /* \"#utility.yul\":2078:2080   */\n      0x20\n        /* \"#utility.yul\":2067:2076   */\n      dup3\n        /* \"#utility.yul\":2063:2081   */\n      add\n        /* \"#utility.yul\":2055:2081   */\n      swap1\n      pop\n        /* \"#utility.yul\":2127:2136   */\n      dup2\n        /* \"#utility.yul\":2121:2125   */\n      dup2\n        /* \"#utility.yul\":2117:2137   */\n      sub\n        /* \"#utility.yul\":2113:2114   */\n      0x00\n        /* \"#utility.yul\":2102:2111   */\n      dup4\n        /* \"#utility.yul\":2098:2115   */\n      add\n        /* \"#utility.yul\":2091:2138   */\n      mstore\n        /* \"#utility.yul\":2155:2233   */\n      tag_102\n        /* \"#utility.yul\":2228:2232   */\n      dup2\n        /* \"#utility.yul\":2219:2225   */\n      dup5\n        /* \"#utility.yul\":2155:2233   */\n      tag_79\n      jump\t// in\n    tag_102:\n        /* \"#utility.yul\":2147:2233   */\n      swap1\n      pop\n        /* \"#utility.yul\":1927:2240   */\n      swap3\n      swap2\n      pop\n      pop\n      jump\t// out\n        /* \"#utility.yul\":2246:2460   */\n    tag_32:\n        /* \"#utility.yul\":2335:2339   */\n      0x00\n        /* \"#utility.yul\":2373:2375   */\n      0x20\n        /* \"#utility.yul\":2362:2371   */\n      dup3\n        /* \"#utility.yul\":2358:2376   */\n      add\n        /* \"#utility.yul\":2350:2376   */\n      swap1\n      pop\n        /* \"#utility.yul\":2386:2453   */\n      tag_104\n        /* \"#utility.yul\":2450:2451   */\n      0x00\n        /* \"#utility.yul\":2439:2448   */\n      dup4\n        /* \"#utility.yul\":2435:2452   */\n      add\n        /* \"#utility.yul\":2426:2432   */\n      dup5\n        /* \"#utility.yul\":2386:2453   */\n      tag_89\n      jump\t// in\n    tag_104:\n        /* \"#utility.yul\":2246:2460   */\n      swap3\n      swap2\n      pop\n      pop\n      jump\t// out\n        /* \"#utility.yul\":2466:2565   */\n    tag_82:\n        /* \"#utility.yul\":2518:2524   */\n      0x00\n        /* \"#utility.yul\":2552:2557   */\n      dup2\n        /* \"#utility.yul\":2546:2558   */\n      mload\n        /* \"#utility.yul\":2536:2558   */\n      swap1\n      pop\n        /* \"#utility.yul\":2466:2565   */\n      swap2\n      swap1\n      pop\n      jump\t// out\n        /* \"#utility.yul\":2571:2740   */\n    tag_84:\n        /* \"#utility.yul\":2655:2666   */\n      0x00\n        /* \"#utility.yul\":2689:2695   */\n      dup3\n        /* \"#utility.yul\":2684:2687   */\n      dup3\n        /* \"#utility.yul\":2677:2696   */\n      mstore\n        /* \"#utility.yul\":2729:2733   */\n      0x20\n        /* \"#utility.yul\":2724:2727   */\n      dup3\n        /* \"#utility.yul\":2720:2734   */\n      add\n        /* \"#utility.yul\":2705:2734   */\n      swap1\n      pop\n        /* \"#utility.yul\":2571:2740   */\n      swap3\n      swap2\n      pop\n      pop\n      jump\t// out\n        /* \"#utility.yul\":2746:2842   */\n    tag_66:\n        /* \"#utility.yul\":2783:2790   */\n      0x00\n        /* \"#utility.yul\":2812:2836   */\n      tag_108\n        /* \"#utility.yul\":2830:2835   */\n      dup3\n        /* \"#utility.yul\":2812:2836   */\n      tag_109\n      jump\t// in\n    tag_108:\n        /* \"#utility.yul\":2801:2836   */\n      swap1\n      pop\n        /* \"#utility.yul\":2746:2842   */\n      swap2\n      swap1\n      pop\n      jump\t// out\n        /* \"#utility.yul\":2848:2938   */\n    tag_70:\n        /* \"#utility.yul\":2882:2889   */\n      0x00\n        /* \"#utility.yul\":2925:2930   */\n      dup2\n        /* \"#utility.yul\":2918:2931   */\n      iszero\n        /* \"#utility.yul\":2911:2932   */\n      iszero\n        /* \"#utility.yul\":2900:2932   */\n      swap1\n      pop\n        /* \"#utility.yul\":2848:2938   */\n      swap2\n      swap1\n      pop\n      jump\t// out\n        /* \"#utility.yul\":2944:3021   */\n    tag_74:\n        /* \"#utility.yul\":2981:2988   */\n      0x00\n        /* \"#utility.yul\":3010:3015   */\n      dup2\n        /* \"#utility.yul\":2999:3015   */\n      swap1\n      pop\n        /* \"#utility.yul\":2944:3021   */\n      swap2\n      swap1\n      pop\n      jump\t// out\n        /* \"#utility.yul\":3027:3158   */\n    tag_112:\n        /* \"#utility.yul\":3074:3081   */\n      0x00\n        /* \"#utility.yul\":3103:3108   */\n      dup2\n        /* \"#utility.yul\":3092:3108   */\n      swap1\n      pop\n        /* \"#utility.yul\":3109:3152   */\n      tag_114\n        /* \"#utility.yul\":3146:3151   */\n      dup3\n        /* \"#utility.yul\":3109:3152   */\n      tag_115\n      jump\t// in\n    tag_114:\n        /* \"#utility.yul\":3027:3158   */\n      swap2\n      swap1\n      pop\n      jump\t// out\n        /* \"#utility.yul\":3164:3290   */\n    tag_109:\n        /* \"#utility.yul\":3201:3208   */\n      0x00\n        /* \"#utility.yul\":3241:3283   */\n      0xffffffffffffffffffffffffffffffffffffffff\n        /* \"#utility.yul\":3234:3239   */\n      dup3\n        /* \"#utility.yul\":3230:3284   */\n      and\n        /* \"#utility.yul\":3219:3284   */\n      swap1\n      pop\n        /* \"#utility.yul\":3164:3290   */\n      swap2\n      swap1\n      pop\n      jump\t// out\n        /* \"#utility.yul\":3296:3382   */\n    tag_92:\n        /* \"#utility.yul\":3331:3338   */\n      0x00\n        /* \"#utility.yul\":3371:3375   */\n      0xff\n        /* \"#utility.yul\":3364:3369   */\n      dup3\n        /* \"#utility.yul\":3360:3376   */\n      and\n        /* \"#utility.yul\":3349:3376   */\n      swap1\n      pop\n        /* \"#utility.yul\":3296:3382   */\n      swap2\n      swap1\n      pop\n      jump\t// out\n        /* \"#utility.yul\":3388:3519   */\n    tag_78:\n        /* \"#utility.yul\":3446:3455   */\n      0x00\n        /* \"#utility.yul\":3479:3513   */\n      tag_119\n        /* \"#utility.yul\":3507:3512   */\n      dup3\n        /* \"#utility.yul\":3479:3513   */\n      tag_112\n      jump\t// in\n    tag_119:\n        /* \"#utility.yul\":3466:3513   */\n      swap1\n      pop\n        /* \"#utility.yul\":3388:3519   */\n      swap2\n      swap1\n      pop\n      jump\t// out\n        /* \"#utility.yul\":3525:3832   */\n    tag_86:\n        /* \"#utility.yul\":3593:3594   */\n      0x00\n        /* \"#utility.yul\":3603:3716   */\n    tag_121:\n        /* \"#utility.yul\":3617:3623   */\n      dup4\n        /* \"#utility.yul\":3614:3615   */\n      dup2\n        /* \"#utility.yul\":3611:3624   */\n      lt\n        /* \"#utility.yul\":3603:3716   */\n      iszero\n      tag_123\n      jumpi\n        /* \"#utility.yul\":3702:3703   */\n      dup1\n        /* \"#utility.yul\":3697:3700   */\n      dup3\n        /* \"#utility.yul\":3693:3704   */\n      add\n        /* \"#utility.yul\":3687:3705   */\n      mload\n        /* \"#utility.yul\":3683:3684   */\n      dup2\n        /* \"#utility.yul\":3678:3681   */\n      dup5\n        /* \"#utility.yul\":3674:3685   */\n      add\n        /* \"#utility.yul\":3667:3706   */\n      mstore\n        /* \"#utility.yul\":3639:3641   */\n      0x20\n        /* \"#utility.yul\":3636:3637   */\n      dup2\n        /* \"#utility.yul\":3632:3642   */\n      add\n        /* \"#utility.yul\":3627:3642   */\n      swap1\n      pop\n        /* \"#utility.yul\":3603:3716   */\n      jump(tag_121)\n    tag_123:\n        /* \"#utility.yul\":3734:3740   */\n      dup4\n        /* \"#utility.yul\":3731:3732   */\n      dup2\n        /* \"#utility.yul\":3728:3741   */\n      gt\n        /* \"#utility.yul\":3725:3826   */\n      iszero\n      tag_124\n      jumpi\n        /* \"#utility.yul\":3814:3815   */\n      0x00\n        /* \"#utility.yul\":3805:3811   */\n      dup5\n        /* \"#utility.yul\":3800:3803   */\n      dup5\n        /* \"#utility.yul\":3796:3812   */\n      add\n        /* \"#utility.yul\":3789:3816   */\n      mstore\n        /* \"#utility.yul\":3725:3826   */\n    tag_124:\n        /* \"#utility.yul\":3574:3832   */\n      pop\n        /* \"#utility.yul\":3525:3832   */\n      pop\n      pop\n      pop\n      jump\t// out\n        /* \"#utility.yul\":3838:4158   */\n    tag_57:\n        /* \"#utility.yul\":3882:3888   */\n      0x00\n        /* \"#utility.yul\":3919:3920   */\n      0x02\n        /* \"#utility.yul\":3913:3917   */\n      dup3\n        /* \"#utility.yul\":3909:3921   */\n      div\n        /* \"#utility.yul\":3899:3921   */\n      swap1\n      pop\n        /* \"#utility.yul\":3966:3967   */\n      0x01\n        /* \"#utility.yul\":3960:3964   */\n      dup3\n        /* \"#utility.yul\":3956:3968   */\n      and\n        /* \"#utility.yul\":3987:4005   */\n      dup1\n        /* \"#utility.yul\":3977:4058   */\n      tag_126\n      jumpi\n        /* \"#utility.yul\":4043:4047   */\n      0x7f\n        /* \"#utility.yul\":4035:4041   */\n      dup3\n        /* \"#utility.yul\":4031:4048   */\n      and\n        /* \"#utility.yul\":4021:4048   */\n      swap2\n      pop\n        /* \"#utility.yul\":3977:4058   */\n    tag_126:\n        /* \"#utility.yul\":4105:4107   */\n      0x20\n        /* \"#utility.yul\":4097:4103   */\n      dup3\n        /* \"#utility.yul\":4094:4108   */\n      lt\n        /* \"#utility.yul\":4074:4092   */\n      dup2\n        /* \"#utility.yul\":4071:4109   */\n      eq\n        /* \"#utility.yul\":4068:4152   */\n      iszero\n      tag_127\n      jumpi\n        /* \"#utility.yul\":4124:4142   */\n      tag_128\n      tag_129\n      jump\t// in\n    tag_128:\n        /* \"#utility.yul\":4068:4152   */\n    tag_127:\n        /* \"#utility.yul\":3889:4158   */\n      pop\n        /* \"#utility.yul\":3838:4158   */\n      swap2\n      swap1\n      pop\n      jump\t// out\n        /* \"#utility.yul\":4164:4344   */\n    tag_52:\n        /* \"#utility.yul\":4212:4289   */\n      0x4e487b7100000000000000000000000000000000000000000000000000000000\n        /* \"#utility.yul\":4209:4210   */\n      0x00\n        /* \"#utility.yul\":4202:4290   */\n      mstore\n        /* \"#utility.yul\":4309:4313   */\n      0x21\n        /* \"#utility.yul\":4306:4307   */\n      0x04\n        /* \"#utility.yul\":4299:4314   */\n      mstore\n        /* \"#utility.yul\":4333:4337   */\n      0x24\n        /* \"#utility.yul\":4330:4331   */\n      0x00\n        /* \"#utility.yul\":4323:4338   */\n      revert\n        /* \"#utility.yul\":4350:4530   */\n    tag_129:\n        /* \"#utility.yul\":4398:4475   */\n      0x4e487b7100000000000000000000000000000000000000000000000000000000\n        /* \"#utility.yul\":4395:4396   */\n      0x00\n        /* \"#utility.yul\":4388:4476   */\n      mstore\n        /* \"#utility.yul\":4495:4499   */\n      0x22\n        /* \"#utility.yul\":4492:4493   */\n      0x04\n        /* \"#utility.yul\":4485:4500   */\n      mstore\n        /* \"#utility.yul\":4519:4523   */\n      0x24\n        /* \"#utility.yul\":4516:4517   */\n      0x00\n        /* \"#utility.yul\":4509:4524   */\n      revert\n        /* \"#utility.yul\":4536:4638   */\n    tag_88:\n        /* \"#utility.yul\":4577:4583   */\n      0x00\n        /* \"#utility.yul\":4628:4630   */\n      0x1f\n        /* \"#utility.yul\":4624:4631   */\n      not\n        /* \"#utility.yul\":4619:4621   */\n      0x1f\n        /* \"#utility.yul\":4612:4617   */\n      dup4\n        /* \"#utility.yul\":4608:4622   */\n      add\n        /* \"#utility.yul\":4604:4632   */\n      and\n        /* \"#utility.yul\":4594:4632   */\n      swap1\n      pop\n        /* \"#utility.yul\":4536:4638   */\n      swap2\n      swap1\n      pop\n      jump\t// out\n        /* \"#utility.yul\":4644:4759   */\n    tag_115:\n        /* \"#utility.yul\":4727:4728   */\n      0x02\n        /* \"#utility.yul\":4720:4725   */\n      dup2\n        /* \"#utility.yul\":4717:4729   */\n      lt\n        /* \"#utility.yul\":4707:4753   */\n      tag_134\n      jumpi\n        /* \"#utility.yul\":4733:4751   */\n      tag_135\n      tag_52\n      jump\t// in\n    tag_135:\n        /* \"#utility.yul\":4707:4753   */\n    tag_134:\n        /* \"#utility.yul\":4644:4759   */\n      pop\n      jump\t// out\n\n    auxdata: 0xa264697066735822122074a40f251e7251b236853c1b5de13946e18d397fee26a2e91fdb146e1c95f2c664736f6c63430008070033\n}\n",
				"bytecode": {
					"linkReferences": {},
					"object": "60806040526004600060016101000a81548160ff021916908360ff1602179055507fffffffffffffffffffffffffffffffffffffffffffffffffffffffffffffffff600260006101000a81548160ff021916908360000b60ff16021790555060346003556040518060400160405280600f81526020017f6573746f206573207075626c69636f000000000000000000000000000000000081525060049080519060200190620000b092919062000280565b506040518060400160405280600f81526020017f6573746f206573207072697661646f000000000000000000000000000000000081525060059080519060200190620000fe92919062000280565b506001600660006101000a81548160ff0219169083151502179055506000600660016101000a81548160ff021916908315150217905550604051602001620001469062000417565b604051602081830303815290604052805190602001206008556002604051602001620001729062000417565b604051602081830303815290604052604051620001909190620003fe565b602060405180830381855afa158015620001ae573d6000803e3d6000fd5b5050506040513d601f19601f82011682018060405250810190620001d3919062000347565b600955735b38da6a701c568545dcfcb03fcb875f56beddc4600b60006101000a81548173ffffffffffffffffffffffffffffffffffffffff021916908373ffffffffffffffffffffffffffffffffffffffff16021790555033600c60006101000a81548173ffffffffffffffffffffffffffffffffffffffff021916908373ffffffffffffffffffffffffffffffffffffffff1602179055503480156200027957600080fd5b5062000572565b8280546200028e906200049c565b90600052602060002090601f016020900481019282620002b25760008555620002fe565b82601f10620002cd57805160ff1916838001178555620002fe565b82800160010185558215620002fe579182015b82811115620002fd578251825591602001919060010190620002e0565b5b5090506200030d919062000311565b5090565b5b808211156200032c57600081600090555060010162000312565b5090565b600081519050620003418162000558565b92915050565b60006020828403121562000360576200035f62000501565b5b6000620003708482850162000330565b91505092915050565b600062000386826200043b565b62000392818562000446565b9350620003a481856020860162000466565b80840191505092915050565b6000620003bf60058362000451565b9150620003cc8262000506565b600582019050919050565b6000620003e660038362000451565b9150620003f3826200052f565b600382019050919050565b60006200040c828462000379565b915081905092915050565b60006200042482620003b0565b91506200043182620003d7565b9150819050919050565b600081519050919050565b600081905092915050565b600081905092915050565b6000819050919050565b60005b838110156200048657808201518184015260208101905062000469565b8381111562000496576000848401525b50505050565b60006002820490506001821680620004b557607f821691505b60208210811415620004cc57620004cb620004d2565b5b50919050565b7f4e487b7100000000000000000000000000000000000000000000000000000000600052602260045260246000fd5b600080fd5b7f68656c6c6f000000000000000000000000000000000000000000000000000000600082015250565b7f6c69610000000000000000000000000000000000000000000000000000000000600082015250565b62000563816200045c565b81146200056f57600080fd5b50565b61060580620005826000396000f3fe608060405234801561001057600080fd5b506004361061009e5760003560e01c80637272eea1116100665780637272eea1146101395780637c3baa1814610157578063a2bdcc8c14610161578063ad0a93bc1461016b578063c15bae84146101895761009e565b80631216d176146100a35780632b73648d146100c1578063312a4c9c146100df57806341dbe38b146100fd5780634df7e3d01461011b575b600080fd5b6100ab6101a7565b6040516100b891906103a8565b60405180910390f35b6100c96101cd565b6040516100d691906103de565b60405180910390f35b6100e76101d3565b6040516100f491906103c3565b60405180910390f35b6101056101e6565b60405161011291906103de565b60405180910390f35b6101236101ec565b6040516101309190610436565b60405180910390f35b6101416101ff565b60405161014e91906103f9565b60405180910390f35b61015f610216565b005b610169610243565b005b610173610270565b60405161018091906103a8565b60405180910390f35b610191610296565b60405161019e9190610414565b60405180910390f35b600c60009054906101000a900473ffffffffffffffffffffffffffffffffffffffff1681565b60085481565b600660009054906101000a900460ff1681565b60095481565b600060019054906101000a900460ff1681565b6000600c60149054906101000a900460ff16905090565b6001600c60146101000a81548160ff0219169083600181111561023c5761023b61054c565b5b0217905550565b6000600c60146101000a81548160ff021916908360018111156102695761026861054c565b5b0217905550565b600b60009054906101000a900473ffffffffffffffffffffffffffffffffffffffff1681565b600480546102a39061051a565b80601f01602080910402602001604051908101604052809291908181526020018280546102cf9061051a565b801561031c5780601f106102f15761010080835404028352916020019161031c565b820191906000526020600020905b8154815290600101906020018083116102ff57829003601f168201915b505050505081565b61032d8161046d565b82525050565b61033c8161047f565b82525050565b61034b8161048b565b82525050565b61035a816104d5565b82525050565b600061036b82610451565b610375818561045c565b93506103858185602086016104e7565b61038e816105aa565b840191505092915050565b6103a2816104c8565b82525050565b60006020820190506103bd6000830184610324565b92915050565b60006020820190506103d86000830184610333565b92915050565b60006020820190506103f36000830184610342565b92915050565b600060208201905061040e6000830184610351565b92915050565b6000602082019050818103600083015261042e8184610360565b905092915050565b600060208201905061044b6000830184610399565b92915050565b600081519050919050565b600082825260208201905092915050565b6000610478826104a8565b9050919050565b60008115159050919050565b6000819050919050565b60008190506104a3826105bb565b919050565b600073ffffffffffffffffffffffffffffffffffffffff82169050919050565b600060ff82169050919050565b60006104e082610495565b9050919050565b60005b838110156105055780820151818401526020810190506104ea565b83811115610514576000848401525b50505050565b6000600282049050600182168061053257607f821691505b602082108114156105465761054561057b565b5b50919050565b7f4e487b7100000000000000000000000000000000000000000000000000000000600052602160045260246000fd5b7f4e487b7100000000000000000000000000000000000000000000000000000000600052602260045260246000fd5b6000601f19601f8301169050919050565b600281106105cc576105cb61054c565b5b5056fea264697066735822122074a40f251e7251b236853c1b5de13946e18d397fee26a2e91fdb146e1c95f2c664736f6c63430008070033",
					"opcodes": "PUSH1 0x80 PUSH1 0x40 MSTORE PUSH1 0x4 PUSH1 0x0 PUSH1 0x1 PUSH2 0x100 EXP DUP2 SLOAD DUP2 PUSH1 0xFF MUL NOT AND SWAP1 DUP4 PUSH1 0xFF AND MUL OR SWAP1 SSTORE POP PUSH32 0xFFFFFFFFFFFFFFFFFFFFFFFFFFFFFFFFFFFFFFFFFFFFFFFFFFFFFFFFFFFFFFFF PUSH1 0x2 PUSH1 0x0 PUSH2 0x100 EXP DUP2 SLOAD DUP2 PUSH1 0xFF MUL NOT AND SWAP1 DUP4 PUSH1 0x0 SIGNEXTEND PUSH1 0xFF AND MUL OR SWAP1 SSTORE POP PUSH1 0x34 PUSH1 0x3 SSTORE PUSH1 0x40 MLOAD DUP1 PUSH1 0x40 ADD PUSH1 0x40 MSTORE DUP1 PUSH1 0xF DUP2 MSTORE PUSH1 0x20 ADD PUSH32 0x6573746F206573207075626C69636F0000000000000000000000000000000000 DUP2 MSTORE POP PUSH1 0x4 SWAP1 DUP1 MLOAD SWAP1 PUSH1 0x20 ADD SWAP1 PUSH3 0xB0 SWAP3 SWAP2 SWAP1 PUSH3 0x280 JUMP JUMPDEST POP PUSH1 0x40 MLOAD DUP1 PUSH1 0x40 ADD PUSH1 0x40 MSTORE DUP1 PUSH1 0xF DUP2 MSTORE PUSH1 0x20 ADD PUSH32 0x6573746F206573207072697661646F0000000000000000000000000000000000 DUP2 MSTORE POP PUSH1 0x5 SWAP1 DUP1 MLOAD SWAP1 PUSH1 0x20 ADD SWAP1 PUSH3 0xFE SWAP3 SWAP2 SWAP1 PUSH3 0x280 JUMP JUMPDEST POP PUSH1 0x1 PUSH1 0x6 PUSH1 0x0 PUSH2 0x100 EXP DUP2 SLOAD DUP2 PUSH1 0xFF MUL NOT AND SWAP1 DUP4 ISZERO ISZERO MUL OR SWAP1 SSTORE POP PUSH1 0x0 PUSH1 0x6 PUSH1 0x1 PUSH2 0x100 EXP DUP2 SLOAD DUP2 PUSH1 0xFF MUL NOT AND SWAP1 DUP4 ISZERO ISZERO MUL OR SWAP1 SSTORE POP PUSH1 0x40 MLOAD PUSH1 0x20 ADD PUSH3 0x146 SWAP1 PUSH3 0x417 JUMP JUMPDEST PUSH1 0x40 MLOAD PUSH1 0x20 DUP2 DUP4 SUB SUB DUP2 MSTORE SWAP1 PUSH1 0x40 MSTORE DUP1 MLOAD SWAP1 PUSH1 0x20 ADD KECCAK256 PUSH1 0x8 SSTORE PUSH1 0x2 PUSH1 0x40 MLOAD PUSH1 0x20 ADD PUSH3 0x172 SWAP1 PUSH3 0x417 JUMP JUMPDEST PUSH1 0x40 MLOAD PUSH1 0x20 DUP2 DUP4 SUB SUB DUP2 MSTORE SWAP1 PUSH1 0x40 MSTORE PUSH1 0x40 MLOAD PUSH3 0x190 SWAP2 SWAP1 PUSH3 0x3FE JUMP JUMPDEST PUSH1 0x20 PUSH1 0x40 MLOAD DUP1 DUP4 SUB DUP2 DUP6 GAS STATICCALL ISZERO DUP1 ISZERO PUSH3 0x1AE JUMPI RETURNDATASIZE PUSH1 0x0 DUP1 RETURNDATACOPY RETURNDATASIZE PUSH1 0x0 REVERT JUMPDEST POP POP POP PUSH1 0x40 MLOAD RETURNDATASIZE PUSH1 0x1F NOT PUSH1 0x1F DUP3 ADD AND DUP3 ADD DUP1 PUSH1 0x40 MSTORE POP DUP2 ADD SWAP1 PUSH3 0x1D3 SWAP2 SWAP1 PUSH3 0x347 JUMP JUMPDEST PUSH1 0x9 SSTORE PUSH20 0x5B38DA6A701C568545DCFCB03FCB875F56BEDDC4 PUSH1 0xB PUSH1 0x0 PUSH2 0x100 EXP DUP2 SLOAD DUP2 PUSH20 0xFFFFFFFFFFFFFFFFFFFFFFFFFFFFFFFFFFFFFFFF MUL NOT AND SWAP1 DUP4 PUSH20 0xFFFFFFFFFFFFFFFFFFFFFFFFFFFFFFFFFFFFFFFF AND MUL OR SWAP1 SSTORE POP CALLER PUSH1 0xC PUSH1 0x0 PUSH2 0x100 EXP DUP2 SLOAD DUP2 PUSH20 0xFFFFFFFFFFFFFFFFFFFFFFFFFFFFFFFFFFFFFFFF MUL NOT AND SWAP1 DUP4 PUSH20 0xFFFFFFFFFFFFFFFFFFFFFFFFFFFFFFFFFFFFFFFF AND MUL OR SWAP1 SSTORE POP CALLVALUE DUP1 ISZERO PUSH3 0x279 JUMPI PUSH1 0x0 DUP1 REVERT JUMPDEST POP PUSH3 0x572 JUMP JUMPDEST DUP3 DUP1 SLOAD PUSH3 0x28E SWAP1 PUSH3 0x49C JUMP JUMPDEST SWAP1 PUSH1 0x0 MSTORE PUSH1 0x20 PUSH1 0x0 KECCAK256 SWAP1 PUSH1 0x1F ADD PUSH1 0x20 SWAP1 DIV DUP2 ADD SWAP3 DUP3 PUSH3 0x2B2 JUMPI PUSH1 0x0 DUP6 SSTORE PUSH3 0x2FE JUMP JUMPDEST DUP3 PUSH1 0x1F LT PUSH3 0x2CD JUMPI DUP1 MLOAD PUSH1 0xFF NOT AND DUP4 DUP1 ADD OR DUP6 SSTORE PUSH3 0x2FE JUMP JUMPDEST DUP3 DUP1 ADD PUSH1 0x1 ADD DUP6 SSTORE DUP3 ISZERO PUSH3 0x2FE JUMPI SWAP2 DUP3 ADD JUMPDEST DUP3 DUP2 GT ISZERO PUSH3 0x2FD JUMPI DUP3 MLOAD DUP3 SSTORE SWAP2 PUSH1 0x20 ADD SWAP2 SWAP1 PUSH1 0x1 ADD SWAP1 PUSH3 0x2E0 JUMP JUMPDEST JUMPDEST POP SWAP1 POP PUSH3 0x30D SWAP2 SWAP1 PUSH3 0x311 JUMP JUMPDEST POP SWAP1 JUMP JUMPDEST JUMPDEST DUP1 DUP3 GT ISZERO PUSH3 0x32C JUMPI PUSH1 0x0 DUP2 PUSH1 0x0 SWAP1 SSTORE POP PUSH1 0x1 ADD PUSH3 0x312 JUMP JUMPDEST POP SWAP1 JUMP JUMPDEST PUSH1 0x0 DUP2 MLOAD SWAP1 POP PUSH3 0x341 DUP2 PUSH3 0x558 JUMP JUMPDEST SWAP3 SWAP2 POP POP JUMP JUMPDEST PUSH1 0x0 PUSH1 0x20 DUP3 DUP5 SUB SLT ISZERO PUSH3 0x360 JUMPI PUSH3 0x35F PUSH3 0x501 JUMP JUMPDEST JUMPDEST PUSH1 0x0 PUSH3 0x370 DUP5 DUP3 DUP6 ADD PUSH3 0x330 JUMP JUMPDEST SWAP2 POP POP SWAP3 SWAP2 POP POP JUMP JUMPDEST PUSH1 0x0 PUSH3 0x386 DUP3 PUSH3 0x43B JUMP JUMPDEST PUSH3 0x392 DUP2 DUP6 PUSH3 0x446 JUMP JUMPDEST SWAP4 POP PUSH3 0x3A4 DUP2 DUP6 PUSH1 0x20 DUP7 ADD PUSH3 0x466 JUMP JUMPDEST DUP1 DUP5 ADD SWAP2 POP POP SWAP3 SWAP2 POP POP JUMP JUMPDEST PUSH1 0x0 PUSH3 0x3BF PUSH1 0x5 DUP4 PUSH3 0x451 JUMP JUMPDEST SWAP2 POP PUSH3 0x3CC DUP3 PUSH3 0x506 JUMP JUMPDEST PUSH1 0x5 DUP3 ADD SWAP1 POP SWAP2 SWAP1 POP JUMP JUMPDEST PUSH1 0x0 PUSH3 0x3E6 PUSH1 0x3 DUP4 PUSH3 0x451 JUMP JUMPDEST SWAP2 POP PUSH3 0x3F3 DUP3 PUSH3 0x52F JUMP JUMPDEST PUSH1 0x3 DUP3 ADD SWAP1 POP SWAP2 SWAP1 POP JUMP JUMPDEST PUSH1 0x0 PUSH3 0x40C DUP3 DUP5 PUSH3 0x379 JUMP JUMPDEST SWAP2 POP DUP2 SWAP1 POP SWAP3 SWAP2 POP POP JUMP JUMPDEST PUSH1 0x0 PUSH3 0x424 DUP3 PUSH3 0x3B0 JUMP JUMPDEST SWAP2 POP PUSH3 0x431 DUP3 PUSH3 0x3D7 JUMP JUMPDEST SWAP2 POP DUP2 SWAP1 POP SWAP2 SWAP1 POP JUMP JUMPDEST PUSH1 0x0 DUP2 MLOAD SWAP1 POP SWAP2 SWAP1 POP JUMP JUMPDEST PUSH1 0x0 DUP2 SWAP1 POP SWAP3 SWAP2 POP POP JUMP JUMPDEST PUSH1 0x0 DUP2 SWAP1 POP SWAP3 SWAP2 POP POP JUMP JUMPDEST PUSH1 0x0 DUP2 SWAP1 POP SWAP2 SWAP1 POP JUMP JUMPDEST PUSH1 0x0 JUMPDEST DUP4 DUP2 LT ISZERO PUSH3 0x486 JUMPI DUP1 DUP3 ADD MLOAD DUP2 DUP5 ADD MSTORE PUSH1 0x20 DUP2 ADD SWAP1 POP PUSH3 0x469 JUMP JUMPDEST DUP4 DUP2 GT ISZERO PUSH3 0x496 JUMPI PUSH1 0x0 DUP5 DUP5 ADD MSTORE JUMPDEST POP POP POP POP JUMP JUMPDEST PUSH1 0x0 PUSH1 0x2 DUP3 DIV SWAP1 POP PUSH1 0x1 DUP3 AND DUP1 PUSH3 0x4B5 JUMPI PUSH1 0x7F DUP3 AND SWAP2 POP JUMPDEST PUSH1 0x20 DUP3 LT DUP2 EQ ISZERO PUSH3 0x4CC JUMPI PUSH3 0x4CB PUSH3 0x4D2 JUMP JUMPDEST JUMPDEST POP SWAP2 SWAP1 POP JUMP JUMPDEST PUSH32 0x4E487B7100000000000000000000000000000000000000000000000000000000 PUSH1 0x0 MSTORE PUSH1 0x22 PUSH1 0x4 MSTORE PUSH1 0x24 PUSH1 0x0 REVERT JUMPDEST PUSH1 0x0 DUP1 REVERT JUMPDEST PUSH32 0x68656C6C6F000000000000000000000000000000000000000000000000000000 PUSH1 0x0 DUP3 ADD MSTORE POP JUMP JUMPDEST PUSH32 0x6C69610000000000000000000000000000000000000000000000000000000000 PUSH1 0x0 DUP3 ADD MSTORE POP JUMP JUMPDEST PUSH3 0x563 DUP2 PUSH3 0x45C JUMP JUMPDEST DUP2 EQ PUSH3 0x56F JUMPI PUSH1 0x0 DUP1 REVERT JUMPDEST POP JUMP JUMPDEST PUSH2 0x605 DUP1 PUSH3 0x582 PUSH1 0x0 CODECOPY PUSH1 0x0 RETURN INVALID PUSH1 0x80 PUSH1 0x40 MSTORE CALLVALUE DUP1 ISZERO PUSH2 0x10 JUMPI PUSH1 0x0 DUP1 REVERT JUMPDEST POP PUSH1 0x4 CALLDATASIZE LT PUSH2 0x9E JUMPI PUSH1 0x0 CALLDATALOAD PUSH1 0xE0 SHR DUP1 PUSH4 0x7272EEA1 GT PUSH2 0x66 JUMPI DUP1 PUSH4 0x7272EEA1 EQ PUSH2 0x139 JUMPI DUP1 PUSH4 0x7C3BAA18 EQ PUSH2 0x157 JUMPI DUP1 PUSH4 0xA2BDCC8C EQ PUSH2 0x161 JUMPI DUP1 PUSH4 0xAD0A93BC EQ PUSH2 0x16B JUMPI DUP1 PUSH4 0xC15BAE84 EQ PUSH2 0x189 JUMPI PUSH2 0x9E JUMP JUMPDEST DUP1 PUSH4 0x1216D176 EQ PUSH2 0xA3 JUMPI DUP1 PUSH4 0x2B73648D EQ PUSH2 0xC1 JUMPI DUP1 PUSH4 0x312A4C9C EQ PUSH2 0xDF JUMPI DUP1 PUSH4 0x41DBE38B EQ PUSH2 0xFD JUMPI DUP1 PUSH4 0x4DF7E3D0 EQ PUSH2 0x11B JUMPI JUMPDEST PUSH1 0x0 DUP1 REVERT JUMPDEST PUSH2 0xAB PUSH2 0x1A7 JUMP JUMPDEST PUSH1 0x40 MLOAD PUSH2 0xB8 SWAP2 SWAP1 PUSH2 0x3A8 JUMP JUMPDEST PUSH1 0x40 MLOAD DUP1 SWAP2 SUB SWAP1 RETURN JUMPDEST PUSH2 0xC9 PUSH2 0x1CD JUMP JUMPDEST PUSH1 0x40 MLOAD PUSH2 0xD6 SWAP2 SWAP1 PUSH2 0x3DE JUMP JUMPDEST PUSH1 0x40 MLOAD DUP1 SWAP2 SUB SWAP1 RETURN JUMPDEST PUSH2 0xE7 PUSH2 0x1D3 JUMP JUMPDEST PUSH1 0x40 MLOAD PUSH2 0xF4 SWAP2 SWAP1 PUSH2 0x3C3 JUMP JUMPDEST PUSH1 0x40 MLOAD DUP1 SWAP2 SUB SWAP1 RETURN JUMPDEST PUSH2 0x105 PUSH2 0x1E6 JUMP JUMPDEST PUSH1 0x40 MLOAD PUSH2 0x112 SWAP2 SWAP1 PUSH2 0x3DE JUMP JUMPDEST PUSH1 0x40 MLOAD DUP1 SWAP2 SUB SWAP1 RETURN JUMPDEST PUSH2 0x123 PUSH2 0x1EC JUMP JUMPDEST PUSH1 0x40 MLOAD PUSH2 0x130 SWAP2 SWAP1 PUSH2 0x436 JUMP JUMPDEST PUSH1 0x40 MLOAD DUP1 SWAP2 SUB SWAP1 RETURN JUMPDEST PUSH2 0x141 PUSH2 0x1FF JUMP JUMPDEST PUSH1 0x40 MLOAD PUSH2 0x14E SWAP2 SWAP1 PUSH2 0x3F9 JUMP JUMPDEST PUSH1 0x40 MLOAD DUP1 SWAP2 SUB SWAP1 RETURN JUMPDEST PUSH2 0x15F PUSH2 0x216 JUMP JUMPDEST STOP JUMPDEST PUSH2 0x169 PUSH2 0x243 JUMP JUMPDEST STOP JUMPDEST PUSH2 0x173 PUSH2 0x270 JUMP JUMPDEST PUSH1 0x40 MLOAD PUSH2 0x180 SWAP2 SWAP1 PUSH2 0x3A8 JUMP JUMPDEST PUSH1 0x40 MLOAD DUP1 SWAP2 SUB SWAP1 RETURN JUMPDEST PUSH2 0x191 PUSH2 0x296 JUMP JUMPDEST PUSH1 0x40 MLOAD PUSH2 0x19E SWAP2 SWAP1 PUSH2 0x414 JUMP JUMPDEST PUSH1 0x40 MLOAD DUP1 SWAP2 SUB SWAP1 RETURN JUMPDEST PUSH1 0xC PUSH1 0x0 SWAP1 SLOAD SWAP1 PUSH2 0x100 EXP SWAP1 DIV PUSH20 0xFFFFFFFFFFFFFFFFFFFFFFFFFFFFFFFFFFFFFFFF AND DUP2 JUMP JUMPDEST PUSH1 0x8 SLOAD DUP2 JUMP JUMPDEST PUSH1 0x6 PUSH1 0x0 SWAP1 SLOAD SWAP1 PUSH2 0x100 EXP SWAP1 DIV PUSH1 0xFF AND DUP2 JUMP JUMPDEST PUSH1 0x9 SLOAD DUP2 JUMP JUMPDEST PUSH1 0x0 PUSH1 0x1 SWAP1 SLOAD SWAP1 PUSH2 0x100 EXP SWAP1 DIV PUSH1 0xFF AND DUP2 JUMP JUMPDEST PUSH1 0x0 PUSH1 0xC PUSH1 0x14 SWAP1 SLOAD SWAP1 PUSH2 0x100 EXP SWAP1 DIV PUSH1 0xFF AND SWAP1 POP SWAP1 JUMP JUMPDEST PUSH1 0x1 PUSH1 0xC PUSH1 0x14 PUSH2 0x100 EXP DUP2 SLOAD DUP2 PUSH1 0xFF MUL NOT AND SWAP1 DUP4 PUSH1 0x1 DUP2 GT ISZERO PUSH2 0x23C JUMPI PUSH2 0x23B PUSH2 0x54C JUMP JUMPDEST JUMPDEST MUL OR SWAP1 SSTORE POP JUMP JUMPDEST PUSH1 0x0 PUSH1 0xC PUSH1 0x14 PUSH2 0x100 EXP DUP2 SLOAD DUP2 PUSH1 0xFF MUL NOT AND SWAP1 DUP4 PUSH1 0x1 DUP2 GT ISZERO PUSH2 0x269 JUMPI PUSH2 0x268 PUSH2 0x54C JUMP JUMPDEST JUMPDEST MUL OR SWAP1 SSTORE POP JUMP JUMPDEST PUSH1 0xB PUSH1 0x0 SWAP1 SLOAD SWAP1 PUSH2 0x100 EXP SWAP1 DIV PUSH20 0xFFFFFFFFFFFFFFFFFFFFFFFFFFFFFFFFFFFFFFFF AND DUP2 JUMP JUMPDEST PUSH1 0x4 DUP1 SLOAD PUSH2 0x2A3 SWAP1 PUSH2 0x51A JUMP JUMPDEST DUP1 PUSH1 0x1F ADD PUSH1 0x20 DUP1 SWAP2 DIV MUL PUSH1 0x20 ADD PUSH1 0x40 MLOAD SWAP1 DUP2 ADD PUSH1 0x40 MSTORE DUP1 SWAP3 SWAP2 SWAP1 DUP2 DUP2 MSTORE PUSH1 0x20 ADD DUP3 DUP1 SLOAD PUSH2 0x2CF SWAP1 PUSH2 0x51A JUMP JUMPDEST DUP1 ISZERO PUSH2 0x31C JUMPI DUP1 PUSH1 0x1F LT PUSH2 0x2F1 JUMPI PUSH2 0x100 DUP1 DUP4 SLOAD DIV MUL DUP4 MSTORE SWAP2 PUSH1 0x20 ADD SWAP2 PUSH2 0x31C JUMP JUMPDEST DUP3 ADD SWAP2 SWAP1 PUSH1 0x0 MSTORE PUSH1 0x20 PUSH1 0x0 KECCAK256 SWAP1 JUMPDEST DUP2 SLOAD DUP2 MSTORE SWAP1 PUSH1 0x1 ADD SWAP1 PUSH1 0x20 ADD DUP1 DUP4 GT PUSH2 0x2FF JUMPI DUP3 SWAP1 SUB PUSH1 0x1F AND DUP3 ADD SWAP2 JUMPDEST POP POP POP POP POP DUP2 JUMP JUMPDEST PUSH2 0x32D DUP2 PUSH2 0x46D JUMP JUMPDEST DUP3 MSTORE POP POP JUMP JUMPDEST PUSH2 0x33C DUP2 PUSH2 0x47F JUMP JUMPDEST DUP3 MSTORE POP POP JUMP JUMPDEST PUSH2 0x34B DUP2 PUSH2 0x48B JUMP JUMPDEST DUP3 MSTORE POP POP JUMP JUMPDEST PUSH2 0x35A DUP2 PUSH2 0x4D5 JUMP JUMPDEST DUP3 MSTORE POP POP JUMP JUMPDEST PUSH1 0x0 PUSH2 0x36B DUP3 PUSH2 0x451 JUMP JUMPDEST PUSH2 0x375 DUP2 DUP6 PUSH2 0x45C JUMP JUMPDEST SWAP4 POP PUSH2 0x385 DUP2 DUP6 PUSH1 0x20 DUP7 ADD PUSH2 0x4E7 JUMP JUMPDEST PUSH2 0x38E DUP2 PUSH2 0x5AA JUMP JUMPDEST DUP5 ADD SWAP2 POP POP SWAP3 SWAP2 POP POP JUMP JUMPDEST PUSH2 0x3A2 DUP2 PUSH2 0x4C8 JUMP JUMPDEST DUP3 MSTORE POP POP JUMP JUMPDEST PUSH1 0x0 PUSH1 0x20 DUP3 ADD SWAP1 POP PUSH2 0x3BD PUSH1 0x0 DUP4 ADD DUP5 PUSH2 0x324 JUMP JUMPDEST SWAP3 SWAP2 POP POP JUMP JUMPDEST PUSH1 0x0 PUSH1 0x20 DUP3 ADD SWAP1 POP PUSH2 0x3D8 PUSH1 0x0 DUP4 ADD DUP5 PUSH2 0x333 JUMP JUMPDEST SWAP3 SWAP2 POP POP JUMP JUMPDEST PUSH1 0x0 PUSH1 0x20 DUP3 ADD SWAP1 POP PUSH2 0x3F3 PUSH1 0x0 DUP4 ADD DUP5 PUSH2 0x342 JUMP JUMPDEST SWAP3 SWAP2 POP POP JUMP JUMPDEST PUSH1 0x0 PUSH1 0x20 DUP3 ADD SWAP1 POP PUSH2 0x40E PUSH1 0x0 DUP4 ADD DUP5 PUSH2 0x351 JUMP JUMPDEST SWAP3 SWAP2 POP POP JUMP JUMPDEST PUSH1 0x0 PUSH1 0x20 DUP3 ADD SWAP1 POP DUP2 DUP2 SUB PUSH1 0x0 DUP4 ADD MSTORE PUSH2 0x42E DUP2 DUP5 PUSH2 0x360 JUMP JUMPDEST SWAP1 POP SWAP3 SWAP2 POP POP JUMP JUMPDEST PUSH1 0x0 PUSH1 0x20 DUP3 ADD SWAP1 POP PUSH2 0x44B PUSH1 0x0 DUP4 ADD DUP5 PUSH2 0x399 JUMP JUMPDEST SWAP3 SWAP2 POP POP JUMP JUMPDEST PUSH1 0x0 DUP2 MLOAD SWAP1 POP SWAP2 SWAP1 POP JUMP JUMPDEST PUSH1 0x0 DUP3 DUP3 MSTORE PUSH1 0x20 DUP3 ADD SWAP1 POP SWAP3 SWAP2 POP POP JUMP JUMPDEST PUSH1 0x0 PUSH2 0x478 DUP3 PUSH2 0x4A8 JUMP JUMPDEST SWAP1 POP SWAP2 SWAP1 POP JUMP JUMPDEST PUSH1 0x0 DUP2 ISZERO ISZERO SWAP1 POP SWAP2 SWAP1 POP JUMP JUMPDEST PUSH1 0x0 DUP2 SWAP1 POP SWAP2 SWAP1 POP JUMP JUMPDEST PUSH1 0x0 DUP2 SWAP1 POP PUSH2 0x4A3 DUP3 PUSH2 0x5BB JUMP JUMPDEST SWAP2 SWAP1 POP JUMP JUMPDEST PUSH1 0x0 PUSH20 0xFFFFFFFFFFFFFFFFFFFFFFFFFFFFFFFFFFFFFFFF DUP3 AND SWAP1 POP SWAP2 SWAP1 POP JUMP JUMPDEST PUSH1 0x0 PUSH1 0xFF DUP3 AND SWAP1 POP SWAP2 SWAP1 POP JUMP JUMPDEST PUSH1 0x0 PUSH2 0x4E0 DUP3 PUSH2 0x495 JUMP JUMPDEST SWAP1 POP SWAP2 SWAP1 POP JUMP JUMPDEST PUSH1 0x0 JUMPDEST DUP4 DUP2 LT ISZERO PUSH2 0x505 JUMPI DUP1 DUP3 ADD MLOAD DUP2 DUP5 ADD MSTORE PUSH1 0x20 DUP2 ADD SWAP1 POP PUSH2 0x4EA JUMP JUMPDEST DUP4 DUP2 GT ISZERO PUSH2 0x514 JUMPI PUSH1 0x0 DUP5 DUP5 ADD MSTORE JUMPDEST POP POP POP POP JUMP JUMPDEST PUSH1 0x0 PUSH1 0x2 DUP3 DIV SWAP1 POP PUSH1 0x1 DUP3 AND DUP1 PUSH2 0x532 JUMPI PUSH1 0x7F DUP3 AND SWAP2 POP JUMPDEST PUSH1 0x20 DUP3 LT DUP2 EQ ISZERO PUSH2 0x546 JUMPI PUSH2 0x545 PUSH2 0x57B JUMP JUMPDEST JUMPDEST POP SWAP2 SWAP1 POP JUMP JUMPDEST PUSH32 0x4E487B7100000000000000000000000000000000000000000000000000000000 PUSH1 0x0 MSTORE PUSH1 0x21 PUSH1 0x4 MSTORE PUSH1 0x24 PUSH1 0x0 REVERT JUMPDEST PUSH32 0x4E487B7100000000000000000000000000000000000000000000000000000000 PUSH1 0x0 MSTORE PUSH1 0x22 PUSH1 0x4 MSTORE PUSH1 0x24 PUSH1 0x0 REVERT JUMPDEST PUSH1 0x0 PUSH1 0x1F NOT PUSH1 0x1F DUP4 ADD AND SWAP1 POP SWAP2 SWAP1 POP JUMP JUMPDEST PUSH1 0x2 DUP2 LT PUSH2 0x5CC JUMPI PUSH2 0x5CB PUSH2 0x54C JUMP JUMPDEST JUMPDEST POP JUMP INVALID LOG2 PUSH5 0x6970667358 0x22 SLT KECCAK256 PUSH21 0xA40F251E7251B236853C1B5DE13946E18D397FEE26 LOG2 0xE9 0x1F 0xDB EQ PUSH15 0x1C95F2C664736F6C63430008070033 "
				},
				"gasEstimates": {
					"creation": {
						"codeDepositCost": "308200",
						"executionCost": "infinite",
						"totalCost": "infinite"
					},
					"external": {
						"_true()": "2516",
						"address_1()": "2580",
						"address_2()": "2515",
						"b()": "2610",
						"displayState()": "2618",
						"hashing_keccak256()": "2452",
						"hashing_s256()": "2496",
						"str()": "infinite",
						"trueOFF()": "24503",
						"trueOn()": "24525"
					}
				},
				"methodIdentifiers": {
					"_true()": "312a4c9c",
					"address_1()": "ad0a93bc",
					"address_2()": "1216d176",
					"b()": "4df7e3d0",
					"displayState()": "7272eea1",
					"hashing_keccak256()": "2b73648d",
					"hashing_s256()": "41dbe38b",
					"str()": "c15bae84",
					"trueOFF()": "7c3baa18",
					"trueOn()": "a2bdcc8c"
				}
			},
			"storageLayout": {
				"storage": [
					{
						"astId": 3,
						"contract": "Contracts/tiposVariable.sol:Variables_modifiers",
						"label": "a",
						"offset": 0,
						"slot": "0",
						"type": "t_uint8"
					},
					{
						"astId": 6,
						"contract": "Contracts/tiposVariable.sol:Variables_modifiers",
						"label": "b",
						"offset": 1,
						"slot": "0",
						"type": "t_uint8"
					},
					{
						"astId": 8,
						"contract": "Contracts/tiposVariable.sol:Variables_modifiers",
						"label": "c",
						"offset": 0,
						"slot": "1",
						"type": "t_int256"
					},
					{
						"astId": 12,
						"contract": "Contracts/tiposVariable.sol:Variables_modifiers",
						"label": "d",
						"offset": 0,
						"slot": "2",
						"type": "t_int8"
					},
					{
						"astId": 15,
						"contract": "Contracts/tiposVariable.sol:Variables_modifiers",
						"label": "e",
						"offset": 0,
						"slot": "3",
						"type": "t_int256"
					},
					{
						"astId": 18,
						"contract": "Contracts/tiposVariable.sol:Variables_modifiers",
						"label": "str",
						"offset": 0,
						"slot": "4",
						"type": "t_string_storage"
					},
					{
						"astId": 21,
						"contract": "Contracts/tiposVariable.sol:Variables_modifiers",
						"label": "str1",
						"offset": 0,
						"slot": "5",
						"type": "t_string_storage"
					},
					{
						"astId": 24,
						"contract": "Contracts/tiposVariable.sol:Variables_modifiers",
						"label": "_true",
						"offset": 0,
						"slot": "6",
						"type": "t_bool"
					},
					{
						"astId": 27,
						"contract": "Contracts/tiposVariable.sol:Variables_modifiers",
						"label": "_false",
						"offset": 1,
						"slot": "6",
						"type": "t_bool"
					},
					{
						"astId": 29,
						"contract": "Contracts/tiposVariable.sol:Variables_modifiers",
						"label": "first_byte",
						"offset": 0,
						"slot": "7",
						"type": "t_bytes_storage"
					},
					{
						"astId": 38,
						"contract": "Contracts/tiposVariable.sol:Variables_modifiers",
						"label": "hashing_keccak256",
						"offset": 0,
						"slot": "8",
						"type": "t_bytes32"
					},
					{
						"astId": 47,
						"contract": "Contracts/tiposVariable.sol:Variables_modifiers",
						"label": "hashing_s256",
						"offset": 0,
						"slot": "9",
						"type": "t_bytes32"
					},
					{
						"astId": 49,
						"contract": "Contracts/tiposVariable.sol:Variables_modifiers",
						"label": "my_address",
						"offset": 0,
						"slot": "10",
						"type": "t_address"
					},
					{
						"astId": 52,
						"contract": "Contracts/tiposVariable.sol:Variables_modifiers",
						"label": "address_1",
						"offset": 0,
						"slot": "11",
						"type": "t_address"
					},
					{
						"astId": 56,
						"contract": "Contracts/tiposVariable.sol:Variables_modifiers",
						"label": "address_2",
						"offset": 0,
						"slot": "12",
						"type": "t_address"
					},
					{
						"astId": 62,
						"contract": "Contracts/tiposVariable.sol:Variables_modifiers",
						"label": "state",
						"offset": 20,
						"slot": "12",
						"type": "t_enum(options)59"
					}
				],
				"types": {
					"t_address": {
						"encoding": "inplace",
						"label": "address",
						"numberOfBytes": "20"
					},
					"t_bool": {
						"encoding": "inplace",
						"label": "bool",
						"numberOfBytes": "1"
					},
					"t_bytes32": {
						"encoding": "inplace",
						"label": "bytes32",
						"numberOfBytes": "32"
					},
					"t_bytes_storage": {
						"encoding": "bytes",
						"label": "bytes",
						"numberOfBytes": "32"
					},
					"t_enum(options)59": {
						"encoding": "inplace",
						"label": "enum Variables_modifiers.options",
						"numberOfBytes": "1"
					},
					"t_int256": {
						"encoding": "inplace",
						"label": "int256",
						"numberOfBytes": "32"
					},
					"t_int8": {
						"encoding": "inplace",
						"label": "int8",
						"numberOfBytes": "1"
					},
					"t_string_storage": {
						"encoding": "bytes",
						"label": "string",
						"numberOfBytes": "32"
					},
					"t_uint8": {
						"encoding": "inplace",
						"label": "uint8",
						"numberOfBytes": "1"
					}
				}
			},
			"userdoc": {
				"kind": "user",
				"methods": {},
				"version": 1
			}
		}
	}
}